:100000000C9424030C9403170C94DC160C944C03EE
:100010000C944C030C944C030C9445180C944C0316
:100020000C944C030C944C030C944C030C944C0314
:100030000C944C030C944C030C944C030C944C0304
:100040000C9492160C944C030C9460160C943A1673
:100050000C944C030C944C030C944C030C944C03E4
:100060000C942A170C944C0300407A10F35A00A009
:10007000724E18090010A5D4E80000E87648170071
:1000800000E40B54020000CA9A3B000000E1F505B1
:10009000000080969800000040420F000000A086FB
:1000A00001000000102700000000E803000000002D
:1000B0006400000000000A000000000001000000D1
:1000C00000002C76D888DC674F0823DFC1DFAE59EB
:1000D000E1B1B796E5E3E453C63AE651997696E87E
:1000E000E6C28426EB898C9B62ED407C6FFCEFBC02
:1000F0009C9F40F2BAA56FA5F490055A2AF75C932D
:100100006B6CF9676DC11BFCE0E40D47FEF520E662
:10011000B500D0ED902E0300943577050080841E45
:10012000080000204E0A000000C80C333333330FA0
:10013000986E12831141EF8D2114893BE65516CF3D
:10014000FEE6DB18D1844B381BF77C1D901DA4BB49
:10015000E424203284725E228100C9F124ECA1E5FE
:100160003D2754534D3A494E49540A002154534DAA
:100170003A494E49543A545350204641494C0A009A
:100180005453463A5349443A4F4B2C49443D257504
:100190000A00215453463A5349443A4641494C2CAB
:1001A00049443D25750A0054534D3A494E49543A45
:1001B0005354415449443D25750A0054534D3A491E
:1001C0004E49543A545350204F4B0A0054534D3A21
:1001D000465041523A53544154503D25750A0054FB
:1001E000534D3A465041520A0054534D3A49443A0D
:1001F0005245510A0054534D3A49440A0021545380
:100200004D3A49443A4641494C0A0054534D3A4903
:10021000443A4F4B0A0054534D3A55504C0A002172
:1002200054534D3A55504C3A4641494C0A005453A8
:100230004D3A55504C3A444757432C4F3D25752C69
:100240004E3D25750A0054534D3A55504C3A4F4B8C
:100250000A0054534D3A52454144593A49443D25C8
:10026000752C5041523D25752C4449533D25750A46
:10027000002154534D3A52454144593A55504C206F
:100280004641494C2C53544154500A005453463A69
:100290005444493A54534C0A0054534D3A46414948
:1002A0004C3A4449530A0054534D3A4641494C3A5A
:1002B000434E543D25750A0054534D3A4641494C2E
:1002C0003A52452D494E49540A00215453463A5258
:1002D00054453A4E324E204641494C0A005453464A
:1002E0003A5254453A4E324E204F4B0A0021545355
:1002F000463A5254453A4650415220414354495699
:10030000450A00215453463A534E443A544E520A39
:100310000025735453463A4D53473A53454E442CA7
:1003200025752D25752D25752D25752C733D257568
:100330002C633D25752C743D25752C70743D2575F9
:100340002C6C3D25752C73673D25752C66743D25F9
:10035000752C73743D25733A25730A004D434F3A4B
:100360005245473A5245510A00214D434F3A5052A7
:100370004F3A52433D25750A000A002D2D20707218
:100380006573656E742053656E6420627265616B7F
:100390002C20002D2D2057726F6E67206E756D62B8
:1003A00065722049440A00214D434F3A5741493A6A
:1003B00052433D25750A00202D2074696D65722019
:1003C000656E64002E00322E332E320A00207C5FD0
:1003D0005C2F602C0A0702200220B2871003400124
:1003E00020002402221002220202200222002220E7
:1003F0000202202227101341010101032220304074
:1004000020305203402214020310522402217101B1
:1004100000101012101222101002240101032203F6
:10042000002001010032203712100121322601285C
:1004300040322212101212224322241210012224CE
:1004400070C122240F0F5453463A5755523A4D5318
:100450003D256C750A004D434F3A42474E3A494E8E
:100460004954204F4B2C5453503D25750A004D43A1
:100470004F3A42474E3A5354500A004D434F3A4286
:10048000474E3A4246520A004D434F3A42474E3A8F
:10049000494E4954204E4F44452C43503D524E4EF8
:1004A0004E412D2D2D2C46513D25752C52454C3D50
:1004B00025752C5645523D322E332E320A000A0045
:1004C0002D2D2070726573656E742053656E6420E7
:1004D000627265616B2C20004D434F3A50494D3A92
:1004E0004E4F4445205245473D25750A002154533F
:1004F000463A4D53473A52454C204D53472C4E52A5
:1005000045500A005453463A4D53473A52435620F9
:1005100043420A005453463A4D53473A42430A0075
:100520005453463A4D53473A4543484F0A002154E5
:1005300053463A4D53473A504F4E47205245435643
:100540002C494E4143544956450A005453463A4DAE
:1005500053473A504F4E4720524543562C48503D42
:1005600025750A005453463A4D53473A50494E4771
:1005700045442C49443D25752C48503D25750A00BD
:100580005453463A4D53473A4543484F20524551FC
:100590000A005453463A4D53473A524541442C259C
:1005A000752D25752D25752C733D25752C633D25E1
:1005B000752C743D25752C70743D25752C6C3D256E
:1005C000752C73673D25753A25730A0000000008F5
:1005D000000201000003040700000000000000000A
:1005E000214D434F3A5741493A52433D25750A0040
:1005F000214D434F3A534E443A4E4F4445204E4FBF
:1006000054205245470A0000000000250028002B16
:100610000000000000240027002A00040404040451
:10062000040404020202020202030303030303019F
:100630000204081020408001020408102001020476
:10064000081020004F18D31911241FBECFEFD8E097
:10065000DEBFCDBF12E0A0E0B1E0E6E8F7E402C003
:1006600005900D92AC31B107D9F723E0ACE1B2E0CF
:1006700001C01D92AE3CB207E1F713E0C3E2D3E044
:1006800004C02197FE010E947523C232D107C9F729
:100690000E94CD180C94B6230C940000E3EEF2E017
:1006A000A089B18982E08C93A485B5851C92A6852A
:1006B000B78580E18C93108EA489B58986E08C93F0
:1006C000A289B3898C9180618C93A289B3898C9122
:1006D00088608C93A289B3898C9180688C930288FE
:1006E000F389E02D80818F7D8083089590E0FC0167
:1006F000E15DF94F2491855E994FFC018491882337
:1007000099F090E0880F991FFC01EF5EF94FA591D9
:10071000B491FC01E95FF94F859194918FB7F894FA
:10072000EC91E22BEC938FBF0895942FE8E8F3E06F
:100730003091DF0231838283668325834481487F41
:10074000492B477E4483CF010895AF92BF92CF9249
:10075000DF92EF92FF920F931F93CF93DF936C0181
:100760007B018B01040F151FEB015E01AE18BF0862
:10077000C017D10759F06991D601ED91FC91019014
:10078000F081E02DC6010995892B79F7C501DF912C
:10079000CF911F910F91FF90EF90DF90CF90BF907E
:1007A000AF900895FC01538D448D252F30E0842FA8
:1007B00090E0821B930B541710F0CF960895019789
:1007C0000895FC01918D828D981761F0A28DAE0F76
:1007D000BF2FB11D5D968C91928D9F5F9F73928FFD
:1007E00090E008958FEF9FEF0895FC01918D828D29
:1007F000981731F0828DE80FF11D858D90E00895F6
:100800008FEF9FEF0895FC01918D228D892F90E04D
:10081000805C9F4F821B91098F739927089583EE07
:1008200092E00E94030421E0892B09F420E0822F4A
:100830000895FC01A48DA80FB92FB11DA35ABF4F75
:100840002C91848D90E001968F739927848FA689CF
:10085000B7892C93A089B1898C91837080648C9323
:10086000938D848D981306C00288F389E02D8081D2
:100870008F7D80830895EF92FF920F931F93CF9304
:10088000DF93EC0181E0888F9B8D8C8D98131AC0CB
:10089000E889F989808185FF15C09FB7F894EE89B2
:1008A000FF896083E889F98980818370806480830F
:1008B0009FBF81E090E0DF91CF911F910F91FF905A
:1008C000EF900895F62E0B8D10E00F5F1F4F0F7302
:1008D0001127E02E8C8D8E110CC00FB607FCFACFBD
:1008E000E889F989808185FFF5CFCE010E9419043E
:1008F000F1CFEB8DEC0FFD2FF11DE35AFF4FF0828E
:100900009FB7F8940B8FEA89FB8980818062CFCFF3
:100910000F931F93CF93DF938C01D0E0C0E0F801D9
:10092000EC0FFD1F6491662341F083EE92E00E947C
:100930003B04892B11F02196F2CFCE01DF91CF91AC
:100940001F910F910895CF93DF93EC01888D882339
:10095000B9F0AA89BB89E889F9898C9185FD03C022
:10096000808186FD0DC00FB607FCF7CF8C9185FF07
:10097000F2CF808185FFEDCFCE010E941904E9CF2F
:10098000DF91CF91089580E090E0892B29F00E94BB
:100990000F0481110C940000089590E0FC01E453D1
:1009A000FA4F2491FC01E15DF94F3491FC01E55EC1
:1009B000F94FE491EE23C9F0222339F0233001F1FD
:1009C000A8F4213019F1223029F1F0E0EE0FFF1FD9
:1009D000E95FF94FA591B4918FB7F894EC9161114B
:1009E00026C030953E233C938FBF08952730A9F051
:1009F0002830C9F0243049F7809180008F7D03C0F2
:100A0000809180008F7780938000DFCF84B58F77CF
:100A100084BDDBCF84B58F7DFBCF8091B0008F7715
:100A20008093B000D2CF8091B0008F7DF9CF3E2B64
:100A3000DACF2091310190E4299F900111248E504A
:100A4000822B80937C0080917A00806480937A006E
:100A500080917A0086FDFCCF80917800909179009A
:100A600008953FB7F8948091A5029091A602A091B5
:100A7000A702B091A80226B5A89B05C02F3F19F088
:100A80000196A11DB11D3FBFBA2FA92F982F88270E
:100A9000BC01CD01620F711D811D911D43E0660FE8
:100AA000771F881F991F4A95D1F708958F929F92BB
:100AB000AF92BF92CF92DF92EF92FF926B017C01D7
:100AC0000E9431054B015C01C114D104E104F10421
:100AD000B9F00E943105681979098A099B09683EB5
:100AE00073408105910580F321E0C21AD108E10825
:100AF000F10888EE880E83E0981EA11CB11CE4CF9B
:100B0000FF90EF90DF90CF90BF90AF909F908F902D
:100B100008952FB7F8946091A1027091A20280917C
:100B2000A3029091A4022FBF089508952091560228
:100B3000260F3327331F21323105ECF420917A023E
:100B4000FC0190E080E0243069F082E00895A091FB
:100B500056022191AC014A5C5D4FA40FB52FB11D27
:100B60002C930196861798F380915602680F609334
:100B7000560280E0089581E0089508958FEF9FEF79
:100B800008958FEF9FEF089580912F0290E0919547
:100B9000819591090895CF93DF93CB01EA01642FEA
:100BA0000E949605CE01DF91CF910895CF93DF93F8
:100BB0001F92CDB7DEB7698361E0CE0101960E9436
:100BC000960581E090E00F90DF91CF91089590E03D
:100BD00080E008950895FC01838187708860838395
:100BE00084818F71806284836783CF010895FC01C3
:100BF00083818695869586958A3108F089E10895E6
:100C0000E0912202F0912302309721F00280F381DB
:100C1000E02D099408950F931F930E948905009178
:100C20002402109125022091260230912702601B98
:100C3000710B820B930B1F910F9108959C01809172
:100C400022029091230282179307F1F090912C02D7
:100C50009F7190932C023093230220932202E09103
:100C60002202F0912302309721F00190F081E02DD3
:100C700009950E9489056093240270932502809350
:100C8000260290932702089580912C02805E809323
:100C90002C02E5CF88E191E00C941E068EBD000089
:100CA0000DB407FEFDCF8EB508950F931F93CF931C
:100CB000DF93EC018C81829586958770A9F4CE0133
:100CC0000E94F705482F50E0BE01695F7F4F8CEA14
:100CD00092E00E947B23CE010E94F705E82FF0E00E
:100CE000E455FD4F108209C0813071F48F814AE0D4
:100CF0006CEA72E090E00E94731B8CEA92E0DF9154
:100D0000CF911F910F910895823031F44AE06CEA3F
:100D100072E08F819885EFCF833041F44AE06CEA2E
:100D200072E08F8198850E94CC1BE7CF843051F40C
:100D30006F81788589859A852AE04CEA52E00E9485
:100D40007E1BDBCF853051F46F81788589859A854C
:100D50002AE04CEA52E00E94AA1BCFCF10E0873075
:100D600071F42B85293008F028E06F81788589851A
:100D70009A850CEA12E042E00E94EB19BECFCE0148
:100D80000E94F705181738F5E12FF0E09F01220FB8
:100D9000331FD901A455BD4FEC0FFD1F8781082ECD
:100DA000000C990B44E0959587954A95E1F78F7073
:100DB0008A3068F4805D8C9323553D4F87818F7016
:100DC0008A3038F4805DF90180831F5FD8CF895C59
:100DD000F2CF895CF8CFE82FF0E0EE0FFF1F80CF55
:100DE000FC0101900020E9F73197AF01481B590B36
:100DF000BC0183EE92E00C94A503CF93DF930E9495
:100E00008804EC0182E591E00E94F0068C0F9D1FA2
:100E1000DF91CF9108958F929F92AF92BF920F93DF
:100E20001F93CF93DF93CDB7DEB7A1970FB6F8949A
:100E3000DEBF0FBECDBF19A2423008F44AE08E01DA
:100E40000F5D1F4F842E912CB12CA12CA501940174
:100E50000E940022E62FB901CA01EA30F4F4E05DF5
:100E6000D801EE938D01232B242B252B79F790E0CD
:100E700080E0109719F0CD010E94F006A1960FB600
:100E8000F894DEBF0FBECDBFDF91CF911F910F91C0
:100E9000BF90AF909F908F900895E95CE1CFCF9382
:100EA000C82F80EC94E00E9488046C2F70E090E0E2
:100EB00080E04AE00E940B078EEB94E0CF910C9407
:100EC00088040F931F93CF93DF93EC018B01E0E035
:100ED0006115710549F0FB0101900020E9F7319798
:100EE000E61BEA3108F0E9E18B81877098E0E99F21
:100EF000F0011124E82BEB838C818F718C83CE0160
:100F00000E94F705482F50E0B801CE0107960E94D5
:100F10007B23CE010E94F7058C0F9D2F911DFC01B4
:100F20001782CE01DF91CF911F910F9108951F93EA
:100F3000CF93DF9385ED8093BC0080913202909136
:100F40003302A0913402B09135020796A11DB11D64
:100F500023E0B695A795979587952A95D1F7209187
:100F6000BC0024FD03C010927A0252C040913202AC
:100F7000509133026091340270913502452B462B1B
:100F8000472B69F30097A105B10541F02AE12A95A5
:100F9000F1F700C00197A109B109E1CF80913102B9
:100FA000C1E0C0933002882399F1D091B80010912C
:100FB000BA008091BC008A7B8093BC0060E082E133
:100FC0000E94CD0460E083E10E94CD0410927A0279
:100FD000C0937C0210927B0261E082E10E94CD040A
:100FE00061E083E10E94CD048091B9008E7F8093FF
:100FF000B9008091B9008D7F8093B90080E2809321
:10100000B80085E48093BC001093BA00D093B80078
:10101000DF91CF911F910895FC012481229526959F
:101020002770213011F487810895211104C007969B
:101030000E942E1B089580E00895DF92EF92FF92A8
:101040000F931F93CF93DF93FC01248124FD08C0ED
:101050008C0186818A3F61F0F8018581823021F11F
:10106000DF91CF911F910F91FF90EF90DF90089546
:101070008581823089F7C0910301CF010E940C085D
:1010800061E0811101C060E0C61751F36093030174
:1010900081E08093040187E992E00E948D21809194
:1010A00004018111DDCFD8CFE0908603F090870353
:1010B0008681F70193818917B9F09781C1E089137F
:1010C000CFCFD0E0CC0FDD1FCC0FDD1FCE0DDF1D4D
:1010D000DD80C8010E940C08D81611F28D8381E0D2
:1010E0008E83F7018083BCCFC0E0EBCFCF93DF933B
:1010F000FC01108211821282148215821682DC0198
:1011000017968AE1ED0119928A95E9F782E08383C7
:10111000DF91CF910895BF92CF92DF92EF92FF922D
:101120000F931F93CF93DF937B01042FB22E90E593
:101130009CBD1DBC2A98E0E1F0E03197F1F70E94D8
:101140004E06182FE7010150A8F0BB2051F08FEF99
:101150000E944E06182FE114F104A9F3888321960A
:10116000F2CF6E018FEFC81AD80A88810E944E060E
:10117000E601E9CF2A9A80E190E00197F1F7812F0B
:10118000DF91CF911F910F91FF90EF90DF90CF9063
:10119000BF900895CF93DF931F92CDB7DEB76983D9
:1011A00020E041E0BE016F5F7F4F0E948B080F90EF
:1011B000DF91CF9108956FE080E20E94CA086091AC
:1011C00013016F3F19F08AE20E94CA08299A089514
:1011D00021E041E070E060E00C948B0886E00E9422
:1011E000E808853231F485E00E94E80891E08C340B
:1011F00009F090E0892F089520E040E070E060E081
:101200000C948B08EF92FF920F931F93CF93DF9371
:10121000CDB7DEB7C857D1090FB6F894DEBF0FBE01
:10122000CDBF8E010F571F4FF801E190F1908F0154
:101230000E9489054AE00E940B0785E591E00E9423
:10124000F0069801A70168E770E0CE0101960E94C0
:10125000E61BCE0101960E94F00683EE92E00E940A
:10126000A304C858DF4F0FB6F894DEBF0FBECDBF42
:10127000DF91CF911F910F91FF90EF9008959F9272
:10128000AF92BF92CF92DF92EF92FF920F931F9394
:10129000CF93DF93F82EEB018091DF0288838B815F
:1012A00000E282FD05C0CB010E94F70507E0080FB0
:1012B0008091E20211E080FD03C08FEFF81210E090
:1012C000209709F4BBC0299880E091E00197F1F7DD
:1012D0006EE080E20E94CA0884EC90E00197F1F78A
:1012E0006F2D8AE20E94CA086F2D80E30E94CA080F
:1012F00081EE0E94FC08112321F060E584E20E9447
:10130000CA0820E0402FBE0180EA0E948B08299A7B
:10131000D12CC12C8FEF0E94FC08807349F49FEF01
:10132000C916D90629F0A8958FEFC81AD80AF2CFA6
:10133000299860E787E20E94CA08082F84FF03C04B
:1013400081EE0E94FC08112321F06FE584E20E94E7
:10135000CA080E94DB0805FD73C0012F8C818770CD
:10136000833039F48D8127E5A22E21E0B22E813120
:1013700021F0CE010E9455065C0192E6C92E91E053
:10138000D92E002321F08FE5C82E81E0D82E809140
:101390002D028F70982EEB80E2FAEE24E0F8CE0159
:1013A0000E94F7059C81F92FF295F695F770ED8173
:1013B00097707E816A815881498127E631E0111159
:1013C00006C029E631E0002311F024E531E0BF92A8
:1013D000AF92DF92CF921F929F921F92EF921F9235
:1013E0008F931F92FF931F92EF931F929F931F92D1
:1013F0007F931F926F931F92FF921F925F931F9292
:101400004F933F932F9381E193E09F938F930E949B
:1014100002098DB79EB74E960FB6F8949EBF0FBEC9
:101420008DBF802FDF91CF911F910F91FF90EF9093
:10143000DF90CF90BF90AF909F90089500E08ECF47
:1014400001E08CCF0F931F93CF93DF938C01FC01AE
:10145000828190912C0290FF12C08F3F09F443C00B
:101460008DEE92E09F938F930E9402090F900F9050
:10147000C0E08C2FDF91CF911F910F910895D091F3
:10148000E0028823D9F08F3F71F1B8010E943F0933
:10149000C82F882349F08DED92E09F938F930E948F
:1014A00002090F900F90E5CF8AEC92E09F938F9303
:1014B0000E940209D091E0020F900F90B8018D2F89
:1014C0000E943F09C82F8091E0028D13D2CF8091F6
:1014D0002D02C1110AC091E0980F9F70807F892B67
:1014E00080932D02C6CFDFEFE9CF807F80932D025E
:1014F000C1E0BFCF20912C0222FD0C94220A83E090
:1015000093E09F938F930E9402090F900F9080E0C9
:1015100008951F93CF93DF93182F262FEA0150E0F1
:1015200040E0682F80E00E9495031F3F11F4CBE656
:10153000D1E0BE010E946107DF91CF911F910C9411
:101540007A0AFC018091DF0281839481907F996007
:1015500094838091AB0280FF03C0CF010C947A0A80
:1015600080EF95E09F938F930E9402090F900F9058
:1015700080E00895FF920F931F93CF93DF93CDB731
:10158000DEB7A1970FB6F894DEBF0FBECDBFF82E21
:101590008B01CE0101960E947608FF8282E08E8345
:1015A000F8016081CE0101960E94EB050E94A10A1C
:1015B000A1960FB6F894DEBF0FBECDBFDF91CF91DD
:1015C0001F910F91FF900895EF92FF920F931F9339
:1015D000CF93DF931F92CDB7DEB78C017B01DB0188
:1015E0008C91E82FF0E0DF01AA0FBB1FAA0FBB1FF1
:1015F000A00FB11F3196EE0FFF1FEE0FFF1FE00F80
:10160000F11F15966C9180810E94CD04D701EC9159
:10161000B4E0EB9FF0011124E00FF11F838190E013
:10162000658183569E4F0E948D21F7018081F4E0F1
:101630008F9FC0011124F801E80FF91F21E03581C7
:10164000311101C020E02983080F191FBE016F5F0F
:101650007F4FD80113968C910E94BA0A0F90DF91A8
:10166000CF911F910F91FF90EF900895EF92FF920D
:101670000F931F93CF93DF93CDB7DEB7A1970FB62C
:10168000F894DEBF0FBECDBFE82EF62E8A01CE0144
:1016900001960E947608EF82FE82F8012081318156
:1016A0008C81877080618C838D818F7180668D8342
:1016B00039872887CE0101960E94A10AA1960FB60C
:1016C000F894DEBF0FBECDBFDF91CF911F910F9178
:1016D000FF90EF9008952F923F924F925F926F92FA
:1016E0007F928F929F92AF92BF92CF92DF92EF92B2
:1016F000FF920F931F93CF93DF9300D000D0CDB70D
:10170000DEB7809128018F3F09F484C083E0E82E82
:10171000F12C92E0C92ED12C27E1222E312C31E27E
:10172000432E512C45E2642E712C56E0852E912CCF
:1017300080912801873008F001C1833009F491C0FD
:1017400070F4813091F1823009F47BC083E993E039
:101750000E94FD0683EE92E00E94A3045BC08530E8
:10176000F1F008F4B5C0863089F79EEF9B835A826A
:10177000498246EA51E0BE016F5F7F4FCE0103967A
:101780000E941210882309F445C07A826982BE0142
:101790006F5F7F4FCE01039698C0BB2041F08091D0
:1017A00028018F5F80932801C3CF09EE13E064E620
:1017B00070E080E090E00E949C0F2BE043E050E05E
:1017C0006FEF80E00E94950361E771E00E9461077E
:1017D0000E947A0AB82E2CE043E050E06FEF80E0E0
:1017E0000E94950360E871E00E9461070E947A0AF6
:1017F000B8220150110989F68BE793E00E94880412
:1018000081E791E00E94F00689E793E00E94880456
:10181000B110C5CF0F900F900F900F90DF91CF9127
:101820001F910F91FF90EF90DF90CF90BF90AF90FE
:101830009F908F907F906F905F904F903F902F90F0
:1018400008959A8289828DEF8B8344E851E0BE012E
:101850006F5F7F4FCE0103960E94121081119FCFC0
:10186000D9CF0091860310918703FA82E98258014B
:1018700083E0A80EB11C4DE851E0BE016F5F7F4FC1
:10188000C5010E941210882329F2DA82C982BE01A2
:101890006F5F7F4FC5010E94DB0F882309F4BACF29
:1018A000FA82E982095F1F4F4DE851E0BE016F5F88
:1018B0007F4FC8010E941210882309F4ABCFDA824F
:1018C000C982BE016F5F7F4FC8010E94DB0FC6CF88
:1018D0009AEF9C838BEF8B8380E190E09A838983DE
:1018E00050E040E0BE016F5F7F4FCE0103960E9443
:1018F0001210882309F48ECF3A822982BE016F5FCD
:101900007F4FCE0103960E94DB0F882309F482CF1C
:10191000FA82E9824AE951E0BE016F5F7F4FCE0152
:1019200004960E941210882309F474CFDA82C982C7
:10193000BE016F5F7F4FCE010496C7CF8FEF8093BC
:10194000280168CF2FE043E050E06FEF80E00E9475
:10195000950364E571E00E946107E8E8F3E08381A4
:1019600087708061838384818F71806C848381E040
:1019700087831086CF010E947A0A8FE00E944F0F62
:1019800044E551E061E170E08FEF0E94890A26E0B2
:1019900043E050E06FEF80E00E9495036091E00229
:1019A0000E94EB050E947A0A86E00E944F0F0C9479
:1019B0006B0B2F923F924F925F927F928F929F92EA
:1019C000AF92BF92CF92DF92EF92FF920F931F934D
:1019D000CF93DF93CDB7DEB7A1970FB6F894DEBFF4
:1019E0000FBECDBF86E0E82E22242A9492E0392E45
:1019F00093E0492E532C2BE4822E25E0922E87E192
:101A00000E94E80880FD10C2EA94EE2009F40CC29E
:101A100021E041E070E060E080E60E948B08182F32
:101A2000813220F082EE0E94FC0810E021E0412F7C
:101A300069EA73E081E60E948B0860E487E20E9415
:101A4000CA0881E2E9EAF3E0DE01119601900D9205
:101A50008A95E1F70C81802F8370823081F6CE0168
:101A600001960E94F70502FD89E1895F1813C7CF2F
:101A700089EA93E00E94F705782E0091AD03077084
:101A80001091AE03F090AA03D090A903C090AB03CD
:101A9000033021F487E591E0113121F089EA93E0E8
:101AA0000E945506A72CB12C9F938F938091AC0375
:101AB00082FB882780F91F928F931F927F928091DB
:101AC000AD038295869587701F928F931F921F9307
:101AD0001F920F938091AF031F928F931F92CF920B
:101AE0001F92DF921F92FF9222E935E03F932F93DE
:101AF0000E94020980912D02806880932D020FB60A
:101B0000F894DEBF0FBECDBF8091DF02C8124BC17B
:101B1000F501E755FC4F17828091AD0383FF21C08B
:101B200080E895E09F938F930E94020981E2E9EAA1
:101B3000F3E0A8E8B3E001900D928A95E1F7809177
:101B40008C03877E806180938C038091DF02809379
:101B50008903F0928A0388E893E00E947A0A0F9042
:101B60000F909091AD0394FD15C1033009F00AC1A7
:101B70008091AE0321EF280F233008F440CF1430BA
:101B800009F43DCF183109F589EA93E00E940C0869
:101B90001F928F931F92FF9284E695E09F938F93FD
:101BA0000E94020929E143E050E06FEF8F2D0E946F
:101BB000950361E00E94EB050E94220A0F900F90AE
:101BC0000F900F900F900F901ACF1931F9F4809168
:101BD0002C0283FF14C0877F80932C0289EA93E054
:101BE0000E940C0880932E021F928F939F928F92D7
:101BF0000E9402090F900F900F900F9000CF8EE27D
:101C000095E09F938F930E9402090BC11E3109F446
:101C1000F6CE1D31C1F42FE143E050E06FEF80E0DC
:101C20000E949503FC018381877080618383848196
:101C30008F718064848380E09FEF90878783CF01DA
:101C40000E94220ADCCE2091AA032111A0C08D306F
:101C500059F488E198E00FB6F894A8958093600055
:101C60000FBE90936000FFCF8B31A9F489EA93E017
:101C70000E940C0891E0811101C090E08091AB02BC
:101C800090FB80F98093AB021F929F9328ED34E084
:101C90003F932F93ADCF863099F49091B00381E0BC
:101CA000992319F09D3409F080E08093AA0241E065
:101CB00050E063E071E08AEA92E00E947D219FCECD
:101CC000833119F40E94A20C9ACE8231E1F40E9471
:101CD0000B065B016C0126E143E050E06FEF80E012
:101CE0000E949503FC0183818770806283838481D5
:101CF0008F71806A8483A782B086C186D286CF0125
:101D00000E947A0A7CCE8230A9F422E043E050E0BF
:101D10006FEF80E00E949503FC01838187708062F1
:101D2000838384818F71806A848327823086418691
:101D30005286E5CF813001F520E030E0232B09F415
:101D40005ECE929596959770953059F46091B00358
:101D50007091B1038091B2039091B3030E9400008F
:101D60004ECE911105C080EB93E00E944C1BF6CF44
:101D700060E070E0CB01F2CF8A3009F440CE8C31C4
:101D800009F43DCE89EA93E00E941D0838CE8A31DD
:101D9000C9F735CE80E295E09F938F930E940209A8
:101DA0000F900F90EFCF3FEF8DEE94E0C31229CF4D
:101DB00084E195E09F938F930E9402090F900F900A
:101DC000033009F580912C0282FF03C0173009F41B
:101DD00016CE143109F013CE8091E002D8120FCE46
:101DE0000E9489057370882799270E94560525E16E
:101DF00043E050E06FEF8F2D0E9495036091E00269
:101E00000E94EB051DCF8091E002D812F8CD84E04E
:101E100095E09F938F930E94020989EA93E00E94C4
:101E20001D080F900F90EBCDA1960FB6F894DEBF72
:101E30000FBECDBFDF91CF911F910F91FF90EF901B
:101E4000DF90CF90BF90AF909F908F907F905F90EA
:101E50004F903F902F90089580911D02882361F04C
:101E60001F928F9389E693E09F938F930E940209BC
:101E70000F900F900F900F9080911D028F5F8093B5
:101E80001D02A8950E94000680912C0284FD0E94EC
:101E9000D90C80911D02815080931D020895CF922C
:101EA000DF92EF92FF92CF93DF93D82F8091A90218
:101EB000882361F01F928F9380EE95E09F938F931C
:101EC0000E9402090F900F900F900F908091A9022D
:101ED0008F5F8093A9020E9489056B017C0180912C
:101EE000AD0387608093AD03C0E00E9489056C1943
:101EF0007D098E099F09603D77408105910578F441
:101F0000C1110DC00E942C0F8091AD0387708330EA
:101F100061F7C1E08091AE038D13E6CFE6CF8091EB
:101F2000A90281508093A9028C2FDF91CF91FF905D
:101F3000EF90DF90CF9008958F929F92AF92BF92D3
:101F4000CF92DF92EF92FF924B015C018091A90248
:101F5000882361F01F928F9387EA93E09F938F937A
:101F60000E9402090F900F900F900F908091A9028C
:101F70008F5F8093A9020E9489056B017C010E94FA
:101F800089056C197D098E099F09681579058A05EF
:101F90009B0518F40E942C0FF2CF8091A90281506A
:101FA0008093A902FF90EF90DF90CF90BF90AF9009
:101FB0009F908F900895CF92DF92EF92FF920F93B0
:101FC0001F93CF93DF937C016B01C9EED3E0F60141
:101FD0000081F701108164E670E080E090E00E94EB
:101FE0009C0F202F42E050E0612F80E00E9495037B
:101FF00064E571E00E9461070E947A0A182F219718
:1020000029F4F70180810E944F0702C01123F9F2E1
:10201000812FDF91CF911F910F91FF90EF90DF9073
:10202000CF9008958F929F92AF92BF92CF92DF92FE
:10203000EF92FF920F931F93CF937C015B016A0194
:1020400009EE13E0F50180809180F701C08164E61C
:1020500070E080E090E00E949C0FA601C114D104C2
:1020600011F444E551E0B4018C2F0E94890AC82F75
:102070000150110929F4F70180810E944F0702C025
:10208000CC2301F38C2FCF911F910F91FF90EF90F4
:10209000DF90CF90BF90AF909F908F900895EF9278
:1020A000FF920F931F93CF93DF93CDB7DEB7A19726
:1020B0000FB6F894DEBF0FBECDBF809128018F3FD1
:1020C00089F10E946B0B809128018F3FC1F00CE3D6
:1020D00010E00150110959F084EC93E00E9488044B
:1020E00064EF71E080E090E00E949C0FF2CF87EBFC
:1020F00093E00E94FD0683EE92E00E94A30468EE46
:1021000073E080E090E00E949C0FA1960FB6F894D7
:10211000DEBF0FBECDBFDF91CF911F910F91FF901A
:10212000EF90089580912C0282FFE1C180911E0200
:1021300090911F026CE370E00E944623892B29F0E6
:1021400080910501882309F44DC08FE00E94190594
:1021500020910801309109012817390714F4821BD6
:10216000930B20910601309107012817390771F070
:1021700097FD0CC09093070180930601863091056E
:102180000CF072C010920B0110920A0180910A01AA
:1021900090910B0120910C0130910D012817390706
:1021A000E1F090930D0180930C01A0910601B09194
:1021B000070124E630E00E946E2324E833E040E08B
:1021C00050E00E949F213A832983AE014F5F5F4F09
:1021D00067E170E08BEF0E94360B80910501811161
:1021E0001092050180910401882339F010920401B6
:1021F00063E071E08AEF0E94BA0A009186031091B1
:10220000870380911E0290911F0266E470E00E9495
:102210004623892B09F04FC01982E981E23008F08A
:102220004AC024E0E29FF00111249F01200F311FDA
:10223000F90185818823A1F0F801A181B2818C91F7
:10224000882371F017968D919C910497039740F421
:10225000F9011582BE016F5F7F4FC8010E94E40A39
:1022600089818F5F8983D9CF833391053CF481E0E5
:1022700090E090930B0180930A0188CF87399105F4
:102280001CF482E090E0F5CF8D3221E092071CF43F
:1022900083E090E0EECF853FE1E09E071CF484E010
:1022A00090E0E7CF8D3B92401CF485E090E0E1CFD9
:1022B00086E090E0DECFF80180818823C9F01082AB
:1022C0001982E981E230A0F424E0E29FF0011124B8
:1022D000E00FF11F8681882339F01682BE016F5FFF
:1022E0007F4FC8010E94E40A89818F5F8983E9CF0B
:1022F000009184031091850380911E0290911F022A
:1023000067EB70E00E944623892B29F0F801808159
:10231000882309F452C088EC80937C0080917A0075
:10232000806880937A0064E170E080E090E00E9431
:10233000560580917A00806480937A0080917A00BB
:1023400086FDFCCF609178007091790090E080E08C
:102350000E94D7202EEA37E242EA53E40E9431225B
:1023600026EF38E24CE95FE30E949E220E94102390
:102370006138F9F0F80181818617D9F06183CE01C7
:1023800001960E9476088DEF8F831E82F8012181CD
:10239000022E000C330B8C81877080618C838D81C1
:1023A0008F7180648D8339872887CE0101960E94C2
:1023B000A10AF801808181111082E0908203F090DF
:1023C000830380911E0290911F0265EB70E00E94D2
:1023D0004623892B21F0F7018081882339F18EE093
:1023E0000E9419056AE070E00E945A238B0165364D
:1023F000710514F004E610E017FF02C010E000E0E1
:10240000F70181818017110669F0018320E043E024
:1024100050E06FEF80E00E949503602F0E94EB0573
:102420000E947A0AF7018081811110820091800355
:102430001091810380911E0290911F0266EB70E063
:102440000E944623892B21F0F80180818823E1F145
:1024500088E00E94E8088F7023EE3FEFF8E08F9F3E
:10246000201931091124032E000C440B550B2B5A53
:102470003F4F4F4F5F4FA4E6B0E00E94BE212DE2D8
:1024800030E040E050E00E949F212536310514F0F5
:1024900024E630E037FF02C030E020E0F80181811F
:1024A00092818217930761F0328321833A832983D3
:1024B000AE014F5F5F4F65E270E08EEF0E94360B1A
:1024C000F80180818111108280911E0290911F027B
:1024D00001968036FAEE9F0728F490931F028093AE
:1024E0001E020DCE10921F0210921E0208CE60E155
:1024F00077E280E090E00E949C0F01CECF93809124
:10250000AB0281FD28C00E94A20C8CE593E09F9352
:102510008F930E9402098091AB0281608093AB028D
:102520000F900F90C4E02AE143E050E06FEF80E0AD
:102530000E94950362E00E94EB050E947A0A8BE1FB
:102540000E944F0F811102C0C15069F78091AB0208
:1025500082608093AB02CF9108950F931F930E94E6
:102560000B0620912D0220772037B9F000E117E209
:1025700020E030E0061717072807390798F488EBA2
:1025800092E09F938F930E9402090F900F9089E22F
:1025900091E01F910F910C941E0600E61AEE20E0C8
:1025A00030E0E8CF1F910F91089580912D02982F70
:1025B0009077903759F0982F92959F709F5F977002
:1025C0009295907F8F78892B80932D0280912D0298
:1025D000829587701F928F9387EA92E09F938F93E3
:1025E0000E94020980912C028B7F8F7E80932C02A7
:1025F00089E992E09F938F930E9402098CE892E010
:102600009F938F930E94020929988DB79EB70896D1
:102610000FB6F8949EBF0FBE8DBF6CE080E20C94A5
:10262000CA0880912D028F70863068F081E792E0B1
:102630009F938F930E94020980912D02807F809347
:102640002D020F900F9008958091E1021F928F93B9
:102650008091E0021F928F938091DF021F928F93EF
:1026600082E592E09F938F930E94020980912C0251
:10267000846080932C0280912D02807880932D02BB
:10268000E0912002F09121028DB79EB708960FB617
:10269000F8949EBF0FBE8DBF309709F0099408953E
:1026A00080912E028F3F81F10E948905609328025C
:1026B0007093290280932A0290932B0286E492E081
:1026C0009F938F930E94020990912E028091E102C4
:1026D0000F900F909817A1F01F929F931F928F93C6
:1026E0008EE292E09F938F930E94020980912E02C6
:1026F0008093E1020F900F900F900F900F900F902A
:1027000084E291E00C941E060E940B06613D774026
:1027100081059105B8F080912C02803618F480E292
:1027200091E0F0CF8FE192E09F938F930E94020996
:1027300080912C02877F80932C020F900F908CE168
:1027400091E0E0CF089586E192E09F938F930E94FD
:1027500002098FEF80932E02ECE2F2E08081886024
:10276000808328E143E050E06FEF80E00E94950312
:1027700061E00E94EB050F900F900C94220A80916B
:10278000DF028F3F61F08BE092E09F938F930E9476
:1027900002090F900F9080E291E00C941E060E94B7
:1027A0000B06613D77408105910590F080912C02E8
:1027B000803618F488E191E0F0CF8DEF91E09F939F
:1027C0008F930E9402090F900F9084E191E0E5CF72
:1027D000089585EF91E09F938F930E9402090F90D7
:1027E0000F908091DF028F3FA9F489EE91E09F93D3
:1027F0008F930E94020923E043E050E06FEF80E0F6
:102800000E94950364E571E00E9461070F900F90AC
:102810000C94220A0895CF93DF938FED91E09F935C
:102820008F930E940209CCE2D2E088818B7F8D7F5A
:1028300088831F921F928CEC91E09F938F930E944C
:10284000020988818E7F8883EFEDF2E081E0828348
:1028500011820F900F900F900F900F900F9060E0EB
:1028600081E090E0DF91CF910C948D21CF93219A5C
:10287000229A29982A9ACFB7F89480911C02811144
:1028800024C0E5E2F6E08491E9E3F6E09491E82FD4
:10289000F0E0EE0FFF1FEF5EF94FA591B491EC91C0
:1028A000E92321F461E08AE00E94CD048AE00E94DD
:1028B00076038CB580618CBD8CB580648CBD8DE059
:1028C0000E9476038BE00E94760380911C028F5F4A
:1028D00080931C02CFBF29986EE080E20E94CA0854
:1028E00084E293E20197F1F763E083E20E94CA0871
:1028F0006FE584E20E94CA086CE485E20E94CA087F
:1029000065E286E20E94CA0864E08DE30E94CA087C
:102910008DE10E94E808843041F063E780E50E9481
:10292000CA0864E08DE30E94CA080E94EE08811183
:102930000DC08CE691E09F938F930E9402090F9047
:102940000F9084E191E0CF910C941E0662E082E248
:102950000E94CA0860E081E20E94CA0863E08CE33A
:102960000E94CA088FEF80930E0120E045E06EE0E0
:1029700071E08BE20E948B0820E045E06EE071E0A0
:102980008AE20E948B0820E045E06EE071E080E37F
:102990000E948B0882EE0E94FC0881EE0E94FC08D7
:1029A00060E787E20E94CA088BEB91E09F938F93C8
:1029B0000E94020980912C02806180932C028091F8
:1029C000E2028E7F8093E2021F92C7E1CF9387EAF3
:1029D00091E09F938F930E940209C093DF0267E109
:1029E00090E080E00E948D21C091DF020F900F9057
:1029F0000F900F900F900F90CF3F09F18FEF8C0F3A
:102A00008E3F00F5C093130163E082E20E94CA0882
:102A100061E081E20E94CA080E94DB086C2F90E00E
:102A200080E00E948D211F92CF9380E891E09F93D8
:102A30008F930E9402090F900F900F900F908CE1DE
:102A400091E081CF1F921F9282E991E09F938F9333
:102A50000E9402090F900F900F900F9072CF82E6A4
:102A600091E09F938F930E940209ECE2F2E0808153
:102A7000877F8F7E80831092280210922902109205
:102A80002A0210922B020F900F9044E050E070E069
:102A900060E08FED92E00C946521EF92FF920F932E
:102AA0001F93CF93DF93CDB7DEB780E091E00E9414
:102AB000091A8C019395F80111928E179F07E1F77F
:102AC0009E01255F3F4F49855A856FEF70E0C80131
:102AD0000E948A237801F70161917F01662329F022
:102AE00083EE92E00E943B04F6CF0115110519F028
:102AF000C8010E94A51ADF91CF911F910F91FF90FD
:102B0000EF900895EF92FF920F931F93CF93DF936F
:102B1000CDB7DEB7C555D1090FB6F894DEBF0FBEED
:102B2000CDBF0E944E0325E5E6ECF1E0CE01019613
:102B3000DC0101900D922A95E1F71F921F921F92DE
:102B400022E02F931F921F9220E831E03F932F93B2
:102B500021E731E03F932F932BEA31E03F932F930E
:102B600021EB31E03F932F932AEB31E03F932F93FA
:102B70009F938F930E944D1583EE92E00E94A304D1
:102B80000091860310918703FFB6F894F8018381C2
:102B900090E083569E4F0E947521F801858391E055
:102BA0000FB6F894DEBF0FBECDBF811101C090E01B
:102BB000F801968384810E947603F801878190E072
:102BC00083569E4F0E947521F801818791E0811103
:102BD00001C090E0F801928780850E947603FFBED5
:102BE00083E0809331018FE00E941905F12CE12CE4
:102BF00010E000E00E948905683873418105910565
:102C000098F464E670E080E090E00E949C0F8FE012
:102C10000E941905081719072CF08E159F050CF452
:102C20007C01C8018C01E6CF0E191F090F31110577
:102C3000E4F4109309010093080187E992E00E94EF
:102C4000752191E0811101C090E090930301CB5A6E
:102C5000DF4F0FB6F894DEBF0FBECDBFDF91CF912F
:102C60001F910F91FF90EF9008951092090110921B
:102C70000801E3CF1F920F920FB60F9211242F93EA
:102C80003F934F935F936F937F938F939F93AF93F4
:102C9000BF93EF93FF9383EE92E00E941904FF919C
:102CA000EF91BF91AF919F918F917F916F915F91C4
:102CB0004F913F912F910F900FBE0F901F9018953D
:102CC0001F920F920FB60F9211242F938F939F9301
:102CD000EF93FF93E091F302F091F4028081E09191
:102CE000F902F091FA0282FD1BC090818091FC02F2
:102CF0008F5F8F732091FD02821741F0E091FC02FB
:102D0000F0E0ED51FD4F958F8093FC02FF91EF9124
:102D10009F918F912F910F900FBE0F901F9018953C
:102D20008081F4CF1F920F920FB60F9211242F9330
:102D30003F938F939F93AF93BF938091A102909104
:102D4000A202A091A302B091A4023091A00226E0B9
:102D5000230F2D3758F50296A11DB11D2093A00217
:102D60008093A1029093A202A093A302B093A40225
:102D70008091A5029091A602A091A702B091A8020D
:102D80000196A11DB11D8093A5029093A602A09368
:102D9000A702B093A802BF91AF919F918F913F91ED
:102DA0002F910F900FBE0F901F90189529E8230FB9
:102DB0000396A11DB11DD2CF1F920F920FB60F9295
:102DC00011242F933F934F935F936F937F938F9330
:102DD0009F93AF93BF93EF93FF93E0912F01F091F7
:102DE00030010995FF91EF91BF91AF919F918F9124
:102DF0007F916F915F914F913F912F910F900FBEF7
:102E00000F901F9018951F920F920FB60F921124DA
:102E10002F933F934F935F936F937F938F939F93E2
:102E2000AF93BF93EF93FF93E0912D01F0912E01AB
:102E30000995FF91EF91BF91AF919F918F917F91F4
:102E40006F915F914F913F912F910F900FBE0F9017
:102E50001F9018951F920F920FB60F9211242F9367
:102E60003F934F935F936F937F938F939F93AF9312
:102E7000BF93EF93FF938091B900887F803609F468
:102E80004AC0F0F5883209F4A5C018F5803109F47C
:102E900099C0B8F4882309F4F5C0883009F492C0C9
:102EA000FF91EF91BF91AF919F918F917F916F9122
:102EB0005F914F913F912F910F900FBE0F901F90F8
:102EC0001895883109F486C0803251F780937902D1
:102ED00014C0803409F49BC040F48033B9F38833C4
:102EE000F9F68093790285ECAEC0803509F483C091
:102EF000883509F494C0883499F60E949707D0CF9A
:102F0000883909F48AC038F5883729F050F48836B2
:102F100011F0803729F683E080937A0210927802CC
:102F200055C0883809F479C0803919F0803809F023
:102F3000B7CF80917802803208F06FC0E0917802BC
:102F400081E08E0F809378028091BB00F0E0E85A18
:102F5000FD4F80833BC0803B39F0D0F4803A09F4C8
:102F600077C0883A09F09CCF84E080937A0210926F
:102F7000570210925602F0E0E0E009958091560267
:102F800081110FC081E0809356021092360209C071
:102F9000803C09F4A8CF883C09F4A5CF883B09F010
:102FA0007FCFE091570281E08E0F80935702F0E0CF
:102FB000EA5CFD4F80818093BB0090915702809125
:102FC000560229C080919F028093BB0085EC8093BC
:102FD000BC0066CF90919E0280919D02981758F593
:102FE000E0919E0281E08E0F80939E02F0E0E35814
:102FF000FD4F8081E9CFE0919E0281E08E0F8093AA
:103000009E028091BB00F0E0E358FD4F80839091D9
:103010009E0280919D029817C8F285E8D8CFE09172
:103020009E0281E08E0F80939E028091BB00F0E0B3
:10303000E358FD4F808380917C0281115ECF81E057
:1030400080937B0284EA8093BC0010927A0228CF9E
:1030500085EC8093BC0010927A02809178028032D5
:1030600030F4E0917802F0E0E85AFD4F1082609170
:10307000780270E088E592E0F0E0E0E009951092D7
:1030800078020ECF1092790238CF1F920F920FB6AE
:103090000F9211240F900FBE0F901F901895CF9391
:1030A000E3EEF2E01382128288EE93E0A0E0B0E05B
:1030B00084839583A683B78384E491E0918380839E
:1030C00085EC90E09587848784EC90E097878687ED
:1030D00080EC90E0918B808B81EC90E0938B828BE5
:1030E00082EC90E0958B848B86EC90E0978B868BBE
:1030F000118E128E138E148E89EA93E00E94760848
:1031000088E893E00E9476088BE090E00E94091A1C
:10311000C1E0FC01C08328E0E8E3F1E0DC011396A4
:1031200001900D922A95E1F723E031E0FC01328312
:1031300021832FB7F89490938703809386032FBF42
:1031400082E090E00E94091AFC011182C0832FB72F
:10315000F89490938503809384032FBF82E090E0DE
:103160000E94091AFC011182C0832FB7F894909332
:103170008303809382032FBF83E090E00E94091AAB
:10318000FC0112821182C0832FB7F89490938103BF
:10319000809380032FBFCF910895789484B5826087
:1031A00084BD84B5816084BD85B5826085BD85B5EB
:1031B000816085BD80916E00816080936E00109269
:1031C00081008091810082608093810080918100E4
:1031D0008160809381008091800081608093800075
:1031E0008091B10084608093B1008091B0008160D3
:1031F0008093B00080917A00846080937A008091FF
:103200007A00826080937A0080917A008E7F80932A
:103210007A0080917A00806880937A001092C100D1
:10322000A89580E090E0892B11F00E9400000E9498
:103230004E03C0E1D0E0F12CFE01F595E795E35394
:10324000FC4FE491C0FF9EC0EF70E83008F09FC0D3
:10325000F0E0E353FC4FF4906F2D83EE92E00E9478
:103260003B042196C23FD10539F786EC93E00E94DA
:10327000FD061F928FEF8F931F9288E08F9388E84F
:1032800094E09F938F930E9402098091AB028D7FFF
:103290008093AB028BE794E09F938F930E94020987
:1032A0000E94821541E050E063E071E08AEA92E01A
:1032B0000E94652160E081E090E00E948D21809174
:1032C0002D028F7880932D021092230210922202F9
:1032D00089E291E00E941E068EE792E1909321021E
:1032E000809320021F921F921F921F9286E494E007
:1032F0009F938F930E9402090E9489058DB79EB704
:103300000E960FB6F8949EBF0FBE8DBF0E94890522
:103310000E94000680912C0284FD36C080912C0210
:1033200082FB882780F9A895882381F38EE694E0B4
:103330009F938F930E94020990912C020F900F90FF
:1033400092FB882780F992FD0E94EE081F928F93CE
:1033500086E594E09F938F930E940209A8950F90B1
:103360000F900F900F90C0E0D0E00E942C0F0E94B1
:103370004F102097D1F30E940F048823B1F30E94CD
:103380000000F3CFE29560CF0E94D90CC7CF1BEFAE
:103390001E0F00E06F2D83EE92E00E943B040F5F52
:1033A0000117C0F35ECF80918003909181030E944A
:1033B000A51A80918203909183030E94A51A80919F
:1033C0008403909185030E94A51A809186039091B1
:1033D00087030C94A51AEF920F931F93CF93DF935B
:1033E000E80134E047FD34E1042E000C550B57FF93
:1033F00003C0519541955109E32E022F242FAE01B0
:103400000E94EC1DCE01DF91CF911F910F91EF90A3
:1034100008950F931F93CF93DF938230910510F49B
:1034200082E090E0E091CC03F091CD0330E020E029
:10343000B0E0A0E0309799F42115310509F44AC0B5
:10344000281B390B24303105D8F58A819B81611501
:10345000710589F1FB0193838283FE0111C04081D4
:1034600051810281138148175907E0F04817590725
:1034700099F4109761F012960C93129713961C937F
:103480003296CF01DF91CF911F910F910895009354
:10349000CC031093CD03F4CF2115310551F0421721
:1034A000530738F0A901DB019A01BD01DF01F801E2
:1034B000C1CFEF01F9CF9093CD038093CC03CDCF53
:1034C000FE01E20FF31F819391932250310939835A
:1034D0002883D7CF2091CA033091CB03232B41F40B
:1034E00020913401309135013093CB032093CA03EE
:1034F00020913201309133012115310541F42DB76E
:103500003EB74091360150913701241B350BE091B5
:10351000CA03F091CB03E217F307A0F42E1B3F0B75
:103520002817390778F0AC014E5F5F4F2417350735
:1035300048F04E0F5F1F5093CB034093CA03819313
:1035400091939FCFF0E0E0E09CCFCF93DF93009783
:10355000E9F0FC01329713821282A091CC03B09162
:10356000CD03ED0130E020E01097A1F420813181FE
:10357000820F931F2091CA033091CB03281739077C
:1035800009F061C0F093CB03E093CA03DF91CF91C0
:103590000895EA01CE17DF07E8F54A815B819E01B5
:1035A00041155105B1F7E901FB83EA83499159912E
:1035B000C40FD51FEC17FD0761F48081918102963D
:1035C000840F951FE90199838883828193819B836E
:1035D0008A83F0E0E0E012968D919C91139700971A
:1035E000B9F52D913C911197CD010296820F931F51
:1035F0002091CA033091CB032817390739F6309749
:1036000051F51092CD031092CC03B093CB03A0934D
:10361000CA03BCCFD383C28340815181840F951FDD
:10362000C817D90761F44E5F5F4F88819981480FB1
:10363000591F518340838A819B8193838283211503
:10364000310509F0B0CFF093CD03E093CC039ECFCA
:10365000FD01DC01C0CF13821282D7CFFC01882785
:103660009927E89421912032E9F3293010F02E3087
:10367000C8F32B3241F02D3239F4689404C00E9413
:10368000A21B820F911D219120532A30C0F31EF4FA
:10369000909581959F4F08951F93FC019927882746
:1036A000BC01E89411911032E9F3193010F01E308A
:1036B000C8F31B3251F01D3249F4689406C00E94D1
:1036C0008D1B610F711D811D911D119110531A30B9
:1036D000B0F33EF490958095709561957F4F8F4F34
:1036E0009F4F1F910895BB274A3031F4992322F44C
:1036F000BDE2909581959F4F0C94CD1BBB272A303E
:1037000051F4992342F4BDE29095809570956195AE
:103710007F4F8F4F9F4F0C94AB1B592F482F372F44
:10372000262F660F771F881F991F660F771F881F28
:10373000991F620F731F841F951F660F771F881FC5
:10374000991F08957AE0979F902D879F802D910D66
:1037500011240895BB27FA01A62F62177105810570
:103760009105330B30FB66F0AA27660F771F881F81
:10377000991FAA1FA21710F0A21B63953850A9F732
:10378000A05DAA3308F0A95DA19336F7B111B193FA
:103790001082CA010C943920BB27FB015527AA27A8
:1037A000880F991FAA1FA41710F0A41B83955051CE
:1037B000B9F7A05DAA3308F0A95DA193009779F746
:1037C000B111B1931192CB010C943920AEE0B0E06D
:1037D000ECEEFBE10C94D7218C01FA018EE08C8396
:1037E0001A83098377FF02C060E070E861507109B5
:1037F0007E836D83A901BF01CE0101960E94121C38
:103800004D815E8157FD0AC02F81388542175307CD
:103810000CF49A01020F131FF80110822E96E4E0B7
:103820000C94F321ABE0B0E0E8E1FCE10C94C92199
:103830007C013B018A01FC0117821682838181FF92
:10384000C8C1CE0101965C01F7019381F30193FD9C
:10385000859193FF81913F01882309F453C18532FB
:1038600039F493FD859193FF81913F01853229F4CD
:10387000B70190E00E944920E7CF912C212C312CF8
:10388000FFE1F31538F08B3211F190F4803209F139
:10389000833229F137FC3CC020ED280F2A3050F547
:1038A00036FE20C08AE0989E200D1124922E06C07C
:1038B0008D3291F0803371F7689430F8F30193FD05
:1038C000859193FF81913F018111DACF21C06894E6
:1038D00031F8689432F8F2CF689433F8EFCF6894F7
:1038E00034F8ECCFEAE02E9E200D1124222E6894AD
:1038F00035F8E4CF8E3229F436FC04C1689436F8EA
:10390000DDCF8C3619F4689437F8D8CF8836B1F209
:10391000982F9F7D95549330E0F08336A1F1833743
:10392000C1F1833509F063C02801F2E04F0E511C4C
:10393000F801C080D180692D70E036FC02C06FEFC5
:103940007FEFC6010E9423204C01689437F8820162
:103950000AC00C5F1F4FFFE3F98388248394912CE6
:103960006501E89437F833FE2DC0522C8114910480
:1039700071F5552009F468CFB70180E290E00E940C
:1039800049205A94F6CFF801808189830E5F1F4F3A
:10399000E4CF2801F2E04F0E511CF801C080D18025
:1039A000692D70E036FC02C06FEF7FEFC6010E9408
:1039B0002E204C018201D5CFB70180E290E00E9419
:1039C00049202A942814190409F0B0F7CECFF60143
:1039D00037FC859137FE81916F01B70190E00E941D
:1039E000492051105A94F1E08F1A9108BFCF8436C4
:1039F00019F0893609F077C0F80137FE6BC0608195
:103A00007181828193810C5F1F4FF32DFF763F2ED2
:103A100097FF09C090958095709561957F4F8F4F66
:103A20009F4F689437F82AE030E0A5010E94792082
:103A3000C82ECA188C2C432C36FE0CC0E89440F8D3
:103A4000C91440F434FE05C032FC03C0F32DFE7EE1
:103A50004F2E892C44FE95C0FE01EC0DF11D808196
:103A6000803309F087C0242D297E422E842D887052
:103A7000582E43FC95C040FE8FC09C2C821418F435
:103A80002C0C922C981844FE91C0B70180E390E072
:103A90000E94492042FE09C088E790E041FE02C032
:103AA00088E590E0B7010E944920C91408F48AC053
:103AB000CA94D12C9FEFC91AD90ACA0CDB1CF60193
:103AC00082916F01B70190E00E944920AC14BD04BF
:103AD000B1F74FCF60817181072E000C880B990BD5
:103AE0000E5F1F4F92CFD32CE894D4F82AE030E039
:103AF000853739F1232D297FD22E8F3601F148F4F5
:103B00008835A9F0F701868197812B96E2E10C9424
:103B1000E521803749F08837A9F7D4FE02C06894C0
:103B2000D2F820E130E00DC06894D4F8F6CF34FE2E
:103B300003C0822F8660D82E20E132E002C028E048
:103B400030E0F801D7FE0FC06081718182819381DE
:103B50000C5F1F4FA5010E947920C82ECA183D2C6A
:103B6000E89437F867CF6081718190E080E00E5F64
:103B70001F4FF0CF42FC02C0839478CF839483948C
:103B800075CF842D867809F471CFF6CFB70180E226
:103B900090E00E94492083948214C0F3512C73CF8B
:103BA000522C5818821408F46ECFF8CF842D8678E2
:103BB00009F47BCF8BE241FE80E247FC8DE2B70146
:103BC00090E071CFB70180E390E00E9449209A9481
:103BD0006CCF8FEF9FEF99CFA9E0B0E0E2EFFDE16E
:103BE0000C94CF216A01F22EB02E102FFBE3AF2EE2
:103BF000A01608F41BE31F5F012F27E0AE014F5F03
:103C00005F4F0E944B1FBC018981982F99709130A2
:103C100009F43FC09BE2E1FC04C09E2D9170E0FCE2
:103C20003AC05E2D5071E82FE87083FF46C084E0F3
:103C3000911101C083E0EF2DE81B8F1508F0E0E043
:103C4000D6018E2F20E2552351F1992329F0D60178
:103C50009C93C60101966C0196012D5F3F4FE2FED9
:103C600024C08EE4D6018C9391E411969C93119715
:103C700012968C93D9018E2F90E281111BC0E20F16
:103C8000F32FF11D10828EEF9FEF2996ECE00C943C
:103C9000EB219DE2C6CF90E2C4CF2D9381508111DC
:103CA000FCCFCE0ED11CE0E0D0CF8EE6D6018C93B7
:103CB00091E6DBCF9D938150E0CF482F447082FF87
:103CC0003DC084E0911101C083E08F1510F4EF2D09
:103CD000E81BD6018E2F20E2552309F1992329F004
:103CE000D6019C93C60101966C0196012D5F3F4F52
:103CF000E2FE1BC089E4D6018C938EE411968C936E
:103D0000119786E412968C93D9018E2F90E2882326
:103D100009F4B5CF9D938150FACF2D938150811135
:103D2000FCCFCE0ED11CE0E0D9CF89E6D6018C9332
:103D30008EE611968C93119786E6E4CF9B0177FF70
:103D400002C030E020E0A1E0B0E0911102C0B0E09C
:103D5000A0E0F9013196AE0FBF1F8B2C912CBB2038
:103D600009F461C05401EFEFAE1ABE0AAA0DBB1DE3
:103D7000FA161B0619F014F04F2D4A1B511188C07A
:103D8000E3FC59C07601A42FB0E2A1114FC0C40ECC
:103D9000D11C992309F45BC040E0D6011196F601CD
:103DA00090836D01552309F448C0012F060F9A81B5
:103DB000582F507184FF03C0913309F4015010163D
:103DC0000CF047C0093008F008E0EEE2FE2E5B017F
:103DD000A01AB10885019194819491082F3F320770
:103DE00029F4D601FC92F60131966F016217730730
:103DF00094F1021713077CF5DB01A21BB30BAA2475
:103E0000A394B12CAC0EBD1EAA0DBB1D11968C91B6
:103E100021503109D601119628153905F4F0F60123
:103E200080836D01DBCFB12CA12CA0CFF701B19322
:103E30007F01A150AACF9111B0CFD601942F50E3AA
:103E400002C05D9391509111FCCFC40ED11C40E093
:103E5000ACCF01E0BACF80E3DBCF6217730731F458
:103E6000963388F4953311F4552369F0F601808375
:103E7000FD01842F90E2811108C0A40FB11D1C9296
:103E800090E080E002CF81E3F1CF91938150F3CFB6
:103E9000911183CF8ACF283008F027E03327DA0149
:103EA000990F311D87FD916000966105710539F408
:103EB00032602E5F3D9330E32A95E1F708959F3FEE
:103EC00030F080387105610509F03C5F3C5F3D933F
:103ED000913008F08068911DDF93CF931F930F936B
:103EE000FF92EF92192F987F9695E92F96959695C8
:103EF000E90FFF27EE53FF4F99273327EE24FF24C6
:103F0000A701E70105900894079428F4360FE71EEF
:103F1000F81E491F511D660F771F881F991F0694B1
:103F2000A1F70590079428F4E70EF81E491F561FC5
:103F3000C11D770F881F991F661F0694A1F7059072
:103F4000079428F4F80E491F561FC71FD11D880F6C
:103F5000991F661F771F0694A1F70590079420F418
:103F6000490F561FC71FD81F990F661F771F881F3D
:103F70000694A9F784911095177041F0D695C795CE
:103F800057954795F794E7941A95C1F7E8E6F0E05E
:103F900068941590159135916591959105907FE202
:103FA0007395E118F10A430B560BC90BD009C0F702
:103FB000E10CF11E431F561FC91FD01D7EF4703344
:103FC00011F48A95E6CFE894015030F0080F0AF416
:103FD0000027021708F4202F2395022F7A3328F0A8
:103FE00079E37D932A95E9F710C07D932A9589F6A8
:103FF000069497956795379517951794E118F10AE8
:10400000430B560BC90BD00998F023957E917395FD
:104010007A3308F070E37C932013B8F77E917061D7
:104020007D9330F0839571E37D9370E32A95E1F7FA
:104030001124EF90FF900F911F91CF91DF9199275D
:1040400087FD90950895FC01059061507040011026
:10405000D8F7809590958E0F9F1F0895FC016150B1
:10406000704001900110D8F7809590958E0F9F1F9A
:104070000895DC01FC01672F71917723E1F73297F6
:1040800004C07C916D9370836291AE17BF07C8F333
:1040900008950F931F93CF93DF93182F092FEB01F0
:1040A0008B8181FD09C01FEF0FEF812F902FDF91D2
:1040B000CF911F910F91089582FF14C02E813F81EF
:1040C0008C819D81281739073CF4E881F981CF0163
:1040D00001969983888310838E819F8101969F83A7
:1040E0008E83E3CFE885F985812F0995892BA1F38C
:1040F000DACFFA01AA27283051F1203181F1E89472
:104100006F936E7F6E5F7F4F8F4F9F4FAF4FB1E0CA
:104110003ED0B4E03CD0670F781F891F9A1FA11DC5
:10412000680F791F8A1F911DA11D6A0F711D811DC6
:10413000911DA11D20D009F468943F912AE0269F8B
:1041400011243019305D3193DEF6CF010895462FEA
:104150004770405D4193B3E00FD0C9F7F6CF462FCB
:104160004F70405D4A3318F0495D31FD4052419334
:1041700002D0A9F7EACFB4E0A695979587957795F1
:104180006795BA95C9F700976105710508959B0178
:10419000AC010A2E06945795479537952795BA9501
:1041A000C9F7620F731F841F951FA01D0895E8941F
:1041B00009C097FB3EF490958095709561957F4F6F
:1041C0008F4F9F4F9923A9F0F92F96E9BB2793951D
:1041D000F695879577956795B795F111F8CFFAF42D
:1041E000BB0F11F460FF1BC06F5F7F4F8F4F9F4F5E
:1041F00016C0882311F096E911C0772321F09EE8BC
:10420000872F762F05C0662371F096E8862F70E021
:1042100060E02AF09A95660F771F881FDAF7880FFB
:104220009695879597F9089597F99F6780E870E0CC
:1042300060E008959FEF80EC089500240A9416161C
:10424000170618060906089500240A941216130684
:10425000140605060895092E0394000C11F4882312
:1042600052F0BB0F40F4BF2B11F460FF04C06F5F2E
:104270007F4F8F4F9F4F089557FD9058440F551F04
:1042800059F05F3F71F04795880F97FB991F61F0D8
:104290009F3F79F087950895121613061406551F4F
:1042A000F2CF4695F1DF08C0161617061806991FBB
:1042B000F1CF86957105610508940895E894BB27B0
:1042C00066277727CB0197F90895DC01CB01FC0124
:1042D000F999FECF06C0F2BDE1BDF89A319600B45F
:1042E0000D9241505040B8F70895F999FECF92BD14
:1042F00081BDF89A992780B50895DC01A40FB51FF8
:104300004150504048F0CB01840F951F2E910E94E0
:104310008E2141505040D0F70895262FF999FECFB5
:1043200092BD81BDF89A019700B4021639F01FBA08
:1043300020BD0FB6F894FA9AF99A0FBE0895052E8B
:1043400097FB1EF400940E94B62157FD07D00E94EF
:10435000002207FC03D04EF40C94B62150954095F2
:10436000309521953F4F4F4F5F4F08959095809521
:10437000709561957F4F8F4F9F4F08950E94222225
:10438000A59F900DB49F900DA49F800D911D1124A9
:1043900008952F923F924F925F926F927F928F92E9
:1043A0009F92AF92BF92CF92DF92EF92FF920F93C4
:1043B0001F93CF93DF93CDB7DEB7CA1BDB0B0FB6CE
:1043C000F894DEBF0FBECDBF09942A88398848888B
:1043D0005F846E847D848C849B84AA84B984C88421
:1043E000DF80EE80FD800C811B81AA81B981CE0F18
:1043F000D11D0FB6F894DEBF0FBECDBFED010895FD
:10440000A1E21A2EAA1BBB1BFD010DC0AA1FBB1FD8
:10441000EE1FFF1FA217B307E407F50720F0A21B4A
:10442000B30BE40BF50B661F771F881F991F1A94B7
:1044300069F760957095809590959B01AC01BD01E1
:10444000CF010895A29FB001B39FC001A39F700D3B
:10445000811D1124911DB29F700D811D1124911D8C
:1044600008955058BB27AA270E9449220C942B215B
:104470000E941D2138F00E94242120F039F49F3F32
:1044800019F426F40C941A210EF4E095E7FB0C9431
:104490001421E92F0E943C2158F3BA1762077307D1
:1044A0008407950720F079F4A6F50C945E210EF4AC
:1044B000E0950B2EBA2FA02D0B01B90190010C0134
:1044C000CA01A0011124FF27591B99F0593F50F44C
:1044D000503E68F11A16F040A22F232F342F4427A4
:1044E000585FF3CF469537952795A795F04053959C
:1044F000C9F77EF41F16BA0B620B730B840BBAF06C
:104500009150A1F0FF0FBB1F661F771F881FC2F7D6
:104510000EC0BA0F621F731F841F48F487957795EA
:104520006795B795F7959E3F08F0B0CF9395880FA4
:1045300008F09927EE0F9795879508950E94B2226B
:104540000C942B210E94242158F00E941D2140F040
:1045500029F45F3F29F00C94142151110C945F2130
:104560000C941A210E943C2168F39923B1F355233E
:1045700091F3951B550BBB27AA2762177307840776
:1045800038F09F5F5F4F220F331F441FAA1FA9F30C
:1045900035D00E2E3AF0E0E832D091505040E695FA
:1045A000001CCAF72BD0FE2F29D0660F771F881F5B
:1045B000BB1F261737074807AB07B0E809F0BB0B4E
:1045C000802DBF01FF2793585F4F3AF09E3F510562
:1045D00078F00C9414210C945F215F3FE4F3983E33
:1045E000D4F3869577956795B795F7959F5FC9F74B
:1045F000880F911D9695879597F90895E1E0660FCC
:10460000771F881FBB1F621773078407BA0720F044
:10461000621B730B840BBA0BEE1F88F7E0950895AD
:104620000E9417236894B1110C945F2108950E9491
:10463000442188F09F5798F0B92F9927B751B0F0CF
:10464000E1F0660F771F881F991F1AF0BA95C9F716
:1046500014C0B13091F00E945E21B1E008950C9435
:104660005E21672F782F8827B85F39F0B93FCCF3E8
:10467000869577956795B395D9F73EF49095809593
:10468000709561957F4F8F4F9F4F0895AA1BBB1B5D
:1046900051E107C0AA1FBB1FA617B70710F0A61B42
:1046A000B70B881F991F5A95A9F780959095BC0163
:1046B000CD01089597FB072E16F4009407D077FDDF
:1046C00009D00E94462307FC05D03EF490958195C1
:1046D0009F4F0895709561957F4F08950E94222203
:1046E000B7FF0895821B930B0895EE0FFF1F0590EF
:1046F000F491E02D0994FB01DC014150504048F059
:1047000001900D920020C9F701C01D924150504008
:10471000E0F70895AEE0B0E0E0E9F3E20C94D721D1
:104720008C01FA0186E08C831A83098377FF02C02B
:1047300060E070E8615071097E836D83A901BF015B
:10474000CE0101960E94121C4D815E8157FD0AC068
:104750002F813885421753070CF49A01020F131F5B
:10476000F80110822E96E4E00C94F32113E0C3E2EA
:10477000D3E004C0FE010E9475232196C432D10704
:06478000C9F7F894FFCF19
:10478600FFFFFF010101000000000000000000FC27
:10479600E1A8A8FFD512AD12E913BF130B144A0600
:1047A600A313501324131113012F153614950595D1
:1047B60005010000CE03800000080000010700008C
:1047C600000000003B04A503D203A3040304E10395
:1047D600F5030D0A0020003C4E4F4E43453E004F68
:1047E6004B004E41434B003F002100322E332E3208
:1047F6000073656E736F722D52656C61792D320090
:10480600312E3200496E742E54656D700052656CFF
:1048160061792E4C6967687473004175746F2E4C0C
:104826006967687473005253534900372E332E302C
:104836000030313A31313A30350053657020323428
:104846002032303230002D2D204275696C643A20BA
:104856002573202D2025732C2025730A2D2D204EFF
:10486600616D653A205B25733A25735D0A2D2D200F
:10487600496E69743A2064696D6D6572733D25757C
:104886002C2072656C6579733D25752C2072656CDC
:0C48960065797342746E3D25750A0000C0
:00000001FF
