:020000040000FA
:100000000C945E000C940D0E0C94E60D0C9486007E
:100010000C9486000C9486000C944F0F0C94860070
:100020000C9486000C9486000C9486000C94860038
:100030000C9486000C9486000C9486000C94860028
:100040000C949C0D0C9486000C9486000C948600F5
:100050000C9486000C9486000C9486000C94860008
:100060000C94340E0C94860000000008000201007D
:100070000003040700000000000000000000000072
:10008000250028002B0000000000240027002A0083
:10009000040404040404040402020202020203032E
:1000A0000303030301020408102040800102040836
:1000B0001020010204081020590F3E1011241FBE09
:1000C000CFEFD8E0DEBFCDBF11E0A0E0B1E0ECECB7
:1000D000F8E202C005900D92A038B107D9F722E0EE
:1000E000A0E8B1E001C01D92A036B207E1F710E030
:1000F000CDE5D0E004C02197FE010E944414CC3528
:10010000D107C9F70E94AB0F0C9459140C9400004E
:1001100090E0FC01EC55FF4F249180579F4FFC016C
:100120008491882399F090E0880F991FFC01EA5789
:10013000FF4FA591B491FC01E458FF4F8591949134
:100140008FB7F894EC91E22BEC938FBF0895942F26
:10015000EAE1F2E030910E023183828366832583E7
:100160004481487F492B477E4483CF01089590E026
:10017000FC01E859FF4F2491FC01EC55FF4F3491ED
:10018000FC01E057FF4FE491EE23C9F0222339F040
:10019000233001F1A8F4213019F1223029F1F0E0E7
:1001A000EE0FFF1FE458FF4FA591B4918FB7F8945D
:1001B000EC91611126C030953E233C938FBF08958A
:1001C0002730A9F02830C9F0243049F78091800009
:1001D0008F7D03C0809180008F7780938000DFCF78
:1001E00084B58F7784BDDBCF84B58F7DFBCF8091C5
:1001F000B0008F778093B000D2CF8091B0008F7D18
:10020000F9CF3E2BDACF2091310190E4299F900164
:1002100011248E50822B80937C0080917A00806420
:1002200080937A0080917A0086FDFCCF80917800DF
:100230009091790008953FB7F894809108029091C9
:100240000902A0910A02B0910B0226B5A89B05C035
:100250002F3F19F00196A11DB11D3FBFBA2FA92F45
:10026000982F8827BC01CD01620F711D811D911D42
:1002700043E0660F771F881F991F4A95D1F70895AD
:100280008F929F92AF92BF92CF92DF92EF92FF92A6
:100290006B017C010E941B014B015C01C114D10464
:1002A000E104F104B9F00E941B01681979098A0977
:1002B0009B09683E73408105910580F321E0C21AD5
:1002C000D108E108F10888EE880E83E0981EA11C91
:1002D000B11CE4CFFF90EF90DF90CF90BF90AF9034
:1002E0009F908F9008952FB7F894609104027091B9
:1002F000050280910602909107022FBF089508958C
:100300002091B901260F3327331F21323105ECF438
:100310002091DD01FC0190E080E0243069F082E072
:100320000895A091B9012191AC0147565E4FA40FE9
:10033000B52FB11D2C930196861798F38091B901C2
:10034000680F6093B90180E0089581E008950895F1
:100350008FEF9FEF08958FEF9FEF089580919201A7
:1003600090E09195819591090895CF93DF93CB010A
:10037000EA01642F0E948001CE01DF91CF910895A0
:10038000CF93DF931F92CDB7DEB7698361E0CE01D3
:1003900001960E94800181E090E00F90DF91CF9163
:1003A000089590E080E008950895FC0183818770AE
:1003B0008860838384818F71806284836783CF01A7
:1003C0000895E0918501F0918601309721F0028037
:1003D000F381E02D099408950F931F930E947301F8
:1003E00000918701109188012091890130918A0143
:1003F000601B710B820B930B1F910F9108959C0151
:10040000809185019091860182179307F1F0909178
:100410008F019F7190938F01309386012093850106
:10042000E0918501F0918601309721F00190F081F3
:10043000E02D09950E9473016093870170938801F4
:100440008093890190938A01089580918F01805E45
:1004500080938F01E5CF0F931F930E94EC012091B1
:1004600090012077203779F000E117E220E030E0BA
:10047000061717072807390758F489E291E01F91FA
:100480000F910C94FF0100E61AEE20E030E0F0CF6F
:100490001F910F91089580919001982F9F70963031
:1004A00018F0807F80939001089580918F0184607F
:1004B00080938F0180919001807880939001E091EA
:1004C0008301F0918401309709F009940895CF9346
:1004D000C0919101CF3FA1F00E94730160938B0105
:1004E00070938C0180938D0190938E018091100206
:1004F000C813C093100284E291E0CF910C94FF01E5
:100500000E94EC01613D77408105910568F0809182
:100510008F01803618F480E291E0EFCF877F8093DF
:100520008F018CE191E0E9CFCF91089580910E0287
:100530008F3F21F080E291E00C94FF010E94EC01DA
:10054000613D77408105910550F080918F018036A3
:1005500018F488E191E0F0CF84E191E0EDCF0895C7
:1005600088E191E00C94FF018EBD00000DB407FE00
:10057000FDCF8EB508951F93CF93DF9385ED8093C4
:10058000BC008091950190919601A0919701B09146
:1005900098010796A11DB11D23E0B695A7959795E3
:1005A00087952A95D1F72091BC0024FD03C01092B5
:1005B000DD0152C0409195015091960160919701E3
:1005C00070919801452B462B472B69F30097A105A5
:1005D000B10541F02AE12A95F1F700C00197A10980
:1005E000B109E1CF80919401C1E0C09393018823C8
:1005F00099F1D091B8001091BA008091BC008A7B2B
:100600008093BC0060E082E10E94B70060E083E17B
:100610000E94B7001092DD01C093DF011092DE014D
:1006200061E082E10E94B70061E083E10E94B700CF
:100630008091B9008E7F8093B9008091B9008D7F41
:100640008093B90080E28093B80085E48093BC0079
:100650001093BA00D093B800DF91CF911F91089505
:10066000EFE8F1E08081897F8E7F8083EEE0F2E029
:1006700081E08283118260E081E090E00C9493122B
:10068000EFE8F1E08081877F8F7E808310928B017D
:1006900010928C0110928D0110928E0144E050E076
:1006A00070E060E08EE092E00C946B120F931F9369
:1006B000CF93DF938C0180E06115710551F0EB0160
:1006C00009900020E9F721978C2F861B8A3108F0CA
:1006D00089E1F801C381C770F8E08F9FC001112440
:1006E000C82BF801C38384818F718483C695C69516
:1006F000C695CA3108F0C9E1D0E0AE01C80107963D
:100700000E944A14C00FD11F1F82C801DF91CF91F0
:100710001F910F910895FC01248122952695277041
:10072000213011F487810895211104C007960E9499
:100730007B11089580E00895DF92EF92FF920F936E
:100740001F93CF93DF93FC01248124FD08C08C010B
:1007500086818A3F61F0F8018581823021F1DF9145
:10076000CF911F910F91FF90EF90DF9008958581B9
:10077000823089F7C0910301CF010E948B0361E0B1
:10078000811101C060E0C61751F36093030181E05D
:100790008093040187E992E00E9493128091040102
:1007A0008111DDCFD8CFE0901802F0901902868138
:1007B000F70193818917B9F09781C1E08913CFCFF1
:1007C000D0E0CC0FDD1FCC0FDD1FCE0DDF1DDD8097
:1007D000C8010E948B03D81611F28D8381E08E83AD
:1007E000F7018083BCCFC0E0EBCFCF93DF93FC0158
:1007F000108211821282148215821682DC011796F1
:100800008AE1ED0119928A95E9F782E08383DF910D
:10081000CF910895BF92CF92DF92EF92FF920F9304
:100820001F93CF93DF937B01042FB22E90E59CBDE5
:100830001DBC2A98E0E1F0E03197F1F70E94B40284
:10084000182FE7010150A8F0BB2051F08FEF0E9454
:10085000B402182FE114F104A9F388832196F2CF92
:100860006E018FEFC81AD80A88810E94B402E6018F
:10087000E9CF2A9A80E190E00197F1F7812FDF918B
:10088000CF911F910F91FF90EF90DF90CF90BF908D
:100890000895CF93DF931F92CDB7DEB7698320E031
:1008A00041E0BE016F5F7F4F0E940A040F90DF910D
:1008B000CF91089580919001982F9077903759F0BB
:1008C000982F92959F709F5F97709295907F8F78E9
:1008D000892B8093900180918F018B7F8F7E8093F5
:1008E0008F0129986CE080E20C9449046FE080E26B
:1008F0000E944904609113016F3F19F08AE20E943F
:100900004904299A089521E041E070E060E00C94E8
:100910000A0420E040E070E060E00C940A04FF92DA
:100920000F931F93CF93DF9390910E02FB0190835F
:100930004381C0E242FD08C04695469546954A313E
:1009400008F049E1C7E0C40F90911102D1E090FD99
:1009500003C08F3F09F0D0E06115710509F44CC068
:100960008B01F82E299880E091E00197F1F76EE075
:1009700080E20E94490484EC90E00197F1F76F2D2A
:100980008AE20E9449046F2D80E30E94490481EEAF
:100990000E948904DD2321F060E584E20E9449047D
:1009A00020E04C2FB80180EA0E940A04299A10E046
:1009B00000E08FEF0E948904807339F40F3F100725
:1009C00021F0A8950F5F1F4FF4CF299860E787E2C9
:1009D0000E944904C82F84FF03C081EE0E9489044D
:1009E000DD2321F06FE584E20E9449040E94760431
:1009F000C5FF03C0D1E001C0D0E08D2FDF91CF91C2
:100A00001F910F91FF9008950F931F93CF938C0127
:100A1000FC01828190918F0190FF04C08F3F51F5BE
:100A2000CFEF04C0811116C0C0910F02B8018C2F06
:100A30000E948F0490910F029C1313C0909190011B
:100A4000811113C021E0290F2F70907F922B90937A
:100A5000900107C08F3F21F3B8010E948F048823C3
:100A600019F3CF911F910F910895907F909390016A
:100A700081E0F7CF80E0F5CF20918F0122FD0C942B
:100A8000040580E00895FC0180910E028183948129
:100A9000907F9960948380910D0280FF03C0CF0105
:100AA0000C943C0580E00895FF920F931F93CF9321
:100AB000DF93CDB7DEB7A1970FB6F894DEBF0FBEB8
:100AC000CDBFF82E8B01CE0101960E94F503FF8267
:100AD00082E08E83F8016081CE0101960E94D501EB
:100AE0000E944305A1960FB6F894DEBF0FBECDBF9E
:100AF000DF91CF911F910F91FF900895EF92FF9298
:100B00000F931F93CF93DF931F92CDB7DEB78C0166
:100B10007B01DB018C91E82FF0E0DF01AA0FBB1F06
:100B2000AA0FBB1FA00FB11F3196EE0FFF1FEE0FD4
:100B3000FF1FE00FF11F15966C9180810E94B70096
:100B4000D701EC91B4E0EB9FF0011124E00FF11F0D
:100B5000838190E0658183569E4F0E949312F70136
:100B60008081F4E08F9FC0011124F801E80FF91F84
:100B700021E03581311101C020E02983080F191FC0
:100B8000BE016F5F7F4FD80113968C910E94540570
:100B90000F90DF91CF911F910F91FF90EF900895EB
:100BA000EF92FF920F931F93CF93DF93CDB7DEB7F2
:100BB000A1970FB6F894DEBF0FBECDBFE82EF62E7C
:100BC0008A01CE0101960E94F503EF82FE82F801B0
:100BD000208131818C81877080618C838D818F71C0
:100BE00080668D8339872887CE0101960E94430550
:100BF000A1960FB6F894DEBF0FBECDBFDF91CF91A7
:100C00001F910F91FF90EF9008951F93CF93DF9363
:100C1000182F262FEA0150E040E0682F80E00E9464
:100C2000A7001F3F11F4C0E4D1E0BE010E945603AB
:100C3000DF91CF911F910C943C052F923F924F92E0
:100C40005F926F927F928F929F92AF92BF92CF925C
:100C5000DF92EF92FF920F931F93CF93DF9300D019
:100C600000D0CDB7DEB7809128018F3F09F183E036
:100C7000E82EF12C92E0C92ED12C27E1222E312C26
:100C800031E2432E512C45E2642E712C56E0852E24
:100C9000912C80912801873008F0ECC0833009F452
:100CA0007BC0E8F4813009F43FC0823009F466C0AB
:100CB0000F900F900F900F90DF91CF911F910F9198
:100CC000FF90EF90DF90CF90BF90AF909F908F906C
:100CD0007F906F905F904F903F902F900895853058
:100CE000E9F008F491C0863019F79EEF9B835A8291
:100CF00049824BE751E0BE016F5F7F4FCE01039603
:100D00000E94C2098823A1F27A826982BE016F5FC4
:100D10007F4FCE01039675C0882341F08091280152
:100D20008F5F80932801B5CF09EE13E064E670E091
:100D300080E090E00E946A092BE043E050E06FEF12
:100D400080E00E94A70066E471E00E9456030E94C2
:100D50003C05B82E2CE043E050E06FEF80E00E94AD
:100D6000A70065E571E00E9456030E943C058B21B7
:100D70000150110989F68111D1CF9ACF9A828982C7
:100D80008DEF8B8349E551E0BE016F5F7F4FCE0150
:100D900003960E94C209EFCF009118021091190228
:100DA000FA82E982580183E0A80EB11C42E651E0C4
:100DB000BE016F5F7F4FC5010E94C209882309F4FD
:100DC00077CFDA82C982BE016F5F7F4FC5010E9473
:100DD0009209882309F46CCFFA82E982095F1F4FD8
:100DE00042E651E0BE016F5F7F4FC8010E94C20919
:100DF000882309F45DCFDA82C982BE016F5F7F4F1D
:100E0000C8010E949209B7CF9AEF9C838BEF8B8326
:100E100080E190E09A83898350E040E0BE016F5FFB
:100E20007F4FCE0103960E94C209882309F440CF68
:100E30003A822982BE016F5F7F4FCE0103960E94E6
:100E40009209882309F434CFFA82E9824FE651E00F
:100E5000BE016F5F7F4FCE0104960E94C2098823B6
:100E600009F426CFDA82C982BE016F5F7F4FCE01BF
:100E70000496C7CF8FEF809328011ACF2FE043E06D
:100E800050E06FEF80E00E94A70064E571E00E94EF
:100E90005603EAE1F2E08381877080618383848175
:100EA0008F71806C848381E087831086CF010E94DC
:100EB0003C058FE00E94340944E551E061E170E0B7
:100EC0008FEF0E94050626E043E050E06FEF80E0E0
:100ED0000E94A70060910F020E94D5010E943C056C
:100EE00086E00E9434090C941D064F925F926F9227
:100EF0007F928F929F92AF92BF92DF92EF92FF927A
:100F00000F931F93CF93DF9300D01F92CDB7DEB71F
:100F100026E02B8300E010E088248A9482E0982E5B
:100F200083E0A82EB92CE12CFF24FA9487E10E94DB
:100F3000830480FD80C18B8181508B83882309F4D9
:100F40007AC121E041E070E060E080E60E940A049E
:100F50008983813220F082EE0E948904198221E087
:100F600049816BE372E081E60E940A0460E487E253
:100F70000E94490480913E02982F93709230B1F6FE
:100F8000E82FE695E695E695EA3108F0E9E182FF7B
:100F900057C089E1895F99819813C8CF80913F023A
:100FA000282F27702983909140029A83D0903C0289
:100FB00020913B0290913D02309190013068309336
:100FC000900130910E0293130AC1F0E0E55CFD4FF1
:100FD000178283FF15C021E2EBE3F2E0AAE1B2E061
:100FE00001900D922A95E1F7877E806180931E0221
:100FF00090931B02D0921C028AE192E00E943C0571
:1010000090913F0294FDE3C02981233009F0DFC0B5
:101010008091400221EF280F233008F487CF2A81E6
:10102000243009F483CF283169F429E143E050E00A
:101030006FEF8D2D0E94A70061E00E94D5012CC0AA
:101040008E2FA8CF2A81293171F480918F0183FFDF
:101050006DCF877F80938F018BE392E00E948B039B
:101060008093910163CF2A812E3109F45FCF2D3116
:10107000B1F42FE143E050E06FEF80E00E94A70061
:10108000FC01838187708061838384818F71806498
:101090008483F086E782CF010E94040547CF209128
:1010A0003C02211199C08D3059F488E198E00FB6C7
:1010B000F894A895809360000FBE90936000FFCFD6
:1010C0008B3179F48BE392E00E948B0391E08111E4
:1010D00001C090E080910D0290FB80F980930D0299
:1010E00025CF863099F49091420281E0992319F03E
:1010F0009D3409F080E080930C0241E050E063E011
:1011000071E08CE092E00E94831210CF833119F4D9
:101110000E943E070BCF8231E1F40E94EC012B01CB
:101120003C0126E143E050E06FEF80E00E94A70021
:10113000FC01838187708062838384818F71806AE0
:1011400084834782508661867286CF010E943C0567
:10115000EDCE8230A9F422E043E050E06FEF80E072
:101160000E94A700FC018381877080628383848151
:101170008F71806A848387829086A186B286E5CF4C
:101180008130F9F40115110509F4D0CE92959695A8
:101190009770953059F460914202709143028091AA
:1011A0004402909145020E940000C0CE911105C0FA
:1011B00082E492E00E949911F6CF60E070E0CB01EA
:1011C000F2CF8A3009F4B2CE8C3109F4AFCE8BE382
:1011D00092E00E949C03AACE8A31C9F7A7CE9F3F16
:1011E00009F0A4CE8981833009F580918F0182FFB7
:1011F00004C09A81973009F499CE8A81843109F02C
:1012000095CE80910F02281391CE0E9473017370C6
:10121000882799270E94400125E143E050E06FEFC5
:101220008D2D0E94A70060910F0207CF80910F02C1
:1012300028137CCECCCF0F900F900F90DF91CF91E1
:101240001F910F91FF90EF90DF90BF90AF909F9014
:101250008F907F906F905F904F90089580918F0155
:1012600084FD0C9475070895CF92DF92EF92FF9260
:10127000CF93DF93D82F0E9473016B017C01809183
:101280003F02876080933F02C0E00E9473016C19A7
:101290007D098E099F09603D77408105910590F495
:1012A000C11110C0A8950E94E1010E942E098091F1
:1012B0003F028770833049F7C1E0809140028D136F
:1012C000E3CFE3CF8C2FDF91CF91FF90EF90DF90B2
:1012D000CF9008958F929F92AF92BF92CF92DF925C
:1012E000EF92FF924B015C010E9473016B017C0144
:1012F0000E9473016C197D098E099F096815790593
:101300008A059B0530F4A8950E94E1010E942E09F0
:10131000EFCFFF90EF90DF90CF90BF90AF909F9076
:101320008F900895CF92DF92EF92FF920F931F93C9
:10133000CF93DF937C016B01C9EED3E0F60100810E
:10134000F701108164E670E080E090E00E946A0995
:10135000202F42E050E0612F80E00E94A70064E56A
:1013600071E00E9456030E943C05219711F08823EA
:1013700029F3DF91CF911F910F91FF90EF90DF90B4
:10138000CF9008958F929F92AF92BF92CF92DF92AB
:10139000FF920F931F93CF93DF936C015B018A0140
:1013A000C9EED3E0F50180809180F601F08064E61B
:1013B00070E080E090E00E946A09A8010115110523
:1013C00011F444E551E0B4018F2D0E9405062197E8
:1013D00011F0882339F3DF91CF911F910F91FF9086
:1013E000DF90CF90BF90AF909F908F900895EF9235
:1013F000FF920F931F93CF93DF93CDB7DEB7A197E3
:101400000FB6F894DEBF0FBECDBF809128018F3F8D
:10141000A1F00E941D06809128018F3F09F4ECC1C4
:101420000CE310E00150110909F4E6C164EF71E02A
:1014300080E090E00E946A09F5CF80918F0182FFE1
:10144000F3C180918101909182016CE370E00E9470
:101450001514892B29F080910501882309F44DC0CA
:101460008FE00E94030120910801309109012817A3
:10147000390714F4821B930B209106013091070168
:101480002817390771F097FD0CC0909307018093DE
:101490000601863091050CF072C010920B0110927B
:1014A0000A0180910A0190910B0120910C01309169
:1014B0000D0128173907E1F090930D0180930C017D
:1014C000A0910601B091070124E630E00E943D148E
:1014D00024E833E040E050E00E94A5123A832983DB
:1014E000AE014F5F5F4F67E170E08BEF0E94D00568
:1014F00080910501811110920501809104018823DA
:1015000039F01092040163E071E08AEF0E94540503
:10151000009118021091190280918101909182012D
:1015200066E470E00E941514892B09F04FC01982FF
:10153000E981E23008F04AC024E0E29FF001112482
:101540009F01200F311FF90185818823A1F0F80147
:10155000A181B2818C91882371F017968D919C9115
:101560000497039740F4F9011582BE016F5F7F4F26
:10157000C8010E947E0589818F5F8983D9CF83331B
:1015800091053CF481E090E090930B0180930A0177
:1015900088CF873991051CF482E090E0F5CF8D3239
:1015A00021E092071CF483E090E0EECF853FE1E07C
:1015B0009E071CF484E090E0E7CF8D3B92401CF442
:1015C00085E090E0E1CF86E090E0DECFF801808119
:1015D0008823C9F010821982E981E230A0F424E066
:1015E000E29FF0011124E00FF11F8681882339F07A
:1015F0001682BE016F5F7F4FC8010E947E05898100
:101600008F5F8983E9CF00911602109117028091B4
:1016100081019091820167EB70E00E941514892B83
:1016200029F0F8018081882309F452C088EC809366
:101630007C0080917A00806880937A0064E170E099
:1016400080E090E00E94400180917A008064809365
:101650007A0080917A0086FDFCCF609178007091CD
:10166000790090E080E00E94DD112EEA37E242EA44
:1016700053E40E94001326EF38E24CE95FE30E9436
:101680006D130E94DF136138F9F0F801818186172C
:10169000D9F06183CE0101960E94F5038DEF8F830F
:1016A0001E82F8012181022E000C330B8C81877081
:1016B00080618C838D818F7180648D8339872887C9
:1016C000CE0101960E944305F801808181111082AC
:1016D000E0901402F09015028091810190918201B6
:1016E00065EB70E00E941514892B21F0F7018081D1
:1016F000882339F18EE00E9403016AE070E00E94C5
:1017000029148B016536710514F004E610E017FF0B
:1017100002C010E000E0F70181818017110669F036
:10172000018320E043E050E06FEF80E00E94A700DB
:10173000602F0E94D5010E943C05F7018081811134
:1017400010820091120210911302809181019091F8
:10175000820166EB70E00E941514892B21F0F801DC
:1017600080818823E1F188E00E9483048F7023EE5A
:101770003FEFF8E08F9F201931091124032E000C50
:10178000440B550B2B5A3F4F4F4F5F4FA4E6B0E031
:101790000E94C4122DE230E040E050E00E94A51209
:1017A0002536310514F024E630E037FF02C030E082
:1017B00020E0F801818192818217930761F03283E2
:1017C00021833A832983AE014F5F5F4F65E270E06A
:1017D0008EEF0E94D005F8018081811110828091E6
:1017E00081019091820101968036FAEE9F07B8F44C
:1017F000909382018093810168EE73E080E090E035
:101800000E946A09A1960FB6F894DEBF0FBECDBF45
:10181000DF91CF911F910F91FF90EF90089510925B
:10182000820110928101E8CF60E177E280E090E0F0
:101830000E946A09E1CF0F931F93CF93DF93C0916A
:101840001802D09119021FB7F8948B8190E083564B
:101850009E4F0E947B128D8391E0811101C090E028
:101860009E838C810E9488008F8190E083569E4FDA
:101870000E947B12898791E0811101C090E09A87D4
:1018800088850E9488001FBF83E08093310110E0AB
:1018900000E0D0E0C0E00E94730168387341810528
:1018A000910598F464E670E080E090E00E946A0997
:1018B0008FE00E940301C817D9072CF08017910709
:1018C0000CF48C01CE01EC01E6CFC01BD10BCF3163
:1018D000D1059CF4D0930901C093080187E992E0F7
:1018E0000E947B1291E0811101C090E0909303016E
:1018F000DF91CF911F910F910895109209011092DD
:101900000801ECCFCF9380910D0281FD20C00E9491
:101910003E0780910D02816080930D02C4E02AE1B0
:1019200043E050E06FEF80E00E94A70062E00E9479
:10193000D5010E943C058BE10E943409811102C04F
:10194000C15069F780910D02826080930D02CF91A2
:1019500008958FEF80939101EFE8F1E08081886036
:10196000808328E143E050E06FEF80E00E94A70011
:1019700061E00E94D5010C94040580910E028F3F16
:1019800069F423E043E050E06FEF80E00E94A7009D
:1019900064E571E00E9456030C9404050895CF930A
:1019A000219A229A29982A9ACFB7F8948091800197
:1019B000811124C0EAE9F0E08491EEEAF0E094912C
:1019C000E82FF0E0EE0FFF1FEA57FF4FA591B4910B
:1019D000EC91E92321F461E08AE00E94B7008AE0FB
:1019E0000E9488008CB580618CBD8CB580648CBDF4
:1019F0008DE00E9488008BE00E9488008091800129
:101A00008F5F80938001CFBF29986EE080E20E94B3
:101A1000490484E293E20197F1F763E083E20E94D4
:101A200049046FE584E20E9449046CE485E20E9467
:101A3000490465E286E20E94490464E08DE30E9465
:101A400049048DE10E948304843041F063E780E51E
:101A50000E94490464E08DE30E94490486E00E94EC
:101A60008304853209F04DC085E00E9483048C34E4
:101A700009F047C062E082E20E94490460E081E22E
:101A80000E94490463E08CE30E9449048FEF809335
:101A90000E0120E045E06EE071E08BE20E940A0456
:101AA00020E045E06EE071E08AE20E940A0420E056
:101AB00045E06EE071E080E30E940A0482EE0E943D
:101AC000890481EE0E94890460E787E20E9449044C
:101AD00080918F01806180938F01809111028E7FB0
:101AE0008093110287E180930E0267E190E080E02D
:101AF0000E949312C0910E02CF3F41F48CE191E01D
:101B000002C084E191E0CF910C94FF018FEF8C0F24
:101B10008E3FB8F7C093130163E082E20E9449044C
:101B200061E081E20E9449040E9476046C2F90E0FB
:101B300080E00E949312E2CF1F920F920FB60F9295
:101B400011242F933F938F939F93AF93BF938091D3
:101B5000040290910502A0910602B0910702309113
:101B6000030226E0230F2D3758F50296A11DB11D63
:101B7000209303028093040290930502A09306022F
:101B8000B09307028091080290910902A0910A0285
:101B9000B0910B020196A11DB11D80930802909394
:101BA0000902A0930A02B0930B02BF91AF919F91DB
:101BB0008F913F912F910F900FBE0F901F9018950E
:101BC00029E8230F0396A11DB11DD2CF1F920F92BA
:101BD0000FB60F9211242F933F934F935F936F9300
:101BE0007F938F939F93AF93BF93EF93FF93E09176
:101BF0002F01F09130010995FF91EF91BF91AF91C5
:101C00009F918F917F916F915F914F913F912F9114
:101C10000F900FBE0F901F9018951F920F920FB646
:101C20000F9211242F933F934F935F936F937F9362
:101C30008F939F93AF93BF93EF93FF93E0912D0109
:101C4000F0912E010995FF91EF91BF91AF919F9176
:101C50008F917F916F915F914F913F912F910F9055
:101C60000FBE0F901F9018951F920F920FB60F92F4
:101C700011242F933F934F935F936F937F938F9391
:101C80009F93AF93BF93EF93FF938091B900887FA9
:101C9000803609F44AC0F0F5883209F4A5C018F579
:101CA000803109F499C0B8F4882309F4F5C088306C
:101CB00009F492C0FF91EF91BF91AF919F918F91E5
:101CC0007F916F915F914F913F912F910F900FBE38
:101CD0000F901F901895883109F486C0803251F713
:101CE0008093DC0114C0803409F49BC040F480333D
:101CF000B9F38833F9F68093DC0185ECAEC080350A
:101D000009F483C0883509F494C0883499F60E9498
:101D1000BB02D0CF883909F48AC038F5883729F05A
:101D200050F4883611F0803729F683E08093DD0186
:101D30001092DB0155C0883809F479C0803919F058
:101D4000803809F0B7CF8091DB01803208F06FC096
:101D5000E091DB0181E08E0F8093DB018091BB007D
:101D6000F0E0E554FE4F80833BC0803B39F0D0F477
:101D7000803A09F477C0883A09F09CCF84E08093D8
:101D8000DD011092BA011092B901F0E0E0E009958E
:101D90008091B90181110FC081E08093B901109247
:101DA000990109C0803C09F4A8CF883C09F4A5CF6B
:101DB000883B09F07FCFE091BA0181E08E0F8093DC
:101DC000BA01F0E0E756FE4F80818093BB0090910E
:101DD000BA018091B90129C0809102028093BB00B1
:101DE00085EC8093BC0066CF909101028091000247
:101DF000981758F5E091010281E08E0F809301025F
:101E0000F0E0E052FE4F8081E9CFE091010281E0F5
:101E10008E0F809301028091BB00F0E0E052FE4FF4
:101E2000808390910102809100029817C8F285E8A2
:101E3000D8CFE091010281E08E0F80930102809162
:101E4000BB00F0E0E052FE4F80838091DF01811102
:101E50005ECF81E08093DE0184EA8093BC00109223
:101E6000DD0128CF85EC8093BC001092DD018091CC
:101E7000DB01803230F4E091DB01F0E0E554FE4F0D
:101E800010826091DB0170E08BEB91E0F0E0E0E02C
:101E900009951092DB010ECF1092DC0138CF1F9212
:101EA0000F920FB60F9211240F900FBE0F901F903C
:101EB0001895CF938BE392E00E94F5038AE192E0BC
:101EC0000E94F5038BE090E00E945610C1E0FC01F7
:101ED000C08328E0E8E3F1E0DC01139601900D9265
:101EE0002A95E1F723E031E0FC01328321832FB70B
:101EF000F89490931902809318022FBF82E090E02B
:101F00000E945610FC011182C0832FB7F894909361
:101F10001702809316022FBF82E090E00E945610B5
:101F2000FC011182C0832FB7F8949093150280931F
:101F300014022FBF83E090E00E945610FC01128231
:101F40001182C0832FB7F8949093130280931202EA
:101F50002FBFCF910895789484B5826084BD84B5F5
:101F6000816084BD85B5826085BD85B5816085BD94
:101F700080916E00816080936E001092810080914C
:101F800081008260809381008091810081608093D4
:101F90008100809180008160809380008091B100F9
:101FA00084608093B1008091B00081608093B00024
:101FB00080917A00846080937A0080917A008260B8
:101FC00080937A0080917A008E7F80937A0080914E
:101FD0007A00806880937A001092C100A89580E012
:101FE00090E0892B11F00E94000080910D028D7FFE
:101FF00080930D020E941B0C41E050E063E071E011
:102000008CE092E00E946B1260E081E090E00E9420
:102010009312809190018F788093900110928601A5
:102020001092850189E291E00E94FF0182E89CE024
:1020300090938401809383010E9473010E94730135
:102040000E94E1010E942E0980918F0182FB882766
:1020500080F9A895882391F3A895C0E0D0E0A895D1
:102060000E94E10180918F0184FD0E9475070E940A
:10207000F7092097A1F30E940000F1CF809112028E
:10208000909113020E94F210809114029091150217
:102090000E94F21080911602909117020E94F21095
:1020A00080911802909119020C94F2100F931F93D3
:1020B000CF93DF938230910510F482E090E0E091BD
:1020C0005E02F0915F0230E020E0B0E0A0E03097E7
:1020D00099F42115310509F44AC0281B390B243025
:1020E0003105D8F58A819B816115710589F1FB0164
:1020F00093838283FE0111C040815181028113814B
:1021000048175907E0F04817590799F4109761F0FC
:1021100012960C93129713961C933296CF01DF916F
:10212000CF911F910F91089500935E0210935F026B
:10213000F4CF2115310551F04217530738F0A901AA
:10214000DB019A01BD01DF01F801C1CFEF01F9CF39
:1021500090935F0280935E02CDCFFE01E20FF31FEA
:10216000819391932250310939832883D7CF2091CD
:102170005C0230915D02232B41F4209134013091B7
:10218000350130935D0220935C0220913201309141
:1021900033012115310541F42DB73EB74091360189
:1021A00050913701241B350BE0915C02F0915D02E8
:1021B000E217F307A0F42E1B3F0B2817390778F01E
:1021C000AC014E5F5F4F2417350748F04E0F5F1F7D
:1021D00050935D0240935C02819391939FCFF0E016
:1021E000E0E09CCFCF93DF930097E9F0FC013297BA
:1021F00013821282A0915E02B0915F02ED0130E085
:1022000020E01097A1F420813181820F931F20914B
:102210005C0230915D022817390709F061C0F09324
:102220005D02E0935C02DF91CF910895EA01CE1741
:10223000DF07E8F54A815B819E0141155105B1F741
:10224000E901FB83EA8349915991C40FD51FEC172B
:10225000FD0761F4808191810296840F951FE90149
:1022600099838883828193819B838A83F0E0E0E075
:1022700012968D919C9113970097B9F52D913C91F1
:102280001197CD010296820F931F20915C0230912D
:102290005D022817390739F6309751F510925F0221
:1022A00010925E02B0935D02A0935C02BCCFD38318
:1022B000C28340815181840F951FC817D90761F4EB
:1022C0004E5F5F4F88819981480F591F518340832A
:1022D0008A819B81938382832115310509F0B0CFD8
:1022E000F0935F02E0935E029ECFFD01DC01C0CF60
:1022F00013821282D7CFFC0188279927E894219175
:102300002032E9F3293010F02E30C8F32B3241F09F
:102310002D3239F4689404C00E94D511820F911DAA
:10232000219120532A30C0F31EF4909581959F4F40
:1023300008951F93FC0199278827BC01E894119107
:102340001032E9F3193010F01E30C8F31B3251F08F
:102350001D3249F4689406C00E94C011610F711DBE
:10236000811D911D119110531A30B0F33EF49095D8
:102370008095709561957F4F8F4F9F4F1F91089566
:10238000592F482F372F262F660F771F881F991F29
:10239000660F771F881F991F620F731F841F951F79
:1023A000660F771F881F991F08957AE0979F902DD9
:1023B000879F802D910D11240895E89409C097FB03
:1023C0003EF490958095709561957F4F8F4F9F4F0C
:1023D0009923A9F0F92F96E9BB279395F695879550
:1023E00077956795B795F111F8CFFAF4BB0F11F413
:1023F00060FF1BC06F5F7F4F8F4F9F4F16C08823BA
:1024000011F096E911C0772321F09EE8872F762FEF
:1024100005C0662371F096E8862F70E060E02AF030
:102420009A95660F771F881FDAF7880F969587951C
:1024300097F9089597F99F6780E870E060E0089544
:102440009FEF80EC089500240A94161617061806CC
:102450000906089500240A941216130614060506A8
:102460000895092E0394000C11F4882352F0BB0F39
:1024700040F4BF2B11F460FF04C06F5F7F4F8F4F9C
:102480009F4F089557FD9058440F551F59F05F3FD7
:1024900071F04795880F97FB991F61F09F3F79F086
:1024A00087950895121613061406551FF2CF469508
:1024B000F1DF08C0161617061806991FF1CF86958A
:1024C0007105610508940895E894BB27662777276E
:1024D000CB0197F90895DC01CB01FC01F999FECFFE
:1024E00006C0F2BDE1BDF89A319600B40D9241509C
:1024F0005040B8F70895F999FECF92BD81BDF89A82
:10250000992780B50895DC01A40FB51F41505040B4
:1025100048F0CB01840F951F2E910E9494124150D8
:102520005040D0F70895262FF999FECF92BD81BD76
:10253000F89A019700B4021639F01FBA20BD0FB601
:10254000F894FA9AF99A0FBE0895052E97FB1EF497
:1025500000940E94BC1257FD07D00E94CF1207FCC6
:1025600003D04EF40C94BC125095409530952195B3
:102570003F4F4F4F5F4F08959095809570956195AF
:102580007F4F8F4F9F4F08950E94F112A59F900D8E
:10259000B49F900DA49F800D911D11240895A1E278
:1025A0001A2EAA1BBB1BFD010DC0AA1FBB1FEE1FCD
:1025B000FF1FA217B307E407F50720F0A21BB30B18
:1025C000E40BF50B661F771F881F991F1A9469F794
:1025D00060957095809590959B01AC01BD01CF01F0
:1025E0000895A29FB001B39FC001A39F700D811DEC
:1025F0001124911DB29F700D811D1124911D08950C
:102600005058BB27AA270E9418130C9431120E941D
:10261000231238F00E942A1220F039F49F3F19F457
:1026200026F40C9420120EF4E095E7FB0C941A1299
:10263000E92F0E94421258F3BA1762077307840702
:10264000950720F079F4A6F50C9464120EF4E09549
:102650000B2EBA2FA02D0B01B90190010C01CA015C
:10266000A0011124FF27591B99F0593F50F4503E07
:1026700068F11A16F040A22F232F342F4427585FF9
:10268000F3CF469537952795A795F0405395C9F711
:102690007EF41F16BA0B620B730B840BBAF09150C9
:1026A000A1F0FF0FBB1F661F771F881FC2F70EC068
:1026B000BA0F621F731F841F48F48795779567953B
:1026C000B795F7959E3F08F0B0CF9395880F08F027
:1026D0009927EE0F9795879508950E9481130C9482
:1026E00031120E942A1258F00E94231240F029F45D
:1026F0005F3F29F00C941A1251110C9465120C943E
:1027000020120E94421268F39923B1F3552391F3EA
:10271000951B550BBB27AA2762177307840738F050
:102720009F5F5F4F220F331F441FAA1FA9F335D0AD
:102730000E2E3AF0E0E832D091505040E695001C61
:10274000CAF72BD0FE2F29D0660F771F881FBB1F1B
:10275000261737074807AB07B0E809F0BB0B802DF9
:10276000BF01FF2793585F4F3AF09E3F510578F025
:102770000C941A120C9465125F3FE4F3983ED4F364
:10278000869577956795B795F7959F5FC9F7880FF9
:10279000911D9695879597F90895E1E0660F771F4B
:1027A000881FBB1F621773078407BA0720F0621BDC
:1027B000730B840BBA0BEE1F88F7E09508950E9407
:1027C000E6136894B1110C94651208950E944A12A0
:1027D00088F09F5798F0B92F9927B751B0F0E1F0E2
:1027E000660F771F881F991F1AF0BA95C9F714C092
:1027F000B13091F00E946412B1E008950C9464121B
:10280000672F782F8827B85F39F0B93FCCF38695CA
:1028100077956795B395D9F73EF490958095709527
:1028200061957F4F8F4F9F4F0895AA1BBB1B51E1AE
:1028300007C0AA1FBB1FA617B70710F0A61BB70B30
:10284000881F991F5A95A9F780959095BC01CD01D5
:10285000089597FB072E16F4009407D077FD09D052
:102860000E94151407FC05D03EF4909581959F4F6A
:102870000895709561957F4F08950E94F112B7FFFA
:102880000895821B930B0895EE0FFF1F0590F4919E
:10289000E02D0994FB01DC014150504048F00190CB
:1028A0000D920020C9F701C01D9241505040E0F741
:1028B000089510E0CDE5D0E004C0FE010E9444146C
:1028C0002196CE35D107C9F7F894FFCFFFFFFF015E
:1028D0000101000000000000000000FCE1A8A8FFCA
:1028E0005A042B02BD0C96023003B002A90C6702F9
:1028F00055024B02014003CF0C7F017F0101000014
:10290000600280000008000001070000322E332E14
:10291000320073656E736F722D52656C61792D3262
:1029200000312E3200496E742E54656D7000526570
:102930006C61792E4C6967687473004175746F2EF1
:0C2940004C6967687473005253534900DF
:1078000011E0A0E0B1E0E4EFFFE702C005900D92C7
:10781000A630B107D9F721E0A6E0B1E001C01D9282
:10782000AD34B207E1F7CDB7DEB72897DEBFCDBFE5
:10783000112484B78093270114BE88E180936000EF
:1078400089E280936000259A86E020E295B1922734
:1078500095B93FE748E351E0315040405040E1F7EF
:1078600000C00000815091F78091270181FD18C070
:107870008EE284B981E58CBD81E08DBD412C512C17
:10788000222423941CE3612E11E0712E33243394BF
:10789000CC24CA94DC2CAA24A39483E0B82E45C13E
:1078A00082E08093C00088E18093C10086E08093ED
:1078B000C20087E68093C40000E010E0C12CD12C08
:1078C000AA24AA94BA2CEE24E394A895EED181348C
:1078D00069F4EBD1F82E36D382E8F81629F091E856
:1078E000F91202C085E651C083E04FC0823411F422
:1078F00084E103C0853419F485E030D362C0853556
:1079000041F4D3D1082FD1D110E0182B000F111F53
:1079100057C0863521F484E021D380E036C0843618
:10792000E9F4C3D1C2D1882EC0D1C80CD11C912C8E
:10793000981488F4BAD1F82EB8D1F801E90DF11DE8
:107940002F2D30E0A901582B0A01E7BEE89511243C
:1079500093949394EDCFC801B4D132C0843769F4C5
:10796000A4D1A3D1F82EA1D1EDD2F80185918F0138
:10797000E2D2FA94F110F9CF25C0853741F4E2D272
:107980008EE1D9D285E9D7D28FE0D5D21AC0813520
:10799000B9F4BA82A982BC82AB82C601F4E09695A2
:1079A0008795FA95E1F79E838D83C6019CD19887D0
:1079B0008F83CE010196D9D2C5D2FF24F39402C0A1
:1079C000C1D2F12C80E1B7D2FF2009F47ECF50CF95
:1079D00043E050E060E070E089E291E0E9D248E005
:1079E00050E06BE171E0CE010196E2D229982A9A2B
:1079F00063E083E2D2D16CE485E2CFD167E286E234
:107A0000CCD163E780E5C9D164E08DE3C6D161E004
:107A100082E2C3D161E081E2C0D161E08CE3BDD1FB
:107A200021E041E060E070E086E08AD1873209F031
:107A300026C180912A01809328018FEF80932A012B
:107A400080932B018093080163E584E2A6D143E291
:107A50006AE087E069D161E08EEFBED11092080143
:107A60006FE584E29AD180912A018F3F09F407C122
:107A70008091290181508E3F08F05AC030920D014B
:107A800010920E0143EC62E18FE04ED160E08FE096
:107A9000A3D18D819E81E4E0880F991FEA95E1F7DB
:107AA00022D198878F8388E0FE013196ADE0B1E066
:107AB00001900D928A95E1F7B0921601A0921501FE
:107AC00044EC62E580E030D163E081E085D1882339
:107AD00009F4D5C048E050E063E371E0CE010196BF
:107AE0005AD2892B09F4CBC080913701909138018B
:107AF000009709F045C08091390190913A018A3789
:107B00009A4D09F041C08091330190913401813048
:107B1000910571F500E010E06FEFC80159D20F5FD9
:107B20001F4F011584E01807B9F7F999FECF50CF20
:107B300043E262E083E0F8D063E084E04DD1882343
:107B400009F496CF80912F01869586958695E3E37B
:107B5000F1E060E0815048F02191660F962F990F77
:107B6000990F690F6053620FF5CF80E090E006C077
:107B7000029782309105C8F66091350129D2D5CFA0
:107B80008038974008F07BC088E0E3E3F1E0DE0155
:107B9000119601900D928A95E1F7EF80F884D886CE
:107BA000CF82CE010196E1D18D809E8089819A811C
:107BB00090930E0180930D018B819C819093100115
:107BC00080930F0184010150110910931201009359
:107BD000110144EC62E382E0A7D063E083E0FCD0D3
:107BE000882309F44BCF46E050E063E371E08DE079
:107BF00091E0D1D1892BD1F6C4018150904F682FEB
:107C000062956077ACE2B1E0462F50E04C525140B3
:107C1000FA01EA0FFB1F1E962C911E9730E0322FBF
:107C200022271D967C911D97272B090127BEE895D9
:107C3000112412966A167B0659F7611106C044E0BA
:107C4000880F991F4A95E1F73CD00115110511F0F5
:107C50004801ACCFF886EF828D819E8134E0880F99
:107C6000991F3A95E1F73FD0E816F90621F01E82F8
:107C70001D8218861F82CE01019677D156CF8D8145
:107C80009E8124E0880F991F2A95E1F72CD02F813F
:107C900038858217930709F048CF1CBCA8958091BE
:107CA0002701282EF201099540CF8091C00087FF5F
:107CB000FCCF8091C00084FD01C0A8958091C600D2
:107CC000089523E0FC0127BFE89507B600FCFDCF2F
:107CD00025E0FC0127BFE89507B600FCFDCF81E158
:107CE00087BFE8950895BC01E0E0F0E08FEF9FEFDB
:107CF000E617F707C0F4E11528E7F207A0F425918D
:107D0000822748E0DC01B695A7959C0121703327B6
:107D10003195219531092170307ACD018227932741
:107D2000415081F7E5CF089590912901E6E0F1E017
:107D3000918390839FEF9683858344836383089523
:107D40002A989AE19A95F1F700C08EBD0DB407FE0E
:107D5000FDCF8EB59FEF4150D0F0222369F09EBD3C
:107D60000DB407FEFDCF8EB561157105A1F3DB01E2
:107D70008C936F5F7F4FEFCFFB013196DB018C91CE
:107D80008EBD0DB407FEFDCF8EB5BF01E4CF2A9A9C
:107D9000BAE1BA95F1F700C00895CF93DF931F922F
:107DA000CDB7DEB7698320E041E0BE016F5F7F4F52
:107DB000C7DF0F90DF91CF91089520E040E060E0B1
:107DC00070E082EEBDDF20E040E060E070E081EE38
:107DD000B7DF60E787E2E1CFFF920F931F93CF9366
:107DE000DF93082FF62EC0910901C695C695C6955A
:107DF000C95FD0912A0129986EE080E2CEDFD0934E
:107E0000000120E045E060E071E08AE299DF20E0D7
:107E100045E060E071E080E393DF20E04C2F66E016
:107E200071E080EA8DDF299A8AE08A95F1F700C037
:107E300020E040E060E070E08FEF82DF8073C1F30C
:107E40002998BBDF6FE080E2A8DF609129018AE218
:107E5000A4DF299ACFEFDFEFA89521E041E060E0B1
:107E600070E087E16DDF80FF02C09FEF4BC021E033
:107E700041E060E070E080E663DF182F813208F0B7
:107E800010E021E0412F6CE271E081E659DF95DFDF
:107E9000812F90E020912F0126952695269530E0A0
:107EA000295F3F4F8217930701F790912E01809130
:107EB00029019813DACF90913101809130018770B8
:107EC000833001F59830F1F420912A018091280146
:107ED000281302C08F3FB1F420912D01821304C0FA
:107EE00080932A019EEF0EC03091330181E0830F11
:107EF0008093330140912B01341720F480932B01A0
:107F000020932A0188E08A95F1F7219719F4F1105E
:107F100008C002C00913A0CF81E0091731F080E04A
:107F200004C0FA9409135FCFF7CFDF91CF911F916F
:107F30000F91FF9008959091C00095FFFCCF809322
:107F4000C6000895B2DE803239F088E18093600087
:107F500088E080936000FFCF84E1EDCFCF93C82FFE
:107F6000A4DEC150E9F7CF91EDCF0F931F93CF93CC
:107F7000DF938C01CBE1D1E0F80161918F01CE015B
:107F800027D02196C332F1E0DF07B1F7DF91CF911F
:107F90001F910F910895FB01DC0104C08D910190A8
:107FA000801921F441505040C8F7881B990B08955F
:107FB000DC01CB01FC01F999FECF06C0F2BDE1BDA9
:107FC000F89A319600B40D9241505040B8F7089598
:107FD000262FF999FECF92BD81BDF89A019700B482
:107FE000021639F01FBA20BD0FB6F894FA9AF99A22
:0A7FF0000FBE089500FCE1A8A800F0
:00000001FF
