:020000040000FA
:100000000C9424030C94861A0C945F1A0C944C03E1
:100010000C944C030C944C030C94C81B0C944C0390
:100020000C944C030C944C030C944C030C944C0314
:100030000C944C030C944C030C944C030C944C0304
:100040000C94151A0C944C030C94E3190C94BD19E0
:100050000C944C030C944C030C944C030C944C03E4
:100060000C94AD1A0C944C0300407A10F35A00A083
:10007000724E18090010A5D4E80000E87648170071
:1000800000E40B54020000CA9A3B000000E1F505B1
:10009000000080969800000040420F000000A086FB
:1000A00001000000102700000000E803000000002D
:1000B0006400000000000A000000000001000000D1
:1000C00000002C76D888DC674F0823DFC1DFAE59EB
:1000D000E1B1B796E5E3E453C63AE651997696E87E
:1000E000E6C28426EB898C9B62ED407C6FFCEFBC02
:1000F0009C9F40F2BAA56FA5F490055A2AF75C932D
:100100006B6CF9676DC11BFCE0E40D47FEF520E662
:10011000B500D0ED902E0300943577050080841E45
:10012000080000204E0A000000C80C333333330FA0
:10013000986E12831141EF8D2114893BE65516CF3D
:10014000FEE6DB18D1844B381BF77C1D901DA4BB49
:10015000E424203284725E228100C9F124ECA1E5FE
:100160003D2754534D3A494E49540A002154534DAA
:100170003A494E49543A545350204641494C0A009A
:100180005453463A5349443A4F4B2C49443D257504
:100190000A00215453463A5349443A4641494C2CAB
:1001A00049443D25750A0054534D3A494E49543A45
:1001B0005354415449443D25750A0054534D3A491E
:1001C0004E49543A545350204F4B0A0054534D3A21
:1001D000465041523A53544154503D25750A0054FB
:1001E000534D3A465041520A0054534D3A49443A0D
:1001F0005245510A0054534D3A49440A0021545380
:100200004D3A49443A4641494C0A0054534D3A4903
:10021000443A4F4B0A0054534D3A55504C0A002172
:1002200054534D3A55504C3A4641494C0A005453A8
:100230004D3A55504C3A444757432C4F3D25752C69
:100240004E3D25750A0054534D3A55504C3A4F4B8C
:100250000A0054534D3A52454144593A49443D25C8
:10026000752C5041523D25752C4449533D25750A46
:10027000002154534D3A52454144593A55504C206F
:100280004641494C2C53544154500A005453463A69
:100290005444493A54534C0A0054534D3A46414948
:1002A0004C3A4449530A0054534D3A4641494C3A5A
:1002B000434E543D25750A0054534D3A4641494C2E
:1002C0003A52452D494E49540A00215453463A5258
:1002D00054453A4E324E204641494C0A005453464A
:1002E0003A5254453A4E324E204F4B0A0021545355
:1002F000463A5254453A4650415220414354495699
:10030000450A00215453463A534E443A544E520A39
:100310000025735453463A4D53473A53454E442CA7
:1003200025752D25752D25752D25752C733D257568
:100330002C633D25752C743D25752C70743D2575F9
:100340002C6C3D25752C73673D25752C66743D25F9
:10035000752C73743D25733A25730A004D434F3A4B
:100360005245473A5245510A00214D434F3A5052A7
:100370004F3A52433D25750A000A002D2D20707218
:100380006573656E742053656E6420627265616B7F
:100390002C20002D2D2057726F6E67206E756D62B8
:1003A00065722049440A00214D434F3A5741493A6A
:1003B00052433D25750A00202D2074696D65722019
:1003C000656E64002E00322E332E320A00207C5FD0
:1003D0005C2F602C0A0702200220B2871003400124
:1003E00020002402221002220202200222002220E7
:1003F0000202202227101341010101032220304074
:1004000020305203402214020310522402217101B1
:1004100000101012101222101002240101032203F6
:10042000002001010032203712100121322601285C
:1004300040322212101212224322241210012224CE
:1004400070C122240F0F5453463A5755523A4D5318
:100450003D256C750A004D434F3A42474E3A494E8E
:100460004954204F4B2C5453503D25750A004D43A1
:100470004F3A42474E3A5354500A004D434F3A4286
:10048000474E3A4246520A004D434F3A42474E3A8F
:10049000494E4954204E4F44452C43503D524E4EF8
:1004A0004E412D2D2D2C46513D25752C52454C3D50
:1004B00025752C5645523D322E332E320A000A0045
:1004C0002D2D2070726573656E742053656E6420E7
:1004D000627265616B2C20004D434F3A50494D3A92
:1004E0004E4F4445205245473D25750A002154533F
:1004F000463A4D53473A52454C204D53472C4E52A5
:1005000045500A005453463A4D53473A52435620F9
:1005100043420A005453463A4D53473A42430A0075
:100520005453463A4D53473A4543484F0A002154E5
:1005300053463A4D53473A504F4E47205245435643
:100540002C494E4143544956450A005453463A4DAE
:1005500053473A504F4E4720524543562C48503D42
:1005600025750A005453463A4D53473A50494E4771
:1005700045442C49443D25752C48503D25750A00BD
:100580005453463A4D53473A4543484F20524551FC
:100590000A005453463A4D53473A524541442C259C
:1005A000752D25752D25752C733D25752C633D25E1
:1005B000752C743D25752C70743D25752C6C3D256E
:1005C000752C73673D25753A25730A0000000008F5
:1005D000000201000003040700000000000000000A
:1005E000214D434F3A5741493A52433D25750A0040
:1005F000214D434F3A534E443A4E4F4445204E4FBF
:1006000054205245470A0000000000250028002B16
:100610000000000000240027002A00040404040451
:10062000040404020202020202030303030303019F
:100630000204081020408001020408102001020476
:1006400008102000D21B731D11241FBECFEFD8E06D
:10065000DEBFCDBF12E0A0E0B1E0ECEAFFE402C0F3
:1006600005900D92A233B107D9F723E0A2E3B2E0DF
:1006700001C01D92A63EB207E1F713E0C3E2D3E04A
:1006800004C02197FE010E948127C232D107C9F719
:100690000E946D1C0C94C9270C940000E9EFF2E055
:1006A000A089B18982E08C93A485B5851C92A6852A
:1006B000B78580E18C93108EA489B58986E08C93F0
:1006C000A289B3898C9180618C93A289B3898C9122
:1006D00088608C93A289B3898C9180688C930288FE
:1006E000F389E02D80818F7D8083089590E0FC0167
:1006F000E15DF94F2491855E994FFC018491882337
:1007000099F090E0880F991FFC01EF5EF94FA591D9
:10071000B491FC01E95FF94F859194918FB7F894FA
:10072000EC91E22BEC938FBF0895942FE0EAF3E075
:100730003091F50231838283668325834481487F2B
:10074000492B477E4483CF010895AF92BF92CF9249
:10075000DF92EF92FF920F931F93CF93DF936C0181
:100760007B018B01040F151FEB015E01AE18BF0862
:10077000C017D10759F06991D601ED91FC91019014
:10078000F081E02DC6010995892B79F7C501DF912C
:10079000CF911F910F91FF90EF90DF90CF90BF907E
:1007A000AF900895FC01538D448D252F30E0842FA8
:1007B00090E0821B930B541710F0CF960895019789
:1007C0000895FC01918D828D981761F0A28DAE0F76
:1007D000BF2FB11D5D968C91928D9F5F9F73928FFD
:1007E00090E008958FEF9FEF0895FC01918D828D29
:1007F000981731F0828DE80FF11D858D90E00895F6
:100800008FEF9FEF0895FC01918D228D892F90E04D
:10081000805C9F4F821B91098F739927089589EF00
:1008200092E00E94030421E0892B09F420E0822F4A
:100830000895FC01A48DA80FB92FB11DA35ABF4F75
:100840002C91848D90E001968F739927848FA689CF
:10085000B7892C93A089B1898C91837080648C9323
:10086000938D848D981306C00288F389E02D8081D2
:100870008F7D80830895EF92FF920F931F93CF9304
:10088000DF93EC0181E0888F9B8D8C8D98131AC0CB
:10089000E889F989808185FF15C09FB7F894EE89B2
:1008A000FF896083E889F98980818370806480830F
:1008B0009FBF81E090E0DF91CF911F910F91FF905A
:1008C000EF900895F62E0B8D10E00F5F1F4F0F7302
:1008D0001127E02E8C8D8E110CC00FB607FCFACFBD
:1008E000E889F989808185FFF5CFCE010E9419043E
:1008F000F1CFEB8DEC0FFD2FF11DE35AFF4FF0828E
:100900009FB7F8940B8FEA89FB8980818062CFCFF3
:100910000F931F93CF93DF938C01D0E0C0E0F801D9
:10092000EC0FFD1F6491662341F089EF92E00E9475
:100930003B04892B11F02196F2CFCE01DF91CF91AC
:100940001F910F910895CF93DF93EC01888D882339
:10095000B9F0AA89BB89E889F9898C9185FD03C022
:10096000808186FD0DC00FB607FCF7CF8C9185FF07
:10097000F2CF808185FFEDCFCE010E941904E9CF2F
:10098000DF91CF91089580E090E0892B29F00E94BB
:100990000F0481110C940000089590E0FC01E453D1
:1009A000FA4F2491FC01E15DF94F3491FC01E55EC1
:1009B000F94FE491EE23C9F0222339F0233001F1FD
:1009C000A8F4213019F1223029F1F0E0EE0FFF1FD9
:1009D000E95FF94FA591B4918FB7F894EC9161114B
:1009E00026C030953E233C938FBF08952730A9F051
:1009F0002830C9F0243049F7809180008F7D03C0F2
:100A0000809180008F7780938000DFCF84B58F77CF
:100A100084BDDBCF84B58F7DFBCF8091B0008F7715
:100A20008093B000D2CF8091B0008F7DF9CF3E2B64
:100A3000DACF2091310190E4299F900111248E504A
:100A4000822B80937C0080917A00806480937A006E
:100A500080917A0086FDFCCF80917800909179009A
:100A600008953FB7F8948091BB029091BC02A09189
:100A7000BD02B091BE0226B5A89B05C02F3F19F05C
:100A80000196A11DB11D3FBFBA2FA92F982F88270E
:100A9000BC01CD01620F711D811D911D43E0660FE8
:100AA000771F881F991F4A95D1F708958F929F92BB
:100AB000AF92BF92CF92DF92EF92FF926B017C01D7
:100AC0000E9431054B015C01C114D104E104F10421
:100AD000B9F00E943105681979098A099B09683EB5
:100AE00073408105910580F321E0C21AD108E10825
:100AF000F10888EE880E83E0981EA11CB11CE4CF9B
:100B0000FF90EF90DF90CF90BF90AF909F908F902D
:100B100008952FB7F8946091B7027091B802809150
:100B2000B9029091BA022FBF0895089520916C02E6
:100B3000260F3327331F21323105ECF42091900228
:100B4000FC0190E080E0243069F082E00895A091FB
:100B50006C022191AC01445B5D4FA40FB52FB11D18
:100B60002C930196861798F380916C02680F60931E
:100B70006C0280E0089581E0089508958FEF9FEF63
:100B800008958FEF9FEF08958091450290E0919531
:100B9000819591090895CF93DF93CB01EA01642FEA
:100BA0000E949605CE01DF91CF910895CF93DF93F8
:100BB0001F92CDB7DEB7698361E0CE0101960E9436
:100BC000960581E090E00F90DF91CF91089590E03D
:100BD00080E008950895FC01838187708860838395
:100BE00084818F71806284836783CF010895FC01C3
:100BF00083818695869586958A3108F089E10895E6
:100C0000E0913802F0913902309721F00280F381AF
:100C1000E02D099408950F931F930E948905009178
:100C20003A0210913B0220913C0230913D02601B40
:100C3000710B820B930B1F910F9108959C01809172
:100C400038029091390282179307F1F09091420295
:100C50009F71909342023093390220933802E091C1
:100C60003802F0913902309721F00190F081E02DA7
:100C700009950E94890560933A0270933B02809324
:100C80003C0290933D02089580914202805E8093E1
:100C90004202E5CF88E191E00C941E068EBD000073
:100CA0000DB407FEFDCF8EB508950F931F93CF931C
:100CB000DF93EC018C81829586958770A9F4CE0133
:100CC0000E94F705482F50E0BE01695F7F4F82EC1C
:100CD00092E00E948E27CE010E94F705E82FF0E0F7
:100CE000EE53FD4F108209C0813071F48F814AE0CC
:100CF00062EC72E090E00E94191F82EC92E0DF91BA
:100D0000CF911F910F910895823031F44AE062EC47
:100D100072E08F819885EFCF833041F44AE062EC36
:100D200072E08F8198850E94721FE7CF843051F462
:100D30006F81788589859A852AE042EC52E00E948D
:100D4000241FDBCF853051F46F81788589859A85A2
:100D50002AE042EC52E00E94501FCFCF10E08730D3
:100D600071F42B85293008F028E06F81788589851A
:100D70009A8502EC12E042E00E94911DBECFCE01A6
:100D80000E94F705181738F5E12FF0E09F01220FB8
:100D9000331FD901AE53BD4FEC0FFD1F8781082EC5
:100DA000000C990B44E0959587954A95E1F78F7073
:100DB0008A3068F4805D8C932D533D4F87818F700E
:100DC0008A3038F4805DF90180831F5FD8CF895C59
:100DD000F2CF895CF8CFE82FF0E0EE0FFF1F80CF55
:100DE000FC0101900020E9F73197AF01481B590B36
:100DF000BC0189EF92E00C94A503CF93DF930E948E
:100E00008804EC0184E691E00E94F0068C0F9D1F9F
:100E1000DF91CF9108958F929F92AF92BF920F93DF
:100E20001F93CF93DF93CDB7DEB7A1970FB6F8949A
:100E3000DEBF0FBECDBF19A2423008F44AE08E01DA
:100E40000F5D1F4F842E912CB12CA12CA501940174
:100E50000E941326E62FB901CA01EA30F4F4E05DDE
:100E6000D801EE938D01232B242B252B79F790E0CD
:100E700080E0109719F0CD010E94F006A1960FB600
:100E8000F894DEBF0FBECDBFDF91CF911F910F91C0
:100E9000BF90AF909F908F900895E95CE1CFCF9382
:100EA000C82F80EC94E00E9488046C2F70E090E0E2
:100EB00080E04AE00E940B078EEB94E0CF910C9407
:100EC00088040F931F93CF93DF93EC018B01E0E035
:100ED0006115710549F0FB0101900020E9F7319798
:100EE000E61BEA3108F0E9E18B81877098E0E99F21
:100EF000F0011124E82BEB838C818F718C83CE0160
:100F00000E94F705482F50E0B801CE0107960E94D5
:100F10008E27CE010E94F7058C0F9D2F911DFC019D
:100F20001782CE01DF91CF911F910F9108951F93EA
:100F3000CF93DF9385ED8093BC0080914802909120
:100F40004902A0914A02B0914B020796A11DB11D22
:100F500023E0B695A795979587952A95D1F7209187
:100F6000BC0024FD03C01092900252C04091480280
:100F70005091490260914A0270914B02452B462BD9
:100F8000472B69F30097A105B10541F02AE12A95A5
:100F9000F1F700C00197A109B109E1CF80914702A3
:100FA000C1E0C0934602882399F1D091B800109116
:100FB000BA008091BC008A7B8093BC0060E082E133
:100FC0000E94CD0460E083E10E94CD041092900263
:100FD000C09392021092910261E082E10E94CD04DE
:100FE00061E083E10E94CD048091B9008E7F8093FF
:100FF000B9008091B9008D7F8093B90080E2809321
:10100000B80085E48093BC001093BA00D093B80078
:10101000DF91CF911F910895FC012481229526959F
:101020002770213011F487810895211104C007969B
:101030000E94D41E089580E00895DF92EF92FF92FF
:101040000F931F93CF93DF93FC01248124FD25C0D0
:10105000EC0186818A3F31F08D81823031F183301D
:10106000E1F432C085818230B9F710910301CF01DC
:101070000E940C0861E0811101C060E0161769F060
:101080006093030181E08093040187E992E00E946C
:10109000A025809104018823F9F2DF91CF911F915F
:1010A0000F91FF90EF90DF900895E0909E03F090F5
:1010B0009F039E81F7012381291709F446C02781E8
:1010C00001E0921709F442C000919C0310919D0326
:1010D0009E81F8012381921709F44EC024852913BB
:1010E000DCCF91E0E92EF12C833009F44AC0CE0127
:1010F0000E940C0899E09E9DF0019F9DF00D112427
:10110000E00FF11F85839781891739F28823B1F1A8
:10111000808591851816190614F084E690E029E080
:101120002E9DF0012F9DF00D1124E00FF11F9187EE
:10113000808789E08E9DF0018F9DF00D1124E00FD6
:10114000F11F81E08683F80115C000E010E0000F78
:10115000111F000F111F0E0D1F1DF801D580CE01AC
:101160000E940C08D81609F498CFF801858381E015
:101170008683F701808391CF90E0B4CF90E080E048
:10118000CECFDFB6F8948C818295869587708230B9
:10119000C1F48F81988585369105ECF497FF02C0E4
:1011A00090E080E029E02E9DF0012F9DF00D1124AC
:1011B000E00FF11F208531852817390779F4DFBE4C
:1011C0006CCF811105C0CE0107960E94D41EE3CFDB
:1011D00090E080E0E3CF84E690E0E4CF21E01816D1
:1011E00019060CF020E0258329E02E9DF0012F9DAB
:1011F000F00D1124E00FF11F91878087DFBE99CF9A
:10120000CF93DF93FC011082118212821482158227
:101210001682DC0117968AE1ED0119928A95E9F7A9
:1012200082E08383DF91CF910895BF92CF92DF92C6
:10123000EF92FF920F931F93CF93DF937B01042FC5
:10124000B22E90E59CBD1DBC2A98E0E1F0E03197FC
:10125000F1F70E944E06182FE7010150A8F0BB20BD
:1012600051F08FEF0E944E06182FE114F104A9F3FC
:1012700088832196F2CF6E018FEFC81AD80A888131
:101280000E944E06E601E9CF2A9A80E190E001979C
:10129000F1F7812FDF91CF911F910F91FF90EF9088
:1012A000DF90CF90BF900895CF93DF931F92CDB77B
:1012B000DEB7698320E041E0BE016F5F7F4F0E948F
:1012C00015090F90DF91CF9108956FE080E20E94A1
:1012D0005409609113016F3F19F08AE20E9454098A
:1012E000299A089521E041E070E060E00C9415092E
:1012F00086E00E947209853231F485E00E9472090D
:1013000091E08C3409F090E0892F089520E040E0CE
:1013100070E060E00C941509EF92FF920F931F9319
:10132000CF93DF93CDB7DEB7C857D1090FB6F89486
:10133000DEBF0FBECDBF8E010F571F4FF801E190EA
:10134000F1908F010E9489054AE00E940B0787E611
:1013500091E00E94F0069801A70168E770E0CE01D5
:1013600001960E948C1FCE0101960E94F00689EF23
:1013700092E00E94A304C858DF4F0FB6F894DEBF76
:101380000FBECDBFDF91CF911F910F91FF90EF90D6
:1013900008959F92AF92BF92CF92DF92EF92FF9209
:1013A0000F931F93CF93DF93F82EEB018091F502FB
:1013B00088838B8100E282FD05C0CB010E94F70586
:1013C00007E0080F8091F80211E080FD03C08FEF65
:1013D000F81210E0209709F4BBC0299880E091E052
:1013E0000197F1F76EE080E20E94540984EC90E0EE
:1013F0000197F1F76F2D8AE20E9454096F2D80E367
:101400000E94540981EE0E948609112321F060E5B3
:1014100084E20E94540920E0402FBE0180EA0E942D
:101420001509299AD12CC12C8FEF0E94860980734F
:1014300049F49FEFC916D90629F0A8958FEFC81A6D
:10144000D80AF2CF299860E787E20E945409082F52
:1014500084FF03C081EE0E948609112321F06FE50D
:1014600084E20E9454090E94650905FD73C0012FA2
:101470008C818770833039F48D8129E6A22E21E09A
:10148000B22E813121F0CE010E9455065C0194E715
:10149000C92E91E0D92E002321F081E7C82E81E0EA
:1014A000D82E809143028F70982EEB80E2FAEE24C2
:1014B000E0F8CE010E94F7059C81F92FF295F69590
:1014C000F770ED8197707E816A815881498129E7A3
:1014D00031E0111106C02BE731E0002311F026E6C0
:1014E00031E0BF92AF92DF92CF921F929F921F92F4
:1014F000EF921F928F931F92FF931F92EF931F9271
:101500009F931F927F931F926F931F92FF921F9240
:101510005F931F924F933F932F9381E193E09F93AB
:101520008F930E948C098DB79EB74E960FB6F89494
:101530009EBF0FBE8DBF802FDF91CF911F910F9166
:10154000FF90EF90DF90CF90BF90AF909F90089565
:1015500000E08ECF01E08CCF0F931F93CF93DF93EA
:101560008C01FC0182819091420290FF12C08F3F5A
:1015700009F443C08DEE92E09F938F930E948C09F3
:101580000F900F90C0E08C2FDF91CF911F910F91A2
:101590000895D091F6028823D9F08F3F71F1B801F8
:1015A0000E94C909C82F882349F08DED92E09F93CE
:1015B0008F930E948C090F900F90E5CF8AEC92E0F8
:1015C0009F938F930E948C09D091F6020F900F90F9
:1015D000B8018D2F0E94C909C82F8091F6028D1382
:1015E000D2CF80914302C1110AC091E0980F9F7041
:1015F000807F892B80934302C6CFDFEFE9CF807FC6
:1016000080934302C1E0BFCF2091420222FD0C949F
:10161000AC0A83E093E09F938F930E948C090F9014
:101620000F9080E008951F93CF93DF93182F262FFC
:10163000EA0150E040E0682F80E00E9495031F3FE0
:1016400011F4CDE7D1E0BE010E946107DF91CF9197
:101650001F910C94040BFC018091F502818394810D
:10166000907F996094838091C10280FF03C0CF0175
:101670000C94040B80EF95E09F938F930E948C094C
:101680000F900F9080E00895FF920F931F93CF93D8
:10169000DF93CDB7DEB7A1970FB6F894DEBF0FBECC
:1016A000CDBFF82E8B01CE0101960E940009FF826A
:1016B00082E08E83F8016081CE0101960E94EB05E5
:1016C0000E942B0BA1960FB6F894DEBF0FBECDBFC4
:1016D000DF91CF911F910F91FF900895EF92FF92AC
:1016E0000F931F93CF93DF931F92CDB7DEB78C017B
:1016F0007B01DB018C91E82FF0E0DF01AA0FBB1F1B
:10170000AA0FBB1FA00FB11F3196EE0FFF1FEE0FE8
:10171000FF1FE00FF11F15966C9180810E94CD0490
:10172000D701EC91B4E0EB9FF0011124E00FF11F21
:10173000838190E0658183569E4F0E94A025F7012A
:101740008081F4E08F9FC0011124F801E80FF91F98
:1017500021E03581311101C020E02983080F191FD4
:10176000BE016F5F7F4FD80113968C910E94440B8E
:101770000F90DF91CF911F910F91FF90EF900895FF
:10178000FF920F931F93CF93DF93CDB7DEB7A1974F
:101790000FB6F894DEBF0FBECDBFF82E8B01CE0181
:1017A00001960E940009FF8283E08E83F801208168
:1017B00031818C81877080618C838D818F71806491
:1017C0008D8339872887CE0101960E942B0BA19625
:1017D0000FB6F894DEBF0FBECDBFDF91CF911F9142
:1017E0000F91FF900895EF92FF920F931F93CF9365
:1017F000DF93CDB7DEB7A1970FB6F894DEBF0FBE6B
:10180000CDBFE82EF62E8A01CE0101960E94000976
:10181000EF82FE82F801208131818C8187708061A6
:101820008C838D818F7180668D8339872887CE0167
:1018300001960E942B0BA1960FB6F894DEBF0FBE47
:10184000CDBFDF91CF911F910F91FF90EF90089541
:101850002F923F924F925F926F927F928F929F92C0
:10186000AF92BF92CF92DF92EF92FF920F931F93AE
:10187000CF93DF9300D000D0CDB7DEB780912801A1
:101880008F3F09F464C080E1282E312C97E1492E66
:10189000512C23E0E22EF12C32E0C32ED12C44E077
:1018A000642E712C56E0A52EB12CE0912801E83071
:1018B00008F038C1E150E73008F02BC1F0E0ED59F5
:1018C000F34F0C948127720CBE0CCE0C050D390D14
:1018D0006C0C6D0D992041F0809128018F5F8093F1
:1018E0002801E3CF09EE13E064E670E080E090E0C9
:1018F0000E9490102BE043E050E06FEF80E00E94E8
:10190000950363E871E00E9461070E94040B982E22
:101910002CE043E050E06FEF80E00E94950367E920
:1019200071E00E9461070E94040B98220150110986
:1019300089F68BE793E00E94880483E891E00E9497
:10194000F00689E793E00E9488049110C5CF0F90BC
:101950000F900F900F90DF91CF911F910F91FF90FB
:10196000EF90DF90CF90BF90AF909F908F907F903F
:101970006F905F904F903F902F900895BA82A98208
:101980008DEF8B834BE951E0BE016F5F7F4FCE013E
:1019900003960E94061181119FCFD9CF00919E031B
:1019A00010919F03FA82E982480183E0880E911C1E
:1019B00044EA51E0BE016F5F7F4FC4010E940611EF
:1019C000882329F2DA82C982BE016F5F7F4FC4018A
:1019D0000E94CF10882309F4BACFFA82E982095F06
:1019E0001F4F44EA51E0BE016F5F7F4FC8010E9464
:1019F0000611882309F4ABCFDA82C982BE016F5F7A
:101A00007F4FC8010E94CF10C6CF80909C0390905A
:101A10009D0384010D5F1F4F95E1890E911C7A8211
:101A2000698241EB51E0BE016F5F7F4FC8010E94A8
:101A30000611882309F48BCFDA82C982BE016F5F59
:101A40007F4FC8010E94CF10882309F480CFFA820B
:101A5000E982BE016F5F7F4FC8010E94CF108823CB
:101A600009F475CF075F1F4F8016910609F434CF34
:101A7000D6CF8AEF8C838BEF8B833A82298250E01A
:101A800040E0BE016F5F7F4FCE0103960E940611BA
:101A9000882309F45CCF5A824982BE016F5F7F4F71
:101AA000CE0103960E94CF10882309F450CFFA820A
:101AB000E9824FEB51E0BE016F5F7F4FCE0104968C
:101AC0000E940611882309F442CFDA82C982BE013E
:101AD0006F5F7F4FCE01049695CF9EEF9B8381E28F
:101AE00090E09A8389834BEC51E0BE016F5F7F4F9A
:101AF000CE0103960E940611882309F428CF85E2BF
:101B000090E09A838983BE016F5F7F4FCE01039679
:101B100079CF83E993E00E94FD0689EF92E00E946D
:101B2000A30415CF8FEF8093280111CF2FE043E05E
:101B300050E06FEF80E00E94950366E671E00E943E
:101B40006107E0EAF3E083818770806183838481A9
:101B50008F71806C848381E087831086CF010E941F
:101B6000040B8FE00E94431046E651E061E170E013
:101B70008FEF0E94130B26E043E050E06FEF80E010
:101B80000E9495036091F6020E94EB050E94040BEF
:101B900086E00E9443100C94280C2F923F924F92A3
:101BA0005F927F928F929F92AF92BF92CF92DF927D
:101BB000EF92FF920F931F93CF93DF93CDB7DEB7D2
:101BC000A1970FB6F894DEBF0FBECDBF86E0E82E1A
:101BD00022242A9492E0392E93E0492E532C2BE4B0
:101BE000822E25E0922E87E10E94720980FD10C2AC
:101BF000EA94EE2009F40CC221E041E070E060E0DC
:101C000080E60E941509182F813220F082EE0E9492
:101C1000860910E021E0412F61EC73E081E60E942B
:101C2000150960E487E20E94540981E2E1ECF3E0E7
:101C3000DE01119601900D928A95E1F70C81802FBB
:101C40008370823081F6CE0101960E94F70502FD75
:101C500089E1895F1813C7CF81EC93E00E94F705F3
:101C6000782E0091C50307701091C603F090C2034F
:101C7000D090C103C090C303033021F489E691E002
:101C8000113121F081EC93E00E945506A72CB12C74
:101C90009F938F938091C40382FB882780F91F92C2
:101CA0008F931F927F928091C5038295869587704E
:101CB0001F928F931F921F931F920F938091C703C0
:101CC0001F928F931F92CF921F92DF921F92FF92CB
:101CD00022E935E03F932F930E948C0980914302C3
:101CE0008068809343020FB6F894DEBF0FBECDBF6D
:101CF0008091F502C8124BC1F501EF53FC4F1782DA
:101D00008091C50383FF21C080E895E09F938F9366
:101D10000E948C0981E2E1ECF3E0A0EAB3E00190DB
:101D20000D928A95E1F78091A403877E806180936C
:101D3000A4038091F5028093A103F092A20380EAAC
:101D400093E00E94040B0F900F909091C50394FDB7
:101D500015C1033009F00AC18091C60321EF280F95
:101D6000233008F440CF143009F43DCF183109F581
:101D700081EC93E00E940C081F928F931F92FF92B8
:101D800084E695E09F938F930E948C0929E143E0BC
:101D900050E06FEF8F2D0E94950361E00E94EB05EC
:101DA0000E94AC0A0F900F900F900F900F900F9021
:101DB0001ACF1931F9F48091420283FF14C0877F52
:101DC0008093420281EC93E00E940C0880934402CD
:101DD0001F928F939F928F920E948C090F900F9069
:101DE0000F900F9000CF8EE295E09F938F930E940B
:101DF0008C090BC11E3109F4F6CE1D31C1F42FE15F
:101E000043E050E06FEF80E00E949503FC01838186
:101E100087708061838384818F718064848380E094
:101E20009FEF90878783CF010E94AC0ADCCE209180
:101E3000C2032111A0C08D3059F488E198E00FB69B
:101E4000F894A895809360000FBE90936000FFCF38
:101E50008B31A9F481EC93E00E940C0891E0811190
:101E600001C090E08091C10290FB80F98093C10293
:101E70001F929F9328ED34E03F932F93ADCF863090
:101E800099F49091C80381E0992319F09D3409F0E9
:101E900080E08093C00241E050E063E071E080ECBC
:101EA00092E00E9490259FCE833119F40E94960DF6
:101EB0009ACE8231E1F40E940B065B016C0126E1AF
:101EC00043E050E06FEF80E00E949503FC018381C6
:101ED00087708062838384818F71806A8483A78204
:101EE000B086C186D286CF010E94040B7CCE8230A0
:101EF000A9F422E043E050E06FEF80E00E949503F8
:101F0000FC01838187708062838384818F71806A02
:101F100084832782308641865286E5CF813001F561
:101F200020E030E0232B09F45ECE929596959770D1
:101F3000953059F46091C8037091C9038091CA0328
:101F40009091CB030E9400004ECE911105C088EC09
:101F500093E00E94F21EF6CF60E070E0CB01F2CF7A
:101F60008A3009F440CE8C3109F43DCE81EC93E007
:101F70000E941D0838CE8A31C9F735CE80E295E03F
:101F80009F938F930E948C090F900F90EFCF3FEF9C
:101F90008DEE94E0C31229CF84E195E09F938F9357
:101FA0000E948C090F900F90033009F58091420236
:101FB00082FF03C0173009F416CE143109F013CE96
:101FC0008091F602D8120FCE0E948905737088277F
:101FD00099270E94560525E143E050E06FEF8F2DD1
:101FE0000E9495036091F6020E94EB051DCF80913F
:101FF000F602D812F8CD84E095E09F938F930E946B
:102000008C0981EC93E00E941D080F900F90EBCD9E
:10201000A1960FB6F894DEBF0FBECDBFDF91CF9172
:102020001F910F91FF90EF90DF90CF90BF90AF90F6
:102030009F908F907F905F904F903F902F9008954A
:1020400080913302882361F01F928F9389E693E099
:102050009F938F930E948C090F900F900F900F9079
:10206000809133028F5F80933302A8950E9400060F
:102070008091420284FD0E94CD0D809133028150F7
:10208000809333020895CF92DF92EF92FF92CF9325
:10209000DF93D82F8091BF02882361F01F928F9326
:1020A00080EE95E09F938F930E948C090F900F9084
:1020B0000F900F908091BF028F5F8093BF020E94AC
:1020C00089056B017C018091C50387608093C503FE
:1020D000C0E00E9489056C197D098E099F09603D49
:1020E00077408105910578F4C1110DC00E94201040
:1020F0008091C5038770833061F7C1E08091C6038A
:102100008D13E6CFE6CF8091BF0281508093BF024E
:102110008C2FDF91CF91FF90EF90DF90CF900895BB
:102120008F929F92AF92BF92CF92DF92EF92FF92E7
:102130004B015C018091BF02882361F01F928F9355
:1021400087EA93E09F938F930E948C090F900F90E2
:102150000F900F908091BF028F5F8093BF020E940B
:1021600089056B017C010E9489056C197D098E0926
:102170009F09681579058A059B0518F40E942010AF
:10218000F2CF8091BF0281508093BF02FF90EF9009
:10219000DF90CF90BF90AF909F908F900895CF9297
:1021A000DF92EF92FF920F931F93CF93DF937C0107
:1021B0006B01C9EED3E0F6010081F701108164E6FE
:1021C00070E080E090E00E949010202F42E050E00C
:1021D000612F80E00E94950366E671E00E9461072E
:1021E0000E94040B182F219729F4F70180810E9487
:1021F0004F0702C01123F9F2812FDF91CF911F9178
:102200000F91FF90EF90DF90CF9008958F929F9263
:10221000AF92BF92CF92DF92EF92FF920F931F93F4
:10222000CF937C015B016A0109EE13E0F501808028
:102230009180F701C08164E670E080E090E00E9448
:102240009010A601C114D10411F446E651E0B40186
:102250008C2F0E94130BC82F0150110929F4F7018C
:1022600080810E944F0702C0CC2301F38C2FCF91B5
:102270001F910F91FF90EF90DF90CF90BF90AF90A4
:102280009F908F9008957F928F929F92AF92BF926E
:10229000CF92DF92EF92FF920F931F93CF93DF9332
:1022A0008C017B01FB018081F80199E0899FE00DA1
:1022B000F11D11248085918522853385821B930B26
:1022C00097FD47C081E099E0A92EC82E880FDD0850
:1022D000F7018081F801A89EE00DF11D112482858F
:1022E0009385208531858217930709F476C08C0D7C
:1022F0009D1D93878287F70180814801A89E800CED
:10230000911C1124F40162857385072E000C880B43
:10231000990B0E947F2420E030E048EC52E40E94B8
:10232000B12620E030E04FE753E40E94BA240E9437
:102330002327B62E772EC62FD72FF4019480892D10
:102340000E947603209739F460E0892D0E94CD0425
:1023500030C08FEFB8CFCF3FD10511F461E0F5CF9A
:10236000E92DF0E0E453FA4FE491E33009F448C07A
:1023700040F4E130D1F0E230F1F1C038D10574F72A
:10238000E3CFE73009F448C0E83009F44DC0E43049
:10239000A1F7809180008062809380008B2D972D23
:1023A00090938B0080938A0004C084B5806884BDBC
:1023B000B7BC6AE070E080E090E00E949010F70106
:1023C0008081F801A89EE00DF11D1124828593857E
:1023D00001978336910508F47BCFDF91CF911F9150
:1023E0000F91FF90EF90DF90CF90BF90AF909F90B4
:1023F0008F907F90089584B5806284BDB8BCD9CF9A
:10240000809180008068809380008B2D972D909321
:10241000890080938800CDCF8091B0008068809340
:10242000B000B092B300C5CF8091B00080628093BD
:10243000B000B092B400BDCFDF92EF92FF920F9345
:102440001F93CF93DF931F92CDB7DEB78C017B0133
:102450000E944311F701808199E0D92EF801D89E9E
:10246000E00DF11D1124838190E0658183569E4F1C
:102470000E94A025F7018081282F30E0F801D89E26
:10248000E00DF11D112481E09581911101C080E0E2
:10249000898389E0D82ED29EF001D39EF00D1124BD
:1024A000E00FF11FBE016F5F7F4F83810E94440BDD
:1024B000F70180818D9DC0011124BC01685F7F4FB1
:1024C000600F711F080F191FF80183810E94C00B54
:1024D0000F90DF91CF911F910F91FF90EF90DF90C0
:1024E00008952F923F924F925F926F927F928F92B8
:1024F0009F92AF92BF92CF92DF92FF920F931F9362
:10250000CF93DF93CDB7DEB7A1970FB6F894DEBFB8
:102510000FBECDBF809128018F3FE1F10E94280CB2
:10252000809128018F3FC1F00CE310E001501109A8
:1025300059F084EC93E00E94880464EF71E080E03D
:1025400090E00E949010F2CF87EB93E00E94FD068E
:1025500089EF92E00E94A30468EE73E080E090E0CF
:102560000E949010A1960FB6F894DEBF0FBECDBFAB
:10257000DF91CF911F910F91FF90DF90CF90BF908F
:10258000AF909F908F907F906F905F904F903F9013
:102590002F9008958091420282FFF5C2809134020B
:1025A000909135026CE370E00E945927892B29F045
:1025B00080910501882309F44DC08FE00E94190520
:1025C00020910801309109012817390714F4821B62
:1025D000930B20910601309107012817390771F0FC
:1025E00097FD0CC0909307018093060186309105FA
:1025F0000CF084C010920B0110920A0180910A0124
:1026000090910B0120910C0130910D012817390791
:10261000E1F090930D0180930C01A0910601B0911F
:10262000070124E630E00E94872724E833E040E0F9
:1026300050E00E94B2253A832983AE014F5F5F4F7D
:1026400067E170E08BEF0E94F30B8091050181112F
:102650001092050180910401882339F01092040141
:1026600063E071E08AEF0E94440B00919C0310919B
:102670009D03809134029091350261E470E00E94E4
:102680005927892B09F0CAC0198299E0F92E24E64E
:10269000222E312C412C512C39E1A32EB12C44E6B1
:1026A000842E912C55E5652E712C8981823008F09D
:1026B000B5C0C82ED12CF801F89EE00DF11D1124F3
:1026C00085818823B9F0D80111962D913C91D901CB
:1026D0008C91882379F017968D919C918330910588
:1026E00009F47BC090F58130910509F48EC0029702
:1026F00009F480C089818F5F8983D7CF83339105A7
:102700003CF481E090E090930B0180930A0176CF36
:10271000873991051CF482E090E0F5CF8D3221E0FD
:1027200092071CF483E090E0EECF853FA1E09A078A
:102730001CF484E090E0E7CF8D3B92401CF485E0F0
:1027400090E0E1CF86E090E0DECF8530910599F012
:10275000B8F1069779F6A085B185AA31B105F4F4F0
:10276000B186A086FC9CF001FD9CF00D1124E00FC9
:10277000F11F858103C01186108680E0FC9CF0016A
:10278000FD9CF00D1124E00FF11F85838783BE01AE
:102790006F5F7F4FC8010E941C12ACCF29E130E06F
:1027A0000E948727A20191010E94B225FC9CF001A2
:1027B000FD9CF00D1124E00FF11F31872087D2CF4F
:1027C000A085B185AE32B1052CF48DE290E0918701
:1027D0008087C8CF2DE230E0E3CFA085B185A23459
:1027E000B1052CF4A1E4B0E0B187A087BBCF21E410
:1027F00030E0D6CFA085B185A635B1051CF4718631
:102800006086B0CF25E530E0CBCF808591858436DA
:10281000910509F46FCF91868086A4CFF80180815D
:10282000882309F458C01082198289E0F82EDD242B
:10283000D3948981823008F04EC0F801F89EE00DF3
:10284000F11D112486818823C1F085819781891724
:10285000C1F08783BE016F5F7F4FC8010E941C12C9
:102860008981F801F89EE00DF11D1124168262E3C2
:1028700070E080E090E00E94901089818F5F8983F2
:10288000D8CF811108C0808591851816190664F487
:10289000D582D782DFCF813039F480859185892B2D
:1028A00019F415821782D6CFBE016F5F7F4FC80122
:1028B0000E94431189818F9DC0011124BC01685F72
:1028C0007F4F600F711F800F911FDC0113968C9159
:1028D0000E94C00BC5CF00919E0310919F03809171
:1028E00034029091350266E470E00E945927892BEA
:1028F00041F51982E981E23020F5B4E0EB9FF00167
:1029000011249F01200F311FF90185818823A9F02F
:10291000F801A181B2818C91882379F017968D916D
:102920009C910497039748F4D90115961C92BE0117
:102930006F5F7F4FC8010E946E0B89818F5F898313
:10294000D9CFF80180818823C9F010821982E981EA
:10295000E230A0F424E0E29FF0011124E00FF11F27
:102960008681882339F01682BE016F5F7F4FC801D0
:102970000E946E0B89818F5F8983E9CF00919A0352
:1029800010919B03809134029091350267EB70E0C7
:102990000E945927892B29F0D8018C91882309F4AA
:1029A00053C088EC80937C0080917A00806880938B
:1029B0007A0064E170E080E090E00E94560580912A
:1029C0007A00806480937A0080917A0086FDFCCF43
:1029D000609178007091790090E080E00E947D2401
:1029E0002EEA37E242EA53E40E94442626EF38E218
:1029F0004CE95FE30E94B1260E942327613801F170
:102A0000F80181818617E1F06183CE0101960E9471
:102A100000098DEF8F831E82D80111962C91022E12
:102A2000000C330B8C81877080618C838D818F715A
:102A300080648D8339872887CE0101960E942B0BF5
:102A4000F801808181111082C0909803D090990381
:102A5000809134029091350265EB70E00E94592715
:102A6000892B21F0D6018C91882339F18EE00E94C8
:102A700019056AE070E00E946D278B0165367105CB
:102A800014F004E610E017FF02C010E000E0F601C9
:102A900081818017110669F0018320E043E050E056
:102AA0006FEF80E00E949503602F0E94EB050E946B
:102AB000040BD6018C9181111C9200919603109108
:102AC0009703809134029091350266EB70E00E948A
:102AD0005927892B29F0F8018081882309F440C007
:102AE00088E00E9472098F7023EE3FEFF8E08F9F1D
:102AF000201931091124032E000C440B550B2B5ABD
:102B00003F4F4F4F5F4FA4E6B0E00E94D1252DE22A
:102B100030E040E050E00E94B2252536310514F047
:102B200024E630E037FF02C030E020E0D801119603
:102B30008D919C9112972817390771F012963C934A
:102B40002E9311973A832983AE014F5F5F4F65E261
:102B500070E08EEF0E94F30BF801808181111082EA
:102B6000809134029091350201968036FAEE9F07EB
:102B700028F49093350280933402EECC1092350203
:102B800010923402E9CC60E177E280E090E00E94AC
:102B90009010E2CCCF938091C10281FD28C00E94A9
:102BA000960D8CE593E09F938F930E948C09809102
:102BB000C10281608093C1020F900F90C4E02AE1AE
:102BC00043E050E06FEF80E00E94950362E00E94D6
:102BD000EB050E94040B8BE10E944310811102C09F
:102BE000C15069F78091C10282608093C102CF9188
:102BF00008950F931F930E940B06209143022077A4
:102C00002037B9F000E117E220E030E0061717079F
:102C10002807390798F488EB92E09F938F930E94DE
:102C20008C090F900F9089E291E01F910F910C9405
:102C30001E0600E61AEE20E030E0E8CF1F910F916B
:102C4000089580914302982F9077903759F0982FEC
:102C500092959F709F5F97709295907F8F78892B48
:102C60008093430280914302829587701F928F93D5
:102C700087EA92E09F938F930E948C098091420291
:102C80008B7F8F7E8093420289E992E09F938F939E
:102C90000E948C098CE892E09F938F930E948C098C
:102CA00029988DB79EB708960FB6F8949EBF0FBEB1
:102CB0008DBF6CE080E20C945409809143028F70C8
:102CC000863068F081E792E09F938F930E948C0991
:102CD00080914302807F809343020F900F9008956C
:102CE0008091F7021F928F938091F6021F928F932B
:102CF0008091F5021F928F9382E592E09F938F93CC
:102D00000E948C09809142028460809342028091EB
:102D10004302807880934302E0913602F0913702BB
:102D20008DB79EB708960FB6F8949EBF0FBE8DBFA5
:102D3000309709F009940895809144028F3F81F102
:102D40000E94890560933E0270933F028093400287
:102D50009093410286E492E09F938F930E948C09A6
:102D6000909144028091F7020F900F909817A1F074
:102D70001F929F931F928F938EE292E09F938F9367
:102D80000E948C09809144028093F7020F900F906B
:102D90000F900F900F900F9084E291E00C941E061C
:102DA0000E940B06613D774081059105B8F0809146
:102DB0004202803618F480E291E0F0CF8FE192E099
:102DC0009F938F930E948C0980914202877F80930A
:102DD00042020F900F908CE191E0E0CF089586E1E0
:102DE00092E09F938F930E948C098FEF809344020F
:102DF000E2E4F2E080818860808328E143E050E0F3
:102E00006FEF80E00E94950361E00E94EB050F9058
:102E10000F900C94AC0A8091F5028F3F61F08BE02B
:102E200092E09F938F930E948C090F900F9080E205
:102E300091E00C941E060E940B06613D77408105CF
:102E4000910590F080914202803618F488E191E07B
:102E5000F0CF8DEF91E09F938F930E948C090F909C
:102E60000F9084E191E0E5CF089585EF91E09F9385
:102E70008F930E948C090F900F908091F5028F3FE5
:102E8000A9F489EE91E09F938F930E948C0923E02F
:102E900043E050E06FEF80E00E94950366E671E04A
:102EA0000E9461070F900F900C94AC0A0895CF9385
:102EB000DF938FED91E09F938F930E948C09C2E482
:102EC000D2E088818B7F8D7F88831F921F928CEC4C
:102ED00091E09F938F930E948C0988818E7F8883D5
:102EE000E5EFF2E081E0828311820F900F900F9066
:102EF0000F900F900F9060E081E090E0DF91CF9114
:102F00000C94A025CF93219A229A29982A9ACFB778
:102F1000F89480913202811124C0E5E2F6E08491B8
:102F2000E9E3F6E09491E82FF0E0EE0FFF1FEF5E8B
:102F3000F94FA591B491EC91E92321F461E08AE085
:102F40000E94CD048AE00E9476038CB580618CBD1E
:102F50008CB580648CBD8DE00E9476038BE00E946E
:102F60007603809132028F5F80933202CFBF29981F
:102F70006EE080E20E94540984E293E20197F1F747
:102F800063E083E20E9454096FE584E20E945409E1
:102F90006CE485E20E94540965E286E20E945409CD
:102FA00064E08DE30E9454098DE10E94720984302F
:102FB00041F063E780E50E94540964E08DE30E94DC
:102FC00054090E94780981110DC08CE691E09F930D
:102FD0008F930E948C090F900F9084E191E0CF9124
:102FE0000C941E0662E082E20E94540960E081E2D5
:102FF0000E94540963E08CE30E9454098FEF809390
:103000000E0120E045E06EE071E08BE20E941509C0
:1030100020E045E06EE071E08AE20E94150920E0C0
:1030200045E06EE071E080E30E94150982EE0E94A7
:10303000860981EE0E94860960E787E20E945409B2
:103040008BEB91E09F938F930E948C0980914202B9
:103050008061809342028091F8028E7F8093F80213
:103060001F92C6E1CF9387EA91E09F938F930E94CE
:103070008C09C093F50266E190E080E00E94A025F3
:10308000C091F5020F900F900F900F900F900F903E
:10309000CF3F09F18FEF8C0F8E3F00F5C0931301E6
:1030A00063E082E20E94540961E081E20E945409D7
:1030B0000E9465096C2F90E080E00E94A0251F927D
:1030C000CF9380E891E09F938F930E948C090F909B
:1030D0000F900F900F908CE191E081CF1F921F9283
:1030E00082E991E09F938F930E948C090F900F903B
:1030F0000F900F9072CF82E691E09F938F930E9482
:103100008C09E2E4F2E08081877F8F7E80831092D9
:103110003E0210923F0210924002109241020F9024
:103120000F9044E050E070E060E085EF92E00C9496
:103130007825EF92FF920F931F93CF93DF93CDB734
:10314000DEB780E091E00E94AF1D8C019395F801FD
:1031500011928E179F07E1F79E01255F3F4F49852A
:103160005A856FEF70E0C8010E949D277801F70132
:1031700061917F01662329F089EF92E00E943B0470
:10318000F6CF0115110519F0C8010E944B1EDF9101
:10319000CF911F910F91FF90EF900895DF92EF92E2
:1031A000FF920F931F93CF93DF93CDB7DEB7C75432
:1031B000D1090FB6F894DEBF0FBECDBF0E944E03FB
:1031C00027E4EBEEF1E0CE010196DC0101900D92D7
:1031D0002A95E1F71F9222E02F931F922F9327E960
:1031E00031E03F932F9323E831E03F932F9320ED7D
:1031F00031E03F932F9326ED31E03F932F932FED56
:1032000031E03F932F939F938F930E94991889EFFA
:1032100092E00E94A30490919C0380919D03DFB6ED
:10322000F894092F182F780122E1E20EF11C0FB655
:10323000F894DEBF0FBECDBFF801838190E08356C6
:103240009E4F0E948825F8018583178291E08111A5
:1032500001C090E0F8019683811165C090E080E0A4
:10326000F801918780871386128684810E947603F5
:10327000F80184818550823020F485B5887F826092
:1032800085BD075F1F4FE016F106B1F6DFBE009166
:103290009E0310919F03FFB6F894F801838190E09C
:1032A00083569E4F0E948825F801858391E0811105
:1032B00001C090E0F801968384810E947603F801B2
:1032C000878190E083569E4F0E948825F801818770
:1032D00091E0811101C090E0F801928780850E9401
:1032E0007603FFBE83E080933101F12CE12C10E0E6
:1032F00000E00E9489056838734181059105B0F4AA
:1033000064E670E080E090E00E9490108FE00E9400
:103310001905081719072CF08E159F050CF47C0170
:10332000C8018C01E6CF84E690E09ACF0E191F0900
:103330000F311105ECF4109309010093080187E99E
:1033400092E00E94882591E0811101C090E0909365
:103350000301C95BDF4F0FB6F894DEBF0FBECDBFD0
:10336000DF91CF911F910F91FF90EF90DF90089523
:103370001092090110920801E2CF1F920F920FB62E
:103380000F9211242F933F934F935F936F937F93EB
:103390008F939F93AF93BF93EF93FF9389EF92E047
:1033A0000E941904FF91EF91BF91AF919F918F916E
:1033B0007F916F915F914F913F912F910F900FBE31
:1033C0000F901F9018951F920F920FB60F92112415
:1033D0002F938F939F93EF93FF93E0910903F091C5
:1033E0000A038081E0910F03F091100382FD1BC05E
:1033F0009081809112038F5F8F7320911303821746
:1034000041F0E0911203F0E0E750FD4F958F80937B
:103410001203FF91EF919F918F912F910F900FBE0B
:103420000F901F9018958081F4CF1F920F920FB6C6
:103430000F9211242F933F938F939F93AF93BF933A
:103440008091B7029091B802A091B902B091BA02EE
:103450003091B60226E0230F2D3758F50296A11DB4
:10346000B11D2093B6028093B7029093B802A09347
:10347000B902B093BA028091BB029091BC02A091B4
:10348000BD02B091BE020196A11DB11D8093BB0289
:103490009093BC02A093BD02B093BE02BF91AF91C6
:1034A0009F918F913F912F910F900FBE0F901F9082
:1034B000189529E8230F0396A11DB11DD2CF1F92A5
:1034C0000F920FB60F9211242F933F934F935F9358
:1034D0006F937F938F939F93AF93BF93EF93FF93DC
:1034E000E0912F01F09130010995FF91EF91BF918B
:1034F000AF919F918F917F916F915F914F913F918C
:103500002F910F900FBE0F901F9018951F920F9242
:103510000FB60F9211242F933F934F935F936F93A6
:103520007F938F939F93AF93BF93EF93FF93E0911C
:103530002D01F0912E010995FF91EF91BF91AF916F
:103540009F918F917F916F915F914F913F912F91BB
:103550000F900FBE0F901F9018951F920F920FB6ED
:103560000F9211242F933F934F935F936F937F9309
:103570008F939F93AF93BF93EF93FF938091B90085
:10358000887F803609F44AC0F0F5883209F4A5C076
:1035900018F5803109F499C0B8F4882309F4F5C00E
:1035A000883009F492C0FF91EF91BF91AF919F9144
:1035B0008F917F916F915F914F913F912F910F90DC
:1035C0000FBE0F901F901895883109F486C0803285
:1035D00051F780938F0214C0803409F49BC040F4EB
:1035E0008033B9F38833F9F680938F0285ECAEC04F
:1035F000803509F483C0883509F494C0883499F67D
:103600000E949707D0CF883909F48AC038F58837E7
:1036100029F050F4883611F0803729F683E0809342
:10362000900210928E0255C0883809F479C0803912
:1036300019F0803809F0B7CF80918E02803208F0FF
:103640006FC0E0918E0281E08E0F80938E02809198
:10365000BB00F0E0E259FD4F80833BC0803B39F076
:10366000D0F4803A09F477C0883A09F09CCF84E01E
:103670008093900210926D0210926C02F0E0E0E0F4
:10368000099580916C0281110FC081E080936C02DA
:1036900010924C0209C0803C09F4A8CF883C09F480
:1036A000A5CF883B09F07FCFE0916D0281E08E0FBE
:1036B00080936D02F0E0E45BFD4F80818093BB005E
:1036C00090916D0280916C0229C08091B502809327
:1036D000BB0085EC8093BC0066CF9091B4028091D2
:1036E000B302981758F5E091B40281E08E0F8093F1
:1036F000B402F0E0ED56FD4F8081E9CFE091B402D5
:1037000081E08E0F8093B4028091BB00F0E0ED5613
:10371000FD4F80839091B4028091B3029817C8F254
:1037200085E8D8CFE091B40281E08E0F8093B40297
:103730008091BB00F0E0ED56FD4F808380919202B6
:1037400081115ECF81E08093910284EA8093BC0076
:103750001092900228CF85EC8093BC0010929002CA
:1037600080918E02803230F4E0918E02F0E0E259D6
:10377000FD4F108260918E0270E08EE692E0F0E0E4
:10378000E0E0099510928E020ECF10928F0238CF92
:103790001F920F920FB60F9211240F900FBE0F9031
:1037A0001F9018950F931F93CF93E9EFF2E01382C8
:1037B000128288EE93E0A0E0B0E084839583A68334
:1037C000B78386E591E09183808385EC90E09587CF
:1037D000848784EC90E09787868780EC90E0918BDB
:1037E000808B81EC90E0938B828B82EC90E0958BC8
:1037F000848B86EC90E0978B868B118E128E138EC5
:10380000148E81EC93E00E94000980EA93E00E940C
:1038100000098BE090E00E94AF1DC1E0FC01C08375
:1038200028E0E8E3F1E0DC01139601900D922A957F
:10383000E1F703E011E0FC01128301832FB7F89454
:1038400090939F0380939E032FBF85E190E00E9499
:10385000AF1DFC01C08322E1E0E4F1E0DC0113963E
:1038600001900D922A95E1F7FC01128301832FB795
:10387000F89490939D0380939C032FBF82E090E087
:103880000E94AF1DFC011182C0832FB7F894909362
:103890009B0380939A032FBF82E090E00E94AF1DAC
:1038A000FC011182C0832FB7F89490939903809301
:1038B00098032FBF83E090E00E94AF1DFC011282AD
:1038C0001182C0832FB7F894909397038093960347
:1038D0002FBFCF911F910F910895789484B5826086
:1038E00084BD84B5816084BD85B5826085BD85B5A4
:1038F000816085BD80916E00816080936E00109222
:10390000810080918100826080938100809181009C
:10391000816080938100809180008160809380002D
:103920008091B10084608093B1008091B00081608B
:103930008093B00080917A00846080937A008091B7
:103940007A00826080937A0080917A008E7F8093E3
:103950007A0080917A00806880937A001092C1008A
:10396000A89580E090E0892B11F00E9400000E9451
:103970004E03C0E1D0E0F12CFE01F595E795E3534D
:10398000FC4FE491C0FF9EC0EF70E83008F09FC08C
:10399000F0E0E353FC4FF4906F2D89EF92E00E942A
:1039A0003B042196C23FD10539F786EC93E00E9493
:1039B000FD061F928FEF8F931F9288E08F9388E808
:1039C00094E09F938F930E948C098091C1028D7F18
:1039D0008093C1028BE794E09F938F930E948C09A0
:1039E0000E94CE1841E050E063E071E080EC92E08C
:1039F0000E94782560E081E090E00E94A0258091FF
:103A000043028F7880934302109239021092380259
:103A100089E291E00E941E068AEC95E190933702BC
:103A2000809336021F921F921F921F9286E494E0A9
:103A30009F938F930E948C090E9489058DB79EB732
:103A40000E960FB6F8949EBF0FBE8DBF0E948905DB
:103A50000E9400068091420284FD36C0809142029D
:103A600082FB882780F9A895882381F38EE694E06D
:103A70009F938F930E948C09909142020F900F9018
:103A800092FB882780F992FD0E9478091F928F93FC
:103A900086E594E09F938F930E948C09A8950F90E0
:103AA0000F900F900F90C0E0D0E00E9420100E9475
:103AB00071122097D1F30E940F048823B1F30E9462
:103AC0000000F3CFE29560CF0E94CD0DC7CF1BEF72
:103AD0001E0F00E06F2D89EF92E00E943B040F5F04
:103AE0000117C0F35ECF80919603909197030E94D7
:103AF0004B1E80919803909199030E944B1E8091D8
:103B00009A0390919B030E944B1E80919C0390917D
:103B10009D030E944B1E80919E0390919F030C94E5
:103B20004B1EEF920F931F93CF93DF93E80134E086
:103B300047FD34E1042E000C550B57FF03C051958F
:103B400041955109E32E022F242FAE010E949221AC
:103B5000CE01DF91CF911F910F91EF9008950F93B8
:103B60001F93CF93DF938230910510F482E090E0B1
:103B7000E091E403F091E50330E020E0B0E0A0E064
:103B8000309799F42115310509F44AC0281B390BE7
:103B900024303105D8F58A819B816115710589F141
:103BA000FB0193838283FE0111C040815181028118
:103BB000138148175907E0F04817590799F41097EF
:103BC00061F012960C93129713961C933296CF01C4
:103BD000DF91CF911F910F9108950093E40310930B
:103BE000E503F4CF2115310551F04217530738F0A2
:103BF000A901DB019A01BD01DF01F801C1CFEF018D
:103C0000F9CF9093E5038093E403CDCFFE01E20F5B
:103C1000F31F819391932250310939832883D7CFA1
:103C20002091E2033091E303232B41F420913401EE
:103C3000309135013093E3032093E2032091320168
:103C4000309133012115310541F42DB73EB7409134
:103C5000360150913701241B350BE091E203F091BE
:103C6000E303E217F307A0F42E1B3F0B28173907D5
:103C700078F0AC014E5F5F4F2417350748F04E0FC8
:103C80005F1F5093E3034093E203819391939FCF8F
:103C9000F0E0E0E09CCFCF93DF930097E9F0FC01E8
:103CA000329713821282A091E403B091E503ED01F3
:103CB00030E020E01097A1F420813181820F931F22
:103CC0002091E2033091E3032817390709F061C01E
:103CD000F093E303E093E203DF91CF910895EA01CB
:103CE000CE17DF07E8F54A815B819E01411551053A
:103CF000B1F7E901FB83EA8349915991C40FD51FBC
:103D0000EC17FD0761F4808191810296840F951F65
:103D1000E90199838883828193819B838A83F0E080
:103D2000E0E012968D919C9113970097B9F52D9133
:103D30003C911197CD010296820F931F2091E203CF
:103D40003091E3032817390739F6309751F510926F
:103D5000E5031092E403B093E303A093E203BCCF26
:103D6000D383C28340815181840F951FC817D9071F
:103D700061F44E5F5F4F88819981480F591F5183CD
:103D800040838A819B81938382832115310509F0C9
:103D9000B0CFF093E503E093E4039ECFFD01DC0197
:103DA000C0CF13821282D7CFFC0188279927E894CD
:103DB00021912032E9F3293010F02E30C8F32B3254
:103DC00041F02D3239F4689404C00E94481F820FDC
:103DD000911D219120532A30C0F31EF490958195B6
:103DE0009F4F08951F93FC0199278827BC01E894F1
:103DF00011911032E9F3193010F01E30C8F31B3264
:103E000051F01D3249F4689406C00E94331F610FBF
:103E1000711D811D911D119110531A30B0F33EF4A4
:103E200090958095709561957F4F8F4F9F4F1F9113
:103E30000895BB274A3031F4992322F4BDE29095CE
:103E400081959F4F0C94731FBB272A3051F49923FF
:103E500042F4BDE290958095709561957F4F8F4FAC
:103E60009F4F0C94511F592F482F372F262F660F25
:103E7000771F881F991F660F771F881F991F620F72
:103E8000731F841F951F660F771F881F991F089542
:103E90007AE0979F902D879F802D910D1124089592
:103EA000BB27FA01A62F6217710581059105330B17
:103EB00030FB66F0AA27660F771F881F991FAA1F7D
:103EC000A21710F0A21B63953850A9F7A05DAA3382
:103ED00008F0A95DA19336F7B111B1931082CA0120
:103EE0000C94DF23BB27FB015527AA27880F991FB6
:103EF000AA1FA41710F0A41B83955051B9F7A05D19
:103F0000AA3308F0A95DA193009779F7B111B19395
:103F10001192CB010C94DF23AEE0B0E0E2E9FFE1C7
:103F20000C94EA258C01FA018EE08C831A830983B4
:103F300077FF02C060E070E8615071097E836D8395
:103F4000A901BF01CE0101960E94B81F4D815E817B
:103F500057FD0AC02F813885421753070CF49A0188
:103F6000020F131FF80110822E96E4E00C9406262F
:103F7000ABE0B0E0EEEBFFE10C94DC257C013B0113
:103F80008A01FC0117821682838181FFC8C1CE019C
:103F900001965C01F7019381F30193FD859193FFF5
:103FA00081913F01882309F453C1853239F493FD8F
:103FB000859193FF81913F01853229F4B70190E00B
:103FC0000E94EF23E7CF912C212C312CFFE1F31538
:103FD00038F08B3211F190F4803209F1833229F1FB
:103FE00037FC3CC020ED280F2A3050F536FE20C0AB
:103FF0008AE0989E200D1124922E06C08D3291F0F9
:10400000803371F7689430F8F30193FD859193FF45
:1040100081913F018111DACF21C0689431F8689411
:1040200032F8F2CF689433F8EFCF689434F8ECCFDD
:10403000EAE02E9E200D1124222E689435F8E4CF5C
:104040008E3229F436FC04C1689436F8DDCF8C3604
:1040500019F4689437F8D8CF8836B1F2982F9F7D3D
:1040600095549330E0F08336A1F18337C1F1833565
:1040700009F063C02801F2E04F0E511CF801C08026
:10408000D180692D70E036FC02C06FEF7FEFC60172
:104090000E94C9234C01689437F882010AC00C5F62
:1040A0001F4FFFE3F98388248394912C6501E894E2
:1040B00037F833FE2DC0522C8114910471F5552030
:1040C00009F468CFB70180E290E00E94EF235A9490
:1040D000F6CFF801808189830E5F1F4FE4CF28015E
:1040E000F2E04F0E511CF801C080D180692D70E0C4
:1040F00036FC02C06FEF7FEFC6010E94D4234C0153
:104100008201D5CFB70180E290E00E94EF232A948C
:104110002814190409F0B0F7CECFF60137FC8591C9
:1041200037FE81916F01B70190E00E94EF2351109B
:104130005A94F1E08F1A9108BFCF843619F089366E
:1041400009F077C0F80137FE6BC060817181828110
:1041500093810C5F1F4FF32DFF763F2E97FF09C011
:1041600090958095709561957F4F8F4F9F4F689484
:1041700037F82AE030E0A5010E941F24C82ECA1893
:104180008C2C432C36FE0CC0E89440F8C91440F443
:1041900034FE05C032FC03C0F32DFE7E4F2E892C69
:1041A00044FE95C0FE01EC0DF11D8081803309F0C5
:1041B00087C0242D297E422E842D8870582E43FCE2
:1041C00095C040FE8FC09C2C821418F42C0C922CAD
:1041D000981844FE91C0B70180E390E00E94EF235D
:1041E00042FE09C088E790E041FE02C088E590E009
:1041F000B7010E94EF23C91408F48AC0CA94D12CD5
:104200009FEFC91AD90ACA0CDB1CF60182916F0113
:10421000B70190E00E94EF23AC14BD04B1F74FCF7B
:1042200060817181072E000C880B990B0E5F1F4F68
:1042300092CFD32CE894D4F82AE030E0853739F1D6
:10424000232D297FD22E8F3601F148F48835A9F02D
:10425000F701868197812B96E2E10C94F82580374F
:1042600049F08837A9F7D4FE02C06894D2F820E15B
:1042700030E00DC06894D4F8F6CF34FE03C0822F2E
:104280008660D82E20E132E002C028E030E0F8015C
:10429000D7FE0FC060817181828193810C5F1F4FB7
:1042A000A5010E941F24C82ECA183D2CE89437F897
:1042B00067CF6081718190E080E00E5F1F4FF0CF8B
:1042C00042FC02C0839478CF8394839475CF842D6D
:1042D000867809F471CFF6CFB70180E290E00E94B2
:1042E000EF2383948214C0F3512C73CF522C5818AF
:1042F000821408F46ECFF8CF842D867809F47BCF32
:104300008BE241FE80E247FC8DE2B70190E071CF85
:10431000B70180E390E00E94EF239A946CCF8FEF77
:104320009FEF99CFA9E0B0E0E8E9F1E20C94E22533
:104330006A01F22EB02E102FFBE3AF2EA01608F468
:104340001BE31F5F012F27E0AE014F5F5F4F0E940D
:10435000F122BC018981982F9970913009F43FC0F6
:104360009BE2E1FC04C09E2D9170E0FC3AC05E2D02
:104370005071E82FE87083FF46C084E0911101C0BE
:1043800083E0EF2DE81B8F1508F0E0E0D6018E2FBB
:1043900020E2552351F1992329F0D6019C93C601BF
:1043A00001966C0196012D5F3F4FE2FE24C08EE422
:1043B000D6018C9391E411969C93119712968C934D
:1043C000D9018E2F90E281111BC0E20FF32FF11D56
:1043D00010828EEF9FEF2996ECE00C94FE259DE273
:1043E000C6CF90E2C4CF2D9381508111FCCFCE0E69
:1043F000D11CE0E0D0CF8EE6D6018C9391E6DBCFE6
:104400009D938150E0CF482F447082FF3DC084E0EF
:10441000911101C083E08F1510F4EF2DE81BD60138
:104420008E2F20E2552309F1992329F0D6019C9380
:10443000C60101966C0196012D5F3F4FE2FE1BC045
:1044400089E4D6018C938EE411968C93119786E4BF
:1044500012968C93D9018E2F90E2882309F4B5CF60
:104460009D938150FACF2D9381508111FCCFCE0EB8
:10447000D11CE0E0D9CF89E6D6018C938EE6119667
:104480008C93119786E6E4CF9B0177FF02C030E062
:1044900020E0A1E0B0E0911102C0B0E0A0E0F9019D
:1044A0003196AE0FBF1F8B2C912CBB2009F461C03D
:1044B0005401EFEFAE1ABE0AAA0DBB1DFA161B0679
:1044C00019F014F04F2D4A1B511188C0E3FC59C05C
:1044D0007601A42FB0E2A1114FC0C40ED11C9923C4
:1044E00009F45BC040E0D6011196F60190836D019E
:1044F000552309F448C0012F060F9A81582F507197
:1045000084FF03C0913309F4015010160CF047C02A
:10451000093008F008E0EEE2FE2E5B01A01AB108B7
:1045200085019194819491082F3F320729F4D60197
:10453000FC92F60131966F016217730794F102172E
:1045400013077CF5DB01A21BB30BAA24A394B12CA7
:10455000AC0EBD1EAA0DBB1D11968C9121503109C8
:10456000D601119628153905F4F0F60180836D0106
:10457000DBCFB12CA12CA0CFF701B1937F01A150CB
:10458000AACF9111B0CFD601942F50E302C05D9312
:1045900091509111FCCFC40ED11C40E0ACCF01E092
:1045A000BACF80E3DBCF6217730731F4963388F418
:1045B000953311F4552369F0F6018083FD01842FB2
:1045C00090E2811108C0A40FB11D1C9290E080E020
:1045D00002CF81E3F1CF91938150F3CF911183CF3B
:1045E0008ACF283008F027E03327DA01990F311DF0
:1045F00087FD916000966105710539F432602E5F88
:104600003D9330E32A95E1F708959F3F30F08038DD
:104610007105610509F03C5F3C5F3D93913008F006
:104620008068911DDF93CF931F930F93FF92EF92BA
:10463000192F987F9695E92F96959695E90FFF2764
:10464000EE53FF4F99273327EE24FF24A701E701FC
:1046500005900894079428F4360FE71EF81E491FAA
:10466000511D660F771F881F991F0694A1F70590AB
:10467000079428F4E70EF81E491F561FC11D770F37
:10468000881F991F661F0694A1F70590079428F4C8
:10469000F80E491F561FC71FD11D880F991F661F8F
:1046A000771F0694A1F70590079420F4490F561F31
:1046B000C71FD81F990F661F771F881F0694A9F779
:1046C00084911095177041F0D695C79557954795E9
:1046D000F794E7941A95C1F7E8E6F0E0689415902E
:1046E000159135916591959105907FE27395E1184B
:1046F000F10A430B560BC90BD009C0F7E10CF11EB0
:10470000431F561FC91FD01D7EF4703311F48A95C4
:10471000E6CFE894015030F0080F0AF400270217A2
:1047200008F4202F2395022F7A3328F079E37D9324
:104730002A95E9F710C07D932A9589F606949795F6
:104740006795379517951794E118F10A430B560BA7
:10475000C90BD00998F023957E9173957A3308F0B0
:1047600070E37C932013B8F77E9170617D9330F0F5
:10477000839571E37D9370E32A95E1F71124EF901F
:10478000FF900F911F91CF91DF91992787FD909511
:104790000895FC010590615070400110D8F7809594
:1047A00090958E0F9F1F0895FC01615070400190FD
:1047B0000110D8F7809590958E0F9F1F0895DC010A
:1047C000FC01672F71917723E1F7329704C07C9148
:1047D0006D9370836291AE17BF07C8F308950F936E
:1047E0001F93CF93DF93182F092FEB018B8181FD4E
:1047F00009C01FEF0FEF812F902FDF91CF911F91F5
:104800000F91089582FF14C02E813F818C819D817C
:10481000281739073CF4E881F981CF010196998383
:10482000888310838E819F8101969F838E83E3CF3F
:10483000E885F985812F0995892BA1F3DACFFA0153
:10484000AA27283051F1203181F1E8946F936E7FCF
:104850006E5F7F4F8F4F9F4FAF4FB1E03ED0B4E0C0
:104860003CD0670F781F891F9A1FA11D680F791F01
:104870008A1F911DA11D6A0F711D811D911DA11D12
:1048800020D009F468943F912AE0269F1124301922
:10489000305D3193DEF6CF010895462F4770405DBD
:1048A0004193B3E00FD0C9F7F6CF462F4F70405D6C
:1048B0004A3318F0495D31FD4052419302D0A9F7C7
:1048C000EACFB4E0A6959795879577956795BA95C1
:1048D000C9F700976105710508959B01AC010A2E87
:1048E00006945795479537952795BA95C9F7620F5E
:1048F000731F841F951FA01D0895E89409C097FB9E
:104900003EF490958095709561957F4F8F4F9F4FA6
:104910009923A9F0F92F96E9BB279395F6958795EA
:1049200077956795B795F111F8CFFAF4BB0F11F4AD
:1049300060FF1BC06F5F7F4F8F4F9F4F16C0882354
:1049400011F096E911C0772321F09EE8872F762F8A
:1049500005C0662371F096E8862F70E060E02AF0CB
:104960009A95660F771F881FDAF7880F96958795B7
:1049700097F908950E94CD240C943E250E9430257D
:1049800038F00E94372520F0952311F00C9427254C
:104990000C942D2511240C9472250E944F2570F340
:1049A000959FC1F3950F50E0551F629FF001729FD4
:1049B000BB27F00DB11D639FAA27F00DB11DAA1FE3
:1049C000649F6627B00DA11D661F829F2227B00D30
:1049D000A11D621F739FB00DA11D621F839FA00DBB
:1049E000611D221F749F3327A00D611D231F849F0B
:1049F000600D211D822F762F6A2F11249F57504062
:104A00009AF0F1F088234AF0EE0FFF1FBB1F661FDC
:104A1000771F881F91505040A9F79E3F510580F0A5
:104A20000C9427250C9472255F3FE4F3983ED4F351
:104A3000869577956795B795F795E7959F5FC1F749
:104A4000FE2B880F911D9695879597F9089597F9F4
:104A50009F6780E870E060E008959FEF80EC089524
:104A600000240A941616170618060906089500244D
:104A70000A9412161306140605060895092E0394C7
:104A8000000C11F4882352F0BB0F40F4BF2B11F43B
:104A900060FF04C06F5F7F4F8F4F9F4F089557FD9A
:104AA0009058440F551F59F05F3F71F04795880F9C
:104AB00097FB991F61F09F3F79F087950895121633
:104AC00013061406551FF2CF4695F1DF08C01616DF
:104AD00017061806991FF1CF869571056105089490
:104AE0000895E894BB2766277727CB0197F90895A7
:104AF000DC01CB01FC01F999FECF06C0F2BDE1BD9E
:104B0000F89A319600B40D9241505040B8F708958C
:104B1000F999FECF92BD81BDF89A992780B5089585
:104B2000DC01A40FB51F4150504048F0CB01840F69
:104B3000951F2E910E94A12541505040D0F7089515
:104B4000262FF999FECF92BD81BDF89A019700B446
:104B5000021639F01FBA20BD0FB6F894FA9AF99AE6
:104B60000FBE0895052E97FB1EF400940E94C925E0
:104B700057FD07D00E94132607FC03D04EF40C9477
:104B8000C92550954095309521953F4F4F4F5F4F28
:104B9000089590958095709561957F4F8F4F9F4FA9
:104BA00008950E943526A59F900DB49F900DA49F57
:104BB000800D911D112408952F923F924F925F9284
:104BC0006F927F928F929F92AF92BF92CF92DF921D
:104BD000EF92FF920F931F93CF93DF93CDB7DEB782
:104BE000CA1BDB0B0FB6F894DEBF0FBECDBF099416
:104BF0002A88398848885F846E847D848C849B846D
:104C0000AA84B984C884DF80EE80FD800C811B817A
:104C1000AA81B981CE0FD11D0FB6F894DEBF0FBEA9
:104C2000CDBFED010895A1E21A2EAA1BBB1BFD0109
:104C30000DC0AA1FBB1FEE1FFF1FA217B307E4077B
:104C4000F50720F0A21BB30BE40BF50B661F771FD3
:104C5000881F991F1A9469F76095709580959095B3
:104C60009B01AC01BD01CF010895A29FB001B39F8C
:104C7000C001A39F700D811D1124911DB29F700D65
:104C8000811D1124911D08955058BB27AA270E9409
:104C90005C260C943E250E94302538F00E94372572
:104CA00020F039F49F3F19F426F40C942D250EF4CE
:104CB000E095E7FB0C942725E92F0E944F2558F338
:104CC000BA17620773078407950720F079F4A6F5F1
:104CD0000C9471250EF4E0950B2EBA2FA02D0B012C
:104CE000B90190010C01CA01A0011124FF27591B31
:104CF00099F0593F50F4503E68F11A16F040A22F37
:104D0000232F342F4427585FF3CF469537952795A7
:104D1000A795F0405395C9F77EF41F16BA0B620BA6
:104D2000730B840BBAF09150A1F0FF0FBB1F661FED
:104D3000771F881FC2F70EC0BA0F621F731F841F30
:104D400048F4879577956795B795F7959E3F08F056
:104D5000B0CF9395880F08F09927EE0F9795879518
:104D600008950E94C5260C943E250E94372558F0D0
:104D70000E94302540F029F45F3F29F00C9427254C
:104D800051110C9472250C942D250E944F2568F327
:104D90009923B1F3552391F3951B550BBB27AA27F4
:104DA00062177307840738F09F5F5F4F220F331F2E
:104DB000441FAA1FA9F335D00E2E3AF0E0E832D0F6
:104DC00091505040E695001CCAF72BD0FE2F29D0F9
:104DD000660F771F881FBB1F261737074807AB07CB
:104DE000B0E809F0BB0B802DBF01FF2793585F4F40
:104DF0003AF09E3F510578F00C9427250C947225CB
:104E00005F3FE4F3983ED4F3869577956795B79521
:104E1000F7959F5FC9F7880F911D9695879597F92C
:104E20000895E1E0660F771F881FBB1F62177307A5
:104E30008407BA0720F0621B730B840BBA0BEE1FBA
:104E400088F7E09508950E942A276894B1110C9480
:104E5000722508950E94572588F09F5798F0B92F22
:104E60009927B751B0F0E1F0660F771F881F991F9F
:104E70001AF0BA95C9F714C0B13091F00E947125AB
:104E8000B1E008950C947125672F782F8827B85FBB
:104E900039F0B93FCCF3869577956795B395D9F7F7
:104EA0003EF490958095709561957F4F8F4F9F4F01
:104EB0000895AA1BBB1B51E107C0AA1FBB1FA61761
:104EC000B70710F0A61BB70B881F991F5A95A9F7B3
:104ED00080959095BC01CD01089597FB072E16F49F
:104EE000009407D077FD09D00E94592707FC05D010
:104EF0003EF4909581959F4F0895709561957F4FF1
:104F00000895EE0FFF1F0590F491E02D09940E9483
:104F10003526B7FF0895821B930B0895FB01DC0132
:104F20004150504048F001900D920020C9F701C057
:104F30001D9241505040E0F70895AEE0B0E0E3EA42
:104F4000F7E20C94EA258C01FA0186E08C831A833F
:104F5000098377FF02C060E070E8615071097E83C9
:104F60006D83A901BF01CE0101960E94B81F4D813A
:104F70005E8157FD0AC02F813885421753070CF414
:104F80009A01020F131FF80110822E96E4E00C9490
:104F9000062613E0C3E2D3E004C0FE010E9481278D
:104FA0002196C432D107C9F7F894FFCFFFFFFF0164
:104FB0000101000000000000000000FCE1A8A8FFC3
:104FC0002116F91535170B1757174A06EF169C16B9
:104FD00070165D16017B1882179505950501000076
:104FE000E603800000080000010700000305000040
:104FF00000000000000406000000000000000000A7
:1050000000003B04A503D203A3040304E103F5035A
:105010000D0A0020003C4E4F4E43453E004F4B00D2
:105020004E41434B003F002100322E332E3200739D
:10503000656E736F722D44696D6D65722D4C4544BC
:105040002D3100312E3200496E742E54656D700082
:1050500052656C61792E4C69676874730044696DA0
:105060006D65722E4C6967687473004175746F2E9C
:105070004C6967687473005253534900372E332EBE
:10508000300030303A34383A3030005365702032D6
:10509000332032303230002D2D204275696C643A55
:1050A000202573202D2025732C2025730A2D2D20DB
:1050B0004E616D653A205B25733A25735D0A2D2D8F
:1050C00020496E69743A2064696D6D6572733D257F
:0E50D000752C2072656C6579733D25750A009C
:1078000011E0A0E0B1E0E4EFFFE702C005900D92C7
:10781000A630B107D9F721E0A6E0B1E001C01D9282
:10782000AD34B207E1F7CDB7DEB72897DEBFCDBFE5
:10783000112484B78093270114BE88E180936000EF
:1078400089E280936000259A86E020E295B1922734
:1078500095B93FE748E351E0315040405040E1F7EF
:1078600000C00000815091F78091270181FD18C070
:107870008EE284B981E58CBD81E08DBD412C512C17
:10788000222423941CE3612E11E0712E33243394BF
:10789000CC24CA94DC2CAA24A39483E0B82E45C13E
:1078A00082E08093C00088E18093C10086E08093ED
:1078B000C20087E68093C40000E010E0C12CD12C08
:1078C000AA24AA94BA2CEE24E394A895EED181348C
:1078D00069F4EBD1F82E36D382E8F81629F091E856
:1078E000F91202C085E651C083E04FC0823411F422
:1078F00084E103C0853419F485E030D362C0853556
:1079000041F4D3D1082FD1D110E0182B000F111F53
:1079100057C0863521F484E021D380E036C0843618
:10792000E9F4C3D1C2D1882EC0D1C80CD11C912C8E
:10793000981488F4BAD1F82EB8D1F801E90DF11DE8
:107940002F2D30E0A901582B0A01E7BEE89511243C
:1079500093949394EDCFC801B4D132C0843769F4C5
:10796000A4D1A3D1F82EA1D1EDD2F80185918F0138
:10797000E2D2FA94F110F9CF25C0853741F4E2D272
:107980008EE1D9D285E9D7D28FE0D5D21AC0813520
:10799000B9F4BA82A982BC82AB82C601F4E09695A2
:1079A0008795FA95E1F79E838D83C6019CD19887D0
:1079B0008F83CE010196D9D2C5D2FF24F39402C0A1
:1079C000C1D2F12C80E1B7D2FF2009F47ECF50CF95
:1079D00043E050E060E070E089E291E0E9D248E005
:1079E00050E06BE171E0CE010196E2D229982A9A2B
:1079F00063E083E2D2D16CE485E2CFD167E286E234
:107A0000CCD163E780E5C9D164E08DE3C6D161E004
:107A100082E2C3D161E081E2C0D161E08CE3BDD1FB
:107A200021E041E060E070E086E08AD1873209F031
:107A300026C180912A01809328018FEF80932A012B
:107A400080932B018093080163E584E2A6D143E291
:107A50006AE087E069D161E08EEFBED11092080143
:107A60006FE584E29AD180912A018F3F09F407C122
:107A70008091290181508E3F08F05AC030920D014B
:107A800010920E0143EC62E18FE04ED160E08FE096
:107A9000A3D18D819E81E4E0880F991FEA95E1F7DB
:107AA00022D198878F8388E0FE013196ADE0B1E066
:107AB00001900D928A95E1F7B0921601A0921501FE
:107AC00044EC62E580E030D163E081E085D1882339
:107AD00009F4D5C048E050E063E371E0CE010196BF
:107AE0005AD2892B09F4CBC080913701909138018B
:107AF000009709F045C08091390190913A018A3789
:107B00009A4D09F041C08091330190913401813048
:107B1000910571F500E010E06FEFC80159D20F5FD9
:107B20001F4F011584E01807B9F7F999FECF50CF20
:107B300043E262E083E0F8D063E084E04DD1882343
:107B400009F496CF80912F01869586958695E3E37B
:107B5000F1E060E0815048F02191660F962F990F77
:107B6000990F690F6053620FF5CF80E090E006C077
:107B7000029782309105C8F66091350129D2D5CFA0
:107B80008038974008F07BC088E0E3E3F1E0DE0155
:107B9000119601900D928A95E1F7EF80F884D886CE
:107BA000CF82CE010196E1D18D809E8089819A811C
:107BB00090930E0180930D018B819C819093100115
:107BC00080930F0184010150110910931201009359
:107BD000110144EC62E382E0A7D063E083E0FCD0D3
:107BE000882309F44BCF46E050E063E371E08DE079
:107BF00091E0D1D1892BD1F6C4018150904F682FEB
:107C000062956077ACE2B1E0462F50E04C525140B3
:107C1000FA01EA0FFB1F1E962C911E9730E0322FBF
:107C200022271D967C911D97272B090127BEE895D9
:107C3000112412966A167B0659F7611106C044E0BA
:107C4000880F991F4A95E1F73CD00115110511F0F5
:107C50004801ACCFF886EF828D819E8134E0880F99
:107C6000991F3A95E1F73FD0E816F90621F01E82F8
:107C70001D8218861F82CE01019677D156CF8D8145
:107C80009E8124E0880F991F2A95E1F72CD02F813F
:107C900038858217930709F048CF1CBCA8958091BE
:107CA0002701282EF201099540CF8091C00087FF5F
:107CB000FCCF8091C00084FD01C0A8958091C600D2
:107CC000089523E0FC0127BFE89507B600FCFDCF2F
:107CD00025E0FC0127BFE89507B600FCFDCF81E158
:107CE00087BFE8950895BC01E0E0F0E08FEF9FEFDB
:107CF000E617F707C0F4E11528E7F207A0F425918D
:107D0000822748E0DC01B695A7959C0121703327B6
:107D10003195219531092170307ACD018227932741
:107D2000415081F7E5CF089590912901E6E0F1E017
:107D3000918390839FEF9683858344836383089523
:107D40002A989AE19A95F1F700C08EBD0DB407FE0E
:107D5000FDCF8EB59FEF4150D0F0222369F09EBD3C
:107D60000DB407FEFDCF8EB561157105A1F3DB01E2
:107D70008C936F5F7F4FEFCFFB013196DB018C91CE
:107D80008EBD0DB407FEFDCF8EB5BF01E4CF2A9A9C
:107D9000BAE1BA95F1F700C00895CF93DF931F922F
:107DA000CDB7DEB7698320E041E0BE016F5F7F4F52
:107DB000C7DF0F90DF91CF91089520E040E060E0B1
:107DC00070E082EEBDDF20E040E060E070E081EE38
:107DD000B7DF60E787E2E1CFFF920F931F93CF9366
:107DE000DF93082FF62EC0910901C695C695C6955A
:107DF000C95FD0912A0129986EE080E2CEDFD0934E
:107E0000000120E045E060E071E08AE299DF20E0D7
:107E100045E060E071E080E393DF20E04C2F66E016
:107E200071E080EA8DDF299A8AE08A95F1F700C037
:107E300020E040E060E070E08FEF82DF8073C1F30C
:107E40002998BBDF6FE080E2A8DF609129018AE218
:107E5000A4DF299ACFEFDFEFA89521E041E060E0B1
:107E600070E087E16DDF80FF02C09FEF4BC021E033
:107E700041E060E070E080E663DF182F813208F0B7
:107E800010E021E0412F6CE271E081E659DF95DFDF
:107E9000812F90E020912F0126952695269530E0A0
:107EA000295F3F4F8217930701F790912E01809130
:107EB00029019813DACF90913101809130018770B8
:107EC000833001F59830F1F420912A018091280146
:107ED000281302C08F3FB1F420912D01821304C0FA
:107EE00080932A019EEF0EC03091330181E0830F11
:107EF0008093330140912B01341720F480932B01A0
:107F000020932A0188E08A95F1F7219719F4F1105E
:107F100008C002C00913A0CF81E0091731F080E04A
:107F200004C0FA9409135FCFF7CFDF91CF911F916F
:107F30000F91FF9008959091C00095FFFCCF809322
:107F4000C6000895B2DE803239F088E18093600087
:107F500088E080936000FFCF84E1EDCFCF93C82FFE
:107F6000A4DEC150E9F7CF91EDCF0F931F93CF93CC
:107F7000DF938C01CBE1D1E0F80161918F01CE015B
:107F800027D02196C332F1E0DF07B1F7DF91CF911F
:107F90001F910F910895FB01DC0104C08D910190A8
:107FA000801921F441505040C8F7881B990B08955F
:107FB000DC01CB01FC01F999FECF06C0F2BDE1BDA9
:107FC000F89A319600B40D9241505040B8F7089598
:107FD000262FF999FECF92BD81BDF89A019700B482
:107FE000021639F01FBA20BD0FB6F894FA9AF99A22
:0A7FF0000FBE089500FCE1A8A800F0
:00000001FF
