:100000000C945E000C948D110C9466110C94860077
:100010000C9486000C9486000C94CF120C948600ED
:100020000C9486000C9486000C9486000C94860038
:100030000C9486000C9486000C9486000C94860028
:100040000C941C110C9486000C9486000C94860071
:100050000C9486000C9486000C9486000C94860008
:100060000C94B4110C9486000000000800020100FA
:100070000003040700000000000000000000000072
:10008000250028002B0000000000240027002A0083
:10009000040404040404040402020202020203032E
:1000A0000303030301020408102040800102040836
:1000B0001020010204081020D912DB1311241FBEE6
:1000C000CFEFD8E0DEBFCDBF11E0A0E0B1E0ECEEB5
:1000D000F0E302C005900D92A63AB107D9F722E0ED
:1000E000A6EAB1E001C01D92A838B207E1F710E01E
:1000F000CDE5D0E004C02197FE010E944D18CC351B
:10010000D107C9F70E9448130C9469180C94000099
:1001100090E0FC01EC55FF4F249180579F4FFC016C
:100120008491882399F090E0880F991FFC01EA5789
:10013000FF4FA591B491FC01E458FF4F8591949134
:100140008FB7F894EC91E22BEC938FBF0895942F26
:10015000E2E4F2E0309134023183828366832583C6
:100160004481487F492B477E4483CF01089590E026
:10017000FC01E859FF4F2491FC01EC55FF4F3491ED
:10018000FC01E057FF4FE491EE23C9F0222339F040
:10019000233001F1A8F4213019F1223029F1F0E0E7
:1001A000EE0FFF1FE458FF4FA591B4918FB7F8945D
:1001B000EC91611126C030953E233C938FBF08958A
:1001C0002730A9F02830C9F0243049F78091800009
:1001D0008F7D03C0809180008F7780938000DFCF78
:1001E00084B58F7784BDDBCF84B58F7DFBCF8091C5
:1001F000B0008F778093B000D2CF8091B0008F7D18
:10020000F9CF3E2BDACF2091310190E4299F900164
:1002100011248E50822B80937C0080917A00806420
:1002200080937A0080917A0086FDFCCF80917800DF
:100230009091790008953FB7F89480912E029091A3
:100240002F02A0913002B091310226B5A89B05C0C3
:100250002F3F19F00196A11DB11D3FBFBA2FA92F45
:10026000982F8827BC01CD01620F711D811D911D42
:1002700043E0660F771F881F991F4A95D1F70895AD
:100280008F929F92AF92BF92CF92DF92EF92FF92A6
:100290006B017C010E941B014B015C01C114D10464
:1002A000E104F104B9F00E941B01681979098A0977
:1002B0009B09683E73408105910580F321E0C21AD5
:1002C000D108E108F10888EE880E83E0981EA11C91
:1002D000B11CE4CFFF90EF90DF90CF90BF90AF9034
:1002E0009F908F9008952FB7F89460912A02709193
:1002F0002B0280912C0290912D022FBF089508951A
:100300002091DF01260F3327331F21323105ECF412
:1003100020910302FC0190E080E0243069F082E04B
:100320000895A091DF012191AC0141545E4FA40FCB
:10033000B52FB11D2C930196861798F38091DF019C
:10034000680F6093DF0180E0089581E008950895CB
:100350008FEF9FEF08958FEF9FEF08958091B80181
:1003600090E09195819591090895CF93DF93CB010A
:10037000EA01642F0E948001CE01DF91CF910895A0
:10038000CF93DF931F92CDB7DEB7698361E0CE01D3
:1003900001960E94800181E090E00F90DF91CF9163
:1003A000089590E080E008950895FC0183818770AE
:1003B0008860838384818F71806284836783CF01A7
:1003C0000895E091AB01F091AC01309721F00280EB
:1003D000F381E02D099408950F931F930E947301F8
:1003E0000091AD011091AE012091AF013091B001AB
:1003F000601B710B820B930B1F910F9108959C0151
:100400008091AB019091AC0182179307F1F090912C
:10041000B5019F719093B5013093AC012093AB016E
:10042000E091AB01F091AC01309721F00190F081A7
:10043000E02D09950E9473016093AD017093AE01A8
:100440008093AF019093B00108958091B501805ED3
:100450008093B501E5CF0F931F930E94EC0120918B
:10046000B6012077203779F000E117E220E030E094
:10047000061717072807390758F489E291E01F91FA
:100480000F910C94FF0100E61AEE20E030E0F0CF6F
:100490001F910F9108958091B601982F9F7096300B
:1004A00018F0807F8093B60108958091B501846033
:1004B0008093B5018091B60180788093B601E09178
:1004C000A901F091AA01309709F009940895CF93FA
:1004D000C091B701CF3FA1F00E9473016093B101B9
:1004E0007093B2018093B3019093B401809136026E
:1004F000C813C093360284E291E0CF910C94FF01BF
:100500000E94EC01613D77408105910568F0809182
:10051000B501803618F480E291E0EFCF877F8093B9
:10052000B5018CE191E0E9CFCF910895809134023B
:100530008F3F21F080E291E00C94FF010E94EC01DA
:10054000613D77408105910550F08091B50180367D
:1005500018F488E191E0F0CF84E191E0EDCF0895C7
:1005600088E191E00C94FF018EBD00000DB407FE00
:10057000FDCF8EB508951F93CF93DF9385ED8093C4
:10058000BC008091BB019091BC01A091BD01B091D4
:10059000BE010796A11DB11D23E0B695A7959795BD
:1005A00087952A95D1F72091BC0024FD03C01092B5
:1005B000030252C04091BB015091BC016091BD014A
:1005C0007091BE01452B462B472B69F30097A1057F
:1005D000B10541F02AE12A95F1F700C00197A10980
:1005E000B109E1CF8091BA01C1E0C093B90188237C
:1005F00099F1D091B8001091BA008091BC008A7B2B
:100600008093BC0060E082E10E94B70060E083E17B
:100610000E94B70010920302C093050210920402D8
:1006200061E082E10E94B70061E083E10E94B700CF
:100630008091B9008E7F8093B9008091B9008D7F41
:100640008093B90080E28093B80085E48093BC0079
:100650001093BA00D093B800DF91CF911F91089505
:10066000E5EBF1E08081897F8E7F8083E4E3F2E037
:1006700081E08283118260E081E090E00C94A31617
:10068000E5EBF1E08081877F8F7E80831092B1015E
:100690001092B2011092B3011092B40144E050E004
:1006A00070E060E084E392E00C947B160F931F935C
:1006B000CF93DF938C0180E06115710551F0EB0160
:1006C00009900020E9F721978C2F861B8A3108F0CA
:1006D00089E1F801C381C770F8E08F9FC001112440
:1006E000C82BF801C38384818F718483C695C69516
:1006F000C695CA3108F0C9E1D0E0AE01C80107963D
:100700000E945A18C00FD11F1F82C801DF91CF91DC
:100710001F910F910895FC01248122952695277041
:10072000213011F487810895211104C007960E9499
:100730001E15089580E00895DF92EF92FF920F93C7
:100740001F93CF93DF93FC01248124FD25C0EC018E
:1007500086818A3F31F08D81823031F18330E1F43E
:1007600032C085818230B9F710910301CF010E9418
:100770008B0361E0811101C060E0161769F060939E
:10078000030181E08093040187E992E00E94A316AF
:10079000809104018823F9F2DF91CF911F910F918D
:1007A000FF90EF90DF900895E0904002F0904102BA
:1007B0009E81F7012381291709F446C0278101E0B2
:1007C000921709F442C000913E0210913F029E81AF
:1007D000F8012381921709F44EC024852913DCCF38
:1007E00091E0E92EF12C833009F44AC0CE010E9439
:1007F0008B0399E09E9DF0019F9DF00D1124E00F69
:10080000F11F85839781891739F28823B1F180859B
:1008100091851816190614F084E690E029E02E9DC3
:10082000F0012F9DF00D1124E00FF11F91878087BB
:1008300089E08E9DF0018F9DF00D1124E00FF11FD6
:1008400081E08683F80115C000E010E0000F111F61
:10085000000F111F0E0D1F1DF801D580CE010E9443
:100860008B03D81609F498CFF801858381E086833D
:10087000F701808391CF90E0B4CF90E080E0CECFBD
:10088000DFB6F8948C818295869587708230C1F4AA
:100890008F81988585369105ECF497FF02C090E032
:1008A00080E029E02E9DF0012F9DF00D1124E00F36
:1008B000F11F208531852817390779F4DFBE6CCF09
:1008C000811105C0CE0107960E941E15E3CF90E06E
:1008D00080E0E3CF84E690E0E4CF21E0181619062B
:1008E0000CF020E0258329E02E9DF0012F9DF00DD6
:1008F0001124E00FF11F91878087DFBE99CFCF933E
:10090000DF93FC01108211821282148215821682FA
:10091000DC0117968AE1ED0119928A95E9F782E0E8
:100920008383DF91CF910895BF92CF92DF92EF92B0
:10093000FF920F931F93CF93DF937B01042FB22E6F
:1009400090E59CBD1DBC2A98E0E1F0E03197F1F7FD
:100950000E94B402182FE7010150A8F0BB2051F00B
:100960008FEF0E94B402182FE114F104A9F38883D9
:100970002196F2CF6E018FEFC81AD80A88810E94A3
:10098000B402E601E9CF2A9A80E190E00197F1F7FD
:10099000812FDF91CF911F910F91FF90EF90DF900A
:1009A000CF90BF900895CF93DF931F92CDB7DEB75E
:1009B000698320E041E0BE016F5F7F4F0E94940495
:1009C0000F90DF91CF9108958091B601982F907785
:1009D000903759F0982F92959F709F5F97709295DE
:1009E000907F8F78892B8093B6018091B5018B7FA2
:1009F0008F7E8093B50129986CE080E20C94D3043B
:100A00006FE080E20E94D304609113016F3F19F000
:100A10008AE20E94D304299A089521E041E070E01F
:100A200060E00C94940420E040E070E060E00C94FE
:100A30009404FF920F931F93CF93DF93909134020E
:100A4000FB0190834381C0E242FD08C04695469574
:100A500046954A3108F049E1C7E0C40F909137024A
:100A6000D1E090FD03C08F3F09F0D0E06115710522
:100A700009F44CC08B01F82E299880E091E0019791
:100A8000F1F76EE080E20E94D30484EC90E00197DD
:100A9000F1F76F2D8AE20E94D3046F2D80E30E944C
:100AA000D30481EE0E941305DD2321F060E584E28A
:100AB0000E94D30420E04C2FB80180EA0E949404E5
:100AC000299A10E000E08FEF0E941305807339F43B
:100AD0000F3F100721F0A8950F5F1F4FF4CF299803
:100AE00060E787E20E94D304C82F84FF03C081EE31
:100AF0000E941305DD2321F06FE584E20E94D304F8
:100B00000E940005C5FF03C0D1E001C0D0E08D2FD9
:100B1000DF91CF911F910F91FF9008950F931F9335
:100B2000CF938C01FC0182819091B50190FF04C0AC
:100B30008F3F51F5CFEF04C0811116C0C09135022F
:100B4000B8018C2F0E941905909135029C1313C097
:100B50009091B601811113C021E0290F2F70907F71
:100B6000922B9093B60107C08F3F21F3B8010E94EA
:100B70001905882319F3CF911F910F910895907F44
:100B80009093B60181E0F7CF80E0F5CF2091B501D9
:100B900022FD0C948E0580E00895FC0180913402C2
:100BA00081839481907F996094838091330280FF48
:100BB00003C0CF010C94C60580E00895FF920F9307
:100BC0001F93CF93DF93CDB7DEB7A1970FB6F894FD
:100BD000DEBF0FBECDBFF82E8B01CE0101960E9465
:100BE0007F04FF8282E08E83F8016081CE0101964E
:100BF0000E94D5010E94CD05A1960FB6F894DEBFE4
:100C00000FBECDBFDF91CF911F910F91FF9008953F
:100C1000EF92FF920F931F93CF93DF931F92CDB765
:100C2000DEB78C017B01DB018C91E82FF0E0DF0166
:100C3000AA0FBB1FAA0FBB1FA00FB11F3196EE0F4B
:100C4000FF1FEE0FFF1FE00FF11F15966C918081C3
:100C50000E94B700D701EC91B4E0EB9FF0011124A2
:100C6000E00FF11F838190E0658183569E4F0E94C3
:100C7000A316F7018081F4E08F9FC0011124F801D1
:100C8000E80FF91F21E03581311101C020E02983EF
:100C9000080F191FBE016F5F7F4FD80113968C910B
:100CA0000E94DE050F90DF91CF911F910F91FF9071
:100CB000EF900895FF920F931F93CF93DF93CDB7DB
:100CC000DEB7A1970FB6F894DEBF0FBECDBFF82EEA
:100CD0008B01CE0101960E947F04FF8283E08E8308
:100CE000F801208131818C81877080618C838D81B6
:100CF0008F7180648D8339872887CE0101960E9489
:100D0000CD05A1960FB6F894DEBF0FBECDBFDF9123
:100D1000CF911F910F91FF900895EF92FF920F9343
:100D20001F93CF93DF93CDB7DEB7A1970FB6F8949B
:100D3000DEBF0FBECDBFE82EF62E8A01CE01019692
:100D40000E947F04EF82FE82F801208131818C8134
:100D5000877080618C838D818F7180668D833987E8
:100D60002887CE0101960E94CD05A1960FB6F89472
:100D7000DEBF0FBECDBFDF91CF911F910F91FF90CE
:100D8000EF9008951F93CF93DF93182F262FEA013A
:100D900050E040E0682F80E00E94A7001F3F11F460
:100DA000C2E5D1E0BE010E945603DF91CF911F91B1
:100DB0000C94C6052F923F924F925F926F927F9252
:100DC0008F929F92AF92BF92CF92DF92EF92FF925B
:100DD0000F931F93CF93DF9300D000D0CDB7DEB732
:100DE000809128018F3F09F458C080E1282E312CD2
:100DF00097E1492E512C23E0E22EF12C32E0C32E54
:100E0000D12C44E0642E712C56E0A52EB12CE0913B
:100E10002801E83008F021C1E150E73008F03DC07A
:100E2000F0E0EB5EF84F0C944D182407640772074E
:100E3000A907DD071E071108882341F080912801CA
:100E40008F5F80932801E3CF09EE13E064E670E042
:100E500080E090E00E945D0A2BE043E050E06FEFFD
:100E600080E00E94A70068E571E00E9456030E949E
:100E7000C605982E2CE043E050E06FEF80E00E9422
:100E8000A7006CE671E00E9456030E94C605892106
:100E90000150110989F68111D1CF0F900F900F9059
:100EA0000F90DF91CF911F910F91FF90EF90DF9006
:100EB000CF90BF90AF909F908F907F906F905F90FA
:100EC0004F903F902F900895BA82A9828DEF8B8327
:100ED00040E751E0BE016F5F7F4FCE0103960E9455
:100EE000B50AD9CF0091400210914102FA82E982FD
:100EF000480183E0880E911C49E751E0BE016F5F15
:100F00007F4FC4010E94B50A882339F2DA82C98270
:100F1000BE016F5F7F4FC4010E94850A882309F4D8
:100F2000BCCFFA82E982095F1F4F49E751E0BE0159
:100F30006F5F7F4FC8010E94B50A882309F4ADCFC7
:100F4000DA82C982BE016F5F7F4FC8010E94850AA5
:100F5000A2CF80903E0290903F0284010D5F1F4F10
:100F600095E1890E911C7A82698246E851E0BE01C2
:100F70006F5F7F4FC8010E94B50A882309F48DCFA7
:100F8000DA82C982BE016F5F7F4FC8010E94850A65
:100F9000882309F482CFFA82E982BE016F5F7F4F16
:100FA000C8010E94850A882309F477CF075F1F4F85
:100FB0008016910609F442CFD6CF8AEF8C838BEF4F
:100FC0008B833A82298250E040E0BE016F5F7F4F01
:100FD000CE0103960E94B50A882309F45ECF5A8297
:100FE0004982BE016F5F7F4FCE0103960E94850A42
:100FF000882309F452CFFA82E98244E951E0BE0124
:101000006F5F7F4FCE0104960E94B50A882309F4D2
:1010100044CFDA82C982BE016F5F7F4FCE01049652
:1010200095CF9EEF9B8381E290E09A83898340EA8B
:1010300051E0BE016F5F7F4FCE0103960E94B50A5B
:10104000882309F42ACF85E290E09A838983BE0140
:101050006F5F7F4FCE01039679CF8FEF809328018A
:101060001CCF2FE043E050E06FEF80E00E94A7002C
:101070006BE671E00E945603E2E4F2E08381877040
:101080008061838384818F71806C848381E0878316
:101090001086CF010E94C6058FE00E94270A4BE60A
:1010A00051E061E170E08FEF0E94C20626E043E06C
:1010B00050E06FEF80E00E94A700609135020E942F
:1010C000D5010E94C60586E00E94270A0C94DA0624
:1010D0004F925F926F927F928F929F92AF92BF9248
:1010E000DF92EF92FF920F931F93CF93DF9300D085
:1010F0001F92CDB7DEB726E02B8300E010E08824F6
:101100008A9482E0982E83E0A82EB92CE12CFF244B
:10111000FA9487E10E940D0580FD80C18B8181508A
:101120008B83882309F47AC121E041E070E060E01C
:1011300080E60E9494048983813220F082EE0E942E
:101140001305198221E0498163E672E081E60E947D
:10115000940460E487E20E94D30480916602982F91
:1011600093709230B1F6E82FE695E695E695EA3170
:1011700008F0E9E182FF57C089E1895F99819813FE
:10118000C8CF80916702282F277029839091680229
:101190009A83D0906402209163029091650230910D
:1011A000B60130683093B6013091340293130AC10E
:1011B000F0E0ED59FD4F178283FF15C021E2E3E611
:1011C000F2E0A2E4B2E001900D922A95E1F7877E69
:1011D00080618093460290934302D092440282E45D
:1011E00092E00E94C6059091670294FDE3C02981B8
:1011F000233009F0DFC08091680221EF280F2330EF
:1012000008F487CF2A81243009F483CF283169F488
:1012100029E143E050E06FEF8D2D0E94A70061E0CF
:101220000E94D5012CC08E2FA8CF2A81293171F4BC
:101230008091B50183FF6DCF877F8093B50183E6F1
:1012400092E00E948B038093B70163CF2A812E31F5
:1012500009F45FCF2D31B1F42FE143E050E06FEF9F
:1012600080E00E94A700FC018381877080618383F6
:1012700084818F7180648483F086E782CF010E942D
:101280008E0547CF20916402211199C08D3059F409
:1012900088E198E00FB6F894A895809360000FBE9F
:1012A00090936000FFCF8B3179F483E692E00E9447
:1012B0008B0391E0811101C090E08091330290FB9B
:1012C00080F98093330225CF863099F490916A0299
:1012D00081E0992319F09D3409F080E08093320277
:1012E00041E050E063E071E082E392E00E949316F7
:1012F00010CF833119F40E9431080BCF8231E1F411
:101300000E94EC012B013C0126E143E050E06FEF2D
:1013100080E00E94A700FC01838187708062838344
:1013200084818F71806A8483478250866186728649
:10133000CF010E94C605EDCE8230A9F422E043E041
:1013400050E06FEF80E00E94A700FC01838187706E
:101350008062838384818F71806A84838782908690
:10136000A186B286E5CF8130F9F40115110509F4A3
:10137000D0CE929596959770953059F460916A0207
:1013800070916B0280916C0290916D020E9400003E
:10139000C0CE911105C08AE692E00E943C15F6CFBE
:1013A00060E070E0CB01F2CF8A3009F4B2CE8C312C
:1013B00009F4AFCE83E692E00E949C03AACE8A3164
:1013C000C9F7A7CE9F3F09F0A4CE8981833009F5E4
:1013D0008091B50182FF04C09A81973009F499CEBB
:1013E0008A81843109F095CE80913502281391CEFF
:1013F0000E9473017370882799270E94400125E19C
:1014000043E050E06FEF8D2D0E94A7006091350200
:1014100007CF8091350228137CCECCCF0F900F9050
:101420000F90DF91CF911F910F91FF90EF90DF9080
:10143000BF90AF909F908F907F906F905F904F90F4
:1014400008958091B50184FD0C9468080895CF92A9
:10145000DF92EF92FF92CF93DF93D82F0E94730118
:101460006B017C0180916702876080936702C0E016
:101470000E9473016C197D098E099F09603D7740B8
:101480008105910590F4C11110C0A8950E94E10159
:101490000E94210A809167028770833049F7C1E07A
:1014A000809168028D13E3CFE3CF8C2FDF91CF9132
:1014B000FF90EF90DF90CF9008958F929F92AF9220
:1014C000BF92CF92DF92EF92FF924B015C010E949C
:1014D00073016B017C010E9473016C197D098E09F7
:1014E0009F09681579058A059B0530F4A8950E9427
:1014F000E1010E94210AEFCFFF90EF90DF90CF90A3
:10150000BF90AF909F908F900895CF92DF92EF920F
:10151000FF920F931F93CF93DF937C016B01C9EE72
:10152000D3E0F6010081F701108164E670E080E00D
:1015300090E00E945D0A202F42E050E0612F80E0A1
:101540000E94A7006BE671E00E9456030E94C60548
:10155000219711F0882329F3DF91CF911F910F91EB
:10156000FF90EF90DF90CF9008958F929F92AF926F
:10157000BF92CF92DF92FF920F931F93CF93DF938F
:101580006C015B018A01C9EED3E0F5018080918096
:10159000F601F08064E670E080E090E00E945D0A71
:1015A000A8010115110511F44BE651E0B4018F2D8E
:1015B0000E94C206219711F0882339F3DF91CF9161
:1015C0001F910F91FF90DF90CF90BF90AF909F90B1
:1015D0008F9008957F928F929F92AF92BF92CF92F9
:1015E000DF92EF92FF920F931F93CF93DF938C01C3
:1015F0007B01FB018081F80199E0899FE00DF11DDD
:1016000011248085918522853385821B930B97FD5C
:1016100047C081E099E0A92EC82E880FDD08F701A8
:101620008081F801A89EE00DF11D1124828593852B
:10163000208531858217930709F476C08C0D9D1D96
:1016400093878287F70180814801A89E800C911CB6
:101650001124F40162857385072E000C880B990B09
:101660000E94821520E030E048EC52E40E947D1791
:1016700020E030E04FE753E40E94BD150E94EF17D1
:10168000B62E772EC62FD72FF4019480892D0E9475
:101690008800209739F460E0892D0E94B70030C09F
:1016A0008FEFB8CFCF3FD10511F461E0F5CFE92D31
:1016B000F0E0E859FF4FE491E33009F448C040F40A
:1016C000E130D1F0E230F1F1C038D10574F7E3CF69
:1016D000E73009F448C0E83009F44DC0E430A1F720
:1016E000809180008062809380008B2D972D909355
:1016F0008B0080938A0004C084B5806884BDB7BC29
:101700006AE070E080E090E00E945D0AF70180816D
:10171000F801A89EE00DF11D1124828593850197A3
:101720008336910508F47BCFDF91CF911F910F9104
:10173000FF90EF90DF90CF90BF90AF909F908F90F1
:101740007F90089584B5806284BDB8BCD9CF809164
:1017500080008068809380008B2D972D9093890066
:1017600080938800CDCF8091B00080688093B000D6
:10177000B092B300C5CF8091B00080628093B0007A
:10178000B092B400BDCFDF92EF92FF920F931F9300
:10179000CF93DF931F92CDB7DEB78C017B010E9400
:1017A000EA0AF701808199E0D92EF801D89EE00D70
:1017B000F11D1124838190E0658183569E4F0E9424
:1017C000A316F7018081282F30E0F801D89EE00DA4
:1017D000F11D112481E09581911101C080E0898380
:1017E00089E0D82ED29EF001D39EF00D1124E00F97
:1017F000F11FBE016F5F7F4F83810E94DE05F701FD
:1018000080818D9DC0011124BC01685F7F4F600FF6
:10181000711F080F191FF80183810E945A060F904B
:10182000DF91CF911F910F91FF90EF90DF9008957E
:101830002F923F924F925F926F927F928F929F92E0
:10184000AF92BF92CF92DF92FF920F931F93CF93ED
:10185000DF93CDB7DEB7A1970FB6F894DEBF0FBE0A
:10186000CDBF809128018F3FA1F00E94DA068091C0
:1018700028018F3F09F400C30CE310E00150110967
:1018800009F4FAC264EF71E080E090E00E945D0A22
:10189000F5CF8091B50182FF12C38091A70190918D
:1018A000A8016CE370E00E942518892B29F0809133
:1018B0000501882309F44DC08FE00E9403012091A7
:1018C0000801309109012817390714F4821B930B82
:1018D00020910601309107012817390771F097FD13
:1018E0000CC09093070180930601863091050CF09F
:1018F00084C010920B0110920A0180910A0190910C
:101900000B0120910C0130910D0128173907E1F0EE
:1019100090930D0180930C01A0910601B0910701F5
:1019200024E630E00E94531824E833E040E050E021
:101930000E94B5163A832983AE014F5F5F4F67E17E
:1019400070E08BEF0E948D0680910501811110924D
:10195000050180910401882339F01092040163E0AD
:1019600071E08AEF0E94DE0500913E0210913F0275
:101970008091A7019091A80161E470E00E94251870
:10198000892B09F0CAC0198299E0F92E24E6222E8B
:10199000312C412C512C39E1A32EB12C44E6842E5C
:1019A000912C55E5652E712C8981823008F0B5C0E7
:1019B000C82ED12CF801F89EE00DF11D112485816F
:1019C0008823B9F0D80111962D913C91D9018C91C1
:1019D000882379F017968D919C918330910509F4B5
:1019E0007BC090F58130910509F48EC0029709F40F
:1019F00080C089818F5F8983D7CF833391053CF481
:101A000081E090E090930B0180930A0176CF8739B3
:101A100091051CF482E090E0F5CF8D3221E0920731
:101A20001CF483E090E0EECF853FA1E09A071CF420
:101A300084E090E0E7CF8D3B92401CF485E090E09D
:101A4000E1CF86E090E0DECF8530910599F0B8F1E6
:101A5000069779F6A085B185AA31B105F4F4B1866F
:101A6000A086FC9CF001FD9CF00D1124E00FF11FFD
:101A7000858103C01186108680E0FC9CF001FD9CEE
:101A8000F00D1124E00FF11F85838783BE016F5F86
:101A90007F4FC8010E94C30BACCF29E130E00E9408
:101AA0005318A20191010E94B516FC9CF001FD9C07
:101AB000F00D1124E00FF11F31872087D2CFA085D0
:101AC000B185AE32B1052CF48DE290E0918780872C
:101AD000C8CF2DE230E0E3CFA085B185A234B105B7
:101AE0002CF4A1E4B0E0B187A087BBCF21E430E0C3
:101AF000D6CFA085B185A635B1051CF47186608668
:101B0000B0CF25E530E0CBCF808591858436910537
:101B100009F46FCF91868086A4CFF8018081882355
:101B200009F458C01082198289E0F82EDD24D3947C
:101B30008981823008F04EC0F801F89EE00DF11D59
:101B4000112486818823C1F0858197818917C1F08E
:101B50008783BE016F5F7F4FC8010E94C30B8981DD
:101B6000F801F89EE00DF11D1124168262E370E089
:101B700080E090E00E945D0A89818F5F8983D8CFE1
:101B8000811108C0808591851816190664F4D582E4
:101B9000D782DFCF813039F480859185892B19F484
:101BA00015821782D6CFBE016F5F7F4FC8010E949A
:101BB000EA0A89818F9DC0011124BC01685F7F4FB3
:101BC000600F711F800F911FDC0113968C910E9492
:101BD0005A06C5CF00914002109141028091A701A1
:101BE0009091A80166E470E00E942518892B41F5C8
:101BF0001982E981E23020F5B4E0EB9FF001112475
:101C00009F01200F311FF90185818823A9F0F80178
:101C1000A181B2818C91882379F017968D919C9146
:101C20000497039748F4D90115961C92BE016F5F83
:101C30007F4FC8010E94080689818F5F8983D9CFB1
:101C4000F80180818823C9F010821982E981E2308D
:101C5000A0F424E0E29FF0011124E00FF11F86813F
:101C6000882339F01682BE016F5F7F4FC8010E9442
:101C7000080689818F5F8983E9CF00913C0210912A
:101C80003D028091A7019091A80167EB70E00E944E
:101C90002518892B29F0D8018C91882309F453C089
:101CA00088EC80937C0080917A00806880937A0031
:101CB00064E170E080E090E00E94400180917A0051
:101CC000806480937A0080917A0086FDFCCF6091D9
:101CD00078007091790090E080E00E9480152EEAF3
:101CE00037E242EA53E40E94101726EF38E24CE94B
:101CF0005FE30E947D170E94EF17613801F1F80140
:101D000081818617E1F06183CE0101960E947F04F4
:101D10008DEF8F831E82D80111962C91022E000C1C
:101D2000330B8C81877080618C838D818F7180648F
:101D30008D8339872887CE0101960E94CD05F80151
:101D4000808181111082C0903A02D0903B02809134
:101D5000A7019091A80165EB70E00E942518892BDE
:101D600021F0D6018C91882339F18EE00E94030185
:101D70006AE070E00E9439188B016536710514F035
:101D800004E610E017FF02C010E000E0F6018181D8
:101D90008017110669F0018320E043E050E06FEF07
:101DA00080E00E94A700602F0E94D5010E94C60516
:101DB000D6018C9181111C92009138021091390248
:101DC0008091A7019091A80166EB70E00E94251810
:101DD000892B29F0F8018081882309F440C088E02C
:101DE0000E940D058F7023EE3FEFF8E08F9F2019C2
:101DF00031091124032E000C440B550B2B5A3F4F75
:101E00004F4F5F4FA4E6B0E00E94D4162DE230E0C1
:101E100040E050E00E94B5162536310514F024E666
:101E200030E037FF02C030E020E0D80111968D91FC
:101E30009C9112972817390771F012963C932E93B4
:101E400011973A832983AE014F5F5F4F65E270E0DF
:101E50008EEF0E948D06F8018081811110828091A1
:101E6000A7019091A80101968036FAEE9F0710F520
:101E70009093A8018093A70168EE73E080E090E062
:101E80000E945D0AA1960FB6F894DEBF0FBECDBFCB
:101E9000DF91CF911F910F91FF90DF90CF90BF9076
:101EA000AF909F908F907F906F905F904F903F90FA
:101EB0002F9008951092A8011092A701DDCF60E144
:101EC00077E280E090E00E945D0AD6CFFF920F9308
:101ED0001F93CF93DF9390913E0280913F02FFB614
:101EE000F894C92FD82F8E010E5E1F4F8B8190E082
:101EF00083569E4F0E948B168D831F8291E0811125
:101F000001C090E09E8381115CC090E080E09987E1
:101F100088871B861A868C810E9488008C81855058
:101F2000823020F485B5887F826085BD29960C17A4
:101F30001D07E1F6FFBEC0914002D09141021FB7DC
:101F4000F8948B8190E083569E4F0E948B168D8370
:101F500091E0811101C090E09E838C810E948800F5
:101F60008F8190E083569E4F0E948B16898791E067
:101F7000811101C090E09A8788850E9488001FBF68
:101F800083E08093310110E000E0D0E0C0E00E94E7
:101F900073016838734181059105B0F464E670E01F
:101FA00080E090E00E945D0A8FE00E940301C81764
:101FB000D9072CF0801791070CF48C01CE01EC01AD
:101FC000E6CF84E690E0A3CFC01BD10BCF31D10583
:101FD000A4F4D0930901C093080187E992E00E941C
:101FE0008B1691E0811101C090E090930301DF9185
:101FF000CF911F910F91FF900895109209011092B7
:102000000801EBCFCF938091330281FD20C00E9465
:10201000310880913302816080933302C4E02AE169
:1020200043E050E06FEF80E00E94A70062E00E9472
:10203000D5010E94C6058BE10E94270A811102C0CA
:10204000C15069F780913302826080933302CF914F
:1020500008958FEF8093B701E5EBF1E08081886010
:10206000808328E143E050E06FEF80E00E94A7000A
:1020700061E00E94D5010C948E05809134028F3F5F
:1020800069F423E043E050E06FEF80E00E94A70096
:102090006BE671E00E9456030C948E050895CF9371
:1020A000219A229A29982A9ACFB7F8948091A6016A
:1020B000811124C0EAE9F0E08491EEEAF0E0949125
:1020C000E82FF0E0EE0FFF1FEA57FF4FA591B49104
:1020D000EC91E92321F461E08AE00E94B7008AE0F4
:1020E0000E9488008CB580618CBD8CB580648CBDED
:1020F0008DE00E9488008BE00E9488008091A601FC
:102100008F5F8093A601CFBF29986EE080E20E9486
:10211000D30484E293E20197F1F763E083E20E9443
:10212000D3046FE584E20E94D3046CE485E20E944C
:10213000D30465E286E20E94D30464E08DE30E944A
:10214000D3048DE10E940D05843041F063E780E502
:102150000E94D30464E08DE30E94D30486E00E94D1
:102160000D05853209F04DC085E00E940D058C34C7
:1021700009F047C062E082E20E94D30460E081E29D
:102180000E94D30463E08CE30E94D3048FEF80931A
:102190000E0120E045E06EE071E08BE20E949404C5
:1021A00020E045E06EE071E08AE20E94940420E0C5
:1021B00045E06EE071E080E30E94940482EE0E94AC
:1021C000130581EE0E94130560E787E20E94D304A5
:1021D0008091B50180618093B501809137028E7F37
:1021E0008093370286E18093340266E190E080E0DC
:1021F0000E94A316C0913402CF3F41F48CE191E0DC
:1022000002C084E191E0CF910C94FF018FEF8C0F1D
:102210008E3FB8F7C093130163E082E20E94D304BB
:1022200061E081E20E94D3040E9400056C2F90E0DF
:1022300080E00E94A316E2CF1F920F920FB60F927A
:1022400011242F933F938F939F93AF93BF938091CC
:102250002A0290912B02A0912C02B0912D02309174
:10226000290226E0230F2D3758F50296A11DB11D36
:102270002093290280932A0290932B02A0932C0290
:10228000B0932D0280912E0290912F02A0913002E6
:10229000B09131020196A11DB11D80932E02909341
:1022A0002F02A0933002B0933102BF91AF919F9162
:1022B0008F913F912F910F900FBE0F901F90189507
:1022C00029E8230F0396A11DB11DD2CF1F920F92B3
:1022D0000FB60F9211242F933F934F935F936F93F9
:1022E0007F938F939F93AF93BF93EF93FF93E0916F
:1022F0002F01F09130010995FF91EF91BF91AF91BE
:102300009F918F917F916F915F914F913F912F910D
:102310000F900FBE0F901F9018951F920F920FB63F
:102320000F9211242F933F934F935F936F937F935B
:102330008F939F93AF93BF93EF93FF93E0912D0102
:10234000F0912E010995FF91EF91BF91AF919F916F
:102350008F917F916F915F914F913F912F910F904E
:102360000FBE0F901F9018951F920F920FB60F92ED
:1023700011242F933F934F935F936F937F938F938A
:102380009F93AF93BF93EF93FF938091B900887FA2
:10239000803609F44AC0F0F5883209F4A5C018F572
:1023A000803109F499C0B8F4882309F4F5C0883065
:1023B00009F492C0FF91EF91BF91AF919F918F91DE
:1023C0007F916F915F914F913F912F910F900FBE31
:1023D0000F901F901895883109F486C0803251F70C
:1023E0008093020214C0803409F49BC040F480330F
:1023F000B9F38833F9F68093020285ECAEC08035DC
:1024000009F483C0883509F494C0883499F60E9491
:10241000BB02D0CF883909F48AC038F5883729F053
:1024200050F4883611F0803729F683E08093030258
:102430001092010255C0883809F479C0803919F02A
:10244000803809F0B7CF80910102803208F06FC068
:10245000E091010281E08E0F809301028091BB0028
:10246000F0E0EF51FE4F80833BC0803B39F0D0F469
:10247000803A09F477C0883A09F09CCF84E08093D1
:1024800003021092E0011092DF01F0E0E0E0099514
:102490008091DF0181110FC081E08093DF011092F4
:1024A000BF0109C0803C09F4A8CF883C09F4A5CF3E
:1024B000883B09F07FCFE091E00181E08E0F8093AF
:1024C000E001F0E0E154FE4F80818093BB009091E9
:1024D000E0018091DF0129C0809128028093BB0038
:1024E00085EC8093BC0066CF9091270280912602F4
:1024F000981758F5E091270281E08E0F809327020C
:10250000F0E0EA5FFD4F8081E9CFE091270281E0B2
:102510008E0F809327028091BB00F0E0EA5FFD4FB1
:10252000808390912702809126029817C8F285E84F
:10253000D8CFE091270281E08E0F8093270280910F
:10254000BB00F0E0EA5FFD4F8083809105028111BE
:102550005ECF81E08093040284EA8093BC001092F5
:10256000030228CF85EC8093BC0010920302809177
:102570000102803230F4E0910102F0E0EF51FE4FB1
:1025800010826091010270E081EE91E0F0E0E0E005
:102590000995109201020ECF1092020238CF1F92BD
:1025A0000F920FB60F9211240F900FBE0F901F9035
:1025B00018950F931F93CF9383E692E00E947F04B8
:1025C00082E492E00E947F048BE090E00E94F91385
:1025D000C1E0FC01C08328E0E8E3F1E0DC011396F0
:1025E00001900D922A95E1F703E011E0FC011283BE
:1025F00001832FB7F89490934102809340022FBF3C
:1026000085E190E00E94F913FC01C08322E1E0E43F
:10261000F1E0DC01139601900D922A95E1F7FC019F
:10262000128301832FB7F89490933F0280933E0268
:102630002FBF82E090E00E94F913FC011182C08359
:102640002FB7F89490933D0280933C022FBF82E015
:1026500090E00E94F913FC011182C0832FB7F89417
:1026600090933B0280933A022FBF83E090E00E9458
:10267000F913FC0112821182C0832FB7F894909352
:102680003902809338022FBFCF911F910F91089587
:10269000789484B5826084BD84B5816084BD85B53D
:1026A000826085BD85B5816085BD80916E00816049
:1026B00080936E00109281008091810082608093EF
:1026C00081008091810081608093810080918000F1
:1026D0008160809380008091B10084608093B1001C
:1026E0008091B00081608093B00080917A00846016
:1026F00080937A0080917A00826080937A00809142
:102700007A008E7F80937A0080917A00806880932F
:102710007A001092C100A89580E090E0892B11F01A
:102720000E940000809133028D7F809333020E94CB
:10273000660F41E050E063E071E082E392E00E94C6
:102740007B1660E081E090E00E94A3168091B601C4
:102750008F788093B6011092AC011092AB0189E2A0
:1027600091E00E94FF0182E090E19093AA018093A2
:10277000A9010E9473010E9473010E94E1010E945D
:10278000210A8091B50182FB882780F9A8958823CA
:1027900091F3A895C0E0D0E0A8950E94E101809156
:1027A000B50184FD0E9468080E94180C2097A1F3CF
:1027B0000E940000F1CF80913802909139020E946E
:1027C000951480913A0290913B020E949514809159
:1027D0003C0290913D020E94951480913E0290919E
:1027E0003F020E94951480914002909141020C9406
:1027F00095140F931F93CF93DF938230910510F4BC
:1028000082E090E0E0918602F091870230E020E0E3
:10281000B0E0A0E0309799F42115310509F44AC0E1
:10282000281B390B24303105D8F58A819B8161152D
:10283000710589F1FB0193838283FE0111C0408100
:1028400051810281138148175907E0F04817590751
:1028500099F4109761F012960C93129713961C93AB
:102860003296CF01DF91CF911F910F910895009380
:10287000860210938702F4CF2115310551F04217DB
:10288000530738F0A901DB019A01BD01DF01F8010E
:10289000C1CFEF01F9CF9093870280938602CDCF0D
:1028A000FE01E20FF31F8193919322503109398386
:1028B0002883D7CF2091840230918502232B41F4C5
:1028C00020913401309135013093850220938402A8
:1028D00020913201309133012115310541F42DB79A
:1028E0003EB74091360150913701241B350BE091E2
:1028F0008402F0918502E217F307A0F42E1B3F0B30
:102900002817390778F0AC014E5F5F4F2417350761
:1029100048F04E0F5F1F50938502409384028193CD
:1029200091939FCFF0E0E0E09CCFCF93DF930097AF
:10293000E9F0FC01329713821282A0918602B091D5
:102940008702ED0130E020E01097A1F42081318171
:10295000820F931F20918402309185022817390736
:1029600009F061C0F0938502E0938402DF91CF917A
:102970000895EA01CE17DF07E8F54A815B819E01E1
:1029800041155105B1F7E901FB83EA83499159915A
:10299000C40FD51FEC17FD0761F480819181029669
:1029A000840F951FE90199838883828193819B839A
:1029B0008A83F0E0E0E012968D919C911397009746
:1029C000B9F52D913C911197CD010296820F931F7D
:1029D00020918402309185022817390739F6309703
:1029E00051F51092870210928602B0938502A0934F
:1029F0008402BCCFD383C28340815181840F951F51
:102A0000C817D90761F44E5F5F4F88819981480FDD
:102A1000591F518340838A819B819383828321152F
:102A2000310509F0B0CFF0938702E09386029ECF84
:102A3000FD01DC01C0CF13821282D7CFFC018827B1
:102A40009927E89421912032E9F3293010F02E30B3
:102A5000C8F32B3241F02D3239F4689404C00E943F
:102A60007815820F911D219120532A30C0F31EF456
:102A7000909581959F4F08951F93FC019927882772
:102A8000BC01E89411911032E9F3193010F01E30B6
:102A9000C8F31B3251F01D3249F4689406C00E94FD
:102AA0006315610F711D811D911D119110531A3015
:102AB000B0F33EF490958095709561957F4F8F4F60
:102AC0009F4F1F910895592F482F372F262F660F9C
:102AD000771F881F991F660F771F881F991F620F26
:102AE000731F841F951F660F771F881F991F0895F6
:102AF0007AE0979F902D879F802D910D1124089546
:102B0000E89409C097FB3EF4909580957095619587
:102B10007F4F8F4F9F4F9923A9F0F92F96E9BB273D
:102B20009395F695879577956795B795F111F8CFB9
:102B3000FAF4BB0F11F460FF1BC06F5F7F4F8F4F24
:102B40009F4F16C0882311F096E911C0772321F01A
:102B50009EE8872F762F05C0662371F096E8862FB2
:102B600070E060E02AF09A95660F771F881FDAF709
:102B7000880F9695879597F908950E94D0150C9423
:102B800041160E94331638F00E943A1620F0952321
:102B900011F00C942A160C94301611240C9475160E
:102BA0000E94521670F3959FC1F3950F50E0551F88
:102BB000629FF001729FBB27F00DB11D639FAA2792
:102BC000F00DB11DAA1F649F6627B00DA11D661FE1
:102BD000829F2227B00DA11D621F739FB00DA11D02
:102BE000621F839FA00D611D221F749F3327A00DBC
:102BF000611D231F849F600D211D822F762F6A2F58
:102C000011249F5750409AF0F1F088234AF0EE0FBC
:102C1000FF1FBB1F661F771F881F91505040A9F7E9
:102C20009E3F510580F00C942A160C9475165F3F58
:102C3000E4F3983ED4F3869577956795B795F79525
:102C4000E7959F5FC1F7FE2B880F911D969587959D
:102C500097F9089597F99F6780E870E060E008951C
:102C60009FEF80EC089500240A94161617061806A4
:102C70000906089500240A94121613061406050680
:102C80000895092E0394000C11F4882352F0BB0F11
:102C900040F4BF2B11F460FF04C06F5F7F4F8F4F74
:102CA0009F4F089557FD9058440F551F59F05F3FAF
:102CB00071F04795880F97FB991F61F09F3F79F05E
:102CC00087950895121613061406551FF2CF4695E0
:102CD000F1DF08C0161617061806991FF1CF869562
:102CE0007105610508940895E894BB276627772746
:102CF000CB0197F90895DC01CB01FC01F999FECFD6
:102D000006C0F2BDE1BDF89A319600B40D92415073
:102D10005040B8F70895F999FECF92BD81BDF89A59
:102D2000992780B50895DC01A40FB51F415050408C
:102D300048F0CB01840F951F2E910E94A41641509C
:102D40005040D0F70895262FF999FECF92BD81BD4E
:102D5000F89A019700B4021639F01FBA20BD0FB6D9
:102D6000F894FA9AF99A0FBE0895052E97FB1EF46F
:102D700000940E94CC1657FD07D00E94DF1607FC76
:102D800003D04EF40C94CC16509540953095219577
:102D90003F4F4F4F5F4F0895909580957095619587
:102DA0007F4F8F4F9F4F08950E940117A59F900D51
:102DB000B49F900DA49F800D911D11240895A1E250
:102DC0001A2EAA1BBB1BFD010DC0AA1FBB1FEE1FA5
:102DD000FF1FA217B307E407F50720F0A21BB30BF0
:102DE000E40BF50B661F771F881F991F1A9469F76C
:102DF00060957095809590959B01AC01BD01CF01C8
:102E00000895A29FB001B39FC001A39F700D811DC3
:102E10001124911DB29F700D811D1124911D0895E3
:102E20005058BB27AA270E9428170C9441160E94CD
:102E3000331638F00E943A1620F039F49F3F19F407
:102E400026F40C9430160EF4E095E7FB0C942A1649
:102E5000E92F0E94521658F3BA17620773078407C6
:102E6000950720F079F4A6F50C9474160EF4E0950D
:102E70000B2EBA2FA02D0B01B90190010C01CA0134
:102E8000A0011124FF27591B99F0593F50F4503EDF
:102E900068F11A16F040A22F232F342F4427585FD1
:102EA000F3CF469537952795A795F0405395C9F7E9
:102EB0007EF41F16BA0B620B730B840BBAF09150A1
:102EC000A1F0FF0FBB1F661F771F881FC2F70EC040
:102ED000BA0F621F731F841F48F487957795679513
:102EE000B795F7959E3F08F0B0CF9395880F08F0FF
:102EF0009927EE0F9795879508950E9491170C9446
:102F000041160E943A1658F00E94331640F029F4F8
:102F10005F3F29F00C942A1651110C9475160C94ED
:102F200030160E94521668F39923B1F3552391F39A
:102F3000951B550BBB27AA2762177307840738F028
:102F40009F5F5F4F220F331F441FAA1FA9F335D085
:102F50000E2E3AF0E0E832D091505040E695001C39
:102F6000CAF72BD0FE2F29D0660F771F881FBB1FF3
:102F7000261737074807AB07B0E809F0BB0B802DD1
:102F8000BF01FF2793585F4F3AF09E3F510578F0FD
:102F90000C942A160C9475165F3FE4F3983ED4F314
:102FA000869577956795B795F7959F5FC9F7880FD1
:102FB000911D9695879597F90895E1E0660F771F23
:102FC000881FBB1F621773078407BA0720F0621BB4
:102FD000730B840BBA0BEE1F88F7E09508950E94DF
:102FE000F6176894B1110C94751608950E945A163C
:102FF00088F09F5798F0B92F9927B751B0F0E1F0BA
:10300000660F771F881F991F1AF0BA95C9F714C069
:10301000B13091F00E947416B1E008950C947416CA
:10302000672F782F8827B85F39F0B93FCCF38695A2
:1030300077956795B395D9F73EF4909580957095FF
:1030400061957F4F8F4F9F4F0895AA1BBB1B51E186
:1030500007C0AA1FBB1FA617B70710F0A61BB70B08
:10306000881F991F5A95A9F780959095BC01CD01AD
:10307000089597FB072E16F4009407D077FD09D02A
:103080000E94251807FC05D03EF4909581959F4F2E
:103090000895709561957F4F0895EE0FFF1F05907D
:1030A000F491E02D09940E940117B7FF0895821B47
:1030B000930B0895FB01DC014150504048F0019012
:1030C0000D920020C9F701C01D9241505040E0F719
:1030D000089510E0CDE5D0E004C0FE010E944D1837
:0C30E0002196CE35D107C9F7F894FFCF38
:1030EC00FFFFFF010101000000000000000000FCD8
:1030FC00E1A8A8FFE4042B023D1096023003B002B5
:10310C002910670255024B020140034F107F017FCB
:10311C000101000088028000000800000107000087
:10312C000305000000000000000406000000000081
:10313C000000322E332E320073656E736F722D4485
:10314C00696D6D65722D4C45442D3100312E320068
:10315C00496E742E54656D700052656C61792E4CFD
:10316C0069676874730044696D6D65722E4C69678C
:10317C00687473004175746F2E4C696768747300C2
:06318C00525353490000FC
:00000001FF
