:020000040000FA
:100000000C9424030C9460190C9439190C944C032F
:100010000C944C030C944C030C94A21A0C944C03B7
:100020000C944C030C944C030C944C030C944C0314
:100030000C944C030C944C030C944C030C944C0304
:100040000C94EF180C944C030C94BD180C94971856
:100050000C944C030C944C030C944C030C944C03E4
:100060000C9487190C944C0300407A10F35A00A0AA
:10007000724E18090010A5D4E80000E87648170071
:1000800000E40B54020000CA9A3B000000E1F505B1
:10009000000080969800000040420F000000A086FB
:1000A00001000000102700000000E803000000002D
:1000B0006400000000000A000000000001000000D1
:1000C00000002C76D888DC674F0823DFC1DFAE59EB
:1000D000E1B1B796E5E3E453C63AE651997696E87E
:1000E000E6C28426EB898C9B62ED407C6FFCEFBC02
:1000F0009C9F40F2BAA56FA5F490055A2AF75C932D
:100100006B6CF9676DC11BFCE0E40D47FEF520E662
:10011000B500D0ED902E0300943577050080841E45
:10012000080000204E0A000000C80C333333330FA0
:10013000986E12831141EF8D2114893BE65516CF3D
:10014000FEE6DB18D1844B381BF77C1D901DA4BB49
:10015000E424203284725E228100C9F124ECA1E5FE
:100160003D2754534D3A494E49540A002154534DAA
:100170003A494E49543A545350204641494C0A009A
:100180005453463A5349443A4F4B2C49443D257504
:100190000A00215453463A5349443A4641494C2CAB
:1001A00049443D25750A0054534D3A494E49543A45
:1001B0005354415449443D25750A0054534D3A491E
:1001C0004E49543A545350204F4B0A0054534D3A21
:1001D000465041523A53544154503D25750A0054FB
:1001E000534D3A465041520A0054534D3A49443A0D
:1001F0005245510A0054534D3A49440A0021545380
:100200004D3A49443A4641494C0A0054534D3A4903
:10021000443A4F4B0A0054534D3A55504C0A002172
:1002200054534D3A55504C3A4641494C0A005453A8
:100230004D3A55504C3A444757432C4F3D25752C69
:100240004E3D25750A0054534D3A55504C3A4F4B8C
:100250000A0054534D3A52454144593A49443D25C8
:10026000752C5041523D25752C4449533D25750A46
:10027000002154534D3A52454144593A55504C206F
:100280004641494C2C53544154500A005453463A69
:100290005444493A54534C0A0054534D3A46414948
:1002A0004C3A4449530A0054534D3A4641494C3A5A
:1002B000434E543D25750A0054534D3A4641494C2E
:1002C0003A52452D494E49540A00215453463A5258
:1002D00054453A4E324E204641494C0A005453464A
:1002E0003A5254453A4E324E204F4B0A0021545355
:1002F000463A5254453A4650415220414354495699
:10030000450A00215453463A534E443A544E520A39
:100310000025735453463A4D53473A53454E442CA7
:1003200025752D25752D25752D25752C733D257568
:100330002C633D25752C743D25752C70743D2575F9
:100340002C6C3D25752C73673D25752C66743D25F9
:10035000752C73743D25733A25730A004D434F3A4B
:100360005245473A5245510A00214D434F3A5052A7
:100370004F3A52433D25750A000A002D2D20707218
:100380006573656E742053656E6420627265616B7F
:100390002C20002D2D2057726F6E67206E756D62B8
:1003A00065722049440A00214D434F3A5741493A6A
:1003B00052433D25750A00202D2074696D65722019
:1003C000656E64002E00322E332E320A00207C5FD0
:1003D0005C2F602C0A0702200220B2871003400124
:1003E00020002402221002220202200222002220E7
:1003F0000202202227101341010101032220304074
:1004000020305203402214020310522402217101B1
:1004100000101012101222101002240101032203F6
:10042000002001010032203712100121322601285C
:1004300040322212101212224322241210012224CE
:1004400070C122240F0F5453463A5755523A4D5318
:100450003D256C750A004D434F3A42474E3A494E8E
:100460004954204F4B2C5453503D25750A004D43A1
:100470004F3A42474E3A5354500A004D434F3A4286
:10048000474E3A4246520A004D434F3A42474E3A8F
:10049000494E4954204E4F44452C43503D524E4EF8
:1004A0004E412D2D2D2C46513D25752C52454C3D50
:1004B00025752C5645523D322E332E320A000A0045
:1004C0002D2D2070726573656E742053656E6420E7
:1004D000627265616B2C20004D434F3A50494D3A92
:1004E0004E4F4445205245473D25750A002154533F
:1004F000463A4D53473A52454C204D53472C4E52A5
:1005000045500A005453463A4D53473A52435620F9
:1005100043420A005453463A4D53473A42430A0075
:100520005453463A4D53473A4543484F0A002154E5
:1005300053463A4D53473A504F4E47205245435643
:100540002C494E4143544956450A005453463A4DAE
:1005500053473A504F4E4720524543562C48503D42
:1005600025750A005453463A4D53473A50494E4771
:1005700045442C49443D25752C48503D25750A00BD
:100580005453463A4D53473A4543484F20524551FC
:100590000A005453463A4D53473A524541442C259C
:1005A000752D25752D25752C733D25752C633D25E1
:1005B000752C743D25752C70743D25752C6C3D256E
:1005C000752C73673D25753A25730A0000000008F5
:1005D000000201000003040700000000000000000A
:1005E000214D434F3A5741493A52433D25750A0040
:1005F000214D434F3A534E443A4E4F4445204E4FBF
:1006000054205245470A0000000000250028002B16
:100610000000000000240027002A00040404040451
:10062000040404020202020202030303030303019F
:100630000204081020408001020408102001020476
:1006400008102000AC1A301C11241FBECFEFD8E0D8
:10065000DEBFCDBF12E0A0E0B1E0EAE1FDE402C000
:1006600005900D92A832B107D9F723E0A8E2B2E0D5
:1006700001C01D92AA3DB207E1F713E0C3E2D3E047
:1006800004C02197FE010E943F26C232D107C9F75C
:100690000E942A1B0C9480260C940000EFEEF2E0DE
:1006A000A089B18982E08C93A485B5851C92A6852A
:1006B000B78580E18C93108EA489B58986E08C93F0
:1006C000A289B3898C9180618C93A289B3898C9122
:1006D00088608C93A289B3898C9180688C930288FE
:1006E000F389E02D80818F7D8083089590E0FC0167
:1006F000E15DF94F2491855E994FFC018491882337
:1007000099F090E0880F991FFC01EF5EF94FA591D9
:10071000B491FC01E95FF94F859194918FB7F894FA
:10072000EC91E22BEC938FBF0895942FE4E9F3E072
:100730003091EB0231838283668325834481487F35
:10074000492B477E4483CF010895AF92BF92CF9249
:10075000DF92EF92FF920F931F93CF93DF936C0181
:100760007B018B01040F151FEB015E01AE18BF0862
:10077000C017D10759F06991D601ED91FC91019014
:10078000F081E02DC6010995892B79F7C501DF912C
:10079000CF911F910F91FF90EF90DF90CF90BF907E
:1007A000AF900895FC01538D448D252F30E0842FA8
:1007B00090E0821B930B541710F0CF960895019789
:1007C0000895FC01918D828D981761F0A28DAE0F76
:1007D000BF2FB11D5D968C91928D9F5F9F73928FFD
:1007E00090E008958FEF9FEF0895FC01918D828D29
:1007F000981731F0828DE80FF11D858D90E00895F6
:100800008FEF9FEF0895FC01918D228D892F90E04D
:10081000805C9F4F821B91098F73992708958FEEFB
:1008200092E00E94030421E0892B09F420E0822F4A
:100830000895FC01A48DA80FB92FB11DA35ABF4F75
:100840002C91848D90E001968F739927848FA689CF
:10085000B7892C93A089B1898C91837080648C9323
:10086000938D848D981306C00288F389E02D8081D2
:100870008F7D80830895EF92FF920F931F93CF9304
:10088000DF93EC0181E0888F9B8D8C8D98131AC0CB
:10089000E889F989808185FF15C09FB7F894EE89B2
:1008A000FF896083E889F98980818370806480830F
:1008B0009FBF81E090E0DF91CF911F910F91FF905A
:1008C000EF900895F62E0B8D10E00F5F1F4F0F7302
:1008D0001127E02E8C8D8E110CC00FB607FCFACFBD
:1008E000E889F989808185FFF5CFCE010E9419043E
:1008F000F1CFEB8DEC0FFD2FF11DE35AFF4FF0828E
:100900009FB7F8940B8FEA89FB8980818062CFCFF3
:100910000F931F93CF93DF938C01D0E0C0E0F801D9
:10092000EC0FFD1F6491662341F08FEE92E00E9470
:100930003B04892B11F02196F2CFCE01DF91CF91AC
:100940001F910F910895CF93DF93EC01888D882339
:10095000B9F0AA89BB89E889F9898C9185FD03C022
:10096000808186FD0DC00FB607FCF7CF8C9185FF07
:10097000F2CF808185FFEDCFCE010E941904E9CF2F
:10098000DF91CF91089580E090E0892B29F00E94BB
:100990000F0481110C940000089590E0FC01E453D1
:1009A000FA4F2491FC01E15DF94F3491FC01E55EC1
:1009B000F94FE491EE23C9F0222339F0233001F1FD
:1009C000A8F4213019F1223029F1F0E0EE0FFF1FD9
:1009D000E95FF94FA591B4918FB7F894EC9161114B
:1009E00026C030953E233C938FBF08952730A9F051
:1009F0002830C9F0243049F7809180008F7D03C0F2
:100A0000809180008F7780938000DFCF84B58F77CF
:100A100084BDDBCF84B58F7DFBCF8091B0008F7715
:100A20008093B000D2CF8091B0008F7DF9CF3E2B64
:100A3000DACF2091310190E4299F900111248E504A
:100A4000822B80937C0080917A00806480937A006E
:100A500080917A0086FDFCCF80917800909179009A
:100A600008953FB7F8948091B1029091B202A0919D
:100A7000B302B091B40226B5A89B05C02F3F19F070
:100A80000196A11DB11D3FBFBA2FA92F982F88270E
:100A9000BC01CD01620F711D811D911D43E0660FE8
:100AA000771F881F991F4A95D1F708958F929F92BB
:100AB000AF92BF92CF92DF92EF92FF926B017C01D7
:100AC0000E9431054B015C01C114D104E104F10421
:100AD000B9F00E943105681979098A099B09683EB5
:100AE00073408105910580F321E0C21AD108E10825
:100AF000F10888EE880E83E0981EA11CB11CE4CF9B
:100B0000FF90EF90DF90CF90BF90AF909F908F902D
:100B100008952FB7F8946091AD027091AE02809164
:100B2000AF029091B0022FBF089508952091620204
:100B3000260F3327331F21323105ECF42091860232
:100B4000FC0190E080E0243069F082E00895A091FB
:100B500062022191AC014E5B5D4FA40FB52FB11D18
:100B60002C930196861798F380916202680F609328
:100B7000620280E0089581E0089508958FEF9FEF6D
:100B800008958FEF9FEF089580913B0290E091953B
:100B9000819591090895CF93DF93CB01EA01642FEA
:100BA0000E949605CE01DF91CF910895CF93DF93F8
:100BB0001F92CDB7DEB7698361E0CE0101960E9436
:100BC000960581E090E00F90DF91CF91089590E03D
:100BD00080E008950895FC01838187708860838395
:100BE00084818F71806284836783CF010895FC01C3
:100BF00083818695869586958A3108F089E10895E6
:100C0000E0912E02F0912F02309721F00280F381C3
:100C1000E02D099408950F931F930E948905009178
:100C20003002109131022091320230913302601B68
:100C3000710B820B930B1F910F9108959C01809172
:100C40002E0290912F0282179307F1F090913802B3
:100C50009F719093380230932F0220932E02E091DF
:100C60002E02F0912F02309721F00190F081E02DBB
:100C700009950E9489056093300270933102809338
:100C8000320290933302089580913802805E8093FF
:100C90003802E5CF88E191E00C941E068EBD00007D
:100CA0000DB407FEFDCF8EB508950F931F93CF931C
:100CB000DF93EC018C81829586958770A9F4CE0133
:100CC0000E94F705482F50E0BE01695F7F4F88EB17
:100CD00092E00E944526CE010E94F705E82FF0E041
:100CE000E854FD4F108209C0813071F48F814AE0D1
:100CF00068EB72E090E00E94D01D88EB92E0DF91FB
:100D0000CF911F910F910895823031F44AE068EB42
:100D100072E08F819885EFCF833041F44AE068EB31
:100D200072E08F8198850E94291EE7CF843051F4AC
:100D30006F81788589859A852AE048EB52E00E9488
:100D4000DB1DDBCF853051F46F81788589859A85ED
:100D50002AE048EB52E00E94071ECFCF10E0873018
:100D600071F42B85293008F028E06F81788589851A
:100D70009A8508EB12E042E00E94481CBECFCE01EB
:100D80000E94F705181738F5E12FF0E09F01220FB8
:100D9000331FD901A854BD4FEC0FFD1F8781082ECA
:100DA000000C990B44E0959587954A95E1F78F7073
:100DB0008A3068F4805D8C9327543D4F87818F7013
:100DC0008A3038F4805DF90180831F5FD8CF895C59
:100DD000F2CF895CF8CFE82FF0E0EE0FFF1F80CF55
:100DE000FC0101900020E9F73197AF01481B590B36
:100DF000BC018FEE92E00C94A503CF93DF930E9489
:100E00008804EC018CE591E00E94F0068C0F9D1F98
:100E1000DF91CF9108958F929F92AF92BF920F93DF
:100E20001F93CF93DF93CDB7DEB7A1970FB6F8949A
:100E3000DEBF0FBECDBF19A2423008F44AE08E01DA
:100E40000F5D1F4F842E912CB12CA12CA501940174
:100E50000E94CA24E62FB901CA01EA30F4F4E05D29
:100E6000D801EE938D01232B242B252B79F790E0CD
:100E700080E0109719F0CD010E94F006A1960FB600
:100E8000F894DEBF0FBECDBFDF91CF911F910F91C0
:100E9000BF90AF909F908F900895E95CE1CFCF9382
:100EA000C82F80EC94E00E9488046C2F70E090E0E2
:100EB00080E04AE00E940B078EEB94E0CF910C9407
:100EC00088040F931F93CF93DF93EC018B01E0E035
:100ED0006115710549F0FB0101900020E9F7319798
:100EE000E61BEA3108F0E9E18B81877098E0E99F21
:100EF000F0011124E82BEB838C818F718C83CE0160
:100F00000E94F705482F50E0B801CE0107960E94D5
:100F10004526CE010E94F7058C0F9D2F911DFC01E7
:100F20001782CE01DF91CF911F910F9108951F93EA
:100F3000CF93DF9385ED8093BC0080913E0290912A
:100F40003F02A0914002B09141020796A11DB11D40
:100F500023E0B695A795979587952A95D1F7209187
:100F6000BC0024FD03C01092860252C040913E0294
:100F700050913F026091400270914102452B462BF7
:100F8000472B69F30097A105B10541F02AE12A95A5
:100F9000F1F700C00197A109B109E1CF80913D02AD
:100FA000C1E0C0933C02882399F1D091B800109120
:100FB000BA008091BC008A7B8093BC0060E082E133
:100FC0000E94CD0460E083E10E94CD04109286026D
:100FD000C09388021092870261E082E10E94CD04F2
:100FE00061E083E10E94CD048091B9008E7F8093FF
:100FF000B9008091B9008D7F8093B90080E2809321
:10100000B80085E48093BC001093BA00D093B80078
:10101000DF91CF911F910895FC012481229526959F
:101020002770213011F487810895211104C007969B
:101030000E948B1D089580E00895DF92EF92FF9249
:101040000F931F93CF93DF93FC01248124FD09C0EC
:10105000EC0186818A3F69F08D819EEF980F923076
:1010600020F1DF91CF911F910F91FF90EF90DF90D2
:1010700008958581823081F710910301CF010E948C
:101080000C0861E0811101C060E0161751F3609314
:10109000030181E08093040187E992E00E945724D4
:1010A000809104018111DDCFD7CF0091920310917F
:1010B00093039E81F80123819217C1F12485921335
:1010C000D0CF91E0E92EF12C8330A9F1CE010E941E
:1010D0000C0899E09E9DF0019F9DF00D1124E00FFA
:1010E000F11F85839781891709F4BBCF882301F10C
:1010F000808591851816190614F084E690E029E0A1
:101100002E9DF0012F9DF00D1124E00FF11F91870E
:10111000808789E08E9DF0018F9DF00D1124E00FF6
:10112000F11F81E08683F80180839BCF90E0CACFD6
:1011300090E080E0E4CFDFB6F8948C8182958695CC
:1011400087708230C1F48F81988585369105ECF4E3
:1011500097FF02C090E080E029E02E9DF0012F9DD6
:10116000F00D1124E00FF11F208531852817390774
:1011700079F4DFBE76CF811105C0CE0107960E94BB
:101180008B1DE3CF90E080E0E3CF84E690E0E4CFF6
:1011900021E0181619060CF020E0258329E02E9D89
:1011A000F0012F9DF00D1124E00FF11F9187808732
:1011B000DFBEAFCFCF93DF93FC011082118212828A
:1011C000148215821682DC0117968AE1ED011992CC
:1011D0008A95E9F782E08383DF91CF910895BF92EA
:1011E000CF92DF92EF92FF920F931F93CF93DF93F3
:1011F0007B01042FB22E90E59CBD1DBC2A98E0E136
:10120000F0E03197F1F70E944E06182FE7010150E8
:10121000A8F0BB2051F08FEF0E944E06182FE1146A
:10122000F104A9F388832196F2CF6E018FEFC81ADB
:10123000D80A88810E944E06E601E9CF2A9A80E109
:1012400090E00197F1F7812FDF91CF911F910F91DE
:10125000FF90EF90DF90CF90BF900895CF93DF93F2
:101260001F92CDB7DEB7698320E041E0BE016F5F1A
:101270007F4F0E94EF080F90DF91CF9108956FE0AC
:1012800080E20E942E09609113016F3F19F08AE2FB
:101290000E942E09299A089521E041E070E060E063
:1012A0000C94EF0886E00E944C09853231F485E009
:1012B0000E944C0991E08C3409F090E0892F089548
:1012C00020E040E070E060E00C94EF08EF92FF92C5
:1012D0000F931F93CF93DF93CDB7DEB7C857D109D4
:1012E0000FB6F894DEBF0FBECDBF8E010F571F4F54
:1012F000F801E190F1908F010E9489054AE00E9477
:101300000B078FE591E00E94F0069801A70168E7BE
:1013100070E0CE0101960E94431ECE0101960E940C
:10132000F0068FEE92E00E94A304C858DF4F0FB67C
:10133000F894DEBF0FBECDBFDF91CF911F910F910B
:10134000FF90EF9008959F92AF92BF92CF92DF925D
:10135000EF92FF920F931F93CF93DF93F82EEB0141
:101360008091EB0288838B8100E282FD05C0CB0176
:101370000E94F70507E0080F8091EE0211E080FD62
:1013800003C08FEFF81210E0209709F4BBC0299832
:1013900080E091E00197F1F76EE080E20E942E0973
:1013A00084EC90E00197F1F76F2D8AE20E942E09FC
:1013B0006F2D80E30E942E0981EE0E9460091123A7
:1013C00021F060E584E20E942E0920E0402FBE015A
:1013D00080EA0E94EF08299AD12CC12C8FEF0E943D
:1013E0006009807349F49FEFC916D90629F0A895C2
:1013F0008FEFC81AD80AF2CF299860E787E20E94D7
:101400002E09082F84FF03C081EE0E94600911237A
:1014100021F06FE584E20E942E090E943F0905FD3C
:1014200073C0012F8C818770833039F48D8121E660
:10143000A22E21E0B22E813121F0CE010E9455066C
:101440005C019CE6C92E91E0D92E002321F089E6AB
:10145000C82E81E0D82E809139028F70982EEB80B3
:10146000E2FAEE24E0F8CE010E94F7059C81F92F04
:10147000F295F695F770ED8197707E816A815881BB
:10148000498121E731E0111106C023E731E0002353
:1014900011F02EE531E0BF92AF92DF92CF921F9212
:1014A0009F921F92EF921F928F931F92FF931F9212
:1014B000EF931F929F931F927F931F926F931F92A0
:1014C000FF921F925F931F924F933F932F9381E15F
:1014D00093E09F938F930E9466098DB79EB74E96B7
:1014E0000FB6F8949EBF0FBE8DBF802FDF91CF91B6
:1014F0001F910F91FF90EF90DF90CF90BF90AF9032
:101500009F90089500E08ECF01E08CCF0F931F9342
:10151000CF93DF938C01FC0182819091380290FF80
:1015200012C08F3F09F443C08DEE92E09F938F93DA
:101530000E9466090F900F90C0E08C2FDF91CF9131
:101540001F910F910895D091EC028823D9F08F3F1D
:1015500071F1B8010E94A309C82F882349F08DEDCD
:1015600092E09F938F930E9466090F900F90E5CFB2
:101570008AEC92E09F938F930E946609D091EC02CF
:101580000F900F90B8018D2F0E94A309C82F809152
:10159000EC028D13D2CF80913902C1110AC091E0C3
:1015A000980F9F70807F892B80933902C6CFDFEF21
:1015B000E9CF807F80933902C1E0BFCF209138020C
:1015C00022FD0C94860A83E093E09F938F930E9400
:1015D00066090F900F9080E008951F93CF93DF93DB
:1015E000182F262FEA0150E040E0682F80E00E948B
:1015F00095031F3F11F4C5E7D1E0BE010E946107CA
:10160000DF91CF911F910C94DE0AFC018091EB02D7
:1016100081839481907F996094838091B70280FF49
:1016200003C0CF010C94DE0A80EF95E09F938F9367
:101630000E9466090F900F9080E00895FF920F932B
:101640001F93CF93DF93CDB7DEB7A1970FB6F89472
:10165000DEBF0FBECDBFF82E8B01CE0101960E94DA
:10166000DA08FF8282E08E83F8016081CE01019664
:101670000E94EB050E94050BA1960FB6F894DEBF01
:101680000FBECDBFDF91CF911F910F91FF900895B5
:10169000FF920F931F93CF93DF93CDB7DEB7A19740
:1016A0000FB6F894DEBF0FBECDBFF82E8B01CE0172
:1016B00001960E94DA08FF8283E08E83F801208180
:1016C00031818C81877080618C838D818F71806482
:1016D0008D8339872887CE0101960E94050BA1963C
:1016E0000FB6F894DEBF0FBECDBFDF91CF911F9133
:1016F0000F91FF900895EF92FF920F931F93CF9356
:10170000DF93CDB7DEB7A1970FB6F894DEBF0FBE5B
:10171000CDBFE82EF62E8A01CE0101960E94DA088E
:10172000EF82FE82F801208131818C818770806197
:101730008C838D818F7180668D8339872887CE0158
:1017400001960E94050BA1960FB6F894DEBF0FBE5E
:10175000CDBFDF91CF911F910F91FF90EF90089532
:101760002F923F924F925F926F927F928F929F92B1
:10177000AF92BF92CF92DF92EF92FF920F931F939F
:10178000CF93DF9300D000D0CDB7DEB78091280192
:101790008F3F09F484C082E0C82ED12C93E0A92E9B
:1017A000B12C27E1222E312C31E2432E512C45E27F
:1017B000642E712C56E0852E912C80912801873063
:1017C00008F002C1833009F491C070F4813091F1C6
:1017D000823009F47BC083E993E00E94FD068FEE1E
:1017E00092E00E94A3045BC08530F1F008F4B4C01D
:1017F000863089F78EEF8B835A82498242EB51E023
:10180000BE016F5F7F4FCE0103960E945810882360
:1018100009F445C07A826982BE016F5F7F4FCE01B5
:101820000396CFC0FF2041F0809128018F5F809305
:101830002801C3CF09EE13E064E670E080E090E099
:101840000E94E20F2BE043E050E06FEF80E00E9447
:1018500095036BE771E00E9461070E94DE0AF82E93
:101860002CE043E050E06FEF80E00E9495036BE8CE
:1018700071E00E9461070E94DE0AF82201501109FE
:1018800089F68BE793E00E9488048BE791E00E9441
:10189000F00689E793E00E948804F110C5CF0F900D
:1018A0000F900F900F90DF91CF911F910F91FF90AC
:1018B000EF90DF90CF90BF90AF909F908F907F90F0
:1018C0006F905F904F903F902F9008959A828982F9
:1018D0008DEF8B834FE851E0BE016F5F7F4FCE01EC
:1018E00003960E94581081119FCFD9CFE0909203A8
:1018F000F090930387010D5F1F4F85E1E80EF11C07
:1019000084E090E09A83898348E951E0BE016F5FEB
:101910007F4FC8010E945810882309F4C0CFDA8293
:10192000C982BE016F5F7F4FC8010E9421108823CA
:1019300009F4B5CFBA82A982BE016F5F7F4FC8019B
:101940000E942110882309F4AACF075F1F4F0E15AC
:101950001F0509F469CFD4CF8AEF8C838BEF8B837B
:1019600080E190E09A83898350E040E0BE016F5FA0
:101970007F4FCE0103960E945810882309F48FCF21
:101980003A822982BE016F5F7F4FCE0103960E948B
:101990002110882309F483CFBA82A98246EA51E054
:1019A000BE016F5F7F4FCE0104960E9458108823BE
:1019B00009F475CFDA82C982BE016F5F7F4FCE0115
:1019C00004960E9421108FCF8FEF8093280167CF5C
:1019D0002FE043E050E06FEF80E00E9495036EE55A
:1019E00071E00E946107E4E9F3E083818770806120
:1019F000838384818F71806C848381E087831086E8
:101A0000CF010E94DE0A8FE00E94950F4EE551E063
:101A100061E170E08FEF0E94ED0A26E043E050E0C4
:101A20006FEF80E00E9495036091EC020E94EB054D
:101A30000E94DE0A86E00E94950F0C94B00B2F9254
:101A40003F924F925F927F928F929F92AF92BF92FE
:101A5000CF92DF92EF92FF920F931F93CF93DF937A
:101A6000CDB7DEB7A1970FB6F894DEBF0FBECDBFDE
:101A700086E0E82E22242A9492E0392E93E0492E23
:101A8000532C2BE4822E25E0922E87E10E944C09F4
:101A900080FD10C2EA94EE2009F40CC221E041E07E
:101AA00070E060E080E60E94EF08182F813220F09D
:101AB00082EE0E94600910E021E0412F65EB73E0A7
:101AC00081E60E94EF0860E487E20E942E0981E22D
:101AD000E5EBF3E0DE01119601900D928A95E1F7B6
:101AE0000C81802F8370823081F6CE0101960E9496
:101AF000F70502FD89E1895F1813C7CF85EB93E0F5
:101B00000E94F705782E0091B90307701091BA036F
:101B1000F090B603D090B503C090B703033021F422
:101B200081E691E0113121F085EB93E00E945506AA
:101B3000A72CB12C9F938F938091B80382FB8827A9
:101B400080F91F928F931F927F928091B9038295A3
:101B5000869587701F928F931F921F931F920F93EA
:101B60008091BB031F928F931F92CF921F92DF929F
:101B70001F92FF9222E935E03F932F930E9466095E
:101B8000809139028068809339020FB6F894DEBFE5
:101B90000FBECDBF8091EB02C8124BC1F501EB54D3
:101BA000FC4F17828091B90383FF21C080E895E044
:101BB0009F938F930E94660981E2E5EBF3E0A4E92D
:101BC000B3E001900D928A95E1F780919803877EAA
:101BD0008061809398038091EB0280939503F0924B
:101BE000960384E993E00E94DE0A0F900F90909193
:101BF000B90394FD15C1033009F00AC18091BA03FD
:101C000021EF280F233008F440CF143009F43DCFE2
:101C1000183109F585EB93E00E940C081F928F9311
:101C20001F92FF9284E695E09F938F930E9466092E
:101C300029E143E050E06FEF8F2D0E94950361E0B2
:101C40000E94EB050E94860A0F900F900F900F9054
:101C50000F900F901ACF1931F9F48091380283FF59
:101C600014C0877F8093380285EB93E00E940C08B4
:101C700080933A021F928F939F928F920E946609DF
:101C80000F900F900F900F9000CF8EE295E09F93F2
:101C90008F930E9466090BC11E3109F4F6CE1D31E7
:101CA000C1F42FE143E050E06FEF80E00E94950324
:101CB000FC01838187708061838384818F7180645C
:101CC000848380E09FEF90878783CF010E94860AFC
:101CD000DCCE2091B6032111A0C08D3059F488E1EB
:101CE00098E00FB6F894A895809360000FBE90938B
:101CF0006000FFCF8B31A9F485EB93E00E940C08C4
:101D000091E0811101C090E08091B70290FB80F9D1
:101D10008093B7021F929F9328ED34E03F932F9357
:101D2000ADCF863099F49091BC0381E0992319F0EE
:101D30009D3409F080E08093B60241E050E063E01A
:101D400071E086EB92E00E9447249FCE833119F424
:101D50000E94E80C9ACE8231E1F40E940B065B01EE
:101D60006C0126E143E050E06FEF80E00E949503B4
:101D7000FC01838187708062838384818F71806A94
:101D80008483A782B086C186D286CF010E94DE0AF4
:101D90007CCE8230A9F422E043E050E06FEF80E097
:101DA0000E949503FC018381877080628383848114
:101DB0008F71806A84832782308641865286E5CF80
:101DC000813001F520E030E0232B09F45ECE9295BE
:101DD00096959770953059F46091BC037091BD034E
:101DE0008091BE039091BF030E9400004ECE9111DE
:101DF00005C08CEB93E00E94A91DF6CF60E070E077
:101E0000CB01F2CF8A3009F440CE8C3109F43DCEBB
:101E100085EB93E00E941D0838CE8A31C9F735CE94
:101E200080E295E09F938F930E9466090F900F9038
:101E3000EFCF3FEF8DEE94E0C31229CF84E195E020
:101E40009F938F930E9466090F900F90033009F5BE
:101E50008091380282FF03C0173009F416CE143186
:101E600009F013CE8091EC02D8120FCE0E948905A2
:101E70007370882799270E94560525E143E050E0BA
:101E80006FEF8F2D0E9495036091EC020E94EB058D
:101E90001DCF8091EC02D812F8CD84E095E09F939D
:101EA0008F930E94660985EB93E00E941D080F90B6
:101EB0000F90EBCDA1960FB6F894DEBF0FBECDBF4D
:101EC000DF91CF911F910F91FF90EF90DF90CF9016
:101ED000BF90AF909F908F907F905F904F903F907A
:101EE0002F90089580912902882361F01F928F938B
:101EF00089E693E09F938F930E9466090F900F905D
:101F00000F900F90809129028F5F80932902A895EE
:101F10000E9400068091380284FD0E941F0D80916E
:101F200029028150809329020895CF92DF92EF9287
:101F3000FF92CF93DF93D82F8091B502882361F071
:101F40001F928F9380EE95E09F938F930E94660976
:101F50000F900F900F900F908091B5028F5F80933C
:101F6000B5020E9489056B017C018091B9038760ED
:101F70008093B903C0E00E9489056C197D098E0920
:101F80009F09603D77408105910578F4C1110DC02E
:101F90000E94720F8091B9038770833061F7C1E0AE
:101FA0008091BA038D13E6CFE6CF8091B5028150C0
:101FB0008093B5028C2FDF91CF91FF90EF90DF904F
:101FC000CF9008958F929F92AF92BF92CF92DF925F
:101FD000EF92FF924B015C018091B502882361F082
:101FE0001F928F9387EA93E09F938F930E946609D5
:101FF0000F900F900F900F908091B5028F5F80939C
:10200000B5020E9489056B017C010E9489056C194B
:102010007D098E099F09681579058A059B0518F4C5
:102020000E94720FF2CF8091B50281508093B50269
:10203000FF90EF90DF90CF90BF90AF909F908F90E8
:102040000895CF92DF92EF92FF920F931F93CF9359
:10205000DF937C016B01C9EED3E0F6010081F7014B
:10206000108164E670E080E090E00E94E20F202F93
:1020700042E050E0612F80E00E9495036EE571E040
:102080000E9461070E94DE0A182F219729F4F701A8
:1020900080810E944F0702C01123F9F2812FDF9146
:1020A000CF911F910F91FF90EF90DF90CF90089507
:1020B0008F929F92AF92BF92CF92DF92EF92FF9258
:1020C0000F931F93CF937C015B016A0109EE13E02C
:1020D000F50180809180F701C08164E670E080E0C6
:1020E00090E00E94E20FA601C114D10411F44EE564
:1020F00051E0B4018C2F0E94ED0AC82F0150110944
:1021000029F4F70180810E944F0702C0CC2301F31C
:102110008C2FCF911F910F91FF90EF90DF90CF9078
:10212000BF90AF909F908F9008957F928F929F92D3
:10213000AF92BF92CF92DF92EF92FF920F931F93D5
:10214000CF93DF938C017B01FB018081F80199E043
:10215000899FE00DF11D11248085918522853385AD
:10216000821B930B97FD47C081E099E0A92EC82EF2
:10217000880FDD08F7018081F801A89EE00DF11DB0
:10218000112482859385208531858217930709F470
:1021900076C08C0D9D1D93878287F7018081480151
:1021A000A89E800C911C1124F40162857385072E72
:1021B000000C880B990B0E94362320E030E048EC9D
:1021C00052E40E94682520E030E04FE753E40E948B
:1021D00071230E94DA25B62E772EC62FD72FF40151
:1021E0009480892D0E947603209739F460E0892D30
:1021F0000E94CD0430C08FEFB8CFCF3FD10511F48E
:1022000061E0F5CFE92DF0E0E453FA4FE491E330DB
:1022100009F448C040F4E130D1F0E230F1F1C038C7
:10222000D10574F7E3CFE73009F448C0E83009F48A
:102230004DC0E430A1F780918000806280938000DF
:102240008B2D972D90938B0080938A0004C084B5CA
:10225000806884BDB7BC6AE070E080E090E00E94D6
:10226000E20FF7018081F801A89EE00DF11D112415
:102270008285938501978336910508F47BCFDF91A2
:10228000CF911F910F91FF90EF90DF90CF90BF9073
:10229000AF909F908F907F90089584B5806284BDA9
:1022A000B8BCD9CF809180008068809380008B2D4E
:1022B000972D9093890080938800CDCF8091B000B6
:1022C00080688093B000B092B300C5CF8091B00019
:1022D00080628093B000B092B400BDCFDF92EF92E5
:1022E000FF920F931F93CF93DF931F92CDB7DEB76B
:1022F0008C017B010E949510F701808199E0D92E15
:10230000F801D89EE00DF11D1124838190E06581D4
:1023100083569E4F0E945724F7018081282F30E07A
:10232000F801D89EE00DF11D112481E095819111F5
:1023300001C080E0898389E0D82ED29EF001D39E2F
:10234000F00D1124E00FF11FBE016F5F7F4F8381FD
:102350000E941E0BF70180818D9DC0011124BC01DC
:10236000685F7F4F600F711F080F191FF80183818D
:102370000E94480B0F90DF91CF911F910F91FF901A
:10238000EF90DF9008952F923F924F925F926F925D
:102390007F928F929F92AF92BF92CF92DF92FF92E5
:1023A0000F931F93CF93DF93CDB7DEB7A1970FB6EF
:1023B000F894DEBF0FBECDBF809128018F3FE1F1C1
:1023C0000E94B00B809128018F3FC1F00CE310E018
:1023D0000150110959F084EC93E00E94880464EFE5
:1023E00071E080E090E00E94E20FF2CF87EB93E093
:1023F0000E94FD068FEE92E00E94A30468EE73E057
:1024000080E090E00E94E20FA1960FB6F894DEBF44
:102410000FBECDBFDF91CF911F910F91FF90DF9045
:10242000CF90BF90AF909F908F907F906F905F9074
:102430004F903F902F9008958091380282FFA2C262
:1024400080912A0290912B026CE370E00E9410268A
:10245000892B29F080910501882309F44DC08FE074
:102460000E941905209108013091090128173907A8
:1024700014F4821B930B2091060130910701281759
:10248000390771F097FD0CC0909307018093060106
:10249000863091050CF084C010920B0110920A0155
:1024A00080910A0190910B0120910C0130910D0156
:1024B00028173907E1F090930D0180930C01A0914A
:1024C0000601B091070124E630E00E94382624E896
:1024D00033E040E050E00E9469243A832983AE0152
:1024E0004F5F5F4F67E170E08BEF0E947B0B809145
:1024F000050181111092050180910401882339F0B2
:102500001092040163E071E08AEF0E941E0B0091BB
:1025100092031091930380912A0290912B0261E41F
:1025200070E00E941026892B09F0CAC0198299E038
:10253000F92E24E6222E312C412C512C39E1A32EE8
:10254000B12C44E6842E912C55E5652E712C8981A1
:10255000823008F0B5C0C82ED12CF801F89EE00DED
:10256000F11D112485818823B9F0D80111962D9190
:102570003C91D9018C91882379F017968D919C918B
:102580008330910509F47BC090F58130910509F401
:102590008EC0029709F480C089818F5F8983D7CF6D
:1025A000833391053CF481E090E090930B0180939C
:1025B0000A0176CF873991051CF482E090E0F5CFCF
:1025C0008D3221E092071CF483E090E0EECF853F4E
:1025D000A1E09A071CF484E090E0E7CF8D3B9240A5
:1025E0001CF485E090E0E1CF86E090E0DECF85301E
:1025F000910599F0B8F1069779F6A085B185AA31D1
:10260000B105F4F4B186A086FC9CF001FD9CF00DB0
:102610001124E00FF11F858103C01186108680E030
:10262000FC9CF001FD9CF00D1124E00FF11F85834F
:102630008783BE016F5F7F4FC8010E946E11ACCFD0
:1026400029E130E00E943826A20191010E9469240C
:10265000FC9CF001FD9CF00D1124E00FF11F31876F
:102660002087D2CFA085B185AE32B1052CF48DE2A2
:1026700090E091878087C8CF2DE230E0E3CFA0853E
:10268000B185A234B1052CF4A1E4B0E0B187A087F4
:10269000BBCF21E430E0D6CFA085B185A635B1050A
:1026A0001CF471866086B0CF25E530E0CBCF808505
:1026B00091858436910509F46FCF91868086A4CFE9
:1026C000F8018081882309F458C01082198289E0BA
:1026D000F82EDD24D3948981823008F04EC0F801B1
:1026E000F89EE00DF11D112486818823C1F08581BB
:1026F00097818917C1F08783BE016F5F7F4FC80143
:102700000E946E118981F801F89EE00DF11D1124DF
:10271000168262E370E080E090E00E94E20F89811F
:102720008F5F8983D8CF811108C080859185181665
:10273000190664F4D582D782DFCF813039F48085E1
:102740009185892B19F415821782D6CFBE016F5F50
:102750007F4FC8010E94951089818F9DC00111246F
:10276000BC01685F7F4F600F711F800F911FDC01FC
:1027700013968C910E94480BC5CF00919003109145
:10278000910380912A0290912B0267EB70E00E94E6
:102790001026892B29F0F8018081882309F455C07F
:1027A00088EC80937C0080917A00806880937A0026
:1027B00064E170E080E090E00E94560580917A002C
:1027C000806480937A0080917A0086FDFCCF6091CE
:1027D00078007091790090E080E00E9434232EEA26
:1027E00037E242EA53E40E94FB2426EF38E24CE948
:1027F0005FE30E9468250E94DA25613811F1D80153
:1028000011968C9111978617E1F011966C93CE0179
:1028100001960E94DA088DEF8F831E82F8012181D4
:10282000022E000C330B8C81877080618C838D812C
:102830008F7180648D8339872887CE0101960E942D
:10284000050BD8018C9181111C92C0908E03D09001
:102850008F0380912A0290912B0265EB70E00E9419
:102860001026892B21F0F6018081882351F18EE01A
:102870000E9419056AE070E00E9424268B016536EB
:10288000710514F004E610E017FF02C010E000E04C
:10289000D60111968C9111978017110671F011963F
:1028A0000C9320E043E050E06FEF80E00E9495033E
:1028B000602F0E94EB050E94DE0AF60180818111E3
:1028C000108200918C0310918D0380912A029091C7
:1028D0002B0266EB70E00E941026892B21F0D801B4
:1028E0008C918823E1F188E00E944C098F7023EEDF
:1028F0003FEFB8E08B9F201931091124032E000C03
:10290000440B550B2B5A3F4F4F4F5F4FA4E6B0E09F
:102910000E9488242DE230E040E050E00E946924CB
:102920002536310514F024E630E037FF02C030E0F0
:1029300020E0F801818192812817390761F0328304
:1029400021833A832983AE014F5F5F4F65E270E0D8
:102950008EEF0E947B0BD8018C9181111C9280918B
:102960002A0290912B0201968036BAEE9B0728F43A
:1029700090932B0280932A0241CD10922B02109249
:102980002A023CCD60E177E280E090E00E94E20F15
:1029900035CDCF938091B70281FD28C00E94E80C0D
:1029A0008CE593E09F938F930E9466098091B70214
:1029B00081608093B7020F900F90C4E02AE143E05A
:1029C00050E06FEF80E00E94950362E00E94EB050B
:1029D0000E94DE0A8BE10E94950F811102C0C15056
:1029E00069F78091B70282608093B702CF91089512
:1029F0000F931F930E940B062091390220772037F6
:102A0000B9F000E117E220E030E0061717072807C9
:102A1000390798F488EB92E09F938F930E946609A0
:102A20000F900F9089E291E01F910F910C941E0678
:102A300000E61AEE20E030E0E8CF1F910F910895F4
:102A400080913902982F9077903759F0982F92956E
:102A50009F709F5F97709295907F8F78892B80935E
:102A6000390280913902829587701F928F9387EA8D
:102A700092E09F938F930E946609809138028B7F2A
:102A80008F7E8093380289E992E09F938F930E9412
:102A900066098CE892E09F938F930E9466092998BB
:102AA0008DB79EB708960FB6F8949EBF0FBE8DBF28
:102AB0006CE080E20C942E09809139028F70863090
:102AC00068F081E792E09F938F930E94660980915E
:102AD0003902807F809339020F900F900895809182
:102AE000ED021F928F938091EC021F928F93809141
:102AF000EB021F928F9382E592E09F938F930E9447
:102B0000660980913802846080933802809139028E
:102B1000807880933902E0912C02F0912D028DB7DC
:102B20009EB708960FB6F8949EBF0FBE8DBF309724
:102B300009F00994089580913A028F3F81F10E9433
:102B40008905609334027093350280933602909326
:102B5000370286E492E09F938F930E9466099091DA
:102B60003A028091ED020F900F909817A1F01F92FA
:102B70009F931F928F938EE292E09F938F930E9478
:102B8000660980913A028093ED020F900F900F90AA
:102B90000F900F900F9084E291E00C941E060E941B
:102BA0000B06613D774081059105B8F080913802B0
:102BB000803618F480E291E0F0CF8FE192E09F93AD
:102BC0008F930E94660980913802877F8093380234
:102BD0000F900F908CE191E0E0CF089586E192E0B4
:102BE0009F938F930E9466098FEF80933A02E8E3E8
:102BF000F2E080818860808328E143E050E06FEF5D
:102C000080E00E94950361E00E94EB050F900F9019
:102C10000C94860A8091EB028F3F61F08BE092E08A
:102C20009F938F930E9466090F900F9080E291E02E
:102C30000C941E060E940B06613D774081059105AC
:102C400090F080913802803618F488E191E0F0CF5E
:102C50008DEF91E09F938F930E9466090F900F90E4
:102C600084E191E0E5CF089585EF91E09F938F9304
:102C70000E9466090F900F908091EB028F3FA9F49C
:102C800089EE91E09F938F930E94660923E043E0D1
:102C900050E06FEF80E00E9495036EE571E00E94C6
:102CA00061070F900F900C94860A0895CF93DF93DD
:102CB0008FED91E09F938F930E946609C8E3D2E065
:102CC00088818B7F8D7F88831F921F928CEC91E08F
:102CD0009F938F930E94660988818E7F8883EBEE95
:102CE000F2E081E0828311820F900F900F900F909D
:102CF0000F900F9060E081E090E0DF91CF910C9415
:102D00005724CF93219A229A29982A9ACFB7F894D8
:102D100080912802811124C0E5E2F6E08491E9E384
:102D2000F6E09491E82FF0E0EE0FFF1FEF5EF94F11
:102D3000A591B491EC91E92321F461E08AE00E942D
:102D4000CD048AE00E9476038CB580618CBD8CB581
:102D500080648CBD8DE00E9476038BE00E94760338
:102D6000809128028F5F80932802CFBF29986EE060
:102D700080E20E942E0984E293E20197F1F763E07A
:102D800083E20E942E096FE584E20E942E096CE422
:102D900085E20E942E0965E286E20E942E0964E027
:102DA0008DE30E942E098DE10E944C09843041F090
:102DB00063E780E50E942E0964E08DE30E942E09FE
:102DC0000E94520981110DC08CE691E09F938F9370
:102DD0000E9466090F900F9084E191E0CF910C94CE
:102DE0001E0662E082E20E942E0960E081E20E94FB
:102DF0002E0963E08CE30E942E098FEF80930E0171
:102E000020E045E06EE071E08BE20E94EF0820E0F8
:102E100045E06EE071E08AE20E94EF0820E045E0C4
:102E20006EE071E080E30E94EF0882EE0E9460098C
:102E300081EE0E94600960E787E20E942E098BEB19
:102E400091E09F938F930E94660980913802806180
:102E5000809338028091EE028E7F8093EE021F9263
:102E6000C6E1CF9387EA91E09F938F930E94660912
:102E7000C093EB0266E190E080E00E945724C0918D
:102E8000EB020F900F900F900F900F900F90CF3F8D
:102E900009F18FEF8C0F8E3F00F5C093130163E0B3
:102EA00082E20E942E0961E081E20E942E090E94C6
:102EB0003F096C2F90E080E00E9457241F92CF932F
:102EC00080E891E09F938F930E9466090F900F9086
:102ED0000F900F908CE191E081CF1F921F9282E9B9
:102EE00091E09F938F930E9466090F900F900F902F
:102EF0000F9072CF82E691E09F938F930E946609B4
:102F0000E8E3F2E08081877F8F7E80831092340235
:102F10001092350210923602109237020F900F90E5
:102F200044E050E070E060E08BEE92E00C942F24DF
:102F3000EF92FF920F931F93CF93DF93CDB7DEB73E
:102F400080E091E00E94661C8C019395F80111923B
:102F50008E179F07E1F79E01255F3F4F49855A85F0
:102F60006FEF70E0C8010E9454267801F70161916B
:102F70007F01662329F08FEE92E00E943B04F6CF9A
:102F80000115110519F0C8010E94021DDF91CF91B2
:102F90001F910F91FF90EF900895DF92EF92FF92B3
:102FA0000F931F93CF93DF93CDB7DEB7C555D109EC
:102FB0000FB6F894DEBF0FBECDBF0E944E0325E5CD
:102FC000E2EDF1E0CE010196DC0101900D922A952F
:102FD000E1F71F921F921F921F921F9222E02F93E0
:102FE0002BE831E03F932F932BE731E03F932F9372
:102FF00027EB31E03F932F932DEB31E03F932F935D
:1030000026EC31E03F932F939F938F930E94981764
:103010008FEE92E00E94A3048FE00E9419050FB684
:10302000F894DEBF0FBECDBFF12CE12C10E000E024
:103030000E948905683873418105910598F464E61A
:1030400070E080E090E00E94E20F8FE00E9419059E
:10305000081719072CF08E159F050CF47C01C80188
:103060008C01E6CF0E191F090F3111050CF057C066
:10307000109309010093080187E992E00E943F2420
:1030800091E0811101C090E090930301909192032F
:1030900080919303DFB6F894092F182F7801F2E19D
:1030A000EF0EF11CF801838190E083569E4F0E9441
:1030B0003F24F8018583178291E0811101C090E0DF
:1030C000F8019683811130C090E080E0F80191878B
:1030D00080871386128684810E947603F80184819A
:1030E0008550823020F485B5887F826085BD075F7A
:1030F0001F4F0E151F05B1F6DFBE83E0809331012F
:10310000CB5ADF4F0FB6F894DEBF0FBECDBFDF91B5
:10311000CF911F910F91FF90EF90DF900895109243
:10312000090110920801A8CF84E690E0CFCF1F924A
:103130000F920FB60F9211242F933F934F935F93EB
:103140006F937F938F939F93AF93BF93EF93FF936F
:103150008FEE92E00E941904FF91EF91BF91AF9121
:103160009F918F917F916F915F914F913F912F919F
:103170000F900FBE0F901F9018951F920F920FB6D1
:103180000F9211242F938F939F93EF93FF93E091CE
:10319000FF02F09100038081E0910503F0910603A6
:1031A00082FD1BC09081809108038F5F8F732091F7
:1031B0000903821741F0E0910803F0E0E151FD4F6F
:1031C000958F80930803FF91EF919F918F912F919D
:1031D0000F900FBE0F901F9018958081F4CF1F9213
:1031E0000F920FB60F9211242F933F938F939F93BB
:1031F000AF93BF938091AD029091AE02A091AF02C8
:10320000B091B0023091AC0226E0230F2D3758F573
:103210000296A11DB11D2093AC028093AD02909344
:10322000AE02A093AF02B093B0028091B102909130
:10323000B202A091B302B091B4020196A11DB11DDA
:103240008093B1029093B202A093B302B093B40200
:10325000BF91AF919F918F913F912F910F900FBE92
:103260000F901F90189529E8230F0396A11DB11DFB
:10327000D2CF1F920F920FB60F9211242F933F932C
:103280004F935F936F937F938F939F93AF93BF936E
:10329000EF93FF93E0912F01F09130010995FF9199
:1032A000EF91BF91AF919F918F917F916F915F91BE
:1032B0004F913F912F910F900FBE0F901F90189537
:1032C0001F920F920FB60F9211242F933F934F939B
:1032D0005F936F937F938F939F93AF93BF93EF937E
:1032E000FF93E0912D01F0912E010995FF91EF914F
:1032F000BF91AF919F918F917F916F915F914F910E
:103300003F912F910F900FBE0F901F9018951F9215
:103310000F920FB60F9211242F933F934F935F9309
:103320006F937F938F939F93AF93BF93EF93FF938D
:103330008091B900887F803609F44AC0F0F5883260
:1033400009F4A5C018F5803109F499C0B8F48823B0
:1033500009F4F5C0883009F492C0FF91EF91BF9154
:10336000AF919F918F917F916F915F914F913F911D
:103370002F910F900FBE0F901F901895883109F470
:1033800086C0803251F78093850214C0803409F4DE
:103390009BC040F48033B9F38833F9F680938502FB
:1033A00085ECAEC0803509F483C0883509F494C03B
:1033B000883499F60E949707D0CF883909F48AC0DB
:1033C00038F5883729F050F4883611F0803729F61F
:1033D00083E0809386021092840255C0883809F4F5
:1033E00079C0803919F0803809F0B7CF8091840214
:1033F000803208F06FC0E091840281E08E0F8093EC
:1034000084028091BB00F0E0EC59FD4F80833BC00B
:10341000803B39F0D0F4803A09F477C0883A09F05B
:103420009CCF84E080938602109263021092620225
:10343000F0E0E0E009958091620281110FC081E027
:10344000809362021092420209C0803C09F4A8CF26
:10345000883C09F4A5CF883B09F07FCFE091630257
:1034600081E08E0F80936302F0E0EE5BFD4F808180
:103470008093BB00909163028091620229C0809189
:10348000AB028093BB0085EC8093BC0066CF90912B
:10349000AA028091A902981758F5E091AA0281E04A
:1034A0008E0F8093AA02F0E0E757FD4F8081E9CFAD
:1034B000E091AA0281E08E0F8093AA028091BB0066
:1034C000F0E0E757FD4F80839091AA028091A90216
:1034D0009817C8F285E8D8CFE091AA0281E08E0F54
:1034E0008093AA028091BB00F0E0E757FD4F8083F4
:1034F0008091880281115ECF81E08093870284EA07
:103500008093BC001092860228CF85EC8093BC008B
:103510001092860280918402803230F4E09184021D
:10352000F0E0EC59FD4F10826091840270E084E677
:1035300092E0F0E0E0E00995109284020ECF109244
:10354000850238CF1F920F920FB60F9211240F9061
:103550000FBE0F901F901895CF93EFEEF2E01382FD
:10356000128288EE93E0A0E0B0E084839583A68386
:10357000B7838EE491E09183808385EC90E095871A
:10358000848784EC90E09787868780EC90E0918B2D
:10359000808B81EC90E0938B828B82EC90E0958B1A
:1035A000848B86EC90E0978B868B118E128E138E17
:1035B000148E85EB93E00E94DA0884E993E00E9480
:1035C000DA0885E190E00E94661CC1E0FC01C0833E
:1035D00022E1E8E3F1E0DC01139601900D922A95D7
:1035E000E1F723E031E0FC01328321832FB7F89427
:1035F00090939303809392032FBF82E090E00E9408
:10360000661CFC011182C0832FB7F894909391033C
:10361000809390032FBF82E090E00E94661CFC0123
:103620001182C0832FB7F89490938F0380938E03F9
:103630002FBF83E090E00E94661CFC011282118281
:10364000C0832FB7F89490938D0380938C032FBF82
:10365000CF910895789484B5826084BD84B58160EB
:1036600084BD85B5826085BD85B5816085BD80914D
:103670006E00816080936E001092810080918100C5
:1036800082608093810080918100816080938100BD
:10369000809180008160809380008091B10084607F
:1036A0008093B1008091B00081608093B0008091E0
:1036B0007A00846080937A0080917A00826080939F
:1036C0007A0080917A008E7F80937A0080917A00D0
:1036D000806880937A001092C100A89580E090E005
:1036E000892B11F00E9400000E944E03C0E1D0E03F
:1036F000F12CFE01F595E795E353FC4FE491C0FFF3
:103700009EC0EF70E83008F09FC0F0E0E353FC4F3C
:10371000F4906F2D8FEE92E00E943B042196C23F01
:10372000D10539F786EC93E00E94FD061F928FEFDA
:103730008F931F9288E08F9388E894E09F938F93F4
:103740000E9466098091B7028D7F8093B7028BE754
:1037500094E09F938F930E9466090E94CD1741E0E9
:1037600050E063E071E086EB92E00E942F2460E07D
:1037700081E090E00E945724809139028F788093F5
:10378000390210922F0210922E0289E291E00E94DB
:103790001E0689EC94E190932D0280932C021F92D7
:1037A0001F921F921F9286E494E09F938F930E9432
:1037B00066090E9489058DB79EB70E960FB6F894DC
:1037C0009EBF0FBE8DBF0E9489050E94000680919A
:1037D000380284FD36C08091380282FB882780F948
:1037E000A895882381F38EE694E09F938F930E949F
:1037F0006609909138020F900F9092FB882780F90C
:1038000092FD0E9452091F928F9386E594E09F9348
:103810008F930E946609A8950F900F900F900F90BC
:10382000C0E0D0E00E94720F0E94C3112097D1F334
:103830000E940F048823B1F30E940000F3CFE295A9
:1038400060CF0E941F0DC7CF1BEF1E0F00E06F2D32
:103850008FEE92E00E943B040F5F0117C0F35ECF32
:1038600080918C0390918D030E94021D80918E03A4
:1038700090918F030E94021D80919003909191037B
:103880000E94021D80919203909193030C94021D5B
:10389000EF920F931F93CF93DF93E80134E047FD3E
:1038A00034E1042E000C550B57FF03C05195419590
:1038B0005109E32E022F242FAE010E944920CE0190
:1038C000DF91CF911F910F91EF9008950F931F9368
:1038D000CF93DF938230910510F482E090E0E09185
:1038E000D803F091D90330E020E0B0E0A0E03097B9
:1038F00099F42115310509F44AC0281B390B2430ED
:103900003105D8F58A819B816115710589F1FB012B
:1039100093838283FE0111C0408151810281138112
:1039200048175907E0F04817590799F4109761F0C4
:1039300012960C93129713961C933296CF01DF9137
:10394000CF911F910F9108950093D8031093D9033D
:10395000F4CF2115310551F04217530738F0A90172
:10396000DB019A01BD01DF01F801C1CFEF01F9CF01
:103970009093D9038093D803CDCFFE01E20FF31FBC
:10398000819391932250310939832883D7CF209195
:10399000D6033091D703232B41F420913401309189
:1039A00035013093D7032093D60320913201309113
:1039B00033012115310541F42DB73EB74091360151
:1039C00050913701241B350BE091D603F091D703BA
:1039D000E217F307A0F42E1B3F0B2817390778F0E6
:1039E000AC014E5F5F4F2417350748F04E0F5F1F45
:1039F0005093D7034093D603819391939FCFF0E0E8
:103A0000E0E09CCFCF93DF930097E9F0FC01329781
:103A100013821282A091D803B091D903ED0130E056
:103A200020E01097A1F420813181820F931F209113
:103A3000D6033091D7032817390709F061C0F093F6
:103A4000D703E093D603DF91CF910895EA01CE1713
:103A5000DF07E8F54A815B819E0141155105B1F709
:103A6000E901FB83EA8349915991C40FD51FEC17F3
:103A7000FD0761F4808191810296840F951FE90111
:103A800099838883828193819B838A83F0E0E0E03D
:103A900012968D919C9113970097B9F52D913C91B9
:103AA0001197CD010296820F931F2091D60330917A
:103AB000D7032817390739F6309751F51092D903F3
:103AC0001092D803B093D703A093D603BCCFD3836F
:103AD000C28340815181840F951FC817D90761F4B3
:103AE0004E5F5F4F88819981480F591F51834083F2
:103AF0008A819B81938382832115310509F0B0CFA0
:103B0000F093D903E093D8039ECFFD01DC01C0CF31
:103B100013821282D7CFFC0188279927E89421913C
:103B20002032E9F3293010F02E30C8F32B3241F067
:103B30002D3239F4689404C00E94FF1D820F911D3C
:103B4000219120532A30C0F31EF4909581959F4F08
:103B500008951F93FC0199278827BC01E8941191CF
:103B60001032E9F3193010F01E30C8F31B3251F057
:103B70001D3249F4689406C00E94EA1D610F711D50
:103B8000811D911D119110531A30B0F33EF49095A0
:103B90008095709561957F4F8F4F9F4F1F9108952E
:103BA000BB274A3031F4992322F4BDE290958195E8
:103BB0009F4F0C942A1EBB272A3051F4992342F4BC
:103BC000BDE290958095709561957F4F8F4F9F4F87
:103BD0000C94081E592F482F372F262F660F771F5A
:103BE000881F991F660F771F881F991F620F731F09
:103BF000841F951F660F771F881F991F08957AE00D
:103C0000979F902D879F802D910D11240895BB279C
:103C1000FA01A62F6217710581059105330B30FB60
:103C200066F0AA27660F771F881F991FAA1FA21781
:103C300010F0A21B63953850A9F7A05DAA3308F0D5
:103C4000A95DA19336F7B111B1931082CA010C940A
:103C50009622BB27FB015527AA27880F991FAA1F69
:103C6000A41710F0A41B83955051B9F7A05DAA3397
:103C700008F0A95DA193009779F7B111B193119262
:103C8000CB010C949622AEE0B0E0E9E4FEE10C94A6
:103C9000A1248C01FA018EE08C831A83098377FFBB
:103CA00002C060E070E8615071097E836D83A901F4
:103CB000BF01CE0101960E946F1E4D815E8157FDAE
:103CC0000AC02F813885421753070CF49A01020F5E
:103CD000131FF80110822E96E4E00C94BD24ABE093
:103CE000B0E0E5E7FEE10C9493247C013B018A01FE
:103CF000FC0117821682838181FFC8C1CE01019623
:103D00005C01F7019381F30193FD859193FF81910C
:103D10003F01882309F453C1853239F493FD85911D
:103D200093FF81913F01853229F4B70190E00E9411
:103D3000A622E7CF912C212C312CFFE1F31538F08E
:103D40008B3211F190F4803209F1833229F137FC82
:103D50003CC020ED280F2A3050F536FE20C08AE006
:103D6000989E200D1124922E06C08D3291F0803342
:103D700071F7689430F8F30193FD859193FF819179
:103D80003F018111DACF21C0689431F8689432F88C
:103D9000F2CF689433F8EFCF689434F8ECCFEAE0D0
:103DA0002E9E200D1124222E689435F8E4CF8E32F9
:103DB00029F436FC04C1689436F8DDCF8C3619F44A
:103DC000689437F8D8CF8836B1F2982F9F7D9554F4
:103DD0009330E0F08336A1F18337C1F1833509F0E8
:103DE00063C02801F2E04F0E511CF801C080D18061
:103DF000692D70E036FC02C06FEF7FEFC6010E94B4
:103E000080224C01689437F882010AC00C5F1F4F72
:103E1000FFE3F98388248394912C6501E89437F8B3
:103E200033FE2DC0522C8114910471F5552009F4F4
:103E300068CFB70180E290E00E94A6225A94F6CFA4
:103E4000F801808189830E5F1F4FE4CF2801F2E0E3
:103E50004F0E511CF801C080D180692D70E036FCF6
:103E600002C06FEF7FEFC6010E948B224C018201DE
:103E7000D5CFB70180E290E00E94A6222A942814B0
:103E8000190409F0B0F7CECFF60137FC859137FE63
:103E900081916F01B70190E00E94A62251105A94BF
:103EA000F1E08F1A9108BFCF843619F0893609F0F6
:103EB00077C0F80137FE6BC0608171818281938188
:103EC0000C5F1F4FF32DFF763F2E97FF09C0909593
:103ED0008095709561957F4F8F4F9F4F689437F80D
:103EE0002AE030E0A5010E94D622C82ECA188C2CE8
:103EF000432C36FE0CC0E89440F8C91440F434FE5C
:103F000005C032FC03C0F32DFE7E4F2E892C44FEEB
:103F100095C0FE01EC0DF11D8081803309F087C052
:103F2000242D297E422E842D8870582E43FC95C066
:103F300040FE8FC09C2C821418F42C0C922C9818E4
:103F400044FE91C0B70180E390E00E94A62242FEA9
:103F500009C088E790E041FE02C088E590E0B70123
:103F60000E94A622C91408F48AC0CA94D12C9FEFDB
:103F7000C91AD90ACA0CDB1CF60182916F01B7017C
:103F800090E00E94A622AC14BD04B1F74FCF60812F
:103F90007181072E000C880B990B0E5F1F4F92CF7B
:103FA000D32CE894D4F82AE030E0853739F1232D7A
:103FB000297FD22E8F3601F148F48835A9F0F70118
:103FC000868197812B96E2E10C94AF24803749F0EB
:103FD0008837A9F7D4FE02C06894D2F820E130E017
:103FE0000DC06894D4F8F6CF34FE03C0822F8660EB
:103FF000D82E20E132E002C028E030E0F801D7FE00
:104000000FC060817181828193810C5F1F4FA50178
:104010000E94D622C82ECA183D2CE89437F867CFE4
:104020006081718190E080E00E5F1F4FF0CF42FC15
:1040300002C0839478CF8394839475CF842D86783F
:1040400009F471CFF6CFB70180E290E00E94A6227A
:1040500083948214C0F3512C73CF522C58188214BD
:1040600008F46ECFF8CF842D867809F47BCF8BE2ED
:1040700041FE80E247FC8DE2B70190E071CFB701CD
:1040800080E390E00E94A6229A946CCF8FEF9FEF7E
:1040900099CFA9E0B0E0EFE4F0E20C9499246A0132
:1040A000F22EB02E102FFBE3AF2EA01608F41BE368
:1040B0001F5F012F27E0AE014F5F5F4F0E94A821D5
:1040C000BC018981982F9970913009F43FC09BE21F
:1040D000E1FC04C09E2D9170E0FC3AC05E2D507151
:1040E000E82FE87083FF46C084E0911101C083E0AF
:1040F000EF2DE81B8F1508F0E0E0D6018E2F20E2AF
:10410000552351F1992329F0D6019C93C6010196BC
:104110006C0196012D5F3F4FE2FE24C08EE4D60174
:104120008C9391E411969C93119712968C93D901DC
:104130008E2F90E281111BC0E20FF32FF11D108230
:104140008EEF9FEF2996ECE00C94B5249DE2C6CF4C
:1041500090E2C4CF2D9381508111FCCFCE0ED11CA3
:10416000E0E0D0CF8EE6D6018C9391E6DBCF9D9335
:104170008150E0CF482F447082FF3DC084E0911110
:1041800001C083E08F1510F4EF2DE81BD6018E2FB0
:1041900020E2552309F1992329F0D6019C93C60109
:1041A00001966C0196012D5F3F4FE2FE1BC089E432
:1041B000D6018C938EE411968C93119786E4129617
:1041C0008C93D9018E2F90E2882309F4B5CF9D936B
:1041D0008150FACF2D9381508111FCCFCE0ED11C8E
:1041E000E0E0D9CF89E6D6018C938EE611968C93C8
:1041F000119786E6E4CF9B0177FF02C030E020E014
:10420000A1E0B0E0911102C0B0E0A0E0F901319668
:10421000AE0FBF1F8B2C912CBB2009F461C0540141
:10422000EFEFAE1ABE0AAA0DBB1DFA161B0619F057
:1042300014F04F2D4A1B511188C0E3FC59C0760180
:10424000A42FB0E2A1114FC0C40ED11C992309F4D0
:104250005BC040E0D6011196F60190836D015523B5
:1042600009F448C0012F060F9A81582F507184FF1E
:1042700003C0913309F4015010160CF047C0093007
:1042800008F008E0EEE2FE2E5B01A01AB1088501FD
:104290009194819491082F3F320729F4D601FC9222
:1042A000F60131966F016217730794F10217130735
:1042B0007CF5DB01A21BB30BAA24A394B12CAC0E9A
:1042C000BD1EAA0DBB1D11968C9121503109D6013E
:1042D000119628153905F4F0F60180836D01DBCFC6
:1042E000B12CA12CA0CFF701B1937F01A150AACF8F
:1042F0009111B0CFD601942F50E302C05D9391503D
:104300009111FCCFC40ED11C40E0ACCF01E0BACF7C
:1043100080E3DBCF6217730731F4963388F495336B
:1043200011F4552369F0F6018083FD01842F90E29A
:10433000811108C0A40FB11D1C9290E080E002CF53
:1043400081E3F1CF91938150F3CF911183CF8ACF45
:10435000283008F027E03327DA01990F311D87FD57
:10436000916000966105710539F432602E5F3D93CE
:1043700030E32A95E1F708959F3F30F080387105CA
:10438000610509F03C5F3C5F3D93913008F0806827
:10439000911DDF93CF931F930F93FF92EF92192FED
:1043A000987F9695E92F96959695E90FFF27EE53FE
:1043B000FF4F99273327EE24FF24A701E70105903B
:1043C0000894079428F4360FE71EF81E491F511D64
:1043D000660F771F881F991F0694A1F70590079411
:1043E00028F4E70EF81E491F561FC11D770F881FBE
:1043F000991F661F0694A1F70590079428F4F80EFC
:10440000491F561FC71FD11D880F991F661F771F91
:104410000694A1F70590079420F4490F561FC71F73
:10442000D81F990F661F771F881F0694A9F78491DC
:104430001095177041F0D695C79557954795F79405
:10444000E7941A95C1F7E8E6F0E0689415901591A5
:1044500035916591959105907FE27395E118F10A88
:10446000430B560BC90BD009C0F7E10CF11E431FDB
:10447000561FC91FD01D7EF4703311F48A95E6CF04
:10448000E894015030F0080F0AF40027021708F4EE
:10449000202F2395022F7A3328F079E37D932A95F4
:1044A000E9F710C07D932A9589F60694979567954C
:1044B000379517951794E118F10A430B560BC90B62
:1044C000D00998F023957E9173957A3308F070E3C4
:1044D0007C932013B8F77E9170617D9330F08395C3
:1044E00071E37D9370E32A95E1F71124EF90FF903B
:1044F0000F911F91CF91DF91992787FD9095089596
:10450000FC010590615070400110D8F7809590959E
:104510008E0F9F1F0895FC016150704001900110A3
:10452000D8F7809590958E0F9F1F0895DC01FC01B0
:10453000672F71917723E1F7329704C07C916D93D7
:1045400070836291AE17BF07C8F308950F931F934E
:10455000CF93DF93182F092FEB018B8181FD09C0C9
:104560001FEF0FEF812F902FDF91CF911F910F91B0
:10457000089582FF14C02E813F818C819D81281770
:1045800039073CF4E881F981CF010196998388834A
:1045900010838E819F8101969F838E83E3CFE88570
:1045A000F985812F0995892BA1F3DACFFA01AA2782
:1045B000283051F1203181F1E8946F936E7F6E5F66
:1045C0007F4F8F4F9F4FAF4FB1E03ED0B4E03CD014
:1045D000670F781F891F9A1FA11D680F791F8A1FF7
:1045E000911DA11D6A0F711D811D911DA11D20D05E
:1045F00009F468943F912AE0269F11243019305D18
:104600003193DEF6CF010895462F4770405D419308
:10461000B3E00FD0C9F7F6CF462F4F70405D4A3355
:1046200018F0495D31FD4052419302D0A9F7EACF1D
:10463000B4E0A6959795879577956795BA95C9F74C
:1046400000976105710508959B01AC010A2E06943F
:104650005795479537952795BA95C9F7620F731FF8
:10466000841F951FA01D0895E89409C097FB3EF490
:1046700090958095709561957F4F8F4F9F4F9923AF
:10468000A9F0F92F96E9BB279395F695879577952D
:104690006795B795F111F8CFFAF4BB0F11F460FFED
:1046A0001BC06F5F7F4F8F4F9F4F16C0882311F045
:1046B00096E911C0772321F09EE8872F762F05C059
:1046C000662371F096E8862F70E060E02AF09A95F4
:1046D000660F771F881FDAF7880F9695879597F9E9
:1046E00008950E9484230C94F5230E94E72338F058
:1046F0000E94EE2320F0952311F00C94DE230C94FD
:10470000E42311240C9429240E94062470F3959F1D
:10471000C1F3950F50E0551F629FF001729FBB27B8
:10472000F00DB11D639FAA27F00DB11DAA1F649F54
:104730006627B00DA11D661F829F2227B00DA11D07
:10474000621F739FB00DA11D621F839FA00D611D8D
:10475000221F749F3327A00D611D231F849F600DAE
:10476000211D822F762F6A2F11249F5750409AF0D7
:10477000F1F088234AF0EE0FFF1FBB1F661F771F63
:10478000881F91505040A9F79E3F510580F00C942E
:10479000DE230C9429245F3FE4F3983ED4F38695FE
:1047A00077956795B795F795E7959F5FC1F7FE2BCE
:1047B000880F911D9695879597F9089597F99F67AA
:1047C00080E870E060E008959FEF80EC0895002499
:1047D0000A941616170618060906089500240A9466
:1047E00012161306140605060895092E0394000CEC
:1047F00011F4882352F0BB0F40F4BF2B11F460FF7B
:1048000004C06F5F7F4F8F4F9F4F089557FD9058A3
:10481000440F551F59F05F3F71F04795880F97FB84
:10482000991F61F09F3F79F087950895121613063E
:104830001406551FF2CF4695F1DF08C0161617066D
:104840001806991FF1CF86957105610508940895A2
:10485000E894BB2766277727CB0197F90895DC01F9
:10486000CB01FC01F999FECF06C0F2BDE1BDF89A7B
:10487000319600B40D9241505040B8F70895F9991F
:10488000FECF92BD81BDF89A992780B50895DC01CD
:10489000A40FB51F4150504048F0CB01840F951F25
:1048A0002E910E94582441505040D0F70895262F51
:1048B000F999FECF92BD81BDF89A019700B4021616
:1048C00039F01FBA20BD0FB6F894FA9AF99A0FBEC4
:1048D0000895052E97FB1EF400940E94802457FD36
:1048E00007D00E94CA2407FC03D04EF40C94802405
:1048F00050954095309521953F4F4F4F5F4F08950C
:1049000090958095709561957F4F8F4F9F4F08953B
:104910000E94EC24A59F900DB49F900DA49F800D44
:10492000911D112408952F923F924F925F926F92A2
:104930007F928F929F92AF92BF92CF92DF92EF922F
:10494000FF920F931F93CF93DF93CDB7DEB7CA1BB0
:10495000DB0B0FB6F894DEBF0FBECDBF09942A88DB
:10496000398848885F846E847D848C849B84AA8483
:10497000B984C884DF80EE80FD800C811B81AA8110
:10498000B981CE0FD11D0FB6F894DEBF0FBECDBFDB
:10499000ED010895A1E21A2EAA1BBB1BFD010DC05B
:1049A000AA1FBB1FEE1FFF1FA217B307E407F507DF
:1049B00020F0A21BB30BE40BF50B661F771F881FBB
:1049C000991F1A9469F760957095809590959B0151
:1049D000AC01BD01CF010895A29FB001B39FC001FA
:1049E000A39F700D811D1124911DB29F700D811D1B
:1049F0001124911D08955058BB27AA270E94132502
:104A00000C94F5230E94E72338F00E94EE2320F057
:104A100039F49F3F19F426F40C94E4230EF4E09546
:104A2000E7FB0C94DE23E92F0E94062458F3BA1703
:104A3000620773078407950720F079F4A6F50C94B4
:104A400028240EF4E0950B2EBA2FA02D0B01B901EE
:104A500090010C01CA01A0011124FF27591B99F0F4
:104A6000593F50F4503E68F11A16F040A22F232F00
:104A7000342F4427585FF3CF469537952795A79550
:104A8000F0405395C9F77EF41F16BA0B620B730BF7
:104A9000840BBAF09150A1F0FF0FBB1F661F771F68
:104AA000881FC2F70EC0BA0F621F731F841F48F41D
:104AB000879577956795B795F7959E3F08F0B0CFA6
:104AC0009395880F08F09927EE0F9795879508958D
:104AD0000E947C250C94F5230E94EE2358F00E943E
:104AE000E72340F029F45F3F29F00C94DE235111B5
:104AF0000C9429240C94E4230E94062468F399233F
:104B0000B1F3552391F3951B550BBB27AA276217C9
:104B10007307840738F09F5F5F4F220F331F441FD6
:104B2000AA1FA9F335D00E2E3AF0E0E832D091500A
:104B30005040E695001CCAF72BD0FE2F29D0660FF7
:104B4000771F881FBB1F261737074807AB07B0E83A
:104B500009F0BB0B802DBF01FF2793585F4F3AF040
:104B60009E3F510578F00C94DE230C9429245F3F7E
:104B7000E4F3983ED4F3869577956795B795F795C6
:104B80009F5FC9F7880F911D9695879597F90895AE
:104B9000E1E0660F771F881FBB1F6217730784074A
:104BA000BA0720F0621B730B840BBA0BEE1F88F759
:104BB000E09508950E94E1256894B1110C94292490
:104BC00008950E940E2488F09F5798F0B92F9927D6
:104BD000B751B0F0E1F0660F771F881F991F1AF0E8
:104BE000BA95C9F714C0B13091F00E942824B1E001
:104BF00008950C942824672F782F8827B85F39F000
:104C0000B93FCCF3869577956795B395D9F73EF480
:104C100090958095709561957F4F8F4F9F4F089528
:104C2000AA1BBB1B51E107C0AA1FBB1FA617B707D2
:104C300010F0A61BB70B881F991F5A95A9F78095EE
:104C40009095BC01CD01089597FB072E16F40094B2
:104C500007D077FD09D00E94102607FC05D03EF44E
:104C6000909581959F4F0895709561957F4F089518
:104C70000E94EC24B7FF0895821B930B0895EE0F5A
:104C8000FF1F0590F491E02D0994FB01DC014150D8
:104C9000504048F001900D920020C9F701C01D92CC
:104CA00041505040E0F70895AEE0B0E0EAE5F6E2AA
:104CB0000C94A1248C01FA0186E08C831A83098369
:104CC00077FF02C060E070E8615071097E836D83F8
:104CD000A901BF01CE0101960E946F1E4D815E8128
:104CE00057FD0AC02F813885421753070CF49A01EB
:104CF000020F131FF80110822E96E4E00C94BD24DD
:104D000013E0C3E2D3E004C0FE010E943F262196D7
:104D1000C432D107C9F7F894FFCFFFFFFF010101AB
:104D2000000000000000000000FCE1A8A8FF201522
:104D3000F81434160A1656164A06EE159B156F150A
:104D40005C15017A17811695059505010000DA03B7
:104D500080000105000000000000000206000000C5
:104D600000000000000000003B04A503D203A304E0
:104D70000304E103F5030D0A0020003C4E4F4E43AF
:104D8000453E004F4B004E41434B003F0021003257
:104D90002E332E320073656E736F722D44696D6D04
:104DA00065722D3200312E3200496E742E54656DBD
:104DB000700044696D6D65722E4C6967687473008C
:104DC0004175746F2E4C6967687473005253534970
:104DD00000372E332E300030313A30383A32370037
:104DE0005365702032342032303230002D2D204275
:104DF00075696C643A202573202D2025732C20259D
:104E0000730A2D2D204E616D653A205B25733A257E
:104E1000735D0A2D2D20496E69743A2064696D6DA9
:104E20006572733D25752C2072656C6579733D251F
:104E3000752C2072656C65797342746E3D25750A18
:024E4000000070
:1078000011E0A0E0B1E0E4EFFFE702C005900D92C7
:10781000A630B107D9F721E0A6E0B1E001C01D9282
:10782000AD34B207E1F7CDB7DEB72897DEBFCDBFE5
:10783000112484B78093270114BE88E180936000EF
:1078400089E280936000259A86E020E295B1922734
:1078500095B93FE748E351E0315040405040E1F7EF
:1078600000C00000815091F78091270181FD18C070
:107870008EE284B981E58CBD81E08DBD412C512C17
:10788000222423941CE3612E11E0712E33243394BF
:10789000CC24CA94DC2CAA24A39483E0B82E45C13E
:1078A00082E08093C00088E18093C10086E08093ED
:1078B000C20087E68093C40000E010E0C12CD12C08
:1078C000AA24AA94BA2CEE24E394A895EED181348C
:1078D00069F4EBD1F82E36D382E8F81629F091E856
:1078E000F91202C085E651C083E04FC0823411F422
:1078F00084E103C0853419F485E030D362C0853556
:1079000041F4D3D1082FD1D110E0182B000F111F53
:1079100057C0863521F484E021D380E036C0843618
:10792000E9F4C3D1C2D1882EC0D1C80CD11C912C8E
:10793000981488F4BAD1F82EB8D1F801E90DF11DE8
:107940002F2D30E0A901582B0A01E7BEE89511243C
:1079500093949394EDCFC801B4D132C0843769F4C5
:10796000A4D1A3D1F82EA1D1EDD2F80185918F0138
:10797000E2D2FA94F110F9CF25C0853741F4E2D272
:107980008EE1D9D285E9D7D28FE0D5D21AC0813520
:10799000B9F4BA82A982BC82AB82C601F4E09695A2
:1079A0008795FA95E1F79E838D83C6019CD19887D0
:1079B0008F83CE010196D9D2C5D2FF24F39402C0A1
:1079C000C1D2F12C80E1B7D2FF2009F47ECF50CF95
:1079D00043E050E060E070E089E291E0E9D248E005
:1079E00050E06BE171E0CE010196E2D229982A9A2B
:1079F00063E083E2D2D16CE485E2CFD167E286E234
:107A0000CCD163E780E5C9D164E08DE3C6D161E004
:107A100082E2C3D161E081E2C0D161E08CE3BDD1FB
:107A200021E041E060E070E086E08AD1873209F031
:107A300026C180912A01809328018FEF80932A012B
:107A400080932B018093080163E584E2A6D143E291
:107A50006AE087E069D161E08EEFBED11092080143
:107A60006FE584E29AD180912A018F3F09F407C122
:107A70008091290181508E3F08F05AC030920D014B
:107A800010920E0143EC62E18FE04ED160E08FE096
:107A9000A3D18D819E81E4E0880F991FEA95E1F7DB
:107AA00022D198878F8388E0FE013196ADE0B1E066
:107AB00001900D928A95E1F7B0921601A0921501FE
:107AC00044EC62E580E030D163E081E085D1882339
:107AD00009F4D5C048E050E063E371E0CE010196BF
:107AE0005AD2892B09F4CBC080913701909138018B
:107AF000009709F045C08091390190913A018A3789
:107B00009A4D09F041C08091330190913401813048
:107B1000910571F500E010E06FEFC80159D20F5FD9
:107B20001F4F011584E01807B9F7F999FECF50CF20
:107B300043E262E083E0F8D063E084E04DD1882343
:107B400009F496CF80912F01869586958695E3E37B
:107B5000F1E060E0815048F02191660F962F990F77
:107B6000990F690F6053620FF5CF80E090E006C077
:107B7000029782309105C8F66091350129D2D5CFA0
:107B80008038974008F07BC088E0E3E3F1E0DE0155
:107B9000119601900D928A95E1F7EF80F884D886CE
:107BA000CF82CE010196E1D18D809E8089819A811C
:107BB00090930E0180930D018B819C819093100115
:107BC00080930F0184010150110910931201009359
:107BD000110144EC62E382E0A7D063E083E0FCD0D3
:107BE000882309F44BCF46E050E063E371E08DE079
:107BF00091E0D1D1892BD1F6C4018150904F682FEB
:107C000062956077ACE2B1E0462F50E04C525140B3
:107C1000FA01EA0FFB1F1E962C911E9730E0322FBF
:107C200022271D967C911D97272B090127BEE895D9
:107C3000112412966A167B0659F7611106C044E0BA
:107C4000880F991F4A95E1F73CD00115110511F0F5
:107C50004801ACCFF886EF828D819E8134E0880F99
:107C6000991F3A95E1F73FD0E816F90621F01E82F8
:107C70001D8218861F82CE01019677D156CF8D8145
:107C80009E8124E0880F991F2A95E1F72CD02F813F
:107C900038858217930709F048CF1CBCA8958091BE
:107CA0002701282EF201099540CF8091C00087FF5F
:107CB000FCCF8091C00084FD01C0A8958091C600D2
:107CC000089523E0FC0127BFE89507B600FCFDCF2F
:107CD00025E0FC0127BFE89507B600FCFDCF81E158
:107CE00087BFE8950895BC01E0E0F0E08FEF9FEFDB
:107CF000E617F707C0F4E11528E7F207A0F425918D
:107D0000822748E0DC01B695A7959C0121703327B6
:107D10003195219531092170307ACD018227932741
:107D2000415081F7E5CF089590912901E6E0F1E017
:107D3000918390839FEF9683858344836383089523
:107D40002A989AE19A95F1F700C08EBD0DB407FE0E
:107D5000FDCF8EB59FEF4150D0F0222369F09EBD3C
:107D60000DB407FEFDCF8EB561157105A1F3DB01E2
:107D70008C936F5F7F4FEFCFFB013196DB018C91CE
:107D80008EBD0DB407FEFDCF8EB5BF01E4CF2A9A9C
:107D9000BAE1BA95F1F700C00895CF93DF931F922F
:107DA000CDB7DEB7698320E041E0BE016F5F7F4F52
:107DB000C7DF0F90DF91CF91089520E040E060E0B1
:107DC00070E082EEBDDF20E040E060E070E081EE38
:107DD000B7DF60E787E2E1CFFF920F931F93CF9366
:107DE000DF93082FF62EC0910901C695C695C6955A
:107DF000C95FD0912A0129986EE080E2CEDFD0934E
:107E0000000120E045E060E071E08AE299DF20E0D7
:107E100045E060E071E080E393DF20E04C2F66E016
:107E200071E080EA8DDF299A8AE08A95F1F700C037
:107E300020E040E060E070E08FEF82DF8073C1F30C
:107E40002998BBDF6FE080E2A8DF609129018AE218
:107E5000A4DF299ACFEFDFEFA89521E041E060E0B1
:107E600070E087E16DDF80FF02C09FEF4BC021E033
:107E700041E060E070E080E663DF182F813208F0B7
:107E800010E021E0412F6CE271E081E659DF95DFDF
:107E9000812F90E020912F0126952695269530E0A0
:107EA000295F3F4F8217930701F790912E01809130
:107EB00029019813DACF90913101809130018770B8
:107EC000833001F59830F1F420912A018091280146
:107ED000281302C08F3FB1F420912D01821304C0FA
:107EE00080932A019EEF0EC03091330181E0830F11
:107EF0008093330140912B01341720F480932B01A0
:107F000020932A0188E08A95F1F7219719F4F1105E
:107F100008C002C00913A0CF81E0091731F080E04A
:107F200004C0FA9409135FCFF7CFDF91CF911F916F
:107F30000F91FF9008959091C00095FFFCCF809322
:107F4000C6000895B2DE803239F088E18093600087
:107F500088E080936000FFCF84E1EDCFCF93C82FFE
:107F6000A4DEC150E9F7CF91EDCF0F931F93CF93CC
:107F7000DF938C01CBE1D1E0F80161918F01CE015B
:107F800027D02196C332F1E0DF07B1F7DF91CF911F
:107F90001F910F910895FB01DC0104C08D910190A8
:107FA000801921F441505040C8F7881B990B08955F
:107FB000DC01CB01FC01F999FECF06C0F2BDE1BDA9
:107FC000F89A319600B40D9241505040B8F7089598
:107FD000262FF999FECF92BD81BDF89A019700B482
:107FE000021639F01FBA20BD0FB6F894FA9AF99A22
:0A7FF0000FBE089500FCE1A8A800F0
:00000001FF
