:100000000C9429030C9484180C945D180C945103DF
:100010000C9451030C9451030C94C6190C94510385
:100020000C9451030C9451030C9451030C94510300
:100030000C9451030C9451030C9451030C945103F0
:100040000C9413180C9451030C94E1170C94BB17E7
:100050000C9451030C9451030C9451030C945103D0
:100060000C94AB180C94510300407A10F35A00A082
:10007000724E18090010A5D4E80000E87648170071
:1000800000E40B54020000CA9A3B000000E1F505B1
:10009000000080969800000040420F000000A086FB
:1000A00001000000102700000000E803000000002D
:1000B0006400000000000A000000000001000000D1
:1000C00000002C76D888DC674F0823DFC1DFAE59EB
:1000D000E1B1B796E5E3E453C63AE651997696E87E
:1000E000E6C28426EB898C9B62ED407C6FFCEFBC02
:1000F0009C9F40F2BAA56FA5F490055A2AF75C932D
:100100006B6CF9676DC11BFCE0E40D47FEF520E662
:10011000B500D0ED902E0300943577050080841E45
:10012000080000204E0A000000C80C333333330FA0
:10013000986E12831141EF8D2114893BE65516CF3D
:10014000FEE6DB18D1844B381BF77C1D901DA4BB49
:10015000E424203284725E228100C9F124ECA1E5FE
:100160003D2754534D3A494E49540A002154534DAA
:100170003A494E49543A545350204641494C0A009A
:100180005453463A5349443A4F4B2C49443D257504
:100190000A00215453463A5349443A4641494C2CAB
:1001A00049443D25750A0054534D3A494E49543A45
:1001B0005354415449443D25750A0054534D3A491E
:1001C0004E49543A545350204F4B0A0054534D3A21
:1001D000465041523A53544154503D25750A0054FB
:1001E000534D3A465041520A0054534D3A49443A0D
:1001F0005245510A0054534D3A49440A0021545380
:100200004D3A49443A4641494C0A0054534D3A4903
:10021000443A4F4B0A0054534D3A55504C0A002172
:1002200054534D3A55504C3A4641494C0A005453A8
:100230004D3A55504C3A444757432C4F3D25752C69
:100240004E3D25750A0054534D3A55504C3A4F4B8C
:100250000A0054534D3A52454144593A49443D25C8
:10026000752C5041523D25752C4449533D25750A46
:10027000002154534D3A52454144593A55504C206F
:100280004641494C2C53544154500A005453463A69
:100290005444493A54534C0A0054534D3A46414948
:1002A0004C3A4449530A0054534D3A4641494C3A5A
:1002B000434E543D25750A0054534D3A4641494C2E
:1002C0003A52452D494E49540A00215453463A5258
:1002D00054453A4E324E204641494C0A005453464A
:1002E0003A5254453A4E324E204F4B0A0021545355
:1002F000463A5254453A4650415220414354495699
:10030000450A00215453463A534E443A544E520A39
:100310000025735453463A4D53473A53454E442CA7
:1003200025752D25752D25752D25752C733D257568
:100330002C633D25752C743D25752C70743D2575F9
:100340002C6C3D25752C73673D25752C66743D25F9
:10035000752C73743D25733A25730A004D434F3A4B
:100360005245473A5245510A00214D434F3A5052A7
:100370004F3A52433D25750A000A002D2D20707218
:100380006573656E742053656E6420627265616B7F
:100390002C20002D2D2057726F6E67206E756D62B8
:1003A00065722049440A00214D434F3A5741493A6A
:1003B00052433D25750A00202D2074696D65722019
:1003C000656E64002E00322E332E320A00207C5FD0
:1003D0005C2F602C0A0702200220B2871003400124
:1003E00020002402221002220202200222002220E7
:1003F0000202202227101341010101032220304074
:1004000020305203402214020310522402217101B1
:1004100000101012101222101002240101032203F6
:10042000002001010032203712100121322601285C
:1004300040322212101212224322241210012224CE
:1004400070C122240F0F5453463A5755523A4D5318
:100450003D256C750A004D434F3A42474E3A494E8E
:100460004954204F4B2C5453503D25750A004D43A1
:100470004F3A42474E3A5354500A004D434F3A4286
:10048000474E3A4246520A004D434F3A42474E3A8F
:10049000494E4954204E4F44452C43503D524E4EF8
:1004A0004E412D2D2D2C46513D25752C52454C3D50
:1004B00025752C5645523D322E332E320A000A0045
:1004C0002D2D2070726573656E742053656E6420E7
:1004D000627265616B2C20004D434F3A50494D3A92
:1004E0004E4F4445205245473D25750A002154533F
:1004F000463A4D53473A52454C204D53472C4E52A5
:1005000045500A005453463A4D53473A52435620F9
:1005100043420A005453463A4D53473A42430A0075
:100520005453463A4D53473A4543484F0A002154E5
:1005300053463A4D53473A504F4E47205245435643
:100540002C494E4143544956450A005453463A4DAE
:1005500053473A504F4E4720524543562C48503D42
:1005600025750A005453463A4D53473A50494E4771
:1005700045442C49443D25752C48503D25750A00BD
:100580005453463A4D53473A4543484F20524551FC
:100590000A005453463A4D53473A524541442C259C
:1005A000752D25752D25752C733D25752C633D25E1
:1005B000752C743D25752C70743D25752C6C3D256E
:1005C000752C73673D25753A25730A0000000000FD
:1005D00023002600290000000000240027002A0034
:1005E00000000000250028002B000404040404047B
:1005F00004040202020202020303030303030102D2
:1006000004081020408001020408102001020408A0
:100610001020000000080002010000030407000091
:10062000000000000000214D434F3A5741493A5223
:10063000433D25750A00214D434F3A534E443A4EEF
:100640004F4445204E4F54205245470A0000D019D0
:100650005D1B11241FBECFEFD8E0DEBFCDBF12E07F
:10066000A0E0B1E0EEEBFAE402C005900D92A632F4
:10067000B107D9F723E0A6E2B2E001C01D92A83D80
:10068000B207E1F713E0C8E2D3E004C02197FE010E
:100690000E941125C732D107C9F70E94571A0C943E
:1006A00052250C940000EDEEF2E0A089B18982E0C1
:1006B0008C93A485B5851C92A685B78580E18C9323
:1006C000108EA489B58986E08C93A289B3898C9118
:1006D00080618C93A289B3898C9188608C93A28964
:1006E000B3898C9180688C930288F389E02D808196
:1006F0008F7D80830895942FE2E9F3E03091E90241
:1007000031838283668325834481487F492B477EDA
:100710004483CF010895AF92BF92CF92DF92EF92C0
:10072000FF920F931F93CF93DF936C017B018B019B
:10073000040F151FEB015E01AE18BF08C017D107EB
:1007400059F06991D601ED91FC910190F081E02D75
:10075000C6010995892B79F7C501DF91CF911F91CA
:100760000F91FF90EF90DF90CF90BF90AF900895E2
:10077000FC01538D448D252F30E0842F90E0821BA7
:10078000930B541710F0CF96089501970895FC012C
:10079000918D828D981761F0A28DAE0FBF2FB11D84
:1007A0005D968C91928D9F5F9F73928F90E00895DC
:1007B0008FEF9FEF0895FC01918D828D981731F096
:1007C000828DE80FF11D858D90E008958FEF9FEFEA
:1007D0000895FC01918D228D892F90E0805C9F4FC0
:1007E000821B91098F73992708958DEE92E00E94E4
:1007F000E90321E0892B09F420E0822F0895FC0110
:10080000A48DA80FB92FB11DA35ABF4F2C91848D71
:1008100090E001968F739927848FA689B7892C93CE
:10082000A089B1898C91837080648C93938D848D21
:10083000981306C00288F389E02D80818F7D808324
:100840000895EF92FF920F931F93CF93DF93EC01E4
:1008500081E0888F9B8D8C8D98131AC0E889F98967
:10086000808185FF15C09FB7F894EE89FF8960836A
:10087000E889F98980818370806480839FBF81E0EB
:1008800090E0DF91CF911F910F91FF90EF9008952D
:10089000F62E0B8D10E00F5F1F4F0F731127E02E08
:1008A0008C8D8E110CC00FB607FCFACFE889F98940
:1008B000808185FFF5CFCE010E94FF03F1CFEB8D44
:1008C000EC0FFD2FF11DE35AFF4FF0829FB7F89414
:1008D0000B8FEA89FB8980818062CFCF0F931F93B2
:1008E000CF93DF938C01D0E0C0E0F801EC0FFD1F47
:1008F0006491662341F08DEE92E00E942104892BE1
:1009000011F02196F2CFCE01DF91CF911F910F917F
:100910000895CF93DF93EC01888D8823B9F0AA89DD
:10092000BB89E889F9898C9185FD03C0808186FDAA
:100930000DC00FB607FCF7CF8C9185FFF2CF8081F9
:1009400085FFEDCFCE010E94FF03E9CFDF91CF916C
:10095000089580E090E0892B29F00E94F503811131
:100960000C9400000895833081F028F4813099F0D0
:100970008230A9F008958730A9F08830C9F084301A
:10098000B1F4809180008F7D03C0809180008F77CB
:1009900080938000089584B58F7784BD089584B5D1
:1009A0008F7DFBCF8091B0008F778093B00008954A
:1009B0008091B0008F7DF9CF1F93CF93DF93282FC5
:1009C00030E0F901EE5EF94F8491F901E250FA4FFF
:1009D000D491F901E651FA4FC491CC23A9F0162F16
:1009E00081110E94B304EC2FF0E0EE0FFF1FE052E4
:1009F000FA4FA591B4918FB7F894EC91111108C0FA
:100A0000D095DE23DC938FBFDF91CF911F910895A6
:100A1000DE2BF8CFCF93DF9390E0FC01E250FA4F4A
:100A2000249186519A4FFC0184918823C9F090E06B
:100A3000880F991FFC01EA52FA4FA591B491FC016D
:100A4000E052FA4FC591D49161110DC09FB7F8944F
:100A50008C91209582238C938881282328839FBFA3
:100A6000DF91CF910895623051F49FB7F8943C9193
:100A7000822F809583238C93E8812E2BEFCF8FB725
:100A8000F894EC912E2B2C938FBFEACF209131015B
:100A900090E4299F900111248E50822B80937C003A
:100AA00080917A00806480937A0080917A0086FD3C
:100AB000FCCF809178009091790008953FB7F89429
:100AC0008091AF029091B002A091B102B091B202B8
:100AD00026B5A89B05C02F3F19F00196A11DB11D99
:100AE0003FBFBA2FA92F982F8827BC01CD01620FD5
:100AF000711D811D911D43E0660F771F881F991F8F
:100B00004A95D1F708958F929F92AF92BF92CF925C
:100B1000DF92EF92FF926B017C010E945E054B0118
:100B20005C01C114D104E104F104B9F00E945E0536
:100B3000681979098A099B09683E73408105910506
:100B400080F321E0C21AD108E108F10888EE880E8E
:100B500083E0981EA11CB11CE4CFFF90EF90DF90C2
:100B6000CF90BF90AF909F908F9008952FB7F8943B
:100B70006091AB027091AC028091AD029091AE0297
:100B80002FBF08950895862F642F0C940A05CF93E4
:100B9000DF93FC01218530E0F901EE5EF94F84918D
:100BA000F901E250FA4FD491F901E651FA4FC4919C
:100BB000CC2379F081110E94B304EC2FF0E0EE0F0A
:100BC000FF1FE453FA4FA591B491EC91ED2381E01E
:100BD00009F480E08170DF91CF9108952091600247
:100BE000260F3327331F21323105ECF42091840284
:100BF000FC0190E080E0243069F082E00895A0914B
:100C000060022191AC01405C5D4FA40FB52FB11D76
:100C10002C930196861798F380916002680F609379
:100C2000600280E0089581E0089508958FEF9FEFBE
:100C300008958FEF9FEF08958091390290E091958C
:100C4000819591090895CF93DF93CB01EA01642F39
:100C50000E94EE05CE01DF91CF910895CF93DF93EF
:100C60001F92CDB7DEB7698361E0CE0101960E9485
:100C7000EE0581E090E00F90DF91CF91089590E034
:100C800080E008950895FC018381877088608383E4
:100C900084818F71806284836783CF010895FC0112
:100CA00083818695869586958A3108F089E1089535
:100CB000E0912C02F0912D02309721F00280F38117
:100CC000E02D099408950F931F930E94B60500919B
:100CD0002E0210912F022091300230913102601BC0
:100CE000710B820B930B1F910F9108959C018091C2
:100CF0002C0290912D0282179307F1F09091360209
:100D00009F719093360230932D0220932C02E09134
:100D10002C02F0912D02309721F00190F081E02D0E
:100D200009950E94B60560932E0270932F0280935E
:100D3000300290933102089580913602805E809354
:100D40003602E5CF88E191E00C9476068EBD000076
:100D50000DB407FEFDCF8EB508950F931F93CF936B
:100D6000DF93EC018C81829586958770A9F4CE0182
:100D70000E944F06482F50E0BE01695F7F4F86EB0F
:100D800092E00E941725CE010E944F06E82FF0E066
:100D9000EA54FD4F108209C0813071F48F814AE01E
:100DA00066EB72E090E00E940F1D86EB92E0DF910F
:100DB000CF911F910F910895823031F44AE066EB94
:100DC00072E08F819885EFCF833041F44AE066EB83
:100DD00072E08F8198850E94681DE7CF843051F4BE
:100DE0006F81788589859A852AE046EB52E00E94DA
:100DF0001A1DDBCF853051F46F81788589859A85FE
:100E00002AE046EB52E00E94461DCFCF10E087302B
:100E100071F42B85293008F028E06F817885898569
:100E20009A8506EB12E042E00E94871BBECFCE01FE
:100E30000E944F06181738F5E12FF0E09F01220FAE
:100E4000331FD901AA54BD4FEC0FFD1F8781082E17
:100E5000000C990B44E0959587954A95E1F78F70C2
:100E60008A3068F4805D8C9329543D4F87818F7060
:100E70008A3038F4805DF90180831F5FD8CF895CA8
:100E8000F2CF895CF8CFE82FF0E0EE0FFF1F80CFA4
:100E9000FC0101900020E9F73197AF01481B590B85
:100EA000BC018DEE92E00C948B03CF93DF930E94F4
:100EB0006E04EC0182E591E00E9448078C0F9D1FB3
:100EC000DF91CF9108958F929F92AF92BF920F932F
:100ED0001F93CF93DF93CDB7DEB7A1970FB6F894EA
:100EE000DEBF0FBECDBF19A2423008F44AE08E012A
:100EF0000F5D1F4F842E912CB12CA12CA5019401C4
:100F00000E949C23E62FB901CA01EA30F4F4E05DA7
:100F1000D801EE938D01232B242B252B79F790E01C
:100F200080E0109719F0CD010E944807A1960FB6F6
:100F3000F894DEBF0FBECDBFDF91CF911F910F910F
:100F4000BF90AF909F908F900895E95CE1CFCF93D1
:100F5000C82F80EC94E00E946E046C2F70E090E04B
:100F600080E04AE00E9463078EEB94E0CF910C94FE
:100F70006E040F931F93CF93DF93EC018B01E0E09E
:100F80006115710549F0FB0101900020E9F73197E7
:100F9000E61BEA3108F0E9E18B81877098E0E99F70
:100FA000F0011124E82BEB838C818F718C83CE01AF
:100FB0000E944F06482F50E0B801CE0107960E94CC
:100FC0001725CE010E944F068C0F9D2F911DFC010D
:100FD0001782CE01DF91CF911F910F9108951F933A
:100FE000CF93DF9385ED8093BC0080913C0290917C
:100FF0003D02A0913E02B0913F020796A11DB11D96
:1010000023E0B695A795979587952A95D1F72091D6
:10101000BC0024FD03C01092840252C040913C02E7
:1010200050913D0260913E0270913F02452B462B4C
:10103000472B69F30097A105B10541F02AE12A95F4
:10104000F1F700C00197A109B109E1CF80913B02FE
:10105000C1E0C0933A02882399F1D091B800109171
:10106000BA008091BC008A7B8093BC0060E082E182
:101070000E94DC0460E083E10E94DC0410928402A0
:10108000C09386021092850261E082E10E94DC0436
:1010900061E083E10E94DC048091B9008E7F80933F
:1010A000B9008091B9008D7F8093B90080E2809370
:1010B000B80085E48093BC001093BA00D093B800C8
:1010C000DF91CF911F910895FC01248122952695EF
:1010D0002770213011F487810895211104C00796EB
:1010E0000E94CA1C089580E00895AF92BF92CF92EB
:1010F000DF92EF92FF920F931F93CF93DF93FC0148
:10110000248124FD07C0EC0186818A3F71F08D8126
:10111000823039F1DF91CF911F910F91FF90EF90C5
:10112000DF90CF90BF90AF9008958581823079F79E
:1011300010910301CF010E94640861E0811101C098
:1011400060E0161739F36093030181E08093040196
:1011500087E992E00E942923809104018111DACF6E
:10116000D6CF00919003109191038E81F801938165
:10117000891731F192858913CDCF81E097E0D92E7F
:10118000E82EF12C5801D89EA00CB11C1124F501B9
:10119000C680CE010E946408C81609F4BBCFF501D1
:1011A0008683FFEFEF1AFF0ADE9CF001DF9CF00D53
:1011B0001124E00FF11F81E08083F8018083AACF22
:1011C00080E0DCCFCF93DF93FC011082118212828A
:1011D000148215821682DC0117968AE1ED011992BC
:1011E0008A95E9F782E08383DF91CF910895BF92DA
:1011F000CF92DF92EF92FF920F931F93CF93DF93E3
:101200007B01042FB22E90E59CBD1DBC2A98E0E125
:10121000F0E03197F1F70E94A606182FE701015080
:10122000A8F0BB2051F08FEF0E94A606182FE11402
:10123000F104A9F388832196F2CF6E018FEFC81ACB
:10124000D80A88810E94A606E601E9CF2A9A80E1A1
:1012500090E00197F1F7812FDF91CF911F910F91CE
:10126000FF90EF90DF90CF90BF900895CF93DF93E2
:101270001F92CDB7DEB7698320E041E0BE016F5F0A
:101280007F4F0E94F7080F90DF91CF9108956FE094
:1012900080E20E943609609113016F3F19F08AE2E3
:1012A0000E943609299A089521E041E070E060E04B
:1012B0000C94F70886E00E945409853231F485E0E9
:1012C0000E94540991E08C3409F090E0892F089530
:1012D00020E040E070E060E00C94F708EF92FF92AD
:1012E0000F931F93CF93DF93CDB7DEB7C857D109C4
:1012F0000FB6F894DEBF0FBECDBF8E010F571F4F44
:10130000F801E190F1908F010E94B6054AE00E9439
:10131000630785E591E00E9448079801A70168E707
:1013200070E0CE0101960E94821DCE0101960E94BE
:1013300048078DEE92E00E948904C858DF4F0FB62F
:10134000F894DEBF0FBECDBFDF91CF911F910F91FB
:10135000FF90EF9008959F92AF92BF92CF92DF924D
:10136000EF92FF920F931F93CF93DF93F82EEB0131
:101370008091E90288838B8100E282FD05C0CB0168
:101380000E944F0607E0080F8091EC0211E080FDFB
:1013900003C08FEFF81210E0209709F4BBC0299822
:1013A00080E091E00197F1F76EE080E20E9436095B
:1013B00084EC90E00197F1F76F2D8AE20E943609E4
:1013C0006F2D80E30E94360981EE0E946809112387
:1013D00021F060E584E20E94360920E0402FBE0142
:1013E00080EA0E94F708299AD12CC12C8FEF0E9425
:1013F0006809807349F49FEFC916D90629F0A895AA
:101400008FEFC81AD80AF2CF299860E787E20E94C6
:101410003609082F84FF03C081EE0E94680911235A
:1014200021F06FE584E20E9436090E94470905FD1C
:1014300073C0012F8C818770833039F48D8127E54B
:10144000A22E21E0B22E813121F0CE010E94AD0604
:101450005C0192E6C92E91E0D92E002321F08FE5A0
:10146000C82E81E0D82E809137028F70982EEB80A5
:10147000E2FAEE24E0F8CE010E944F069C81F92F9B
:10148000F295F695F770ED8197707E816A815881AB
:10149000498127E631E0111106C029E631E0002339
:1014A00011F024E531E0BF92AF92DF92CF921F920C
:1014B0009F921F92EF921F928F931F92FF931F9202
:1014C000EF931F929F931F927F931F926F931F9290
:1014D000FF921F925F931F924F933F932F9381E14F
:1014E00093E09F938F930E946E098DB79EB74E969F
:1014F0000FB6F8949EBF0FBE8DBF802FDF91CF91A6
:101500001F910F91FF90EF90DF90CF90BF90AF9021
:101510009F90089500E08ECF01E08CCF0F931F9332
:10152000CF93DF938C01FC0182819091360290FF72
:1015300012C08F3F09F443C08DEE92E09F938F93CA
:101540000E946E090F900F90C0E08C2FDF91CF9119
:101550001F910F910895D091EA028823D9F08F3F0F
:1015600071F1B8010E94AB09C82F882349F08DEDB5
:1015700092E09F938F930E946E090F900F90E5CF9A
:101580008AEC92E09F938F930E946E09D091EA02B9
:101590000F900F90B8018D2F0E94AB09C82F80913A
:1015A000EA028D13D2CF80913702C1110AC091E0B7
:1015B000980F9F70807F892B80933702C6CFDFEF13
:1015C000E9CF807F80933702C1E0BFCF2091360200
:1015D00022FD0C948E0A83E093E09F938F930E94E8
:1015E0006E090F900F9080E008951F93CF93DF93C3
:1015F000182F262FEA0150E040E0682F80E00E947B
:101600007B031F3F11F4CBE6D1E0BE010E94B90776
:10161000DF91CF911F910C94E60AFC018091E902C1
:1016200081839481907F996094838091B50280FF3B
:1016300003C0CF010C94E60A86E396E09F938F9354
:101640000E946E090F900F9080E00895FF920F9313
:101650001F93CF93DF93CDB7DEB7A1970FB6F89462
:10166000DEBF0FBECDBFF82E8B01CE0101960E94CA
:10167000E208FF8282E08E83F8016081CE0101964C
:101680000E9443060E940D0BA1960FB6F894DEBF90
:101690000FBECDBFDF91CF911F910F91FF900895A5
:1016A000CF92DF92FF920F931F93CF93DF931F92FE
:1016B000CDB7DEB78C016B01FB01808197E0F92E7D
:1016C000F801F89EE00DF11D1124668184810E94CD
:1016D000DC04F6018081F801F89EE00DF11D112473
:1016E000838190E0668183569E4F0E942923F601F4
:1016F0008081282F30E0F801F89EE00DF11D1124C3
:1017000081E09681911101C080E0898347E0429F8A
:10171000C001439F900D1124080F191FBE016F5F78
:101720007F4FF80183810E94260B0F90DF91CF91AC
:101730001F910F91FF90DF90CF900895EF92FF924D
:101740000F931F93CF93DF93CDB7DEB7A1970FB65B
:10175000F894DEBF0FBECDBFE82EF62E8A01CE0173
:1017600001960E94E208EF82FE82F8012081318119
:101770008C81877080618C838D818F7180668D8371
:1017800039872887CE0101960E940D0BA1960FB6CE
:10179000F894DEBF0FBECDBFDF91CF911F910F91A7
:1017A000FF90EF9008952F923F924F925F926F9229
:1017B0007F928F929F92AF92BF92CF92DF92EF92E1
:1017C000FF920F931F93CF93DF9300D000D0CDB73C
:1017D000DEB7809128018F3F09F484C083E0E82EB2
:1017E000F12C92E0C92ED12C27E1222E312C31E2AE
:1017F000432E512C45E2642E712C56E0852E912CFF
:1018000080912801873008F001C1833009F491C02C
:1018100070F4813091F1823009F47BC083E993E068
:101820000E9455078DEE92E00E9489045BC08530CE
:10183000F1F008F4B5C0863089F79EEF9B835A8299
:10184000498241EB51E0BE016F5F7F4FCE010396AD
:101850000E947A10882309F445C07A826982BE0109
:101860006F5F7F4FCE01039698C0BB2041F08091FF
:1018700028018F5F80932801C3CF09EE13E064E64F
:1018800070E080E090E00E9404102BE043E050E024
:101890006FEF80E00E947B0361E771E00E94B9076F
:1018A0000E94E60AB82E2CE043E050E06FEF80E0A3
:1018B0000E947B0364E871E00E94B9070E94E60A77
:1018C000B8220150110989F68BE793E00E946E045B
:1018D00081E791E00E94480789E793E00E946E0447
:1018E000B110C5CF0F900F900F900F90DF91CF9157
:1018F0001F910F91FF90EF90DF90CF90BF90AF902E
:101900009F908F907F906F905F904F903F902F901F
:1019100008959A8289828DEF8B8348E851E0BE0159
:101920006F5F7F4FCE0103960E947A1081119FCF87
:10193000D9CF0091900310919103FA82E982580166
:1019400083E0A80EB11C41E951E0BE016F5F7F4FFB
:10195000C5010E947A10882329F2DA82C982BE0169
:101960006F5F7F4FC5010E944310882309F4BACFEF
:10197000FA82E982065F1F4F41E951E0BE016F5FC5
:101980007F4FC8010E947A10882309F4ABCFDA8216
:10199000C982BE016F5F7F4FC8010E944310C6CF4E
:1019A0009AEF9C838BEF8B8380E190E09A8389830D
:1019B00050E040E0BE016F5F7F4FCE0103960E9472
:1019C0007A10882309F48ECF3A822982BE016F5F94
:1019D0007F4FCE0103960E944310882309F482CFE3
:1019E000FA82E98245EA51E0BE016F5F7F4FCE0186
:1019F00004960E947A10882309F474CFDA82C9828F
:101A0000BE016F5F7F4FCE010496C7CF8FEF8093EB
:101A1000280168CF2FE043E050E06FEF80E00E94A4
:101A20007B0364E571E00E94B907E2E9F3E083819A
:101A300087708061838384818F71806C848381E06F
:101A400087831086CF010E94E60A8FE00E94B70FBD
:101A500044E551E061E170E08FEF0E94F50A26E075
:101A600043E050E06FEF80E00E947B036091EA0268
:101A70000E9443060E94E60A86E00E94B70F0C947B
:101A8000D30B2F923F924F925F927F928F929F92B1
:101A9000AF92BF92CF92DF92EF92FF920F931F937C
:101AA000CF93DF93CDB7DEB7A1970FB6F894DEBF23
:101AB0000FBECDBF86E0E82E22242A9492E0392E74
:101AC00093E0492E532C2BE4822E25E0922E87E1C1
:101AD0000E94540980FD10C2EA94EE2009F40CC261
:101AE00021E041E070E060E080E60E94F708182FF6
:101AF000813220F082EE0E94680910E021E0412F3F
:101B000063EB73E081E60E94F70860E487E20E94DD
:101B1000360981E2E3EBF3E0DE01119601900D92CC
:101B20008A95E1F70C81802F8370823081F6CE0197
:101B300001960E944F0602FD89E1895F1813C7CF05
:101B400083EB93E00E944F06782E0091B703077055
:101B50001091B803F090B403D090B303C090B503D4
:101B6000033021F487E591E0113121F083EB93E01C
:101B70000E94AD06A72CB12C9F938F938091B60342
:101B800082FB882780F91F928F931F927F9280910A
:101B9000B7038295869587701F928F931F921F932C
:101BA0001F920F938091B9031F928F931F92CF9230
:101BB0001F92DF921F92FF9222E935E03F932F930D
:101BC0000E946E09809137028068809337020FB6B9
:101BD000F894DEBF0FBECDBF8091E902C8124BC1A1
:101BE000F501ED54FC4F17828091B70383FF21C0AC
:101BF00080E895E09F938F930E946E0981E2E3EB6A
:101C0000F3E0A2E9B3E001900D928A95E1F78091AB
:101C10009603877E8061809396038091E90280938A
:101C20009303F092940382E993E00E94E60A0F90F6
:101C30000F909091B70394FD15C1033009F00AC1CC
:101C40008091B80321EF280F233008F440CF1430DF
:101C500009F43DCF183109F583EB93E00E94640845
:101C60001F928F931F92FF9284E695E09F938F932C
:101C70000E946E0929E143E050E06FEF8F2D0E9432
:101C80007B0361E00E9443060E948E0A0F900F9032
:101C90000F900F900F900F901ACF1931F9F4809197
:101CA000360283FF14C0877F8093360283EB93E074
:101CB0000E946408809338021F928F939F928F92A4
:101CC0000E946E090F900F900F900F9000CF8EE240
:101CD00095E09F938F930E946E090BC11E3109F40A
:101CE000F6CE1D31C1F42FE143E050E06FEF80E00C
:101CF0000E947B03FC0183818770806183838481E0
:101D00008F718064848380E09FEF90878783CF0109
:101D10000E948E0ADCCE2091B4032111A0C08D3028
:101D200059F488E198E00FB6F894A8958093600084
:101D30000FBE90936000FFCF8B31A9F483EB93E04B
:101D40000E94640891E0811101C090E08091B50289
:101D500090FB80F98093B5021F929F9328ED34E0A9
:101D60003F932F93ADCF863099F49091BA0381E0E1
:101D7000992319F09D3409F080E08093B40241E08A
:101D800050E063E071E084EB92E00E9419239FCE63
:101D9000833119F40E940A0D9ACE8231E1F40E9437
:101DA00063065B016C0126E143E050E06FEF80E0E9
:101DB0000E947B03FC01838187708062838384811E
:101DC0008F71806A8483A782B086C186D286CF0154
:101DD0000E94E60A7CCE8230A9F422E043E050E083
:101DE0006FEF80E00E947B03FC018381877080623B
:101DF000838384818F71806A8483278230864186C1
:101E00005286E5CF813001F520E030E0232B09F444
:101E10005ECE929596959770953059F46091BA037D
:101E20007091BB038091BC039091BD030E940000A0
:101E30004ECE911105C08AEB93E00E94E81CF6CFCC
:101E400060E070E0CB01F2CF8A3009F440CE8C31F3
:101E500009F43DCE83EB93E00E94750838CE8A31B9
:101E6000C9F735CE80E295E09F938F930E946E096B
:101E70000F900F90EFCF3FEF8DEE94E0C31229CF7C
:101E800084E195E09F938F930E946E090F900F90CD
:101E9000033009F58091360282FF03C0173009F440
:101EA00016CE143109F013CE8091EA02D8120FCE6B
:101EB0000E94B6057370882799270E94830525E143
:101EC00043E050E06FEF8F2D0E947B036091EA02A8
:101ED0000E9443061DCF8091EA02D812F8CD84E01B
:101EE00095E09F938F930E946E0983EB93E00E948D
:101EF00075080F900F90EBCDA1960FB6F894DEBF4A
:101F00000FBECDBFDF91CF911F910F91FF90EF904A
:101F1000DF90CF90BF90AF909F908F907F905F9019
:101F20004F903F902F90089580912702882361F071
:101F30001F928F9389E693E09F938F930E946E097F
:101F40000F900F900F900F90809127028F5F8093DA
:101F50002702A8950E9458068091360284FD0E94AF
:101F6000410D809127028150809327020895CF92DE
:101F7000DF92EF92FF92CF93DF93D82F8091B3023D
:101F8000882361F01F928F9386E296E09F938F9350
:101F90000E946E090F900F900F900F908091B302E6
:101FA0008F5F8093B3020E94B6056B017C01809124
:101FB000B70387608093B703C0E00E94B6056C1931
:101FC0007D098E099F09603D77408105910578F470
:101FD000C1110DC00E94940F8091B70387708330A8
:101FE00061F7C1E08091B8038D13E6CFE6CF809111
:101FF000B30281508093B3028C2FDF91CF91FF9079
:10200000EF90DF90CF9008958F929F92AF92BF9202
:10201000CF92DF92EF92FF924B015C018091B3026D
:10202000882361F01F928F9387EA93E09F938F93A9
:102030000E946E090F900F900F900F908091B30245
:102040008F5F8093B3020E94B6056B017C010E94F2
:10205000B6056C197D098E099F09681579058A05F1
:102060009B0518F40E94940FF2CF8091B302815027
:102070008093B302FF90EF90DF90CF90BF90AF902E
:102080009F908F900895CF92DF92EF92FF920F93DF
:102090001F93CF93DF937C016B01C9EED3E0F60170
:1020A0000081F701108164E670E080E090E00E941A
:1020B0000410202F42E050E0612F80E00E947B035B
:1020C00064E571E00E94B9070E94E60A182F219783
:1020D00029F4F70180810E94A70702C01123F9F2B9
:1020E000812FDF91CF911F910F91FF90EF90DF90A3
:1020F000CF9008958F929F92AF92BF92CF92DF922E
:10210000EF92FF920F931F93CF937C015B016A01C3
:1021100009EE13E0F50180809180F701C08164E64B
:1021200070E080E090E00E940410A601C114D10488
:1021300011F444E551E0B4018C2F0E94F50AC82F38
:102140000150110929F4F70180810E94A70702C0FC
:10215000CC2301F38C2FCF911F910F91FF90EF9023
:10216000DF90CF90BF90AF909F908F9008952F9267
:102170003F924F925F926F927F928F929F92AF9217
:10218000BF92CF92DF92EF92FF920F931F93CF9364
:10219000DF93CDB7DEB7A1970FB6F894DEBF0FBEC1
:1021A000CDBF809128018F3F09F43DC00E94D30B21
:1021B000809128018F3FC1F00CE310E0015011091C
:1021C00059F084EC93E00E946E0464EF71E080E0CB
:1021D00090E00E940410F2CF87EB93E00E94550735
:1021E0008DEE92E00E94890468EE73E080E090E05A
:1021F0000E940410A1960FB6F894DEBF0FBECDBFAB
:10220000DF91CF911F910F91FF90EF90DF90CF90D2
:10221000BF90AF909F908F907F906F905F904F9006
:102220003F902F9008958091360282FF7EC2809168
:102230002802909129026CE370E00E94E224892B2D
:1022400029F080910501882309F44DC08FE00E9498
:10225000460520910801309109012817390714F427
:10226000821B930B20910601309107012817390733
:1022700071F097FD0CC090930701809306018630A2
:1022800091050CF0BFC010920B0110920A018091D1
:102290000A0190910B0120910C0130910D0128173A
:1022A0003907E1F090930D0180930C01A091060194
:1022B000B091070124E630E00E940A2524E833E0CB
:1022C00040E050E00E943B233A832983AE014F5FF8
:1022D0005F4F67E170E08BEF0E949E0B80910501DC
:1022E00081111092050180910401882339F0109228
:1022F000040163E071E08AEF0E94260BE0909003F6
:10230000F090910367015701EEE0AE0EB11C9924E5
:10231000939482E0882ED60118960D911C91F801B5
:1023200080858B7F80870190F081E02D0190F08186
:10233000E02DC8010995782ED80118968C918695C4
:102340008170781609F485C00E94B605F801628391
:10235000738384839583808588258087F8018085B1
:1023600082FF16C0D6011896ED91FC9119978085D1
:1023700080FD0EC082FF0CC017969C92179781E0DB
:1023800016969C91911180E0F6018683D7019C926C
:10239000B7E0CB0ED11CAC14BD0409F0BCCF8091CA
:1023A00028029091290266E470E00E94E224892BC1
:1023B00009F099C0198217E08981823008F093C032
:1023C0009701189F200D311D1124F9018681882362
:1023D000A9F0F701A181B2818C91882379F0179639
:1023E0008D919C910497039748F4D90116961C92FD
:1023F000BE016F5F7F4FC7010E94500B89818F5FC5
:102400008983DACF833391053CF481E090E09093A7
:102410000B0180930A013BCF873991051CF482E0C0
:1024200090E0F5CF8D3221E092071CF483E090E03C
:10243000EECF853FA1E09A071CF484E090E0E7CF5F
:102440008D3B92401CF485E090E0E1CF86E090E087
:10245000DECF0E94B605D80112962D913D914D9187
:102460005C9115971B012C01221A330A440A550A64
:10247000B201A10116968D919C91B0E0A0E04817A1
:1024800059076A077B0708F469CFD80118968C9121
:102490008170781609F462CF0E94B605F801628354
:1024A00073838483958380858925846080870E94D7
:1024B000B605D8011A964D905D906D907C901D9751
:1024C0006419750986099709F80166877787808BF3
:1024D000918B0E94B605D8011A966D937D938D93CA
:1024E0009C931D973BCFF70180818823C9F0108210
:1024F000198217E08981823098F4F701819FE00DFD
:10250000F11D11248781882339F01782BE016F5F86
:102510007F4FC7010E94500B89818F5F8983EACF6B
:1025200000918E0310918F038091280290912902CF
:1025300067EB70E00E94E224892B29F0D8018C918E
:10254000882309F453C088EC80937C0080917A0042
:10255000806880937A0064E170E080E090E00E94FF
:10256000830580917A00806480937A0080917A005C
:1025700086FDFCCF609178007091790090E080E05A
:102580000E9473222EEA37E242EA53E40E94CD23EE
:1025900026EF38E24CE95FE30E943A240E94AC2423
:1025A000613801F1F80181818617E1F06183CE0184
:1025B00001960E94E2088DEF8F831E82D80111964A
:1025C0002C91022E000C330B8C81877080618C83E0
:1025D0008D818F7180648D8339872887CE01019624
:1025E0000E940D0BF801808181111082E0908C0314
:1025F000F0908D03809128029091290265EB70E0A4
:102600000E94E224892B21F0D7018C91882339F193
:102610008EE00E9446056AE070E00E94F6248B017D
:102620006536710514F004E610E017FF02C010E0F3
:1026300000E0F70181818017110669F0018320E035
:1026400043E050E06FEF80E00E947B03602F0E9428
:1026500043060E94E60AD7018C9181111C920091D9
:102660008A0310918B03809128029091290266EBD6
:1026700070E00E94E224892B29F0F80180818823F0
:1026800009F440C088E00E9454098F7023EE3FEFA8
:10269000F8E08F9F201931091124032E000C440B00
:1026A000550B2B5A3F4F4F4F5F4FA4E6B0E00E94AF
:1026B0005A232DE230E040E050E00E943B232536D3
:1026C000310514F024E630E037FF02C030E020E0AE
:1026D000D80111968D919C9112972817390771F0A6
:1026E00012963C932E9311973A832983AE014F5F44
:1026F0005F4F65E270E08EEF0E949E0BF8018081D3
:1027000081111082809128029091290201968036D1
:10271000FAEE9F0728F4909329028093280264CD53
:1027200010922902109228025FCD60E177E280E0EA
:1027300090E00E94041058CDCF938091B50281FDA6
:1027400028C00E940A0D8CE593E09F938F930E940E
:102750006E098091B50281608093B5020F900F9051
:10276000C4E02AE143E050E06FEF80E00E947B0389
:1027700062E00E9443060E94E60A8BE10E94B70FC6
:10278000811102C0C15069F78091B50282608093C7
:10279000B502CF9108950F931F930E946306209175
:1027A000370220772037B9F000E117E220E030E06F
:1027B000061717072807390798F488EB92E09F93CC
:1027C0008F930E946E090F900F9089E291E01F9104
:1027D0000F910C94760600E61AEE20E030E0E8CF88
:1027E0001F910F91089580913702982F907790371D
:1027F00059F0982F92959F709F5F97709295907F58
:102800008F78892B80933702809137028295877069
:102810001F928F9387EA92E09F938F930E946E0995
:10282000809136028B7F8F7E8093360289E992E019
:102830009F938F930E946E098CE892E09F938F93F1
:102840000E946E0929988DB79EB708960FB6F89426
:102850009EBF0FBE8DBF6CE080E20C943609809164
:1028600037028F70863068F081E792E09F938F93F4
:102870000E946E0980913702807F809337020F900B
:102880000F9008958091EB021F928F938091EA023E
:102890001F928F938091E9021F928F9382E592E0BD
:1028A0009F938F930E946E0980913602846080937B
:1028B000360280913702807880933702E0912A02B5
:1028C000F0912B028DB79EB708960FB6F8949EBF75
:1028D0000FBE8DBF309709F009940895809138029A
:1028E0008F3F81F10E94B6056093320270933302EC
:1028F000809334029093350286E492E09F938F9305
:102900000E946E09909138028091EB020F900F9017
:102910009817A1F01F929F931F928F938EE292E0DF
:102920009F938F930E946E09809138028093EB02EF
:102930000F900F900F900F900F900F9084E291E006
:102940000C9476060E946306613D774081059105EF
:10295000B8F080913602803618F480E291E0F0CF32
:102960008FE192E09F938F930E946E0980913602CF
:10297000877F809336020F900F908CE191E0E0CF3B
:10298000089586E192E09F938F930E946E098FEFE6
:1029900080933802E6E3F2E080818860808328E15A
:1029A00043E050E06FEF80E00E947B0361E00E9413
:1029B00043060F900F900C948E0A8091E9028F3F8E
:1029C00061F08BE092E09F938F930E946E090F90CD
:1029D0000F9080E291E00C9476060E946306613DC0
:1029E00077408105910590F080913602803618F489
:1029F00088E191E0F0CF8DEF91E09F938F930E945B
:102A00006E090F900F9084E191E0E5CF089585EF76
:102A100091E09F938F930E946E090F900F90809189
:102A2000E9028F3FA9F489EE91E09F938F930E9472
:102A30006E0923E043E050E06FEF80E00E947B03EB
:102A400064E571E00E94B9070F900F900C948E0A14
:102A50000895CF93DF938FED91E09F938F930E9422
:102A60006E09C6E3D2E088818B7F8D7F88831F92B9
:102A70001F928CEC91E09F938F930E946E09888146
:102A80008E7F8883E9EEF2E081E0828311820F90ED
:102A90000F900F900F900F900F9060E081E090E00A
:102AA000DF91CF910C942923CF93219A229A2998D0
:102AB0002A9ACFB7F89480912602811127C0E4EFBB
:102AC000F5E08491E8E0F6E09491E82FF0E0EE0F75
:102AD000FF1FEA52FA4FA591B491EC91E92321F43A
:102AE00061E08AE00E94DC0461E08AE00E940A055D
:102AF0008CB580618CBD8CB580648CBD61E08DE04F
:102B00000E940A0561E08BE00E940A05809126027E
:102B10008F5F80932602CFBF29986EE080E20E94EB
:102B2000360984E293E20197F1F763E083E20E94C1
:102B300036096FE584E20E9436096CE485E20E9462
:102B4000360965E286E20E94360964E08DE30E9460
:102B500036098DE10E945409843041F063E780E535
:102B60000E94360964E08DE30E9436090E945A09EA
:102B700081110DC08CE691E09F938F930E946E09A6
:102B80000F900F9084E191E0CF910C94760662E073
:102B900082E20E94360960E081E20E94360963E029
:102BA0008CE30E9436098FEF80930E0120E045E010
:102BB0006EE071E08BE20E94F70820E045E06EE0F5
:102BC00071E08AE20E94F70820E045E06EE071E0E3
:102BD00080E30E94F70882EE0E94680981EE0E945D
:102BE000680960E787E20E9436098BEB91E09F93CA
:102BF0008F930E946E098091360280618093360225
:102C00008091EC028E7F8093EC021F92C6E1CF93FD
:102C100087EA91E09F938F930E946E09C093E90227
:102C200066E190E080E00E942923C091E9020F90C4
:102C30000F900F900F900F900F90CF3F09F18FEFF3
:102C40008C0F8E3F00F5C093130163E082E20E9477
:102C5000360961E081E20E9436090E9447096C2F23
:102C600090E080E00E9429231F92CF9380E891E0BA
:102C70009F938F930E946E090F900F900F900F906B
:102C80008CE191E081CF1F921F9282E991E09F93A6
:102C90008F930E946E090F900F900F900F9072CF3C
:102CA00082E691E09F938F930E946E09E6E3F2E043
:102CB0008081877F8F7E8083109232021092330250
:102CC00010923402109235020F900F9044E050E0C1
:102CD00070E060E089EE92E00C940123EF92FF92A5
:102CE0000F931F93CF93DF93CDB7DEB780E091E0D2
:102CF0000E94A51B8C019395F80111928E179F07D6
:102D0000E1F79E01255F3F4F49855A856FEF70E0DF
:102D1000C8010E9426257801F70161917F01662391
:102D200029F08DEE92E00E942104F6CF01151105E5
:102D300019F0C8010E94411CDF91CF911F910F91A2
:102D4000FF90EF9008955F926F927F928F929F9283
:102D5000AF92BF92CF92DF92EF92FF920F931F93A9
:102D6000CF93DF93CDB7DEB7C555D1090FB6F89431
:102D7000DEBF0FBECDBF0E94530325E5E1EDF1E0BC
:102D8000CE010196DC0101900D922A95E1F71F9288
:102D900022E02F931F921F921F921F9224E831E08E
:102DA0003F932F9321E731E03F932F9326EB31E0C0
:102DB0003F932F932CEB31E03F932F9325EC31E0A1
:102DC0003F932F939F938F930E946E168DEE92E008
:102DD0000E94890490919003809191035FB6F894CA
:102DE000092F182F38012EE0620E711C0FB6F894CF
:102DF000DEBF0FBECDBF8CE3A82E81E0B82E9AE0D7
:102E0000892E912C24E6C22ED12C82E190E00E94E2
:102E1000A51BFC01B182A08212821382148215824A
:102E20009782868210861186D80119969C938E937C
:102E3000189713968C9190E083569E4F0E94112311
:102E4000F801868391E0811101C090E0D8011796C6
:102E50009C93179761E014968C910E940A0562E09A
:102E6000F80185810E940A0561E0D80115968C91D0
:102E70000E94DC04F801E084F1848581D701199671
:102E80008C93199718961C921897ED91FC910190CC
:102E9000F081E02DC7010995882321F0F701808595
:102EA000836080870E94B605D70112966D937D934B
:102EB0008D939C931597D8011896ED91FC91D7822C
:102EC000C682095F1F4F6016710609F09ECF5FBE74
:102ED00083E0809331018FE00E944605F12CE12CC4
:102EE00010E000E00E94B605683873418105910545
:102EF00098F464E670E080E090E00E9404108FE0B7
:102F00000E944605081719072CF08E159F050CF432
:102F10007C01C8018C01E6CF0E191F090F31110584
:102F20002CF5109309010093080187E992E00E94B3
:102F3000112391E0811101C090E090930301CB5ADD
:102F4000DF4F0FB6F894DEBF0FBECDBFDF91CF913C
:102F50001F910F91FF90EF90DF90CF90BF90AF90B7
:102F60009F908F907F906F905F90089510920901CD
:102F700010920801DACF1F920F920FB60F92112410
:102F80002F933F934F935F936F937F938F939F9371
:102F9000AF93BF93EF93FF938DEE92E00E94FF03F8
:102FA000FF91EF91BF91AF919F918F917F916F9121
:102FB0005F914F913F912F910F900FBE0F901F90F7
:102FC00018951F920F920FB60F9211242F938F9383
:102FD0009F93EF93FF93E091FD02F091FE028081B9
:102FE000E0910303F091040382FD1BC09081809166
:102FF00006038F5F8F7320910703821741F0E091E2
:103000000603F0E0E351FD4F958F80930603FF9197
:10301000EF919F918F912F910F900FBE0F901F9066
:1030200018958081F4CF1F920F920FB60F92112442
:103030002F933F938F939F93AF93BF938091AB0256
:103040009091AC02A091AD02B091AE023091AA0273
:1030500026E0230F2D3758F50296A11DB11D2093B0
:10306000AA028093AB029093AC02A093AD02B093FE
:10307000AE028091AF029091B002A091B102B091E6
:10308000B2020196A11DB11D8093AF029093B002D0
:10309000A093B102B093B202BF91AF919F918F9173
:1030A0003F912F910F900FBE0F901F90189529E818
:1030B000230F0396A11DB11DD2CF1F920F920FB601
:1030C0000F9211242F933F934F935F936F937F93AE
:1030D0008F939F93AF93BF93EF93FF93E0912F0153
:1030E000F09130010995FF91EF91BF91AF919F91C0
:1030F0008F917F916F915F914F913F912F910F90A1
:103100000FBE0F901F9018951F920F920FB60F923F
:1031100011242F933F934F935F936F937F938F93DC
:103120009F93AF93BF93EF93FF93E0912D01F091A5
:103130002E010995FF91EF91BF91AF919F918F91D2
:103140007F916F915F914F913F912F910F900FBEA3
:103150000F901F9018951F920F920FB60F92112487
:103160002F933F934F935F936F937F938F939F938F
:10317000AF93BF93EF93FF938091B900887F803620
:1031800009F44AC0F0F5883209F4A5C018F5803179
:1031900009F499C0B8F4882309F4F5C0883009F41B
:1031A00092C0FF91EF91BF91AF919F918F917F91CD
:1031B0006F915F914F913F912F910F900FBE0F90A4
:1031C0001F901895883109F486C0803251F780939A
:1031D000830214C0803409F49BC040F48033B9F3F7
:1031E0008833F9F68093830285ECAEC0803509F40C
:1031F00083C0883509F494C0883499F60E94EF079B
:10320000D0CF883909F48AC038F5883729F050F4CE
:10321000883611F0803729F683E08093840210927B
:10322000820255C0883809F479C0803919F0803895
:1032300009F0B7CF80918202803208F06FC0E09130
:10324000820281E08E0F809382028091BB00F0E0C9
:10325000EE59FD4F80833BC0803B39F0D0F4803A7B
:1032600009F477C0883A09F09CCF84E08093840207
:103270001092610210926002F0E0E0E00995809106
:10328000600281110FC081E08093600210924002C1
:1032900009C0803C09F4A8CF883C09F4A5CF883B3D
:1032A00009F07FCFE091610281E08E0F809361028F
:1032B000F0E0E05CFD4F80818093BB009091610263
:1032C0008091600229C08091A9028093BB0085ECA7
:1032D0008093BC0066CF9091A8028091A7029817B6
:1032E00058F5E091A80281E08E0F8093A802F0E0EB
:1032F000E957FD4F8081E9CFE091A80281E08E0F70
:103300008093A8028091BB00F0E0E957FD4F8083D5
:103310009091A8028091A7029817C8F285E8D8CFAB
:10332000E091A80281E08E0F8093A8028091BB00FB
:10333000F0E0E957FD4F80838091860281115ECFD6
:1033400081E08093850284EA8093BC00109284021D
:1033500028CF85EC8093BC00109284028091820279
:10336000803230F4E0918202F0E0EE59FD4F10829D
:103370006091820270E082E692E0F0E0E0E0099580
:10338000109282020ECF1092830238CF1F920F92BA
:103390000FB60F9211240F900FBE0F901F9018952B
:1033A000CF93EDEEF2E01382128288EE93E0A0E07C
:1033B000B0E084839583A683B78384E491E091830E
:1033C000808385EC90E09587848784EC90E09787F4
:1033D000868780EC90E0918B808B81EC90E0938BE2
:1033E000828B82EC90E0958B848B86EC90E0978BBF
:1033F000868B118E128E138E148E83EB93E00E94B7
:10340000E20882E993E00E94E20881E190E00E94F4
:10341000A51BFC01C1E0C0839C012D5F3F4F8EE0E6
:10342000D9011D928A95E9F788E0848386E0858337
:10343000C28787E0838785E0848783E091E0928379
:1034400081838FB7F894F0939103E09390038FBF3B
:1034500082E090E00E94A51BFC011182C0832FB77F
:10346000F89490938F0380938E032FBF82E090E0B7
:103470000E94A51BDC0111961C921197CC932FB7CB
:10348000F89490938D0380938C032FBF83E090E09A
:103490000E94A51BFC0112821182C0832FB7F894F1
:1034A00090938B0380938A032FBFCF9108957894D4
:1034B00084B5826084BD84B5816084BD85B5826039
:1034C00085BD85B5816085BD80916E0081608093EA
:1034D0006E00109281008091810082608093810053
:1034E0008091810081608093810080918000816063
:1034F000809380008091B10084608093B1008091BE
:10350000B00081608093B00080917A0084608093E5
:103510007A0080917A00826080937A0080917A00AC
:103520008E7F80937A0080917A00806880937A0001
:103530001092C100A89580E090E0892B11F00E94C4
:1035400000000E945303C0E1D0E0F12CFE01F5958C
:10355000E795E353FC4FE491C0FF9EC0EF70E83065
:1035600008F09FC0F0E0E353FC4FF4906F2D8DEE18
:1035700092E00E9421042196C23FD10539F786ECE2
:1035800093E00E9455071F928FEF8F931F9288E060
:103590008F9388E894E09F938F930E946E098091A7
:1035A000B5028D7F8093B5028BE794E09F938F9354
:1035B0000E946E090E94A31641E050E063E071E0B2
:1035C00084EB92E00E94012360E081E090E00E94A1
:1035D0002923809137028F788093370210922D0231
:1035E00010922C0289E291E00E9476068CE993E128
:1035F00090932B0280932A021F921F921F921F9278
:1036000086E494E09F938F930E946E090E94B60512
:103610008DB79EB70E960FB6F8949EBF0FBE8DBFA6
:103620000E94B6050E9458068091360284FD36C07D
:103630008091360282FB882780F9A895882381F340
:103640008EE694E09F938F930E946E0990913602CC
:103650000F900F9092FB882780F992FD0E945A09E3
:103660001F928F9386E594E09F938F930E946E093B
:10367000A8950F900F900F900F90C0E0D0E00E949F
:10368000940F0E94B7102097D1F30E94F50388236E
:10369000B1F30E940000F3CFE29560CF0E94410D8C
:1036A000C7CF1BEF1E0F00E06F2D8DEE92E00E9442
:1036B00021040F5F0117C0F35ECFCF93DF9380919A
:1036C0008A0390918B030E94411C80918C039091FE
:1036D0008D030E94411C80918E0390918F030E9464
:1036E000411CC0919003D0919103209769F0888587
:1036F00099850E94411C8F8598890E94411CCE01AA
:10370000DF91CF910C94411CDF91CF910895EF92FE
:103710000F931F93CF93DF93E80134E047FD34E12B
:10372000042E000C550B57FF03C0519541955109CC
:10373000E32E022F242FAE010E94881FCE01DF91BD
:10374000CF911F910F91EF9008950F931F93CF93F7
:10375000DF938230910510F482E090E0E091D6038F
:10376000F091D70330E020E0B0E0A0E0309799F48A
:103770002115310509F44AC0281B390B24303105C5
:10378000D8F58A819B816115710589F1FB019383CD
:103790008283FE0111C0408151810281138148174B
:1037A0005907E0F04817590799F4109761F01296FD
:1037B0000C93129713961C933296CF01DF91CF9101
:1037C0001F910F9108950093D6031093D703F4CF60
:1037D0002115310551F04217530738F0A901DB01DB
:1037E0009A01BD01DF01F801C1CFEF01F9CF90933C
:1037F000D7038093D603CDCFFE01E20FF31F819351
:1038000091932250310939832883D7CF2091D40353
:103810003091D503232B41F42091340130913501AF
:103820003093D5032093D40320913201309133019A
:103830002115310541F42DB73EB740913601509125
:103840003701241B350BE091D403F091D503E21727
:10385000F307A0F42E1B3F0B2817390778F0AC01B3
:103860004E5F5F4F2417350748F04E0F5F1F509390
:10387000D5034093D403819391939FCFF0E0E0E090
:103880009CCFCF93DF930097E9F0FC01329713822E
:103890001282A091D603B091D703ED0130E020E071
:1038A0001097A1F420813181820F931F2091D403BE
:1038B0003091D5032817390709F061C0F093D5037B
:1038C000E093D403DF91CF910895EA01CE17DF078B
:1038D000E8F54A815B819E0141155105B1F7E90187
:1038E000FB83EA8349915991C40FD51FEC17FD075B
:1038F00061F4808191810296840F951FE90199837B
:103900008883828193819B838A83F0E0E0E0129632
:103910008D919C9113970097B9F52D913C9111973A
:10392000CD010296820F931F2091D4033091D503CD
:103930002817390739F6309751F51092D7031092AE
:10394000D603B093D503A093D403BCCFD383C28353
:1039500040815181840F951FC817D90761F44E5FCC
:103960005F4F88819981480F591F518340838A8115
:103970009B81938382832115310509F0B0CFF093A9
:10398000D703E093D6039ECFFD01DC01C0CF1382A5
:103990001282D7CFFC0188279927E8942191203201
:1039A000E9F3293010F02E30C8F32B3241F02D32DC
:1039B00039F4689404C00E943E1D820F911D21912C
:1039C00020532A30C0F31EF4909581959F4F08959F
:1039D0001F93FC0199278827BC01E89411911032AC
:1039E000E9F3193010F01E30C8F31B3251F01D32CC
:1039F00049F4689406C00E94291D610F711D811D44
:103A0000911D119110531A30B0F33EF490958095AA
:103A1000709561957F4F8F4F9F4F1F910895BB27E2
:103A20004A3031F4992322F4BDE2909581959F4F5D
:103A30000C94691DBB272A3051F4992342F4BDE24E
:103A400090958095709561957F4F8F4F9F4F0C9407
:103A5000471D592F482F372F262F660F771F881F96
:103A6000991F660F771F881F991F620F731F841F8E
:103A7000951F660F771F881F991F08957AE0979FFB
:103A8000902D879F802D910D11240895BB27FA0159
:103A9000A62F6217710581059105330B30FB66F087
:103AA000AA27660F771F881F991FAA1FA21710F059
:103AB000A21B63953850A9F7A05DAA3308F0A95D51
:103AC000A19336F7B111B1931082CA010C94D5219C
:103AD000BB27FB015527AA27880F991FAA1FA417E8
:103AE00010F0A41B83955051B9F7A05DAA3308F0DC
:103AF000A95DA193009779F7B111B1931192CB0110
:103B00000C94D521AEE0B0E0E8E8FDE10C9473231D
:103B10008C01FA018EE08C831A83098377FF02C03F
:103B200060E070E8615071097E836D83A901BF0177
:103B3000CE0101960E94AE1D4D815E8157FD0AC0E7
:103B40002F813885421753070CF49A01020F131F77
:103B5000F80110822E96E4E00C948F23ABE0B0E0E5
:103B6000E4EBFDE10C9465237C013B018A01FC013F
:103B700017821682838181FFC8C1CE0101965C0144
:103B8000F7019381F30193FD859193FF81913F01AB
:103B9000882309F453C1853239F493FD859193FF4D
:103BA00081913F01853229F4B70190E00E94E5211F
:103BB000E7CF912C212C312CFFE1F31538F08B321B
:103BC00011F190F4803209F1833229F137FC3CC0C5
:103BD00020ED280F2A3050F536FE20C08AE0989E4E
:103BE000200D1124922E06C08D3291F0803371F792
:103BF000689430F8F30193FD859193FF81913F0123
:103C00008111DACF21C0689431F8689432F8F2CF8C
:103C1000689433F8EFCF689434F8ECCFEAE02E9E46
:103C2000200D1124222E689435F8E4CF8E3229F429
:103C300036FC04C1689436F8DDCF8C3619F46894EC
:103C400037F8D8CF8836B1F2982F9F7D95549330AE
:103C5000E0F08336A1F18337C1F1833509F063C009
:103C60002801F2E04F0E511CF801C080D180692D6F
:103C700070E036FC02C06FEF7FEFC6010E94BF21EB
:103C80004C01689437F882010AC00C5F1F4FFFE3B4
:103C9000F98388248394912C6501E89437F833FEE6
:103CA0002DC0522C8114910471F5552009F468CF70
:103CB000B70180E290E00E94E5215A94F6CFF80126
:103CC000808189830E5F1F4FE4CF2801F2E04F0E01
:103CD000511CF801C080D180692D70E036FC02C013
:103CE0006FEF7FEFC6010E94CA214C018201D5CF40
:103CF000B70180E290E00E94E5212A94281419047B
:103D000009F0B0F7CECFF60137FC859137FE8191EF
:103D10006F01B70190E00E94E52151105A94F1E043
:103D20008F1A9108BFCF843619F0893609F077C011
:103D3000F80137FE6BC060817181828193810C5FD5
:103D40001F4FF32DFF763F2E97FF09C0909580956A
:103D5000709561957F4F8F4F9F4F689437F82AE099
:103D600030E0A5010E941522C82ECA188C2C432CC5
:103D700036FE0CC0E89440F8C91440F434FE05C087
:103D800032FC03C0F32DFE7E4F2E892C44FE95C0DD
:103D9000FE01EC0DF11D8081803309F087C0242DD8
:103DA000297E422E842D8870582E43FC95C040FEFB
:103DB0008FC09C2C821418F42C0C922C981844FE62
:103DC00091C0B70180E390E00E94E52142FE09C066
:103DD00088E790E041FE02C088E590E0B7010E94CC
:103DE000E521C91408F48AC0CA94D12C9FEFC91ADE
:103DF000D90ACA0CDB1CF60182916F01B70190E071
:103E00000E94E521AC14BD04B1F74FCF60817181F0
:103E1000072E000C880B990B0E5F1F4F92CFD32CEF
:103E2000E894D4F82AE030E0853739F1232D297F52
:103E3000D22E8F3601F148F48835A9F0F70186813A
:103E400097812B96E2E10C948123803749F08837E3
:103E5000A9F7D4FE02C06894D2F820E130E00DC08A
:103E60006894D4F8F6CF34FE03C0822F8660D82E33
:103E700020E132E002C028E030E0F801D7FE0FC0B8
:103E800060817181828193810C5F1F4FA5010E9427
:103E90001522C82ECA183D2CE89437F867CF6081E8
:103EA000718190E080E00E5F1F4FF0CF42FC02C0B6
:103EB000839478CF8394839475CF842D867809F486
:103EC00071CFF6CFB70180E290E00E94E5218394A4
:103ED0008214C0F3512C73CF522C5818821408F45A
:103EE0006ECFF8CF842D867809F47BCF8BE241FE2C
:103EF00080E247FC8DE2B70190E071CFB70180E32B
:103F000090E00E94E5219A946CCF8FEF9FEF99CFBC
:103F1000A9E0B0E0EEE8FFE10C946B236A01F22E19
:103F2000B02E102FFBE3AF2EA01608F41BE31F5F8B
:103F3000012F27E0AE014F5F5F4F0E94E720BC01D9
:103F40008981982F9970913009F43FC09BE2E1FC80
:103F500004C09E2D9170E0FC3AC05E2D5071E82F98
:103F6000E87083FF46C084E0911101C083E0EF2D2B
:103F7000E81B8F1508F0E0E0D6018E2F20E25523D4
:103F800051F1992329F0D6019C93C60101966C0149
:103F900096012D5F3F4FE2FE24C08EE4D6018C9344
:103FA00091E411969C93119712968C93D9018E2FC0
:103FB00090E281111BC0E20FF32FF11D10828EEFF2
:103FC0009FEF2996ECE00C9487239DE2C6CF90E208
:103FD000C4CF2D9381508111FCCFCE0ED11CE0E0D7
:103FE000D0CF8EE6D6018C9391E6DBCF9D938150A6
:103FF000E0CF482F447082FF3DC084E0911101C0A2
:1040000083E08F1510F4EF2DE81BD6018E2F20E2F0
:10401000552309F1992329F0D6019C93C6010196F5
:104020006C0196012D5F3F4FE2FE1BC089E4D60173
:104030008C938EE411968C93119786E412968C9350
:10404000D9018E2F90E2882309F4B5CF9D9381503A
:10405000FACF2D9381508111FCCFCE0ED11CE0E020
:10406000D9CF89E6D6018C938EE611968C93119761
:1040700086E6E4CF9B0177FF02C030E020E0A1E0BC
:10408000B0E0911102C0B0E0A0E0F9013196AE0FAE
:10409000BF1F8B2C912CBB2009F461C05401EFEFA2
:1040A000AE1ABE0AAA0DBB1DFA161B0619F014F0B3
:1040B0004F2D4A1B511188C0E3FC59C07601A42F33
:1040C000B0E2A1114FC0C40ED11C992309F45BC00A
:1040D00040E0D6011196F60190836D01552309F455
:1040E00048C0012F060F9A81582F507184FF03C0DA
:1040F000913309F4015010160CF047C0093008F054
:1041000008E0EEE2FE2E5B01A01AB1088501919451
:10411000819491082F3F320729F4D601FC92F601D1
:1041200031966F016217730794F1021713077CF53C
:10413000DB01A21BB30BAA24A394B12CAC0EBD1EB1
:10414000AA0DBB1D11968C9121503109D6011196F3
:1041500028153905F4F0F60180836D01DBCFB12C11
:10416000A12CA0CFF701B1937F01A150AACF91114B
:10417000B0CFD601942F50E302C05D9391509111BE
:10418000FCCFC40ED11C40E0ACCF01E0BACF80E33D
:10419000DBCF6217730731F4963388F4953311F44B
:1041A000552369F0F6018083FD01842F90E281118F
:1041B00008C0A40FB11D1C9290E080E002CF81E303
:1041C000F1CF91938150F3CF911183CF8ACF2830D3
:1041D00008F027E03327DA01990F311D87FD916040
:1041E00000966105710539F432602E5F3D9330E32E
:1041F0002A95E1F708959F3F30F0803871056105F9
:1042000009F03C5F3C5F3D93913008F08068911D60
:10421000DF93CF931F930F93FF92EF92192F987F05
:104220009695E92F96959695E90FFF27EE53FF4F48
:1042300099273327EE24FF24A701E701059008946E
:10424000079428F4360FE71EF81E491F511D660F0C
:10425000771F881F991F0694A1F70590079428F4EB
:10426000E70EF81E491F561FC11D770F881F991FA3
:10427000661F0694A1F70590079428F4F80E491FCD
:10428000561FC71FD11D880F991F661F771F0694E1
:10429000A1F70590079420F4490F561FC71FD81F98
:1042A000990F661F771F881F0694A9F784911095B0
:1042B000177041F0D695C79557954795F794E794B1
:1042C0001A95C1F7E8E6F0E06894159015913591DC
:1042D0006591959105907FE27395E118F10A430B82
:1042E000560BC90BD009C0F7E10CF11E431F561F36
:1042F000C91FD01D7EF4703311F48A95E6CFE8947F
:10430000015030F0080F0AF40027021708F4202F9C
:104310002395022F7A3328F079E37D932A95E9F7E4
:1043200010C07D932A9589F60694979567953795E1
:1043300017951794E118F10A430B560BC90BD009D6
:1043400098F023957E9173957A3308F070E37C930F
:104350002013B8F77E9170617D9330F0839571E3FF
:104360007D9370E32A95E1F71124EF90FF900F9170
:104370001F91CF91DF91992787FD90950895FC01BA
:104380000590615070400110D8F7809590958E0F80
:104390009F1F0895FC016150704001900110D8F7F3
:1043A000809590958E0F9F1F0895DC01FC01672F6B
:1043B00071917723E1F7329704C07C916D937083FC
:1043C0006291AE17BF07C8F308950F931F93CF9361
:1043D000DF93182F092FEB018B8181FD09C01FEF9F
:1043E0000FEF812F902FDF91CF911F910F910895A3
:1043F00082FF14C02E813F818C819D81281739074F
:104400003CF4E881F981CF01019699838883108378
:104410008E819F8101969F838E83E3CFE885F98506
:10442000812F0995892BA1F3DACFFA01AA27283029
:1044300051F1203181F1E8946F936E7F6E5F7F4F71
:104440008F4F9F4FAF4FB1E03ED0B4E03CD0670FED
:10445000781F891F9A1FA11D680F791F8A1F911D40
:10446000A11D6A0F711D811D911DA11D20D009F490
:1044700068943F912AE0269F11243019305D3193D2
:10448000DEF6CF010895462F4770405D4193B3E0BB
:104490000FD0C9F7F6CF462F4F70405D4A3318F062
:1044A000495D31FD4052419302D0A9F7EACFB4E013
:1044B000A6959795879577956795BA95C9F70097CB
:1044C0006105710508959B01AC010A2E069457956C
:1044D000479537952795BA95C9F7620F731F841FC3
:1044E000951FA01D0895E89409C097FB3EF4909590
:1044F0008095709561957F4F8F4F9F4F9923A9F0BD
:10450000F92F96E9BB279395F6958795779567954B
:10451000B795F111F8CFFAF4BB0F11F460FF1BC08F
:104520006F5F7F4F8F4F9F4F16C0882311F096E922
:1045300011C0772321F09EE8872F762F05C06623D0
:1045400071F096E8862F70E060E02AF09A95660F89
:10455000771F881FDAF7880F9695879597F9089542
:1045600097F99F6780E870E060E008959FEF80EC26
:10457000089500240A9416161706180609060895C9
:1045800000240A9412161306140605060895092E2F
:104590000394000C11F4882352F0BB0F40F4BF2B9E
:1045A00011F460FF04C06F5F7F4F8F4F9F4F0895DE
:1045B00057FD9058440F551F59F05F3F71F04795D4
:1045C000880F97FB991F61F09F3F79F087950895B9
:1045D000121613061406551FF2CF4695F1DF08C0D8
:1045E000161617061806991FF1CF869571056105F5
:1045F00008940895E894BB2766277727CB0197F99D
:104600000895DC01CB01FC01F999FECF06C0F2BD93
:10461000E1BDF89A319600B40D9241505040B8F780
:104620000895F999FECF92BD81BDF89A992780B57A
:104630000895DC01A40FB51F4150504048F0CB0154
:10464000840F951F2E910E942A2341505040D0F78D
:104650000895262FF999FECF92BD81BDF89A019752
:1046600000B4021639F01FBA20BD0FB6F894FA9ABA
:10467000F99A0FBE0895052E97FB1EF400940E9430
:10468000522357FD07D00E949C2307FC03D04EF411
:104690000C94522350954095309521953F4F4F4FA4
:1046A0005F4F089590958095709561957F4F8F4FDE
:1046B0009F4F08950E94BE23A59F900DB49F900D1B
:1046C000A49F800D911D112408952F923F924F9227
:1046D0005F926F927F928F929F92AF92BF92CF9292
:1046E000DF92EF92FF920F931F93CF93DF93CDB79B
:1046F000DEB7CA1BDB0B0FB6F894DEBF0FBECDBF13
:1047000009942A88398848885F846E847D848C84E3
:104710009B84AA84B984C884DF80EE80FD800C81EC
:104720001B81AA81B981CE0FD11D0FB6F894DEBFCF
:104730000FBECDBFED010895A1E21A2EAA1BBB1B2F
:10474000FD010DC0AA1FBB1FEE1FFF1FA217B3075D
:10475000E407F50720F0A21BB30BE40BF50B661F73
:10476000771F881F991F1A9469F760957095809537
:1047700090959B01AC01BD01CF010895A29FB001AE
:10478000B39FC001A39F700D811D1124911DB29F85
:10479000700D811D1124911D08955058BB27AA2723
:1047A0000E94E5230C94C7220E94B92238F00E948F
:1047B000C02220F039F49F3F19F426F40C94B6225D
:1047C0000EF4E095E7FB0C94B022E92F0E94D8226A
:1047D00058F3BA17620773078407950720F079F436
:1047E000A6F50C94FA220EF4E0950B2EBA2FA02D0C
:1047F0000B01B90190010C01CA01A0011124FF278E
:10480000591B99F0593F50F4503E68F11A16F04088
:10481000A22F232F342F4427585FF3CF4695379587
:104820002795A795F0405395C9F77EF41F16BA0B4C
:10483000620B730B840BBAF09150A1F0FF0FBB1FFA
:10484000661F771F881FC2F70EC0BA0F621F731F43
:10485000841F48F4879577956795B795F7959E3FA0
:1048600008F0B0CF9395880F08F09927EE0F979531
:10487000879508950E944E240C94C7220E94C0225E
:1048800058F00E94B92240F029F45F3F29F00C94BF
:10489000B02251110C94FB220C94B6220E94D82213
:1048A00068F39923B1F3552391F3951B550BBB275F
:1048B000AA2762177307840738F09F5F5F4F220FA4
:1048C000331F441FAA1FA9F335D00E2E3AF0E0E89B
:1048D00032D091505040E695001CCAF72BD0FE2FE5
:1048E00029D0660F771F881FBB1F26173707480779
:1048F000AB07B0E809F0BB0B802DBF01FF27935831
:104900005F4F3AF09E3F510578F00C94B0220C9422
:10491000FB225F3FE4F3983ED4F386957795679545
:10492000B795F7959F5FC9F7880F911D9695879565
:1049300097F90895E1E0660F771F881FBB1F621784
:1049400073078407BA0720F0621B730B840BBA0B42
:10495000EE1F88F7E09508950E94B3246894B11182
:104960000C94FB2208950E94E02288F09F5798F053
:10497000B92F9927B751B0F0E1F0660F771F881F64
:10498000991F1AF0BA95C9F714C0B13091F00E947E
:10499000FA22B1E008950C94FA22672F782F882725
:1049A000B85F39F0B93FCCF3869577956795B395A5
:1049B000D9F73EF490958095709561957F4F8F4F14
:1049C0009F4F0895AA1BBB1B51E107C0AA1FBB1F25
:1049D000A617B70710F0A61BB70B881F991F5A958B
:1049E000A9F780959095BC01CD01089597FB072EFE
:1049F00016F4009407D077FD09D00E94E22407FC4A
:104A000005D03EF4909581959F4F089570956195DE
:104A10007F4F08950E94BE23B7FF0895821B930B1A
:104A20000895EE0FFF1F0590F491E02D0994FB010E
:104A3000DC014150504048F001900D920020C9F730
:104A400001C01D9241505040E0F70895AEE0B0E043
:104A5000ECE2F5E20C9473238C01FA0186E08C837E
:104A60001A83098377FF02C060E070E86150710922
:104A70007E836D83A901BF01CE0101960E94AE1D08
:104A80004D815E8157FD0AC02F813885421753073B
:104A90000CF49A01020F131FF80110822E96E4E025
:104AA0000C948F2313E0C8E2D3E004C0FE010E94FF
:0E4AB00011252196C932D107C9F7F894FFCF1E
:104ABE00FFFFFF010101000000000000000000FCEC
:104ACE00E1A8A8FFF313CB130715DD142915A206D1
:104ADE00C1146E1442142F140150165415C205C27F
:104AEE0005010000D803800000000000C705C305C3
:104AFE000000000021048B03B8038904E903C703F7
:104B0E00DB030D0A0020003C4E4F4E43453E004F46
:104B1E004B004E41434B003F002100322E332E32CC
:104B2E000073656E736F722D52656C61792D4274D0
:104B3E006E2D3200312E3200496E742E54656D701A
:104B4E000052656C61792E427574746F6E2E4C69CD
:104B5E0067687473004175746F2E4C69676874735F
:104B6E00005253534900372E332E300030313A3134
:104B7E00333A3034005365702032342032303230C4
:104B8E00002D2D204275696C643A202573202D204E
:104B9E0025732C2025730A2D2D204E616D653A202C
:104BAE005B25733A25735D0A2D2D20496E69743A83
:104BBE002064696D6D6572733D25752C2072656C70
:104BCE006579733D25752C2072656C657973427419
:064BDE006E3D25750A0082
:00000001FF
