:020000040000FA
:100000000C9463000C94860F0C945F0F0C948B007F
:100010000C948B000C948B000C94C8100C948B00E7
:100020000C948B000C948B000C948B000C948B0024
:100030000C948B000C948B000C948B000C948B0014
:100040000C94150F0C948B000C948B000C948B006B
:100050000C948B000C948B000C948B000C948B00F4
:100060000C94AD0F0C948B000000000023002600C0
:10007000290000000000240027002A0000000000E2
:10008000250028002B0004040404040404040202D4
:100090000202020203030303030301020408102007
:1000A0004080010204081020010204081020000012
:1000B0000008000201000003040700000000000027
:1000C0000000D210C01111241FBECFEFD8E0DEBF58
:1000D000CDBF11E0A0E0B1E0E4EFFBE202C005908B
:1000E0000D92AC38B107D9F722E0ACE8B1E001C01D
:1000F0001D92AC36B207E1F710E0C2E6D0E004C0D2
:100100002197FE010E94D815C136D107C9F70E9478
:100110002D110C94ED150C940000942FE6E2F2E002
:1001200030911A0231838283668325834481487F1C
:10013000492B477E4483CF010895833081F028F412
:10014000813099F08230A9F008958730A9F0883085
:10015000C9F08430B1F4809180008F7D03C080911C
:1001600080008F7780938000089584B58F7784BD59
:10017000089584B58F7DFBCF8091B0008F778093F9
:10018000B00008958091B0008F7DF9CF1F93CF9379
:10019000DF93282F30E0F901E255FF4F8491F901F8
:1001A000E656FF4FD491F901EA57FF4FC491CC2393
:1001B000A9F0162F81110E949D00EC2FF0E0EE0FA8
:1001C000FF1FE458FF4FA591B4918FB7F894EC91BD
:1001D000111108C0D095DE23DC938FBFDF91CF9142
:1001E0001F910895DE2BF8CFCF93DF9390E0FC01B1
:1001F000E656FF4F24918A579F4FFC018491882334
:10020000C9F090E0880F991FFC01EE58FF4FA591AF
:10021000B491FC01E458FF4FC591D49161110DC018
:100220009FB7F8948C91209582238C938881282302
:1002300028839FBFDF91CF910895623051F49FB71B
:10024000F8943C91822F809583238C93E8812E2B08
:10025000EFCF8FB7F894EC912E2B2C938FBFEACF72
:100260002091310190E4299F900111248E50822B1E
:1002700080937C0080917A00806480937A008091E2
:100280007A0086FDFCCF80917800909179000895E6
:100290003FB7F8948091140290911502A091160234
:1002A000B091170226B5A89B05C02F3F19F0019603
:1002B000A11DB11D3FBFBA2FA92F982F8827BC01C0
:1002C000CD01620F711D811D911D43E0660F771FE7
:1002D000881F991F4A95D1F708958F929F92AF92E8
:1002E000BF92CF92DF92EF92FF926B017C010E944E
:1002F00048014B015C01C114D104E104F104B9F0DF
:100300000E944801681979098A099B09683E73406F
:100310008105910580F321E0C21AD108E108F108B6
:1003200088EE880E83E0981EA11CB11CE4CFFF90DC
:10033000EF90DF90CF90BF90AF909F908F900895F7
:100340002FB7F894609110027091110280911202FF
:10035000909113022FBF08950895862F642F0C9457
:10036000F400CF93DF93FC01218530E0F901E255E1
:10037000FF4F8491F901E656FF4FD491F901EA57F6
:10038000FF4FC491CC2379F081110E949D00EC2F86
:10039000F0E0EE0FFF1FE859FF4FA591B491EC91EB
:1003A000ED2381E009F480E08170DF91CF91089521
:1003B0002091C501260F3327331F21323105ECF47C
:1003C0002091E901FC0190E080E0243069F082E0B6
:1003D0000895A091C5012191AC014B555E4FA40F2A
:1003E000B52FB11D2C930196861798F38091C50106
:1003F000680F6093C50180E0089581E00895089535
:100400008FEF9FEF08958FEF9FEF089580919E01EA
:1004100090E09195819591090895CF93DF93CB0159
:10042000EA01642F0E94D801CE01DF91CF91089597
:10043000CF93DF931F92CDB7DEB7698361E0CE0122
:1004400001960E94D80181E090E00F90DF91CF915A
:10045000089590E080E008950895FC0183818770FD
:100460008860838384818F71806284836783CF01F6
:100470000895E0919101F0919201309721F002806E
:10048000F381E02D099408950F931F930E94A0011A
:100490000091930110919401209195013091960162
:1004A000601B710B820B930B1F910F9108959C01A0
:1004B000809191019091920182179307F1F09091B0
:1004C0009B019F7190939B01309392012093910126
:1004D000E0919101F0919201309721F00190F0812B
:1004E000E02D09950E94A0016093930170939401FF
:1004F0008093950190939601089580919B01805E71
:1005000080939B01E5CF0F931F930E94440220919B
:100510009C012077203779F000E117E220E030E0FD
:10052000061717072807390758F489E291E01F9149
:100530000F910C94570200E61AEE20E030E0F0CF65
:100540001F910F91089580919C01982F9F70963074
:1005500018F0807F80939C01089580919B018460B6
:1005600080939B0180919C01807880939C01E09115
:100570008F01F0919001309709F009940895CF937D
:10058000C0919D01CF3FA1F00E94A001609397010F
:10059000709398018093990190939A0180911C0225
:1005A000C813C0931C0284E291E0CF910C945702CF
:1005B0000E944402613D77408105910568F0809179
:1005C0009B01803618F480E291E0EFCF877F809323
:1005D0009B018CE191E0E9CFCF91089580911A02BF
:1005E0008F3F21F080E291E00C9457020E94440278
:1005F000613D77408105910550F080919B018036E7
:1006000018F488E191E0F0CF84E191E0EDCF089516
:1006100088E191E00C9457028EBD00000DB407FEF6
:10062000FDCF8EB508951F93CF93DF9385ED809313
:10063000BC008091A1019091A201A091A301B09171
:10064000A4010796A11DB11D23E0B695A795979526
:1006500087952A95D1F72091BC0024FD03C0109204
:10066000E90152C04091A1015091A2016091A30102
:100670007091A401452B462B472B69F30097A105E8
:10068000B10541F02AE12A95F1F700C00197A109CF
:10069000B109E1CF8091A001C1E0C0939F018823FF
:1006A00099F1D091B8001091BA008091BC008A7B7A
:1006B0008093BC0060E082E10E94C60060E083E1BC
:1006C0000E94C6001092E901C093EB011092EA016A
:1006D00061E082E10E94C60061E083E10E94C60001
:1006E0008091B9008E7F8093B9008091B9008D7F91
:1006F0008093B90080E28093B80085E48093BC00C9
:100700001093BA00D093B800DF91CF911F91089554
:10071000EBE9F1E08081897F8E7F8083EAE1F2E07E
:1007200081E08283118260E081E090E00C942714E4
:10073000EBE9F1E08081877F8F7E808310929701C3
:10074000109298011092990110929A0144E050E0A1
:1007500070E060E08AE192E00C94FF130F931F9326
:10076000CF93DF938C0180E06115710551F0EB01AF
:1007700009900020E9F721978C2F861B8A3108F019
:1007800089E1F801C381C770F8E08F9FC00111248F
:10079000C82BF801C38384818F718483C695C69565
:1007A000C695CA3108F0C9E1D0E0AE01C80107968C
:1007B0000E94DE15C00FD11F1F82C801DF91CF91AB
:1007C0001F910F910895FC01248122952695277091
:1007D000213011F487810895211104C007960E94E9
:1007E0000F13089580E00895AF92BF92CF92DF92E9
:1007F000EF92FF920F931F93CF93DF93FC0124811D
:1008000024FD07C0EC0186818A3F71F08D81823022
:1008100039F1DF91CF911F910F91FF90EF90DF9011
:10082000CF90BF90AF9008958581823079F7109175
:100830000301CF010E94E30361E0811101C060E088
:10084000161739F36093030181E08093040187E96F
:1008500092E00E942714809104018111DACFD6CF53
:1008600000912402109125028E81F801938189174D
:1008700031F192858913CDCF81E097E0D92EE82E12
:10088000F12C5801D89EA00CB11C1124F501C68092
:10089000CE010E94E303C81609F4BBCFF50186839D
:1008A000FFEFEF1AFF0ADE9CF001DF9CF00D112430
:1008B000E00FF11F81E08083F8018083AACF80E000
:1008C000DCCFCF93DF93FC0110821182128214825D
:1008D00015821682DC0117968AE1ED0119928A953C
:1008E000E9F782E08383DF91CF910895BF92CF92A1
:1008F000DF92EF92FF920F931F93CF93DF937B01D1
:10090000042FB22E90E59CBD1DBC2A98E0E1F0E0DA
:100910003197F1F70E940C03182FE7010150A8F05E
:10092000BB2051F08FEF0E940C03182FE114F1044B
:10093000A9F388832196F2CF6E018FEFC81AD80AE7
:1009400088810E940C03E601E9CF2A9A80E190E0B9
:100950000197F1F7812FDF91CF911F910F91FF90B8
:10096000EF90DF90CF90BF900895CF93DF931F92C9
:10097000CDB7DEB7698320E041E0BE016F5F7F4FF6
:100980000E9476040F90DF91CF91089580919C0191
:10099000982F9077903759F0982F92959F709F5F7E
:1009A00097709295907F8F78892B80939C0180918E
:1009B0009B018B7F8F7E80939B0129986CE080E266
:1009C0000C94B5046FE080E20E94B50460911301BD
:1009D0006F3F19F08AE20E94B504299A089521E038
:1009E00041E070E060E00C94760420E040E070E0CC
:1009F00060E00C947604FF920F931F93CF93DF93E4
:100A000090911A02FB0190834381C0E242FD08C02D
:100A10004695469546954A3108F049E1C7E0C40F2E
:100A200090911D02D1E090FD03C08F3F09F0D0E00E
:100A30006115710509F44CC08B01F82E299880E0EE
:100A400091E00197F1F76EE080E20E94B50484EC3A
:100A500090E00197F1F76F2D8AE20E94B5046F2DA7
:100A600080E30E94B50481EE0E94F504DD2321F0AD
:100A700060E584E20E94B50420E04C2FB80180EAD2
:100A80000E947604299A10E000E08FEF0E94F5049E
:100A9000807339F40F3F100721F0A8950F5F1F4FA7
:100AA000F4CF299860E787E20E94B504C82F84FF3D
:100AB00003C081EE0E94F504DD2321F06FE584E29E
:100AC0000E94B5040E94E204C5FF03C0D1E001C04A
:100AD000D0E08D2FDF91CF911F910F91FF9008955E
:100AE0000F931F93CF938C01FC01828190919B0106
:100AF00090FF04C08F3F51F5CFEF04C0811116C0A5
:100B0000C0911B02B8018C2F0E94FB0490911B0224
:100B10009C1313C090919C01811113C021E0290FF7
:100B20002F70907F922B90939C0107C08F3F21F3F1
:100B3000B8010E94FB04882319F3CF911F910F91F4
:100B40000895907F90939C0181E0F7CF80E0F5CFEE
:100B500020919B0122FD0C94700580E00895FC011A
:100B600080911A0281839481907F9960948380910F
:100B7000190280FF03C0CF010C94A80580E00895FE
:100B8000FF920F931F93CF93DF93CDB7DEB7A1975B
:100B90000FB6F894DEBF0FBECDBFF82E8B01CE018D
:100BA00001960E946104FF8282E08E83F8016081D9
:100BB000CE0101960E942D020E94AF05A1960FB6AC
:100BC000F894DEBF0FBECDBFDF91CF911F910F9183
:100BD000FF900895CF92DF92FF920F931F93CF93D0
:100BE000DF931F92CDB7DEB78C016B01FB018081D3
:100BF00097E0F92EF801F89EE00DF11D11246681B1
:100C000084810E94C600F6018081F801F89EE00D03
:100C1000F11D1124838190E0668183569E4F0E94CE
:100C20002714F6018081282F30E0F801F89EE00DAE
:100C3000F11D112481E09681911101C080E089832A
:100C400047E0429FC001439F900D1124080F191FD8
:100C5000BE016F5F7F4FF80183810E94C0050F9036
:100C6000DF91CF911F910F91FF90DF90CF9008956A
:100C7000EF92FF920F931F93CF93DF93CDB7DEB721
:100C8000A1970FB6F894DEBF0FBECDBFE82EF62EAB
:100C90008A01CE0101960E946104EF82FE82F80172
:100CA000208131818C81877080618C838D818F71EF
:100CB00080668D8339872887CE0101960E94AF0513
:100CC000A1960FB6F894DEBF0FBECDBFDF91CF91D6
:100CD0001F910F91FF90EF9008951F93CF93DF9393
:100CE000182F262FEA0150E040E0682F80E00E9494
:100CF0008D001F3F11F4C0E4D1E0BE010E94AE039D
:100D0000DF91CF911F910C94A8052F923F924F92A3
:100D10005F926F927F928F929F92AF92BF92CF928B
:100D2000DF92EF92FF920F931F93CF93DF9300D048
:100D300000D0CDB7DEB7809128018F3F09F183E065
:100D4000E82EF12C92E0C92ED12C27E1222E312C55
:100D500031E2432E512C45E2642E712C56E0852E53
:100D6000912C80912801873008F0ECC0833009F481
:100D70007BC0E8F4813009F43FC0823009F466C0DA
:100D80000F900F900F900F90DF91CF911F910F91C7
:100D9000FF90EF90DF90CF90BF90AF909F908F909B
:100DA0007F906F905F904F903F902F900895853087
:100DB000E9F008F491C0863019F79EEF9B835A82C0
:100DC000498246E851E0BE016F5F7F4FCE01039636
:100DD0000E942A0A8823A1F27A826982BE016F5F8B
:100DE0007F4FCE01039675C0882341F08091280182
:100DF0008F5F80932801B5CF09EE13E064E670E0C1
:100E000080E090E00E94D2092BE043E050E06FEFD9
:100E100080E00E948D0066E471E00E94AE030E94B3
:100E2000A805B82E2CE043E050E06FEF80E00E9470
:100E30008D0069E571E00E94AE030E94A8058B2138
:100E40000150110989F68111D1CF9ACF9A828982F6
:100E50008DEF8B834DE551E0BE016F5F7F4FCE017B
:100E600003960E942A0AEFCF0091240210912502D6
:100E7000FA82E982580183E0A80EB11C46E651E0EF
:100E8000BE016F5F7F4FC5010E942A0A882309F4C3
:100E900077CFDA82C982BE016F5F7F4FC5010E94A2
:100EA000FA09882309F46CCFFA82E982065F1F4FA2
:100EB00046E651E0BE016F5F7F4FC8010E942A0ADB
:100EC000882309F45DCFDA82C982BE016F5F7F4F4C
:100ED000C8010E94FA09B7CF9AEF9C838BEF8B83EE
:100EE00080E190E09A83898350E040E0BE016F5F2B
:100EF0007F4FCE0103960E942A0A882309F440CF2F
:100F00003A822982BE016F5F7F4FCE0103960E9415
:100F1000FA09882309F434CFFA82E9824AE751E0DA
:100F2000BE016F5F7F4FCE0104960E942A0A88237C
:100F300009F426CFDA82C982BE016F5F7F4FCE01EE
:100F40000496C7CF8FEF809328011ACF2FE043E09C
:100F500050E06FEF80E00E948D0068E571E00E9434
:100F6000AE03E6E2F2E0838187708061838384814F
:100F70008F71806C848381E087831086CF010E940B
:100F8000A8058FE00E949C0948E551E061E170E00E
:100F90008FEF0E946D0626E043E050E06FEF80E0A7
:100FA0000E948D0060911B020E942D020E94A805E4
:100FB00086E00E949C090C9485064F925F926F9286
:100FC0007F928F929F92AF92BF92DF92EF92FF92A9
:100FD0000F931F93CF93DF9300D01F92CDB7DEB74F
:100FE00026E02B8300E010E088248A9482E0982E8B
:100FF00083E0A82EB92CE12CFF24FA9487E10E940B
:10100000EF0480FD80C18B8181508B83882309F49C
:101010007AC121E041E070E060E080E60E94760461
:101020008983813220F082EE0E94F504198221E04A
:10103000498167E472E081E60E94760460E487E219
:101040000E94B50480914A02982F93709230B1F6B5
:10105000E82FE695E695E695EA3108F0E9E182FFAA
:1010600057C089E1895F99819813C8CF80914B025D
:10107000282F2770298390914C029A83D0904802A0
:10108000209147029091490230919C013068309341
:101090009C0130911A0293130AC1F0E0E95BFD4F05
:1010A000178283FF15C021E2E7E4F2E0A6E2B2E096
:1010B00001900D922A95E1F7877E806180932A0244
:1010C00090932702D092280286E292E00E94A8051F
:1010D00090914B0294FDE3C02981233009F0DFC0D9
:1010E00080914C0221EF280F233008F487CF2A810A
:1010F000243009F483CF283169F429E143E050E03A
:101100006FEF8D2D0E948D0061E00E942D022CC09A
:101110008E2FA8CF2A81293171F480919B0183FF02
:101120006DCF877F80939B0187E492E00E94E30369
:1011300080939D0163CF2A812E3109F45FCF2D3139
:10114000B1F42FE143E050E06FEF80E00E948D00AA
:10115000FC01838187708061838384818F718064C7
:101160008483F086E782CF010E94700547CF2091EB
:101170004802211199C08D3059F488E198E00FB6EA
:10118000F894A895809360000FBE90936000FFCF05
:101190008B3179F487E492E00E94E30391E08111BE
:1011A00001C090E08091190290FB80F980931902B0
:1011B00025CF863099F490914E0281E0992319F061
:1011C0009D3409F080E08093180241E050E063E034
:1011D00071E088E192E00E94171410CF833119F476
:1011E0000E94A6070BCF8231E1F40E9444022B013A
:1011F0003C0126E143E050E06FEF80E00E948D006B
:10120000FC01838187708062838384818F71806A0F
:1012100084834782508661867286CF010E94A8052A
:10122000EDCE8230A9F422E043E050E06FEF80E0A1
:101230000E948D00FC01838187708062838384819A
:101240008F71806A848387829086A186B286E5CF7B
:101250008130F9F40115110509F4D0CE92959695D7
:101260009770953059F460914E0270914F028091C1
:101270005002909151020E940000C0CE911105C011
:101280008EE492E00E942D13F6CF60E070E0CB0177
:10129000F2CF8A3009F4B2CE8C3109F4AFCE87E4B4
:1012A00092E00E94F403AACE8A31C9F7A7CE9F3FED
:1012B00009F0A4CE8981833009F580919B0182FFDA
:1012C00004C09A81973009F499CE8A81843109F05B
:1012D00095CE80911B02281391CE0E94A0017370BD
:1012E000882799270E946D0125E143E050E06FEFC8
:1012F0008D2D0E948D0060911B0207CF80911B02F3
:1013000028137CCECCCF0F900F900F90DF91CF9110
:101310001F910F91FF90EF90DF90BF90AF909F9043
:101320008F907F906F905F904F90089580919B0178
:1013300084FD0C94DD070895CF92DF92EF92FF9227
:10134000CF93DF93D82F0E94A0016B017C01809185
:101350004B02876080934B02C0E00E94A0016C1991
:101360007D098E099F09603D77408105910590F4C4
:10137000C11110C0A8950E9439020E94960980915F
:101380004B028770833049F7C1E080914C028D1386
:10139000E3CFE3CF8C2FDF91CF91FF90EF90DF90E1
:1013A000CF9008958F929F92AF92BF92CF92DF928B
:1013B000EF92FF924B015C010E94A0016B017C0146
:1013C0000E94A0016C197D098E099F096815790595
:1013D0008A059B0530F4A8950E9439020E9496095F
:1013E000EFCFFF90EF90DF90CF90BF90AF909F90A6
:1013F0008F900895CF92DF92EF92FF920F931F93F9
:10140000CF93DF937C016B01C9EED3E0F60100813D
:10141000F701108164E670E080E090E00E94D2095C
:10142000202F42E050E0612F80E00E948D0068E5AF
:1014300071E00E94AE030E94A805219711F0882355
:1014400029F3DF91CF911F910F91FF90EF90DF90E3
:10145000CF9008958F929F92AF92BF92CF92DF92DA
:10146000FF920F931F93CF93DF936C015B018A016F
:10147000C9EED3E0F50180809180F601F08064E64A
:1014800070E080E090E00E94D209A80101151105EA
:1014900011F448E551E0B4018F2D0E946D062197AB
:1014A00011F0882339F3DF91CF911F910F91FF90B5
:1014B000DF90CF90BF90AF909F908F9008952F9224
:1014C0003F924F925F926F927F928F929F92AF92D4
:1014D000BF92CF92DF92EF92FF920F931F93CF9321
:1014E000DF93CDB7DEB7A1970FB6F894DEBF0FBE7E
:1014F000CDBF809128018F3FA1F00E948506809189
:1015000028018F3F09F489C20CE310E00150110952
:1015100009F483C264EF71E080E090E00E94D20998
:10152000F5CF80919B0182FF9CC280918D019091AB
:101530008E016CE370E00E94A915892B29F080913F
:101540000501882309F44DC08FE00E9430012091ED
:101550000801309109012817390714F4821B930BF5
:1015600020910601309107012817390771F097FD86
:101570000CC09093070180930601863091050CF012
:10158000BFC010920B0110920A0180910A01909144
:101590000B0120910C0130910D0128173907E1F062
:1015A00090930D0180930C01A0910601B091070169
:1015B00024E630E00E94D11524E833E040E050E01A
:1015C0000E9439143A832983AE014F5F5F4F67E170
:1015D00070E08BEF0E943806809105018111109216
:1015E000050180910401882339F01092040163E021
:1015F00071E08AEF0E94C005E0902402F09025027D
:1016000067015701EEE0AE0EB11C9924939482E07D
:10161000882ED60118960D911C91F80180858B7F3C
:1016200080870190F081E02D0190F081E02DC801CC
:101630000995782ED80118968C9186958170781628
:1016400009F485C00E94A001F8016283738384833A
:101650009583808588258087F801808582FF16C064
:10166000D6011896ED91FC911997808580FD0EC0EA
:1016700082FF0CC017969C92179781E016969C915A
:10168000911180E0F6018683D7019C92B7E0CB0EE2
:10169000D11CAC14BD0409F0BCCF80918D01909198
:1016A0008E0166E470E00E94A915892B09F099C0AB
:1016B000198217E08981823008F093C09701189F42
:1016C000200D311D1124F90186818823A9F0F7012D
:1016D000A181B2818C91882379F017968D919C918C
:1016E0000497039748F4D90116961C92BE016F5FC8
:1016F0007F4FC7010E94EA0589818F5F8983DACF16
:10170000833391053CF481E090E090930B0180934A
:101710000A013BCF873991051CF482E090E0F5CFB8
:101720008D3221E092071CF483E090E0EECF853FFC
:10173000A1E09A071CF484E090E0E7CF8D3B924053
:101740001CF485E090E0E1CF86E090E0DECF0E94DF
:10175000A001D80112962D913D914D915C91159764
:101760001B012C01221A330A440A550AB201A101B5
:1017700016968D919C91B0E0A0E0481759076A0732
:101780007B0708F469CFD80118968C918170781680
:1017900009F462CF0E94A001F801628373838483FD
:1017A000958380858925846080870E94A001D80167
:1017B0001A964D905D906D907C901D9764197509F7
:1017C00086099709F80166877787808B918B0E943D
:1017D000A001D8011A966D937D938D939C931D97CC
:1017E0003BCFF70180818823C9F01082198217E06E
:1017F0008981823098F4F701819FE00DF11D112459
:101800008781882339F01782BE016F5F7F4FC70140
:101810000E94EA0589818F5F8983EACF00912202C5
:101820001091230280918D0190918E0167EB70E001
:101830000E94A915892B29F0D8018C91882309F4DD
:1018400053C088EC80937C0080917A0080688093FC
:101850007A0064E170E080E090E00E946D01809188
:101860007A00806480937A0080917A0086FDFCCFB4
:10187000609178007091790090E080E00E9471138F
:101880002EEA37E242EA53E40E94941426EF38E24B
:101890004CE95FE30E9401150E947315613801F164
:1018A000F80181818617E1F06183CE0101960E94E3
:1018B00061048DEF8F831E82D80111962C91022E28
:1018C000000C330B8C81877080618C838D818F71CC
:1018D00080648D8339872887CE0101960E94AF05E9
:1018E000F801808181111082E0902002F0902102A5
:1018F00080918D0190918E0165EB70E00E94A91599
:10190000892B21F0D7018C91882339F18EE00E9438
:1019100030016AE070E00E94BD158B0165367105EB
:1019200014F004E610E017FF02C010E000E0F70139
:1019300081818017110669F0018320E043E050E0C7
:101940006FEF80E00E948D00602F0E942D020E94A8
:10195000A805D7018C9181111C9200911E02109153
:101960001F0280918D0190918E0166EB70E00E94C4
:10197000A915892B29F0F8018081882309F440C03A
:1019800088E00E94EF048F7023EE3FEFF8E08F9F16
:10199000201931091124032E000C440B550B2B5A2E
:1019A0003F4F4F4F5F4FA4E6B0E00E9458142DE226
:1019B00030E040E050E00E9439142536310514F043
:1019C00024E630E037FF02C030E020E0D801119675
:1019D0008D919C9112972817390771F012963C93BC
:1019E0002E9311973A832983AE014F5F5F4F65E2D3
:1019F00070E08EEF0E943806F8018081811110821C
:101A000080918D0190918E0101968036FAEE9F07AC
:101A100018F590938E0180938D0168EE73E080E05D
:101A200090E00E94D209A1960FB6F894DEBF0FBED7
:101A3000CDBFDF91CF911F910F91FF90EF90DF907D
:101A4000CF90BF90AF909F908F907F906F905F905E
:101A50004F903F902F90089510928E0110928D011B
:101A6000DCCF60E177E280E090E00E94D209D5CF40
:101A70007F928F929F92AF92BF92CF92DF92EF921E
:101A8000FF920F931F93CF93DF9390912402809145
:101A900025027FB6F894C92FD82F7E012EE0E20EE2
:101AA000F11C8CE3A82E81E0B82E9AE0892E912CAF
:101AB00024E6C22ED12C82E190E00E94EA11FC01C2
:101AC000B182A0821282138214821582978286824A
:101AD00010861186998788878B8190E083569E4F68
:101AE0000E940F148E8391E0811101C090E09F83CA
:101AF00061E08C810E94F40062E08D810E94F4001C
:101B000061E08D810E94C600088519858D81D8010C
:101B100019968C93199718961C921897ED91FC9131
:101B20000190F081E02DC8010995882321F0F8018A
:101B30008085836080870E94A001D80112966D93F2
:101B40007D938D939C931597E885F985D782C682FE
:101B50002796EC16FD0609F0AECF7FBE83E080939A
:101B600031018FE00E94300110E000E0D0E0C0E0E1
:101B70000E94A001683873418105910598F464E6DC
:101B800070E080E090E00E94D2098FE00E94300176
:101B9000C817D9072CF0801791070CF48C01CE01DF
:101BA000EC01E6CFC01BD10BCF31D105E4F4D093CB
:101BB0000901C093080187E992E00E940F1491E0A7
:101BC000811101C090E090930301DF91CF911F91AB
:101BD0000F91FF90EF90DF90CF90BF90AF909F90CC
:101BE0008F907F9008951092090110920801E3CF21
:101BF000CF938091190281FD20C00E94A607809199
:101C00001902816080931902C4E02AE143E050E0A8
:101C10006FEF80E00E948D0062E00E942D020E9422
:101C2000A8058BE10E949C09811102C0C15069F78F
:101C300080911902826080931902CF9108958FEFED
:101C400080939D01EBE9F1E080818860808328E149
:101C500043E050E06FEF80E00E948D0061E00E9461
:101C60002D020C94700580911A028F3F69F423E0D5
:101C700043E050E06FEF80E00E948D0068E571E086
:101C80000E94AE030C9470050895CF93219A229A76
:101C900029982A9ACFB7F89480918C01811127C096
:101CA000E0E9F0E08491E4EAF0E09491E82FF0E0DC
:101CB000EE0FFF1FEE58FF4FA591B491EC91E92371
:101CC00021F461E08AE00E94C60061E08AE00E949F
:101CD000F4008CB580618CBD8CB580648CBD61E0F6
:101CE0008DE00E94F40061E08BE00E94F40080919E
:101CF0008C018F5F80938C01CFBF29986EE080E2CA
:101D00000E94B50484E293E20197F1F763E083E275
:101D10000E94B5046FE584E20E94B5046CE485E29C
:101D20000E94B50465E286E20E94B50464E08DE39A
:101D30000E94B5048DE10E94EF04843041F063E716
:101D400080E50E94B50464E08DE30E94B50486E05E
:101D50000E94EF04853209F04DC085E00E94EF0437
:101D60008C3409F047C062E082E20E94B50460E072
:101D700081E20E94B50463E08CE30E94B5048FEF1A
:101D800080930E0120E045E06EE071E08BE20E945E
:101D9000760420E045E06EE071E08AE20E9476047D
:101DA00020E045E06EE071E080E30E94760482EE80
:101DB0000E94F50481EE0E94F50460E787E20E942C
:101DC000B50480919B01806180939B0180911D02ED
:101DD0008E7F80931D0286E180931A0266E190E077
:101DE00080E00E942714C0911A02CF3F41F48CE199
:101DF00091E002C084E191E0CF910C9457028FEF03
:101E00008C0F8E3FB8F7C093130163E082E20E940B
:101E1000B50461E081E20E94B5040E94E2046C2FE7
:101E200090E080E00E942714E2CF1F920F920FB63D
:101E30000F9211242F933F938F939F93AF93BF9350
:101E40008091100290911102A0911202B0911302A0
:101E500030910F0226E0230F2D3758F50296A11D71
:101E6000B11D20930F028093100290931102A09352
:101E70001202B09313028091140290911502A09166
:101E80001602B09117020196A11DB11D8093140294
:101E900090931502A0931602B0931702BF91AF91D1
:101EA0009F918F913F912F910F900FBE0F901F9098
:101EB000189529E8230F0396A11DB11DD2CF1F92BB
:101EC0000F920FB60F9211242F933F934F935F936E
:101ED0006F937F938F939F93AF93BF93EF93FF93F2
:101EE000E0912F01F09130010995FF91EF91BF91A1
:101EF000AF919F918F917F916F915F914F913F91A2
:101F00002F910F900FBE0F901F9018951F920F9258
:101F10000FB60F9211242F933F934F935F936F93BC
:101F20007F938F939F93AF93BF93EF93FF93E09132
:101F30002D01F0912E010995FF91EF91BF91AF9185
:101F40009F918F917F916F915F914F913F912F91D1
:101F50000F900FBE0F901F9018951F920F920FB603
:101F60000F9211242F933F934F935F936F937F931F
:101F70008F939F93AF93BF93EF93FF938091B9009B
:101F8000887F803609F44AC0F0F5883209F4A5C08C
:101F900018F5803109F499C0B8F4882309F4F5C024
:101FA000883009F492C0FF91EF91BF91AF919F915A
:101FB0008F917F916F915F914F913F912F910F90F2
:101FC0000FBE0F901F901895883109F486C080329B
:101FD00051F78093E80114C0803409F49BC040F4A9
:101FE0008033B9F38833F9F68093E80185ECAEC00D
:101FF000803509F483C0883509F494C0883499F693
:102000000E941303D0CF883909F48AC038F5883785
:1020100029F050F4883611F0803729F683E0809358
:10202000E9011092E70155C0883809F479C0803978
:1020300019F0803809F0B7CF8091E701803208F0BD
:102040006FC0E091E70181E08E0F8093E7018091FE
:10205000BB00F0E0E953FE4F80833BC0803B39F08A
:10206000D0F4803A09F477C0883A09F09CCF84E034
:102070008093E9011092C6011092C501F0E0E0E002
:1020800009958091C50181110FC081E08093C50140
:102090001092A50109C0803C09F4A8CF883C09F43E
:1020A000A5CF883B09F07FCFE091C60181E08E0F7C
:1020B0008093C601F0E0EB55FE4F80818093BB001A
:1020C0009091C6018091C50129C080910E02809334
:1020D000BB0085EC8093BC0066CF90910D0280918F
:1020E0000C02981758F5E0910D0281E08E0F809355
:1020F0000D02F0E0E451FE4F8081E9CFE0910D0246
:1021000081E08E0F80930D028091BB00F0E0E451DE
:10211000FE4F808390910D0280910C029817C8F2B7
:1021200085E8D8CFE0910D0281E08E0F80930D02FB
:102130008091BB00F0E0E451FE4F80838091EB0181
:1021400081115ECF81E08093EA0184EA8093BC0034
:102150001092E90128CF85EC8093BC001092E90130
:102160008091E701803230F4E091E701F0E0E9533B
:10217000FE4F10826091E70170E087EC91E0F0E0A3
:10218000E0E009951092E7010ECF1092E80138CFF8
:102190001F920F920FB60F9211240F900FBE0F9047
:1021A0001F901895CF9387E492E00E94610486E225
:1021B00092E00E94610481E190E00E94EA11FC013A
:1021C000C1E0C0839C012D5F3F4F8EE0D9011D927D
:1021D0008A95E9F788E0848386E08583C28787E073
:1021E000838785E0848783E091E0928381838FB742
:1021F000F894F0932502E09324028FBF82E090E0F0
:102200000E94EA11FC011182C0832FB7F8949093C9
:102210002302809322022FBF82E090E00E94EA1105
:10222000DC0111961C921197CC932FB7F8949093E0
:102230002102809320022FBF83E090E00E94EA11E8
:10224000FC0112821182C0832FB7F89490931F0271
:1022500080931E022FBFCF910895789484B5826039
:1022600084BD84B5816084BD85B5826085BD85B53A
:10227000816085BD80916E00816080936E001092B8
:102280008100809181008260809381008091810033
:1022900081608093810080918000816080938000C4
:1022A0008091B10084608093B1008091B000816022
:1022B0008093B00080917A00846080937A0080914E
:1022C0007A00826080937A0080917A008E7F80937A
:1022D0007A0080917A00806880937A001092C10021
:1022E000A89580E090E0892B11F00E940000809179
:1022F00019028D7F809319020E94380D41E050E051
:1023000063E071E088E192E00E94FF1360E081E009
:1023100090E00E94271480919C018F7880939C010B
:10232000109292011092910189E291E00E9457026D
:1023300088EF9DE09093900180938F010E94A0010F
:102340000E94A0010E9439020E94960980919B017F
:1023500082FB882780F9A895882391F3A895C0E08F
:10236000D0E0A8950E94390280919B0184FD0E94D3
:10237000DD070E945F0A2097A1F30E940000F1CFC1
:10238000CF93DF9380911E0290911F020E948612CC
:1023900080912002909121020E9486128091220257
:1023A000909123020E948612C0912402D0912502AE
:1023B000209769F0888599850E9486128F85988973
:1023C0000E948612CE01DF91CF910C948612DF918C
:1023D000CF9108950F931F93CF93DF938230910590
:1023E00010F482E090E0E0916A02F0916B0230E03C
:1023F00020E0B0E0A0E0309799F42115310509F410
:102400004AC0281B390B24303105D8F58A819B81BD
:102410006115710589F1FB0193838283FE0111C06F
:10242000408151810281138148175907E0F0481714
:10243000590799F4109761F012960C93129713961E
:102440001C933296CF01DF91CF911F910F91089588
:1024500000936A0210936B02F4CF2115310551F0FD
:102460004217530738F0A901DB019A01BD01DF01D2
:10247000F801C1CFEF01F9CF90936B0280936A020C
:10248000CDCFFE01E20FF31F8193919322503109CA
:1024900039832883D7CF2091680230916902232B9A
:1024A00041F4209134013091350130936902209339
:1024B000680220913201309133012115310541F438
:1024C0002DB73EB74091360150913701241B350B93
:1024D000E0916802F0916902E217F307A0F42E1B65
:1024E0003F0B2817390778F0AC014E5F5F4F241778
:1024F000350748F04E0F5F1F509369024093680202
:10250000819391939FCFF0E0E0E09CCFCF93DF9356
:102510000097E9F0FC01329713821282A0916A02BF
:10252000B0916B02ED0130E020E01097A1F4208122
:102530003181820F931F2091680230916902281720
:10254000390709F061C0F0936902E0936802DF91F6
:10255000CF910895EA01CE17DF07E8F54A815B8144
:102560009E0141155105B1F7E901FB83EA834991C9
:102570005991C40FD51FEC17FD0761F4808191813B
:102580000296840F951FE901998388838281938144
:102590009B838A83F0E0E0E012968D919C911397E3
:1025A0000097B9F52D913C911197CD010296820FBC
:1025B000931F20916802309169022817390739F674
:1025C000309751F510926B0210926A02B093690233
:1025D000A0936802BCCFD383C28340815181840F12
:1025E000951FC817D90761F44E5F5F4F88819981A5
:1025F000480F591F518340838A819B819383828333
:102600002115310509F0B0CFF0936B02E0936A0217
:102610009ECFFD01DC01C0CF13821282D7CFFC0117
:1026200088279927E89421912032E9F3293010F086
:102630002E30C8F32B3241F02D3239F4689404C0A7
:102640000E946913820F911D219120532A30C0F3FB
:102650001EF4909581959F4F08951F93FC01992733
:102660008827BC01E89411911032E9F3193010F079
:102670001E30C8F31B3251F01D3249F4689406C075
:102680000E945413610F711D811D911D11911053F2
:102690001A30B0F33EF490958095709561957F4F18
:1026A0008F4F9F4F1F910895592F482F372F262F57
:1026B000660F771F881F991F660F771F881F991F46
:1026C000620F731F841F951F660F771F881F991F46
:1026D00008957AE0979F902D879F802D910D11246A
:1026E0000895E89409C097FB3EF490958095709505
:1026F00061957F4F8F4F9F4F9923A9F0F92F96E94E
:10270000BB279395F695879577956795B795F111C2
:10271000F8CFFAF4BB0F11F460FF1BC06F5F7F4F5F
:102720008F4F9F4F16C0882311F096E911C0772371
:1027300021F09EE8872F762F05C0662371F096E87A
:10274000862F70E060E02AF09A95660F771F881F49
:10275000DAF7880F9695879597F9089597F99F6707
:1027600080E870E060E008959FEF80EC0895002419
:102770000A941616170618060906089500240A94E6
:1027800012161306140605060895092E0394000C6C
:1027900011F4882352F0BB0F40F4BF2B11F460FFFB
:1027A00004C06F5F7F4F8F4F9F4F089557FD905824
:1027B000440F551F59F05F3F71F04795880F97FB05
:1027C000991F61F09F3F79F08795089512161306BF
:1027D0001406551FF2CF4695F1DF08C016161706EE
:1027E0001806991FF1CF8695710561050894089523
:1027F000E894BB2766277727CB0197F90895DC017A
:10280000CB01FC01F999FECF06C0F2BDE1BDF89AFB
:10281000319600B40D9241505040B8F70895F9999F
:10282000FECF92BD81BDF89A992780B50895DC014D
:10283000A40FB51F4150504048F0CB01840F951FA5
:102840002E910E94281441505040D0F70895262F11
:10285000F999FECF92BD81BDF89A019700B4021696
:1028600039F01FBA20BD0FB6F894FA9AF99A0FBE44
:102870000895052E97FB1EF400940E94501457FDF6
:1028800007D00E94631407FC03D04EF40C9450143C
:1028900050954095309521953F4F4F4F5F4F08958C
:1028A00090958095709561957F4F8F4F9F4F0895BC
:1028B0000E948514A59F900DB49F900DA49F800D3C
:1028C000911D11240895A1E21A2EAA1BBB1BFD0124
:1028D0000DC0AA1FBB1FEE1FFF1FA217B307E407FF
:1028E000F50720F0A21BB30BE40BF50B661F771F57
:1028F000881F991F1A9469F7609570958095909537
:102900009B01AC01BD01CF010895A29FB001B39F0F
:10291000C001A39F700D811D1124911DB29F700DE8
:10292000811D1124911D08955058BB27AA270E948C
:10293000AC140C94C5130E94B71338F00E94BE1358
:1029400020F039F49F3F19F426F40C94B4130EF4DC
:10295000E095E7FB0C94AE13E92F0E94D61358F3D1
:10296000BA17620773078407950720F079F4A6F574
:102970000C94F8130EF4E0950B2EBA2FA02D0B013A
:10298000B90190010C01CA01A0011124FF27591BB4
:1029900099F0593F50F4503E68F11A16F040A22FBA
:1029A000232F342F4427585FF3CF4695379527952B
:1029B000A795F0405395C9F77EF41F16BA0B620B2A
:1029C000730B840BBAF09150A1F0FF0FBB1F661F71
:1029D000771F881FC2F70EC0BA0F621F731F841FB4
:1029E00048F4879577956795B795F7959E3F08F0DA
:1029F000B0CF9395880F08F09927EE0F979587959C
:102A000008950E9415150C94C5130E94BE1358F02A
:102A10000E94B71340F029F45F3F29F00C94AE13E5
:102A200051110C94F9130C94B4130E94D61368F34B
:102A30009923B1F3552391F3951B550BBB27AA2777
:102A400062177307840738F09F5F5F4F220F331FB1
:102A5000441FAA1FA9F335D00E2E3AF0E0E832D079
:102A600091505040E695001CCAF72BD0FE2F29D07C
:102A7000660F771F881FBB1F261737074807AB074E
:102A8000B0E809F0BB0B802DBF01FF2793585F4FC3
:102A90003AF09E3F510578F00C94AE130C94F91364
:102AA0005F3FE4F3983ED4F3869577956795B795A5
:102AB000F7959F5FC9F7880F911D9695879597F9B0
:102AC0000895E1E0660F771F881FBB1F6217730729
:102AD0008407BA0720F0621B730B840BBA0BEE1F3E
:102AE00088F7E09508950E947A156894B1110C94C6
:102AF000F91308950E94DE1388F09F5798F0B92FBC
:102B00009927B751B0F0E1F0660F771F881F991F22
:102B10001AF0BA95C9F714C0B13091F00E94F813B9
:102B2000B1E008950C94F813672F782F8827B85FC9
:102B300039F0B93FCCF3869577956795B395D9F77A
:102B40003EF490958095709561957F4F8F4F9F4F84
:102B50000895AA1BBB1B51E107C0AA1FBB1FA617E4
:102B6000B70710F0A61BB70B881F991F5A95A9F736
:102B700080959095BC01CD01089597FB072E16F422
:102B8000009407D077FD09D00E94A91507FC05D055
:102B90003EF4909581959F4F0895709561957F4F74
:102BA00008950E948514B7FF0895821B930B089522
:102BB000EE0FFF1F0590F491E02D0994FB01DC015D
:102BC0004150504048F001900D920020C9F701C0DB
:102BD0001D9241505040E0F7089510E0C2E6D0E069
:102BE00004C0FE010E94D8152196C336D107C9F74B
:102BF000F894FFCFFFFFFF0101010000000000007B
:102C0000000000FCE1A8A8FFC6048302330EEE0218
:102C1000880308031F0EBF02AD02A30201980345FB
:102C20000EAC01AC010100006C028000000000004D
:102C3000B101AD01322E332E320073656E736F72A7
:102C40002D52656C61792D42746E2D3200312E3219
:102C500000496E742E54656D700052656C61792E5A
:102C6000427574746F6E2E4C696768747300417599
:102C7000746F2E4C69676874730052535349000097
:1078000011E0A0E0B1E0E4EFFFE702C005900D92C7
:10781000A630B107D9F721E0A6E0B1E001C01D9282
:10782000AD34B207E1F7CDB7DEB72897DEBFCDBFE5
:10783000112484B78093270114BE88E180936000EF
:1078400089E280936000259A86E020E295B1922734
:1078500095B93FE748E351E0315040405040E1F7EF
:1078600000C00000815091F78091270181FD18C070
:107870008EE284B981E58CBD81E08DBD412C512C17
:10788000222423941CE3612E11E0712E33243394BF
:10789000CC24CA94DC2CAA24A39483E0B82E45C13E
:1078A00082E08093C00088E18093C10086E08093ED
:1078B000C20087E68093C40000E010E0C12CD12C08
:1078C000AA24AA94BA2CEE24E394A895EED181348C
:1078D00069F4EBD1F82E36D382E8F81629F091E856
:1078E000F91202C085E651C083E04FC0823411F422
:1078F00084E103C0853419F485E030D362C0853556
:1079000041F4D3D1082FD1D110E0182B000F111F53
:1079100057C0863521F484E021D380E036C0843618
:10792000E9F4C3D1C2D1882EC0D1C80CD11C912C8E
:10793000981488F4BAD1F82EB8D1F801E90DF11DE8
:107940002F2D30E0A901582B0A01E7BEE89511243C
:1079500093949394EDCFC801B4D132C0843769F4C5
:10796000A4D1A3D1F82EA1D1EDD2F80185918F0138
:10797000E2D2FA94F110F9CF25C0853741F4E2D272
:107980008EE1D9D285E9D7D28FE0D5D21AC0813520
:10799000B9F4BA82A982BC82AB82C601F4E09695A2
:1079A0008795FA95E1F79E838D83C6019CD19887D0
:1079B0008F83CE010196D9D2C5D2FF24F39402C0A1
:1079C000C1D2F12C80E1B7D2FF2009F47ECF50CF95
:1079D00043E050E060E070E089E291E0E9D248E005
:1079E00050E06BE171E0CE010196E2D229982A9A2B
:1079F00063E083E2D2D16CE485E2CFD167E286E234
:107A0000CCD163E780E5C9D164E08DE3C6D161E004
:107A100082E2C3D161E081E2C0D161E08CE3BDD1FB
:107A200021E041E060E070E086E08AD1873209F031
:107A300026C180912A01809328018FEF80932A012B
:107A400080932B018093080163E584E2A6D143E291
:107A50006AE087E069D161E08EEFBED11092080143
:107A60006FE584E29AD180912A018F3F09F407C122
:107A70008091290181508E3F08F05AC030920D014B
:107A800010920E0143EC62E18FE04ED160E08FE096
:107A9000A3D18D819E81E4E0880F991FEA95E1F7DB
:107AA00022D198878F8388E0FE013196ADE0B1E066
:107AB00001900D928A95E1F7B0921601A0921501FE
:107AC00044EC62E580E030D163E081E085D1882339
:107AD00009F4D5C048E050E063E371E0CE010196BF
:107AE0005AD2892B09F4CBC080913701909138018B
:107AF000009709F045C08091390190913A018A3789
:107B00009A4D09F041C08091330190913401813048
:107B1000910571F500E010E06FEFC80159D20F5FD9
:107B20001F4F011584E01807B9F7F999FECF50CF20
:107B300043E262E083E0F8D063E084E04DD1882343
:107B400009F496CF80912F01869586958695E3E37B
:107B5000F1E060E0815048F02191660F962F990F77
:107B6000990F690F6053620FF5CF80E090E006C077
:107B7000029782309105C8F66091350129D2D5CFA0
:107B80008038974008F07BC088E0E3E3F1E0DE0155
:107B9000119601900D928A95E1F7EF80F884D886CE
:107BA000CF82CE010196E1D18D809E8089819A811C
:107BB00090930E0180930D018B819C819093100115
:107BC00080930F0184010150110910931201009359
:107BD000110144EC62E382E0A7D063E083E0FCD0D3
:107BE000882309F44BCF46E050E063E371E08DE079
:107BF00091E0D1D1892BD1F6C4018150904F682FEB
:107C000062956077ACE2B1E0462F50E04C525140B3
:107C1000FA01EA0FFB1F1E962C911E9730E0322FBF
:107C200022271D967C911D97272B090127BEE895D9
:107C3000112412966A167B0659F7611106C044E0BA
:107C4000880F991F4A95E1F73CD00115110511F0F5
:107C50004801ACCFF886EF828D819E8134E0880F99
:107C6000991F3A95E1F73FD0E816F90621F01E82F8
:107C70001D8218861F82CE01019677D156CF8D8145
:107C80009E8124E0880F991F2A95E1F72CD02F813F
:107C900038858217930709F048CF1CBCA8958091BE
:107CA0002701282EF201099540CF8091C00087FF5F
:107CB000FCCF8091C00084FD01C0A8958091C600D2
:107CC000089523E0FC0127BFE89507B600FCFDCF2F
:107CD00025E0FC0127BFE89507B600FCFDCF81E158
:107CE00087BFE8950895BC01E0E0F0E08FEF9FEFDB
:107CF000E617F707C0F4E11528E7F207A0F425918D
:107D0000822748E0DC01B695A7959C0121703327B6
:107D10003195219531092170307ACD018227932741
:107D2000415081F7E5CF089590912901E6E0F1E017
:107D3000918390839FEF9683858344836383089523
:107D40002A989AE19A95F1F700C08EBD0DB407FE0E
:107D5000FDCF8EB59FEF4150D0F0222369F09EBD3C
:107D60000DB407FEFDCF8EB561157105A1F3DB01E2
:107D70008C936F5F7F4FEFCFFB013196DB018C91CE
:107D80008EBD0DB407FEFDCF8EB5BF01E4CF2A9A9C
:107D9000BAE1BA95F1F700C00895CF93DF931F922F
:107DA000CDB7DEB7698320E041E0BE016F5F7F4F52
:107DB000C7DF0F90DF91CF91089520E040E060E0B1
:107DC00070E082EEBDDF20E040E060E070E081EE38
:107DD000B7DF60E787E2E1CFFF920F931F93CF9366
:107DE000DF93082FF62EC0910901C695C695C6955A
:107DF000C95FD0912A0129986EE080E2CEDFD0934E
:107E0000000120E045E060E071E08AE299DF20E0D7
:107E100045E060E071E080E393DF20E04C2F66E016
:107E200071E080EA8DDF299A8AE08A95F1F700C037
:107E300020E040E060E070E08FEF82DF8073C1F30C
:107E40002998BBDF6FE080E2A8DF609129018AE218
:107E5000A4DF299ACFEFDFEFA89521E041E060E0B1
:107E600070E087E16DDF80FF02C09FEF4BC021E033
:107E700041E060E070E080E663DF182F813208F0B7
:107E800010E021E0412F6CE271E081E659DF95DFDF
:107E9000812F90E020912F0126952695269530E0A0
:107EA000295F3F4F8217930701F790912E01809130
:107EB00029019813DACF90913101809130018770B8
:107EC000833001F59830F1F420912A018091280146
:107ED000281302C08F3FB1F420912D01821304C0FA
:107EE00080932A019EEF0EC03091330181E0830F11
:107EF0008093330140912B01341720F480932B01A0
:107F000020932A0188E08A95F1F7219719F4F1105E
:107F100008C002C00913A0CF81E0091731F080E04A
:107F200004C0FA9409135FCFF7CFDF91CF911F916F
:107F30000F91FF9008959091C00095FFFCCF809322
:107F4000C6000895B2DE803239F088E18093600087
:107F500088E080936000FFCF84E1EDCFCF93C82FFE
:107F6000A4DEC150E9F7CF91EDCF0F931F93CF93CC
:107F7000DF938C01CBE1D1E0F80161918F01CE015B
:107F800027D02196C332F1E0DF07B1F7DF91CF911F
:107F90001F910F910895FB01DC0104C08D910190A8
:107FA000801921F441505040C8F7881B990B08955F
:107FB000DC01CB01FC01F999FECF06C0F2BDE1BDA9
:107FC000F89A319600B40D9241505040B8F7089598
:107FD000262FF999FECF92BD81BDF89A019700B482
:107FE000021639F01FBA20BD0FB6F894FA9AF99A22
:0A7FF0000FBE089500FCE1A8A800F0
:00000001FF
