:100000000C9463000C94A5110C947E110C948B003D
:100010000C948B000C948B000C94E7120C948B00C6
:100020000C948B000C948B000C948B000C948B0024
:100030000C948B000C948B000C948B000C948B0014
:100040000C9434110C948B000C948B000C948B004A
:100050000C948B000C948B000C948B000C948B00F4
:100060000C94CC110C948B0000000000230026009F
:10007000290000000000240027002A0000000000E2
:10008000250028002B0004040404040404040202D4
:100090000202020203030303030301020408102007
:1000A0004080010204081020010204081020000012
:1000B0000008000201000003040700000000000027
:1000C0000000F112C91311241FBECFEFD8E0DEBF2C
:1000D000CDBF11E0A0E0B1E0E0E4F2E302C00590A2
:1000E0000D92A03DB107D9F722E0A0EDB1E001C02B
:1000F0001D92A33DB207E1F710E0C2E6D0E004C0D4
:100100002197FE010E942A18C136D107C9F70E9423
:1001100036130C9413190C9400000895942FEDE8F5
:10012000F2E030915E0231838283668325834481CD
:10013000487F492B477E4483CF010895833081F067
:1001400028F4813099F08230A9F008958730A9F021
:100150008830C9F08430B1F4809180008F7D03C075
:10016000809180008F7780938000089584B58F7789
:1001700084BD089584B58F7DFBCF8091B0008F77CB
:100180008093B00008958091B0008F7DF9CF1F93C8
:10019000CF93DF93282F30E0F901E255FF4F849190
:1001A000F901E656FF4FD491F901EA57FF4FC49188
:1001B000CC23A9F0162F81110E949E00EC2FF0E0B5
:1001C000EE0FFF1FE458FF4FA591B4918FB7F8943D
:1001D000EC91111108C0D095DE23DC938FBFDF9125
:1001E000CF911F910895DE2BF8CFCF93DF9390E04E
:1001F000FC01E656FF4F24918A579F4FFC018491E2
:100200008823C9F090E0880F991FFC01EE58FF4F3A
:10021000A591B491FC01E458FF4FC591D4916111AF
:100220000DC09FB7F8948C91209582238C93888180
:10023000282328839FBFDF91CF910895623051F426
:100240009FB7F8943C91822F809583238C93E8810B
:100250002E2BEFCF8FB7F894EC912E2B2C938FBFD2
:10026000EACF20912E0190E4299F900111248E5015
:10027000822B80937C0080917A00806480937A0046
:1002800080917A0086FDFCCF809178009091790072
:1002900008953FB7F8948091580290915902A09127
:1002A0005A02B0915B0226B5A89B05C02F3F19F0FA
:1002B0000196A11DB11D3FBFBA2FA92F982F8827E6
:1002C000BC01CD01620F711D811D911D43E0660FC0
:1002D000771F881F991F4A95D1F708958F929F9293
:1002E000AF92BF92CF92DF92EF92FF926B017C01AF
:1002F0000E9449014B015C01C114D104E104F104E5
:10030000B9F00E944901681979098A099B09683E78
:1003100073408105910580F321E0C21AD108E108FC
:10032000F10888EE880E83E0981EA11CB11CE4CF72
:10033000FF90EF90DF90CF90BF90AF909F908F9005
:1003400008952FB7F89460915402709155028091EE
:100350005602909157022FBF08950895862F642F5B
:100360000C94F500CF93DF93FC01218530E0F90177
:10037000E255FF4F8491F901E656FF4FD491F90100
:10038000EA57FF4FC491CC2379F081110E949E005F
:10039000EC2FF0E0EE0FFF1FE859FF4FA591B4914D
:1003A000EC91ED2381E009F480E08170DF91CF9141
:1003B000089520910902260F3327331F213231057A
:1003C000ECF420912D02FC0190E080E0243069F0F3
:1003D00082E00895A09109022191AC0147515E4F3E
:1003E000A40FB52FB11D2C930196861798F3809119
:1003F0000902680F6093090280E0089581E0089582
:1004000008958FEF9FEF08958FEF9FEF08958091EC
:10041000E20190E09195819591090895CF93DF9342
:10042000CB01EA01642F0E94D901CE01DF91CF9167
:100430000895CF93DF931F92CDB7DEB7698361E054
:10044000CE0101960E94D90181E090E00F90DF91EA
:10045000CF91089590E080E008950895FC01838194
:1004600087708860838384818F71806284836783CF
:10047000CF010895E091D501F091D601309721F098
:100480000280F381E02D099408950F931F930E9439
:10049000A1010091D7011091D8012091D90130918B
:1004A000DA01601B710B820B930B1F910F91089562
:1004B0009C018091D5019091D60182179307F1F0AC
:1004C0009091DF019F719093DF013093D6012093CB
:1004D000D501E091D501F091D601309721F001903E
:1004E000F081E02D09950E94A1016093D7017093DE
:1004F000D8018093D9019093DA0108958091DF01AA
:10050000805E8093DF01E5CF0F931F930E94450229
:100510002091E0012077203779F000E117E220E018
:1005200030E0061717072807390758F486E291E0EC
:100530001F910F910C94580200E61AEE20E030E073
:10054000F0CF1F910F9108958091E001982F9F7037
:10055000963018F0807F8093E00108958091DF014C
:1005600084608093DF018091E00180788093E001D6
:10057000E091D301F091D401309709F009940895E6
:10058000CF93C091E101CF3FA1F00E94A101609300
:10059000DB017093DC018093DD019093DE0180919B
:1005A0006002C813C093600289E191E0CF910C947E
:1005B00058020E944502613D77408105910568F02F
:1005C0008091DF01803618F485E191E0EFCF877FDD
:1005D0008093DF0181E191E0E9CFCF91089580918F
:1005E0005E028F3F21F085E191E00C9458020E9459
:1005F0004502613D77408105910550F08091DF0112
:10060000803618F48DE091E0F0CF89E091E0EDCFF5
:1006100008958DE091E00C9458028EBD00000DB459
:1006200007FEFDCF8EB50895EFEDF1E08081897F63
:100630008E7F8083EEE5F2E081E08283118260E0CC
:1006400081E090E00C944916FC0180819181009733
:1006500011F00C94731408950F931F93CF93DF93AD
:10066000EC0188819981009759F02A813B812617F6
:10067000370730F081E0DF91CF911F910F910895FE
:100680008B016F5F7F4F0E943718009759F0998355
:1006900088831B830A832C813D81232B59F7FC011E
:1006A0001082E8CF80E0E7CFEF92FF920F931F9385
:1006B000CF93DF9341155105B1F07B01EC010C8123
:1006C0001D81040F151FB8010E942C03882361F0BF
:1006D000288139818C819D81B701820F931F0E94EF
:1006E000FD181D830C8381E0DF91CF911F910F9145
:1006F000FF90EF900895EF92FF920F931F93CF9387
:10070000DF93EC017B018A01BA010E942C0328814E
:100710003981811114C02115310519F0C9010E94D8
:100720007314198218821D821C821B821A82CE01C8
:10073000DF91CF911F910F91FF90EF9008951D834E
:100740000C83B701C9010E94FD18F1CFFC01118291
:10075000108213821282158214826115710551F084
:10076000FB0101900020E9F73197AF01461B570BC1
:100770000C947B0308951F93CF93DF9385ED8093B3
:10078000BC008091E5019091E601A091E701B09154
:10079000E8010796A11DB11D23E0B695A795979591
:1007A00087952A95D1F72091BC0024FD03C01092B3
:1007B0002D0252C04091E5015091E6016091E701A0
:1007C0007091E801452B462B472B69F30097A10553
:1007D000B10541F02AE12A95F1F700C00197A1097E
:1007E000B109E1CF8091E401C1E0C093E301882326
:1007F00099F1D091B8001091BA008091BC008A7B29
:100800008093BC0060E082E10E94C70060E083E169
:100810000E94C70010922D02C0932F0210922E0248
:1008200061E082E10E94C70061E083E10E94C700AD
:100830008091B9008E7F8093B9008091B9008D7F3F
:100840008093B90080E28093B80085E48093BC0077
:100850001093BA00D093B800DF91CF911F91089503
:10086000EFEDF1E08081877F8F7E80831092DB0146
:100870001092DC011092DD011092DE0144E050E0A4
:1008800070E060E08EE592E00C9421160F931F93C8
:10089000CF93DF938C0180E06115710551F0EB017E
:1008A00009900020E9F721978C2F861B8A3108F0E8
:1008B00089E1F801C381C770F8E08F9FC00111245E
:1008C000C82BF801C38384818F718483C695C69534
:1008D000C695CA3108F0C9E1D0E0AE01C80107965B
:1008E0000E940419C00FD11F1F82C801DF91CF9150
:1008F0001F910F910895FC01248122952695277060
:10090000213011F487810895211104C007960E94B7
:10091000FC14089580E008958F929F92AF92BF9249
:10092000CF92DF92EF92FF920F931F93CF93DF93BB
:10093000CDB7DEB72C970FB6F894DEBF0FBECDBF94
:10094000FC01348134FD26C025812731E9F02033B4
:10095000A1F1223009F004C12681263F09F016C119
:10096000109173020E947B0461E0811101C060E07C
:10097000161781F06093730281E08093740283E91B
:1009800092E00E94491606C086818A3F19F481E0F0
:10099000809375022C960FB6F894DEBF0FBECDBFC4
:1009A000DF91CF911F910F91FF90EF90DF90CF904B
:1009B000BF90AF909F908F9008952681253F09F0BA
:1009C000DCC0329536953770BC01695F7F4F3323A9
:1009D00011F070E060E0CE0107960E94A603F12CB2
:1009E000E12C10E000E090E080E02B853C85821750
:1009F000930708F071C0F6E0EF16F10408F06CC040
:100A00002F813885AC014F5F5F4F5A0121153105A9
:100A100009F470C0280F391FF90120812B3309F028
:100A200063C06C018017910710F468018C011A8271
:100A300019821C821B821E821D8250E040E065EC00
:100A400071E0CE0101960E947B038B849C84081583
:100A5000190520F5C814D90408F44601EF81F8857A
:100A6000E80DF91DD08010826F817885600F711FAD
:100A70006115710509F440C0FB0101900020E9F700
:100A80003197AF01461B570BCE0101960E947B03A5
:100A90008F819885880E991EF401D0828D819E8168
:100AA000892BA1F089819A81009799F10E941A15EA
:100AB000161617065CF4F701EE0FFF1FEF57FD4FF8
:100AC00071836083A7014F5F5F4F7A018501CE017B
:100AD00001960E9424030EC081E080937602CE012D
:100AE00007960E94240356CF2C3209F49ACF2C3754
:100AF00009F497CFC50179CF89819A81009711F0C8
:100B00000E9473141A8219821E821D821C821B820B
:100B1000BFCF60E070E0CB01CBCF30916C0201E041
:100B2000231338CF10E00E947B0497E0909FF001E0
:100B3000919FF00D1124EE59FD4F2681281709F4DD
:100B400029CF86830F5F1F4F909FF001919FF00D7B
:100B50001124EE59FD4F81E08083809362021ACF09
:100B6000211108C086818B3F09F014CF81E080936A
:100B7000230110CF203309F00DCFFC018681843F83
:100B800009F008CF81E080931D0104CF3091650208
:100B90002313C3CF00E0C6CFCF93DF93FC011082B5
:100BA00011821282148215821682DC0117968AE164
:100BB000ED0119928A95E9F782E08383DF91CF9165
:100BC0000895BF92CF92DF92EF92FF920F931F93FF
:100BD000CF93DF937B01042FB22E90E59CBD1DBC0B
:100BE0002A98E0E1F0E03197F1F70E940D03182F09
:100BF000E7010150A8F0BB2051F08FEF0E940D03D8
:100C0000182FE114F104A9F388832196F2CF6E0125
:100C10008FEFC81AD80A88810E940D03E601E9CF38
:100C20002A9A80E190E00197F1F7812FDF91CF912F
:100C30001F910F91FF90EF90DF90CF90BF9008959C
:100C4000CF93DF931F92CDB7DEB7698320E041E0F9
:100C5000BE016F5F7F4F0E94E1050F90DF91CF9142
:100C600008958091E001982F9077903759F0982F50
:100C700092959F709F5F97709295907F8F78892B48
:100C80008093E0018091DF018B7F8F7E8093DF0175
:100C900029986CE080E20C9420066FE080E20E94CC
:100CA0002006609108016F3F19F08AE20E94200639
:100CB000299A089521E041E070E060E00C94E1059C
:100CC00020E040E070E060E00C94E105FF920F93BB
:100CD0001F93CF93DF9390915E02FB01908343813A
:100CE000C0E242FD08C04695469546954A3108F057
:100CF00049E1C7E0C40F90916102D1E090FD03C0CB
:100D00008F3F09F0D0E06115710509F44CC08B01EB
:100D1000F82E299880E091E00197F1F76EE080E2EB
:100D20000E94200684EC90E00197F1F76F2D8AE293
:100D30000E9420066F2D80E30E94200681EE0E9413
:100D40006006DD2321F060E584E20E94200620E0B9
:100D50004C2FB80180EA0E94E105299A10E000E0DA
:100D60008FEF0E946006807339F40F3F100721F067
:100D7000A8950F5F1F4FF4CF299860E787E20E9484
:100D80002006C82F84FF03C081EE0E946006DD2389
:100D900021F06FE584E20E9420060E944D06C5FF07
:100DA00003C0D1E001C0D0E08D2FDF91CF911F9122
:100DB0000F91FF9008950F931F93CF938C01FC0127
:100DC00082819091DF0190FF04C08F3F51F5CFEFFA
:100DD00004C0811116C0C0915F02B8018C2F0E941F
:100DE000660690915F029C1313C09091E0018111FF
:100DF00013C021E0290F2F70907F922B9093E00178
:100E000007C08F3F21F3B8010E946606882319F3BB
:100E1000CF911F910F910895907F9093E00181E011
:100E2000F7CF80E0F5CF2091DF0122FD0C94DB06A7
:100E300080E00895FC0180915E0281839481907F1F
:100E40009960948380915D0280FF03C0CF010C9470
:100E5000130780E00895FF920F931F93CF93DF93C2
:100E6000CDB7DEB7A1970FB6F894DEBF0FBECDBFEA
:100E7000F82E8B01CE0101960E94CC05FF8282E004
:100E80008E83F8016081CE0101960E942E020E949D
:100E90001A07A1960FB6F894DEBF0FBECDBFDF9143
:100EA000CF911F910F91FF900895FF920F931F9381
:100EB000CF93DF931F92CDB7DEB78C01DC01EC91AD
:100EC00087E0F82EFE9EF0011124EE59FD4F668159
:100ED00084810E94C700D801EC91FE9EF00111248C
:100EE000EE59FD4F838190E0668183569E4F0E94AC
:100EF0004916F801808190E0F89EF001F99EF00D0E
:100F00001124EE59FD4F21E03681311101C020E05E
:100F1000298327E0289FF001299FF00D1124EE5925
:100F2000FD4FBE016F5F7F4F83810E942B070F90A3
:100F3000DF91CF911F910F91FF900895EF92FF9253
:100F40000F931F93CF93DF93CDB7DEB7A1970FB663
:100F5000F894DEBF0FBECDBFE82EF62E8A01CE017B
:100F600001960E94CC05EF82FE82F80160817181BA
:100F7000CE0101960E9446040E941A07A1960FB660
:100F8000F894DEBF0FBECDBFDF91CF911F910F91BF
:100F9000FF90EF9008951F93CF93DF93182F262F84
:100FA000EA0150E040E0682F80E00E948E001F3F81
:100FB00011F4CDE4D1E0BE010E944604DF91CF914F
:100FC0001F910C9413072F923F924F925F926F9252
:100FD0007F928F929F92AF92BF92CF92DF92EF92C9
:100FE000FF920F931F93CF93DF9300D000D01F92F7
:100FF000CDB7DEB7809125018F3F09F45CC007E1D2
:1010000010E090E3892E912C25EF222E30E1432E23
:10101000512C43E0E42EF12C52E0C52ED12C66E099
:10102000662E712CE0912501E83008F001C1E150F5
:10103000E73008F040C0F0E0E05EF74F0C942A186B
:101040002F0873088108B108290829080009882396
:1010500051F0809125018F5F80932501E3CF89EEC8
:10106000A82E83E0B82E64E670E080E090E00E9455
:10107000470B2BE043E050E06FEF80E00E948E00D2
:1010800069E571E00E9446040E941307382E2CE0A7
:1010900043E050E06FEF80E00E948E006BE671E06D
:1010A0000E9446040E941307832191E0A91AB10807
:1010B00071F68111CECF0F900F900F900F900F907F
:1010C000DF91CF911F910F91FF90EF90DF90CF9024
:1010D000BF90AF909F908F907F906F905F904F9058
:1010E0003F902F9008957A8269828BEF8B834FE631
:1010F00051E0BE016F5F7F4FCE0103960E949F0BB0
:10110000D8CFFA82E98248E751E0BE016F5F7F4F96
:1011100085E692E00E949F0B882369F2DA82C982F9
:10112000BE016F5F7F4F85E692E00E946F0B8823C0
:1011300011F2FA82E98248E751E0BE016F5F7F4F0A
:101140008CE692E00E949F0B882309F4B4CFDA82E8
:10115000C982BE016F5F7F4F8CE692E00E946F0BE9
:10116000A8CF86EF8D832C828AEF8B835A824982A7
:101170004CE851E0BE016F5F7F4FCE0103960E94A5
:101180009F0B882309F497CF1A830983BE016F5FF1
:101190007F4FCE0103960E946F0B882309F48BCFFB
:1011A000FA82E9824DE951E0BE016F5F7F4FCE01C7
:1011B00005960E949F0B882309F47DCFDA82C982AD
:1011C000BE016F5F7F4FCE0105960E946F0B882393
:1011D00009F471CF1A83098347E951E0BE016F5FBB
:1011E0007F4FCE0104960E949F0B882309F463CFA2
:1011F0009A828982BE016F5F7F4FCE010496AECF87
:1012000094EF9B831A83098349EA51E0BE016F5F23
:101210007F4FCE0103960E949F0B882309F44BCF8A
:101220009A828982BE016F5F7F4FCE01039696CF6F
:101230008FEF809325013FCF2FE043E050E06FEF29
:1012400080E00E948E0065EC71E00E944604EDE8AB
:10125000F2E0838187708061838384818F71806CE9
:10126000848381E087831086CF010E9413078FE07B
:101270000E94110B45EC51E061E170E08FEF0E949C
:10128000CB0726E043E050E06FEF80E00E948E0045
:1012900060915F020E942E020E94130786E00E9466
:1012A000110B0C94E3074F925F926F927F928F9293
:1012B0009F92AF92BF92DF92EF92FF920F931F9394
:1012C000CF93DF9300D01F92CDB7DEB726E02B83FC
:1012D00000E010E0812C912C84E0A82E82E0B82E52
:1012E000E12CFF24FA9487E10E945A0680FD80C118
:1012F0008B8181508B83882309F47AC121E041E0FE
:1013000070E060E080E60E94E1058983813220F090
:1013100082EE0E946006198221E049816EEA72E045
:1013200081E60E94E10560E487E20E942006809148
:10133000B102982F93709230B1F6E82FE695E695BA
:10134000E695EA3108F0E9E182FF57C089E1895F5B
:1013500099819813C8CF8091B202282F27702983D2
:101360009091B3029A83D090AF022091AE029091F7
:10137000B0023091E00130683093E00130915E02BC
:1013800093130AC1F0E0E255FD4F178283FF15C0A9
:1013900021E2EEEAF2E0ADE8B2E001900D922A958A
:1013A000E1F7877E80618093910290938E02D092C4
:1013B0008F028DE892E00E9413079091B20294FD93
:1013C000E3C02981233009F0DFC08091B30221EF0F
:1013D000280F233008F487CF2A81243009F483CFE3
:1013E000283169F429E143E050E06FEF8D2D0E9430
:1013F0008E0061E00E942E022CC08E2FA8CF2A8181
:10140000293171F48091DF0183FF6DCF877F809355
:10141000DF018EEA92E00E947B048093E10163CFBA
:101420002A812E3109F45FCF2D31B1F42FE143E051
:1014300050E06FEF80E00E948E00FC018381877096
:101440008061838384818F7180648483F086E782E6
:10145000CF010E94DB0647CF2091AF02211199C036
:101460008D3059F488E198E00FB6F894A8958093F0
:1014700060000FBE90936000FFCF8B3179F48EEA4D
:1014800092E00E947B0491E0811101C090E0809184
:101490005D0290FB80F980935D0225CF863099F440
:1014A0009091B50281E0992319F09D3409F080E014
:1014B00080935C0241E050E063E071E08CE592E0F3
:1014C0000E94391610CF833119F40E941C090BCFEA
:1014D0008231E1F40E9445022B013C0126E143E008
:1014E00050E06FEF80E00E948E00FC0183818770E6
:1014F0008062838384818F71806A8483478250866F
:1015000061867286CF010E941307EDCE8230A9F466
:1015100022E043E050E06FEF80E00E948E00FC018B
:10152000838187708062838384818F71806A8483E2
:1015300087829086A186B286E5CF8130F9F40115C5
:10154000110509F4D0CE929596959770953059F47F
:101550006091B5027091B6028091B7029091B80285
:101560000E940000C0CE911105C085EB92E00E9460
:101570001A15F6CF60E070E0CB01F2CF8A3009F4A3
:10158000B2CE8C3109F4AFCE8EEA92E00E948C0488
:10159000AACE8A31C9F7A7CE9F3F09F0A4CE898190
:1015A000833009F58091DF0182FF04C09A81973072
:1015B00009F499CE8A81843109F095CE80915F0239
:1015C000281391CE0E94A1017370882799270E9449
:1015D0006E0125E143E050E06FEF8D2D0E948E00FB
:1015E00060915F0207CF80915F0228137CCECCCF41
:1015F0000F900F900F90DF91CF911F910F91FF905F
:10160000EF90DF90BF90AF909F908F907F906F9002
:101610005F904F9008958091DF0184FD0C945309F1
:101620000895CF92DF92EF92FF92CF93DF93D82F5E
:101630000E94A1016B017C018091B20287608093BE
:10164000B202C0E00E94A1016C197D098E099F09B8
:10165000603D77408105910590F4C11110C0A895B7
:101660000E943A020E940B0B8091B2028770833075
:1016700049F7C1E08091B3028D13E3CFE3CF8C2F04
:10168000DF91CF91FF90EF90DF90CF9008958F92F0
:101690009F92AF92BF92CF92DF92EF92FF924B0157
:1016A0005C010E94A1016B017C010E94A1016C19E7
:1016B0007D098E099F09681579058A059B0530F417
:1016C000A8950E943A020E940B0BEFCFFF90EF907B
:1016D000DF90CF90BF90AF909F908F900895CF9262
:1016E000DF92EF92FF920F931F93CF93DF937C01D2
:1016F0006B01C9EED3E0F6010081F701108164E6C9
:1017000070E080E090E00E94470B202F42E050E024
:10171000612F80E00E948E0065EC71E00E9446041B
:101720000E941307219711F0882329F3DF91CF91AD
:101730001F910F91FF90EF90DF90CF9008958F92BF
:101740009F92AF92BF92CF92DF92EF92FF921F9340
:10175000CF93DF936C015B017A01C9EED3E0F50111
:1017600080809180F601108164E670E080E090E076
:101770000E94470BA701B401812F0E94CB0721973C
:1017800011F0882361F3DF91CF911F91FF90EF90CB
:10179000DF90CF90BF90AF909F908F9008954F9221
:1017A0005F926F927F929F92AF92BF92CF92DF92A1
:1017B000EF92FF920F931F93CF93DF93CDB7DEB7D6
:1017C000A7970FB6F894DEBF0FBECDBF809125015D
:1017D0008F3FA1F00E94E307809125018F3F09F41C
:1017E00049C30CE310E00150110909F443C364EF4D
:1017F00071E080E090E00E94470BF5CF8091DF011F
:1018000082FF59C38091D1019091D2016AE570E0C5
:101810000E940218892B29F080917502882309F40F
:101820006CC08FE00E9431012091790230917A02E0
:101830002817390714F4821B930B209177023091FB
:1018400078022817390791F097FD10C0909378021D
:101850008093770220918102309182022817390704
:1018600008F430C110927C0210927B0280917B02BE
:1018700090917C0220917D0230917E0228173907D9
:1018800021F420917502222399F190937E02809396
:101890007D02A0917702B091780224E630E00E94A8
:1018A000301824E833E040E050E00E945B163BA390
:1018B0002AA3CE0101960E94CC058AEF8F8387E18F
:1018C0008E832AA13BA18C81877080618C838D815E
:1018D0008F7180648D8339872887CE0101960E949D
:1018E0001A07E0917F02F0918002CE01829609955D
:1018F0008091750281111092750280917602882381
:1019000009F44FC0109276026AEB71E0CE01829624
:101910000E94A60331E8C32E32E0D32EF12CE12C35
:101920008E010F5F1F4F4AE0B801D6018D919D9146
:101930006D010E946915F80101900020E9F73197C7
:10194000AF01401B510BB801CE0182960E94540397
:10195000B5E0EB16F10441F041E050E064EC71E0D9
:10196000CE0182960E945403EFEFEE1AFE0AF6E0D3
:10197000EF16F104C1F642E050E066EC71E0CE01F2
:1019800082960E9454038AA19BA19A838983A8010D
:1019900060E370E085EF0E949E07CE0182960E9470
:1019A000240380917402882359F01092740280916C
:1019B00073028983BE016F5F7F4F86EF0E942B0702
:1019C00082E6E82E82E0F82E90E7C92E92E0D92E2A
:1019D000BB24B39422E0A22ED70118960D911C913E
:1019E000F80180858B7F80870190F081E02D019048
:1019F000F081E02DC8010995982ED80118968C9198
:101A000086958170981609F496C00E94A101F8018C
:101A1000628373838483958380858A258087D80138
:101A200018968C9182FF16C0D7011896ED91FC9103
:101A30001997808580FD0EC082FF0CC01796BC925E
:101A4000179781E016969C91911180E0F7018683AB
:101A5000B0926202F7E0EF0EF11CCE14DF0409F041
:101A6000BBCF8091D1019091D20166E470E00E94D9
:101A70000218892B09F0A6C0198217E0E981E2302B
:101A800008F0A0C01E9FF0011124EE59FD4F868181
:101A90008823A1F0A0916302B0916402109771F0C5
:101AA0008C91882359F018968D919C9104970397F7
:101AB00028F41682CE0101960E94550789818F5F16
:101AC0008983DCCF20918302309184022817390763
:101AD00038F081E090E090937C0280937B02C6CE48
:101AE00020918502309186022817390718F082E08C
:101AF00090E0F1CF209187023091880228173907B2
:101B000018F083E090E0E7CF2091890230918A02BB
:101B10002817390718F084E090E0DDCF20918B0280
:101B200030918C022817390718F085E090E0D3CF68
:101B300086E090E0D0CF0E94A101D80112964D908E
:101B40005D906D907C901597AB01BC0144195509CF
:101B50006609770916968D919C91B0E0A0E0481730
:101B600059076A077B0708F45ACFF801808581700E
:101B7000981609F454CF0E94A101D80112966D93D2
:101B80007D938D939C93159718968C9118978B2520
:101B9000846018968C930E94A101F80142845384BA
:101BA000648475846419750986099709668777873F
:101BB000808B918B0E94A101F801628773878487D3
:101BC00095872DCF809162028823E1F01092620206
:101BD000198217E089818230A8F490E00196189F5D
:101BE000F001199FF00D1124EE59FD4F80818823DB
:101BF00029F01082CE0101960E94550789818F5FDE
:101C00008983E8CF8091D1019091D20167EB70E098
:101C10000E940218892B29F080912301882309F45E
:101C200054C088EC80937C0080917A008068809317
:101C30007A0064E170E080E090E00E946E018091A3
:101C40007A00806480937A0080917A0086FDFCCFD0
:101C5000609178007091790090E080E00E94931587
:101C60002EEA37E242EA53E40E94ED1626EF38E20C
:101C70004CE95FE30E945A170E94CC17613801F1CA
:101C8000809124018617E1F060932401CE01019632
:101C90000E94CC058BEF8F831E8220912401022E9F
:101CA000000C330B8C81877080618C838D818F71E8
:101CB00080648D8339872887CE0101960E941A0798
:101CC000809123018111109223018091D101909183
:101CD000D2016CE271E00E940218892B21F0809100
:101CE0002101882349F18EE00E9431016AE070E011
:101CF0000E9416188B016536710514F004E610E099
:101D000017FF02C010E000E0809122018017110649
:101D100071F00093220120E043E050E06FEF80E09B
:101D20000E948E00602F0E942E020E941307809155
:101D300021018111109221018091D1019091D20154
:101D40006EE771E00E940218892B29F080911E0134
:101D5000882309F462C088E00E945A068F7023EE3F
:101D60003FEF98E0899F201931091124032E000CC0
:101D7000440B550B2B5A3F4F4F4F5F4FA4E6B0E03B
:101D80000E947A162DE230E040E050E00E945B169F
:101D90002536310514F024E630E037FF02C030E08C
:101DA00020E080911F01909120012817390781F1CF
:101DB0003093200120931F0169EC71E0CE018296DF
:101DC0000E94A6034AE08E010F5F1F4FB801809169
:101DD0001F01909120010E944115F80101900020FF
:101DE000E9F73197AF01401B510BB801CE01829644
:101DF0000E9454038AA19BA19A838983A8016CE164
:101E000070E08EEF0E949E07CE0182960E9424030E
:101E100080911E01811110921E0180911D01882365
:101E2000E1F010921D01EDB7FEB7008110E0CE0188
:101E300001960E94CC0584EF8F8380E38E838C8192
:101E4000877080618C838D818F7180668D83198707
:101E50000887CE0101960E941A078091D1019091C6
:101E6000D20101968036AAEE9A0700F59093D2012E
:101E70008093D10168EE73E080E090E00E94470B10
:101E8000A7960FB6F894DEBF0FBECDBFDF91CF91FE
:101E90001F910F91FF90EF90DF90CF90BF90AF9088
:101EA0009F907F906F905F904F9008951092D20115
:101EB0001092D101DFCF60E177E280E090E00E94F4
:101EC000470BD8CF9F92AF92BF92CF92DF92EF9203
:101ED000FF920F931F93CF93DF939FB6F894C2E6C0
:101EE000D2E080E7C82E82E0D82E99E4A92E91E0B6
:101EF000B92E2AE0E22EF12C82E190E00E94D71365
:101F0000FC01B182A0821282138214821582F782B0
:101F1000E68210861186998788878B8190E08356A8
:101F20009E4F0E9431168E8391E0811101C090E096
:101F30009F8361E08C810E94F50062E08D810E94A8
:101F4000F50061E08D810E94C700088519858D81AB
:101F5000D80119968C93199718961C921897ED91A1
:101F6000FC910190F081E02DC8010995882321F0B2
:101F7000F8018085836080870E94A101D8011296B4
:101F80006D937D938D939C931597E885F985F782E2
:101F9000E6822796CC16DD0609F0AECF9FBE83E021
:101FA00080932E018FE00E94310110E000E0D0E02C
:101FB000C0E00E94A101683873418105910598F441
:101FC00064E670E080E090E00E94470B8FE00E94A2
:101FD0003101C817D9072CF0801791070CF48C0138
:101FE000CE01EC01E6CFC01BD10BCF31D105D4F42B
:101FF000D0937A02C093790283E992E00E9431166D
:1020000091E0811101C090E090937302DF91CF9134
:102010001F910F91FF90EF90DF90CF90BF90AF9006
:102020009F90089510927A0210927902E5CFCF9393
:1020300080915D0281FD20C00E941C0980915D029B
:10204000816080935D02C4E02AE143E050E06FEFDD
:1020500080E00E948E0062E00E942E020E94130720
:102060008BE10E94110B811102C0C15069F7809170
:102070005D02826080935D02CF9108958FEF80931F
:10208000E101EFEDF1E080818860808328E143E0A9
:1020900050E06FEF80E00E948E0061E00E942E020F
:1020A0000C94DB0680915E028F3F69F423E043E0ED
:1020B00050E06FEF80E00E948E0065EC71E00E94BE
:1020C00046040C94DB060895CF93219A229A29980E
:1020D0002A9ACFB7F8948091D001811127C0E0E906
:1020E000F0E08491E4EAF0E09491E82FF0E0EE0F64
:1020F000FF1FEE58FF4FA591B491EC91E92321F415
:1021000061E08AE00E94C70061E08AE00E94F50079
:102110008CB580618CBD8CB580648CBD61E08DE038
:102120000E94F50061E08BE00E94F5008091D001F3
:102130008F5F8093D001CFBF29986EE080E20E942C
:10214000200684E293E20197F1F763E083E20E94C4
:1021500020066FE584E20E9420066CE485E20E947E
:10216000200665E286E20E94200664E08DE30E947C
:1021700020068DE10E945A06843041F063E780E535
:102180000E94200664E08DE30E94200686E00E9403
:102190005A06853209F04DC085E00E945A068C34FB
:1021A00009F047C062E082E20E94200660E081E21E
:1021B0000E94200663E08CE30E9420068FEF80934C
:1021C000030120E045E063E071E08BE20E94E1055D
:1021D00020E045E063E071E08AE20E94E10520E052
:1021E00045E063E071E080E30E94E10582EE0E9439
:1021F000600681EE0E94600660E787E20E9420068A
:102200008091DF0180618093DF01809161028E7F88
:102210008093610285E180935E0265E190E080E059
:102220000E944916C0915E02CF3F41F481E191E0E6
:1022300002C089E091E0CF910C9458028FEF8C0F8F
:102240008E3FB8F7C093080163E082E20E94200647
:1022500061E081E20E9420060E944D066C2F90E012
:1022600080E00E944916E2CF1F920F920FB60F92A4
:1022700011242F933F938F939F93AF93BF9380919C
:10228000540290915502A0915602B091570230919C
:10229000530226E0230F2D3758F50296A11DB11DDC
:1022A000209353028093540290935502A0935602B8
:1022B000B09357028091580290915902A0915A020E
:1022C000B0915B020196A11DB11D809358029093BD
:1022D0005902A0935A02B0935B02BF91AF919F91B4
:1022E0008F913F912F910F900FBE0F901F901895D7
:1022F00029E8230F0396A11DB11DD2CF1F920F9283
:102300000FB60F9211242F933F934F935F936F93C8
:102310007F938F939F93AF93BF93EF93FF93E0913E
:102320002C01F0912D010995FF91EF91BF91AF9193
:102330009F918F917F916F915F914F913F912F91DD
:102340000F900FBE0F901F9018951F920F920FB60F
:102350000F9211242F933F934F935F936F937F932B
:102360008F939F93AF93BF93EF93FF93E0912A01D5
:10237000F0912B010995FF91EF91BF91AF919F9142
:102380008F917F916F915F914F913F912F910F901E
:102390000FBE0F901F9018951F920F920FB60F92BD
:1023A00011242F933F934F935F936F937F938F935A
:1023B0009F93AF93BF93EF93FF938091B900887F72
:1023C000803609F44AC0F0F5883209F4A5C018F542
:1023D000803109F499C0B8F4882309F4F5C0883035
:1023E00009F492C0FF91EF91BF91AF919F918F91AE
:1023F0007F916F915F914F913F912F910F900FBE01
:102400000F901F901895883109F486C0803251F7DB
:1024100080932C0214C0803409F49BC040F48033B4
:10242000B9F38833F9F680932C0285ECAEC0803581
:1024300009F483C0883509F494C0883499F60E9461
:10244000BB03D0CF883909F48AC038F5883729F022
:1024500050F4883611F0803729F683E080932D02FE
:1024600010922B0255C0883809F479C0803919F0D0
:10247000803809F0B7CF80912B02803208F06FC00E
:10248000E0912B0281E08E0F80932B028091BB00A4
:10249000F0E0E55FFD4F80833BC0803B39F0D0F436
:1024A000803A09F477C0883A09F09CCF84E08093A1
:1024B0002D0210920A0210920902F0E0E0E0099564
:1024C0008091090281110FC081E08093090210926E
:1024D000E90109C0803C09F4A8CF883C09F4A5CFE4
:1024E000883B09F07FCFE0910A0281E08E0F809354
:1024F0000A02F0E0E751FE4F80818093BB0090918B
:102500000A028091090229C0809152028093BB0087
:1025100085EC8093BC0066CF90915102809150026F
:10252000981758F5E091510281E08E0F8093510287
:10253000F0E0E05DFD4F8081E9CFE091510281E064
:102540008E0F809351028091BB00F0E0E05DFD4F63
:10255000808390915102809150029817C8F285E8CB
:10256000D8CFE091510281E08E0F8093510280918B
:10257000BB00F0E0E05DFD4F808380912F02811170
:102580005ECF81E080932E0284EA8093BC0010929B
:102590002D0228CF85EC8093BC0010922D028091F3
:1025A0002B02803230F4E0912B02F0E0E55FFD4F2A
:1025B000108260912B0270E08BE092E0F0E0E0E0AE
:1025C000099510922B020ECF10922C0238CF1F9239
:1025D0000F920FB60F9211240F900FBE0F901F9005
:1025E0001895CF93DF938EEA92E00E94CC058DE898
:1025F00092E00E94CC0598E0E7E7F2E0DF01892F46
:102600001D928A95E9F7C3E7D2E0409135015091D8
:1026100036016091370170913801488359836A838C
:102620007B832DE830E03D872C878CE0E9E3F1E007
:10263000A1E8B2E001900D928A95E1F7E2E6F2E0BE
:1026400081E0808345E652E02EE0DA011D922A9572
:10265000E9F7948396E09583828787E0838785E016
:102660008487D283C183DF91CF910895789484B514
:10267000826084BD84B5816084BD85B5826085BD7E
:1026800085B5816085BD80916E00816080936E000C
:1026900010928100809181008260809381008091FE
:1026A00081008160809381008091800081608093AF
:1026B00080008091B10084608093B1008091B0006F
:1026C00081608093B00080917A00846080937A006A
:1026D00080917A00826080937A0080917A008E7F68
:1026E00080937A0080917A00806880937A001092BB
:1026F000C100A89580E090E0892B11F00E940000B5
:1027000080915D028D7F80935D020E94620F41E0A7
:1027100050E063E071E08CE592E00E94211660E0F9
:1027200081E090E00E9449168091E0018F788093CB
:10273000E0011092D6011092D50186E291E00E944C
:10274000580287E190E19093D4018093D3010E94D5
:10275000A1010E94A1010E943A020E940B0B8091EC
:10276000DF0182FB882780F9A895882391F3A8953B
:10277000C0E0D0E0A8950E943A028091DF0184FD7C
:102780000E9453090E94CF0B2097A1F30E940000E2
:10279000F1CFCF93DF93C2E6D2E0888599850E947E
:1027A00073148F859889DF91CF910C9473140F93D4
:1027B0001F93CF93DF938230910510F482E090E075
:1027C000E091D102F091D20230E020E0B0E0A0E050
:1027D000309799F42115310509F44AC0281B390BAB
:1027E00024303105D8F58A819B816115710589F105
:1027F000FB0193838283FE0111C0408151810281DC
:10280000138148175907E0F04817590799F41097B2
:1028100061F012960C93129713961C933296CF0187
:10282000DF91CF911F910F9108950093D1021093E2
:10283000D202F4CF2115310551F04217530738F079
:10284000A901DB019A01BD01DF01F801C1CFEF0150
:10285000F9CF9093D2028093D102CDCFFE01E20F47
:10286000F31F819391932250310939832883D7CF65
:102870002091CF023091D002232B41F420913101DD
:10288000309132013093D0022093CF0220912F015A
:10289000309130012115310541F42DB73EB74091FB
:1028A000330150913401241B350BE091CF02F0919C
:1028B000D002E217F307A0F42E1B3F0B28173907AD
:1028C00078F0AC014E5F5F4F2417350748F04E0F8C
:1028D0005F1F5093D0024093CF02819391939FCF7B
:1028E000F0E0E0E09CCFCF93DF930097E9F0FC01AC
:1028F000329713821282A091D102B091D202ED01DF
:1029000030E020E01097A1F420813181820F931FE5
:102910002091CF023091D0022817390709F061C009
:10292000F093D002E093CF02DF91CF910895EA01B6
:10293000CE17DF07E8F54A815B819E0141155105FD
:10294000B1F7E901FB83EA8349915991C40FD51F7F
:10295000EC17FD0761F4808191810296840F951F29
:10296000E90199838883828193819B838A83F0E044
:10297000E0E012968D919C9113970097B9F52D91F7
:102980003C911197CD010296820F931F2091CF02A7
:102990003091D0022817390739F6309751F5109247
:1029A000D2021092D102B093D002A093CF02BCCF3A
:1029B000D383C28340815181840F951FC817D907E3
:1029C00061F44E5F5F4F88819981480F591F518391
:1029D00040838A819B81938382832115310509F08D
:1029E000B0CFF093D202E093D1029ECFFD01DC0183
:1029F000C0CF13821282D7CFFC0188279927E89491
:102A000021912032E9F3293010F02E30C8F32B3217
:102A100041F02D3239F4689404C00E946115820F90
:102A2000911D219120532A30C0F31EF49095819579
:102A30009F4F08951F93FC0199278827BC01E894B4
:102A400011911032E9F3193010F01E30C8F31B3227
:102A500051F01D3249F4689406C00E944C15610F74
:102A6000711D811D911D119110531A30B0F33EF468
:102A700090958095709561957F4F8F4F9F4F1F91D7
:102A80000895BB274A3031F4992322F4BDE2909592
:102A900081959F4F0C946A15592F482F372F262F59
:102AA000660F771F881F991F660F771F881F991F52
:102AB000620F731F841F951F660F771F881F991F52
:102AC00008957AE0979F902D879F802D910D112476
:102AD0000895BB27FB015527AA27880F991FAA1F16
:102AE000A41710F0A41B83955051B9F7A05DAA3329
:102AF00008F0A95DA193009779F7B111B1931192F4
:102B0000CB010C948315DC01FC01672F71917723B5
:102B1000E1F7329704C07C916D9370836291AE1798
:102B2000BF07C8F30895E89409C097FB3EF4909559
:102B30008095709561957F4F8F4F9F4F9923A9F096
:102B4000F92F96E9BB279395F69587957795679525
:102B5000B795F111F8CFFAF4BB0F11F460FF1BC069
:102B60006F5F7F4F8F4F9F4F16C0882311F096E9FC
:102B700011C0772321F09EE8872F762F05C06623AA
:102B800071F096E8862F70E060E02AF09A95660F63
:102B9000771F881FDAF7880F9695879597F908951C
:102BA00097F99F6780E870E060E008959FEF80EC00
:102BB000089500240A9416161706180609060895A3
:102BC00000240A9412161306140605060895092E09
:102BD0000394000C11F4882352F0BB0F40F4BF2B78
:102BE00011F460FF04C06F5F7F4F8F4F9F4F0895B8
:102BF00057FD9058440F551F59F05F3F71F04795AE
:102C0000880F97FB991F61F09F3F79F08795089592
:102C1000121613061406551FF2CF4695F1DF08C0B1
:102C2000161617061806991FF1CF869571056105CE
:102C300008940895E894BB2766277727CB0197F976
:102C40000895DC01CB01FC01F999FECF06C0F2BD6D
:102C5000E1BDF89A319600B40D9241505040B8F75A
:102C60000895F999FECF92BD81BDF89A992780B554
:102C70000895DC01A40FB51F4150504048F0CB012E
:102C8000840F951F2E910E944A1641505040D0F754
:102C90000895262FF999FECF92BD81BDF89A01972C
:102CA00000B4021639F01FBA20BD0FB6F894FA9A94
:102CB000F99A0FBE0895052E97FB1EF400940E940A
:102CC000721657FD07D00E94BC1607FC03D04EF4C5
:102CD0000C94721650954095309521953F4F4F4F6B
:102CE0005F4F089590958095709561957F4F8F4FB8
:102CF0009F4F08950E94DE16A59F900DB49F900DE2
:102D0000A49F800D911D112408952F923F924F9200
:102D10005F926F927F928F929F92AF92BF92CF926B
:102D2000DF92EF92FF920F931F93CF93DF93CDB774
:102D3000DEB7CA1BDB0B0FB6F894DEBF0FBECDBFEC
:102D400009942A88398848885F846E847D848C84BD
:102D50009B84AA84B984C884DF80EE80FD800C81C6
:102D60001B81AA81B981CE0FD11D0FB6F894DEBFA9
:102D70000FBECDBFED010895A1E21A2EAA1BBB1B09
:102D8000FD010DC0AA1FBB1FEE1FFF1FA217B30737
:102D9000E407F50720F0A21BB30BE40BF50B661F4D
:102DA000771F881F991F1A9469F760957095809511
:102DB00090959B01AC01BD01CF010895A29FB00188
:102DC000B39FC001A39F700D811D1124911DB29F5F
:102DD000700D811D1124911D08955058BB27AA27FD
:102DE0000E9405170C94E7150E94D91538F00E942F
:102DF000E01520F039F49F3F19F426F40C94D61511
:102E00000EF4E095E7FB0C94D015E92F0E94F8151D
:102E100058F3BA17620773078407950720F079F40F
:102E2000A6F50C941A160EF4E0950B2EBA2FA02DD1
:102E30000B01B90190010C01CA01A0011124FF2767
:102E4000591B99F0593F50F4503E68F11A16F04062
:102E5000A22F232F342F4427585FF3CF4695379561
:102E60002795A795F0405395C9F77EF41F16BA0B26
:102E7000620B730B840BBAF09150A1F0FF0FBB1FD4
:102E8000661F771F881FC2F70EC0BA0F621F731F1D
:102E9000841F48F4879577956795B795F7959E3F7A
:102EA00008F0B0CF9395880F08F09927EE0F97950B
:102EB000879508950E946E170C94E7150E94E015FF
:102EC00058F00E94D91540F029F45F3F29F00C9486
:102ED000D01551110C941B160C94D6150E94F815A0
:102EE00068F39923B1F3552391F3951B550BBB2739
:102EF000AA2762177307840738F09F5F5F4F220F7E
:102F0000331F441FAA1FA9F335D00E2E3AF0E0E874
:102F100032D091505040E695001CCAF72BD0FE2FBE
:102F200029D0660F771F881FBB1F26173707480752
:102F3000AB07B0E809F0BB0B802DBF01FF2793580A
:102F40005F4F3AF09E3F510578F00C94D0150C94E9
:102F50001B165F3FE4F3983ED4F38695779567950B
:102F6000B795F7959F5FC9F7880F911D969587953F
:102F700097F90895E1E0660F771F881FBB1F62175E
:102F800073078407BA0720F0621B730B840BBA0B1C
:102F9000EE1F88F7E09508950E94D3176894B11149
:102FA0000C941B1608950E94001688F09F5798F005
:102FB000B92F9927B751B0F0E1F0660F771F881F3E
:102FC000991F1AF0BA95C9F714C0B13091F00E9458
:102FD0001A16B1E008950C941A16672F782F8827D7
:102FE000B85F39F0B93FCCF3869577956795B3957F
:102FF000D9F73EF490958095709561957F4F8F4FEE
:103000009F4F0895AA1BBB1B51E107C0AA1FBB1FFE
:10301000A617B70710F0A61BB70B881F991F5A9564
:10302000A9F780959095BC01CD01089597FB072ED7
:1030300016F4009407D077FD09D00E94021807FC0F
:1030400005D03EF4909581959F4F089570956195B8
:103050007F4F0895EE0FFF1F0590F491E02D099426
:103060000E94DE16B7FF0895821B930B0895B0E00F
:10307000A0E0EDE3F8E10C9487168C01009751F481
:10308000CB010E94D7138C01C801CDB7DEB7E0E1B8
:103090000C94A316FC01E60FF71F9C012250310986
:1030A000E217F30708F49DC0D901CD91DC91119787
:1030B000C617D70798F0C530D10530F3CE01049775
:1030C0008617970708F3C61BD70B2297C193D19396
:1030D0006D937C93CF010E947314D6CF5B01AC1A21
:1030E000BD0A4C018C0E9D1EA091D102B091D2025E
:1030F000512C412CF12CE12C109731F58091CF020D
:103100009091D0028815990509F05CC046165706C3
:1031100008F058C080912F0190913001009741F440
:103120008DB79EB74091330150913401841B950BAC
:10313000E817F90708F055C0F093D002E093CF02EA
:10314000F90171836083A0CF8D919C9111971296A4
:103150006C90129713967C901397A815B90559F5A2
:103160006C0142E0C40ED11CCA14DB0420F1AC0196
:103170004A195B09DA011296159780F06282738210
:1031800051834083D9016D937C93E114F10471F074
:10319000D7011396FC93EE93129776CF22968C0F5D
:1031A0009D1FF90191838083F301EFCFF093D20249
:1031B000E093D10269CF4816590608F42C017D012D
:1031C000D3019ACFCB010E94D7137C01009749F01D
:1031D000AE01B8010E94F418C8010E94731487015F
:1031E00053CF10E000E050CFFB01DC0102C00190A2
:1031F0000D9241505040D8F70895FB01DC01019039
:103200000D920020E1F70895FB01DC014150504090
:1032100048F001900D920020C9F701C01D92415065
:103220005040E0F7089510E0C2E6D0E004C0FE018F
:103230000E942A182196C336D107C9F7F894FFCF08
:10324000FFFFFF00FCE1A8A8FF310684025210EF47
:1032500002140309033E10C002AE02A402010100E1
:1032600000010001000130046410AD01AD01010056
:1032700000D302800001010100020005000A000FD6
:10328000001900230000000000B201AE01322E340C
:103290002E302D616C70686100556E69742D4C691B
:1032A0006768744E6F64652D723200312E340049A8
:1032B0006E742E54656D700052656C61792E427586
:1032C00074746F6E2E4C696768747300496E742E47
:1032D0004C69676874730053657475702E4175741A
:1032E0006F2E4C696768747300556E69742E4D6556
:1032F0006D6F72792E46726565007B226461746120
:10330000223A5B002C005D7D00727373693A000005
:00000001FF
