:020000040000FA
:100000000C9424030C94AD1B0C94861B0C944C0391
:100010000C944C030C944C030C94EF1C0C944C0368
:100020000C944C030C944C030C944C030C944C0314
:100030000C944C030C944C030C944C030C944C0304
:100040000C943C1B0C944C030C940A1B0C94E41A67
:100050000C944C030C944C030C944C030C944C03E4
:100060000C94D41B0C944C0300407A10F35A00A05B
:10007000724E18090010A5D4E80000E87648170071
:1000800000E40B54020000CA9A3B000000E1F505B1
:10009000000080969800000040420F000000A086FB
:1000A00001000000102700000000E803000000002D
:1000B0006400000000000A000000000001000000D1
:1000C00000002C76D888DC674F0823DFC1DFAE59EB
:1000D000E1B1B796E5E3E453C63AE651997696E87E
:1000E000E6C28426EB898C9B62ED407C6FFCEFBC02
:1000F0009C9F40F2BAA56FA5F490055A2AF75C932D
:100100006B6CF9676DC11BFCE0E40D47FEF520E662
:10011000B500D0ED902E0300943577050080841E45
:10012000080000204E0A000000C80C333333330FA0
:10013000986E12831141EF8D2114893BE65516CF3D
:10014000FEE6DB18D1844B381BF77C1D901DA4BB49
:10015000E424203284725E228100C9F124ECA1E5FE
:100160003D2754534D3A494E49540A002154534DAA
:100170003A494E49543A545350204641494C0A009A
:100180005453463A5349443A4F4B2C49443D257504
:100190000A00215453463A5349443A4641494C2CAB
:1001A00049443D25750A0054534D3A494E49543A45
:1001B0005354415449443D25750A0054534D3A491E
:1001C0004E49543A545350204F4B0A0054534D3A21
:1001D000465041523A53544154503D25750A0054FB
:1001E000534D3A465041520A0054534D3A49443A0D
:1001F0005245510A0054534D3A49440A0021545380
:100200004D3A49443A4641494C0A0054534D3A4903
:10021000443A4F4B0A0054534D3A55504C0A002172
:1002200054534D3A55504C3A4641494C0A005453A8
:100230004D3A55504C3A444757432C4F3D25752C69
:100240004E3D25750A0054534D3A55504C3A4F4B8C
:100250000A0054534D3A52454144593A49443D25C8
:10026000752C5041523D25752C4449533D25750A46
:10027000002154534D3A52454144593A55504C206F
:100280004641494C2C53544154500A005453463A69
:100290005444493A54534C0A0054534D3A46414948
:1002A0004C3A4449530A0054534D3A4641494C3A5A
:1002B000434E543D25750A0054534D3A4641494C2E
:1002C0003A52452D494E49540A00215453463A5258
:1002D00054453A4E324E204641494C0A005453464A
:1002E0003A5254453A4E324E204F4B0A0021545355
:1002F000463A5254453A4650415220414354495699
:10030000450A00215453463A534E443A544E520A39
:100310000025735453463A4D53473A53454E442CA7
:1003200025752D25752D25752D25752C733D257568
:100330002C633D25752C743D25752C70743D2575F9
:100340002C6C3D25752C73673D25752C66743D25F9
:10035000752C73743D25733A25730A004D434F3A4B
:100360005245473A5245510A00214D434F3A5052A7
:100370004F3A52433D25750A000A002D2D20707218
:100380006573656E742053656E6420627265616B7F
:100390002C20002D2D2057726F6E67206E756D62B8
:1003A00065722049440A00214D434F3A5741493A6A
:1003B00052433D25750A00202D2074696D65722019
:1003C000656E64002E00322E332E320A00207C5FD0
:1003D0005C2F602C0A0702200220B2871003400124
:1003E00020002402221002220202200222002220E7
:1003F0000202202227101341010101032220304074
:1004000020305203402214020310522402217101B1
:1004100000101012101222101002240101032203F6
:10042000002001010032203712100121322601285C
:1004300040322212101212224322241210012224CE
:1004400070C122240F0F5453463A5755523A4D5318
:100450003D256C750A004D434F3A42474E3A494E8E
:100460004954204F4B2C5453503D25750A004D43A1
:100470004F3A42474E3A5354500A004D434F3A4286
:10048000474E3A4246520A004D434F3A42474E3A8F
:10049000494E4954204E4F44452C43503D524E4EF8
:1004A0004E412D2D2D2C46513D25752C52454C3D50
:1004B00025752C5645523D322E332E320A000A0045
:1004C0002D2D2070726573656E742053656E6420E7
:1004D000627265616B2C20004D434F3A50494D3A92
:1004E0004E4F4445205245473D25750A002154533F
:1004F000463A4D53473A52454C204D53472C4E52A5
:1005000045500A005453463A4D53473A52435620F9
:1005100043420A005453463A4D53473A42430A0075
:100520005453463A4D53473A4543484F0A002154E5
:1005300053463A4D53473A504F4E47205245435643
:100540002C494E4143544956450A005453463A4DAE
:1005500053473A504F4E4720524543562C48503D42
:1005600025750A005453463A4D53473A50494E4771
:1005700045442C49443D25752C48503D25750A00BD
:100580005453463A4D53473A4543484F20524551FC
:100590000A005453463A4D53473A524541442C259C
:1005A000752D25752D25752C733D25752C633D25E1
:1005B000752C743D25752C70743D25752C6C3D256E
:1005C000752C73673D25753A25730A0000000008F5
:1005D000000201000003040700000000000000000A
:1005E000214D434F3A5741493A52433D25750A0040
:1005F000214D434F3A534E443A4E4F4445204E4FBF
:1006000054205245470A0000000000250028002B16
:100610000000000000240027002A00040404040451
:10062000040404020202020202030303030303019F
:100630000204081020408001020408102001020476
:1006400008102000F91C9A1E11241FBECFEFD8E01D
:10065000DEBFCDBF12E0A0E0B1E0E4EFF3E502C001
:1006600005900D92A635B107D9F724E0A6E5B2E0D2
:1006700001C01D92AA30B207E1F713E0C3E2D3E054
:1006800004C02197FE010E94A828C232D107C9F7F1
:100690000E94941D0C94ED290C940000EDE1F3E010
:1006A000A089B18982E08C93A485B5851C92A6852A
:1006B000B78580E18C93108EA489B58986E08C93F0
:1006C000A289B3898C9180618C93A289B3898C9122
:1006D00088608C93A289B3898C9180688C930288FE
:1006E000F389E02D80818F7D8083089590E0FC0167
:1006F000E15DF94F2491855E994FFC018491882337
:1007000099F090E0880F991FFC01EF5EF94FA591D9
:10071000B491FC01E95FF94F859194918FB7F894FA
:10072000EC91E22BEC938FBF0895942FE4ECF3E06F
:100730003091190331838283668325834481487F06
:10074000492B477E4483CF010895AF92BF92CF9249
:10075000DF92EF92FF920F931F93CF93DF936C0181
:100760007B018B01040F151FEB015E01AE18BF0862
:10077000C017D10759F06991D601ED91FC91019014
:10078000F081E02DC6010995892B79F7C501DF912C
:10079000CF911F910F91FF90EF90DF90CF90BF907E
:1007A000AF900895FC01538D448D252F30E0842FA8
:1007B00090E0821B930B541710F0CF960895019789
:1007C0000895FC01918D828D981761F0A28DAE0F76
:1007D000BF2FB11D5D968C91928D9F5F9F73928FFD
:1007E00090E008958FEF9FEF0895FC01918D828D29
:1007F000981731F0828DE80FF11D858D90E00895F6
:100800008FEF9FEF0895FC01918D228D892F90E04D
:10081000805C9F4F821B91098F73992708958DE10A
:1008200093E00E94030421E0892B09F420E0822F49
:100830000895FC01A48DA80FB92FB11DA35ABF4F75
:100840002C91848D90E001968F739927848FA689CF
:10085000B7892C93A089B1898C91837080648C9323
:10086000938D848D981306C00288F389E02D8081D2
:100870008F7D80830895EF92FF920F931F93CF9304
:10088000DF93EC0181E0888F9B8D8C8D98131AC0CB
:10089000E889F989808185FF15C09FB7F894EE89B2
:1008A000FF896083E889F98980818370806480830F
:1008B0009FBF81E090E0DF91CF911F910F91FF905A
:1008C000EF900895F62E0B8D10E00F5F1F4F0F7302
:1008D0001127E02E8C8D8E110CC00FB607FCFACFBD
:1008E000E889F989808185FFF5CFCE010E9419043E
:1008F000F1CFEB8DEC0FFD2FF11DE35AFF4FF0828E
:100900009FB7F8940B8FEA89FB8980818062CFCFF3
:100910000F931F93CF93DF938C01D0E0C0E0F801D9
:10092000EC0FFD1F6491662341F08DE193E00E947E
:100930003B04892B11F02196F2CFCE01DF91CF91AC
:100940001F910F910895CF93DF93EC01888D882339
:10095000B9F0AA89BB89E889F9898C9185FD03C022
:10096000808186FD0DC00FB607FCF7CF8C9185FF07
:10097000F2CF808185FFEDCFCE010E941904E9CF2F
:10098000DF91CF91089580E090E0892B29F00E94BB
:100990000F0481110C940000089590E0FC01E453D1
:1009A000FA4F2491FC01E15DF94F3491FC01E55EC1
:1009B000F94FE491EE23C9F0222339F0233001F1FD
:1009C000A8F4213019F1223029F1F0E0EE0FFF1FD9
:1009D000E95FF94FA591B4918FB7F894EC9161114B
:1009E00026C030953E233C938FBF08952730A9F051
:1009F0002830C9F0243049F7809180008F7D03C0F2
:100A0000809180008F7780938000DFCF84B58F77CF
:100A100084BDDBCF84B58F7DFBCF8091B0008F7715
:100A20008093B000D2CF8091B0008F7DF9CF3E2B64
:100A3000DACF20913D0190E4299F900111248E503E
:100A4000822B80937C0080917A00806480937A006E
:100A500080917A0086FDFCCF80917800909179009A
:100A600008953FB7F8948091DF029091E002A09141
:100A7000E102B091E20226B5A89B05C02F3F19F014
:100A80000196A11DB11D3FBFBA2FA92F982F88270E
:100A9000BC01CD01620F711D811D911D43E0660FE8
:100AA000771F881F991F4A95D1F708958F929F92BB
:100AB000AF92BF92CF92DF92EF92FF926B017C01D7
:100AC0000E9431054B015C01C114D104E104F10421
:100AD000B9F00E943105681979098A099B09683EB5
:100AE00073408105910580F321E0C21AD108E10825
:100AF000F10888EE880E83E0981EA11CB11CE4CF9B
:100B0000FF90EF90DF90CF90BF90AF909F908F902D
:100B100008952FB7F8946091DB027091DC02809108
:100B2000DD029091DE022FBF08950895209190027A
:100B3000260F3327331F21323105ECF42091B40204
:100B4000FC0190E080E0243069F082E00895A091FB
:100B500090022191AC0140595D4FA40FB52FB11DFA
:100B60002C930196861798F380919002680F6093FA
:100B7000900280E0089581E0089508958FEF9FEF3F
:100B800008958FEF9FEF08958091690290E091950D
:100B9000819591090895CF93DF93CB01EA01642FEA
:100BA0000E949605CE01DF91CF910895CF93DF93F8
:100BB0001F92CDB7DEB7698361E0CE0101960E9436
:100BC000960581E090E00F90DF91CF91089590E03D
:100BD00080E008950895FC01838187708860838395
:100BE00084818F71806284836783CF010895FC01C3
:100BF00083818695869586958A3108F089E10895E6
:100C0000E0915C02F0915D02309721F00280F38167
:100C1000E02D099408950F931F930E948905009178
:100C20005E0210915F022091600230916102601BB0
:100C3000710B820B930B1F910F9108959C01809172
:100C40005C0290915D0282179307F1F09091660229
:100C50009F719093660230935D0220935C02E09155
:100C60005C02F0915D02309721F00190F081E02D5F
:100C700009950E94890560935E0270935F028093DC
:100C8000600290936102089580916602805E809375
:100C90006602E5CF84E291E00C941E068EBD000052
:100CA0000DB407FEFDCF8EB508950F931F93CF931C
:100CB000DF93EC018C81829586958770A9F4CE0133
:100CC0000E94F705482F50E0BE01695F7F4F86EE16
:100CD00092E00E948229CE010E94F705E82FF0E001
:100CE000EA51FD4F108209C0813071F48F814AE0D2
:100CF00066EE72E090E00E94402086EE92E0DF9186
:100D0000CF911F910F910895823031F44AE066EE41
:100D100072E08F819885EFCF833041F44AE066EE30
:100D200072E08F8198850E949920E7CF843051F43A
:100D30006F81788589859A852AE046EE52E00E9487
:100D40004B20DBCF853051F46F81788589859A857A
:100D50002AE046EE52E00E947720CFCF10E08730A5
:100D600071F42B85293008F028E06F81788589851A
:100D70009A8506EE12E042E00E94B81EBECFCE0178
:100D80000E94F705181738F5E12FF0E09F01220FB8
:100D9000331FD901AA51BD4FEC0FFD1F8781082ECB
:100DA000000C990B44E0959587954A95E1F78F7073
:100DB0008A3068F4805D8C9329513D4F87818F7014
:100DC0008A3038F4805DF90180831F5FD8CF895C59
:100DD000F2CF895CF8CFE82FF0E0EE0FFF1F80CF55
:100DE000FC0101900020E9F73197AF01481B590B36
:100DF000BC018DE193E00C94A503CF93DF930E9497
:100E00008804EC0180E791E00E94F0068C0F9D1FA2
:100E1000DF91CF9108958F929F92AF92BF920F93DF
:100E20001F93CF93DF93CDB7DEB7A1970FB6F8949A
:100E3000DEBF0FBECDBF19A2423008F44AE08E01DA
:100E40000F5D1F4F842E912CB12CA12CA501940174
:100E50000E943A27E62FB901CA01EA30F4F4E05DB6
:100E6000D801EE938D01232B242B252B79F790E0CD
:100E700080E0109719F0CD010E94F006A1960FB600
:100E8000F894DEBF0FBECDBFDF91CF911F910F91C0
:100E9000BF90AF909F908F900895E95CE1CFCF9382
:100EA000C82F80EC94E00E9488046C2F70E090E0E2
:100EB00080E04AE00E940B078EEB94E0CF910C9407
:100EC00088040F931F93CF93DF93EC018B01E0E035
:100ED0006115710549F0FB0101900020E9F7319798
:100EE000E61BEA3108F0E9E18B81877098E0E99F21
:100EF000F0011124E82BEB838C818F718C83CE0160
:100F00000E94F705482F50E0B801CE0107960E94D5
:100F10008229CE010E94F7058C0F9D2F911DFC01A7
:100F20001782CE01DF91CF911F910F910895EF921B
:100F3000FF920F931F93CF93DF93EC017B018A0104
:100F400088819981009729F02A813B8124173507F0
:100F500088F4B8016F5F7F4F0E94B528009791F029
:100F6000998388831B830A832C813D81232B11F471
:100F7000FC0110821D830C83B701888199810E9436
:100F80007B290CC088819981009711F00E94721F03
:100F9000198218821D821C821B821A82CE01DF9167
:100FA000CF911F910F91FF90EF9008951F93CF93D2
:100FB000DF9385ED8093BC0080916C0290916D026F
:100FC000A0916E02B0916F020796A11DB11D23E0A2
:100FD000B695A795979587952A95D1F72091BC004E
:100FE00024FD03C01092B40252C040916C02509193
:100FF0006D0260916E0270916F02452B462B472B5C
:1010000069F30097A105B10541F02AE12A95F1F7AE
:1010100000C00197A109B109E1CF80916B02C1E045
:10102000C0936A02882399F1D091B8001091BA0058
:101030008091BC008A7B8093BC0060E082E10E94CA
:10104000CD0460E083E10E94CD041092B402C0930D
:10105000B6021092B50261E082E10E94CD0461E027
:1010600083E10E94CD048091B9008E7F8093B90006
:101070008091B9008D7F8093B90080E28093B800A1
:1010800085E48093BC001093BA00D093B800DF9140
:10109000CF911F910895FC012481229526952770F8
:1010A000213011F487810895211104C007960E9410
:1010B000FB1F089580E008958F929F92AF92BF9298
:1010C000CF92DF92EF92FF920F931F93CF93DF9314
:1010D000CDB7DEB72C970FB6F894DEBF0FBECDBFED
:1010E000FC01348134FD21C02581223039F02033C8
:1010F00079F13EEF320F3230C0F4E4C036813A3F2E
:1011000009F064C1109103010E944B0861E0811154
:1011100001C060E0161749F06093030181E08093FD
:10112000040187E992E00E94C7262C960FB6F89436
:10113000DEBF0FBECDBFDF91CF911F910F91FF900A
:10114000EF90DF90CF90BF90AF909F908F900895D9
:101150002681293F51F7329536953770BC01695F7A
:101160007F4F332311F070E060E018861F821A86EB
:1011700019861C861B866115710561F0FB010190C3
:101180000020E9F73197AF01461B570BCE010796B8
:101190000E949707F12CE12C10E000E030E020E005
:1011A0008F8198854B855C852417350708F06CC0C6
:1011B000F6E0EF16F10408F067C0A9014F5F5F4F3A
:1011C0005A01009709F469C0820F931FFC018081C6
:1011D0008B3309F05FC069012017310710F06801F7
:1011E00089011A8219821C821B821E821D8250E094
:1011F00040E062E771E0CE0101960E9497078B8480
:101200009C84C814D90418F50815190508F4480178
:10121000EF81F885E80DF91D108110826F817885C6
:101220006C0D7D1D61157105D1F1FB010190002050
:10123000E9F73197AF01461B570BCE0101960E948B
:1012400097078F819885880E991EF4011083098174
:101250001A8160E070E0CB010115110519F0C80199
:101260000E941920F701EE0FFF1FED5FFE4F7487FC
:1012700063870115110519F0C8010E94721F8501CD
:10128000FFEFEF1AFF0A09C0009709F44ECF0E9442
:10129000721F4BCF8C3709F49ECF950181CF898186
:1012A0009A81009711F00E94721F1A8219821E8281
:1012B0001D821C821B82C5CFF701478101E04317C5
:1012C00009F48DC00091C0031091C103FC01368167
:1012D000F80143813417B1F14485341326CF31E04E
:1012E000E32EF12C233099F10E944B0899E09E9D4A
:1012F000F0019F9DF00D1124E00FF11F8583978170
:10130000891709F412CF8823F9F080859185181682
:10131000190614F084E690E029E02E9DF0012F9D3F
:10132000F00D1124E00FF11F9187808789E08E9DD9
:10133000F0018F9DF00D1124E00FF11F81E08683F5
:10134000F80160C030E0CCCF90E080E0E5CFDFB6C0
:10135000F894FC0124812295269527702230C1F44F
:101360008781908585369105E4F497FF02C090E06F
:1013700080E029E02E9DF0012F9DF00D1124E00F5B
:10138000F11F208531852817390771F4DFBECDCED6
:10139000211104C007960E94FB1FE4CF90E080E07B
:1013A000E4CF84E690E0E5CF21E0181619060CF0B2
:1013B00020E0258329E02E9DF0012F9DF00D1124C2
:1013C000E00FF11F91878087DFBEB0CFE090C203AE
:1013D000F090C303F701438134136ECF00E010E0B7
:1013E000000F111F000F111F0E0D1F1DF801D580DA
:1013F0000E944B08D81609F498CEF801858381E045
:101400008683F701808391CECF93DF93FC01108216
:1014100011821282148215821682DC0117968AE1EB
:10142000ED0119928A95E9F782E08383DF91CF91EC
:101430000895BF92CF92DF92EF92FF920F931F9386
:10144000CF93DF937B01042FB22E90E59CBD1DBC92
:101450002A98E0E1F0E03197F1F70E944E06182F4C
:10146000E7010150A8F0BB2051F08FEF0E944E061B
:10147000182FE114F104A9F388832196F2CF6E01AD
:101480008FEFC81AD80A88810E944E06E601E9CF7C
:101490002A9A80E190E00197F1F7812FDF91CF91B7
:1014A0001F910F91FF90EF90DF90CF90BF90089524
:1014B000CF93DF931F92CDB7DEB7698320E041E081
:1014C000BE016F5F7F4F0E94190A0F90DF91CF918D
:1014D00008956FE080E20E94580A60911F016F3FFB
:1014E00019F08AE20E94580A299A089521E041E001
:1014F00070E060E00C94190A86E00E94760A85325A
:1015000031F485E00E94760A91E08C3409F090E095
:10151000892F089520E040E070E060E00C94190A03
:10152000EF92FF920F931F93CF93DF93CDB7DEB768
:10153000C857D1090FB6F894DEBF0FBECDBF8E01DC
:101540000F571F4FF801E190F1908F010E9489051C
:101550004AE00E940B0783E791E00E94F0069801A1
:10156000A70168E770E0CE0101960E94B320CE018A
:1015700001960E94F0068DE193E00E94A304C858F2
:10158000DF4F0FB6F894DEBF0FBECDBFDF91CF9116
:101590001F910F91FF90EF9008959F92AF92BF928D
:1015A000CF92DF92EF92FF920F931F93CF93DF932F
:1015B000F82EEB018091190388838B8100E282FD74
:1015C00005C0CB010E94F70507E0080F80911C03BE
:1015D00011E080FD03C08FEFF81210E0209709F4AE
:1015E000BBC0299880E091E00197F1F76EE080E2BE
:1015F0000E94580A84EC90E00197F1F76F2D8AE27F
:101600000E94580A6F2D80E30E94580A81EE0E94C2
:101610008A0A112321F060E584E20E94580A20E042
:10162000402FBE0180EA0E94190A299AD12CC12CB0
:101630008FEF0E948A0A807349F49FEFC916D9067A
:1016400029F0A8958FEFC81AD80AF2CF299860E739
:1016500087E20E94580A082F84FF03C081EE0E948F
:101660008A0A112321F06FE584E20E94580A0E9441
:10167000690A05FD73C0012F8C818770833039F4AE
:101680008D8125E7A22E21E0B22E813121F0CE01FD
:101690000E9455065C0190E8C92E91E0D92E0023E6
:1016A00021F08DE7C82E81E0D82E809167028F70DF
:1016B000982EEB80E2FAEE24E0F8CE010E94F705C6
:1016C0009C81F92FF295F695F770ED8197707E81E8
:1016D0006A815881498125E831E0111106C027E867
:1016E00031E0002311F022E731E0BF92AF92DF92A8
:1016F000CF921F929F921F92EF921F928F931F92F1
:10170000FF931F92EF931F929F931F927F931F92BD
:101710006F931F92FF921F925F931F924F933F937D
:101720002F9381E193E09F938F930E94900A8DB74E
:101730009EB74E960FB6F8949EBF0FBE8DBF802FFA
:10174000DF91CF911F910F91FF90EF90DF90CF909D
:10175000BF90AF909F90089500E08ECF01E08CCFB6
:101760000F931F93CF93DF938C01FC0182819091A3
:10177000660290FF12C08F3F09F443C08DEE92E0E5
:101780009F938F930E94900A0F900F90C0E08C2F30
:10179000DF91CF911F910F910895D0911A03882363
:1017A000D9F08F3F71F1B8010E94CD0AC82F88236C
:1017B00049F08DED92E09F938F930E94900A0F90D5
:1017C0000F90E5CF8AEC92E09F938F930E94900A4E
:1017D000D0911A030F900F90B8018D2F0E94CD0A5F
:1017E000C82F80911A038D13D2CF80916702C11147
:1017F0000AC091E0980F9F70807F892B80936702C9
:10180000C6CFDFEFE9CF807F80936702C1E0BFCF13
:101810002091660222FD0C94B00B83E093E09F932D
:101820008F930E94900A0F900F9080E008951F936D
:10183000CF93DF93182F262FEA0150E040E0682F66
:1018400080E00E9495031F3F11F4C9E8D1E0BE017A
:101850000E946107DF91CF911F910C94080CFC014D
:101860008091190381839481907F99609483809102
:10187000E50280FF03C0CF010C94080C80EF95E0D7
:101880009F938F930E94900A0F900F9080E008958D
:10189000FF920F931F93CF93DF93CDB7DEB7A1973E
:1018A0000FB6F894DEBF0FBECDBFF82E8B01CE0170
:1018B00001960E94040AFF8282E08E83F801608113
:1018C000CE0101960E94EB050E942F0CA1960FB647
:1018D000F894DEBF0FBECDBFDF91CF911F910F9166
:1018E000FF900895EF92FF920F931F93CF93DF9392
:1018F0001F92CDB7DEB78C017B01DB018C91E82F05
:10190000F0E0DF01AA0FBB1FAA0FBB1FA00FB11F82
:101910003196EE0FFF1FEE0FFF1FE00FF11F159620
:101920006C9180810E94CD04D701EC91B4E0EB9FD3
:10193000F0011124E00FF11F838190E0658183564F
:101940009E4F0E94C726F7018081F4E08F9FC0015F
:101950001124F801E80FF91F21E03581311101C090
:1019600020E02983080F191FBE016F5F7F4FD80148
:1019700013968C910E94480C0F90DF91CF911F918C
:101980000F91FF90EF900895FF920F931F93CF93C5
:10199000DF93CDB7DEB7A1970FB6F894DEBF0FBEC9
:1019A000CDBFF82E8B01CE0101960E94040AFF8262
:1019B00083E08E83F801208131818C818770806182
:1019C0008C838D818F7180648D8339872887CE01C8
:1019D00001960E942F0CA1960FB6F894DEBF0FBEA1
:1019E000CDBFDF91CF911F910F91FF9008952F925E
:1019F0003F924F925F926F927F928F929F92AF929F
:101A0000BF92CF92DF92EF92FF920F931F93CF93EB
:101A1000DF9300D000D0CDB7DEB7809134018F3F87
:101A200009F464C087E1A82EB12C93E0E92EF12CD3
:101A300022E0C22ED12C30E3232E312C44E0442E60
:101A4000512C56E0652E712CE0913401E83008F0FD
:101A500038C1E150E73008F02BC1F0E0EE5CF24F06
:101A60000C94A828410D8D0D9D0DD40D080E3B0D35
:101A70003B0D992041F0809134018F5F80933401B8
:101A8000E3CF09EE13E064E670E080E090E00E94AE
:101A90005F112BE043E050E06FEF80E00E94950380
:101AA0006FE871E00E9461070E94080C982E2CE0FC
:101AB00043E050E06FEF80E00E94950364EA71E03C
:101AC0000E9461070E94080C98220150110989F6B2
:101AD0008BE793E00E9488048FE891E00E94F00673
:101AE00089E793E00E9488049110C5CF0F900F9072
:101AF0000F900F90DF91CF911F910F91FF90EF907A
:101B0000DF90CF90BF90AF909F908F907F906F901D
:101B10005F904F903F902F9008957A8269828DEF69
:101B20008B8348EA51E0BE016F5F7F4FCE01039681
:101B30000E94D51181119FCFD9CF0091C20310917E
:101B4000C303FA82E982480193E0890E911C41EBBC
:101B500051E0BE016F5F7F4FC4010E94D511882301
:101B600029F2DA82C982BE016F5F7F4FC4010E94F1
:101B70009E11882309F4BACFFA82E982095F1F4FC8
:101B800041EB51E0BE016F5F7F4FC8010E94D5114C
:101B9000882309F4ABCFDA82C982BE016F5F7F4F21
:101BA000C8010E949E11C6CF8090C0039090C103CF
:101BB00084010D5F1F4F85E1880E911C5A82498276
:101BC0004EEB51E0BE016F5F7F4FC8010E94D511FF
:101BD000882309F48BCFDA82C982BE016F5F7F4F01
:101BE000C8010E949E11882309F480CFFA82E982FD
:101BF000BE016F5F7F4FC8010E949E11882309F4C8
:101C000075CF075F1F4F8016910609F434CFD6CFEA
:101C10009AEF9C838BEF8B8380E190E09A8389839A
:101C200050E040E0BE016F5F7F4FCE0103960E94FF
:101C3000D511882309F45ACFBA82A982BE016F5FF9
:101C40007F4FCE0103960E949E11882309F44ECF48
:101C5000FA82E98242ED51E0BE016F5F7F4FCE0113
:101C600004960E94D511882309F440CFDA82C982F4
:101C7000BE016F5F7F4FCE0104960E949E118823A4
:101C800009F434CFBA82A9824CEC51E0BE016F5FF7
:101C90007F4FCE0104960E94D511882309F426CFE8
:101CA0003A822982BE016F5F7F4FCE01049679CFC1
:101CB00083E993E00E94FD068DE193E00E94A30476
:101CC00015CF8FEF8093340111CF2FE043E050E028
:101CD0006FEF80E00E94950362E771E00E94610768
:101CE000E4ECF3E0838187708061838384818F716A
:101CF000806C848381E087831086CF010E94080C6A
:101D00008FE00E94121142E751E061E170E08FEF35
:101D10000E94170C26E043E050E06FEF80E00E9445
:101D2000950360911A030E94EB050E94080C86E05F
:101D30000E9412110C94F70C2F923F924F925F92D7
:101D40007F928F929F92AF92BF92CF92DF92EF924B
:101D5000FF920F931F93CF93DF93CDB7DEB7A19779
:101D60000FB6F894DEBF0FBECDBF86E0E82E22246A
:101D70002A9492E0392E93E0492E532C2BE4822EA4
:101D800025E0922E87E10E94760A80FD10C2EA9437
:101D9000EE2009F40CC221E041E070E060E080E652
:101DA0000E94190A182F813220F082EE0E948A0ABE
:101DB00010E021E0412F65EE73E081E60E94190AF0
:101DC00060E487E20E94580A81E2E5EEF3E0DE017A
:101DD000119601900D928A95E1F70C81802F837006
:101DE000823081F6CE0101960E94F70502FD89E15D
:101DF000895F1813C7CF85EE93E00E94F705782E10
:101E00000091E90307701091EA03F090E603D09087
:101E1000E503C090E703033021F485E791E0113139
:101E200021F085EE93E00E945506A72CB12C9F93DC
:101E30008F938091E80382FB882780F91F928F930C
:101E40001F927F928091E9038295869587701F92F9
:101E50008F931F921F931F920F938091EB031F92FA
:101E60008F931F92CF921F92DF921F92FF9222E9CF
:101E700035E03F932F930E94900A8091670280681B
:101E8000809367020FB6F894DEBF0FBECDBF80917E
:101E90001903C8124BC1F501EB51FC4F1782809119
:101EA000E90383FF21C080E895E09F938F930E9410
:101EB000900A81E2E5EEF3E0A4ECB3E001900D922C
:101EC0008A95E1F78091C803877E80618093C8037B
:101ED000809119038093C503F092C60384EC93E0CC
:101EE0000E94080C0F900F909091E90394FD15C18A
:101EF000033009F00AC18091EA0321EF280F233053
:101F000008F440CF143009F43DCF183109F585EEBF
:101F100093E00E944B081F928F931F92FF9284E6DA
:101F200095E09F938F930E94900A29E143E050E04F
:101F30006FEF8F2D0E94950361E00E94EB050E94D8
:101F4000B00B0F900F900F900F900F900F901ACF33
:101F50001931F9F48091660283FF14C0877F809362
:101F6000660285EE93E00E944B08809368021F9200
:101F70008F939F928F920E94900A0F900F900F90D4
:101F80000F9000CF8EE295E09F938F930E94900A6E
:101F90000BC11E3109F4F6CE1D31C1F42FE143E02F
:101FA00050E06FEF80E00E949503FC018381877011
:101FB0008061838384818F718064848380E09FEF5C
:101FC00090878783CF010E94B00BDCCE2091E6037F
:101FD0002111A0C08D3059F488E198E00FB6F89433
:101FE000A895809360000FBE90936000FFCF8B3167
:101FF000A9F485EE93E00E944B0891E0811101C0A5
:1020000090E08091E50290FB80F98093E5021F92B9
:102010009F9328ED34E03F932F93ADCF863099F412
:102020009091EC0381E0992319F09D3409F080E050
:102030008093E40241E050E063E071E084EE92E0DE
:102040000E94B7269FCE833119F40E94650E9ACE66
:102050008231E1F40E940B065B016C0126E143E052
:1020600050E06FEF80E00E949503FC018381877050
:102070008062838384818F71806A8483A782B08623
:10208000C186D286CF010E94080C7CCE8230A9F492
:1020900022E043E050E06FEF80E00E949503FC01F6
:1020A000838187708062838384818F71806A848357
:1020B0002782308641865286E5CF813001F520E0C7
:1020C00030E0232B09F45ECE92959695977095306B
:1020D00059F46091EC037091ED038091EE039091BF
:1020E000EF030E9400004ECE911105C08CEE93E0EC
:1020F0000E941920F6CF60E070E0CB01F2CF8A3069
:1021000009F440CE8C3109F43DCE85EE93E00E9477
:102110005C0838CE8A31C9F735CE80E295E09F93CE
:102120008F930E94900A0F900F90EFCF3FEF8DEEAC
:1021300094E0C31229CF84E195E09F938F930E948E
:10214000900A0F900F90033009F58091660282FF8C
:1021500003C0173009F416CE143109F013CE809164
:102160001A03D8120FCE0E94890573708827992709
:102170000E94560525E143E050E06FEF8F2D0E944D
:10218000950360911A030E94EB051DCF80911A03FD
:10219000D812F8CD84E095E09F938F930E94900A27
:1021A00085EE93E00E945C080F900F90EBCDA19616
:1021B0000FB6F894DEBF0FBECDBFDF91CF911F9158
:1021C0000F91FF90EF90DF90CF90BF90AF909F90D6
:1021D0008F907F905F904F903F902F9008958091C7
:1021E0005702882361F01F928F9389E693E09F93B3
:1021F0008F930E94900A0F900F900F900F908091F4
:1022000057028F5F80935702A8950E940006809125
:10221000660284FD0E949C0E80915702815080933B
:1022200057020895CF92DF92EF92FF92CF93DF9300
:10223000D82F8091E302882361F01F928F9380EE64
:1022400095E09F938F930E94900A0F900F900F90AC
:102250000F908091E3028F5F8093E3020E948905D3
:102260006B017C018091E90387608093E903C0E002
:102270000E9489056C197D098E099F09603D774090
:102280008105910578F4C1110DC00E94EF10809175
:10229000E9038770833061F7C1E08091EA038D1311
:1022A000E6CFE6CF8091E30281508093E3028C2F4A
:1022B000DF91CF91FF90EF90DF90CF9008958F92B4
:1022C0009F92AF92BF92CF92DF92EF92FF924B011B
:1022D0005C018091E302882361F01F928F9387EA6B
:1022E00093E09F938F930E94900A0F900F900F900E
:1022F0000F908091E3028F5F8093E3020E94890533
:102300006B017C010E9489056C197D098E099F096A
:10231000681579058A059B0518F40E94EF10F2CF25
:102320008091E30281508093E302FF90EF90DF9071
:10233000CF90BF90AF909F908F900895CF92DF92F3
:10234000EF92FF920F931F93CF93DF937C016B016A
:10235000C9EED3E0F6010081F701108164E670E078
:1023600080E090E00E945F11202F42E050E0612F5A
:1023700080E00E94950362E771E00E9461070E947D
:10238000080C182F219729F4F70180810E944F072C
:1023900002C01123F9F2812FDF91CF911F910F918C
:1023A000FF90EF90DF90CF9008958F929F92AF9221
:1023B000BF92CF92DF92EF92FF920F931F93CF9332
:1023C0007C015B016A0109EE13E0F50180809180D8
:1023D000F701C08164E670E080E090E00E945F1148
:1023E000A601C114D10411F442E751E0B4018C2FCD
:1023F0000E94170CC82F0150110929F4F7018081A0
:102400000E944F0702C0CC2301F38C2FCF911F9164
:102410000F91FF90EF90DF90CF90BF90AF909F9083
:102420008F9008957F928F929F92AF92BF92CF929A
:10243000DF92EF92FF920F931F93CF93DF938C0164
:102440007B01FB018081F80199E0899FE00DF11D7E
:1024500011248085918522853385821B930B97FDFE
:1024600047C081E099E0A92EC82E880FDD08F7014A
:102470008081F801A89EE00DF11D112482859385CD
:10248000208531858217930709F476C08C0D9D1D38
:1024900093878287F70180814801A89E800C911C58
:1024A0001124F40162857385072E000C880B990BAB
:1024B0000E94A62520E030E048EC52E40E94D82794
:1024C00020E030E04FE753E40E94E1250E944A28D3
:1024D000B62E772EC62FD72FF4019480892D0E9417
:1024E0007603209739F460E0892D0E94CD0430C036
:1024F0008FEFB8CFCF3FD10511F461E0F5CFE92DD3
:10250000F0E0E453FA4FE491E33009F448C040F4BA
:10251000E130D1F0E230F1F1C038D10574F7E3CF0A
:10252000E73009F448C0E83009F44DC0E430A1F7C1
:10253000809180008062809380008B2D972D9093F6
:102540008B0080938A0004C084B5806884BDB7BCCA
:102550006AE070E080E090E00E945F11F701808106
:10256000F801A89EE00DF11D112482859385019745
:102570008336910508F47BCFDF91CF911F910F91A6
:10258000FF90EF90DF90CF90BF90AF909F908F9093
:102590007F90089584B5806284BDB8BCD9CF809106
:1025A00080008068809380008B2D972D9093890008
:1025B00080938800CDCF8091B00080688093B00078
:1025C000B092B300C5CF8091B00080628093B0001C
:1025D000B092B400BDCFDF92EF92FF920F931F93A2
:1025E000CF93DF931F92CDB7DEB78C017B010E94A2
:1025F0001212F701808199E0D92EF801D89EE00DE2
:10260000F11D1124838190E0658183569E4F0E94C5
:10261000C726F7018081282F30E0F801D89EE00D11
:10262000F11D112481E09581911101C080E0898321
:1026300089E0D82ED29EF001D39EF00D1124E00F38
:10264000F11FBE016F5F7F4F83810E94480CF7012D
:1026500080818D9DC0011124BC01685F7F4F600F98
:10266000711F080F191FF80183810E94C40C0F907D
:10267000DF91CF911F910F91FF90EF90DF90089520
:102680002F923F924F925F926F927F928F929F9282
:10269000AF92BF92CF92DF92FF920F931F93CF938F
:1026A000DF93CDB7DEB7A1970FB6F894DEBF0FBEAC
:1026B000CDBF809134018F3FE1F10E94F70C8091F2
:1026C00034018F3FC1F00CE310E00150110959F0C3
:1026D00084EC93E00E94880464EF71E080E090E075
:1026E0000E945F11F2CF87EB93E00E94FD068DE11F
:1026F00093E00E94A30468EE73E080E090E00E9403
:102700005F11A1960FB6F894DEBF0FBECDBFDF916B
:10271000CF911F910F91FF90DF90CF90BF90AF901E
:102720009F908F907F906F905F904F903F902F90F1
:1027300008958091660282FF48C38091580290916B
:1027400059026CE370E00E948028892B29F0809167
:102750000501882309F45EC08FE00E9419052091CD
:102760000801309109012817390714F4821B930BD3
:1027700020910601309107012817390791F097FD44
:1027800010C0909307018093060120910E013091B3
:102790000F012817390708F492C010920B0110920C
:1027A0000A0180910A0190910B0120910C01309156
:1027B0000D012817390749F190930D0180930C0101
:1027C000A0910601B091070124E630E00E94AE28F6
:1027D00024E833E040E050E00E94D9264901CE01D0
:1027E00001960E94040A8BEF8F8387E18E838C8190
:1027F000877080618C838D818F7180668D839986CF
:102800008886CE0101960E942F0C809105018111CE
:102810001092050180910401882339F0109204017F
:1028200063E071E08AEF0E94480C0091C0031091B0
:10283000C103809158029091590261E470E00E94B6
:102840008028892B09F0DEC0198299E0F92E24E650
:10285000222E312C412C512C39E1A32EB12C44E6EF
:10286000842E912C55E5652E712C8981823008F0DB
:10287000C9C0C82ED12CF801F89EE00DF11D11241D
:1028800085818823C1F0D80111962D913C91D90101
:102890008C91882381F017968D919C9183309105BE
:1028A00009F48FC008F044C08130910509F4A1C03B
:1028B000029709F493C089818F5F8983D6CF2091D5
:1028C0001001309111012817390738F081E090E0AC
:1028D00090930B0180930A0164CF209112013091F3
:1028E00013012817390718F082E090E0F1CF20910A
:1028F0001401309115012817390718F083E090E092
:10290000E7CF20911601309117012817390718F0E9
:1029100084E090E0DDCF2091180130911901281753
:10292000390718F085E090E0D3CF86E090E0D0CF73
:1029300085309105A1F0C0F1069709F0BCCFA085C4
:10294000B185AA31B105F4F4B186A086FC9CF001F2
:10295000FD9CF00D1124E00FF11F858103C011864D
:10296000108680E0FC9CF001FD9CF00D1124E00F2E
:10297000F11F85838783BE016F5F7F4FC8010E946F
:10298000EB1299CF29E130E00E94AE28A20191011B
:102990000E94D926FC9CF001FD9CF00D1124E00F53
:1029A000F11F31872087D2CFA085B185AE32B10526
:1029B0002CF48DE290E091878087C8CF2DE230E043
:1029C000E3CFA085B185A234B1052CF4A1E4B0E039
:1029D000B187A087BBCF21E430E0D6CFA085B185F9
:1029E000A635B1051CF471866086B0CF25E530E0D0
:1029F000CBCF808591858436910509F45CCF918693
:102A00008086A4CFF8018081882309F458C0108201
:102A1000198289E0F82EDD24D3948981823008F070
:102A20004EC0F801F89EE00DF11D11248681882327
:102A3000C1F0858197818917C1F08783BE016F5FDF
:102A40007F4FC8010E94EB128981F801F89EE00DCA
:102A5000F11D1124168262E370E080E090E00E9494
:102A60005F1189818F5F8983D8CF811108C08085EC
:102A700091851816190664F4D582D782DFCF81308C
:102A800039F480859185892B19F415821782D6CF68
:102A9000BE016F5F7F4FC8010E94121289818F9D16
:102AA000C0011124BC01685F7F4F600F711F800F50
:102AB000911FDC0113968C910E94C40CC5CF00912C
:102AC000C2031091C303809158029091590266E4A9
:102AD00070E00E948028892B41F51982E981E2305B
:102AE00020F5B4E0EB9FF00111249F01200F311F6E
:102AF000F90185818823A9F0F801A181B2818C9127
:102B0000882379F017968D919C910497039748F448
:102B1000D90115961C92BE016F5F7F4FC8010E94BC
:102B2000720C89818F5F8983D9CFF80180818823D6
:102B3000C9F010821982E981E230A0F424E0E29F1A
:102B4000F0011124E00FF11F8681882339F01682ED
:102B5000BE016F5F7F4FC8010E94720C89818F5F39
:102B60008983E9CF0091BE031091BF038091580281
:102B70009091590267EB70E00E948028892B29F020
:102B8000D8018C91882309F453C088EC80937C0091
:102B900080917A00806880937A0064E170E080E040
:102BA00090E00E94560580917A00806480937A00BC
:102BB00080917A0086FDFCCF609178007091790059
:102BC00090E080E00E94A4252EEA37E242EA53E436
:102BD0000E946B2726EF38E24CE95FE30E94D8277A
:102BE0000E944A28613801F1F80181818617E1F0DD
:102BF0006183CE0101960E94040A8DEF8F831E82AD
:102C0000D80111962C91022E000C330B8C81877009
:102C100080618C838D818F7180648D833987288753
:102C2000CE0101960E942F0CF80180818111108243
:102C3000C090BC03D090BD0380915802909159027E
:102C400065EB70E00E948028892B21F0D6018C91E1
:102C5000882339F18EE00E9419056AE070E00E9435
:102C600094288B016536710514F004E610E017FF17
:102C700002C010E000E0F60181818017110669F0C2
:102C8000018320E043E050E06FEF80E00E94950375
:102C9000602F0E94EB050E94080CD6018C918111D7
:102CA0001C920091BA031091BB038091580290913D
:102CB000590266EB70E00E948028892B29F0F80108
:102CC0008081882309F46EC088E00E94760A8F70A4
:102CD00023EE3FEFF8E08F9F201931091124032ED6
:102CE000000C440B550B2B5A3F4F4F4F5F4FA4E640
:102CF000B0E00E94F8262DE230E040E050E00E9473
:102D0000D9262536310514F024E630E037FF02C01D
:102D100030E020E0D80111968D919C9112972817F0
:102D20003907E1F112963C932E931197FFB6F89470
:102D300082E190E00E94D61E6C014296F60111924B
:102D40008E179F07E1F7F80182818F9381818F931E
:102D50008EED91E09F938F931F9281E18F93DF928D
:102D6000CF920E949129CE0101960E94040A8EEF13
:102D70008F838CE18E83B601CE0101960E9461079C
:102D80000E942F0C0FB6F894DEBF0FBECDBFC1144A
:102D9000D10419F0C6010E94721FFFBED8018C91A8
:102DA00081111C92809158029091590201968036AF
:102DB000BAEE9B0728F490935902809358029BCC5B
:102DC000109259021092580296CC60E177E280E0AE
:102DD00090E00E945F118FCCCF938091E50281FD3E
:102DE00028C00E94650E8CE593E09F938F930E940C
:102DF000900A8091E50281608093E5020F900F9028
:102E0000C4E02AE143E050E06FEF80E00E949503C8
:102E100062E00E94EB050E94080C8BE10E941211F7
:102E2000811102C0C15069F78091E50282608093F0
:102E3000E502CF9108950F931F930E940B062091F6
:102E4000670220772037B9F000E117E220E030E098
:102E5000061717072807390798F488EB92E09F9325
:102E60008F930E94900A0F900F9085E391E01F913D
:102E70000F910C941E0600E61AEE20E030E0E8CF39
:102E80001F910F91089580916702982F9077903746
:102E900059F0982F92959F709F5F97709295907FB1
:102EA0008F78892B80936702809167028295877063
:102EB0001F928F9387EA92E09F938F930E94900ACC
:102EC000809166028B7F8F7E8093660289E992E013
:102ED0009F938F930E94900A8CE892E09F938F9328
:102EE0000E94900A29988DB79EB708960FB6F8945D
:102EF0009EBF0FBE8DBF6CE080E20C94580A80919B
:102F000067028F70863068F081E792E09F938F931D
:102F10000E94900A80916702807F809367020F90E1
:102F20000F90089580911B031F928F9380911A0335
:102F30001F928F93809119031F928F9382E592E0E5
:102F40009F938F930E94900A809166028460809381
:102F5000660280916702807880936702E0915A024E
:102F6000F0915B028DB79EB708960FB6F8949EBF9E
:102F70000FBE8DBF309709F00994089580916802C3
:102F80008F3F81F10E948905609362027093630212
:102F9000809364029093650286E492E09F938F93FE
:102FA0000E94900A9091680280911B030F900F90ED
:102FB0009817A1F01F929F931F928F938EE292E039
:102FC0009F938F930E94900A8091680280931B03C5
:102FD0000F900F900F900F900F900F9080E391E063
:102FE0000C941E060E940B06613D774081059105F9
:102FF000B8F080916602803618F48CE291E0F0CF50
:103000008FE192E09F938F930E94900A80916602D5
:10301000877F809366020F900F9088E291E0E0CF67
:10302000089586E192E09F938F930E94900A8FEF1C
:1030300080936802E6E6F2E080818860808328E180
:1030400043E050E06FEF80E00E94950361E00E9452
:10305000EB050F900F900C94B00B809119038F3FEC
:1030600061F08BE092E09F938F930E94900A0F9003
:103070000F908CE291E00C941E060E940B06613DBD
:1030800077408105910590F080916602803618F4B2
:1030900084E291E0F0CF8DEF91E09F938F930E94B7
:1030A000900A0F900F9080E291E0E5CF089585EFB0
:1030B00091E09F938F930E94900A0F900F908091C0
:1030C00019038F3FA9F489EE91E09F938F930E949B
:1030D000900A23E043E050E06FEF80E00E94950308
:1030E00062E771E00E9461070F900F900C94B00BA3
:1030F0000895CF93DF938FED91E09F938F930E947C
:10310000900AC6E6D2E088818B7F8D7F88831F92EC
:103110001F928CEC91E09F938F930E94900A88817C
:103120008E7F8883E9E1F3E081E0828311820F9052
:103130000F900F900F900F900F9060E081E090E063
:10314000DF91CF910C94C726CF93219A229A299888
:103150002A9ACFB7F89480915602811124C0E5E2F3
:10316000F6E08491E9E3F6E09491E82FF0E0EE0FC9
:10317000FF1FEF5EF94FA591B491EC91E92321F483
:1031800061E08AE00E94CD048AE00E9476038CB55B
:1031900080618CBD8CB580648CBD8DE00E9476030F
:1031A0008BE00E947603809156028F5F80935602D7
:1031B000CFBF29986EE080E20E94580A84E293E231
:1031C0000197F1F763E083E20E94580A6FE584E219
:1031D0000E94580A6CE485E20E94580A65E286E281
:1031E0000E94580A64E08DE30E94580A8DE10E9413
:1031F000760A843041F063E780E50E94580A64E073
:103200008DE30E94580A0E947C0A81110DC08CE651
:1032100091E09F938F930E94900A0F900F9080E20D
:1032200091E0CF910C941E0662E082E20E94580A5F
:1032300060E081E20E94580A63E08CE30E94580A31
:103240008FEF80931A0120E045E06AE171E08BE2A4
:103250000E94190A20E045E06AE171E08AE20E94DA
:10326000190A20E045E06AE171E080E30E94190A52
:1032700082EE0E948A0A81EE0E948A0A60E787E253
:103280000E94580A8BEB91E09F938F930E94900AC3
:103290008091660280618093660280911C038E7F1C
:1032A00080931C031F92C6E1CF9387EA91E09F931E
:1032B0008F930E94900AC093190366E190E080E02A
:1032C0000E94C726C09119030F900F900F900F9086
:1032D0000F900F90CF3F09F18FEF8C0F8E3F00F5CD
:1032E000C0931F0163E082E20E94580A61E081E21C
:1032F0000E94580A0E94690A6C2F90E080E00E94A8
:10330000C7261F92CF9380E891E09F938F930E94EE
:10331000900A0F900F900F900F9088E291E081CF6C
:103320001F921F9282E991E09F938F930E94900ACF
:103330000F900F900F900F9072CF82E691E09F93C5
:103340008F930E94900AE6E6F2E08081877F8F7E6D
:1033500080831092620210926302109264021092B3
:1033600065020F900F9044E050E070E060E089E16A
:1033700093E00C949F26EF92FF920F931F93CF93AD
:10338000DF93CDB7DEB780E091E00E94D61E8C01BE
:103390009395F80111928E179F07E1F79E01255F23
:1033A0003F4F49855A856FEF70E0C8010E94C129DF
:1033B0007801F70161917F01662329F08DE193E0A7
:1033C0000E943B04F6CF0115110519F0C8010E94B7
:1033D000721FDF91CF911F910F91FF90EF90089591
:1033E000DF92EF92FF920F931F93CF93DF93CDB7AE
:1033F000DEB7C555D1090FB6F894DEBF0FBECDBFFD
:103400000E944E0325E5E1E0F2E0CE010196DC01E9
:1034100001900D922A95E1F71F921F921F9222E0D0
:103420002F931F922F9324EA31E03F932F932FE89D
:1034300031E03F932F9326EE31E03F932F932CEE14
:1034400031E03F932F9325EF31E03F932F939F93EC
:103450008F930E94BB198DE193E00E94A304909189
:10346000C0038091C103DFB6F894092F182F7801AB
:1034700022E1E20EF11C0FB6F894DEBF0FBECDBF05
:10348000F801838190E083569E4F0E94AF26F80199
:103490008583178291E0811101C090E0F801968345
:1034A000811168C090E080E0F801918780871386E1
:1034B000128684810E947603F801848185508230CF
:1034C00020F485B5887F826085BD075F1F4FE016B9
:1034D000F106B1F6DFBE0091C2031091C303FFB63F
:1034E000F894F801838190E083569E4F0E94AF26A6
:1034F000F801858391E0811101C090E0F801968385
:1035000084810E947603F801878190E083569E4F64
:103510000E94AF26F801818791E0811101C090E0FF
:10352000F801928780850E947603FFBE83E0809336
:103530003D018FE00E941905F12CE12C10E000E024
:103540000E9489056838734181059105B0F464E6ED
:1035500070E080E090E00E945F118FE00E9419050A
:10356000081719072CF08E159F050CF47C01C80173
:103570008C01E6CF84E690E097CF0E191F090F313A
:103580001105ECF4109309010093080187E992E01A
:103590000E94AF2691E0811101C090E09093030159
:1035A000CB5ADF4F0FB6F894DEBF0FBECDBFDF9111
:1035B000CF911F910F91FF90EF90DF90089510929F
:1035C000090110920801E2CF1F920F920FB60F92DD
:1035D00011242F933F934F935F936F937F938F9318
:1035E0009F93AF93BF93EF93FF938DE193E00E947E
:1035F0001904FF91EF91BF91AF919F918F917F91AE
:103600006F915F914F913F912F910F900FBE0F904F
:103610001F9018951F920F920FB60F9211242F939F
:103620008F939F93EF93FF93E0912D03F0912E03DF
:103630008081E0913303F091340382FD1BC09081BF
:10364000809136038F5F8F7320913703821741F08B
:10365000E0913603F0E0E35EFC4F958F80933603F4
:10366000FF91EF919F918F912F910F900FBE0F902F
:103670001F9018958081F4CF1F920F920FB60F9272
:1036800011242F933F938F939F93AF93BF93809178
:10369000DB029091DC02A091DD02B091DE0230915C
:1036A000DA0226E0230F2D3758F50296A11DB11D31
:1036B0002093DA028093DB029093DC02A093DD0278
:1036C000B093DE028091DF029091E002A091E102CE
:1036D000B091E2020196A11DB11D8093DF0290938B
:1036E000E002A093E102B093E202BF91AF919F91FB
:1036F0008F913F912F910F900FBE0F901F901895B3
:1037000029E8230F0396A11DB11DD2CF1F920F925E
:103710000FB60F9211242F933F934F935F936F93A4
:103720007F938F939F93AF93BF93EF93FF93E0911A
:103730003B01F0913C010995FF91EF91BF91AF9151
:103740009F918F917F916F915F914F913F912F91B9
:103750000F900FBE0F901F9018951F920F920FB6EB
:103760000F9211242F933F934F935F936F937F9307
:103770008F939F93AF93BF93EF93FF93E0913901A2
:10378000F0913A010995FF91EF91BF91AF919F910F
:103790008F917F916F915F914F913F912F910F90FA
:1037A0000FBE0F901F9018951F920F920FB60F9299
:1037B00011242F933F934F935F936F937F938F9336
:1037C0009F93AF93BF93EF93FF938091B900887F4E
:1037D000803609F44AC0F0F5883209F4A5C018F51E
:1037E000803109F499C0B8F4882309F4F5C0883011
:1037F00009F492C0FF91EF91BF91AF919F918F918A
:103800007F916F915F914F913F912F910F900FBEDC
:103810000F901F901895883109F486C0803251F7B7
:103820008093B30214C0803409F49BC040F4803309
:10383000B9F38833F9F68093B30285ECAEC08035D6
:1038400009F483C0883509F494C0883499F60E943D
:10385000D607D0CF883909F48AC038F5883729F0DF
:1038600050F4883611F0803729F683E08093B40253
:103870001092B20255C0883809F479C0803919F025
:10388000803809F0B7CF8091B202803208F06FC063
:10389000E091B20281E08E0F8093B2028091BB0072
:1038A000F0E0EE56FD4F80833BC0803B39F0D0F412
:1038B000803A09F477C0883A09F09CCF84E080937D
:1038C000B4021092910210929002F0E0E0E00995AB
:1038D0008091900281110FC081E08093900210923C
:1038E000700209C0803C09F4A8CF883C09F4A5CF38
:1038F000883B09F07FCFE091910281E08E0F8093A9
:103900009102F0E0E059FD4F80818093BB009091DF
:1039100091028091900229C08091D9028093BB00CE
:1039200085EC8093BC0066CF9091D8028091D7023D
:10393000981758F5E091D80281E08E0F8093D80255
:10394000F0E0E954FD4F8081E9CFE091D80281E0B9
:103950008E0F8093D8028091BB00F0E0E954FD4FB8
:1039600080839091D8028091D7029817C8F285E899
:10397000D8CFE091D80281E08E0F8093D802809159
:10398000BB00F0E0E954FD4F80838091B6028111C5
:103990005ECF81E08093B50284EA8093BC001092F0
:1039A000B40228CF85EC8093BC001092B4028091C1
:1039B000B202803230F4E091B202F0E0EE56FD4FF8
:1039C00010826091B20270E082E992E0F0E0E0E003
:1039D00009951092B2020ECF1092B30238CF1F9207
:1039E0000F920FB60F9211240F900FBE0F901F90E1
:1039F00018950F931F93CF93EDE1F3E0138212829A
:103A000088EE93E0A0E0B0E084839583A683B7833B
:103A100082E691E09183808385EC90E095878487AE
:103A200084EC90E09787868780EC90E0918B808B88
:103A300081EC90E0938B828B82EC90E0958B848B71
:103A400086EC90E0978B868B118E128E138E148EDF
:103A500085EE93E00E94040A84EC93E00E94040A3D
:103A60008BE090E00E94D61EC1E0FC01C08328E0FC
:103A7000E4E4F1E0DC01139601900D922A95E1F760
:103A800003E011E0FC01128301832FB7F8949093B7
:103A9000C3038093C2032FBF85E190E00E94D61E2E
:103AA000FC01C08322E1ECE4F1E0DC01139601901B
:103AB0000D922A95E1F7FC01128301832FB7F89448
:103AC0009093C1038093C0032FBF82E090E00E94D7
:103AD000D61EFC011182C0832FB7F8949093BF03C8
:103AE0008093BE032FBF82E090E00E94D61EFC01AF
:103AF0001182C0832FB7F8949093BD038093BC03C9
:103B00002FBF83E090E00E94D61EFC01128211823A
:103B1000C0832FB7F8949093BB038093BA032FBF51
:103B2000CF911F910F910895789484B5826084BDE0
:103B300084B5816084BD85B5826085BD85B58160B1
:103B400085BD80916E00816080936E00109281002F
:103B500080918100826080938100809181008160EA
:103B600080938100809180008160809380008091AB
:103B7000B10084608093B1008091B0008160809337
:103B8000B00080917A00846080937A0080917A00FE
:103B9000826080937A0080917A008E7F80937A0091
:103BA00080917A00806880937A001092C100A89575
:103BB00080E090E0892B11F00E9400000E944E03EB
:103BC000C0E1D0E0F12CFE01F595E795E353FC4F01
:103BD000E491C0FF9EC0EF70E83008F09FC0F0E0B5
:103BE000E353FC4FF4906F2D8DE193E00E943B0472
:103BF0002196C23FD10539F786EC93E00E94FD067D
:103C00001F928FEF8F931F9288E08F9388E894E044
:103C10009F938F930E94900A8091E5028D7F8093FD
:103C2000E5028BE794E09F938F930E94900A0E9495
:103C3000F01941E050E063E071E084EE92E00E9410
:103C40009F2660E081E090E00E94C7268091670295
:103C50008F788093670210925D0210925C0285E378
:103C600091E00E941E068CEE96E190935B02809399
:103C70005A021F921F921F921F9286E494E09F9314
:103C80008F930E94900A0E9489058DB79EB70E9669
:103C90000FB6F8949EBF0FBE8DBF0E9489050E948B
:103CA00000068091660284FD36C08091660282FB28
:103CB000882780F9A895882381F38EE694E09F9366
:103CC0008F930E94900A909166020F900F9092FB42
:103CD000882780F992FD0E947C0A1F928F9386E5C7
:103CE00094E09F938F930E94900AA8950F900F9055
:103CF0000F900F90C0E0D0E00E94EF100E944013A0
:103D00002097D1F30E940F048823B1F30E94000092
:103D1000F3CFE29560CF0E949C0EC7CF1BEF1E0F22
:103D200000E06F2D8DE193E00E943B040F5F0117CF
:103D3000C0F35ECF8091BA039091BB030E94721FC3
:103D40008091BC039091BD030E94721F8091BE03BD
:103D50009091BF030E94721F8091C0039091C10394
:103D60000E94721F8091C2039091C3030C94721F32
:103D7000EF920F931F93CF93DF93E80134E047FD59
:103D800034E1042E000C550B57FF03C051954195AB
:103D90005109E32E022F242FAE010E94B922CE0139
:103DA000DF91CF911F910F91EF9008950F931F9383
:103DB000CF93DF938230910510F482E090E0E091A0
:103DC0000804F091090430E020E0B0E0A0E0309772
:103DD00099F42115310509F44AC0281B390B243008
:103DE0003105D8F58A819B816115710589F1FB0147
:103DF00093838283FE0111C040815181028113812E
:103E000048175907E0F04817590799F4109761F0DF
:103E100012960C93129713961C933296CF01DF9152
:103E2000CF911F910F9108950093080410930904F6
:103E3000F4CF2115310551F04217530738F0A9018D
:103E4000DB019A01BD01DF01F801C1CFEF01F9CF1C
:103E50009093090480930804CDCFFE01E20FF31F75
:103E6000819391932250310939832883D7CF2091B0
:103E7000060430910704232B41F420914001309136
:103E80004101309307042093060420913E013091B4
:103E90003F012115310541F42DB73EB74091420154
:103EA00050914301241B350BE0910604F091070467
:103EB000E217F307A0F42E1B3F0B2817390778F001
:103EC000AC014E5F5F4F2417350748F04E0F5F1F60
:103ED0005093070440930604819391939FCFF0E0A1
:103EE000E0E09CCFCF93DF930097E9F0FC0132979D
:103EF00013821282A0910804B0910904ED0130E010
:103F000020E01097A1F420813181820F931F20912E
:103F10000604309107042817390709F061C0F093AF
:103F20000704E0930604DF91CF910895EA01CE17CC
:103F3000DF07E8F54A815B819E0141155105B1F724
:103F4000E901FB83EA8349915991C40FD51FEC170E
:103F5000FD0761F4808191810296840F951FE9012C
:103F600099838883828193819B838A83F0E0E0E058
:103F700012968D919C9113970097B9F52D913C91D4
:103F80001197CD010296820F931F20910604309164
:103F900007042817390739F6309751F510920904AC
:103FA00010920804B0930704A0930604BCCFD383F7
:103FB000C28340815181840F951FC817D90761F4CE
:103FC0004E5F5F4F88819981480F591F518340830D
:103FD0008A819B81938382832115310509F0B0CFBB
:103FE000F0930904E09308049ECFFD01DC01C0CFEB
:103FF00013821282D7CFFC0188279927E894219158
:104000002032E9F3293010F02E30C8F32B3241F082
:104010002D3239F4689404C00E946F20820F911DE4
:10402000219120532A30C0F31EF4909581959F4F23
:1040300008951F93FC0199278827BC01E8941191EA
:104040001032E9F3193010F01E30C8F31B3251F072
:104050001D3249F4689406C00E945A20610F711DF8
:10406000811D911D119110531A30B0F33EF49095BB
:104070008095709561957F4F8F4F9F4F1F91089549
:10408000BB274A3031F4992322F4BDE29095819503
:104090009F4F0C949A20BB272A3051F4992342F465
:1040A000BDE290958095709561957F4F8F4F9F4FA2
:1040B0000C947820592F482F372F262F660F771F03
:1040C000881F991F660F771F881F991F620F731F24
:1040D000841F951F660F771F881F991F08957AE028
:1040E000979F902D879F802D910D11240895BB27B8
:1040F000FA01A62F6217710581059105330B30FB7C
:1041000066F0AA27660F771F881F991FAA1FA2179C
:1041100010F0A21B63953850A9F7A05DAA3308F0F0
:10412000A95DA19336F7B111B1931082CA010C9425
:104130000625BB27FB015527AA27880F991FAA1F11
:10414000A41710F0A41B83955051B9F7A05DAA33B2
:1041500008F0A95DA193009779F7B111B19311927D
:10416000CB010C940625AEE0B0E0E9EBF0E20C9454
:1041700011278C01FA018EE08C831A83098377FF63
:1041800002C060E070E8615071097E836D83A9010F
:10419000BF01CE0101960E94DF204D815E8157FD57
:1041A0000AC02F813885421753070CF49A01020F79
:1041B000131FF80110822E96E4E00C942D27ABE03B
:1041C000B0E0E5EEF0E20C9403277C013B018A01AC
:1041D000FC0117821682838181FFC8C1CE0101963E
:1041E0005C01F7019381F30193FD859193FF819128
:1041F0003F01882309F453C1853239F493FD859139
:1042000093FF81913F01853229F4B70190E00E942C
:104210001625E7CF912C212C312CFFE1F31538F036
:104220008B3211F190F4803209F1833229F137FC9D
:104230003CC020ED280F2A3050F536FE20C08AE021
:10424000989E200D1124922E06C08D3291F080335D
:1042500071F7689430F8F30193FD859193FF819194
:104260003F018111DACF21C0689431F8689432F8A7
:10427000F2CF689433F8EFCF689434F8ECCFEAE0EB
:104280002E9E200D1124222E689435F8E4CF8E3214
:1042900029F436FC04C1689436F8DDCF8C3619F465
:1042A000689437F8D8CF8836B1F2982F9F7D95540F
:1042B0009330E0F08336A1F18337C1F1833509F003
:1042C00063C02801F2E04F0E511CF801C080D1807C
:1042D000692D70E036FC02C06FEF7FEFC6010E94CF
:1042E000F0244C01689437F882010AC00C5F1F4F1C
:1042F000FFE3F98388248394912C6501E89437F8CF
:1043000033FE2DC0522C8114910471F5552009F40F
:1043100068CFB70180E290E00E9416255A94F6CF4C
:10432000F801808189830E5F1F4FE4CF2801F2E0FE
:104330004F0E511CF801C080D180692D70E036FC11
:1043400002C06FEF7FEFC6010E94FB244C01820187
:10435000D5CFB70180E290E00E9416252A94281458
:10436000190409F0B0F7CECFF60137FC859137FE7E
:1043700081916F01B70190E00E94162551105A9467
:10438000F1E08F1A9108BFCF843619F0893609F011
:1043900077C0F80137FE6BC06081718182819381A3
:1043A0000C5F1F4FF32DFF763F2E97FF09C09095AE
:1043B0008095709561957F4F8F4F9F4F689437F828
:1043C0002AE030E0A5010E944625C82ECA188C2C90
:1043D000432C36FE0CC0E89440F8C91440F434FE77
:1043E00005C032FC03C0F32DFE7E4F2E892C44FE07
:1043F00095C0FE01EC0DF11D8081803309F087C06E
:10440000242D297E422E842D8870582E43FC95C081
:1044100040FE8FC09C2C821418F42C0C922C9818FF
:1044200044FE91C0B70180E390E00E94162542FE51
:1044300009C088E790E041FE02C088E590E0B7013E
:104440000E941625C91408F48AC0CA94D12C9FEF83
:10445000C91AD90ACA0CDB1CF60182916F01B70197
:1044600090E00E941625AC14BD04B1F74FCF6081D7
:104470007181072E000C880B990B0E5F1F4F92CF96
:10448000D32CE894D4F82AE030E0853739F1232D95
:10449000297FD22E8F3601F148F48835A9F0F70133
:1044A000868197812B96E2E10C941F27803749F093
:1044B0008837A9F7D4FE02C06894D2F820E130E032
:1044C0000DC06894D4F8F6CF34FE03C0822F866006
:1044D000D82E20E132E002C028E030E0F801D7FE1B
:1044E0000FC060817181828193810C5F1F4FA50194
:1044F0000E944625C82ECA183D2CE89437F867CF8D
:104500006081718190E080E00E5F1F4FF0CF42FC30
:1045100002C0839478CF8394839475CF842D86785A
:1045200009F471CFF6CFB70180E290E00E94162522
:1045300083948214C0F3512C73CF522C58188214D8
:1045400008F46ECFF8CF842D867809F47BCF8BE208
:1045500041FE80E247FC8DE2B70190E071CFB701E8
:1045600080E390E00E9416259A946CCF8FEF9FEF26
:1045700099CFA9E0B0E0EFEBF2E20C9409276A01D1
:10458000F22EB02E102FFBE3AF2EA01608F41BE383
:104590001F5F012F27E0AE014F5F5F4F0E9418247D
:1045A000BC018981982F9970913009F43FC09BE23A
:1045B000E1FC04C09E2D9170E0FC3AC05E2D50716C
:1045C000E82FE87083FF46C084E0911101C083E0CA
:1045D000EF2DE81B8F1508F0E0E0D6018E2F20E2CA
:1045E000552351F1992329F0D6019C93C6010196D8
:1045F0006C0196012D5F3F4FE2FE24C08EE4D60190
:104600008C9391E411969C93119712968C93D901F7
:104610008E2F90E281111BC0E20FF32FF11D10824B
:104620008EEF9FEF2996ECE00C9425279DE2C6CFF4
:1046300090E2C4CF2D9381508111FCCFCE0ED11CBE
:10464000E0E0D0CF8EE6D6018C9391E6DBCF9D9350
:104650008150E0CF482F447082FF3DC084E091112B
:1046600001C083E08F1510F4EF2DE81BD6018E2FCB
:1046700020E2552309F1992329F0D6019C93C60124
:1046800001966C0196012D5F3F4FE2FE1BC089E44D
:10469000D6018C938EE411968C93119786E4129632
:1046A0008C93D9018E2F90E2882309F4B5CF9D9386
:1046B0008150FACF2D9381508111FCCFCE0ED11CA9
:1046C000E0E0D9CF89E6D6018C938EE611968C93E3
:1046D000119786E6E4CF9B0177FF02C030E020E02F
:1046E000A1E0B0E0911102C0B0E0A0E0F901319684
:1046F000AE0FBF1F8B2C912CBB2009F461C054015D
:10470000EFEFAE1ABE0AAA0DBB1DFA161B0619F072
:1047100014F04F2D4A1B511188C0E3FC59C076019B
:10472000A42FB0E2A1114FC0C40ED11C992309F4EB
:104730005BC040E0D6011196F60190836D015523D0
:1047400009F448C0012F060F9A81582F507184FF39
:1047500003C0913309F4015010160CF047C0093022
:1047600008F008E0EEE2FE2E5B01A01AB108850118
:104770009194819491082F3F320729F4D601FC923D
:10478000F60131966F016217730794F10217130750
:104790007CF5DB01A21BB30BAA24A394B12CAC0EB5
:1047A000BD1EAA0DBB1D11968C9121503109D60159
:1047B000119628153905F4F0F60180836D01DBCFE1
:1047C000B12CA12CA0CFF701B1937F01A150AACFAA
:1047D0009111B0CFD601942F50E302C05D93915058
:1047E0009111FCCFC40ED11C40E0ACCF01E0BACF98
:1047F00080E3DBCF6217730731F4963388F4953387
:1048000011F4552369F0F6018083FD01842F90E2B5
:10481000811108C0A40FB11D1C9290E080E002CF6E
:1048200081E3F1CF91938150F3CF911183CF8ACF60
:10483000283008F027E03327DA01990F311D87FD72
:10484000916000966105710539F432602E5F3D93E9
:1048500030E32A95E1F708959F3F30F080387105E5
:10486000610509F03C5F3C5F3D93913008F0806842
:10487000911DDF93CF931F930F93FF92EF92192F08
:10488000987F9695E92F96959695E90FFF27EE5319
:10489000FF4F99273327EE24FF24A701E701059056
:1048A0000894079428F4360FE71EF81E491F511D7F
:1048B000660F771F881F991F0694A1F7059007942C
:1048C00028F4E70EF81E491F561FC11D770F881FD9
:1048D000991F661F0694A1F70590079428F4F80E17
:1048E000491F561FC71FD11D880F991F661F771FAD
:1048F0000694A1F70590079420F4490F561FC71F8F
:10490000D81F990F661F771F881F0694A9F78491F7
:104910001095177041F0D695C79557954795F79420
:10492000E7941A95C1F7E8E6F0E0689415901591C0
:1049300035916591959105907FE27395E118F10AA3
:10494000430B560BC90BD009C0F7E10CF11E431FF6
:10495000561FC91FD01D7EF4703311F48A95E6CF1F
:10496000E894015030F0080F0AF40027021708F409
:10497000202F2395022F7A3328F079E37D932A950F
:10498000E9F710C07D932A9589F606949795679567
:10499000379517951794E118F10A430B560BC90B7D
:1049A000D00998F023957E9173957A3308F070E3DF
:1049B0007C932013B8F77E9170617D9330F08395DE
:1049C00071E37D9370E32A95E1F71124EF90FF9056
:1049D0000F911F91CF91DF91992787FD90950895B1
:1049E000FC010590615070400110D8F780959095BA
:1049F0008E0F9F1F0895FC016150704001900110BF
:104A0000D8F7809590958E0F9F1F0895DC01FC01CB
:104A1000672F71917723E1F7329704C07C916D93F2
:104A200070836291AE17BF07C8F308950F931F9369
:104A3000CF93DF93182F092FEB018B8181FD09C0E4
:104A40001FEF0FEF812F902FDF91CF911F910F91CB
:104A5000089582FF14C02E813F818C819D8128178B
:104A600039073CF4E881F981CF0101969983888365
:104A700010838E819F8101969F838E83E3CFE8858B
:104A8000F985812F0995892BA1F3DACFFA01AA279D
:104A9000283051F1203181F1E8946F936E7F6E5F81
:104AA0007F4F8F4F9F4FAF4FB1E03ED0B4E03CD02F
:104AB000670F781F891F9A1FA11D680F791F8A1F12
:104AC000911DA11D6A0F711D811D911DA11D20D079
:104AD00009F468943F912AE0269F11243019305D33
:104AE0003193DEF6CF010895462F4770405D419324
:104AF000B3E00FD0C9F7F6CF462F4F70405D4A3371
:104B000018F0495D31FD4052419302D0A9F7EACF38
:104B1000B4E0A6959795879577956795BA95C9F767
:104B200000976105710508959B01AC010A2E06945A
:104B30005795479537952795BA95C9F7620F731F13
:104B4000841F951FA01D0895E89409C097FB3EF4AB
:104B500090958095709561957F4F8F4F9F4F9923CA
:104B6000A9F0F92F96E9BB279395F6958795779548
:104B70006795B795F111F8CFFAF4BB0F11F460FF08
:104B80001BC06F5F7F4F8F4F9F4F16C0882311F060
:104B900096E911C0772321F09EE8872F762F05C074
:104BA000662371F096E8862F70E060E02AF09A950F
:104BB000660F771F881FDAF7880F9695879597F904
:104BC00008950E94F4250C9465260E94572638F01B
:104BD0000E945E2620F0952311F00C944E260C9432
:104BE000542611240C9499260E94762670F3959FE2
:104BF000C1F3950F50E0551F629FF001729FBB27D4
:104C0000F00DB11D639FAA27F00DB11DAA1F649F6F
:104C10006627B00DA11D661F829F2227B00DA11D22
:104C2000621F739FB00DA11D621F839FA00D611DA8
:104C3000221F749F3327A00D611D231F849F600DC9
:104C4000211D822F762F6A2F11249F5750409AF0F2
:104C5000F1F088234AF0EE0FFF1FBB1F661F771F7E
:104C6000881F91505040A9F79E3F510580F00C9449
:104C70004E260C9499265F3FE4F3983ED4F3869534
:104C800077956795B795F795E7959F5FC1F7FE2BE9
:104C9000880F911D9695879597F9089597F99F67C5
:104CA00080E870E060E008959FEF80EC08950024B4
:104CB0000A941616170618060906089500240A9481
:104CC00012161306140605060895092E0394000C07
:104CD00011F4882352F0BB0F40F4BF2B11F460FF96
:104CE00004C06F5F7F4F8F4F9F4F089557FD9058BF
:104CF000440F551F59F05F3F71F04795880F97FBA0
:104D0000991F61F09F3F79F0879508951216130659
:104D10001406551FF2CF4695F1DF08C01616170688
:104D20001806991FF1CF86957105610508940895BD
:104D3000E894BB2766277727CB0197F90895DC0114
:104D4000CB01FC01F999FECF06C0F2BDE1BDF89A96
:104D5000319600B40D9241505040B8F70895F9993A
:104D6000FECF92BD81BDF89A992780B50895DC01E8
:104D7000A40FB51F4150504048F0CB01840F951F40
:104D80002E910E94C82641505040D0F70895262FFA
:104D9000F999FECF92BD81BDF89A019700B4021631
:104DA00039F01FBA20BD0FB6F894FA9AF99A0FBEDF
:104DB0000895052E97FB1EF400940E94F02657FDDF
:104DC00007D00E943A2707FC03D04EF40C94F0263B
:104DD00050954095309521953F4F4F4F5F4F089527
:104DE00090958095709561957F4F8F4F9F4F089557
:104DF0000E945C27A59F900DB49F900DA49F800DED
:104E0000911D112408952F923F924F925F926F92BD
:104E10007F928F929F92AF92BF92CF92DF92EF924A
:104E2000FF920F931F93CF93DF93CDB7DEB7CA1BCB
:104E3000DB0B0FB6F894DEBF0FBECDBF09942A88F6
:104E4000398848885F846E847D848C849B84AA849E
:104E5000B984C884DF80EE80FD800C811B81AA812B
:104E6000B981CE0FD11D0FB6F894DEBF0FBECDBFF6
:104E7000ED010895A1E21A2EAA1BBB1BFD010DC076
:104E8000AA1FBB1FEE1FFF1FA217B307E407F507FA
:104E900020F0A21BB30BE40BF50B661F771F881FD6
:104EA000991F1A9469F760957095809590959B016C
:104EB000AC01BD01CF010895A29FB001B39FC00115
:104EC000A39F700D811D1124911DB29F700D811D36
:104ED0001124911D08955058BB27AA270E948327AB
:104EE0000C9465260E94572638F00E945E2620F01A
:104EF00039F49F3F19F426F40C9454260EF4E095EF
:104F0000E7FB0C944E26E92F0E94762658F3BA1739
:104F1000620773078407950720F079F4A6F50C94CF
:104F200098260EF4E0950B2EBA2FA02D0B01B90197
:104F300090010C01CA01A0011124FF27591B99F00F
:104F4000593F50F4503E68F11A16F040A22F232F1B
:104F5000342F4427585FF3CF469537952795A7956B
:104F6000F0405395C9F77EF41F16BA0B620B730B12
:104F7000840BBAF09150A1F0FF0FBB1F661F771F83
:104F8000881FC2F70EC0BA0F621F731F841F48F438
:104F9000879577956795B795F7959E3F08F0B0CFC1
:104FA0009395880F08F09927EE0F979587950895A8
:104FB0000E94EC270C9465260E945E2658F00E9401
:104FC000572640F029F45F3F29F00C944E265111EA
:104FD0000C9499260C9454260E94762668F3992303
:104FE000B1F3552391F3951B550BBB27AA276217E5
:104FF0007307840738F09F5F5F4F220F331F441FF2
:10500000AA1FA9F335D00E2E3AF0E0E832D0915025
:105010005040E695001CCAF72BD0FE2F29D0660F12
:10502000771F881FBB1F261737074807AB07B0E855
:1050300009F0BB0B802DBF01FF2793585F4F3AF05B
:105040009E3F510578F00C944E260C9499265F3FB4
:10505000E4F3983ED4F3869577956795B795F795E1
:105060009F5FC9F7880F911D9695879597F90895C9
:10507000E1E0660F771F881FBB1F62177307840765
:10508000BA0720F0621B730B840BBA0BEE1F88F774
:10509000E09508950E9451286894B1110C949926C6
:1050A00008950E947E2688F09F5798F0B92F99277F
:1050B000B751B0F0E1F0660F771F881F991F1AF003
:1050C000BA95C9F714C0B13091F00E949826B1E0AA
:1050D00008950C949826672F782F8827B85F39F0A9
:1050E000B93FCCF3869577956795B395D9F73EF49C
:1050F00090958095709561957F4F8F4F9F4F089544
:10510000AA1BBB1B51E107C0AA1FBB1FA617B707ED
:1051100010F0A61BB70B881F991F5A95A9F7809509
:105120009095BC01CD01089597FB072E16F40094CD
:1051300007D077FD09D00E94802807FC05D03EF4F7
:10514000909581959F4F0895709561957F4F089533
:10515000EE0FFF1F0590F491E02D09940E945C274B
:10516000B7FF0895821B930B0895B0E0A0E0EBEB2E
:10517000F8E20C9405278C01009751F4CB010E94B2
:10518000D61E8C01C801CDB7DEB7E0E10C94212713
:10519000FC01E60FF71F9C0122503109E217F307CB
:1051A00008F49DC0D901CD91DC911197C617D7079E
:1051B00098F0C530D10530F3CE01049786179707D4
:1051C00008F3C61BD70B2297C193D1936D937C93A1
:1051D000CF010E94721FD6CF5B01AC1ABD0A4C01F1
:1051E0008C0E9D1EA0910804B0910904512C412CF5
:1051F000F12CE12C109731F5809106049091070471
:105200008815990509F05CC04616570608F058C085
:1052100080913E0190913F01009741F48DB79EB778
:105220004091420150914301841B950BE817F90707
:1052300008F055C0F0930704E0930604F901718368
:105240006083A0CF8D919C91119712966C901297CC
:1052500013967C901397A815B90559F56C0142E097
:10526000C40ED11CCA14DB0420F1AC014A195B093D
:10527000DA011296159780F062827382518340831F
:10528000D9016D937C93E114F10471F0D701139669
:10529000FC93EE93129776CF22968C0F9D1FF90107
:1052A00091838083F301EFCFF0930904E093080426
:1052B00069CF4816590608F42C017D01D3019ACF15
:1052C000CB010E94D61E7C01009749F0AE01B801C7
:1052D0000E947229C8010E94721F870153CF10E0FB
:1052E00000E050CFFB01DC0102C001900D92415063
:1052F0005040D8F70895FB01DC0101900D92002089
:10530000E1F70895FB01DC014150504048F0019065
:105310000D920020C9F701C01D9241505040E0F7A6
:105320000895AEE0B0E0E7E9F9E20C9411270D89A9
:105330001E898F89988D26E02C831A83098397FF15
:1053400002C080E090E801979E838D83AE01455EA8
:105350005F4F698D7A8DCE0101960E94DF204D81CD
:105360005E8157FD0AC02F813885421753070CF420
:105370009A01020F131FF80110822E96E4E00C949C
:105380002D27AEE0B0E0E7ECF9E20C9411278C0198
:10539000FA0186E08C831A83098377FF02C060E0FC
:1053A00070E8615071097E836D83A901BF01CE0150
:1053B00001960E94DF204D815E8157FD0AC02F813A
:1053C0003885421753070CF49A01020F131FF80196
:1053D00010822E96E4E00C942D2713E0C3E2D3E074
:1053E00004C0FE010E94A8282196C432D107C9F743
:1053F000F894FFCFFFFFFF01010100000000000053
:1054000000000500320096002C01F401BC0200FCF3
:10541000E1A8A8FF43171B1757182D1879184A063B
:105420001118BE1792177F17019D19A4189505959D
:10543000050100000A0480000008000001070000C8
:10544000030500000000000000040600000000004A
:105450000000000000003B04A503D203A3040304E2
:10546000E103F5030D0A0020003C4E4F4E43453E3C
:10547000004F4B004E41434B003F002100322E3382
:105480002E3200556E69742D4C696768744E6F64D6
:10549000652D72322D643200312E3200496E742E29
:1054A00054656D700052656C61792E4C6967687443
:1054B000730044696D6D65722E4C69676874730082
:1054C00053657475702E4175746F2E4C69676874DE
:1054D0007300727373693A256400372E332E3000DF
:1054E00030343A31393A353700536570203235203F
:1054F00032303230002D2D204275696C643A2025FF
:1055000073202D2025732C2025730A2D2D204E610C
:105510006D653A205B25733A25735D0A2D2D204970
:105520006E69743A2064696D6D6572733D25752CE2
:105530002072656C6579733D25752C2072656C65EC
:0A554000797342746E3D25750A0070
:1078000011E0A0E0B1E0E4EFFFE702C005900D92C7
:10781000A630B107D9F721E0A6E0B1E001C01D9282
:10782000AD34B207E1F7CDB7DEB72897DEBFCDBFE5
:10783000112484B78093270114BE88E180936000EF
:1078400089E280936000259A86E020E295B1922734
:1078500095B93FE748E351E0315040405040E1F7EF
:1078600000C00000815091F78091270181FD18C070
:107870008EE284B981E58CBD81E08DBD412C512C17
:10788000222423941CE3612E11E0712E33243394BF
:10789000CC24CA94DC2CAA24A39483E0B82E45C13E
:1078A00082E08093C00088E18093C10086E08093ED
:1078B000C20087E68093C40000E010E0C12CD12C08
:1078C000AA24AA94BA2CEE24E394A895EED181348C
:1078D00069F4EBD1F82E36D382E8F81629F091E856
:1078E000F91202C085E651C083E04FC0823411F422
:1078F00084E103C0853419F485E030D362C0853556
:1079000041F4D3D1082FD1D110E0182B000F111F53
:1079100057C0863521F484E021D380E036C0843618
:10792000E9F4C3D1C2D1882EC0D1C80CD11C912C8E
:10793000981488F4BAD1F82EB8D1F801E90DF11DE8
:107940002F2D30E0A901582B0A01E7BEE89511243C
:1079500093949394EDCFC801B4D132C0843769F4C5
:10796000A4D1A3D1F82EA1D1EDD2F80185918F0138
:10797000E2D2FA94F110F9CF25C0853741F4E2D272
:107980008EE1D9D285E9D7D28FE0D5D21AC0813520
:10799000B9F4BA82A982BC82AB82C601F4E09695A2
:1079A0008795FA95E1F79E838D83C6019CD19887D0
:1079B0008F83CE010196D9D2C5D2FF24F39402C0A1
:1079C000C1D2F12C80E1B7D2FF2009F47ECF50CF95
:1079D00043E050E060E070E089E291E0E9D248E005
:1079E00050E06BE171E0CE010196E2D229982A9A2B
:1079F00063E083E2D2D16CE485E2CFD167E286E234
:107A0000CCD163E780E5C9D164E08DE3C6D161E004
:107A100082E2C3D161E081E2C0D161E08CE3BDD1FB
:107A200021E041E060E070E086E08AD1873209F031
:107A300026C180912A01809328018FEF80932A012B
:107A400080932B018093080163E584E2A6D143E291
:107A50006AE087E069D161E08EEFBED11092080143
:107A60006FE584E29AD180912A018F3F09F407C122
:107A70008091290181508E3F08F05AC030920D014B
:107A800010920E0143EC62E18FE04ED160E08FE096
:107A9000A3D18D819E81E4E0880F991FEA95E1F7DB
:107AA00022D198878F8388E0FE013196ADE0B1E066
:107AB00001900D928A95E1F7B0921601A0921501FE
:107AC00044EC62E580E030D163E081E085D1882339
:107AD00009F4D5C048E050E063E371E0CE010196BF
:107AE0005AD2892B09F4CBC080913701909138018B
:107AF000009709F045C08091390190913A018A3789
:107B00009A4D09F041C08091330190913401813048
:107B1000910571F500E010E06FEFC80159D20F5FD9
:107B20001F4F011584E01807B9F7F999FECF50CF20
:107B300043E262E083E0F8D063E084E04DD1882343
:107B400009F496CF80912F01869586958695E3E37B
:107B5000F1E060E0815048F02191660F962F990F77
:107B6000990F690F6053620FF5CF80E090E006C077
:107B7000029782309105C8F66091350129D2D5CFA0
:107B80008038974008F07BC088E0E3E3F1E0DE0155
:107B9000119601900D928A95E1F7EF80F884D886CE
:107BA000CF82CE010196E1D18D809E8089819A811C
:107BB00090930E0180930D018B819C819093100115
:107BC00080930F0184010150110910931201009359
:107BD000110144EC62E382E0A7D063E083E0FCD0D3
:107BE000882309F44BCF46E050E063E371E08DE079
:107BF00091E0D1D1892BD1F6C4018150904F682FEB
:107C000062956077ACE2B1E0462F50E04C525140B3
:107C1000FA01EA0FFB1F1E962C911E9730E0322FBF
:107C200022271D967C911D97272B090127BEE895D9
:107C3000112412966A167B0659F7611106C044E0BA
:107C4000880F991F4A95E1F73CD00115110511F0F5
:107C50004801ACCFF886EF828D819E8134E0880F99
:107C6000991F3A95E1F73FD0E816F90621F01E82F8
:107C70001D8218861F82CE01019677D156CF8D8145
:107C80009E8124E0880F991F2A95E1F72CD02F813F
:107C900038858217930709F048CF1CBCA8958091BE
:107CA0002701282EF201099540CF8091C00087FF5F
:107CB000FCCF8091C00084FD01C0A8958091C600D2
:107CC000089523E0FC0127BFE89507B600FCFDCF2F
:107CD00025E0FC0127BFE89507B600FCFDCF81E158
:107CE00087BFE8950895BC01E0E0F0E08FEF9FEFDB
:107CF000E617F707C0F4E11528E7F207A0F425918D
:107D0000822748E0DC01B695A7959C0121703327B6
:107D10003195219531092170307ACD018227932741
:107D2000415081F7E5CF089590912901E6E0F1E017
:107D3000918390839FEF9683858344836383089523
:107D40002A989AE19A95F1F700C08EBD0DB407FE0E
:107D5000FDCF8EB59FEF4150D0F0222369F09EBD3C
:107D60000DB407FEFDCF8EB561157105A1F3DB01E2
:107D70008C936F5F7F4FEFCFFB013196DB018C91CE
:107D80008EBD0DB407FEFDCF8EB5BF01E4CF2A9A9C
