:100000000C945D000C94C1130C949A130C9485000D
:100010000C9485000C9485000C9403150C948500B9
:100020000C9485000C9485000C9485000C9485003C
:100030000C9485000C9485000C9485000C9485002C
:100040000C9450130C9485000C9485000C9485003E
:100050000C9485000C9485000C9485000C9485000C
:100060000C94E8130C9485000000000800020100C5
:100070000003040700000000000000000000000072
:10008000250028002B0000000000240027002A0083
:10009000040404040404040402020202020203032E
:1000A0000303030301020408102040800102040836
:1000B00010200102040810200D1511241FBECFEFDF
:1000C000D8E0DEBFCDBF11E0A0E0B1E0E2E4F7E3AD
:1000D00002C005900D92AC3EB107D9F722E0ACEE1C
:1000E000B1E001C01D92AE3FB207E1F710E0CDE5EF
:1000F000D0E004C02197FE010E94B61ACC35D1078A
:10010000C9F70E9461150C949F1B0C940000089580
:1001100090E0FC01EC55FF4F249180579F4FFC016C
:100120008491882399F090E0880F991FFC01EA5789
:10013000FF4FA591B491FC01E458FF4F8591949134
:100140008FB7F894EC91E22BEC938FBF0895942F26
:10015000E8EBF2E030917A02318382836683258373
:100160004481487F492B477E4483CF01089590E026
:10017000FC01E859FF4F2491FC01EC55FF4F3491ED
:10018000FC01E057FF4FE491EE23C9F0222339F040
:10019000233001F1A8F4213019F1223029F1F0E0E7
:1001A000EE0FFF1FE458FF4FA591B4918FB7F8945D
:1001B000EC91611126C030953E233C938FBF08958A
:1001C0002730A9F02830C9F0243049F78091800009
:1001D0008F7D03C0809180008F7780938000DFCF78
:1001E00084B58F7784BDDBCF84B58F7DFBCF8091C5
:1001F000B0008F778093B000D2CF8091B0008F7D18
:10020000F9CF3E2BDACF20912E0190E4299F900167
:1002100011248E50822B80937C0080917A00806420
:1002200080937A0080917A0086FDFCCF80917800DF
:100230009091790008953FB7F8948091740290915D
:100240007502A0917602B091770226B5A89B05C0F1
:100250002F3F19F00196A11DB11D3FBFBA2FA92F45
:10026000982F8827BC01CD01620F711D811D911D42
:1002700043E0660F771F881F991F4A95D1F70895AD
:100280008F929F92AF92BF92CF92DF92EF92FF92A6
:100290006B017C010E941B014B015C01C114D10464
:1002A000E104F104B9F00E941B01681979098A0977
:1002B0009B09683E73408105910580F321E0C21AD5
:1002C000D108E108F10888EE880E83E0981EA11C91
:1002D000B11CE4CFFF90EF90DF90CF90BF90AF9034
:1002E0009F908F9008952FB7F8946091700270914D
:1002F000710280917202909173022FBF0895089548
:1003000020912502260F3327331F21323105ECF4CB
:1003100020914902FC0190E080E0243069F082E005
:100320000895A09125022191AC014B5F5D4FA40F70
:10033000B52FB11D2C930196861798F38091250255
:10034000680F6093250280E0089581E00895089584
:100350008FEF9FEF08958FEF9FEF08958091FE013B
:1003600090E09195819591090895CF93DF93CB010A
:10037000EA01642F0E948001CE01DF91CF910895A0
:10038000CF93DF931F92CDB7DEB7698361E0CE01D3
:1003900001960E94800181E090E00F90DF91CF9163
:1003A000089590E080E00895FC0183818770886063
:1003B000838384818F71806284836783CF010895F2
:1003C000E091F101F091F201309721F00280F38188
:1003D000E02D099408950F931F930E9473010091DB
:1003E000F3011091F4012091F5013091F601601BA9
:1003F000710B820B930B1F910F9108959C018091BB
:10040000F1019091F20182179307F1F09091FB01B5
:100410009F719093FB013093F2012093F101E091E1
:10042000F101F091F201309721F00190F081E02D7F
:1004300009950E9473016093F3017093F401809316
:10044000F5019093F60108958091FB01805E809301
:10045000FB01E5CF0F931F930E94EB012091FC015C
:100460002077203779F000E117E220E030E006172E
:1004700017072807390758F486E291E01F910F917A
:100480000C94FE0100E61AEE20E030E0F0CF1F9160
:100490000F9108958091FC01982F9F70963018F06D
:1004A000807F8093FC0108958091FB01846080939C
:1004B000FB018091FC0180788093FC01E091EF01C9
:1004C000F091F001309709F009940895CF93C0910D
:1004D000FD01CF3FA1F00E9473016093F70170937B
:1004E000F8018093F9019093FA0180917C02C8137E
:1004F000C0937C0289E191E0CF910C94FE010E94AF
:10050000EB01613D77408105910568F08091FB0129
:10051000803618F485E191E0EFCF877F8093FB016F
:1005200081E191E0E9CFCF91089580917A028F3FE8
:1005300021F085E191E00C94FE010E94EB01613D08
:1005400077408105910550F08091FB01803618F4C9
:100550008DE091E0F0CF89E091E0EDCF08958DE05E
:1005600091E00C94FE018EBD00000DB407FEFDCF9E
:100570008EB50895EBEFF1E08081897F8E7F8083D7
:10058000EAE7F2E081E08283118260E081E090E0BE
:100590000C94D518FC0180819181009711F00C9486
:1005A000921608950F931F93CF93DF93EC018881E8
:1005B0009981009759F02A813B812617370730F03F
:1005C00081E0DF91CF911F910F9108958B016F5FB3
:1005D0007F4F0E94C31A009759F0998388831B8329
:1005E0000A832C813D81232B59F7FC011082E8CF2F
:1005F00080E0E7CFEF92FF920F931F93CF93DF93AB
:1006000041155105B1F07B01EC010C811D81040FF6
:10061000151FB8010E94D202882361F02881398118
:100620008C819D81B701820F931F0E94891B1D83BE
:100630000C8381E0DF91CF911F910F91FF90EF909C
:100640000895EF92FF920F931F93CF93DF93EC01E6
:100650007B018A01BA010E94D2022881398181116D
:1006600014C02115310519F0C9010E949216198292
:1006700018821D821C821B821A82CE01DF91CF91CB
:100680001F910F91FF90EF9008951D830C83B70188
:10069000C9010E94891BF1CFFC01118210821382D3
:1006A0001282158214826115710551F0FB010190CF
:1006B0000020E9F73197AF01461B570B0C9421033B
:1006C00008951F93CF93DF9385ED8093BC008091B5
:1006D000010290910202A0910302B09104020796D8
:1006E000A11DB11D23E0B695A795979587952A95ED
:1006F000D1F72091BC0024FD03C01092490252C0E2
:100700004091010250910202609103027091040233
:10071000452B462B472B69F30097A105B10541F006
:100720002AE12A95F1F700C00197A109B109E1CFAB
:1007300080910002C1E0C093FF01882399F1D0911C
:10074000B8001091BA008091BC008A7B8093BC00F5
:1007500060E082E10E94B70060E083E10E94B700A0
:1007600010924902C0934B0210924A0261E082E16A
:100770000E94B70061E083E10E94B7008091B90058
:100780008E7F8093B9008091B9008D7F8093B900EE
:1007900080E28093B80085E48093BC001093BA0097
:1007A000D093B800DF91CF911F910895EBEFF1E066
:1007B0008081877F8F7E80831092F7011092F801ED
:1007C0001092F9011092FA0144E050E070E060E00C
:1007D0008AE792E00C94AD180F931F93CF93DF93A9
:1007E0008C0180E06115710551F0EB01099000204A
:1007F000E9F721978C2F861B8A3108F089E1F801EF
:10080000C381C770F8E08F9FC0011124C82BF80185
:10081000C38384818F718483C695C695C695CA317A
:1008200008F0C9E1D0E0AE01C80107960E94901B14
:10083000C00FD11F1F82C801DF91CF911F910F916F
:100840000895FC012481229526952770213011F40A
:1008500087810895211104C007960E941B170895EF
:1008600080E008958F929F92AF92BF92CF92DF92D5
:10087000EF92FF920F931F93CF93DF93CDB7DEB725
:100880002C970FB6F894DEBF0FBECDBFFC0194814C
:1008900094FD28C085818731F1F08033B1F1823039
:1008A00009F028C19681963F09F082C110919E02FD
:1008B000CF010E94210461E0811101C060E01617A0
:1008C00089F060939E0281E080939F0283E992E029
:1008D0000E94D51807C096819A3F09F00BC181E0AC
:1008E0008093A0022C960FB6F894DEBF0FBECDBF4A
:1008F000DF91CF911F910F91FF90EF90DF90CF90FC
:10090000BF90AF909F908F9008952681253F09F06A
:10091000F1C0929596959770BF01695F7F4F9923BB
:1009200011F070E060E0CE0107960E944C03F12CBC
:10093000E12C10E000E090E080E02B853C85821700
:10094000930708F071C026E0E216F10408F06CC0CD
:100950002F813885AC014F5F5F4F5A01211531055A
:1009600009F470C0280F391FF90120812B3309F0D9
:1009700063C06C018017910710F068018C011A8226
:1009800019821C821B821E821D8250E040E061EEB3
:1009900071E0CE0101960E9421038B849C84C814CF
:1009A000D90420F50815190508F44801EF81F885E8
:1009B000E80DF91D108110826F8178856C0D7D1D09
:1009C0006115710509F440C0FB0101900020E9F7B1
:1009D0003197AF01461B570BCE0101960E942103B0
:1009E0008F819885880E991EF40110838D819E81D8
:1009F000892BA1F089819A81009799F10E9439177A
:100A0000161617065CF4F701EE0FFF1FE455FD4FB5
:100A100071836083A7014F5F5F4F7A018501CE012B
:100A200001960E94CA020EC081E08093A102CE010D
:100A300007960E94CA0256CF2C3209F49ACF2C375F
:100A400009F497CFC50179CF89819A81009711F078
:100A50000E9492161A8219821E821D821C821B829B
:100A6000BFCF60E070E0CB01CBCF20919A0201E0D4
:100A7000291709F4A2C0968120918102921709F4E6
:100A800048C020918A0201E0921339C010E08330FF
:100A900009F444C0CF010E94210499E0909FF00125
:100AA000919FF00D1124E258FD4F8583978189179E
:100AB00009F418CF882379F18085918518161906D5
:100AC00014F084E690E029E0209FF001219FF00DD2
:100AD0001124E258FD4F9187808789E0809FF001C3
:100AE000819FF00D1124E258FD4F81E086838093B1
:100AF0007E02F8CE9EEF980F923008F4BCCF8111A1
:100B00004CC086818B3F09F0EDCE81E080932301BC
:100B1000E9CE00E0BBCF90E080E0D5CFFFB6F894FF
:100B200084818295869587708230C1F48781908513
:100B300085369105ECF497FF02C090E080E029E053
:100B4000209FF001219FF00D1124E258FD4F2085D8
:100B500031852817390779F4FFBEC4CE811105C04D
:100B6000CF0107960E941B17E3CF90E080E0E3CF10
:100B700084E690E0E4CF21E0181619060CF020E09E
:100B8000258329E0209FF001219FF00D1124E258D8
:100B9000FD4F91878087FFBEA0CF803309F0A2CEA2
:100BA0008681843F09F09ECE81E080931D019ACE1C
:100BB00020919602291359CF00E010E0CF010E9446
:100BC0002104F801EE0FFF1FEE0FFF1FED56FD4F42
:100BD0009581981709F486CE858381E0868380937A
:100BE000930280CECF93DF93FC0110821182128298
:100BF000148215821682DC0117968AE1ED011992A2
:100C00008A95E9F782E08383DF91CF910895BF92BF
:100C1000CF92DF92EF92FF920F931F93CF93DF93C8
:100C20007B01042FB22E90E59CBD1DBC2A98E0E10B
:100C3000F0E03197F1F70E94B302182FE70101505D
:100C4000A8F0BB2051F08FEF0E94B302182FE114DF
:100C5000F104A9F388832196F2CF6E018FEFC81AB1
:100C6000D80A88810E94B302E601E9CF2A9A80E17E
:100C700090E00197F1F7812FDF91CF911F910F91B4
:100C8000FF90EF90DF90CF90BF900895CF93DF93C8
:100C90001F92CDB7DEB7698320E041E0BE016F5FF0
:100CA0007F4F0E9407060F90DF91CF9108958091AA
:100CB000FC01982F9077903759F0982F92959F705C
:100CC0009F5F97709295907F8F78892B8093FC011E
:100CD0008091FB018B7F8F7E8093FB0129986CE0D4
:100CE00080E20C9446066FE080E20E944606609126
:100CF00008016F3F19F08AE20E944606299A08957A
:100D000021E041E070E060E00C94070620E040E064
:100D100070E060E00C940706FF920F931F93CF934F
:100D2000DF9390917A02FB0190834381C0E242FD00
:100D300008C04695469546954A3108F049E1C7E016
:100D4000C40F90917D02D1E090FD03C08F3F09F068
:100D5000D0E06115710509F44CC08B01F82E29987B
:100D600080E091E00197F1F76EE080E20E94460694
:100D700084EC90E00197F1F76F2D8AE20E9446061D
:100D80006F2D80E30E94460681EE0E948606DD23D9
:100D900021F060E584E20E94460620E04C2FB80175
:100DA00080EA0E940706299A10E000E08FEF0E9477
:100DB0008606807339F40F3F100721F0A8950F5F66
:100DC0001F4FF4CF299860E787E20E944606C82F9C
:100DD00084FF03C081EE0E948606DD2321F06FE5CB
:100DE00084E20E9446060E947306C5FF03C0D1E05C
:100DF00001C0D0E08D2FDF91CF911F910F91FF9017
:100E000008950F931F93CF938C01FC0182819091E1
:100E1000FB0190FF04C08F3F51F5CFEF04C081115B
:100E200016C0C0917B02B8018C2F0E948C06909155
:100E30007B029C1313C09091FC01811113C021E02F
:100E4000290F2F70907F922B9093FC0107C08F3F4A
:100E500021F3B8010E948C06882319F3CF911F91CA
:100E60000F910895907F9093FC0181E0F7CF80E08F
:100E7000F5CF2091FB0122FD0C94010780E008953D
:100E8000FC0180917A0281839481907F99609483A0
:100E90008091790280FF03C0CF010C94390780E074
:100EA0000895FF920F931F93CF93DF93CDB7DEB7D3
:100EB000A1970FB6F894DEBF0FBECDBFF82E8B0101
:100EC000CE0101960E94F205FF8282E08E83F80136
:100ED0006081CE0101960E94D4010E944007A19634
:100EE0000FB6F894DEBF0FBECDBFDF91CF911F913B
:100EF0000F91FF9008950F931F93CF93DF931F924D
:100F0000CDB7DEB78C01DC018C9190E0DC01AA0F3B
:100F1000BB1FAA0FBB1FAD56BD4F880F991F880F6F
:100F2000991FFC01E956FD4F15966C9180810E9436
:100F3000B700D801EC91B4E0EB9FF0011124ED561D
:100F4000FD4F838190E0658183569E4F0E94D518A6
:100F5000F8018081F4E08F9FC0011124FC01ED565F
:100F6000FD4F21E03581311101C020E029838D56EC
:100F70009D4FBE016F5F7F4FDC0113968C910E94E5
:100F800051070F90DF91CF911F910F910895EF922C
:100F9000FF920F931F93CF93DF93CDB7DEB7A19747
:100FA0000FB6F894DEBF0FBECDBFE82EF62E8A0135
:100FB000CE0101960E94F205EF82FE82F801608167
:100FC0007181CE0101960E94EC030E944007A19618
:100FD0000FB6F894DEBF0FBECDBFDF91CF911F914A
:100FE0000F91FF90EF900895EF92FF920F931F9350
:100FF000CF93DF93CDB7DEB7A1970FB6F894DEBFDE
:101000000FBECDBFE82EF62E8A01CE0101960E94BA
:10101000F205EF82FE82F801208131818C81877098
:1010200080618C838D818F7180648D83398728875F
:10103000CE0101960E944007A1960FB6F894DEBF3C
:101040000FBECDBFDF91CF911F910F91FF90EF9019
:1010500008951F93CF93DF93182F262FEA0150E0B6
:1010600040E0682F80E00E94A7001F3F11F4CFE509
:10107000D1E0BE010E94EC03DF91CF911F910C944F
:1010800039072F923F924F925F926F927F928F9289
:101090009F92AF92BF92CF92DF92EF92FF920F9307
:1010A0001F93CF93DF9300D000D01F92CDB7DEB750
:1010B000809125018F3F09F45DC097E1C92ED12CA5
:1010C00020E3622E712C3BEF232E40E1442E512C65
:1010D00003E010E052E0E52EF12C64E0862E912C26
:1010E000E0912501E93008F04BC1E150E83008F00B
:1010F00041C0F0E0E258F74F0C94B61A8E08D208BF
:1011000019094909990988088808A809882351F00C
:10111000809125018F5F80932501E2CF89EEA82E73
:1011200083E0B82E64E670E080E090E00E94EF0B70
:101130002BE043E050E06FEF80E00E94A7006BE6F9
:1011400071E00E94EC030E943907382E2CE043E046
:1011500050E06FEF80E00E94A70060E871E00E941D
:10116000EC030E943907832191E0A91AB10871F6B6
:101170008111CECF0F900F900F900F900F90DF91B5
:10118000CF911F910F91FF90EF90DF90CF90BF9084
:10119000AF909F908F907F906F905F904F903F9017
:1011A0002F9008959A82898244E851E0BE016F5FD2
:1011B0007F4F81E892E00E946F0D8823D9F2FA8276
:1011C000E982BE016F5F7F4F81E892E00E943F0D90
:1011D000882381F21A830983BE016F5F7F4F81E804
:1011E00092E00E943F0D882329F29A82898244E886
:1011F00051E0BE016F5F7F4F8AE892E00E946F0D61
:10120000882309F4B7CFFA82E982BE016F5F7F4F6E
:101210008AE892E00E943F0D882309F4ABCF1A833D
:101220000983BE016F5F7F4F8AE892E00E943F0D05
:101230009FCF1A83098342E951E0BE016F5F7F4F60
:1012400086E992E00E946F0D882309F493CFFA8219
:10125000E982BE016F5F7F4F86E992E00E943F0DF9
:10126000882309F487CF1A83098342E951E0BE013C
:101270006F5F7F4F8AE992E00E946F0D882309F427
:1012800079CFFA82E982BE016F5F7F4F8AE992E0EF
:10129000CDCF86EF8D8385EF8C838AEF8B835A8247
:1012A00049824FE951E0BE016F5F7F4FCE01039647
:1012B0000E946F0D882309F45DCFDA82C982BE01D6
:1012C0006F5F7F4FCE0103960E943F0D882309F484
:1012D00051CF1A83098340EB51E0BE016F5F7F4F0E
:1012E000CE0105960E946F0D882309F443CFFA8240
:1012F000E982BE016F5F7F4FCE0105960E943F0DD0
:10130000882309F437CFDA82C9824AEA51E0BE0164
:101310006F5F7F4FCE0104960E946F0D882309F402
:1013200029CF7A826982BE016F5F7F4FCE0104961A
:101330007DCF86E090E09A8389832B824CEB51E04D
:10134000BE016F5F7F4FCE0103960E946F0D10CFDD
:1013500094EF9B83DA82C98245EC51E0BE016F5F56
:101360007F4FCE0103960E946F0D882309F402CFB0
:101370007A826982BE016F5F7F4FCE01039656CF9E
:101380008FEF80932501F6CE2FE043E050E06FEF22
:1013900080E00E94A70061EE71E00E94EC03E8EBA0
:1013A000F2E0838187708061838384818F71806C98
:1013B000848381E087831086CF010E9439078FE004
:1013C0000E94B90B41EE51E061E170E08FEF0E94A5
:1013D000290826E043E050E06FEF80E00E94A7007C
:1013E00060917B020E94D4010E94390786E00E942E
:1013F000B90B0C9441084F925F926F927F928F923B
:101400009F92AF92BF92DF92EF92FF920F931F9342
:10141000CF93DF9300D01F92CDB7DEB726E02B83AA
:1014200000E010E0812C912C84E0A82E82E0B82E00
:10143000E12CFF24FA9487E10E94800680FD80C1A0
:101440008B8181508B83882309F47AC121E041E0AC
:1014500070E060E080E60E9407068983813220F018
:1014600082EE0E948606198221E0498169ED72E0D0
:1014700081E60E94070660E487E20E9446068091AA
:10148000DC02982F93709230B1F6E82FE695E6953E
:10149000E695EA3108F0E9E182FF57C089E1895F0A
:1014A00099819813C8CF8091DD02282F2770298356
:1014B0009091DE029A83D090DA022091D902909125
:1014C000DB023091FC0130683093FC0130917A02EC
:1014D00093130AC1F0E0E752FD4F178283FF15C056
:1014E00021E2E9EDF2E0A8EBB2E001900D922A953D
:1014F000E1F7877E80618093BC029093B902D0921D
:10150000BA0288EB92E00E9439079091DD0294FDC7
:10151000E3C02981233009F0DFC08091DE0221EF92
:10152000280F233008F487CF2A81243009F483CF91
:10153000283169F429E143E050E06FEF8D2D0E94DE
:10154000A70061E00E94D4012CC08E2FA8CF2A8171
:10155000293171F48091FB0183FF6DCF877F8093E8
:10156000FB0189ED92E00E9421048093FD0163CF8D
:101570002A812E3109F45FCF2D31B1F42FE143E000
:1015800050E06FEF80E00E94A700FC01838187702C
:101590008061838384818F7180648483F086E78295
:1015A000CF010E94010747CF2091DA02211199C093
:1015B0008D3059F488E198E00FB6F894A89580939F
:1015C00060000FBE90936000FFCF8B3179F489EDFE
:1015D00092E00E94210491E0811101C090E080918D
:1015E000790290FB80F98093790225CF863099F4B7
:1015F0009091E00281E0992319F09D3409F080E098
:101600008093780241E050E063E071E088E792E087
:101610000E94C51810CF833119F40E94C4090BCF62
:101620008231E1F40E94EB012B013C0126E143E011
:1016300050E06FEF80E00E94A700FC01838187707B
:101640008062838384818F71806A8483478250861D
:1016500061867286CF010E943907EDCE8230A9F4EF
:1016600022E043E050E06FEF80E00E94A700FC0121
:10167000838187708062838384818F71806A848391
:1016800087829086A186B286E5CF8130F9F4011574
:10169000110509F4D0CE929596959770953059F42E
:1016A0006091E0027091E1028091E2029091E30288
:1016B0000E940000C0CE911105C080EE92E00E9411
:1016C0003917F6CF60E070E0CB01F2CF8A3009F431
:1016D000B2CE8C3109F4AFCE89ED92E00E94320493
:1016E000AACE8A31C9F7A7CE9F3F09F0A4CE89813F
:1016F000833009F58091FB0182FF04C09A81973005
:1017000009F499CE8A81843109F095CE80917B02CB
:10171000281391CE0E9473017370882799270E9425
:10172000400125E143E050E06FEF8D2D0E94A700BE
:1017300060917B0207CF80917B0228137CCECCCFB7
:101740000F900F900F90DF91CF911F910F91FF900D
:10175000EF90DF90BF90AF909F908F907F906F90B1
:101760005F904F9008958091FB0184FD0C94FB09DC
:101770000895CF92DF92EF92FF92CF93DF93D82F0D
:101780000E9473016B017C018091DD028760809370
:10179000DD02C0E00E9473016C197D098E099F096A
:1017A000603D77408105910590F4C11110C0A89566
:1017B0000E94E0010E94B30B8091DD0287708330AC
:1017C00049F7C1E08091DE028D13E3CFE3CF8C2F88
:1017D000DF91CF91FF90EF90DF90CF9008958F929F
:1017E0009F92AF92BF92CF92DF92EF92FF924B0106
:1017F0005C010E9473016B017C010E9473016C19F2
:101800007D098E099F09681579058A059B0530F4C5
:10181000A8950E94E0010E94B30BEFCFFF90EF90DC
:10182000DF90CF90BF90AF909F908F9008959F9240
:10183000AF92BF92CF92DF92EF92FF920F931F93DE
:10184000CF93DF938C01DC01EC91B9E0EB9FF001C9
:101850001124E258FD4F8085918522853385821BB6
:10186000930B97FD48C081E0D9E0E82E880FFF0870
:10187000D801EC91DE9FF0011124E258FD4F8285E2
:101880009385208531858217930709F47AC08E0DE0
:101890009F1D93878287AC90DA9D50011124F5013A
:1018A000E258FD4F5F0162857385072E000C880B9F
:1018B000990B0E94B41720E030E048EC52E40E94FB
:1018C000E61920E030E04FE753E40E94EF170E9452
:1018D000581AC62F972EC62ED72ED5011496BC9017
:1018E0008B2D0E948800C114D10439F460E08B2D47
:1018F0000E94B70032C08FEFB7CFBFEFCB16D10435
:1019000011F461E0F4CFEB2DF0E0E859FF4FE491E2
:10191000E33009F447C048F4E130D9F0E230E9F1AE
:10192000E0E8CE16D1046CF7E1CFE73009F446C009
:10193000E83009F44BC0E43099F780918000806270
:10194000809380008C2F992D90938B0080938A0038
:1019500004C084B5806884BDC7BD6AE070E080E0E3
:1019600090E00E94EF0BD801EC91DE9FF001112472
:10197000E258FD4F8285938501978336910508F4DF
:1019800077CFDF91CF911F910F91FF90EF90DF9074
:10199000CF90BF90AF909F90089584B5806284BD32
:1019A000C8BDDBCF809180008068809380008C2F41
:1019B000992D9093890080938800CFCF8091B000BB
:1019C00080688093B000C093B300C7CF8091B0000F
:1019D00080628093B000C093B400BFCFFF920F939A
:1019E0001F93CF93DF931F92CDB7DEB78C010E9478
:1019F000170CD801EC9139E0F32EFE9EF001112472
:101A0000E258FD4F838190E0658183569E4F0E948E
:101A1000D518F801808190E0F89EF001F99EF00D54
:101A20001124E258FD4F21E03581311101C020E041
:101A3000298329E0F22EF89EF001F99EF00D112481
:101A4000E258FD4FBE016F5F7F4F83810E945107B7
:101A5000D8018C918F9DC0011124AC014A575D4F74
:101A600082589D4F63E070E0FC0183810E94F4077F
:101A70000F90DF91CF911F910F91FF900895CF921A
:101A8000DF92EF92FF920F931F93CF93DF937C012E
:101A90006B01C9EED3E0F6010081F701108164E625
:101AA00070E080E090E00E94EF0B202F42E050E0D9
:101AB000612F80E00E94A70061EE71E00E94EC03BC
:101AC0000E943907219711F0882329F3DF91CF91E4
:101AD0001F910F91FF90EF90DF90CF9008958F921C
:101AE0009F92AF92BF92CF92DF92EF92FF921F939D
:101AF000CF93DF936C015B017A01C9EED3E0F5016E
:101B000080809180F601108164E670E080E090E0D2
:101B10000E94EF0BA701B401812F0E942908219791
:101B200011F0882361F3DF91CF911F91FF90EF9027
:101B3000DF90CF90BF90AF909F908F90089564EF0B
:101B400071E080E090E00C94EF0B2F923F924F9267
:101B50005F926F927F928F929F92AF92BF92CF923D
:101B6000DF92EF92FF920F931F93CF93DF93CDB746
:101B7000DEB7A7970FB6F894DEBF0FBECDBF80913A
:101B800025018F3FA1F00E944108809125018F3FE0
:101B900009F4A2C30CE310E00150110909F49CC33D
:101BA00064EF71E080E090E00E94EF0BF5CF809150
:101BB000FB0182FFB5C38091ED019091EE016AE5D2
:101BC00070E00E948E1A892B29F08091A002882350
:101BD00009F45CC08FE00E9403012091A4023091BF
:101BE000A5022817390714F4821B930B2091A20237
:101BF0003091A3022817390791F097FD10C09093F8
:101C0000A3028093A2022091AC023091AD0228176A
:101C1000390708F4E9C01092A7021092A602809139
:101C2000A6029091A7022091A8023091A90228173C
:101C3000390721F42091A002222319F19093A902DF
:101C40008093A802A091A202B091A30224E630E002
:101C50000E94BC1A24E833E040E050E00E94E718FC
:101C60003A832983AE014F5F5F4F67E170E08AEFEF
:101C70000E94F407E091AA02F091AB02CE01019616
:101C800009958091A00281111092A0028091A10279
:101C9000882309F44FC01092A10266ED71E0CE01D5
:101CA00082960E944C036CEAC62E62E0D62EF12C7E
:101CB000E12C8E010F5F1F4F4AE0B801F6018191C0
:101CC00091916F010E948817F80101900020E9F7B7
:101CD0003197AF01401B510BB801CE0182960E9493
:101CE000FA02F5E0EF16F10441F041E050E060EE59
:101CF00071E0CE0182960E94FA022FEFE21AF20AF8
:101D000086E0E816F104C1F642E050E062EE71E0D0
:101D1000CE0182960E94FA028AA19BA19A838983AE
:101D2000A80160E370E085EF0E94C707CE018296AC
:101D30000E94CA0280919F02882359F010929F024C
:101D400080919E028983BE016F5F7F4F86EF0E9464
:101D500051078091ED019091EE0161E470E00E94E5
:101D60008E1A892B09F0DEC0198289E0F82E94E6DC
:101D7000292E312C412C512C2DE2C22ED12C39E1AF
:101D8000A32EB12C44E6842E912C55E5652E712CA2
:101D90000981023008F0C6C010E0F09EF001F19E0B
:101DA000F00D1124E258FD4FE580EE20C9F0A0911E
:101DB0007F02B0918002109799F08C91882381F076
:101DC00018968D919C918330910509F48AC008F092
:101DD00044C08130910509F49CC0029709F48EC07B
:101DE00089818F5F8983D4CF2091AE023091AF0279
:101DF0002817390738F081E090E09093A70280938C
:101E0000A6020DCF2091B0023091B10228173907F8
:101E100018F082E090E0F1CF2091B2023091B3024D
:101E20002817390718F083E090E0E7CF2091B4023B
:101E30003091B5022817390718F084E090E0DDCF23
:101E40002091B6023091B7022817390718F085E0C3
:101E500090E0D3CF86E090E0D0CF8530910599F027
:101E6000A8F1069709F0BCCFA085B185AA31B105CC
:101E7000DCF4F09EF001F19EF00D1124E258FD4FCC
:101E8000B186A08603C011861086E12CF09EF00179
:101E9000F19EF00D1124E258FD4FE582E782CE015C
:101EA00001960E94EE0C9CCF29E130E00E94BC1A02
:101EB000A20191010E94E718F09EF001F19EF00D41
:101EC0001124E258FD4F31872087E0CFA085B185EE
:101ED000AE32B1051CF4D186C086D8CF2DE230E0F9
:101EE000E5CFA085B185A234B1052CF481E490E062
:101EF00091878087CBCF21E430E0D8CFA085B18512
:101F0000A635B1051CF471866086C0CF25E530E0AA
:101F1000CDCF808591858436910509F461CF918676
:101F20008086B4CF80917E02882309F452C010923B
:101F30007E02198219E001E0E981E23008F049C02F
:101F40001E9FF0011124E258FD4F86818823B1F0D5
:101F5000858197818917B1F08783CE0101960E9410
:101F6000EE0CE9811E9FF0011124E258FD4F16820C
:101F700062E370E080E090E00E94EF0B89818F5F68
:101F80008983DACF811108C08085918518161906DA
:101F900064F405830783E1CF813039F4808591852E
:101FA000892B19F415821782D8CFCE0101960E9491
:101FB000170C8981819FC0011124AC014A575D4FE4
:101FC00082589D4F63E070E0FC0183810E94F4071A
:101FD000C8CF8091ED019091EE0166E470E00E941F
:101FE0008E1A892B29F51982E981E23008F524E05F
:101FF000E29FF0011124ED56FD4F85818823A1F069
:10200000A0919402B0919502109771F08C91882361
:1020100059F018968D919C910497039728F4158296
:10202000CE0101960E947B0789818F5F8983DCCF77
:10203000809193028823C1F0109293021982E98162
:10204000E23090F484E0E89FF0011124ED56FD4F5A
:102050008681882329F01682CE0101960E947B0793
:1020600089818F5F8983EBCF8091ED019091EE01A3
:1020700067EB70E00E948E1A892B29F08091230172
:10208000882309F454C088EC80937C0080917A0006
:10209000806880937A0064E170E080E090E00E94C4
:1020A000400180917A00806480937A0080917A0068
:1020B00086FDFCCF609178007091790090E080E01F
:1020C0000E94B2172EEA37E242EA53E40E947919DD
:1020D00026EF38E24CE95FE30E94E6190E94581AA5
:1020E000613801F1809124018617E1F060932401A9
:1020F000CE0101960E94F2058BEF8F831E82209104
:102100002401022E000C330B8C81877080618C833C
:102110008D818F7180648D8339872887CE010196E8
:102120000E94400780912301811110922301809128
:10213000ED019091EE016CE271E00E948E1A892B04
:1021400021F080912101882349F18EE00E94030152
:102150006AE070E00E94A21A8B016536710514F0E6
:1021600004E610E017FF02C010E000E080912201B9
:102170008017110671F00093220120E043E050E047
:102180006FEF80E00E94A700602F0E94D4010E94A0
:102190003907809121018111109221018091ED0177
:1021A0009091EE016EE771E00E948E1A892B29F062
:1021B00080911E01882309F462C088E00E94800695
:1021C0008F7023EE3FEF98E0899F20193109112489
:1021D000032E000C440B550B2B5A3F4F4F4F5F4FB4
:1021E000A4E6B0E00E9406192DE230E040E050E0A5
:1021F0000E94E7182536310514F024E630E037FF59
:1022000002C030E020E080911F019091200128174A
:10221000390781F13093200120931F0165EE71E0B1
:10222000CE0182960E944C034AE08E010F5F1F4F41
:10223000B80180911F01909120010E946017F80160
:1022400001900020E9F73197AF01401B510BB80115
:10225000CE0182960E94FA028AA19BA19A83898369
:10226000A8016CE170E08EEF0E94C707CE01829654
:102270000E94CA0280911E01811110921E0180915C
:102280001D018823E1F010921D01EDB7FEB700811A
:1022900010E0CE0101960E94F20584EF8F8380E367
:1022A0008E838C81877080618C838D818F71806635
:1022B0008D8319870887CE0101960E94400780917F
:1022C000ED019091EE0101968036EAEE9E0718F539
:1022D0009093EE018093ED0168EE73E080E090E072
:1022E0000E94EF0BA7960FB6F894DEBF0FBECDBFCE
:1022F000DF91CF911F910F91FF90EF90DF90CF90E2
:10230000BF90AF909F908F907F906F905F904F9015
:102310003F902F9008951092EE011092ED01DCCFC6
:1023200060E177E280E090E00E94EF0BD5CFFF9272
:102330000F931F93CF93DF938FE00E94030110E070
:1023400000E0D0E0C0E00E9473016838734181056D
:10235000910598F464E670E080E090E00E94EF0B55
:102360008FE00E940301C817D9072CF0801791074E
:102370000CF48C01CE01EC01E6CFC01BD10BCF31A8
:10238000D1050CF06BC0D093A502C093A40283E9E1
:1023900092E00E94BD1891E0811101C090E09093FD
:1023A0009E02FFB6F894CEE7D2E000E912E08B81FE
:1023B00090E083569E4F0E94BD188D831F8291E04E
:1023C000811101C090E09E8381114DC090E080E0BA
:1023D000998788871B861A868C810E9488008C8149
:1023E0008550823020F485B5887F826085BD29962E
:1023F0000C171D07E1F6FFBECFB7F8948091960247
:1024000090E083569E4F0E94BD188093980291E001
:10241000811101C090E090939902809197020E94EF
:10242000880080919A0290E083569E4F0E94BD18CA
:1024300080939C0291E0811101C090E090939D02F5
:1024400080919B020E948800CFBF83E080932E0181
:10245000DF91CF911F910F91FF9008951092A502E7
:102460001092A40294CF84E690E0B2CFCF938091F3
:10247000790281FD20C00E94C409809179028160A7
:1024800080937902C4E02AE143E050E06FEF80E0FE
:102490000E94A70062E00E94D4010E9439078BE1EC
:1024A0000E94B90B811102C0C15069F78091790275
:1024B000826080937902CF9108958FEF8093FD0120
:1024C000EBEFF1E080818860808328E143E050E019
:1024D0006FEF80E00E94A70061E00E94D4010C949D
:1024E000010780917A028F3F69F423E043E050E0D6
:1024F0006FEF80E00E94A70061EE71E00E94EC03A4
:102500000C9401070895CF93219A229A29982A9A28
:10251000CFB7F8948091EC01811124C0EAE9F0E092
:102520008491EEEAF0E09491E82FF0E0EE0FFF1FC7
:10253000EA57FF4FA591B491EC91E92321F461E0B2
:102540008AE00E94B7008AE00E9488008CB5806112
:102550008CBD8CB580648CBD8DE00E9488008BE0C2
:102560000E9488008091EC018F5F8093EC01CFBFC7
:1025700029986EE080E20E94460684E293E2019789
:10258000F1F763E083E20E9446066FE584E20E9471
:1025900046066CE485E20E94460665E286E20E94F9
:1025A000460664E08DE30E9446068DE10E948006A7
:1025B000843041F063E780E50E94460664E08DE3E5
:1025C0000E94460686E00E948006853209F04DC0D2
:1025D00085E00E9480068C3409F047C062E082E208
:1025E0000E94460660E081E20E94460663E08CE3BA
:1025F0000E9446068FEF8093030120E045E063E0F0
:1026000071E08BE20E94070620E045E063E071E0A4
:102610008AE20E94070620E045E063E071E080E383
:102620000E94070682EE0E94860681EE0E948606C0
:1026300060E787E20E9446068091FB0180618093FB
:10264000FB0180917D028E7F80937D0286E18093E5
:102650007A0266E190E080E00E94D518C0917A028B
:10266000CF3F41F481E191E002C089E091E0CF9158
:102670000C94FE018FEF8C0F8E3FB8F7C0930801CA
:1026800063E082E20E94460661E081E20E94460623
:102690000E9473066C2F90E080E00E94D518E2CF74
:1026A0001F920F920FB60F9211242F933F938F9387
:1026B0009F93AF93BF938091700290917102A0910C
:1026C0007202B091730230916F0226E0230F2D3712
:1026D00058F50296A11DB11D20936F0280937002E0
:1026E00090937102A0937202B0937302809174026E
:1026F00090917502A0917602B09177020196A11D8A
:10270000B11D8093740290937502A0937602B093EA
:102710007702BF91AF919F918F913F912F910F9031
:102720000FBE0F901F90189529E8230F0396A11D47
:10273000B11DD2CF1F920F920FB60F9211242F937B
:102740003F934F935F936F937F938F939F93AF9339
:10275000BF93EF93FF93E0912C01F0912D01099528
:10276000FF91EF91BF91AF919F918F917F916F9169
:102770005F914F913F912F910F900FBE0F901F903F
:1027800018951F920F920FB60F9211242F933F931B
:102790004F935F936F937F938F939F93AF93BF9369
:1027A000EF93FF93E0912A01F0912B010995FF919E
:1027B000EF91BF91AF919F918F917F916F915F91B9
:1027C0004F913F912F910F900FBE0F901F90189532
:1027D0001F920F920FB60F9211242F933F934F9396
:1027E0005F936F937F938F939F93AF93BF93EF9379
:1027F000FF938091B900887F803609F44AC0F0F5D4
:10280000883209F4A5C018F5803109F499C0B8F4EC
:10281000882309F4F5C0883009F492C0FF91EF9144
:10282000BF91AF919F918F917F916F915F914F91E8
:102830003F912F910F900FBE0F901F9018958831E8
:1028400009F486C0803251F78093480214C0803466
:1028500009F49BC040F48033B9F38833F9F68093D0
:10286000480285ECAEC0803509F483C0883509F490
:1028700094C0883499F60E946103D0CF883909F456
:102880008AC038F5883729F050F4883611F080373F
:1028900029F683E0809349021092470255C0883898
:1028A00009F479C0803919F0803809F0B7CF8091E8
:1028B0004702803208F06FC0E091470281E08E0F3E
:1028C000809347028091BB00F0E0E95DFD4F80837B
:1028D0003BC0803B39F0D0F4803A09F477C0883AA5
:1028E00009F09CCF84E08093490210922602109256
:1028F0002502F0E0E0E009958091250281110FC0EA
:1029000081E0809325021092050209C0803C09F401
:10291000A8CF883C09F4A5CF883B09F07FCFE09190
:10292000260281E08E0F80932602F0E0EB5FFD4FE0
:1029300080818093BB00909126028091250229C05E
:1029400080916E028093BB0085EC8093BC0066CFC3
:1029500090916D0280916C02981758F5E0916D028C
:1029600081E08E0F80936D02F0E0E45BFD4F80818B
:10297000E9CFE0916D0281E08E0F80936D0280912E
:10298000BB00F0E0E45BFD4F808390916D0280918D
:102990006C029817C8F285E8D8CFE0916D0281E00B
:1029A0008E0F80936D028091BB00F0E0E45BFD4FE1
:1029B000808380914B0281115ECF81E080934A0237
:1029C00084EA8093BC001092490228CF85EC809362
:1029D000BC001092490280914702803230F4E091AD
:1029E0004702F0E0E95DFD4F10826091470270E020
:1029F00087E292E0F0E0E0E00995109247020ECF06
:102A00001092480238CF1F920F920FB60F921124E6
:102A10000F900FBE0F901F901895CF93DF9389ED05
:102A200092E00E94F20588EB92E00E94F205E2EA51
:102A3000F2E088E0DF011D928A95E9F7CEE9D2E065
:102A40008091350190913601A0913701B091380104
:102A500088839983AA83BB8387E890E09D878C87CE
:102A60008CE0E9E3F1E0ACEAB2E001900D928A95E6
:102A7000E1F783E992E021E0FC01208338E0E5E41E
:102A8000F1E0A6E9B2E001900D923A95E1F7DC01A0
:102A90001296DC93CE9311978EE792E0FC0120838F
:102AA00022E1EDE4F1E0A1E8B2E001900D922A9577
:102AB000E1F7DC011296DC93CE931197DF91CF9171
:102AC0000895789484B5826084BD84B5816084BDA6
:102AD00085B5826085BD85B5816085BD80916E00BC
:102AE000816080936E0010928100809181008260ED
:102AF000809381008091810081608093810080912A
:102B000080008160809380008091B1008460809318
:102B1000B1008091B00081608093B00080917A0014
:102B2000846080937A0080917A00826080937A003A
:102B300080917A008E7F80937A0080917A008068FD
:102B400080937A001092C100A89580E090E0892BD4
:102B500011F00E940000809179028D7F80937902AC
:102B60000E949F0D41E050E063E071E088E792E051
:102B70000E94AD1860E081E090E00E94D51880913D
:102B8000FC018F788093FC011092F2011092F10108
:102B900086E291E00E94FE0186E392E19093F001CB
:102BA0008093EF010E9473010E9473010E94E00173
:102BB0000E94B30B8091FB0182FB882780F9A895C6
:102BC000882391F30E949711A895C0E0D0E0A895C2
:102BD0000E94E0018091FB0184FD0E94FB090E949C
:102BE000A50D2097A1F30E940000F1CF0F931F9332
:102BF000CF93DF938230910510F482E090E0E09172
:102C0000FC02F091FD0230E020E0B0E0A0E030975F
:102C100099F42115310509F44AC0281B390B2430D9
:102C20003105D8F58A819B816115710589F1FB0118
:102C300093838283FE0111C04081518102811381FF
:102C400048175907E0F04817590799F4109761F0B1
:102C500012960C93129713961C933296CF01DF9124
:102C6000CF911F910F9108950093FC021093FD02E4
:102C7000F4CF2115310551F04217530738F0A9015F
:102C8000DB019A01BD01DF01F801C1CFEF01F9CFEE
:102C90009093FD028093FC02CDCFFE01E20FF31F63
:102CA000819391932250310939832883D7CF209182
:102CB000FA023091FB02232B41F420913101309133
:102CC00032013093FB022093FA0220912F013091C0
:102CD00030012115310541F42DB73EB74091330144
:102CE00050913401241B350BE091FA02F091FB0264
:102CF000E217F307A0F42E1B3F0B2817390778F0D3
:102D0000AC014E5F5F4F2417350748F04E0F5F1F31
:102D10005093FB024093FA02819391939FCFF0E08E
:102D2000E0E09CCFCF93DF930097E9F0FC0132976E
:102D300013821282A091FC02B091FD02ED0130E0FD
:102D400020E01097A1F420813181820F931F209100
:102D5000FA023091FB022817390709F061C0F0939D
:102D6000FB02E093FA02DF91CF910895EA01CE17BA
:102D7000DF07E8F54A815B819E0141155105B1F7F6
:102D8000E901FB83EA8349915991C40FD51FEC17E0
:102D9000FD0761F4808191810296840F951FE901FE
:102DA00099838883828193819B838A83F0E0E0E02A
:102DB00012968D919C9113970097B9F52D913C91A6
:102DC0001197CD010296820F931F2091FA02309144
:102DD000FB022817390739F6309751F51092FD029A
:102DE0001092FC02B093FB02A093FA02BCCFD383F3
:102DF000C28340815181840F951FC817D90761F4A0
:102E00004E5F5F4F88819981480F591F51834083DE
:102E10008A819B81938382832115310509F0B0CF8C
:102E2000F093FD02E093FC029ECFFD01DC01C0CFD8
:102E300013821282D7CFFC0188279927E894219129
:102E40002032E9F3293010F02E30C8F32B3241F054
:102E50002D3239F4689404C00E948017820F911DAE
:102E6000219120532A30C0F31EF4909581959F4FF5
:102E700008951F93FC0199278827BC01E8941191BC
:102E80001032E9F3193010F01E30C8F31B3251F044
:102E90001D3249F4689406C00E946B17610F711DC2
:102EA000811D911D119110531A30B0F33EF490958D
:102EB0008095709561957F4F8F4F9F4F1F9108951B
:102EC000BB274A3031F4992322F4BDE290958195D5
:102ED0009F4F0C948917592F482F372F262F660F95
:102EE000771F881F991F660F771F881F991F620F12
:102EF000731F841F951F660F771F881F991F0895E2
:102F00007AE0979F902D879F802D910D1124089531
:102F1000BB27FB015527AA27880F991FAA1FA417B3
:102F200010F0A41B83955051B9F7A05DAA3308F0A7
:102F3000A95DA193009779F7B111B1931192CB01DB
:102F40000C94A217DC01FC01672F71917723E1F744
:102F5000329704C07C916D9370836291AE17BF0766
:102F6000C8F30895E89409C097FB3EF490958095C6
:102F7000709561957F4F8F4F9F4F9923A9F0F92F3F
:102F800096E9BB279395F695879577956795B795BD
:102F9000F111F8CFFAF4BB0F11F460FF1BC06F5FA3
:102FA0007F4F8F4F9F4F16C0882311F096E911C0B5
:102FB000772321F09EE8872F762F05C0662371F0D6
:102FC00096E8862F70E060E02AF09A95660F771FEA
:102FD000881FDAF7880F9695879597F908950E94CC
:102FE00002180C9473180E94651838F00E946C182F
:102FF00020F0952311F00C945C180C9462181124A5
:103000000C94A7180E94841870F3959FC1F3950F34
:1030100050E0551F629FF001729FBB27F00DB11D5C
:10302000639FAA27F00DB11DAA1F649F6627B00DEC
:10303000A11D661F829F2227B00DA11D621F739FD5
:10304000B00DA11D621F839FA00D611D221F749FE3
:103050003327A00D611D231F849F600D211D822F2A
:10306000762F6A2F11249F5750409AF0F1F0882351
:103070004AF0EE0FFF1FBB1F661F771F881F91507E
:103080005040A9F79E3F510580F00C945C180C94B9
:10309000A7185F3FE4F3983ED4F38695779567953C
:1030A000B795F795E7959F5FC1F7FE2B880F911DA8
:1030B0009695879597F9089597F99F6780E870E04E
:1030C00060E008959FEF80EC089500240A9416169E
:1030D000170618060906089500240A941216130606
:1030E000140605060895092E0394000C11F4882394
:1030F00052F0BB0F40F4BF2B11F460FF04C06F5FB0
:103100007F4F8F4F9F4F089557FD9058440F551F85
:1031100059F05F3F71F04795880F97FB991F61F059
:103120009F3F79F087950895121613061406551FD0
:10313000F2CF4695F1DF08C0161617061806991F3C
:10314000F1CF86957105610508940895E894BB2731
:1031500066277727CB0197F90895DC01CB01FC01A5
:10316000F999FECF06C0F2BDE1BDF89A319600B4E0
:103170000D9241505040B8F70895F999FECF92BD95
:1031800081BDF89A992780B50895DC01A40FB51F79
:103190004150504048F0CB01840F951F2E910E9462
:1031A000D61841505040D0F70895262FF999FECFF8
:1031B00092BD81BDF89A019700B4021639F01FBA8A
:1031C00020BD0FB6F894FA9AF99A0FBE0895052E0D
:1031D00097FB1EF400940E94FE1857FD07D00E9432
:1031E000481907FC03D04EF40C94FE1850954095F6
:1031F000309521953F4F4F4F5F4F089590958095A3
:10320000709561957F4F8F4F9F4F08950E946A1967
:10321000A59F900DB49F900DA49F800D911D11242A
:1032200008952F923F924F925F926F927F928F926A
:103230009F92AF92BF92CF92DF92EF92FF920F9345
:103240001F93CF93DF93CDB7DEB7CA1BDB0B0FB64F
:10325000F894DEBF0FBECDBF09942A88398848880C
:103260005F846E847D848C849B84AA84B984C884A2
:10327000DF80EE80FD800C811B81AA81B981CE0F99
:10328000D11D0FB6F894DEBF0FBECDBFED0108957E
:10329000A1E21A2EAA1BBB1BFD010DC0AA1FBB1F5A
:1032A000EE1FFF1FA217B307E407F50720F0A21BCC
:1032B000B30BE40BF50B661F771F881F991F1A9439
:1032C00069F760957095809590959B01AC01BD0163
:1032D000CF010895A29FB001B39FC001A39F700DBD
:1032E000811D1124911DB29F700D811D1124911D0E
:1032F00008955058BB27AA270E9491190C9473185F
:103300000E94651838F00E946C1820F039F49F3F35
:1033100019F426F40C9462180EF4E095E7FB0C9473
:103320005C18E92F0E94841858F3BA1762077307D4
:103330008407950720F079F4A6F50C94A6180EF4EE
:10334000E0950B2EBA2FA02D0B01B90190010C01B5
:10335000CA01A0011124FF27591B99F0593F50F4CD
:10336000503E68F11A16F040A22F232F342F442725
:10337000585FF3CF469537952795A795F04053951D
:10338000C9F77EF41F16BA0B620B730B840BBAF0ED
:103390009150A1F0FF0FBB1F661F771F881FC2F758
:1033A0000EC0BA0F621F731F841F48F4879577956C
:1033B0006795B795F7959E3F08F0B0CF9395880F26
:1033C00008F09927EE0F9795879508950E94FA19AE
:1033D0000C9473180E946C1858F00E94651840F005
:1033E00029F45F3F29F00C945C1851110C94A71834
:1033F0000C9462180E94841868F39923B1F3552342
:1034000091F3951B550BBB27AA27621773078407F7
:1034100038F09F5F5F4F220F331F441FAA1FA9F38D
:1034200035D00E2E3AF0E0E832D091505040E6957B
:10343000001CCAF72BD0FE2F29D0660F771F881FDC
:10344000BB1F261737074807AB07B0E809F0BB0BCF
:10345000802DBF01FF2793585F4F3AF09E3F5105E3
:1034600078F00C945C180C94A7185F3FE4F3983E36
:10347000D4F3869577956795B795F7959F5FC9F7CC
:10348000880F911D9695879597F90895E1E0660F4D
:10349000771F881FBB1F621773078407BA0720F0C6
:1034A000621B730B840BBA0BEE1F88F7E09508952F
:1034B0000E945F1A6894B1110C94A71808950E9495
:1034C0008C1888F09F5798F0B92F9927B751B0F012
:1034D000E1F0660F771F881F991F1AF0BA95C9F798
:1034E00014C0B13091F00E94A618B1E008950C9478
:1034F000A618672F782F8827B85F39F0B93FCCF32B
:10350000869577956795B395D9F73EF49095809514
:10351000709561957F4F8F4F9F4F0895AA1BBB1BDE
:1035200051E107C0AA1FBB1FA617B70710F0A61BC3
:10353000B70B881F991F5A95A9F780959095BC01E4
:10354000CD01089597FB072E16F4009407D077FD60
:1035500009D00E948E1A07FC05D03EF49095819503
:103560009F4F0895709561957F4F0895EE0FFF1F4F
:103570000590F491E02D09940E946A19B7FF08950F
:10358000821B930B0895B0E0A0E0E9ECFAE10C9403
:1035900013198C01009751F4CB010E94F6158C0190
:1035A000C801CDB7DEB7E0E10C942F19FC01E60F9E
:1035B000F71F9C0122503109E217F30708F49DC060
:1035C000D901CD91DC911197C617D70798F0C53076
:1035D000D10530F3CE0104978617970708F3C61B71
:1035E000D70B2297C193D1936D937C93CF010E9407
:1035F0009216D6CF5B01AC1ABD0A4C018C0E9D1EF3
:10360000A091FC02B091FD02512C412CF12CE12C37
:10361000109731F58091FA029091FB028815990577
:1036200009F05CC04616570608F058C080912F017B
:1036300090913001009741F48DB79EB740913301CE
:1036400050913401841B950BE817F90708F055C019
:10365000F093FB02E093FA02F90171836083A0CF3B
:103660008D919C91119712966C90129713967C9065
:103670001397A815B90559F56C0142E0C40ED11C89
:10368000CA14DB0420F1AC014A195B09DA01129675
:10369000159780F06282738251834083D9016D93C4
:1036A0007C93E114F10471F0D7011396FC93EE932F
:1036B000129776CF22968C0F9D1FF90191838083FC
:1036C000F301EFCFF093FD02E093FC0269CF4816BF
:1036D000590608F42C017D01D3019ACFCB010E9439
:1036E000F6157C01009749F0AE01B8010E94801BDD
:1036F000C8010E949216870153CF10E000E050CF1E
:10370000FB01DC0102C001900D9241505040D8F7FE
:103710000895FB01DC0101900D920020E1F708956E
:10372000FB01DC014150504048F001900D92002017
:10373000C9F701C01D9241505040E0F70895F89438
:02374000FFCFB9
:10374200FFFFFF00FCE1A8A8FF57062A02711295AD
:1037520002BA02AF025D12660254024A020101007D
:10376200000100010001D60383127F017F010100E5
:1037720000FE02800001010100020005000A000FA4
:1037820000190023000008000001070000030500E3
:1037920000000000000004060000000000000032EB
:1037A2002E342E302D616C70686100556E69742D57
:1037B2004C696768744E6F64652D72322D643200F5
:1037C200312E340044696D6D65722E4C69676874E0
:1037D200730052656C61792E4C6967687473004995
:1037E2006E742E4C69676874730053657475702E1D
:1037F2004175746F2E4C696768747300496E742E3C
:1038020054656D7000556E69742E4D656D6F7279D9
:103812002E46726565007B2264617461223A5B0008
:0C3822002C005D7D00727373693A000099
:00000001FF
