:020000040000FA
:100000000C945D000C94BF130C9498130C94850011
:100010000C9485000C9485000C9401150C948500BB
:100020000C9485000C9485000C9485000C9485003C
:100030000C9485000C9485000C9485000C9485002C
:100040000C944E130C9485000C9485000C94850040
:100050000C9485000C9485000C9485000C9485000C
:100060000C94E6130C9485000000000800020100C7
:100070000003040700000000000000000000000072
:10008000250028002B0000000000240027002A0083
:10009000040404040404040402020202020203032E
:1000A0000303030301020408102040800102040836
:1000B00010200102040810200B1511241FBECFEFE1
:1000C000D8E0DEBFCDBF11E0A0E0B1E0EAEEF6E39C
:1000D00002C005900D92A23EB107D9F722E0A2EE30
:1000E000B1E001C01D92AA3DB207E1F710E0CDE5F5
:1000F000D0E004C02197FE010E948A1ACC35D107B6
:10010000C9F70E9437150C94731B0C94000090E003
:10011000FC01EC55FF4F249180579F4FFC018491C7
:10012000882399F090E0880F991FFC01EA57FF4F50
:10013000A591B491FC01E458FF4F859194918FB73C
:10014000F894EC91E22BEC938FBF0895942FE4E99F
:10015000F2E030917002318382836683258344818B
:10016000487F492B477E4483CF01089590E0FC01EE
:10017000E859FF4F2491FC01EC55FF4F3491FC01ED
:10018000E057FF4FE491EE23C9F0222339F02330EA
:1001900001F1A8F4213019F1223029F1F0E0EE0F3D
:1001A000FF1FE458FF4FA591B4918FB7F894EC91DD
:1001B000611126C030953E233C938FBF08952730B0
:1001C000A9F02830C9F0243049F7809180008F7D54
:1001D00003C0809180008F7780938000DFCF84B54B
:1001E0008F7784BDDBCF84B58F7DFBCF8091B0004E
:1001F0008F778093B000D2CF8091B0008F7DF9CF00
:100200003E2BDACF20912E0190E4299F90011124FA
:100210008E50822B80937C0080917A008064809342
:100220007A0080917A0086FDFCCF809178009091D1
:10023000790008953FB7F89480916A0290916B021B
:10024000A0916C02B0916D0226B5A89B05C02F3F0E
:1002500019F00196A11DB11D3FBFBA2FA92F982FEC
:100260008827BC01CD01620F711D811D911D43E0E6
:10027000660F771F881F991F4A95D1F708958F92AF
:100280009F92AF92BF92CF92DF92EF92FF926B015B
:100290007C010E941A014B015C01C114D104E104EC
:1002A000F104B9F00E941A01681979098A099B09B9
:1002B000683E73408105910580F321E0C21AD108A0
:1002C000E108F10888EE880E83E0981EA11CB11C9D
:1002D000E4CFFF90EF90DF90CF90BF90AF909F90D2
:1002E0008F9008952FB7F89460916602709167021D
:1002F00080916802909169022FBF0895089520911E
:100300001B02260F3327331F21323105ECF42091D5
:100310003F02FC0190E080E0243069F082E0089523
:10032000A0911B022191AC0145505E4FA40FB52F47
:10033000B11D2C930196861798F380911B02680FCC
:1003400060931B0280E0089581E0089508958FEF87
:100350009FEF08958FEF9FEF08958091F40190E053
:100360009195819591090895CF93DF93CB01EA018F
:10037000642F0E947F01CE01DF91CF910895CF932A
:10038000DF931F92CDB7DEB7698361E0CE0101969E
:100390000E947F0181E090E00F90DF91CF9108955E
:1003A00090E080E008950895FC0183818770886063
:1003B000838384818F71806284836783CF010895F2
:1003C000E091E701F091E801309721F00280F3819C
:1003D000E02D099408950F931F930E9472010091DC
:1003E000E9011091EA012091EB013091EC01601BD1
:1003F000710B820B930B1F910F9108959C018091BB
:10040000E7019091E80182179307F1F09091F101D3
:100410009F719093F1013093E8012093E701E091FF
:10042000E701F091E801309721F00190F081E02D93
:1004300009950E9472016093E9017093EA0180932B
:10044000EB019093EC0108958091F101805E80931F
:10045000F101E5CF0F931F930E94EB012091F20170
:100460002077203779F000E117E220E030E006172E
:1004700017072807390758F486E291E01F910F917A
:100480000C94FE0100E61AEE20E030E0F0CF1F9160
:100490000F9108958091F201982F9F70963018F077
:1004A000807F8093F20108958091F10184608093B0
:1004B000F1018091F20180788093F201E091E501F1
:1004C000F091E601309709F009940895CF93C09117
:1004D000F301CF3FA1F00E9472016093ED01709390
:1004E000EE018093EF019093F00180917202C813A6
:1004F000C093720289E191E0CF910C94FE010E94B9
:10050000EB01613D77408105910568F08091F10133
:10051000803618F485E191E0EFCF877F8093F10179
:1005200081E191E0E9CFCF910895809170028F3FF2
:1005300021F085E191E00C94FE010E94EB01613D08
:1005400077408105910550F08091F101803618F4D3
:100550008DE091E0F0CF89E091E0EDCF08958DE05E
:1005600091E00C94FE018EBD00000DB407FEFDCF9E
:100570008EB50895E1EFF1E08081897F8E7F8083E1
:10058000E0E7F2E081E08283118260E081E090E0C8
:100590000C94A918FC0180819181009711F00C94B2
:1005A000661608950F931F93CF93DF93EC01888114
:1005B0009981009759F02A813B812617370730F03F
:1005C00081E0DF91CF911F910F9108958B016F5FB3
:1005D0007F4F0E94971A009759F0998388831B8355
:1005E0000A832C813D81232B59F7FC011082E8CF2F
:1005F00080E0E7CFEF92FF920F931F93CF93DF93AB
:1006000041155105B1F07B01EC010C811D81040FF6
:10061000151FB8010E94D202882361F02881398118
:100620008C819D81B701820F931F0E945D1B1D83EA
:100630000C8381E0DF91CF911F910F91FF90EF909C
:100640000895EF92FF920F931F93CF93DF93EC01E6
:100650007B018A01BA010E94D2022881398181116D
:1006600014C02115310519F0C9010E9466161982BE
:1006700018821D821C821B821A82CE01DF91CF91CB
:100680001F910F91FF90EF9008951D830C83B70188
:10069000C9010E945D1BF1CFFC01118210821382FF
:1006A0001282158214826115710551F0FB010190CF
:1006B0000020E9F73197AF01461B570B0C9421033B
:1006C00008951F93CF93DF9385ED8093BC008091B5
:1006D000F7019091F801A091F901B091FA01079604
:1006E000A11DB11D23E0B695A795979587952A95ED
:1006F000D1F72091BC0024FD03C010923F0252C0EC
:100700004091F7015091F8016091F9017091FA015F
:10071000452B462B472B69F30097A105B10541F006
:100720002AE12A95F1F700C00197A109B109E1CFAB
:100730008091F601C1E0C093F501882399F1D09131
:10074000B8001091BA008091BC008A7B8093BC00F5
:1007500060E082E10E94B60060E083E10E94B600A2
:1007600010923F02C09341021092400261E082E188
:100770000E94B60061E083E10E94B6008091B9005A
:100780008E7F8093B9008091B9008D7F8093B900EE
:1007900080E28093B80085E48093BC001093BA0097
:1007A000D093B800DF91CF911F910895E1EFF1E070
:1007B0008081877F8F7E80831092ED011092EE0101
:1007C0001092EF011092F00144E050E070E060E020
:1007D00080E792E00C9481180F931F93CF93DF93DF
:1007E0008C0180E06115710551F0EB01099000204A
:1007F000E9F721978C2F861B8A3108F089E1F801EF
:10080000C381C770F8E08F9FC0011124C82BF80185
:10081000C38384818F718483C695C695C695CA317A
:1008200008F0C9E1D0E0AE01C80107960E94641B40
:10083000C00FD11F1F82C801DF91CF911F910F916F
:100840000895FC012481229526952770213011F40A
:1008500087810895211104C007960E94EF1608951C
:1008600080E008958F929F92AF92BF92CF92DF92D5
:10087000EF92FF920F931F93CF93DF93CDB7DEB725
:100880002C970FB6F894DEBF0FBECDBFFC013481AC
:1008900034FD2BC02581223089F02033C9F13EEF91
:1008A000320F323008F4E9C02033F9F4FC018681BC
:1008B000883FD9F481E080931D0117C036813A3F0B
:1008C00009F05CC110912F010E94210461E08111A7
:1008D00001C060E0161749F060932F0181E080931A
:1008E000300187E992E00E94A9182C960FB6F8947F
:1008F000DEBF0FBECDBFDF91CF911F910F91FF9053
:10090000EF90DF90CF90BF90AF909F908F90089521
:100910002681293F59F6329536953770BC01695FBB
:100920007F4F332311F070E060E0CE0107960E9404
:100930004C03F12CE12C10E000E090E080E02B85EE
:100940003C858217930708F071C0F6E0EF16F104BA
:1009500008F06CC02F813885AC014F5F5F4F5A01A2
:100960002115310509F470C0280F391FF9012081C4
:100970002B3309F063C06C018017910710F06801F8
:100980008C011A8219821C821B821E821D8250E0F9
:1009900040E068ED71E0CE0101960E9421038B8456
:1009A0009C84C814D90420F50815190508F44801D9
:1009B000EF81F885E80DF91D108110826F8178852F
:1009C0006C0D7D1D6115710509F440C0FB0101909E
:1009D0000020E9F73197AF01461B570BCE01019676
:1009E0000E9421038F819885880E991EF40110833F
:1009F0008D819E81892BA1F089819A81009799F13F
:100A00000E940D17161617065CF4F701EE0FFF1F74
:100A1000E55CFE4F71836083A7014F5F5F4F7A01F2
:100A20008501CE0101960E94CA020EC081E080932A
:100A30003201CE0107960E94CA0257CF2C3209F428
:100A40009ACF2C3709F497CFC50179CF89819A8144
:100A5000009711F00E9466161A8219821E821D826A
:100A60001C821B82BFCF60E070E0CB01CBCF4091F6
:100A7000900201E0431709F486C0FC0136814091E1
:100A800077023417B9F14091800201E034130CCFA2
:100A900010E02330A1F10E94210499E0909FF00121
:100AA000919FF00D1124EC58FD4F85839781891794
:100AB00009F41BCF882301F180859185181619064A
:100AC00014F084E690E029E0209FF001219FF00DD2
:100AD0001124EC58FD4F9187808789E0809FF001B9
:100AE000819FF00D1124EC58FD4F81E086838093A7
:100AF0007402FBCE00E0CCCF90E080E0E4CFFFB604
:100B0000F894FC0124812295269527702230C1F4A7
:100B10008781908585369105E4F497FF02C090E0C7
:100B200080E029E0209FF001219FF00D1124EC5876
:100B3000FD4F208531852817390771F4FFBED5CECA
:100B4000211104C007960E94EF16E4CF90E080E0E8
:100B5000E4CF84E690E0E5CF21E0181619060CF00A
:100B600020E0258329E0209FF001219FF00D112432
:100B7000EC58FD4F91878087FFBEAFCF40918C022C
:100B8000431375CF00E010E00E942104F801EE0F3E
:100B9000FF1FEE0FFF1FE757FD4F9581981709F4D0
:100BA000A4CE858381E08683809389029ECECF93F5
:100BB000DF93FC0110821182128214821582168248
:100BC000DC0117968AE1ED0119928A95E9F782E036
:100BD0008383DF91CF910895BF92CF92DF92EF92FE
:100BE000FF920F931F93CF93DF937B01042FB22EBD
:100BF00090E59CBD1DBC2A98E0E1F0E03197F1F74B
:100C00000E94B302182FE7010150A8F0BB2051F059
:100C10008FEF0E94B302182FE114F104A9F3888327
:100C20002196F2CF6E018FEFC81AD80A88810E94F0
:100C3000B302E601E9CF2A9A80E190E00197F1F74B
:100C4000812FDF91CF911F910F91FF90EF90DF9057
:100C5000CF90BF900895CF93DF931F92CDB7DEB7AB
:100C6000698320E041E0BE016F5F7F4F0E94EC0589
:100C70000F90DF91CF9108958091F201982F907796
:100C8000903759F0982F92959F709F5F977092952B
:100C9000907F8F78892B8093F2018091F1018B7F77
:100CA0008F7E8093F10129986CE080E20C942B06F2
:100CB0006FE080E20E942B06609108016F3F19F0FF
:100CC0008AE20E942B06299A089521E041E070E013
:100CD00060E00C94EC0520E040E070E060E00C94F3
:100CE000EC05FF920F931F93CF93DF9390917002C7
:100CF000FB0190834381C0E242FD08C046954695C2
:100D000046954A3108F049E1C7E0C40F909173025B
:100D1000D1E090FD03C08F3F09F0D0E0611571056F
:100D200009F44CC08B01F82E299880E091E00197DE
:100D3000F1F76EE080E20E942B0684EC90E00197D0
:100D4000F1F76F2D8AE20E942B066F2D80E30E943F
:100D50002B0681EE0E946B06DD2321F060E584E224
:100D60000E942B0620E04C2FB80180EA0E94EC057F
:100D7000299A10E000E08FEF0E946B06807339F42F
:100D80000F3F100721F0A8950F5F1F4FF4CF299850
:100D900060E787E20E942B06C82F84FF03C081EE24
:100DA0000E946B06DD2321F06FE584E20E942B0692
:100DB0000E945806C5FF03C0D1E001C0D0E08D2FCE
:100DC000DF91CF911F910F91FF9008950F931F9383
:100DD000CF938C01FC0182819091F10190FF04C0BE
:100DE0008F3F51F5CFEF04C0811116C0C091710241
:100DF000B8018C2F0E947106909171029C1313C050
:100E00009091F201811113C021E0290F2F70907F82
:100E1000922B9093F20107C08F3F21F3B8010E94FB
:100E20007106882319F3CF911F910F910895907F38
:100E30009093F20181E0F7CF80E0F5CF2091F101AE
:100E400022FD0C94E60680E00895FC01809170027A
:100E500081839481907F9960948380916F0280FF59
:100E600003C0CF010C941E0780E00895FF920F93FA
:100E70001F93CF93DF93CDB7DEB7A1970FB6F8944A
:100E8000DEBF0FBECDBFF82E8B01CE0101960E94B2
:100E9000D705FF8282E08E83F8016081CE01019642
:100EA0000E94D4010E942507A1960FB6F894DEBFD8
:100EB0000FBECDBFDF91CF911F910F91FF9008958D
:100EC0000F931F93CF93DF931F92CDB7DEB78C01A3
:100ED000DC018C9190E0DC01AA0FBB1FAA0FBB1FA5
:100EE000A757BD4F880F991F880F991FFC01E35723
:100EF000FD4F15966C9180810E94B600D801EC914F
:100F0000B4E0EB9FF0011124E757FD4F838190E09F
:100F1000658183569E4F0E94A918F8018081F4E0F4
:100F20008F9FC0011124FC01E757FD4F21E035815F
:100F3000311101C020E0298387579D4FBE016F5FAB
:100F40007F4FDC0113968C910E9436070F90DF9142
:100F5000CF911F910F910895FF920F931F93CF93FD
:100F6000DF93CDB7DEB7A1970FB6F894DEBF0FBE03
:100F7000CDBFF82E8B01CE0101960E94D705FF82CE
:100F800083E08E83F801208131818C8187708061BC
:100F90008C838D818F7180648D8339872887CE0102
:100FA00001960E942507A1960FB6F894DEBF0FBEEA
:100FB000CDBFDF91CF911F910F91FF900895EF92D8
:100FC000FF920F931F93CF93DF93CDB7DEB7A19717
:100FD0000FB6F894DEBF0FBECDBFE82EF62E8A0105
:100FE000CE0101960E94D705EF82FE82F801608152
:100FF0007181CE0101960E94EC030E942507A19603
:101000000FB6F894DEBF0FBECDBFDF91CF911F9119
:101010000F91FF90EF900895EF92FF920F931F931F
:10102000CF93DF93CDB7DEB7A1970FB6F894DEBFAD
:101030000FBECDBFE82EF62E8A01CE0101960E948A
:10104000D705EF82FE82F801208131818C81877083
:1010500080618C838D818F7180668D83398728872D
:10106000CE0101960E942507A1960FB6F894DEBF27
:101070000FBECDBFDF91CF911F910F91FF90EF90E9
:1010800008951F93CF93DF93182F262FEA0150E086
:1010900040E0682F80E00E94A6001F3F11F4C7E6E1
:1010A000D1E0BE010E94EC03DF91CF911F910C941F
:1010B0001E072F923F924F925F926F927F928F9274
:1010C0009F92AF92BF92CF92DF92EF92FF920F93D7
:1010D0001F93CF93DF9300D000D01F92CDB7DEB720
:1010E000809125018F3F09F45DC097E1C92ED12C75
:1010F00020E3622E712C3AEF232E03E010E042E051
:10110000E42EF12C54E0852E912C66E0462E512CD5
:10111000E0912501E93008F04CC1E150E83008F0D9
:1011200041C0F0E0EA56F74F0C948A1AA608EA0884
:10113000F80828097009A008A008C109882351F0FF
:10114000809125018F5F80932501E2CF89EEA82E43
:1011500083E0B82E64E670E080E090E00E94090C25
:101160002BE043E050E06FEF80E00E94A6006DE6C8
:1011700071E00E94EC030E941E07382E2CE043E031
:1011800050E06FEF80E00E94A60062E871E00E94EC
:10119000EC030E941E07832191E0A91AB10871F6A1
:1011A0008111CECF0F900F900F900F900F90DF9185
:1011B000CF911F910F91FF90EF90DF90CF90BF9054
:1011C000AF909F908F907F906F905F904F903F90E7
:1011D0002F9008955A8249828DEF8B8346E851E023
:1011E000BE016F5F7F4FCE0103960E94870DD8CF5F
:1011F0001A8309834FE851E0BE016F5F7F4F8CE88F
:1012000092E00E94870D882369F2FA82E982BE018A
:101210006F5F7F4F8CE892E00E94310C882311F2BF
:101220001A8309834FE851E0BE016F5F7F4F80E969
:1012300092E00E94870D882309F4B4CFFA82E982F4
:10124000BE016F5F7F4F80E992E00E94310CA8CF12
:101250009A8289824CE951E0BE016F5F7F4F87E738
:1012600092E00E94870D882309F49CCFFA82E982DC
:10127000BE016F5F7F4F87E792E00E94310C8823A9
:1012800009F490CF1A830983BE016F5F7F4F87E710
:1012900092E00E94310C882309F484CF9A828982DB
:1012A0004CE951E0BE016F5F7F4F80E892E00E9401
:1012B000870D882309F476CFFA82E982BE016F5F39
:1012C0007F4F80E892E00E94310C882309F46ACFB6
:1012D0001A830983BE016F5F7F4F80E892E0B5CF2C
:1012E0002D8289EF8C838BEF8B8380E190E09A8352
:1012F000898350E040E0BE016F5F7F4FCE010396CF
:101300000E94870D882309F44DCFDA82C982BE017D
:101310006F5F7F4FCE0103960E94310C882309F442
:1013200041CF1A83098340EB51E0BE016F5F7F4FCD
:10133000CE0105960E94870D882309F433CFFA82E7
:10134000E982BE016F5F7F4FCE0105960E94310C8E
:10135000882309F427CFDA82C9824AEA51E0BE0124
:101360006F5F7F4FCE0104960E94870D882309F49A
:1013700019CF7A826982BE016F5F7F4FCE010496DA
:1013800064CF98EF9B83DA82C9824CEB51E0BE01B7
:101390006F5F7F4FCE0103960E94870D882309F46B
:1013A00001CF7A826982BE016F5F7F4FCE010396C3
:1013B0004CCF8FEF80932501F5CE2FE043E050E036
:1013C0006FEF80E00E94A60068ED71E00E94EC03E0
:1013D000E4E9F2E0838187708061838384818F7187
:1013E000806C848381E087831086CF010E941E0772
:1013F0008FE00E94D30B48ED51E061E170E08FEF88
:101400000E94410826E043E050E06FEF80E00E9438
:10141000A600609171020E94D4010E941E0786E01E
:101420000E94D30B0C9459084F925F926F927F9257
:101430008F929F92AF92BF92DF92EF92FF920F93A3
:101440001F93CF93DF9300D01F92CDB7DEB726E076
:101450002B8300E010E088248A9482E0982E83E0B9
:10146000A82EB92CE12CFF24FA9487E10E9465068E
:1014700080FD80C18B8181508B83882309F47AC1E0
:1014800021E041E070E060E080E60E94EC058983A5
:10149000813220F082EE0E946B06198221E04981A0
:1014A00065EB72E081E60E94EC0560E487E20E9451
:1014B0002B068091B802982F93709230B1F6E82FE6
:1014C000E695E695E695EA3108F0E9E182FF57C036
:1014D00089E1895F99819813C8CF8091B902282F3B
:1014E000277029839091BA029A83D090B6022091F6
:1014F000B5029091B7023091F20130683093F20159
:101500003091700293130AC1F0E0EB54FD4F178243
:1015100083FF15C021E2E5EBF2E0A4E9B2E001901F
:101520000D922A95E1F7877E8061809398029093CF
:101530009502D092960284E992E00E941E07909153
:10154000B90294FDE3C02981233009F0DFC0809106
:10155000BA0221EF280F233008F487CF2A812430E4
:1015600009F483CF283169F429E143E050E06FEFBB
:101570008D2D0E94A60061E00E94D4012CC08E2F08
:10158000A8CF2A81293171F48091F10183FF6DCFB9
:10159000877F8093F10185EB92E00E942104809384
:1015A000F30163CF2A812E3109F45FCF2D31B1F4DD
:1015B0002FE143E050E06FEF80E00E94A600FC01C5
:1015C000838187708061838384818F718064848349
:1015D000F086E782CF010E94E60647CF2091B6024F
:1015E000211199C08D3059F488E198E00FB6F89434
:1015F000A895809360000FBE90936000FFCF8B3161
:1016000079F485EB92E00E94210491E0811101C000
:1016100090E080916F0290FB80F980936F0225CF5C
:10162000863099F49091BC0281E0992319F09D34A1
:1016300009F080E080936E0241E050E063E071E0E9
:101640008EE692E00E94991810CF833119F40E941F
:10165000DD090BCF8231E1F40E94EB012B013C014B
:1016600026E143E050E06FEF80E00E94A600FC011D
:10167000838187708062838384818F71806A848391
:101680004782508661867286CF010E941E07EDCE8A
:101690008230A9F422E043E050E06FEF80E00E9446
:1016A000A600FC01838187708062838384818F71AF
:1016B000806A848387829086A186B286E5CF813056
:1016C000F9F40115110509F4D0CE9295969597700D
:1016D000953059F46091BC027091BD028091BE02B8
:1016E0009091BF020E940000C0CE911105C08CEB0A
:1016F00092E00E940D17F6CF60E070E0CB01F2CFD0
:101700008A3009F4B2CE8C3109F4AFCE85EB92E089
:101710000E943204AACE8A31C9F7A7CE9F3F09F0B2
:10172000A4CE8981833009F58091F10182FF04C044
:101730009A81973009F499CE8A81843109F095CE47
:1017400080917102281391CE0E94720173708827D4
:1017500099270E943F0125E143E050E06FEF8D2D76
:101760000E94A6006091710207CF80917102281338
:101770007CCECCCF0F900F900F90DF91CF911F9127
:101780000F91FF90EF90DF90BF90AF909F908F9060
:101790007F906F905F904F9008958091F10184FD4C
:1017A0000C94140A0895CF92DF92EF92FF92CF9398
:1017B000DF93D82F0E9472016B017C018091B902E6
:1017C00087608093B902C0E00E9472016C197D09A4
:1017D0008E099F09603D77408105910590F4C11104
:1017E00010C0A8950E94E0010E94CD0B8091B90223
:1017F0008770833049F7C1E08091BA028D13E3CF3F
:10180000E3CF8C2FDF91CF91FF90EF90DF90CF90BF
:1018100008958F929F92AF92BF92CF92DF92EF92F4
:10182000FF924B015C010E9472016B017C010E94DE
:1018300072016C197D098E099F09681579058A0561
:101840009B0530F4A8950E94E0010E94CD0BEFCFDC
:10185000FF90EF90DF90CF90BF90AF909F908F90D0
:101860000895CF92DF92EF92FF920F931F93CF9341
:10187000DF937C016B01C9EED3E0F6010081F70133
:10188000108164E670E080E090E00E94090C202F57
:1018900042E050E0612F80E00E94A60068ED71E018
:1018A0000E94EC030E941E07219711F0882329F360
:1018B000DF91CF911F910F91FF90EF90DF90CF902C
:1018C00008959F92AF92BF92CF92DF92EF92FF92D4
:1018D0000F931F93CF93DF938C01DC01EC91B9E060
:1018E000EB9FF0011124EC58FD4F808591852285F6
:1018F0003385821B930B97FD48C081E0D9E0E82E29
:10190000880FFF08D801EC91DE9FF0011124EC58FC
:10191000FD4F82859385208531858217930709F4D1
:101920007AC08E0D9F1D93878287AC90DA9D5001FF
:101930001124F501EC58FD4F5F0162857385072E78
:10194000000C880B990B0E94881720E030E048ECCF
:1019500052E40E94BA1920E030E04FE753E40E94BD
:10196000C3170E942C1AC62F972EC62ED72ED5012C
:101970001496BC908B2D0E948700C114D10439F4B9
:1019800060E08B2D0E94B60032C08FEFB7CFBFEF63
:10199000CB16D10411F461E0F4CFEB2DF0E0E8595F
:1019A000FF4FE491E33009F447C048F4E130D9F047
:1019B000E230E9F1E0E8CE16D1046CF7E1CFE73090
:1019C00009F446C0E83009F44BC0E43099F780913F
:1019D00080008062809380008C2F992D90938B00E3
:1019E00080938A0004C084B5806884BDC7BD6AE066
:1019F00070E080E090E00E94090CD801EC91DE9F3D
:101A0000F0011124EC58FD4F8285938501978336B0
:101A1000910508F477CFDF91CF911F910F91FF903F
:101A2000EF90DF90CF90BF90AF909F90089584B5D6
:101A3000806284BDC8BDDBCF8091800080688093C8
:101A400080008C2F992D9093890080938800CFCFB0
:101A50008091B00080688093B000C093B300C7CF7E
:101A60008091B00080628093B000C093B400BFCF7B
:101A7000FF920F931F93CF93DF931F92CDB7DEB7E3
:101A80008C010E94610CD801EC9139E0F32EFE9E8E
:101A9000F0011124EC58FD4F838190E0658183565D
:101AA0009E4F0E94A918F801808190E0F89EF001F5
:101AB000F99EF00D1124EC58FD4F21E035813111D4
:101AC00001C020E0298329E0F22EF89EF001F99E62
:101AD000F00D1124EC58FD4FBE016F5F7F4F8381E5
:101AE0000E943607D8018C918F9DC0011124BC0142
:101AF00064587D4F8C589D4FFC0183810E94AC0738
:101B00000F90DF91CF911F910F91FF9008958F92C9
:101B10009F92AF92BF92CF92DF92FF920F931F934B
:101B2000CF93DF936C015B018A01C9EED3E0F5012D
:101B300080809180F601F08064E670E080E090E0C3
:101B40000E94090CA8010115110511F448ED51E09E
:101B5000B4018F2D0E944108219711F0882339F399
:101B6000DF91CF911F910F91FF90DF90CF90BF90A9
:101B7000AF909F908F9008952F923F924F925F92D7
:101B80006F927F928F929F92AF92BF92CF92DF928D
:101B9000EF92FF920F931F93CF93DF93CDB7DEB7F2
:101BA000A7970FB6F894DEBF0FBECDBF8091250179
:101BB0008F3FA1F00E945908809125018F3F09F4C1
:101BC00089C30CE310E00150110909F483C364EFE9
:101BD00071E080E090E00E94090CF5CF8091F10166
:101BE00082FF9CC38091E3019091E4016CE370E07B
:101BF0000E94621A892B29F080913101882309F40F
:101C000051C08FE00E9402012091350130913601D0
:101C10002817390714F4821B930B2091330130915C
:101C200034012817390791F097FD10C090933401C3
:101C30008093330120913B0130913C0128173907F3
:101C400008F4DEC0109238011092370180913701FC
:101C5000909138012091390130913A0128173907C4
:101C6000E1F090933A0180933901A0913301B09152
:101C7000340124E630E00E94901A24E833E040E08A
:101C800050E00E94BB183A832983AE014F5F5F4F3B
:101C900067E170E08BEF0E940C08809131018111A7
:101CA0001092310180913201882309F44FC01092C3
:101CB00032016DEC71E0CE0182960E944C036BE321
:101CC000C62E61E0D62EF12CE12C8E010F5F1F4F46
:101CD0004AE0B801F601819191916F010E945C1771
:101CE000F80101900020E9F73197AF01401B510B3B
:101CF000B801CE0182960E94FA02F5E0EF16F104D7
:101D000041F041E050E067ED71E0CE0182960E9423
:101D1000FA022FEFE21AF20A86E0E816F104C1F6A1
:101D200042E050E069ED71E0CE0182960E94FA0235
:101D30008AA19BA19A838983A80160E370E089EF5F
:101D40000E94DF07CE0182960E94CA028091300174
:101D5000882359F01092300180912F018983BE01B0
:101D60006F5F7F4F8AEF0E9436078091E301909169
:101D7000E40161E470E00E94621A892B09F0DEC080
:101D8000198289E0F82E94E6292E312C412C512C11
:101D90002DE2C22ED12C39E1A32EB12C44E6842EA3
:101DA000912C55E5652E712C0981023008F0C6C0D2
:101DB00010E0F09EF001F19EF00D1124EC58FD4F63
:101DC000E580EE20C9F0A0917502B09176021097DF
:101DD00099F08C91882381F018968D919C91833095
:101DE000910509F48AC008F044C08130910509F4D6
:101DF0009CC0029709F48EC089818F5F8983D4CFFC
:101E000020913D0130913E012817390738F081E0DB
:101E100090E0909338018093370118CF20913F01D3
:101E2000309140012817390718F082E090E0F1CF97
:101E300020914101309142012817390718F083E0C1
:101E400090E0E7CF209143013091440128173907F2
:101E500018F084E090E0DDCF2091450130914601FB
:101E60002817390718F085E090E0D3CF86E090E09E
:101E7000D0CF8530910599F0A8F1069709F0BCCF35
:101E8000A085B185AA31B105DCF4F09EF001F19E88
:101E9000F00D1124EC58FD4FB186A08603C01186C9
:101EA0001086E12CF09EF001F19EF00D1124EC580B
:101EB000FD4FE582E782CE0101960E94380D9CCF4E
:101EC00029E130E00E94901AA20191010E94BB1802
:101ED000F09EF001F19EF00D1124EC58FD4F31877A
:101EE0002087E0CFA085B185AE32B1051CF4D18644
:101EF000C086D8CF2DE230E0E5CFA085B185A234F1
:101F0000B1052CF481E490E091878087CBCF21E468
:101F100030E0D8CFA085B185A635B1051CF4718617
:101F20006086C0CF25E530E0CDCF808591858436B1
:101F3000910509F461CF91868086B4CF80917402B7
:101F4000882309F450C010927402198219E001E04C
:101F5000E981E23008F047C01E9FF0011124EC58DF
:101F6000FD4F86818823B1F0858197818917B1F073
:101F70008783CE0101960E94380DE9811E9FF001F2
:101F80001124EC58FD4F168262E370E080E090E08F
:101F90000E94090C89818F5F8983DACF811108C083
:101FA000808591851816190664F405830783E1CFAF
:101FB000813039F480859185892B19F41582178237
:101FC000D8CFCE0101960E94610C8981819FC0010A
:101FD0001124BC0164587D4F8C589D4FFC018381B6
:101FE0000E94AC07CACF8091E3019091E40166E4BE
:101FF00070E00E94621A892B29F51982E981E2308A
:1020000008F524E0E29FF0011124E757FD4F858198
:102010008823A1F0A0918A02B0918B02109771F0F1
:102020008C91882359F018968D919C910497039771
:1020300028F41582CE0101960E94600789818F5F86
:102040008983DCCF809189028823C1F010928902B4
:102050001982E981E23090F484E0E89FF0011124D4
:10206000E757FD4F8681882329F01682CE0101961D
:102070000E94600789818F5F8983EBCF8091E301A4
:102080009091E40167EB70E00E94621A892B29F0BD
:1020900080912301882309F454C088EC80937C004C
:1020A00080917A00806880937A0064E170E080E03B
:1020B00090E00E943F0180917A00806480937A00D2
:1020C00080917A0086FDFCCF609178007091790054
:1020D00090E080E00E9486172EEA37E242EA53E45D
:1020E0000E944D1926EF38E24CE95FE30E94BA19CD
:1020F0000E942C1A613801F1809124018617E1F0C9
:1021000060932401CE0101960E94D7058DEF8F8345
:102110001E8220912401022E000C330B8C818770CB
:1021200080618C838D818F7180648D83398728874E
:10213000CE0101960E942507809123018111109202
:1021400023018091E3019091E40165EB70E00E942E
:10215000621A892B21F080912101882349F18EE0B8
:102160000E9402016AE070E00E94761A8B016536D7
:10217000710514F004E610E017FF02C010E000E063
:10218000809122018017110671F00093220120E056
:1021900043E050E06FEF80E00E94A600602F0E94B5
:1021A000D4010E941E07809121018111109221010A
:1021B0008091E3019091E40166EB70E00E94621A65
:1021C000892B29F080911E01882309F462C088E0E0
:1021D0000E9465068F7023EE3FEF98E0899F2019DB
:1021E00031091124032E000C440B550B2B5A3F4F81
:1021F0004F4F5F4FA4E6B0E00E94DA182DE230E0C6
:1022000040E050E00E94BB182536310514F024E66A
:1022100030E037FF02C030E020E080911F01909154
:1022200020012817390781F13093200120931F01E5
:102230006CED71E0CE0182960E944C034AE08E0163
:102240000F5F1F4FB80180911F01909120010E94E4
:102250003417F80101900020E9F73197AF01401BD6
:10226000510BB801CE0182960E94FA028AA19BA16D
:102270009A838983A8016CE170E08EEF0E94DF07EA
:10228000CE0182960E94CA0280911E018111109295
:102290001E0180911D01882381F010921D01EDB770
:1022A000FEB7808190E09A838983AE014F5F5F4FD4
:1022B00060E370E088EF0E940C088091E301909148
:1022C000E40101968036EAEE9E0718F59093E4014A
:1022D0008093E30168EE73E080E090E00E94090CD7
:1022E000A7960FB6F894DEBF0FBECDBFDF91CF919A
:1022F0001F910F91FF90EF90DF90CF90BF90AF9024
:102300009F908F907F906F905F904F903F902F9015
:1023100008951092E4011092E301DCCF60E177E2CE
:1023200080E090E00E94090CD5CFFF920F931F939D
:10233000CF93DF938FE00E94020110E000E0D0E035
:10234000C0E00E947201683873418105910598F4DC
:1023500064E670E080E090E00E94090C8FE00E944B
:102360000201C817D9072CF0801791070CF48C01D3
:10237000CE01EC01E6CFC01BD10BCF31D1050CF063
:102380006BC0D0933601C093350187E992E00E947B
:10239000911891E0811101C090E090932F01FFB658
:1023A000F894C4E7D2E006E812E08B8190E083560F
:1023B0009E4F0E9491188D831F8291E0811101C070
:1023C00090E09E8381114DC090E080E099878887DE
:1023D0001B861A868C810E9487008C8185508230F2
:1023E00020F485B5887F826085BD29960C171D076E
:1023F000E1F6FFBECFB7F89480918C0290E083564F
:102400009E4F0E94911880938E0291E0811101C02D
:1024100090E090938F0280918D020E9487008091BE
:10242000900290E083569E4F0E94911880939202F2
:1024300091E0811101C090E090939302809191020C
:102440000E948700CFBF83E080932E01DF91CF9160
:102450001F910F91FF90089510923601109235014F
:1024600094CF84E690E0B2CFCF9380916F0281FD4C
:1024700020C00E94DD0980916F02816080936F020D
:10248000C4E02AE143E050E06FEF80E00E94A60044
:1024900062E00E94D4010E941E078BE10E94D30BD0
:1024A000811102C0C15069F780916F0282608093F0
:1024B0006F02CF9108958FEF8093F301E1EFF1E088
:1024C00080818860808328E143E050E06FEF80E006
:1024D0000E94A60061E00E94D4010C94E60680915F
:1024E00070028F3F69F423E043E050E06FEF80E03B
:1024F0000E94A60068ED71E00E94EC030C94E606D1
:102500000895CF93219A229A29982A9ACFB7F894BE
:102510008091E201811124C0EAE9F0E08491EEEAC1
:10252000F0E09491E82FF0E0EE0FFF1FEA57FF4F25
:10253000A591B491EC91E92321F461E08AE00E9435
:10254000B6008AE00E9487008CB580618CBD8CB596
:1025500080648CBD8DE00E9487008BE00E94870024
:102560008091E2018F5F8093E201CFBF29986EE0F6
:1025700080E20E942B0684E293E20197F1F763E088
:1025800083E20E942B066FE584E20E942B066CE436
:1025900085E20E942B0665E286E20E942B0664E03B
:1025A0008DE30E942B068DE10E946506843041F088
:1025B00063E780E50E942B0664E08DE30E942B0612
:1025C00086E00E946506853209F04DC085E00E94D4
:1025D00065068C3409F047C062E082E20E942B0657
:1025E00060E081E20E942B0663E08CE30E942B06F0
:1025F0008FEF8093030120E045E063E071E08BE220
:102600000E94EC0520E045E063E071E08AE20E9470
:10261000EC0520E045E063E071E080E30E94EC051A
:1026200082EE0E946B0681EE0E946B0660E787E2F5
:102630000E942B068091F10180618093F1018091CD
:1026400073028E7F8093730286E18093700266E14D
:1026500090E080E00E94A918C0917002CF3F41F441
:1026600081E191E002C089E091E0CF910C94FE01FC
:102670008FEF8C0F8E3FB8F7C093080163E082E2C2
:102680000E942B0661E081E20E942B060E94580600
:102690006C2F90E080E00E94A918E2CF1F920F9269
:1026A0000FB60F9211242F933F938F939F93AF9365
:1026B000BF938091660290916702A0916802B091E9
:1026C00069023091650226E0230F2D3758F50296F6
:1026D000A11DB11D2093650280936602909367024D
:1026E000A0936802B093690280916A0290916B0294
:1026F000A0916C02B0916D020196A11DB11D809355
:102700006A0290936B02A0936C02B0936D02BF912A
:10271000AF919F918F913F912F910F900FBE0F908E
:102720001F90189529E8230F0396A11DB11DD2CF44
:102730001F920F920FB60F9211242F933F934F9336
:102740005F936F937F938F939F93AF93BF93EF9319
:10275000FF93E0912C01F0912D010995FF91EF91EC
:10276000BF91AF919F918F917F916F915F914F91A9
:102770003F912F910F900FBE0F901F9018951F92B1
:102780000F920FB60F9211242F933F934F935F93A5
:102790006F937F938F939F93AF93BF93EF93FF9329
:1027A000E0912A01F0912B010995FF91EF91BF91E2
:1027B000AF919F918F917F916F915F914F913F91D9
:1027C0002F910F900FBE0F901F9018951F920F9290
:1027D0000FB60F9211242F933F934F935F936F93F4
:1027E0007F938F939F93AF93BF93EF93FF938091CA
:1027F000B900887F803609F44AC0F0F5883209F4C0
:10280000A5C018F5803109F499C0B8F4882309F4FB
:10281000F5C0883009F492C0FF91EF91BF91AF915C
:102820009F918F917F916F915F914F913F912F91E8
:102830000F900FBE0F901F901895883109F486C035
:10284000803251F780933E0214C0803409F49BC05B
:1028500040F48033B9F38833F9F680933E0285EC77
:10286000AEC0803509F483C0883509F494C088343B
:1028700099F60E946103D0CF883909F48AC038F5EF
:10288000883729F050F4883611F0803729F683E034
:1028900080933F0210923D0255C0883809F479C0F8
:1028A000803919F0803809F0B7CF80913D0280322D
:1028B00008F06FC0E0913D0281E08E0F80933D02F1
:1028C0008091BB00F0E0E35EFD4F80833BC0803B26
:1028D00039F0D0F4803A09F477C0883A09F09CCFF7
:1028E00084E080933F0210921C0210921B02F0E0E1
:1028F000E0E0099580911B0281110FC081E0809377
:102900001B021092FB0109C0803C09F4A8CF883C4F
:1029100009F4A5CF883B09F07FCFE0911C0281E04C
:102920008E0F80931C02F0E0E550FE4F8081809373
:10293000BB0090911C0280911B0229C0809164020F
:102940008093BB0085EC8093BC0066CF90916302BE
:1029500080916202981758F5E091630281E08E0F32
:1029600080936302F0E0EE5BFD4F8081E9CFE09160
:10297000630281E08E0F809363028091BB00F0E0E0
:10298000EE5BFD4F80839091630280916202981705
:10299000C8F285E8D8CFE091630281E08E0F809382
:1029A00063028091BB00F0E0EE5BFD4F808380917D
:1029B000410281115ECF81E08093400284EA8093DE
:1029C000BC0010923F0228CF85EC8093BC0010928F
:1029D0003F0280913D02803230F4E0913D02F0E010
:1029E000E35EFD4F108260913D0270E08DE192E068
:1029F000F0E0E0E0099510923D020ECF10923E0209
:102A000038CF1F920F920FB60F9211240F900FBE66
:102A10000F901F901895CF93DF9385EB92E00E9463
:102A2000D70584E992E00E94D705C9E8D2E021E009
:102A3000288388E0EDE4F1E0ACE8B2E001900D928B
:102A40008A95E1F78FE291E09A838983C4E7D2E027
:102A5000288322E1E5E5F1E0A7E7B2E001900D92DD
:102A60002A95E1F79A838983DF91CF91089578942D
:102A700084B5826084BD84B5816084BD85B5826083
:102A800085BD85B5816085BD80916E008160809334
:102A90006E0010928100809181008260809381009D
:102AA00080918100816080938100809180008160AD
:102AB000809380008091B10084608093B100809108
:102AC000B00081608093B00080917A008460809330
:102AD0007A0080917A00826080937A0080917A00F7
:102AE0008E7F80937A0080917A00806880937A004C
:102AF0001092C100A89580E090E0892B11F00E940F
:102B0000000080916F028D7F80936F020E9495116B
:102B100041E050E063E071E08EE692E00E948118AF
:102B200060E081E090E00E94A9188091F2018F7826
:102B30008093F2011092E8011092E70186E291E0A1
:102B40000E94FE0184E392E19093E6018093E50107
:102B50000E9472010E9472010E94E0010E94CD0B4E
:102B60008091F10182FB882780F9A895882391F351
:102B7000A895C0E0D0E0A8950E94E0018091F10105
:102B800084FD0E94140A0E94BC0D2097A1F30E94AC
:102B90000000F1CF0F931F93CF93DF938230910505
:102BA00010F482E090E0E091D802F091D90230E098
:102BB00020E0B0E0A0E0309799F42115310509F448
:102BC0004AC0281B390B24303105D8F58A819B81F6
:102BD0006115710589F1FB0193838283FE0111C0A8
:102BE000408151810281138148175907E0F048174D
:102BF000590799F4109761F012960C931297139657
:102C00001C933296CF01DF91CF911F910F910895C0
:102C10000093D8021093D902F4CF2115310551F059
:102C20004217530738F0A901DB019A01BD01DF010A
:102C3000F801C1CFEF01F9CF9093D9028093D80268
:102C4000CDCFFE01E20FF31F819391932250310902
:102C500039832883D7CF2091D6023091D702232BF6
:102C600041F42091490130914A013093D7022093D9
:102C7000D60220914701309148012115310541F4D8
:102C80002DB73EB740914B0150914C01241B350BA1
:102C9000E091D602F091D702E217F307A0F42E1BC1
:102CA0003F0B2817390778F0AC014E5F5F4F2417B0
:102CB000350748F04E0F5F1F5093D7024093D6025E
:102CC000819391939FCFF0E0E0E09CCFCF93DF938F
:102CD0000097E9F0FC01329713821282A091D8028A
:102CE000B091D902ED0130E020E01097A1F42081ED
:102CF0003181820F931F2091D6023091D70228177D
:102D0000390709F061C0F093D702E093D602DF9152
:102D1000CF910895EA01CE17DF07E8F54A815B817C
:102D20009E0141155105B1F7E901FB83EA83499101
:102D30005991C40FD51FEC17FD0761F48081918173
:102D40000296840F951FE90199838883828193817C
:102D50009B838A83F0E0E0E012968D919C9113971B
:102D60000097B9F52D913C911197CD010296820FF4
:102D7000931F2091D6023091D7022817390739F6D0
:102D8000309751F51092D9021092D802B093D70221
:102D9000A093D602BCCFD383C28340815181840FDC
:102DA000951FC817D90761F44E5F5F4F88819981DD
:102DB000480F591F518340838A819B81938382836B
:102DC0002115310509F0B0CFF093D902E093D80274
:102DD0009ECFFD01DC01C0CF13821282D7CFFC0150
:102DE00088279927E89421912032E9F3293010F0BF
:102DF0002E30C8F32B3241F02D3239F4689404C0E0
:102E00000E945417820F911D219120532A30C0F344
:102E10001EF4909581959F4F08951F93FC0199276B
:102E20008827BC01E89411911032E9F3193010F0B1
:102E30001E30C8F31B3251F01D3249F4689406C0AD
:102E40000E943F17610F711D811D911D119110533B
:102E50001A30B0F33EF490958095709561957F4F50
:102E60008F4F9F4F1F910895BB274A3031F499230C
:102E700022F4BDE2909581959F4F0C945D17592FD8
:102E8000482F372F262F660F771F881F991F660F31
:102E9000771F881F991F620F731F841F951F660F6E
:102EA000771F881F991F08957AE0979F902D879F1D
:102EB000802D910D11240895BB27FB015527AA27CA
:102EC000880F991FAA1FA41710F0A41B83955051B7
:102ED000B9F7A05DAA3308F0A95DA193009779F72F
:102EE000B111B1931192CB010C947617DC01FC0166
:102EF000672F71917723E1F7329704C07C916D932E
:102F000070836291AE17BF07C8F30895E89409C0B3
:102F100097FB3EF490958095709561957F4F8F4F0C
:102F20009F4F9923A9F0F92F96E9BB279395F69522
:102F3000879577956795B795F111F8CFFAF4BB0FA0
:102F400011F460FF1BC06F5F7F4F8F4F9F4F16C004
:102F5000882311F096E911C0772321F09EE8872F8E
:102F6000762F05C0662371F096E8862F70E060E04A
:102F70002AF09A95660F771F881FDAF7880F9695C3
:102F8000879597F908950E94D6170C9447180E94C8
:102F9000391838F00E94401820F0952311F00C9455
:102FA00030180C94361811240C947B180E94581871
:102FB00070F3959FC1F3950F50E0551F629FF0018C
:102FC000729FBB27F00DB11D639FAA27F00DB11DA5
:102FD000AA1F649F6627B00DA11D661F829F22272E
:102FE000B00DA11D621F739FB00DA11D621F839FB5
:102FF000A00D611D221F749F3327A00D611D231F8B
:10300000849F600D211D822F762F6A2F11249F57D8
:1030100050409AF0F1F088234AF0EE0FFF1FBB1FDB
:10302000661F771F881F91505040A9F79E3F51059A
:1030300080F00C9430180C947B185F3FE4F3983EBA
:10304000D4F3869577956795B795F795E7959F5F44
:10305000C1F7FE2B880F911D9695879597F90895D6
:1030600097F99F6780E870E060E008959FEF80EC3B
:10307000089500240A9416161706180609060895DE
:1030800000240A9412161306140605060895092E44
:103090000394000C11F4882352F0BB0F40F4BF2BB3
:1030A00011F460FF04C06F5F7F4F8F4F9F4F0895F3
:1030B00057FD9058440F551F59F05F3F71F04795E9
:1030C000880F97FB991F61F09F3F79F087950895CE
:1030D000121613061406551FF2CF4695F1DF08C0ED
:1030E000161617061806991FF1CF8695710561050A
:1030F00008940895E894BB2766277727CB0197F9B2
:103100000895DC01CB01FC01F999FECF06C0F2BDA8
:10311000E1BDF89A319600B40D9241505040B8F795
:103120000895F999FECF92BD81BDF89A992780B58F
:103130000895DC01A40FB51F4150504048F0CB0169
:10314000840F951F2E910E94AA1841505040D0F72D
:103150000895262FF999FECF92BD81BDF89A019767
:1031600000B4021639F01FBA20BD0FB6F894FA9ACF
:10317000F99A0FBE0895052E97FB1EF400940E9445
:10318000D21857FD07D00E941C1907FC03D04EF43B
:103190000C94D21850954095309521953F4F4F4F44
:1031A0005F4F089590958095709561957F4F8F4FF3
:1031B0009F4F08950E943E19A59F900DB49F900DBA
:1031C000A49F800D911D112408952F923F924F923C
:1031D0005F926F927F928F929F92AF92BF92CF92A7
:1031E000DF92EF92FF920F931F93CF93DF93CDB7B0
:1031F000DEB7CA1BDB0B0FB6F894DEBF0FBECDBF28
:1032000009942A88398848885F846E847D848C84F8
:103210009B84AA84B984C884DF80EE80FD800C8101
:103220001B81AA81B981CE0FD11D0FB6F894DEBFE4
:103230000FBECDBFED010895A1E21A2EAA1BBB1B44
:10324000FD010DC0AA1FBB1FEE1FFF1FA217B30772
:10325000E407F50720F0A21BB30BE40BF50B661F88
:10326000771F881F991F1A9469F76095709580954C
:1032700090959B01AC01BD01CF010895A29FB001C3
:10328000B39FC001A39F700D811D1124911DB29F9A
:10329000700D811D1124911D08955058BB27AA2738
:1032A0000E9465190C9447180E94391838F00E9442
:1032B000401820F039F49F3F19F426F40C94361886
:1032C0000EF4E095E7FB0C943018E92F0E94581893
:1032D00058F3BA17620773078407950720F079F44B
:1032E000A6F50C947A180EF4E0950B2EBA2FA02DAB
:1032F0000B01B90190010C01CA01A0011124FF27A3
:10330000591B99F0593F50F4503E68F11A16F0409D
:10331000A22F232F342F4427585FF3CF469537959C
:103320002795A795F0405395C9F77EF41F16BA0B61
:10333000620B730B840BBAF09150A1F0FF0FBB1F0F
:10334000661F771F881FC2F70EC0BA0F621F731F58
:10335000841F48F4879577956795B795F7959E3FB5
:1033600008F0B0CF9395880F08F09927EE0F979546
:10337000879508950E94CE190C9447180E94401812
:1033800058F00E94391840F029F45F3F29F00C945E
:10339000301851110C947B180C9436180E94581850
:1033A00068F39923B1F3552391F3951B550BBB2774
:1033B000AA2762177307840738F09F5F5F4F220FB9
:1033C000331F441FAA1FA9F335D00E2E3AF0E0E8B0
:1033D00032D091505040E695001CCAF72BD0FE2FFA
:1033E00029D0660F771F881FBB1F2617370748078E
:1033F000AB07B0E809F0BB0B802DBF01FF27935846
:103400005F4F3AF09E3F510578F00C9430180C94C1
:103410007B185F3FE4F3983ED4F3869577956795E4
:10342000B795F7959F5FC9F7880F911D969587957A
:1034300097F90895E1E0660F771F881FBB1F621799
:1034400073078407BA0720F0621B730B840BBA0B57
:10345000EE1F88F7E09508950E94331A6894B11121
:103460000C947B1808950E94601888F09F5798F07C
:10347000B92F9927B751B0F0E1F0660F771F881F79
:10348000991F1AF0BA95C9F714C0B13091F00E9493
:103490007A18B1E008950C947A18672F782F88274E
:1034A000B85F39F0B93FCCF3869577956795B395BA
:1034B000D9F73EF490958095709561957F4F8F4F29
:1034C0009F4F0895AA1BBB1B51E107C0AA1FBB1F3A
:1034D000A617B70710F0A61BB70B881F991F5A95A0
:1034E000A9F780959095BC01CD01089597FB072E13
:1034F00016F4009407D077FD09D00E94621A07FCE9
:1035000005D03EF4909581959F4F089570956195F3
:103510007F4F0895EE0FFF1F0590F491E02D099461
:103520000E943E19B7FF0895821B930B0895B0E0E7
:10353000A0E0EDE9FAE10C94E7188C01009751F452
:10354000CB010E94CA158C01C801CDB7DEB7E0E1FE
:103550000C940319FC01E60FF71F9C01225031095E
:10356000E217F30708F49DC0D901CD91DC911197C2
:10357000C617D70798F0C530D10530F3CE010497B0
:103580008617970708F3C61BD70B2297C193D193D1
:103590006D937C93CF010E946616D6CF5B01AC1A67
:1035A000BD0A4C018C0E9D1EA091D802B091D9028B
:1035B000512C412CF12CE12C109731F58091D60241
:1035C0009091D7028815990509F05CC046165706F8
:1035D00008F058C08091470190914801009741F44C
:1035E0008DB79EB740914B0150914C01841B950BB8
:1035F000E817F90708F055C0F093D702E093D60218
:10360000F90171836083A0CF8D919C9111971296DF
:103610006C90129713967C901397A815B90559F5DD
:103620006C0142E0C40ED11CCA14DB0420F1AC01D1
:103630004A195B09DA011296159780F0628273824B
:1036400051834083D9016D937C93E114F10471F0AF
:10365000D7011396FC93EE93129776CF22968C0F98
:103660009D1FF90191838083F301EFCFF093D9027D
:10367000E093D80269CF4816590608F42C017D0161
:10368000D3019ACFCB010E94CA157C01009749F063
:10369000AE01B8010E94541BC8010E946616870142
:1036A00053CF10E000E050CFFB01DC0102C00190DD
:1036B0000D9241505040D8F70895FB01DC01019074
:1036C0000D920020E1F70895FB01DC0141505040CC
:1036D00048F001900D920020C9F701C01D924150A1
:1036E0005040E0F70895F894FFCFFFFFFF00FCE1A2
:1036F000A8A8FF3C062A026F129502BA02AF025B2D
:1037000012660254024A0201010000010001000198
:10371000D60381127E017E0101010101000000003B
:103720000000000000020005000A000F001900233D
:10373000000000DA0280000008000001070000031A
:10374000050000000000000004060000000000006A
:1037500000322E332E3200556E69742D4C69676825
:10376000744E6F64652D72322D643200312E330039
:10377000496E742E54656D700052656C61792E4CE3
:1037800069676874730044696D6D65722E4C696772
:103790006874730053657475702E4175746F2E4C88
:1037A000696768747300556E69742E4D656D6F722C
:1037B000792E46726565007B2264617461223A5BF2
:0C37C000002C005D7D00727373693A00FC
:1078000011E0A0E0B1E0E4EFFFE702C005900D92C7
:10781000A630B107D9F721E0A6E0B1E001C01D9282
:10782000AD34B207E1F7CDB7DEB72897DEBFCDBFE5
:10783000112484B78093270114BE88E180936000EF
:1078400089E280936000259A86E020E295B1922734
:1078500095B93FE748E351E0315040405040E1F7EF
:1078600000C00000815091F78091270181FD18C070
:107870008EE284B981E58CBD81E08DBD412C512C17
:10788000222423941CE3612E11E0712E33243394BF
:10789000CC24CA94DC2CAA24A39483E0B82E45C13E
:1078A00082E08093C00088E18093C10086E08093ED
:1078B000C20087E68093C40000E010E0C12CD12C08
:1078C000AA24AA94BA2CEE24E394A895EED181348C
:1078D00069F4EBD1F82E36D382E8F81629F091E856
:1078E000F91202C085E651C083E04FC0823411F422
:1078F00084E103C0853419F485E030D362C0853556
:1079000041F4D3D1082FD1D110E0182B000F111F53
:1079100057C0863521F484E021D380E036C0843618
:10792000E9F4C3D1C2D1882EC0D1C80CD11C912C8E
:10793000981488F4BAD1F82EB8D1F801E90DF11DE8
:107940002F2D30E0A901582B0A01E7BEE89511243C
:1079500093949394EDCFC801B4D132C0843769F4C5
:10796000A4D1A3D1F82EA1D1EDD2F80185918F0138
:10797000E2D2FA94F110F9CF25C0853741F4E2D272
:107980008EE1D9D285E9D7D28FE0D5D21AC0813520
:10799000B9F4BA82A982BC82AB82C601F4E09695A2
:1079A0008795FA95E1F79E838D83C6019CD19887D0
:1079B0008F83CE010196D9D2C5D2FF24F39402C0A1
:1079C000C1D2F12C80E1B7D2FF2009F47ECF50CF95
:1079D00043E050E060E070E089E291E0E9D248E005
:1079E00050E06BE171E0CE010196E2D229982A9A2B
:1079F00063E083E2D2D16CE485E2CFD167E286E234
:107A0000CCD163E780E5C9D164E08DE3C6D161E004
:107A100082E2C3D161E081E2C0D161E08CE3BDD1FB
:107A200021E041E060E070E086E08AD1873209F031
:107A300026C180912A01809328018FEF80932A012B
:107A400080932B018093080163E584E2A6D143E291
:107A50006AE087E069D161E08EEFBED11092080143
:107A60006FE584E29AD180912A018F3F09F407C122
:107A70008091290181508E3F08F05AC030920D014B
:107A800010920E0143EC62E18FE04ED160E08FE096
:107A9000A3D18D819E81E4E0880F991FEA95E1F7DB
:107AA00022D198878F8388E0FE013196ADE0B1E066
:107AB00001900D928A95E1F7B0921601A0921501FE
:107AC00044EC62E580E030D163E081E085D1882339
:107AD00009F4D5C048E050E063E371E0CE010196BF
:107AE0005AD2892B09F4CBC080913701909138018B
:107AF000009709F045C08091390190913A018A3789
:107B00009A4D09F041C08091330190913401813048
:107B1000910571F500E010E06FEFC80159D20F5FD9
:107B20001F4F011584E01807B9F7F999FECF50CF20
:107B300043E262E083E0F8D063E084E04DD1882343
:107B400009F496CF80912F01869586958695E3E37B
:107B5000F1E060E0815048F02191660F962F990F77
:107B6000990F690F6053620FF5CF80E090E006C077
:107B7000029782309105C8F66091350129D2D5CFA0
:107B80008038974008F07BC088E0E3E3F1E0DE0155
:107B9000119601900D928A95E1F7EF80F884D886CE
:107BA000CF82CE010196E1D18D809E8089819A811C
:107BB00090930E0180930D018B819C819093100115
:107BC00080930F0184010150110910931201009359
:107BD000110144EC62E382E0A7D063E083E0FCD0D3
:107BE000882309F44BCF46E050E063E371E08DE079
:107BF00091E0D1D1892BD1F6C4018150904F682FEB
:107C000062956077ACE2B1E0462F50E04C525140B3
:107C1000FA01EA0FFB1F1E962C911E9730E0322FBF
:107C200022271D967C911D97272B090127BEE895D9
:107C3000112412966A167B0659F7611106C044E0BA
:107C4000880F991F4A95E1F73CD00115110511F0F5
:107C50004801ACCFF886EF828D819E8134E0880F99
:107C6000991F3A95E1F73FD0E816F90621F01E82F8
:107C70001D8218861F82CE01019677D156CF8D8145
:107C80009E8124E0880F991F2A95E1F72CD02F813F
:107C900038858217930709F048CF1CBCA8958091BE
:107CA0002701282EF201099540CF8091C00087FF5F
:107CB000FCCF8091C00084FD01C0A8958091C600D2
:107CC000089523E0FC0127BFE89507B600FCFDCF2F
:107CD00025E0FC0127BFE89507B600FCFDCF81E158
:107CE00087BFE8950895BC01E0E0F0E08FEF9FEFDB
:107CF000E617F707C0F4E11528E7F207A0F425918D
:107D0000822748E0DC01B695A7959C0121703327B6
:107D10003195219531092170307ACD018227932741
:107D2000415081F7E5CF089590912901E6E0F1E017
:107D3000918390839FEF9683858344836383089523
:107D40002A989AE19A95F1F700C08EBD0DB407FE0E
:107D5000FDCF8EB59FEF4150D0F0222369F09EBD3C
:107D60000DB407FEFDCF8EB561157105A1F3DB01E2
:107D70008C936F5F7F4FEFCFFB013196DB018C91CE
:107D80008EBD0DB407FEFDCF8EB5BF01E4CF2A9A9C
:107D9000BAE1BA95F1F700C00895CF93DF931F922F
:107DA000CDB7DEB7698320E041E0BE016F5F7F4F52
:107DB000C7DF0F90DF91CF91089520E040E060E0B1
:107DC00070E082EEBDDF20E040E060E070E081EE38
:107DD000B7DF60E787E2E1CFFF920F931F93CF9366
:107DE000DF93082FF62EC0910901C695C695C6955A
:107DF000C95FD0912A0129986EE080E2CEDFD0934E
:107E0000000120E045E060E071E08AE299DF20E0D7
:107E100045E060E071E080E393DF20E04C2F66E016
:107E200071E080EA8DDF299A8AE08A95F1F700C037
:107E300020E040E060E070E08FEF82DF8073C1F30C
:107E40002998BBDF6FE080E2A8DF609129018AE218
:107E5000A4DF299ACFEFDFEFA89521E041E060E0B1
:107E600070E087E16DDF80FF02C09FEF4BC021E033
:107E700041E060E070E080E663DF182F813208F0B7
:107E800010E021E0412F6CE271E081E659DF95DFDF
:107E9000812F90E020912F0126952695269530E0A0
:107EA000295F3F4F8217930701F790912E01809130
:107EB00029019813DACF90913101809130018770B8
:107EC000833001F59830F1F420912A018091280146
:107ED000281302C08F3FB1F420912D01821304C0FA
:107EE00080932A019EEF0EC03091330181E0830F11
:107EF0008093330140912B01341720F480932B01A0
:107F000020932A0188E08A95F1F7219719F4F1105E
:107F100008C002C00913A0CF81E0091731F080E04A
:107F200004C0FA9409135FCFF7CFDF91CF911F916F
:107F30000F91FF9008959091C00095FFFCCF809322
:107F4000C6000895B2DE803239F088E18093600087
:107F500088E080936000FFCF84E1EDCFCF93C82FFE
:107F6000A4DEC150E9F7CF91EDCF0F931F93CF93CC
:107F7000DF938C01CBE1D1E0F80161918F01CE015B
:107F800027D02196C332F1E0DF07B1F7DF91CF911F
:107F90001F910F910895FB01DC0104C08D910190A8
:107FA000801921F441505040C8F7881B990B08955F
:107FB000DC01CB01FC01F999FECF06C0F2BDE1BDA9
:107FC000F89A319600B40D9241505040B8F7089598
:107FD000262FF999FECF92BD81BDF89A019700B482
:107FE000021639F01FBA20BD0FB6F894FA9AF99A22
:0A7FF0000FBE089500FCE1A8A800F0
:00000001FF
