:100000000C945E000C944A130C9423130C948600F9
:100010000C9486000C9486000C948C140C9486002E
:100020000C9486000C9486000C9486000C94860038
:100030000C9486000C9486000C9486000C94860028
:100040000C94D9120C9486000C9486000C948600B3
:100050000C9486000C9486000C9486000C94860008
:100060000C9471130C94860000000008000201003B
:100070000003040700000000000000000000000072
:10008000250028002B0000000000240027002A0083
:10009000040404040404040402020202020203032E
:1000A0000303030301020408102040800102040836
:1000B00010200102040810209614981511241FBE68
:1000C000CFEFD8E0DEBFCDBF11E0A0E0B1E0EEE6BB
:1000D000F6E302C005900D92AA3CB107D9F722E0E1
:1000E000AAECB1E001C01D92AC3AB207E1F710E012
:1000F000CDE5D0E004C02197FE010E94411ACC3525
:10010000D107C9F70E9405150C942A1B0C94000016
:1001100090E0FC01EC55FF4F249180579F4FFC016C
:100120008491882399F090E0880F991FFC01EA5789
:10013000FF4FA591B491FC01E458FF4F8591949134
:100140008FB7F894EC91E22BEC938FBF0895942F26
:10015000E6E6F2E03091580231838283668325839C
:100160004481487F492B477E4483CF01089590E026
:10017000FC01E859FF4F2491FC01EC55FF4F3491ED
:10018000FC01E057FF4FE491EE23C9F0222339F040
:10019000233001F1A8F4213019F1223029F1F0E0E7
:1001A000EE0FFF1FE458FF4FA591B4918FB7F8945D
:1001B000EC91611126C030953E233C938FBF08958A
:1001C0002730A9F02830C9F0243049F78091800009
:1001D0008F7D03C0809180008F7780938000DFCF78
:1001E00084B58F7784BDDBCF84B58F7DFBCF8091C5
:1001F000B0008F778093B000D2CF8091B0008F7D18
:10020000F9CF3E2BDACF20913E0190E4299F900157
:1002100011248E50822B80937C0080917A00806420
:1002200080937A0080917A0086FDFCCF80917800DF
:100230009091790008953FB7F8948091520290917F
:100240005302A0915402B091550226B5A89B05C057
:100250002F3F19F00196A11DB11D3FBFBA2FA92F45
:10026000982F8827BC01CD01620F711D811D911D42
:1002700043E0660F771F881F991F4A95D1F70895AD
:100280008F929F92AF92BF92CF92DF92EF92FF92A6
:100290006B017C010E941B014B015C01C114D10464
:1002A000E104F104B9F00E941B01681979098A0977
:1002B0009B09683E73408105910580F321E0C21AD5
:1002C000D108E108F10888EE880E83E0981EA11C91
:1002D000B11CE4CFFF90EF90DF90CF90BF90AF9034
:1002E0009F908F9008952FB7F89460914E0270916F
:1002F0004F0280915002909151022FBF08950895AE
:1003000020910302260F3327331F21323105ECF4ED
:1003100020912702FC0190E080E0243069F082E027
:100320000895A09103022191AC014D515E4FA40F9D
:10033000B52FB11D2C930196861798F38091030277
:10034000680F6093030280E0089581E008950895A6
:100350008FEF9FEF08958FEF9FEF08958091DC015D
:1003600090E09195819591090895CF93DF93CB010A
:10037000EA01642F0E948001CE01DF91CF910895A0
:10038000CF93DF931F92CDB7DEB7698361E0CE01D3
:1003900001960E94800181E090E00F90DF91CF9163
:1003A000089590E080E008950895FC0183818770AE
:1003B0008860838384818F71806284836783CF01A7
:1003C0000895E091CF01F091D001309721F00280A3
:1003D000F381E02D099408950F931F930E947301F8
:1003E0000091D1011091D2012091D3013091D4011B
:1003F000601B710B820B930B1F910F9108959C0151
:100400008091CF019091D00182179307F1F09091E4
:10041000D9019F719093D9013093D0012093CF01DE
:10042000E091CF01F091D001309721F00190F0815F
:10043000E02D09950E9473016093D1017093D20160
:100440008093D3019093D40108958091D901805E67
:100450008093D901E5CF0F931F930E94EC01209167
:10046000DA012077203779F000E117E220E030E070
:10047000061717072807390758F486E391E01F91FC
:100480000F910C94FF0100E61AEE20E030E0F0CF6F
:100490001F910F9108958091DA01982F9F709630E7
:1004A00018F0807F8093DA0108958091D9018460EB
:1004B0008093D9018091DA0180788093DA01E0910C
:1004C000CD01F091CE01309709F009940895CF93B2
:1004D000C091DB01CF3FA1F00E9473016093D50171
:1004E0007093D6018093D7019093D80180915A02DE
:1004F000C813C0935A0281E391E0CF910C94FF019D
:100500000E94EC01613D77408105910568F0809182
:10051000D901803618F48DE291E0EFCF877F809388
:10052000D90189E291E0E9CFCF91089580915802F5
:100530008F3F21F08DE291E00C94FF010E94EC01CD
:10054000613D77408105910550F08091D901803659
:1005500018F485E291E0F0CF81E291E0EDCF0895CB
:1005600085E291E00C94FF018EBD00000DB407FE02
:10057000FDCF8EB50895FC0180819181009711F027
:100580000C94521608950F931F93CF93DF93EC01B1
:1005900088819981009759F02A813B812617370776
:1005A00030F081E0DF91CF911F910F9108958B0181
:1005B0006F5F7F4F0E944E1A009759F0998388838E
:1005C0001B830A832C813D81232B59F7FC01108268
:1005D000E8CF80E0E7CFEF92FF920F931F93CF9386
:1005E000DF936115710541F480E0DF91CF911F9198
:1005F0000F91FF90EF900895FB0101900020E9F723
:100600003197E61BF70BE1F07B018C01DC011496BE
:10061000CD91DC91CE0FDF1FBE010E94C302882363
:1006200019F3F8012081318184819581B701820F0E
:10063000931F0E94141BD8011596DC93CE93149738
:1006400081E0D3CFEF92FF920F931F93CF93DF936D
:10065000EC017B018A01BA010E94C3022881398121
:10066000811114C02115310519F0C9010E945216DB
:10067000198218821D821C821B821A82CE01DF9190
:10068000CF911F910F91FF90EF9008951D830C83E0
:10069000B701C9010E94141BF1CFFC011182108225
:1006A00013821282158214826115710551F0FB01CB
:1006B00001900020E9F73197AF01461B570B0C94CE
:1006C000220308951F93CF93DF9385ED8093BC00A1
:1006D0008091DF019091E001A091E101B091E201F0
:1006E0000796A11DB11D23E0B695A795979587950F
:1006F0002A95D1F72091BC0024FD03C01092270257
:1007000052C04091DF015091E0016091E101709190
:10071000E201452B462B472B69F30097A105B10554
:1007200041F02AE12A95F1F700C00197A109B1092A
:10073000E1CF8091DE01C1E0C093DD01882399F112
:10074000D091B8001091BA008091BC008A7B809350
:10075000BC0060E082E10E94B70060E083E10E949B
:10076000B70010922702C09329021092280261E07C
:1007700082E10E94B70061E083E10E94B7008091AE
:10078000B9008E7F8093B9008091B9008D7F8093EE
:10079000B90080E28093B80085E48093BC00109398
:1007A000BA00D093B800DF91CF911F910895E9ED81
:1007B000F1E08081897F8E7F8083E8E5F2E081E04F
:1007C0008283118260E081E090E00C946018E9ED92
:1007D000F1E08081877F8F7E80831092D501109217
:1007E000D6011092D7011092D80144E050E070E099
:1007F00060E088E592E00C9438180F931F93CF9334
:10080000DF938C0180E06115710551F0EB010990D7
:100810000020E9F721978C2F861B8A3108F089E1A7
:10082000F801C381C770F8E08F9FC0011124C82B65
:10083000F801C38384818F718483C695C695C6955C
:10084000CA3108F0C9E1D0E0AE01C80107960E94A4
:100850001B1BC00FD11F1F82C801DF91CF911F91B9
:100860000F910895FC01248122952695277021304F
:1008700011F487810895211104C007960E94DB16A8
:10088000089580E008958F929F92AF92BF92CF9289
:10089000DF92EF92FF920F931F93CF93DF93CDB729
:1008A000DEB72C970FB6F894DEBF0FBECDBFFC01AC
:1008B000348134FD21C02581223039F0203379F193
:1008C0003EEF320F3230C0F4CBC036813A3F09F0F0
:1008D0004BC1109103010E94320461E0811101C0FB
:1008E00060E0161749F06093030181E080930401F2
:1008F00087E992E00E9460182C960FB6F894DEBF4C
:100900000FBECDBFDF91CF911F910F91FF90EF9060
:10091000DF90CF90BF90AF909F908F9008952681E9
:10092000293F51F7329536953770BC01695F7F4F8B
:10093000332311F070E060E0CE0107960E944D0372
:10094000F12CE12C10E000E090E080E02B853C856C
:100950008217930708F060C0F6E0EF16F10408F084
:100960005BC02F813885AC014F5F5F4F5A01211565
:10097000310509F45CC0280F391FF90120812B33A0
:1009800009F052C06C018017910710F068018C01CA
:100990006FEB71E0CE0101960E944D038B849C8425
:1009A000C814D90418F50815190508F44801EF8191
:1009B000F885E80DF91D108110826F8178856C0D26
:1009C0007D1D61157105A9F1FB0101900020E9F77A
:1009D0003197AF01461B570BCE0101960E942203AF
:1009E0008F819885880E991EF401108389819A81E0
:1009F000009761F10E94F916F701EE0FFF1FE15F0A
:100A0000FE4F71836083CE0101960E94BB02850177
:100A1000FFEFEF1AFF0A0BC081E080930601CE01C1
:100A200007960E94BB0268CF2C3709F4ABCFC501F3
:100A30008DCF89819A81009711F00E9452161A82F7
:100A400019821E821D821C821B82CACF60E070E068
:100A5000CB01D2CFF701478101E0341709F48DC0F3
:100A60000091620210916302FC013681F80143811A
:100A70003417B1F1448543133FCF31E0E32EF12C1D
:100A8000233099F10E94320499E09E9DF0019F9DD0
:100A9000F00D1124E00FF11F85839781891709F468
:100AA0002BCF8823F9F0808591851816190614F04C
:100AB00084E690E029E02E9DF0012F9DF00D112499
:100AC000E00FF11F9187808789E08E9DF0018F9D57
:100AD000F00D1124E00FF11F81E08683F80160C062
:100AE00030E0CCCF90E080E0E5CFDFB6F894FC01B9
:100AF00024812295269527702230C1F48781908524
:100B000085369105E4F497FF02C090E080E029E08B
:100B10002E9DF0012F9DF00D1124E00FF11F208577
:100B200031852817390771F4DFBEE6CE211104C0E4
:100B300007960E94DB16E4CF90E080E0E4CF84E6E5
:100B400090E0E5CF21E0181619060CF020E025838F
:100B500029E02E9DF0012F9DF00D1124E00FF11FD3
:100B600091878087DFBEB0CFE0906402F09065028D
:100B7000F701438143136ECF00E010E0000F111F17
:100B8000000F111F0E0D1F1DF801D5800E943204A9
:100B9000D81609F4B1CEF801858381E08683F70188
:100BA0008083AACECF93DF93FC0110821182128240
:100BB000148215821682DC0117968AE1ED011992E2
:100BC0008A95E9F782E08383DF91CF910895BF9200
:100BD000CF92DF92EF92FF920F931F93CF93DF9309
:100BE0007B01042FB22E90E59CBD1DBC2A98E0E14C
:100BF000F0E03197F1F70E94B402182FE70101509D
:100C0000A8F0BB2051F08FEF0E94B402182FE1141E
:100C1000F104A9F388832196F2CF6E018FEFC81AF1
:100C2000D80A88810E94B402E601E9CF2A9A80E1BD
:100C300090E00197F1F7812FDF91CF911F910F91F4
:100C4000FF90EF90DF90CF90BF900895CF93DF9308
:100C50001F92CDB7DEB7698320E041E0BE016F5F30
:100C60007F4F0E94E7050F90DF91CF91089580910B
:100C7000DA01982F9077903759F0982F92959F70BE
:100C80009F5F97709295907F8F78892B8093DA0180
:100C90008091D9018B7F8F7E8093D90129986CE058
:100CA00080E20C9426066FE080E20E9426066091A6
:100CB00020016F3F19F08AE20E942606299A0895C2
:100CC00021E041E070E060E00C94E70520E040E0C6
:100CD00070E060E00C94E705FF920F931F93CF93B1
:100CE000DF9390915802FB0190834381C0E242FD63
:100CF00008C04695469546954A3108F049E1C7E057
:100D0000C40F90915B02D1E090FD03C08F3F09F0CA
:100D1000D0E06115710509F44CC08B01F82E2998BB
:100D200080E091E00197F1F76EE080E20E942606F4
:100D300084EC90E00197F1F76F2D8AE20E9426067D
:100D40006F2D80E30E94260681EE0E946606DD2359
:100D500021F060E584E20E94260620E04C2FB801D5
:100D600080EA0E94E705299A10E000E08FEF0E94D8
:100D70006606807339F40F3F100721F0A8950F5FC6
:100D80001F4FF4CF299860E787E20E942606C82FFC
:100D900084FF03C081EE0E946606DD2321F06FE52B
:100DA00084E20E9426060E945306C5FF03C0D1E0DC
:100DB00001C0D0E08D2FDF91CF911F910F91FF9057
:100DC00008950F931F93CF938C01FC018281909122
:100DD000D90190FF04C08F3F51F5CFEF04C08111BE
:100DE00016C0C0915902B8018C2F0E946C069091D8
:100DF00059029C1313C09091DA01811113C021E0B4
:100E0000290F2F70907F922B9093DA0107C08F3FAC
:100E100021F3B8010E946C06882319F3CF911F912A
:100E20000F910895907F9093DA0181E0F7CF80E0F1
:100E3000F5CF2091D90122FD0C94E10680E00895C0
:100E4000FC018091580281839481907F9960948302
:100E50008091570280FF03C0CF010C94190780E0F6
:100E60000895FF920F931F93CF93DF93CDB7DEB713
:100E7000A1970FB6F894DEBF0FBECDBFF82E8B0141
:100E8000CE0101960E94D205FF8282E08E83F80196
:100E90006081CE0101960E94D5010E942007A19693
:100EA0000FB6F894DEBF0FBECDBFDF91CF911F917B
:100EB0000F91FF900895EF92FF920F931F93CF939E
:100EC000DF931F92CDB7DEB78C017B01DB018C91E4
:100ED000E82FF0E0DF01AA0FBB1FAA0FBB1FA00F76
:100EE000B11F3196EE0FFF1FEE0FFF1FE00FF11F36
:100EF00015966C9180810E94B700D701EC91B4E007
:100F0000EB9FF0011124E00FF11F838190E06581D8
:100F100083569E4F0E946018F7018081F4E08F9FF6
:100F2000C0011124F801E80FF91F21E035813111CA
:100F300001C020E02983080F191FBE016F5F7F4F9A
:100F4000D80113968C910E9431070F90DF91CF91B9
:100F50001F910F91FF90EF900895FF920F931F93B1
:100F6000CF93DF93CDB7DEB7A1970FB6F894DEBF6E
:100F70000FBECDBFF82E8B01CE0101960E94D20587
:100F8000FF8283E08E83F801208131818C8187701C
:100F900080618C838D818F7180648D8339872887F0
:100FA000CE0101960E942007A1960FB6F894DEBFED
:100FB0000FBECDBFDF91CF911F910F91FF9008958C
:100FC000EF92FF920F931F93CF93DF93CDB7DEB7CE
:100FD000A1970FB6F894DEBF0FBECDBFE82EF62E58
:100FE0008A01CE0101960E94D205EF82FE82F801AD
:100FF00060817181CE0101960E94FD030E9420074D
:10100000A1960FB6F894DEBF0FBECDBFDF91CF9192
:101010001F910F91FF90EF9008951F93CF93DF934F
:10102000182F262FEA0150E040E0682F80E00E9450
:10103000A7001F3F11F4CFE5D1E0BE010E94FD03E0
:10104000DF91CF911F910C9419072F923F924F92ED
:101050005F926F927F928F929F92AF92BF92CF9248
:10106000DF92EF92FF920F931F93CF93DF9300D005
:1010700000D01F92CDB7DEB7809135018F3F09F4C4
:1010800058C087E1A82EB12C93E0E92EF12C22E084
:10109000C22ED12C30E3232E312C44E0442E512C8F
:1010A00056E0652E712CE0913501E83008F024C13E
:1010B000E150E73008F03DC0F0E0EF59F74F0C94F5
:1010C000411A7008B108BF08F6082A096A086A08B8
:1010D000882341F0809135018F5F80933501E3CF04
:1010E00009EE13E064E670E080E090E00E94AC0B53
:1010F0002BE043E050E06FEF80E00E94A70065E640
:1011000071E00E94FD030E941907982E2CE043E035
:1011100050E06FEF80E00E94A7006AE771E00E9454
:10112000FD030E94190789210150110989F68111D7
:10113000D1CF0F900F900F900F900F90DF91CF9124
:101140001F910F91FF90EF90DF90CF90BF90AF90E5
:101150009F908F907F906F905F904F903F902F90D7
:1011600008957A8269828DEF8B834EE751E0BE014C
:101170006F5F7F4FCE0103960E94040CD8CF009181
:10118000640210916502FA82E982480183E0880EC8
:10119000911C47E851E0BE016F5F7F4FC4010E9480
:1011A000040C882331F2DA82C982BE016F5F7F4F5F
:1011B000C4010E94D40B882309F4BBCFFA82E982D0
:1011C000095F1F4F47E851E0BE016F5F7F4FC801C5
:1011D0000E94040C882309F4ACCFDA82C982BE01D4
:1011E0006F5F7F4FC8010E94D40BA1CF8090620235
:1011F0009090630284010D5F1F4F95E1890E911C51
:101200005A82498244E951E0BE016F5F7F4FC801B5
:101210000E94040C882309F48CCFDA82C982BE01B3
:101220006F5F7F4FC8010E94D40B882309F481CFE0
:10123000FA82E982BE016F5F7F4FC8010E94D40B22
:10124000882309F476CF075F1F4F8016910609F4B3
:1012500041CFD6CF8AEF8D8399EF9C838BEF8B8321
:1012600080E190E09A83898350E040E0BE016F5FA7
:101270007F4FCE0103960E94040C882309F459CFB6
:10128000BA82A982BE016F5F7F4FCE0103960E9492
:10129000D40B882309F44DCFFA82E98248EA51E061
:1012A000BE016F5F7F4FCE0105960E94040C88231C
:1012B00009F43FCFDA82C982BE016F5F7F4FCE0152
:1012C00005960E94D40B882309F433CFBA82A982F1
:1012D00042EA51E0BE016F5F7F4FCE0104960E944B
:1012E000040C882309F425CF3A822982BE016F5F5E
:1012F0007F4FCE01049677CF8FEF8093350119CFC2
:101300002FE043E050E06FEF80E00E94A7006FEB1A
:1013100071E00E94FD03E6E6F2E083818770806160
:10132000838384818F71806C848381E087831086BE
:10133000CF010E9419078FE00E94760B4FEB51E01E
:1013400061E170E08FEF0E940D0826E043E050E07D
:101350006FEF80E00E94A700609159020E94D501C2
:101360000E94190786E00E94760B0C9425084F9284
:101370005F926F927F928F929F92AF92BF92DF9215
:10138000EF92FF920F931F93CF93DF9300D01F92A2
:10139000CDB7DEB726E02B8300E010E088248A94E6
:1013A00082E0982E83E0A82EB92CE12CFF24FA9439
:1013B00087E10E94600680FD80C18B8181508B8314
:1013C000882309F47AC121E041E070E060E080E622
:1013D0000E94E7058983813220F082EE0E94660632
:1013E000198221E0498167E872E081E60E94E70501
:1013F00060E487E20E94260680918A02982F93700B
:101400009230B1F6E82FE695E695E695EA3108F0D8
:10141000E9E182FF57C089E1895F99819813C8CFBC
:1014200080918B02282F2770298390918C029A83B8
:10143000D090880220918702909189023091DA0140
:1014400030683093DA013091580293130AC1F0E00A
:10145000E957FD4F178283FF15C021E2E7E8F2E06C
:10146000A6E6B2E001900D922A95E1F7877E8061B1
:1014700080936A0290936702D092680286E692E0B7
:101480000E94190790918B0294FDE3C029812330BB
:1014900009F0DFC080918C0221EF280F233008F47F
:1014A00087CF2A81243009F483CF283169F429E1D8
:1014B00043E050E06FEF8D2D0E94A70061E00E9495
:1014C000D5012CC08E2FA8CF2A81293171F48091AB
:1014D000D90183FF6DCF877F8093D90187E892E0A0
:1014E0000E9432048093DB0163CF2A812E3109F4FC
:1014F0005FCF2D31B1F42FE143E050E06FEF80E09A
:101500000E94A700FC0183818770806183838481AE
:101510008F7180648483F086E782CF010E94E106A8
:1015200047CF20918802211199C08D3059F488E16C
:1015300098E00FB6F894A895809360000FBE909342
:101540006000FFCF8B3179F487E892E00E9432048B
:1015500091E0811101C090E08091570290FB80F9E9
:101560008093570225CF863099F490918E0281E0C6
:10157000992319F09D3409F080E08093560241E0F0
:1015800050E063E071E086E592E00E94501810CFD1
:10159000833119F40E9480090BCF8231E1F40E945B
:1015A000EC012B013C0126E143E050E06FEF80E0CD
:1015B0000E94A700FC0183818770806283838481FD
:1015C0008F71806A84834782508661867286CF01DC
:1015D0000E941907EDCE8230A9F422E043E050E0EA
:1015E0006FEF80E00E94A700FC018381877080621A
:1015F000838384818F71806A848387829086A186A9
:10160000B286E5CF8130F9F40115110509F4D0CE89
:10161000929596959770953059F460918E027091DD
:101620008F0280919002909191020E940000C0CEA2
:10163000911105C08EE892E00E94F916F6CF60E0A5
:1016400070E0CB01F2CF8A3009F4B2CE8C3109F4CC
:10165000AFCE87E892E00E944304AACE8A31C9F750
:10166000A7CE9F3F09F0A4CE8981833009F58091F0
:10167000D90182FF04C09A81973009F499CE8A81FA
:10168000843109F095CE80915902281391CE0E94A1
:1016900073017370882799270E94400125E143E078
:1016A00050E06FEF8D2D0E94A7006091590207CF87
:1016B0008091590228137CCECCCF0F900F900F90C1
:1016C000DF91CF911F910F91FF90EF90DF90BF902E
:1016D000AF909F908F907F906F905F904F90089504
:1016E0008091D90184FD0C94B7090895CF92DF92BF
:1016F000EF92FF92CF93DF93D82F0E9473016B017B
:101700007C0180918B02876080938B02C0E00E94F5
:1017100073016C197D098E099F09603D7740810531
:10172000910590F4C11110C0A8950E94E1010E949A
:10173000700B80918B028770833049F7C1E08091F4
:101740008C028D13E3CFE3CF8C2FDF91CF91FF90ED
:10175000EF90DF90CF9008958F929F92AF92BF92BB
:10176000CF92DF92EF92FF924B015C010E947301D6
:101770006B017C010E9473016C197D098E099F0920
:10178000681579058A059B0530F4A8950E94E1014A
:101790000E94700BEFCFFF90EF90DF90CF90BF9043
:1017A000AF909F908F900895CF92DF92EF92FF922B
:1017B0000F931F93CF93DF937C016B01C9EED3E0AE
:1017C000F6010081F701108164E670E080E090E0AE
:1017D0000E94AC0B202F42E050E0612F80E00E947D
:1017E000A7006FEB71E00E94FD030E94190721978B
:1017F00011F0882329F3DF91CF911F910F91FF9072
:10180000EF90DF90CF9008958F929F92AF92BF920A
:10181000CF92DF92FF920F931F93CF93DF936C01D0
:101820005B018A01C9EED3E0F50180809180F60169
:10183000F08064E670E080E090E00E94AC0BA801CC
:101840000115110511F44FEB51E0B4018F2D0E94E9
:101850000D08219711F0882339F3DF91CF911F9163
:101860000F91FF90DF90CF90BF90AF909F908F909F
:1018700008957F928F929F92AF92BF92CF92DF9204
:10188000EF92FF920F931F93CF93DF938C017B0115
:10189000FB018081F80199E0899FE00DF11D112481
:1018A0008085918522853385821B930B97FD47C0E8
:1018B00081E099E0A92EC82E880FDD08F70180810C
:1018C000F801A89EE00DF11D1124828593852085E5
:1018D00031858217930709F476C08C0D9D1D93877F
:1018E0008287F70180814801A89E800C911C1124F9
:1018F000F40162857385072E000C880B990B0E94FA
:101900003F1720E030E048EC52E40E94711920E0DB
:1019100030E04FE753E40E947A170E94E319B62E95
:10192000772EC62FD72FF4019480892D0E9488002E
:10193000209739F460E0892D0E94B70030C08FEF06
:10194000B8CFCF3FD10511F461E0F5CFE92DF0E03C
:10195000E859FF4FE491E33009F448C040F4E13026
:10196000D1F0E230F1F1C038D10574F7E3CFE730C0
:1019700009F448C0E83009F44DC0E430A1F7809183
:1019800080008062809380008B2D972D90938B0038
:1019900080938A0004C084B5806884BDB7BC6AE0C7
:1019A00070E080E090E00E94AC0BF7018081F801CC
:1019B000A89EE00DF11D1124828593850197833641
:1019C000910508F47BCFDF91CF911F910F91FF908C
:1019D000EF90DF90CF90BF90AF909F908F907F90CF
:1019E000089584B5806284BDB8BCD9CF8091800051
:1019F0008068809380008B2D972D90938900809331
:101A00008800CDCF8091B00080688093B000B09204
:101A1000B300C5CF8091B00080628093B000B092D7
:101A2000B400BDCFDF92EF92FF920F931F93CF933D
:101A3000DF931F92CDB7DEB78C017B010E94390C7A
:101A4000F701808199E0D92EF801D89EE00DF11DB3
:101A50001124838190E0658183569E4F0E94601817
:101A6000F7018081282F30E0F801D89EE00DF11DAC
:101A7000112481E09581911101C080E0898389E082
:101A8000D82ED29EF001D39EF00D1124E00FF11F4D
:101A9000BE016F5F7F4F83810E943107F701808114
:101AA0008D9DC0011124BC01685F7F4F600F711FC5
:101AB000080F191FF80183810E94AD070F90DF9175
:101AC000CF911F910F91FF90EF90DF9008952F928B
:101AD0003F924F925F926F927F928F929F92AF92BE
:101AE000BF92CF92DF92FF920F931F93CF93DF931A
:101AF000CDB7DEB7A3970FB6F894DEBF0FBECDBF4C
:101B0000809135018F3FA1F00E9425088091350119
:101B10008F3F09F46BC30CE310E00150110909F485
:101B200065C364EF71E080E090E00E94AC0BF5CFFC
:101B30008091D90182FF7DC38091CB019091CC012E
:101B40006CE370E00E94191A892B29F0809105013D
:101B5000882309F45EC08FE00E94030120910901EF
:101B600030910A012817390714F4821B930B209136
:101B70000701309108012817390791F097FD10C02F
:101B8000909308018093070120910F01309110017B
:101B90002817390708F4CBC010920C0110920B01E2
:101BA00080910B0190910C0120910D0130910E015B
:101BB0002817390749F190930E0180930D01A091E8
:101BC0000701B091080124E630E00E94471A24E89A
:101BD00033E040E050E00E9472184901CE010196C6
:101BE0000E94D2058BEF8F8387E18E838C81877073
:101BF00080618C838D818F7180668D8399868886C4
:101C0000CE0101960E94200780910501811110925A
:101C1000050180910601882389F11092060164EB89
:101C200071E0CE0101960E944D030FE011E06BE1DF
:101C3000C62E61E0D62ED8016D917D918D01625442
:101C40007E4FCE0101960E94EB02C016D10699F795
:101C500060EC71E0CE0101960E94EB0289819A81CD
:101C60009BA38AA3AE014E5D5F4F60E370E089EFF6
:101C70000E94E007CE0101960E94BB028091040100
:101C8000882359F010920401809103018983BE01D9
:101C90006F5F7F4F8AEF0E943107009162021091BF
:101CA00063028091CB019091CC0161E470E00E94CD
:101CB000191A892B09F0DEC0198299E0F92E24E661
:101CC000222E312C412C512C39E1A32EB12C44E68B
:101CD000842E912C55E5652E712C8981823008F077
:101CE000C9C0C82ED12CF801F89EE00DF11D1124B9
:101CF00085818823C1F0D80111962D913C91D9019D
:101D00008C91882381F018968D919C918330910558
:101D100009F48FC008F044C08130910509F4A1C0D6
:101D2000029709F493C089818F5F8983D6CF209170
:101D30001101309112012817390738F081E090E045
:101D400090930C0180930B012BCF209113013091C4
:101D500014012817390718F082E090E0F1CF2091A4
:101D60001501309116012817390718F083E090E02B
:101D7000E7CF20911701309118012817390718F083
:101D800084E090E0DDCF2091190130911A012817ED
:101D9000390718F085E090E0D3CF86E090E0D0CF0F
:101DA00085309105A1F0C0F1069709F0BCCFA08560
:101DB000B185AA31B105F4F4B186A086FC9CF0018E
:101DC000FD9CF00D1124E00FF11F858103C01186E9
:101DD000108680E0FC9CF001FD9CF00D1124E00FCA
:101DE000F11F85838783BE016F5F7F4FC8010E940B
:101DF000120D99CF29E130E00E94471AA20191010A
:101E00000E947218FC9CF001FD9CF00D1124E00F63
:101E1000F11F31872087D2CFA085B185AE32B105C1
:101E20002CF48DE290E091878087C8CF2DE230E0DE
:101E3000E3CFA085B185A234B1052CF4A1E4B0E0D4
:101E4000B187A087BBCF21E430E0D6CFA085B18594
:101E5000A635B1051CF471866086B0CF25E530E06B
:101E6000CBCF808591858436910509F45CCF91862E
:101E70008086A4CFF8018081882309F458C010829D
:101E8000198289E0F82EDD24D3948981823008F00C
:101E90004EC0F801F89EE00DF11D112486818823C3
:101EA000C1F0858197818917C1F08783BE016F5F7B
:101EB0007F4FC8010E94120D8981F801F89EE00D44
:101EC000F11D1124168262E370E080E090E00E9430
:101ED000AC0B89818F5F8983D8CF811108C0808541
:101EE00091851816190664F4D582D782DFCF813028
:101EF00039F480859185892B19F415821782D6CF04
:101F0000BE016F5F7F4FC8010E94390C89818F9D90
:101F1000C0011124BC01685F7F4F600F711F800FEB
:101F2000911FDC0113968C910E94AD07C5CF0091E3
:101F30006402109165028091CB019091CC0166E41E
:101F400070E00E94191A892B41F51982E981E2306B
:101F500020F5B4E0EB9FF00111249F01200F311F09
:101F6000F90185818823A9F0F801A181B2818C91C2
:101F7000882379F018968D919C910497039748F4E3
:101F8000D90115961C92BE016F5F7F4FC8010E9458
:101F90005B0789818F5F8983D9CFF801808188238E
:101FA000C9F010821982E981E230A0F424E0E29FB6
:101FB000F0011124E00FF11F8681882339F0168289
:101FC000BE016F5F7F4FC8010E945B0789818F5FF1
:101FD0008983E9CF00916002109161028091CB0169
:101FE0009091CC0167EB70E00E94191A892B29F0BF
:101FF000D8018C91882309F453C088EC80937C002D
:1020000080917A00806880937A0064E170E080E0DB
:1020100090E00E94400180917A00806480937A0071
:1020200080917A0086FDFCCF6091780070917900F4
:1020300090E080E00E943D172EEA37E242EA53E446
:102040000E94041926EF38E24CE95FE30E947119FF
:102050000E94E319613801F1F80181818617E1F0EE
:102060006183CE0101960E94D2058DEF8F831E827F
:10207000D80111962C91022E000C330B8C818770A5
:1020800080618C838D818F7180648D8339872887EF
:10209000CE0101960E942007F801808181111082F3
:1020A000C0905E02D0905F028091CB019091CC01F4
:1020B00065EB70E00E94191A892B21F0D6018C91F2
:1020C000882339F18EE00E9403016AE070E00E94EB
:1020D0002D1A8B016536710514F004E610E017FF28
:1020E00002C010E000E0F60181818017110669F05E
:1020F000018320E043E050E06FEF80E00E94A70002
:10210000602F0E94D5010E941907D6018C91811180
:102110001C9200915C0210915D028091CB01909124
:10212000CC0166EB70E00E94191A892B29F0F801A6
:102130008081882309F44DC088E00E9460068F707A
:1021400023EE3FEFF8E08F9F201931091124032E71
:10215000000C440B550B2B5A3F4F4F4F5F4FA4E6DB
:10216000B0E00E9491182DE230E040E050E00E9483
:1021700072182536310514F024E630E037FF02C02E
:1021800030E020E0D80111968D919C91129728178C
:102190003907D9F012963C932E931197B9016D53DC
:1021A0007E4FCE0101960E944D0389819A819BA3A7
:1021B0008AA3AE014E5D5F4F6CE170E08EEF0E942E
:1021C000E007CE0101960E94BB02F80180818111D7
:1021D00010828091CB019091CC0101968036FAEE6D
:1021E0009F0710F59093CC018093CB0168EE73E0CC
:1021F00080E090E00E94AC0BA3960FB6F894DEBF8F
:102200000FBECDBFDF91CF911F910F91FF90DF9057
:10221000CF90BF90AF909F908F907F906F905F9086
:102220004F903F902F9008951092CC011092CB01C7
:10223000DDCF60E177E280E090E00E94AC0BD6CF8A
:10224000FF920F931F93CF93DF939091620280913F
:102250006302FFB6F894C92FD82F8E010E5E1F4F70
:102260008B8190E083569E4F0E9448188D831F8279
:1022700091E0811101C090E09E8381115FC090E0E8
:1022800080E0998788871B861A868C810E94880047
:102290008C818550823020F485B5887F826085BD31
:1022A00029960C171D07E1F6FFBEC0916402D0917C
:1022B00065021FB7F8948B8190E083569E4F0E9471
:1022C00048188D8391E0811101C090E09E838C813C
:1022D0000E9488008F8190E083569E4F0E9448188C
:1022E000898791E0811101C090E09A8788850E94DA
:1022F00088001FBF83E080933E018FE00E940301AE
:1023000010E000E0D0E0C0E00E9473016838734143
:1023100081059105B0F464E670E080E090E00E94F1
:10232000AC0B8FE00E940301C817D9072CF080176F
:1023300091070CF48C01CE01EC01E6CF84E690E02D
:10234000A0CFC01BD10BCF31D105A4F4D0930A018B
:10235000C093090187E992E00E94481891E0811139
:1023600001C090E090930301DF91CF911F910F91F5
:10237000FF90089510920A0110920901EBCFCF93BC
:102380008091570281FD20C00E94800980915702F0
:10239000816080935702C4E02AE143E050E06FEF90
:1023A00080E00E94A70062E00E94D5010E94190708
:1023B0008BE10E94760B811102C0C15069F78091B8
:1023C0005702826080935702CF9108958FEF8093D8
:1023D000DB01E9EDF1E080818860808328E143E062
:1023E00050E06FEF80E00E94A70061E00E94D501FD
:1023F0000C94E106809158028F3F69F423E043E09A
:1024000050E06FEF80E00E94A7006FEB71E00E9448
:10241000FD030C94E1060895CF93219A229A2998FE
:102420002A9ACFB7F8948091CA01811124C0EAE9B1
:10243000F0E08491EEEAF0E09491E82FF0E0EE0F06
:10244000FF1FEA57FF4FA591B491EC91E92321F4C6
:1024500061E08AE00E94B7008AE00E9488008CB5A3
:1024600080618CBD8CB580648CBD8DE00E9488003D
:102470008BE00E9488008091CA018F5F8093CA011F
:10248000CFBF29986EE080E20E94260684E293E2A4
:102490000197F1F763E083E20E9426066FE584E28C
:1024A0000E9426066CE485E20E94260665E286E22A
:1024B0000E94260664E08DE30E9426068DE10E94BC
:1024C0006006843041F063E780E50E94260664E000
:1024D0008DE30E94260686E00E946006853209F0A0
:1024E0004DC085E00E9460068C3409F047C062E070
:1024F00082E20E94260660E081E20E94260663E0F6
:102500008CE30E9426068FEF80931B0120E045E0BC
:102510006BE171E08BE20E94E70520E045E06BE1B2
:1025200071E08AE20E94E70520E045E06BE171E09E
:1025300080E30E94E70582EE0E94660681EE0E941B
:10254000660660E787E20E9426068091D9018061D5
:102550008093D90180915B028E7F80935B0286E13C
:102560008093580266E190E080E00E946018C0917C
:102570005802CF3F41F489E291E002C081E291E04C
:10258000CF910C94FF018FEF8C0F8E3FB8F7C09363
:10259000200163E082E20E94260661E081E20E945F
:1025A00026060E9453066C2F90E080E00E9460187F
:1025B000E2CF1F920F920FB60F9211242F933F93E9
:1025C0008F939F93AF93BF9380914E0290914F0250
:1025D000A0915002B091510230914D0226E0230F9C
:1025E0002D3758F50296A11DB11D20934D02809301
:1025F0004E0290934F02A0935002B09351028091EB
:10260000520290915302A0915402B091550201964A
:10261000A11DB11D8093520290935302A0935402C6
:10262000B0935502BF91AF919F918F913F912F91A0
:102630000F900FBE0F901F90189529E8230F039657
:10264000A11DB11DD2CF1F920F920FB60F92112470
:102650002F933F934F935F936F937F938F939F93AA
:10266000AF93BF93EF93FF93E0913C01F0913D0155
:102670000995FF91EF91BF91AF919F918F917F91BC
:102680006F915F914F913F912F910F900FBE0F90DF
:102690001F9018951F920F920FB60F9211242F932F
:1026A0003F934F935F936F937F938F939F93AF93DA
:1026B000BF93EF93FF93E0913A01F0913B010995AD
:1026C000FF91EF91BF91AF919F918F917F916F910A
:1026D0005F914F913F912F910F900FBE0F901F90E0
:1026E00018951F920F920FB60F9211242F933F93BC
:1026F0004F935F936F937F938F939F93AF93BF930A
:10270000EF93FF938091B900887F803609F44AC027
:10271000F0F5883209F4A5C018F5803109F499C0A4
:10272000B8F4882309F4F5C0883009F492C0FF9109
:10273000EF91BF91AF919F918F917F916F915F9139
:102740004F913F912F910F900FBE0F901F901895B2
:10275000883109F486C0803251F78093260214C074
:10276000803409F49BC040F48033B9F38833F9F620
:102770008093260285ECAEC0803509F483C088358D
:1027800009F494C0883499F60E946203D0CF883946
:1027900009F48AC038F5883729F050F4883611F0EA
:1027A000803729F683E0809327021092250255C0D6
:1027B000883809F479C0803919F0803809F0B7CF2A
:1027C00080912502803208F06FC0E091250281E0FF
:1027D0008E0F809325028091BB00F0E0EB5FFD4FF0
:1027E00080833BC0803B39F0D0F4803A09F477C055
:1027F000883A09F09CCF84E080932702109204026B
:1028000010920302F0E0E0E009958091030281114B
:102810000FC081E0809303021092E30109C0803C65
:1028200009F4A8CF883C09F4A5CF883B09F07FCFF5
:10283000E091040281E08E0F80930402F0E0ED51FC
:10284000FE4F80818093BB0090910402809103022F
:1028500029C080914C028093BB0085EC8093BC0022
:1028600066CF90914B0280914A02981758F5E091FB
:102870004B0281E08E0F80934B02F0E0E65DFD4F4E
:102880008081E9CFE0914B0281E08E0F80934B0273
:102890008091BB00F0E0E65DFD4F808390914B029C
:1028A00080914A029817C8F285E8D8CFE0914B0290
:1028B00081E08E0F80934B028091BB00F0E0E65DDB
:1028C000FD4F80838091290281115ECF81E080934A
:1028D000280284EA8093BC001092270228CF85EC5E
:1028E0008093BC001092270280912502803230F440
:1028F000E0912502F0E0EB5FFD4F10826091250230
:1029000070E085E092E0F0E0E0E0099510922502A9
:102910000ECF1092260238CF1F920F920FB60F9251
:1029200011240F900FBE0F901F9018950F931F93B7
:10293000CF9387E892E00E94D20586E692E00E945B
:10294000D2058BE090E00E94B615C1E0FC01C08387
:1029500028E0E5E4F1E0DC01139601900D922A9560
:10296000E1F703E011E0FC01128301832FB7F89433
:1029700090936502809364022FBF85E190E00E94EE
:10298000B615FC01C08322E1EDE4F1E0DC01139611
:1029900001900D922A95E1F7FC01128301832FB774
:1029A000F89490936302809362022FBF82E090E0DC
:1029B0000E94B615FC011182C0832FB7F894909342
:1029C0006102809360022FBF82E090E00E94B61502
:1029D000FC011182C0832FB7F89490935F0280931B
:1029E0005E022FBF83E090E00E94B615FC011282C8
:1029F0001182C0832FB7F89490935D0280935C029C
:102A00002FBFCF911F910F910895789484B5826064
:102A100084BD84B5816084BD85B5826085BD85B582
:102A2000816085BD80916E00816080936E00109200
:102A3000810080918100826080938100809181007B
:102A4000816080938100809180008160809380000C
:102A50008091B10084608093B1008091B00081606A
:102A60008093B00080917A00846080937A00809196
:102A70007A00826080937A0080917A008E7F8093C2
:102A80007A0080917A00806880937A001092C10069
:102A9000A89580E090E0892B11F00E9400008091C1
:102AA00057028D7F809357020E94201141E050E031
:102AB00063E071E086E592E00E94381860E081E012
:102AC00090E00E9460188091DA018F788093DA019B
:102AD0001092D0011092CF0186E391E00E94FF0195
:102AE0008FEB91E19093CE018093CD010E94730111
:102AF0000E9473010E94E1010E94700B8091D90134
:102B000082FB882780F9A895882391F3A895C0E0D7
:102B1000D0E0A8950E94E1018091D90184FD0E9436
:102B2000B7090E94670D2097A1F30E940000F1CF22
:102B300080915C0290915D020E94521680915E022B
:102B400090915F020E945216809160029091610202
:102B50000E94521680916202909163020E94521666
:102B600080916402909165020C9452160F931F930A
:102B7000CF93DF938230910510F482E090E0E091F2
:102B8000AA02F091AB0230E020E0B0E0A0E0309784
:102B900099F42115310509F44AC0281B390B24305A
:102BA0003105D8F58A819B816115710589F1FB0199
:102BB00093838283FE0111C0408151810281138180
:102BC00048175907E0F04817590799F4109761F032
:102BD00012960C93129713961C933296CF01DF91A5
:102BE000CF911F910F9108950093AA021093AB0209
:102BF000F4CF2115310551F04217530738F0A901E0
:102C0000DB019A01BD01DF01F801C1CFEF01F9CF6E
:102C10009093AB028093AA02CDCFFE01E20FF31F87
:102C2000819391932250310939832883D7CF209102
:102C3000A8023091A902232B41F420914101309147
:102C400042013093A9022093A80220913F013091C4
:102C500040012115310541F42DB73EB740914301A4
:102C600050914401241B350BE091A802F091A90278
:102C7000E217F307A0F42E1B3F0B2817390778F053
:102C8000AC014E5F5F4F2417350748F04E0F5F1FB2
:102C90005093A9024093A802819391939FCFF0E0B3
:102CA000E0E09CCFCF93DF930097E9F0FC013297EF
:102CB00013821282A091AA02B091AB02ED0130E022
:102CC00020E01097A1F420813181820F931F209181
:102CD000A8023091A9022817390709F061C0F093C2
:102CE000A902E093A802DF91CF910895EA01CE17DF
:102CF000DF07E8F54A815B819E0141155105B1F777
:102D0000E901FB83EA8349915991C40FD51FEC1760
:102D1000FD0761F4808191810296840F951FE9017E
:102D200099838883828193819B838A83F0E0E0E0AA
:102D300012968D919C9113970097B9F52D913C9126
:102D40001197CD010296820F931F2091A802309116
:102D5000A9022817390739F6309751F51092AB02BE
:102D60001092AA02B093A902A093A802BCCFD38369
:102D7000C28340815181840F951FC817D90761F420
:102D80004E5F5F4F88819981480F591F518340835F
:102D90008A819B81938382832115310509F0B0CF0D
:102DA000F093AB02E093AA029ECFFD01DC01C0CFFD
:102DB00013821282D7CFFC0188279927E8942191AA
:102DC0002032E9F3293010F02E30C8F32B3241F0D5
:102DD0002D3239F4689404C00E943517820F911D7A
:102DE000219120532A30C0F31EF4909581959F4F76
:102DF00008951F93FC0199278827BC01E89411913D
:102E00001032E9F3193010F01E30C8F31B3251F0C4
:102E10001D3249F4689406C00E942017610F711D8D
:102E2000811D911D119110531A30B0F33EF490950D
:102E30008095709561957F4F8F4F9F4F1F9108959B
:102E4000592F482F372F262F660F771F881F991F5E
:102E5000660F771F881F991F620F731F841F951FAE
:102E6000660F771F881F991F08957AE0979F902D0E
:102E7000879F802D910D11240895E89409C097FB38
:102E80003EF490958095709561957F4F8F4F9F4F41
:102E90009923A9F0F92F96E9BB279395F695879585
:102EA00077956795B795F111F8CFFAF4BB0F11F448
:102EB00060FF1BC06F5F7F4F8F4F9F4F16C08823EF
:102EC00011F096E911C0772321F09EE8872F762F25
:102ED00005C0662371F096E8862F70E060E02AF066
:102EE0009A95660F771F881FDAF7880F9695879552
:102EF00097F908950E948D170C94FE170E94F01701
:102F000038F00E94F71720F0952311F00C94E71782
:102F10000C94ED1711240C9432180E940F1870F3C2
:102F2000959FC1F3950F50E0551F629FF001729F6E
:102F3000BB27F00DB11D639FAA27F00DB11DAA1F7D
:102F4000649F6627B00DA11D661F829F2227B00DCA
:102F5000A11D621F739FB00DA11D621F839FA00D55
:102F6000611D221F749F3327A00D611D231F849FA5
:102F7000600D211D822F762F6A2F11249F575040FC
:102F80009AF0F1F088234AF0EE0FFF1FBB1F661F77
:102F9000771F881F91505040A9F79E3F510580F040
:102FA0000C94E7170C9432185F3FE4F3983ED4F387
:102FB000869577956795B795F795E7959F5FC1F7E4
:102FC000FE2B880F911D9695879597F9089597F98F
:102FD0009F6780E870E060E008959FEF80EC0895BF
:102FE00000240A94161617061806090608950024E8
:102FF0000A9412161306140605060895092E039462
:10300000000C11F4882352F0BB0F40F4BF2B11F4D5
:1030100060FF04C06F5F7F4F8F4F9F4F089557FD34
:103020009058440F551F59F05F3F71F04795880F36
:1030300097FB991F61F09F3F79F0879508951216CD
:1030400013061406551FF2CF4695F1DF08C0161679
:1030500017061806991FF1CF86957105610508942A
:103060000895E894BB2766277727CB0197F9089541
:10307000DC01CB01FC01F999FECF06C0F2BDE1BD38
:10308000F89A319600B40D9241505040B8F7089527
:10309000F999FECF92BD81BDF89A992780B5089520
:1030A000DC01A40FB51F4150504048F0CB01840F04
:1030B000951F2E910E94611841505040D0F70895FD
:1030C000262FF999FECF92BD81BDF89A019700B4E1
:1030D000021639F01FBA20BD0FB6F894FA9AF99A81
:1030E0000FBE0895052E97FB1EF400940E948918C8
:1030F00057FD07D00E94D31807FC03D04EF40C9460
:10310000891850954095309521953F4F4F4F5F4F0F
:10311000089590958095709561957F4F8F4F9F4F43
:1031200008950E94F518A59F900DB49F900DA49F3F
:10313000800D911D112408952F923F924F925F921E
:103140006F927F928F929F92AF92BF92CF92DF92B7
:10315000EF92FF920F931F93CF93DF93CDB7DEB71C
:10316000CA1BDB0B0FB6F894DEBF0FBECDBF0994B0
:103170002A88398848885F846E847D848C849B8407
:10318000AA84B984C884DF80EE80FD800C811B8115
:10319000AA81B981CE0FD11D0FB6F894DEBF0FBE44
:1031A000CDBFED010895A1E21A2EAA1BBB1BFD01A4
:1031B0000DC0AA1FBB1FEE1FFF1FA217B307E40716
:1031C000F50720F0A21BB30BE40BF50B661F771F6E
:1031D000881F991F1A9469F760957095809590954E
:1031E0009B01AC01BD01CF010895A29FB001B39F27
:1031F000C001A39F700D811D1124911DB29F700D00
:10320000811D1124911D08955058BB27AA270E94A3
:103210001C190C94FE170E94F01738F00E94F71743
:1032200020F039F49F3F19F426F40C94ED170EF4B6
:10323000E095E7FB0C94E717E92F0E940F1858F36D
:10324000BA17620773078407950720F079F4A6F58B
:103250000C9431180EF4E0950B2EBA2FA02D0B0113
:10326000B90190010C01CA01A0011124FF27591BCB
:1032700099F0593F50F4503E68F11A16F040A22FD1
:10328000232F342F4427585FF3CF46953795279542
:10329000A795F0405395C9F77EF41F16BA0B620B41
:1032A000730B840BBAF09150A1F0FF0FBB1F661F88
:1032B000771F881FC2F70EC0BA0F621F731F841FCB
:1032C00048F4879577956795B795F7959E3F08F0F1
:1032D000B0CF9395880F08F09927EE0F97958795B3
:1032E00008950E9485190C94FE170E94F71758F054
:1032F0000E94F01740F029F45F3F29F00C94E71783
:1033000051110C9432180C94ED170E940F1868F3A9
:103310009923B1F3552391F3951B550BBB27AA278E
:1033200062177307840738F09F5F5F4F220F331FC8
:10333000441FAA1FA9F335D00E2E3AF0E0E832D090
:1033400091505040E695001CCAF72BD0FE2F29D093
:10335000660F771F881FBB1F261737074807AB0765
:10336000B0E809F0BB0B802DBF01FF2793585F4FDA
:103370003AF09E3F510578F00C94E7170C94321800
:103380005F3FE4F3983ED4F3869577956795B795BC
:10339000F7959F5FC9F7880F911D9695879597F9C7
:1033A0000895E1E0660F771F881FBB1F6217730740
:1033B0008407BA0720F0621B730B840BBA0BEE1F55
:1033C00088F7E09508950E94EA196894B1110C9469
:1033D000321808950E94171888F09F5798F0B92F57
:1033E0009927B751B0F0E1F0660F771F881F991F3A
:1033F0001AF0BA95C9F714C0B13091F00E94311893
:10340000B1E008950C943118672F782F8827B85FA2
:1034100039F0B93FCCF3869577956795B395D9F791
:103420003EF490958095709561957F4F8F4F9F4F9B
:103430000895AA1BBB1B51E107C0AA1FBB1FA617FB
:10344000B70710F0A61BB70B881F991F5A95A9F74D
:1034500080959095BC01CD01089597FB072E16F439
:10346000009407D077FD09D00E94191A07FC05D0F7
:103470003EF4909581959F4F0895709561957F4F8B
:103480000895EE0FFF1F0590F491E02D09940E941E
:10349000F518B7FF0895821B930B0895B0E0A0E0E4
:1034A000E4E5FAE10C949E188C01009751F4CB01ED
:1034B0000E94B6158C01C801CDB7DEB7E0E10C94CF
:1034C000BA18FC01E60FF71F9C0122503109E217E0
:1034D000F30708F49DC0D901CD91DC911197C6176F
:1034E000D70798F0C530D10530F3CE010497861781
:1034F000970708F3C61BD70B2297C193D1936D93FF
:103500007C93CF010E945216D6CF5B01AC1ABD0A44
:103510004C018C0E9D1EA091AA02B091AB02512CC1
:10352000412CF12CE12C109731F58091A80290915B
:10353000A9028815990509F05CC04616570608F0DF
:1035400058C080913F0190914001009741F48DB7A0
:103550009EB74091430150914401841B950BE8179D
:10356000F90708F055C0F093A902E093A802F90109
:1035700071836083A0CF8D919C91119712966C906E
:10358000129713967C901397A815B90559F56C01FD
:1035900042E0C40ED11CCA14DB0420F1AC014A196C
:1035A0005B09DA011296159780F06282738251836B
:1035B0004083D9016D937C93E114F10471F0D7013C
:1035C0001396FC93EE93129776CF22968C0F9D1F45
:1035D000F90191838083F301EFCFF093AB02E09385
:1035E000AA0269CF4816590608F42C017D01D301BF
:1035F0009ACFCB010E94B6157C01009749F0AE012D
:10360000B8010E940B1BC8010E945216870153CFBC
:1036100010E000E050CFFB01DC0102C001900D92F0
:1036200041505040D8F70895FB01DC0101900D9204
:103630000020E1F70895FB01DC014150504048F0C3
:1036400001900D920020C9F701C01D9241505040D9
:10365000E0F7089510E0CDE5D0E004C0FE010E943F
:0E366000411A2196CE35D107C9F7F894FFCF55
:10366E00FFFFFF0101010000000000000000000547
:10367E0000320096002C01F401BC0200FCE1A8A867
:10368E00FF37062B02FA119602D703B002E6116736
:10369E000255024B0201E7030C127F017F0101006C
:1036AE0000AC0280000008000001070000030500C6
:1036BE0000000000000004060000000000000032C0
:1036CE002E332E3200556E69742D4C696768744E18
:1036DE006F64652D72322D643200312E3200496EC8
:1036EE00742E54656D700052656C61792E4C69674D
:1036FE006874730044696D6D65722E4C69676874E9
:10370E00730053657475702E4175746F2E4C696716
:10371E00687473007B2264617461223A5B002C0032
:0A372E005D7D00727373693A0000BC
:00000001FF
