:100000000C945E000C94B2120C948B120C9486002B
:100010000C9486000C9486000C94F4130C948600C7
:100020000C9486000C9486000C9486000C94860038
:100030000C9486000C9486000C9486000C94860028
:100040000C9441120C9486000C9486000C9486004B
:100050000C9486000C9486000C9486000C94860008
:100060000C94D9120C9486000000000800020100D4
:100070000003040700000000000000000000000072
:10008000250028002B0000000000240027002A0083
:10009000040404040404040402020202020203032E
:1000A0000303030301020408102040800102040836
:1000B0001020010204081020FE13001511241FBE99
:1000C000CFEFD8E0DEBFCDBF11E0A0E0B1E0EAE9BC
:1000D000FAE302C005900D92AC3BB107D9F722E0DC
:1000E000ACEBB1E001C01D92AE39B207E1F710E010
:1000F000CDE5D0E004C02197FE010E94A919CC35BE
:10010000D107C9F70E946D140C94401D0C94000097
:1001100090E0FC01EC55FF4F249180579F4FFC016C
:100120008491882399F090E0880F991FFC01EA5789
:10013000FF4FA591B491FC01E458FF4F8591949134
:100140008FB7F894EC91E22BEC938FBF0895942F26
:10015000E8E5F2E030914A023183828366832583A9
:100160004481487F492B477E4483CF01089590E026
:10017000FC01E859FF4F2491FC01EC55FF4F3491ED
:10018000FC01E057FF4FE491EE23C9F0222339F040
:10019000233001F1A8F4213019F1223029F1F0E0E7
:1001A000EE0FFF1FE458FF4FA591B4918FB7F8945D
:1001B000EC91611126C030953E233C938FBF08958A
:1001C0002730A9F02830C9F0243049F78091800009
:1001D0008F7D03C0809180008F7780938000DFCF78
:1001E00084B58F7784BDDBCF84B58F7DFBCF8091C5
:1001F000B0008F778093B000D2CF8091B0008F7D18
:10020000F9CF3E2BDACF20913D0190E4299F900158
:1002100011248E50822B80937C0080917A00806420
:1002200080937A0080917A0086FDFCCF80917800DF
:100230009091790008953FB7F8948091440290918D
:100240004502A0914602B091470226B5A89B05C081
:100250002F3F19F00196A11DB11D3FBFBA2FA92F45
:10026000982F8827BC01CD01620F711D811D911D42
:1002700043E0660F771F881F991F4A95D1F70895AD
:100280008F929F92AF92BF92CF92DF92EF92FF92A6
:100290006B017C010E941B014B015C01C114D10464
:1002A000E104F104B9F00E941B01681979098A0977
:1002B0009B09683E73408105910580F321E0C21AD5
:1002C000D108E108F10888EE880E83E0981EA11C91
:1002D000B11CE4CFFF90EF90DF90CF90BF90AF9034
:1002E0009F908F9008952FB7F8946091400270917D
:1002F000410280914202909143022FBF08950895D8
:100300002091F501260F3327331F21323105ECF4FC
:1003100020911902FC0190E080E0243069F082E035
:100320000895A091F5012191AC014B525E4FA40FAD
:10033000B52FB11D2C930196861798F38091F50186
:10034000680F6093F50180E0089581E008950895B5
:100350008FEF9FEF08958FEF9FEF08958091CE016B
:1003600090E09195819591090895CF93DF93CB010A
:10037000EA01642F0E948001CE01DF91CF910895A0
:10038000CF93DF931F92CDB7DEB7698361E0CE01D3
:1003900001960E94800181E090E00F90DF91CF9163
:1003A000089590E080E008950895FC0183818770AE
:1003B0008860838384818F71806284836783CF01A7
:1003C0000895E091C101F091C201309721F00280BF
:1003D000F381E02D099408950F931F930E947301F8
:1003E0000091C3011091C4012091C5013091C60153
:1003F000601B710B820B930B1F910F9108959C0151
:100400008091C1019091C20182179307F1F0909100
:10041000CB019F719093CB013093C2012093C10116
:10042000E091C101F091C201309721F00190F0817B
:10043000E02D09950E9473016093C3017093C4017C
:100440008093C5019093C60108958091CB01805E91
:100450008093CB01E5CF0F931F930E94EC01209175
:10046000CC012077203779F000E117E220E030E07E
:10047000061717072807390758F485E391E01F91FD
:100480000F910C94FF0100E61AEE20E030E0F0CF6F
:100490001F910F9108958091CC01982F9F709630F5
:1004A00018F0807F8093CC0108958091CB01846007
:1004B0008093CB018091CC0180788093CC01E09136
:1004C000BF01F091C001309709F009940895CF93CE
:1004D000C091CD01CF3FA1F00E9473016093C7018D
:1004E0007093C8018093C9019093CA0180914C0216
:1004F000C813C0934C0280E391E0CF910C94FF01AC
:100500000E94EC01613D77408105910568F0809182
:10051000CB01803618F48CE291E0EFCF877F809397
:10052000CB0188E291E0E9CFCF91089580914A0212
:100530008F3F21F08CE291E00C94FF010E94EC01CE
:10054000613D77408105910550F08091CB01803667
:1005500018F484E291E0F0CF80E291E0EDCF0895CD
:1005600084E291E00C94FF018EBD00000DB407FE03
:10057000FDCF8EB50895EF92FF920F931F93CF9307
:10058000DF93EC017B018A0188819981009729F032
:100590002A813B812417350788F4B8016F5F7F4FAC
:1005A0000E94B619009791F0998388831B830A8370
:1005B0002C813D81232B11F4FC0110821D830C83BF
:1005C000B701888199810E947C1A0CC08881998129
:1005D000009711F00E94BA15198218821D821C82A0
:1005E0001B821A82CE01DF91CF911F910F91FF9054
:1005F000EF9008951F93CF93DF9385ED8093BC0018
:100600008091D1019091D201A091D301B091D401F8
:100610000796A11DB11D23E0B695A79597958795DF
:100620002A95D1F72091BC0024FD03C01092190235
:1006300052C04091D1015091D2016091D30170918B
:10064000D401452B462B472B69F30097A105B10533
:1006500041F02AE12A95F1F700C00197A109B109FB
:10066000E1CF8091D001C1E0C093CF01882399F1FF
:10067000D091B8001091BA008091BC008A7B809321
:10068000BC0060E082E10E94B70060E083E10E946C
:10069000B70010921902C0931B0210921A0261E077
:1006A00082E10E94B70061E083E10E94B70080917F
:1006B000B9008E7F8093B9008091B9008D7F8093BF
:1006C000B90080E28093B80085E48093BC00109369
:1006D000BA00D093B800DF91CF911F910895EBEC51
:1006E000F1E08081897F8E7F8083EAE4F2E081E01F
:1006F0008283118260E081E090E00C94C817EBECFB
:10070000F1E08081877F8F7E80831092C7011092F5
:10071000C8011092C9011092CA0144E050E070E093
:1007200060E08AE492E00C94A0170F931F93CF939C
:10073000DF938C0180E06115710551F0EB010990A8
:100740000020E9F721978C2F861B8A3108F089E178
:10075000F801C381C770F8E08F9FC0011124C82B36
:10076000F801C38384818F718483C695C695C6952D
:10077000CA3108F0C9E1D0E0AE01C80107960E9475
:10078000831AC00FD11F1F82C801DF91CF911F9123
:100790000F910895FC012481229526952770213020
:1007A00011F487810895211104C007960E94431611
:1007B000089580E008958F929F92AF92BF92CF925A
:1007C000DF92EF92FF920F931F93CF93DF93CDB7FA
:1007D000DEB72C970FB6F894DEBF0FBECDBFFC017D
:1007E000348134FD21C02581223039F0203379F164
:1007F0003EEF320F3230C0F4E4C036813A3F09F0A8
:1008000064C1109103010E94CA0361E0811101C01B
:1008100060E0161749F06093030181E080930401C2
:1008200087E992E00E94C8172C960FB6F894DEBFB5
:100830000FBECDBFDF91CF911F910F91FF90EF9031
:10084000DF90CF90BF90AF909F908F9008952681BA
:10085000293F51F7329536953770BC01695F7F4F5C
:10086000332311F070E060E018861F821A86198623
:100870001C861B866115710561F0FB01019000204B
:10088000E9F73197AF01461B570BCE0107960E943F
:10089000BB02F12CE12C10E000E030E020E08F8181
:1008A00098854B855C852417350708F06CC0F6E009
:1008B000EF16F10408F067C0A9014F5F5F4F5A01BE
:1008C000009709F469C0820F931FFC0180818B336C
:1008D00009F05FC069012017310710F06801890134
:1008E0001A8219821C821B821E821D8250E040E007
:1008F0006CE771E0CE0101960E94BB028B849C8460
:10090000C814D90418F50815190508F44801EF8131
:10091000F885E80DF91D108110826F8178856C0DC6
:100920007D1D61157105D1F1FB0101900020E9F7F2
:100930003197AF01461B570BCE0101960E94BB02B7
:100940008F819885880E991EF401108309811A8180
:1009500060E070E0CB010115110519F0C8010E949B
:100960006116F701EE0FFF1FED5FFE4F748763877F
:100970000115110519F0C8010E94BA158501FFEF94
:10098000EF1AFF0A09C0009709F44ECF0E94BA156A
:100990004BCF8C3709F49ECF950181CF89819A8105
:1009A000009711F00E94BA151A8219821E821D82C8
:1009B0001C821B82C5CFF701478101E0431709F470
:1009C0008DC00091540210915502FC013681F8014E
:1009D00043813417B1F14485341326CF31E0E32E3F
:1009E000F12C233099F10E94CA0399E09E9DF001F9
:1009F0009F9DF00D1124E00FF11F858397818917CA
:100A000009F412CF8823F9F080859185181619060C
:100A100014F084E690E029E02E9DF0012F9DF00D6A
:100A20001124E00FF11F9187808789E08E9DF001EE
:100A30008F9DF00D1124E00FF11F81E08683F801F6
:100A400060C030E0CCCF90E080E0E5CFDFB6F89436
:100A5000FC0124812295269527702230C1F48781DC
:100A6000908585369105E4F497FF02C090E080E020
:100A700029E02E9DF0012F9DF00D1124E00FF11FB4
:100A8000208531852817390771F4DFBECDCE2111BD
:100A900004C007960E944316E4CF90E080E0E4CFC4
:100AA00084E690E0E5CF21E0181619060CF020E06E
:100AB000258329E02E9DF0012F9DF00D1124E00FDC
:100AC000F11F91878087DFBEB0CFE0905602F09093
:100AD0005702F701438134136ECF00E010E0000F9E
:100AE000111F000F111F0E0D1F1DF801D5800E9450
:100AF000CA03D81609F498CEF801858381E086836D
:100B0000F701808391CECF93DF93FC011082118295
:100B10001282148215821682DC0117968AE1ED0199
:100B200019928A95E9F782E08383DF91CF91089546
:100B3000BF92CF92DF92EF92FF920F931F93CF93CA
:100B4000DF937B01042FB22E90E59CBD1DBC2A983B
:100B5000E0E1F0E03197F1F70E94B402182FE701CD
:100B60000150A8F0BB2051F08FEF0E94B402182F63
:100B7000E114F104A9F388832196F2CF6E018FEF7F
:100B8000C81AD80A88810E94B402E601E9CF2A9ADD
:100B900080E190E00197F1F7812FDF91CF911F91D4
:100BA0000F91FF90EF90DF90CF90BF900895CF937B
:100BB000DF931F92CDB7DEB7698320E041E0BE012D
:100BC0006F5F7F4F0E9498050F90DF91CF9108953E
:100BD0008091CC01982F9077903759F0982F92956B
:100BE0009F709F5F97709295907F8F78892B8093ED
:100BF000CC018091CB018B7F8F7E8093CB01299894
:100C00006CE080E20C94D7056FE080E20E94D7058B
:100C100060911F016F3F19F08AE20E94D705299A5F
:100C2000089521E041E070E060E00C94980520E038
:100C300040E070E060E00C949805FF920F931F93E2
:100C4000CF93DF9390914A02FB0190834381C0E2EE
:100C500042FD08C04695469546954A3108F049E15F
:100C6000C7E0C40F90914D02D1E090FD03C08F3FCB
:100C700009F0D0E06115710509F44CC08B01F82E24
:100C8000299880E091E00197F1F76EE080E20E9400
:100C9000D70584EC90E00197F1F76F2D8AE20E946E
:100CA000D7056F2D80E30E94D70581EE0E941706BD
:100CB000DD2321F060E584E20E94D70520E04C2F7F
:100CC000B80180EA0E949805299A10E000E08FEFB1
:100CD0000E941706807339F40F3F100721F0A89582
:100CE0000F5F1F4FF4CF299860E787E20E94D70576
:100CF000C82F84FF03C081EE0E941706DD2321F078
:100D00006FE584E20E94D7050E940406C5FF03C078
:100D1000D1E001C0D0E08D2FDF91CF911F910F91D5
:100D2000FF9008950F931F93CF938C01FC01828154
:100D30009091CB0190FF04C08F3F51F5CFEF04C0DD
:100D4000811116C0C0914B02B8018C2F0E941D0664
:100D500090914B029C1313C09091CC01811113C050
:100D600021E0290F2F70907F922B9093CC0107C028
:100D70008F3F21F3B8010E941D06882319F3CF91FC
:100D80001F910F910895907F9093CC0181E0F7CF50
:100D900080E0F5CF2091CB0122FD0C94920680E0FB
:100DA0000895FC0180914A0281839481907F99602B
:100DB00094838091490280FF03C0CF010C94CA063E
:100DC00080E00895FF920F931F93CF93DF93CDB7E9
:100DD000DEB7A1970FB6F894DEBF0FBECDBFF82ED9
:100DE0008B01CE0101960E948305FF8282E08E83F3
:100DF000F8016081CE0101960E94D5010E94D106C2
:100E0000A1960FB6F894DEBF0FBECDBFDF91CF9194
:100E10001F910F91FF900895EF92FF920F931F93F0
:100E2000CF93DF931F92CDB7DEB78C017B01DB013F
:100E30008C91E82FF0E0DF01AA0FBB1FAA0FBB1FA8
:100E4000A00FB11F3196EE0FFF1FEE0FFF1FE00F37
:100E5000F11F15966C9180810E94B700D701EC912B
:100E6000B4E0EB9FF0011124E00FF11F838190E0CB
:100E7000658183569E4F0E94C817F7018081F4E078
:100E80008F9FC0011124F801E80FF91F21E035817F
:100E9000311101C020E02983080F191FBE016F5FC7
:100EA0007F4FD80113968C910E94E2060F90DF913C
:100EB000CF911F910F91FF90EF900895FF920F93A4
:100EC0001F93CF93DF93CDB7DEB7A1970FB6F894FA
:100ED000DEBF0FBECDBFF82E8B01CE0101960E9462
:100EE0008305FF8283E08E83F801208131818C812C
:100EF000877080618C838D818F7180648D83398749
:100F00002887CE0101960E94D106A1960FB6F894CB
:100F1000DEBF0FBECDBFDF91CF911F910F91FF902C
:100F200008951F93CF93DF93182F262FEA0150E0E7
:100F300040E0682F80E00E94A7001F3F11F4CEE53B
:100F4000D1E0BE010E949503DF91CF911F910C94D7
:100F5000CA062F923F924F925F926F927F928F922A
:100F60009F92AF92BF92CF92DF92EF92FF920F9338
:100F70001F93CF93DF9300D000D0CDB7DEB7809121
:100F800034018F3F09F458C087E1A82EB12C93E0BB
:100F9000E92EF12C22E0C22ED12C30E3232E312C6D
:100FA00044E0442E512C56E0652E712CE091340122
:100FB000E83008F021C1E150E73008F03DC0F0E032
:100FC000EC51F84F0C94A919F3073308410878083D
:100FD000AC08ED07ED07882341F0809134018F5F65
:100FE00080933401E3CF09EE13E064E670E080E023
:100FF00090E00E942C0B2BE043E050E06FEF80E08C
:101000000E94A70064E671E00E9495030E94CA0650
:10101000982E2CE043E050E06FEF80E00E94A700A4
:1010200069E771E00E9495030E94CA068921015078
:10103000110989F68111D1CF0F900F900F900F9069
:10104000DF91CF911F910F91FF90EF90DF90CF90A4
:10105000BF90AF909F908F907F906F905F904F90D8
:101060003F902F9008957A8269828DEF8B834DE7B0
:1010700051E0BE016F5F7F4FCE0103960E94840B4B
:10108000D9CF0091560210915702FA82E9824801A5
:1010900093E0890E911C46E851E0BE016F5F7F4FDF
:1010A000C4010E94840B882339F2DA82C982BE010E
:1010B0006F5F7F4FC4010E94540B882309F4BCCF9B
:1010C000FA82E982095F1F4F46E851E0BE016F5F77
:1010D0007F4FC8010E94840B882309F4ADCFDA82C8
:1010E000C982BE016F5F7F4FC8010E94540BA2CF1F
:1010F000809054029090550284010D5F1F4F85E14E
:10110000880E911C5A82498243E951E0BE016F5F0B
:101110007F4FC8010E94840B882309F48DCFDA82A7
:10112000C982BE016F5F7F4FC8010E94540B8823A4
:1011300009F482CFFA82E982BE016F5F7F4FC80156
:101140000E94540B882309F477CF075F1F4F801646
:10115000910609F442CFD6CF9AEF9C838BEF8B8315
:1011600080E190E09A83898350E040E0BE016F5FA8
:101170007F4FCE0103960E94840B882309F45CCF35
:10118000BA82A982BE016F5F7F4FCE0103960E9493
:10119000540B882309F450CFFA82E98247EA51E0E0
:1011A000BE016F5F7F4FCE0104960E94840B88239F
:1011B00009F442CFDA82C982BE016F5F7F4FCE0150
:1011C00004960E94540B882309F436CFBA82A98270
:1011D00041EA51E0BE016F5F7F4FCE0104960E944D
:1011E000840B882309F428CF3A822982BE016F5FDD
:1011F0007F4FCE01049679CF8FEF809334011CCFBF
:101200002FE043E050E06FEF80E00E94A7006CE722
:1012100071E00E949503E8E5F2E0838187708061C8
:10122000838384818F71806C848381E087831086BF
:10123000CF010E94CA068FE00E94F60A4CE751E0F7
:1012400061E170E08FEF0E94910726E043E050E0FB
:101250006FEF80E00E94A70060914B020E94D501D1
:101260000E94CA0686E00E94F60A0C94A9074F92D3
:101270005F926F927F928F929F92AF92BF92DF9216
:10128000EF92FF920F931F93CF93DF9300D01F92A3
:10129000CDB7DEB726E02B8300E010E088248A94E7
:1012A00082E0982E83E0A82EB92CE12CFF24FA943A
:1012B00087E10E94110680FD80C18B8181508B8364
:1012C000882309F47AC121E041E070E060E080E623
:1012D0000E9498058983813220F082EE0E941706D1
:1012E000198221E0498169E772E081E60E94980550
:1012F00060E487E20E94D70580917C02982F93706A
:101300009230B1F6E82FE695E695E695EA3108F0D9
:10131000E9E182FF57C089E1895F99819813C8CFBD
:1013200080917D02282F2770298390917E029A83D5
:10133000D0907A022091790290917B023091CC0179
:1013400030683093CC0130914A0293130AC1F0E027
:10135000E758FD4F178283FF15C021E2E9E7F2E06D
:10136000A8E5B2E001900D922A95E1F7877E8061B1
:1013700080935C0290935902D0925A0288E592E0E1
:101380000E94CA0690917D0294FDE3C0298123301A
:1013900009F0DFC080917E0221EF280F233008F48E
:1013A00087CF2A81243009F483CF283169F429E1D9
:1013B00043E050E06FEF8D2D0E94A70061E00E9496
:1013C000D5012CC08E2FA8CF2A81293171F48091AC
:1013D000CB0183FF6DCF877F8093CB0189E792E0BC
:1013E0000E94CA038093CD0163CF2A812E3109F474
:1013F0005FCF2D31B1F42FE143E050E06FEF80E09B
:101400000E94A700FC0183818770806183838481AF
:101410008F7180648483F086E782CF010E949206F8
:1014200047CF20917A02211199C08D3059F488E17B
:1014300098E00FB6F894A895809360000FBE909343
:101440006000FFCF8B3179F489E792E00E94CA03F4
:1014500091E0811101C090E08091490290FB80F9F8
:101460008093490225CF863099F49091800281E0E3
:10147000992319F09D3409F080E08093480241E0FF
:1014800050E063E071E088E492E00E94B81710CF6A
:10149000833119F40E9400090BCF8231E1F40E94DC
:1014A000EC012B013C0126E143E050E06FEF80E0CE
:1014B0000E94A700FC0183818770806283838481FE
:1014C0008F71806A84834782508661867286CF01DD
:1014D0000E94CA06EDCE8230A9F422E043E050E03B
:1014E0006FEF80E00E94A700FC018381877080621B
:1014F000838384818F71806A848387829086A186AA
:10150000B286E5CF8130F9F40115110509F4D0CE8A
:10151000929596959770953059F4609180027091EC
:10152000810280918202909183020E940000C0CECD
:10153000911105C080E892E00E946116F6CF60E04C
:1015400070E0CB01F2CF8A3009F4B2CE8C3109F4CD
:10155000AFCE89E792E00E94DB03AACE8A31C9F7B9
:10156000A7CE9F3F09F0A4CE8981833009F58091F1
:10157000CB0182FF04C09A81973009F499CE8A8109
:10158000843109F095CE80914B02281391CE0E94B0
:1015900073017370882799270E94400125E143E079
:1015A00050E06FEF8D2D0E94A70060914B0207CF96
:1015B00080914B0228137CCECCCF0F900F900F90D0
:1015C000DF91CF911F910F91FF90EF90DF90BF902F
:1015D000AF909F908F907F906F905F904F90089505
:1015E0008091CB0184FD0C9437090895CF92DF924E
:1015F000EF92FF92CF93DF93D82F0E9473016B017C
:101600007C0180917D02876080937D02C0E00E9412
:1016100073016C197D098E099F09603D7740810532
:10162000910590F4C11110C0A8950E94E1010E949B
:10163000F00A80917D028770833049F7C1E0809184
:101640007E028D13E3CFE3CF8C2FDF91CF91FF90FC
:10165000EF90DF90CF9008958F929F92AF92BF92BC
:10166000CF92DF92EF92FF924B015C010E947301D7
:101670006B017C010E9473016C197D098E099F0921
:10168000681579058A059B0530F4A8950E94E1014B
:101690000E94F00AEFCFFF90EF90DF90CF90BF90C5
:1016A000AF909F908F900895CF92DF92EF92FF922C
:1016B0000F931F93CF93DF937C016B01C9EED3E0AF
:1016C000F6010081F701108164E670E080E090E0AF
:1016D0000E942C0B202F42E050E0612F80E00E94FE
:1016E000A7006CE771E00E9495030E94CA0621974B
:1016F00011F0882329F3DF91CF911F910F91FF9073
:10170000EF90DF90CF9008958F929F92AF92BF920B
:10171000CF92DF92FF920F931F93CF93DF936C01D1
:101720005B018A01C9EED3E0F50180809180F6016A
:10173000F08064E670E080E090E00E942C0BA8014D
:101740000115110511F44CE751E0B4018F2D0E94F1
:101750009107219711F0882339F3DF91CF911F91E1
:101760000F91FF90DF90CF90BF90AF909F908F90A0
:1017700008957F928F929F92AF92BF92CF92DF9205
:10178000EF92FF920F931F93CF93DF938C017B0116
:10179000FB018081F80199E0899FE00DF11D112482
:1017A0008085918522853385821B930B97FD47C0E9
:1017B00081E099E0A92EC82E880FDD08F70180810D
:1017C000F801A89EE00DF11D1124828593852085E6
:1017D00031858217930709F476C08C0D9D1D938780
:1017E0008287F70180814801A89E800C911C1124FA
:1017F000F40162857385072E000C880B990B0E94FB
:10180000A71620E030E048EC52E40E94D91820E00E
:1018100030E04FE753E40E94E2160E944B19B62EC7
:10182000772EC62FD72FF4019480892D0E9488002F
:10183000209739F460E0892D0E94B70030C08FEF07
:10184000B8CFCF3FD10511F461E0F5CFE92DF0E03D
:10185000E859FF4FE491E33009F448C040F4E13027
:10186000D1F0E230F1F1C038D10574F7E3CFE730C1
:1018700009F448C0E83009F44DC0E430A1F7809184
:1018800080008062809380008B2D972D90938B0039
:1018900080938A0004C084B5806884BDB7BC6AE0C8
:1018A00070E080E090E00E942C0BF7018081F8014D
:1018B000A89EE00DF11D1124828593850197833642
:1018C000910508F47BCFDF91CF911F910F91FF908D
:1018D000EF90DF90CF90BF90AF909F908F907F90D0
:1018E000089584B5806284BDB8BCD9CF8091800052
:1018F0008068809380008B2D972D90938900809332
:101900008800CDCF8091B00080688093B000B09205
:10191000B300C5CF8091B00080628093B000B092D8
:10192000B400BDCFDF92EF92FF920F931F93CF933E
:10193000DF931F92CDB7DEB78C017B010E94B90BFC
:10194000F701808199E0D92EF801D89EE00DF11DB4
:101950001124838190E0658183569E4F0E94C817B1
:10196000F7018081282F30E0F801D89EE00DF11DAD
:10197000112481E09581911101C080E0898389E083
:10198000D82ED29EF001D39EF00D1124E00FF11F4E
:10199000BE016F5F7F4F83810E94E206F701808165
:1019A0008D9DC0011124BC01685F7F4F600F711FC6
:1019B000080F191FF80183810E945E070F90DF91C5
:1019C000CF911F910F91FF90EF90DF9008952F928C
:1019D0003F924F925F926F927F928F929F92AF92BF
:1019E000BF92CF92DF92FF920F931F93CF93DF931B
:1019F000CDB7DEB7A1970FB6F894DEBF0FBECDBF4F
:101A0000809134018F3FA1F00E94A9078091340199
:101A10008F3F09F453C30CE310E00150110909F49E
:101A20004DC364EF71E080E090E00E942C0BF5CF95
:101A30008091CB0182FF65C38091BD019091BE0171
:101A40006CE370E00E948119892B29F080910501D7
:101A5000882309F45EC08FE00E94030120910801F1
:101A6000309109012817390714F4821B930B209138
:101A70000601309107012817390791F097FD10C032
:101A8000909307018093060120910E0130910F0180
:101A90002817390708F492C010920B0110920A011E
:101AA00080910A0190910B0120910C0130910D0160
:101AB0002817390749F190930D0180930C01A091EB
:101AC0000601B091070124E630E00E94AF1924E836
:101AD00033E040E050E00E94DA174901CE01019660
:101AE0000E9483058BEF8F8387E18E838C818770C3
:101AF00080618C838D818F7180668D8399868886C5
:101B0000CE0101960E94D1068091050181111092AB
:101B1000050180910401882339F01092040163E0EB
:101B200071E08AEF0E94E206009154021091550282
:101B30008091BD019091BE0161E470E00E94811925
:101B4000892B09F0DEC0198299E0F92E24E6222EB5
:101B5000312C412C512C39E1A32EB12C44E6842E9A
:101B6000912C55E5652E712C8981823008F0C9C011
:101B7000C82ED12CF801F89EE00DF11D11248581AD
:101B80008823C1F0D80111962D913C91D9018C91F7
:101B9000882381F017968D919C918330910509F4EB
:101BA0008FC008F044C08130910509F4A1C00297AC
:101BB00009F493C089818F5F8983D6CF209110016A
:101BC000309111012817390738F081E090E09093A7
:101BD0000B0180930A0164CF20911201309113010F
:101BE0002817390718F082E090E0F1CF2091140116
:101BF000309115012817390718F083E090E0E7CFFE
:101C000020911601309117012817390718F084E048
:101C100090E0DDCF20911801309119012817390784
:101C200018F085E090E0D3CF86E090E0D0CF85300B
:101C30009105A1F0C0F1069709F0BCCFA085B18550
:101C4000AA31B105F4F4B186A086FC9CF001FD9C9C
:101C5000F00D1124E00FF11F858103C0118610865D
:101C600080E0FC9CF001FD9CF00D1124E00FF11FC1
:101C700085838783BE016F5F7F4FC8010E94920CEE
:101C800099CF29E130E00E94AF19A20191010E9491
:101C9000DA17FC9CF001FD9CF00D1124E00FF11F00
:101CA00031872087D2CFA085B185AE32B1052CF423
:101CB0008DE290E091878087C8CF2DE230E0E3CFBE
:101CC000A085B185A234B1052CF4A1E4B0E0B187C0
:101CD000A087BBCF21E430E0D6CFA085B185A63563
:101CE000B1051CF471866086B0CF25E530E0CBCF1E
:101CF000808591858436910509F45CCF9186808634
:101D0000A4CFF8018081882309F458C01082198279
:101D100089E0F82EDD24D3948981823008F04EC00A
:101D2000F801F89EE00DF11D112486818823C1F091
:101D3000858197818917C1F08783BE016F5F7F4FCF
:101D4000C8010E94920C8981F801F89EE00DF11DF6
:101D50001124168262E370E080E090E00E942C0B78
:101D600089818F5F8983D8CF811108C08085918553
:101D70001816190664F4D582D782DFCF813039F482
:101D800080859185892B19F415821782D6CFBE01E3
:101D90006F5F7F4FC8010E94B90B89818F9DC00181
:101DA0001124BC01685F7F4F600F711F800F911F6E
:101DB000DC0113968C910E945E07C5CF00915602FC
:101DC000109157028091BD019091BE0166E470E0D0
:101DD0000E948119892B41F51982E981E23020F5B1
:101DE000B4E0EB9FF00111249F01200F311FF90196
:101DF00085818823A9F0F801A181B2818C91882383
:101E000079F017968D919C910497039748F4D90126
:101E100015961C92BE016F5F7F4FC8010E940C0790
:101E200089818F5F8983D9CFF80180818823C9F0A8
:101E300010821982E981E230A0F424E0E29FF001EF
:101E40001124E00FF11F8681882339F01682BE012C
:101E50006F5F7F4FC8010E940C0789818F5F898364
:101E6000E9CF00915202109153028091BD019091EF
:101E7000BE0167EB70E00E948119892B29F0D8011F
:101E80008C91882309F453C088EC80937C00809166
:101E90007A00806880937A0064E170E080E090E0EE
:101EA0000E94400180917A00806480937A00809142
:101EB0007A0086FDFCCF609178007091790090E007
:101EC00080E00E94A5162EEA37E242EA53E40E941F
:101ED0006C1826EF38E24CE95FE30E94D9180E94A3
:101EE0004B19613801F1F80181818617E1F06183B6
:101EF000CE0101960E9483058DEF8F831E82D8014B
:101F000011962C91022E000C330B8C81877080610E
:101F10008C838D818F7180648D8339872887CE0172
:101F200001960E94D106F801808181111082C09033
:101F30005002D09051028091BD019091BE0165EB9D
:101F400070E00E948119892B21F0D6018C918823A1
:101F500039F18EE00E9403016AE070E00E94951959
:101F60008B016536710514F004E610E017FF02C01E
:101F700010E000E0F60181818017110669F001830D
:101F800020E043E050E06FEF80E00E94A700602F68
:101F90000E94D5010E94CA06D6018C9181111C9223
:101FA00000914E0210914F028091BD019091BE01AF
:101FB00066EB70E00E948119892B29F0F80180817D
:101FC000882309F46EC088E00E9411068F7023EE0A
:101FD0003FEFF8E08F9F201931091124032E000CE8
:101FE000440B550B2B5A3F4F4F4F5F4FA4E6B0E0C9
:101FF0000E94F9172DE230E040E050E00E94DA172D
:102000002536310514F024E630E037FF02C030E019
:1020100020E0D80111968D919C91129728173907CD
:10202000E1F112963C932E931197FFB6F89482E15A
:1020300090E00E941E156C014296F60111928E17D7
:102040009F07E1F7F80182818F9381818F9383EB62
:1020500091E09F938F931F9281E18F93DF92CF92B4
:102060000E94921ACE0101960E9483058EEF8F8303
:102070008CE18E83B601CE0101960E9495030E94E9
:10208000D1060FB6F894DEBF0FBECDBFC114D10488
:1020900019F0C6010E94BA15FFBED8018C918111BA
:1020A0001C928091BD019091BE0101968036BAEEDE
:1020B0009B0710F59093BE018093BD0168EE73E01D
:1020C00080E090E00E942C0BA1960FB6F894DEBF42
:1020D0000FBECDBFDF91CF911F910F91FF90DF9089
:1020E000CF90BF90AF909F908F907F906F905F90B8
:1020F0004F903F902F9008951092BE011092BD0115
:10210000DDCF60E177E280E090E00E942C0BD6CF3B
:10211000FF920F931F93CF93DF939091540280917E
:102120005502FFB6F894C92FD82F8E010E5E1F4FAF
:102130008B8190E083569E4F0E94B0178D831F8243
:1021400091E0811101C090E09E8381115FC090E019
:1021500080E0998788871B861A868C810E94880078
:102160008C818550823020F485B5887F826085BD62
:1021700029960C171D07E1F6FFBEC0915602D091BB
:1021800057021FB7F8948B8190E083569E4F0E94B0
:10219000B0178D8391E0811101C090E09E838C8106
:1021A0000E9488008F8190E083569E4F0E94B01756
:1021B000898791E0811101C090E09A8788850E940B
:1021C00088001FBF83E080933D018FE00E940301E0
:1021D00010E000E0D0E0C0E00E9473016838734175
:1021E00081059105B0F464E670E080E090E00E9423
:1021F0002C0B8FE00E940301C817D9072CF0801721
:1022000091070CF48C01CE01EC01E6CF84E690E05E
:10221000A0CFC01BD10BCF31D105A4F4D0930901BD
:10222000C093080187E992E00E94B01791E0811104
:1022300001C090E090930301DF91CF911F910F9126
:10224000FF9008951092090110920801EBCFCF93EF
:102250008091490281FD20C00E94000980914902BD
:10226000816080934902C4E02AE143E050E06FEFCF
:1022700080E00E94A70062E00E94D5010E94CA0689
:102280008BE10E94F60A811102C0C15069F780916A
:102290004902826080934902CF9108958FEF809325
:1022A000CD01EBECF1E080818860808328E143E0A0
:1022B00050E06FEF80E00E94A70061E00E94D5012E
:1022C0000C94920680914A028F3F69F423E043E028
:1022D00050E06FEF80E00E94A7006CE771E00E9481
:1022E00095030C9492060895CF93219A229A2998E7
:1022F0002A9ACFB7F8948091BC01811124C0EAE9F1
:10230000F0E08491EEEAF0E09491E82FF0E0EE0F37
:10231000FF1FEA57FF4FA591B491EC91E92321F4F7
:1023200061E08AE00E94B7008AE00E9488008CB5D4
:1023300080618CBD8CB580648CBD8DE00E9488006E
:102340008BE00E9488008091BC018F5F8093BC016C
:10235000CFBF29986EE080E20E94D70584E293E225
:102360000197F1F763E083E20E94D7056FE584E20D
:102370000E94D7056CE485E20E94D70565E286E2FB
:102380000E94D70564E08DE30E94D7058DE10E948D
:102390001106843041F063E780E50E94D70564E0D0
:1023A0008DE30E94D70586E00E941106853209F070
:1023B0004DC085E00E9411068C3409F047C062E0F0
:1023C00082E20E94D70560E081E20E94D70563E0C7
:1023D0008CE30E94D7058FEF80931A0120E045E03F
:1023E0006AE171E08BE20E94980520E045E06AE135
:1023F00071E08AE20E94980520E045E06AE171E020
:1024000080E30E94980582EE0E94170681EE0E94EA
:10241000170660E787E20E94D7058091CB018061B3
:102420008093CB0180914D028E7F80934D0286E197
:1024300080934A0266E190E080E00E94C817C09154
:102440004A02CF3F41F488E291E002C080E291E08D
:10245000CF910C94FF018FEF8C0F8E3FB8F7C09394
:102460001F0163E082E20E94D70561E081E20E94E1
:10247000D7050E9404066C2F90E080E00E94C817E8
:10248000E2CF1F920F920FB60F9211242F933F931A
:102490008F939F93AF93BF9380914002909141029D
:1024A000A0914202B091430230913F0226E0230FF7
:1024B0002D3758F50296A11DB11D20933F02809340
:1024C000400290934102A0934202B0934302809154
:1024D000440290914502A0914602B09147020196B4
:1024E000A11DB11D8093440290934502A093460222
:1024F000B0934702BF91AF919F918F913F912F91E0
:102500000F900FBE0F901F90189529E8230F039688
:10251000A11DB11DD2CF1F920F920FB60F921124A1
:102520002F933F934F935F936F937F938F939F93DB
:10253000AF93BF93EF93FF93E0913B01F0913C0188
:102540000995FF91EF91BF91AF919F918F917F91ED
:102550006F915F914F913F912F910F900FBE0F9010
:102560001F9018951F920F920FB60F9211242F9360
:102570003F934F935F936F937F938F939F93AF930B
:10258000BF93EF93FF93E0913901F0913A010995E0
:10259000FF91EF91BF91AF919F918F917F916F913B
:1025A0005F914F913F912F910F900FBE0F901F9011
:1025B00018951F920F920FB60F9211242F933F93ED
:1025C0004F935F936F937F938F939F93AF93BF933B
:1025D000EF93FF938091B900887F803609F44AC059
:1025E000F0F5883209F4A5C018F5803109F499C0D6
:1025F000B8F4882309F4F5C0883009F492C0FF913B
:10260000EF91BF91AF919F918F917F916F915F916A
:102610004F913F912F910F900FBE0F901F901895E3
:10262000883109F486C0803251F78093180214C0B3
:10263000803409F49BC040F48033B9F38833F9F651
:102640008093180285ECAEC0803509F483C08835CC
:1026500009F494C0883499F60E94FA02D0CF8839E0
:1026600009F48AC038F5883729F050F4883611F01B
:10267000803729F683E0809319021092170255C023
:10268000883809F479C0803919F0803809F0B7CF5B
:1026900080911702803208F06FC0E091170281E04C
:1026A0008E0F809317028091BB00F0E0E950FE4F3F
:1026B00080833BC0803B39F0D0F4803A09F477C086
:1026C000883A09F09CCF84E0809319021092F601B9
:1026D0001092F501F0E0E0E009958091F50181119B
:1026E0000FC081E08093F5011092D50109C0803CB4
:1026F00009F4A8CF883C09F4A5CF883B09F07FCF27
:10270000E091F60181E08E0F8093F601F0E0EB524C
:10271000FE4F80818093BB009091F6018091F5017E
:1027200029C080913E028093BB0085EC8093BC0061
:1027300066CF90913D0280913C02981758F5E09148
:102740003D0281E08E0F80933D02F0E0E45EFD4F9C
:102750008081E9CFE0913D0281E08E0F80933D02C0
:102760008091BB00F0E0E45EFD4F808390913D02DC
:1027700080913C029817C8F285E8D8CFE0913D02DD
:1027800081E08E0F80933D028091BB00F0E0E45E1B
:10279000FD4F808380911B0281115ECF81E0809389
:1027A0001A0284EA8093BC001092190228CF85ECAB
:1027B0008093BC001092190280911702803230F48D
:1027C000E0911702F0E0E950FE4F1082609117028D
:1027D00070E087EF91E0F0E0E0E0099510921702D9
:1027E0000ECF1092180238CF1F920F920FB60F9291
:1027F00011240F900FBE0F901F9018950F931F93E9
:10280000CF9389E792E00E94830588E592E00E94D9
:1028100083058BE090E00E941E15C1E0FC01C0839F
:1028200028E0E4E4F1E0DC01139601900D922A9592
:10283000E1F703E011E0FC01128301832FB7F89464
:1028400090935702809356022FBF85E190E00E943B
:102850001E15FC01C08322E1ECE4F1E0DC011396DB
:1028600001900D922A95E1F7FC01128301832FB7A5
:10287000F89490935502809354022FBF82E090E029
:102880000E941E15FC011182C0832FB7F89490930B
:102890005302809352022FBF82E090E00E941E15E7
:1028A000FC011182C0832FB7F8949093510280935A
:1028B00050022FBF83E090E00E941E15FC0112829F
:1028C0001182C0832FB7F89490934F0280934E02E9
:1028D0002FBFCF911F910F910895789484B5826096
:1028E00084BD84B5816084BD85B5826085BD85B5B4
:1028F000816085BD80916E00816080936E00109232
:1029000081008091810082608093810080918100AC
:10291000816080938100809180008160809380003D
:102920008091B10084608093B1008091B00081609B
:102930008093B00080917A00846080937A008091C7
:102940007A00826080937A0080917A008E7F8093F3
:102950007A0080917A00806880937A001092C1009A
:10296000A89580E090E0892B11F00E9400008091F2
:1029700049028D7F809349020E94881041E050E017
:1029800063E071E088E492E00E94A01760E081E0DB
:1029900090E00E94C8178091CC018F788093CC0181
:1029A0001092C2011092C10185E391E00E94FF01E3
:1029B00087E291E19093C0018093BF010E9473016F
:1029C0000E9473010E94E1010E94F00A8091CB01F4
:1029D00082FB882780F9A895882391F3A895C0E009
:1029E000D0E0A8950E94E1018091CB0184FD0E9476
:1029F00037090E94E70C2097A1F30E940000F1CF55
:102A000080914E0290914F020E94BA15809150021F
:102A1000909151020E94BA158091520290915302F6
:102A20000E94BA1580915402909155020E94BA15E5
:102A300080915602909157020C94BA150F931F93F0
:102A4000CF93DF938230910510F482E090E0E09123
:102A50009C02F0919D0230E020E0B0E0A0E03097D1
:102A600099F42115310509F44AC0281B390B24308B
:102A70003105D8F58A819B816115710589F1FB01CA
:102A800093838283FE0111C04081518102811381B1
:102A900048175907E0F04817590799F4109761F063
:102AA00012960C93129713961C933296CF01DF91D6
:102AB000CF911F910F91089500939C0210939D0256
:102AC000F4CF2115310551F04217530738F0A90111
:102AD000DB019A01BD01DF01F801C1CFEF01F9CFA0
:102AE00090939D0280939C02CDCFFE01E20FF31FD5
:102AF000819391932250310939832883D7CF209134
:102B00009A0230919B02232B41F420914001309195
:102B1000410130939B0220939A0220913E01309113
:102B20003F012115310541F42DB73EB740914201D7
:102B300050914301241B350BE0919A02F0919B02C6
:102B4000E217F307A0F42E1B3F0B2817390778F084
:102B5000AC014E5F5F4F2417350748F04E0F5F1FE3
:102B600050939B0240939A02819391939FCFF0E000
:102B7000E0E09CCFCF93DF930097E9F0FC01329720
:102B800013821282A0919C02B0919D02ED0130E06F
:102B900020E01097A1F420813181820F931F2091B2
:102BA0009A0230919B022817390709F061C0F0930F
:102BB0009B02E0939A02DF91CF910895EA01CE172C
:102BC000DF07E8F54A815B819E0141155105B1F7A8
:102BD000E901FB83EA8349915991C40FD51FEC1792
:102BE000FD0761F4808191810296840F951FE901B0
:102BF00099838883828193819B838A83F0E0E0E0DC
:102C000012968D919C9113970097B9F52D913C9157
:102C10001197CD010296820F931F20919A02309155
:102C20009B022817390739F6309751F510929D020B
:102C300010929C02B0939B02A0939A02BCCFD383C4
:102C4000C28340815181840F951FC817D90761F451
:102C50004E5F5F4F88819981480F591F5183408390
:102C60008A819B81938382832115310509F0B0CF3E
:102C7000F0939D02E0939C029ECFFD01DC01C0CF4A
:102C800013821282D7CFFC0188279927E8942191DB
:102C90002032E9F3293010F02E30C8F32B3241F006
:102CA0002D3239F4689404C00E949D16820F911D44
:102CB000219120532A30C0F31EF4909581959F4FA7
:102CC00008951F93FC0199278827BC01E89411916E
:102CD0001032E9F3193010F01E30C8F31B3251F0F6
:102CE0001D3249F4689406C00E948816610F711D58
:102CF000811D911D119110531A30B0F33EF490953F
:102D00008095709561957F4F8F4F9F4F1F910895CC
:102D1000592F482F372F262F660F771F881F991F8F
:102D2000660F771F881F991F620F731F841F951FDF
:102D3000660F771F881F991F08957AE0979F902D3F
:102D4000879F802D910D11240895E89409C097FB69
:102D50003EF490958095709561957F4F8F4F9F4F72
:102D60009923A9F0F92F96E9BB279395F6958795B6
:102D700077956795B795F111F8CFFAF4BB0F11F479
:102D800060FF1BC06F5F7F4F8F4F9F4F16C0882320
:102D900011F096E911C0772321F09EE8872F762F56
:102DA00005C0662371F096E8862F70E060E02AF097
:102DB0009A95660F771F881FDAF7880F9695879583
:102DC00097F908950E94F5160C9466170E945817FB
:102DD00038F00E945F1720F0952311F00C944F17E4
:102DE0000C94551711240C949A170E94771770F3BE
:102DF000959FC1F3950F50E0551F629FF001729FA0
:102E0000BB27F00DB11D639FAA27F00DB11DAA1FAE
:102E1000649F6627B00DA11D661F829F2227B00DFB
:102E2000A11D621F739FB00DA11D621F839FA00D86
:102E3000611D221F749F3327A00D611D231F849FD6
:102E4000600D211D822F762F6A2F11249F5750402D
:102E50009AF0F1F088234AF0EE0FFF1FBB1F661FA8
:102E6000771F881F91505040A9F79E3F510580F071
:102E70000C944F170C949A175F3FE4F3983ED4F3E9
:102E8000869577956795B795F795E7959F5FC1F715
:102E9000FE2B880F911D9695879597F9089597F9C0
:102EA0009F6780E870E060E008959FEF80EC0895F0
:102EB00000240A9416161706180609060895002419
:102EC0000A9412161306140605060895092E039493
:102ED000000C11F4882352F0BB0F40F4BF2B11F407
:102EE00060FF04C06F5F7F4F8F4F9F4F089557FD66
:102EF0009058440F551F59F05F3F71F04795880F68
:102F000097FB991F61F09F3F79F0879508951216FE
:102F100013061406551FF2CF4695F1DF08C01616AA
:102F200017061806991FF1CF86957105610508945B
:102F30000895E894BB2766277727CB0197F9089572
:102F4000DC01CB01FC01F999FECF06C0F2BDE1BD69
:102F5000F89A319600B40D9241505040B8F7089558
:102F6000F999FECF92BD81BDF89A992780B5089551
:102F7000DC01A40FB51F4150504048F0CB01840F35
:102F8000951F2E910E94C91741505040D0F70895C7
:102F9000262FF999FECF92BD81BDF89A019700B412
:102FA000021639F01FBA20BD0FB6F894FA9AF99AB2
:102FB0000FBE0895052E97FB1EF400940E94F11792
:102FC00057FD07D00E943B1807FC03D04EF40C9429
:102FD000F11750954095309521953F4F4F4F5F4FDA
:102FE000089590958095709561957F4F8F4F9F4F75
:102FF00008950E945D18A59F900DB49F900DA49F09
:10300000800D911D112408952F923F924F925F924F
:103010006F927F928F929F92AF92BF92CF92DF92E8
:10302000EF92FF920F931F93CF93DF93CDB7DEB74D
:10303000CA1BDB0B0FB6F894DEBF0FBECDBF0994E1
:103040002A88398848885F846E847D848C849B8438
:10305000AA84B984C884DF80EE80FD800C811B8146
:10306000AA81B981CE0FD11D0FB6F894DEBF0FBE75
:10307000CDBFED010895A1E21A2EAA1BBB1BFD01D5
:103080000DC0AA1FBB1FEE1FFF1FA217B307E40747
:10309000F50720F0A21BB30BE40BF50B661F771F9F
:1030A000881F991F1A9469F760957095809590957F
:1030B0009B01AC01BD01CF010895A29FB001B39F58
:1030C000C001A39F700D811D1124911DB29F700D31
:1030D000811D1124911D08955058BB27AA270E94D5
:1030E00084180C9466170E94581738F00E945F17D6
:1030F00020F039F49F3F19F426F40C9455170EF480
:10310000E095E7FB0C944F17E92F0E94771758F3CF
:10311000BA17620773078407950720F079F4A6F5BC
:103120000C9499170EF4E0950B2EBA2FA02D0B01DD
:10313000B90190010C01CA01A0011124FF27591BFC
:1031400099F0593F50F4503E68F11A16F040A22F02
:10315000232F342F4427585FF3CF46953795279573
:10316000A795F0405395C9F77EF41F16BA0B620B72
:10317000730B840BBAF09150A1F0FF0FBB1F661FB9
:10318000771F881FC2F70EC0BA0F621F731F841FFC
:1031900048F4879577956795B795F7959E3F08F022
:1031A000B0CF9395880F08F09927EE0F97958795E4
:1031B00008950E94ED180C9466170E945F1758F04E
:1031C0000E94581740F029F45F3F29F00C944F17E4
:1031D00051110C949A170C9455170E94771768F3A5
:1031E0009923B1F3552391F3951B550BBB27AA27C0
:1031F00062177307840738F09F5F5F4F220F331FFA
:10320000441FAA1FA9F335D00E2E3AF0E0E832D0C1
:1032100091505040E695001CCAF72BD0FE2F29D0C4
:10322000660F771F881FBB1F261737074807AB0796
:10323000B0E809F0BB0B802DBF01FF2793585F4F0B
:103240003AF09E3F510578F00C944F170C949A1762
:103250005F3FE4F3983ED4F3869577956795B795ED
:10326000F7959F5FC9F7880F911D9695879597F9F8
:103270000895E1E0660F771F881FBB1F6217730771
:103280008407BA0720F0621B730B840BBA0BEE1F86
:1032900088F7E09508950E9452196894B1110C9432
:1032A0009A1708950E947F1788F09F5798F0B92FBA
:1032B0009927B751B0F0E1F0660F771F881F991F6B
:1032C0001AF0BA95C9F714C0B13091F00E9499175D
:1032D000B1E008950C949917672F782F8827B85F6D
:1032E00039F0B93FCCF3869577956795B395D9F7C3
:1032F0003EF490958095709561957F4F8F4F9F4FCD
:103300000895AA1BBB1B51E107C0AA1FBB1FA6172C
:10331000B70710F0A61BB70B881F991F5A95A9F77E
:1033200080959095BC01CD01089597FB072E16F46A
:10333000009407D077FD09D00E94811907FC05D0C1
:103340003EF4909581959F4F0895709561957F4FBC
:103350000895EE0FFF1F0590F491E02D09940E944F
:103360005D18B7FF0895821B930B0895B0E0A0E0AD
:10337000ECEBF9E10C9406188C01009751F4CB01A9
:103380000E941E158C01C801CDB7DEB7E0E10C9498
:103390002218FC01E60FF71F9C0122503109E217A9
:1033A000F30708F49DC0D901CD91DC911197C617A0
:1033B000D70798F0C530D10530F3CE0104978617B2
:1033C000970708F3C61BD70B2297C193D1936D9330
:1033D0007C93CF010E94BA15D6CF5B01AC1ABD0A0F
:1033E0004C018C0E9D1EA0919C02B0919D02512C0F
:1033F000412CF12CE12C109731F580919A0290919B
:103400009B028815990509F05CC04616570608F01E
:1034100058C080913E0190913F01009741F48DB7D3
:103420009EB74091420150914301841B950BE817D0
:10343000F90708F055C0F0939B02E0939A02F90156
:1034400071836083A0CF8D919C91119712966C909F
:10345000129713967C901397A815B90559F56C012E
:1034600042E0C40ED11CCA14DB0420F1AC014A199D
:103470005B09DA011296159780F06282738251839C
:103480004083D9016D937C93E114F10471F0D7016D
:103490001396FC93EE93129776CF22968C0F9D1F76
:1034A000F90191838083F301EFCFF0939D02E093C4
:1034B0009C0269CF4816590608F42C017D01D301FE
:1034C0009ACFCB010E941E157C01009749F0AE01F6
:1034D000B8010E94731AC8010E94BA15870153CF20
:1034E00010E000E050CFFB01DC0102C001900D9222
:1034F00041505040D8F70895FB01DC0101900D9236
:103500000020E1F70895FB01DC014150504048F0F4
:1035100001900D920020C9F701C01D92415050400A
:10352000E0F70895AEE0B0E0E8E9FAE10C94121893
:103530000D891E898F89988D26E02C831A83098333
:1035400097FF02C080E090E801979E838D83AE01D3
:10355000455E5F4F698D7A8DCE0101960E94C21A39
:103560004D815E8157FD0AC02F8138854217530770
:103570000CF49A01020F131FF80110822E96E4E05A
:103580000C942E18ABE0B0E0E8ECFAE10C940418CF
:103590007C013B018A01FC0117821682838181FF35
:1035A000C8C1CE0101965C01F7019381F30193FD3F
:1035B000859193FF81913F01882309F453C185329E
:1035C00039F493FD859193FF81913F01853229F470
:1035D000B70190E00E94B21CE7CF912C212C312C36
:1035E000FFE1F31538F08B3211F190F4803209F1DC
:1035F000833229F137FC3CC020ED280F2A3050F5EA
:1036000036FE20C08AE0989E200D1124922E06C01E
:103610008D3291F0803371F7689430F8F30193FDA7
:10362000859193FF81913F018111DACF21C0689488
:1036300031F8689432F8F2CF689433F8EFCF689499
:1036400034F8ECCFEAE02E9E200D1124222E68944F
:1036500035F8E4CF8E3229F436FC04C1689436F88C
:10366000DDCF8C3619F4689437F8D8CF8836B1F2AC
:10367000982F9F7D95549330E0F08336A1F18337E6
:10368000C1F1833509F063C02801F2E04F0E511CEF
:10369000F801C080D180692D70E036FC02C06FEF68
:1036A0007FEFC6010E949C1C4C01689437F8820190
:1036B0000AC00C5F1F4FFFE3F98388248394912C89
:1036C0006501E89437F833FE2DC0522C8114910423
:1036D00071F5552009F468CFB70180E290E00E94AF
:1036E000B21C5A94F6CFF801808189830E5F1F4F78
:1036F000E4CF2801F2E04F0E511CF801C080D180C8
:10370000692D70E036FC02C06FEF7FEFC6010E94AA
:10371000A71C4C018201D5CFB70180E290E00E9446
:10372000B21C2A942814190409F0B0F7CECFF60180
:1037300037FC859137FE81916F01B70190E00E94BF
:10374000B21C51105A94F1E08F1A9108BFCF843601
:1037500019F0893609F077C0F80137FE6BC0608137
:103760007181828193810C5F1F4FF32DFF763F2E75
:1037700097FF09C090958095709561957F4F8F4F09
:103780009F4F689437F82AE030E0A5010E94E21CC0
:10379000C82ECA188C2C432C36FE0CC0E89440F876
:1037A000C91440F434FE05C032FC03C0F32DFE7E84
:1037B0004F2E892C44FE95C0FE01EC0DF11D808139
:1037C000803309F087C0242D297E422E842D8870F5
:1037D000582E43FC95C040FE8FC09C2C821418F4D8
:1037E0002C0C922C981844FE91C0B70180E390E015
:1037F0000E94B21C42FE09C088E790E041FE02C070
:1038000088E590E0B7010E94B21CC91408F48AC090
:10381000CA94D12C9FEFC91AD90ACA0CDB1CF60135
:1038200082916F01B70190E00E94B21CAC14BD04FC
:10383000B1F74FCF60817181072E000C880B990B77
:103840000E5F1F4F92CFD32CE894D4F82AE030E0DB
:10385000853739F1232D297FD22E8F3601F148F497
:103860008835A9F0F701868197812B96E2E10C94C7
:103870002018803749F08837A9F7D4FE02C0689431
:10388000D2F820E130E00DC06894D4F8F6CF34FED1
:1038900003C0822F8660D82E20E132E002C028E0EB
:1038A00030E0F801D7FE0FC0608171818281938181
:1038B0000C5F1F4FA5010E94E21CC82ECA183D2CA8
:1038C000E89437F867CF6081718190E080E00E5F07
:1038D0001F4FF0CF42FC02C0839478CF839483942F
:1038E00075CF842D867809F471CFF6CFB70180E2C9
:1038F00090E00E94B21C83948214C0F3512C73CFC9
:10390000522C5818821408F46ECFF8CF842D867884
:1039100009F47BCF8BE241FE80E247FC8DE2B701E8
:1039200090E071CFB70180E390E00E94B21C9A94BE
:103930006CCF8FEF9FEF99CFFC01059061507040E5
:103940000110D8F7809590958E0F9F1F0895FC0168
:103950006150704001900110D8F7809590958E0FBE
:103960009F1F08950F931F93CF93DF93182F092F55
:10397000EB018B8181FD09C01FEF0FEF812F902F8D
:10398000DF91CF911F910F91089582FF14C02E8176
:103990003F818C819D81281739073CF4E881F981AA
:1039A000CF0101969983888310838E819F81019630
:1039B0009F838E83E3CFE885F985812F0995892B35
:1039C000A1F3DACFFA01AA27283051F1203181F191
:1039D000E8946F936E7F6E5F7F4F8F4F9F4FAF4F17
:1039E000B1E03ED0B4E03CD0670F781F891F9A1F2A
:1039F000A11D680F791F8A1F911DA11D6A0F711DDE
:103A0000811D911DA11D20D009F468943F912AE0E9
:103A1000269F11243019305D3193DEF6CF010895D1
:103A2000462F4770405D4193B3E00FD0C9F7F6CF02
:103A3000462F4F70405D4A3318F0495D31FD4052CA
:103A4000419302D0A9F7EACFB4E0A6959795879560
:103A500077956795BA95C9F700976105710508953F
:103A60009B01AC010A2E06945795479537952795EB
:103A7000BA95C9F7620F731F841F951FA01D089583
:103A800010E0CDE5D0E004C0FE010E94A919219606
:0A3A9000CE35D107C9F7F894FFCF37
:103A9A00FFFFFF0101010000000000000000050017
:103AAA00320096002C01F401BC0200FCE1A8A8FF38
:103ABA00E8052B02621196026F03B0024E116702EB
:103ACA0055024B02017F0374117F017F010100003F
:103ADA009E028000000800000107000003050000A4
:103AEA000000000000040600000000000000322E62
:103AFA00332E3200556E69742D4C696768744E6FA7
:103B0A0064652D72322D643200312E3200496E7492
:103B1A002E54656D700052656C61792E4C69676828
:103B2A0074730044696D6D65722E4C6967687473AD
:103B3A000053657475702E4175746F2E4C696768F1
:0C3B4A00747300727373693A2564000004
:00000001FF
