:100000000C9462000C9412110C94EB100C948A0066
:100010000C948A000C948A000C9454120C948A005C
:100020000C948A000C948A000C948A000C948A0028
:100030000C948A000C948A000C948A000C948A0018
:100040000C94A1100C948A000C948A000C948A00E1
:100050000C948A000C948A000C948A000C948A00F8
:100060000C9439110C948A00000000002400270031
:100070002A0000000000250028002B0000000000DE
:1000800023002600290004040404040404040202DA
:100090000202020203030303030301020408102007
:1000A0004080010204081020010204081020000012
:1000B0000008000201000003040700000000000027
:1000C00000005E1211241FBECFEFD8E0DEBFCDBF0F
:1000D00011E0A0E0B1E0EEE9F0E302C005900D927E
:1000E000A03BB107D9F722E0A0EBB1E001C01D921F
:1000F000A93AB207E1F710E0C2E6D0E004C02197C8
:10010000FE010E946B17C136D107C9F70E949D12EC
:100110000C944D180C9400000895942FE3E6F2E03F
:1001200030913C0231838283668325834481487FFA
:10013000492B477E4483CF010895833081F028F412
:10014000813099F08230A9F008958730A9F0883085
:10015000C9F08430B1F4809180008F7D03C080911C
:1001600080008F7780938000089584B58F7784BD59
:10017000089584B58F7DFBCF8091B0008F778093F9
:10018000B00008958091B0008F7DF9CFCF93DF93B9
:10019000282F30E0F901E255FF4F8491F901E6562E
:1001A000FF4FD491F901EA57FF4FC491CC23A1F03E
:1001B00081110E949D00EC2FF0E0EE0FFF1FE4582C
:1001C000FF4FA591B491EC91ED2381E090E009F40B
:1001D00080E0DF91CF91089580E090E0FACF1F9307
:1001E000CF93DF93282F30E0F901E255FF4F849140
:1001F000F901E656FF4FD491F901EA57FF4FC49138
:10020000CC23A9F0162F81110E949D00EC2FF0E065
:10021000EE0FFF1FEE58FF4FA591B4918FB7F894E2
:10022000EC91111108C0D095DE23DC938FBFDF91D4
:10023000CF911F910895DE2BF8CF809147020E9445
:10024000C600019729F460E0809147020E94EF0008
:10025000809142028111109242020895CF93DF9360
:1002600090E0FC01E656FF4F24918A579F4FFC0116
:1002700084918823D1F090E0880F991FFC01E85900
:10028000FF4FA591B491FC01EE58FF4FC591D49159
:10029000623071F49FB7F8943C91822F809583234C
:1002A0008C93E8812E2B28839FBFDF91CF910895F7
:1002B0008FB7F894EC912E2B2C938FBFF6CF8E3006
:1002C00008F08E502091280190E4299F900111247C
:1002D0008770822B80937C0080917A008064809369
:1002E0007A0080917A0086FDFCCF80917800909111
:1002F000790008953FB7F89480912B0290912C02D9
:10030000A0912D02B0912E0226B5A89B05C02F3FCB
:1003100019F00196A11DB11D3FBFBA2FA92F982F2B
:100320008827BC01CD01620F711D811D911D43E025
:10033000660F771F881F991F4A95D1F708958F92EE
:100340009F92AF92BF92CF92DF92EF92FF926B019A
:100350007C010E947A014B015C01C114D104E104CB
:10036000F104B9F00E947A01681979098A099B0998
:10037000683E73408105910580F321E0C21AD108DF
:10038000E108F10888EE880E83E0981EA11CB11CDC
:10039000E4CFFF90EF90DF90CF90BF90AF909F9011
:1003A0008F9008952FB7F8946091270270912802DA
:1003B0008091290290912A022FBF0895E82FF0E042
:1003C000882359F0813059F0EE0FFF1FEC5DFE4F8E
:1003D00081EF91E0918380830895E898F5CFE998C3
:1003E000F3CF08952091DC01260F3327331F2132EC
:1003F0003105ECF420910002FC0190E080E0243013
:1004000069F082E00895A091DC012191AC0144548F
:100410005E4FA40FB52FB11D2C930196861798F34C
:100420008091DC01680F6093DC0180E0089581E039
:10043000089508958FEF9FEF08958FEF9FEF089530
:100440008091B50190E09195819591090895CF93A0
:10045000DF93CB01EA01642F0E94F201CE01DF910C
:10046000CF910895CF93DF931F92CDB7DEB7698305
:1004700061E0CE0101960E94F20181E090E00F90D0
:10048000DF91CF91089590E080E008950895FC01F8
:10049000838187708860838384818F718062848385
:1004A0006783CF010895E0912F02F09130023097D9
:1004B00021F00280F381E02D099408959C01809140
:1004C0002F029091300282179307F1F09091390238
:1004D0009F71909339023093300220932F02E09164
:1004E0002F02F0913002309721F00190F081E02D41
:1004F00009950E94D2016093310270933202809379
:10050000330290933402089580913902805E809383
:100510003902E5CF0F931F930E94D201009131025F
:10052000109132022091330230913402601B710B22
:10053000820B930B20913A022077203779F000E16B
:1005400017E220E030E0061717072807390758F4AC
:1005500080E291E01F910F910C945E0200E61AEE8A
:1005600020E030E0F0CF1F910F91089580913A0282
:10057000982F9F70963018F0807F80933A020895EC
:100580008091390284608093390280913A028078A8
:1005900080933A02E091B101F091B201309709F0F5
:1005A0000994089586E191E00C945E0208950F93FA
:1005B0001F9380913C028F3F31F082E191E01F91C7
:1005C0000F910C945E020E94D201009131021091B1
:1005D00032022091330230913402601B710B820B86
:1005E000930B613D77408105910550F08091390270
:1005F000803618F48EE091E0E2CF8AE091E0DFCF20
:100600001F910F9108958EE091E00C945E029091FD
:100610007A009F7790937A00909160008F3F09F461
:1006200038C044E0849F9001112420728770886054
:10063000822B28E10FB6F894A895209360000FBE96
:10064000809360008091600080658093600083B734
:10065000817F846083BFF89483B7816083BF85B74F
:10066000806685BF8F7D85BF7894889583B78E7FA0
:1006700083BFF894A89580916000886180936000A2
:1006800090936000789480917A00806880937A00DB
:1006900008950FB6F894A8958091600088618093C2
:1006A0006000109260000FBED2CF8F929F92AF92E7
:1006B000BF92CF92DF92EF92FF92CF93DF936B01C5
:1006C0007C012FE0C20ED11CE11CF11CC1E0D0E086
:1006D00080911A018F3F31F480E1C816D104E10402
:1006E000F104A0F480911A018F3F19F4C12CD12C90
:1006F0007601C701B601DF91CF91FF90EF90DF90B7
:10070000CF90BF90AF909F908F90089589E094E034
:10071000980F4E0102C0880C991C9A95E2F7B12CF3
:10072000A12CC814D904EA04FB0438F00E94070382
:10073000C818D908EA08FB08CBCF8150E8CF83B7A7
:100740008E7F83BF80911B01823010F40E94DE01F6
:1007500080911A018F3F21F480911B0180931A012F
:10076000089583B78E7F83BF80911C01823010F47F
:100770000E94DE0180911A018F3F21F480911C01BB
:1007800080931A0108958EBD00000DB407FEFDCFC1
:100790008EB50895FC0180819181009711F00C9431
:1007A000CC1308950F931F93CF93DF93EC018881AF
:1007B0009981009759F02A813B812617370730F03D
:1007C00081E0DF91CF911F910F9108958B016F5FB1
:1007D0007F4F0E947117009759F0998388831B837C
:1007E0000A832C813D81232B59F7FC011082E8CF2D
:1007F00080E0E7CFEF92FF920F931F93CF93DF93A9
:1008000041155105B1F07B01EC010C811D81040FF4
:10081000151FB8010E94D203882361F02881398115
:100820008C819D81B701820F931F0E9437181D8311
:100830000C8381E0DF91CF911F910F91FF90EF909A
:100840000895EF92FF920F931F93CF93DF93EC01E4
:100850007B018A01BA010E94D2032881398181116A
:1008600014C02115310519F0C9010E94CC13198259
:1008700018821D821C821B821A82CE01DF91CF91C9
:100880001F910F91FF90EF9008951D830C83B70186
:10089000C9010E943718F1CF1F93CF93DF9385EDE5
:1008A0008093BC008091B8019091B901A091BA01E8
:1008B000B091BB010796A11DB11D23E0B695A79588
:1008C000979587952A95D1F72091BC0024FD03C008
:1008D0001092000252C04091B8015091B90160914C
:1008E000BA017091BB01452B462B472B69F300974A
:1008F000A105B10541F02AE12A95F1F700C0019761
:10090000A109B109E1CF8091B701C1E0C093B6015F
:10091000882399F1D091B8001091BA008091BC0061
:100920008A7B8093BC0060E082E10E94EF0060E07F
:1009300083E10E94EF0010920002C0930202109225
:10094000010261E082E10E94EF0061E083E10E9428
:10095000EF008091B9008E7F8093B9008091B9003B
:100960008D7F8093B90080E28093B80085E4809306
:10097000BC001093BA00D093B800DF91CF911F91C3
:100980000895E9E3F2E08081897F8E7F8083ECE344
:10099000F2E081E08283118260E081E090E00C94DB
:1009A0009715E9E3F2E08081877F8F7E8083109244
:1009B000350210923602109237021092380244E04B
:1009C00050E070E060E08CE392E00C946F158F9241
:1009D0009F92AF92BF92CF92DF92EF92FF920F93CE
:1009E0001F93CF93DF93CDB7DEB72C970FB6F89454
:1009F000DEBF0FBECDBFFC01848184FD09C095819F
:100A0000911119C086818B3F19F481E080931D01FB
:100A10002C960FB6F894DEBF0FBECDBFDF91CF91FD
:100A20001F910F91FF90EF90DF90CF90BF90AF900C
:100A30009F908F900895973169F09033B1F1923083
:100A400081F0953209F4F2C0963211F786818D3F1C
:100A5000F9F6F0C086818A3FD9F681E080934B0297
:100A6000D7CF9681963FA1F610914902829586953F
:100A70008770813089F4878161E0811101C060E075
:100A8000161731F26093490281E080934A0283E9AC
:100A900092E00E949715BCCF811105C0CF01079647
:100AA0000E945514E9CF80E0E7CF9681953F09F089
:100AB000AFCF829586958770BF01695F7F4F88238E
:100AC00011F070E060E018861F821A8619861C8675
:100AD0001B866115710561F0FB0101900020E9F7AB
:100AE0003197AF01461B570BCE0107960E94210498
:100AF000F12CE12C10E000E090E080E02B853C85BB
:100B00008217930708F071C026E0E216F10408F09E
:100B10006CC02F813885AC014F5F5F4F5A012115A2
:100B2000310509F470C0280F391FF90120812B33DA
:100B300009F063C06C018017910710F468018C0103
:100B40001A8219821C821B821E821D8250E040E0A4
:100B50006CEA71E0CE0101960E9421048B849C8492
:100B60000815190520F5C814D90408F44601EF81C9
:100B7000F885E80DF91DD08010826F817885600FAF
:100B8000711F6115710509F440C0FB01019000203F
:100B9000E9F73197AF01461B570BCE0101960E9432
:100BA00021048F819885880E991EF401D0828D8151
:100BB0009E81892BA1F089819A81009799F10E94E9
:100BC0007314161617065CF4F701EE0FFF1FE95AAF
:100BD000FD4F71836083A7014F5F5F4F7A018501ED
:100BE000CE0101960E94CA030EC081E080934C02A0
:100BF000CE0107960E94CA030BCF2C3209F49ACF7C
:100C00002C3709F497CFC50179CF89819A81009754
:100C100011F00E94CC131A8219821E821D821C823E
:100C20001B82BFCF60E070E0CB01CBCF8681823FDB
:100C300009F0EECE81E080934002EACE0F931F933D
:100C4000CF93DF938C0180E06115710551F0EB01CA
:100C500009900020E9F721978C2F861B8A3108F034
:100C600089E1F801C381C770F8E08F9FC0011124AA
:100C7000C82BF801C38384818F718483C695C69580
:100C8000C695CA3108F0C9E1D0E0AE01C8010796A7
:100C90000E943E18C00FD11F1F82C801DF91CF9163
:100CA0001F910F910895CF93DF93FC011082118261
:100CB0001282148215821682DC0117968AE1ED01F8
:100CC00019928A95E9F782E08383DF91CF910895A5
:100CD000BF92CF92DF92EF92FF920F931F93CF9329
:100CE000DF937B01042FB22E90E59CBD1DBC2A989A
:100CF000E0E1F0E03197F1F70E94C303182FE7011C
:100D00000150A8F0BB2051F08FEF0E94C303182FB1
:100D1000E114F104A9F388832196F2CF6E018FEFDD
:100D2000C81AD80A88810E94C303E601E9CF2A9A2B
:100D300080E190E00197F1F7812FDF91CF911F9132
:100D40000F91FF90EF90DF90CF90BF900895CF93D9
:100D5000DF931F92CDB7DEB7698320E041E0BE018B
:100D60006F5F7F4F0E9468060F90DF91CF910895CB
:100D700029986EE080E20E94A70684E293E2019740
:100D8000F1F7089529986CE080E20C94A706809111
:100D90003A02982F9077903759F0982F92959F703C
:100DA0009F5F97709295907F8F78892B80933A02FE
:100DB000809139028B7F8F7E809339020C94C2061A
:100DC0006FE080E20E94A706609105016F3F19F075
:100DD0008AE20E94A706299A089521E041E070E086
:100DE00060E00C94680620E040E070E060E00C9465
:100DF0006806FF920F931F93CF93DF9390913C026D
:100E0000FB0190834381C0E242FD08C046954695B0
:100E100046954A3108F049E1C7E0C40F90913F027E
:100E2000D1E090FD03C08F3F09F0D0E0611571055E
:100E300009F44CC08B01F82E299880E091E00197CD
:100E4000F1F76EE080E20E94A70684EC90E0019743
:100E5000F1F76F2D8AE20E94A7066F2D80E30E94B2
:100E6000A70681EE0E94F306DD2321F060E584E20F
:100E70000E94A70620E04C2FB80180EA0E94680675
:100E8000299A10E000E08FEF0E94F306807339F496
:100E90000F3F100721F0A8950F5F1F4FF4CF29983F
:100EA00060E787E20E94A706C82F84FF03C081EE97
:100EB0000E94F306DD2321F06FE584E20E94A7067D
:100EC0000E94E006C5FF03C0D1E001C0D0E08D2F35
:100ED000DF91CF911F910F91FF9008950F931F9372
:100EE000CF938C01FC0182819091390290FF04C064
:100EF0008F3F51F5CFEF04C0811116C0C0913D0264
:100F0000B8018C2F0E94F90690913D029C1313C0EA
:100F100090913A02811113C021E0290F2F70907F28
:100F2000922B90933A0207C08F3F21F3B8010E94A1
:100F3000F906882319F3CF911F910F910895907F9F
:100F400090933A0281E0F7CF80E0F5CF209139020B
:100F500022FD0C946E0780E00895FC0180913C0214
:100F600081839481907F99609483CF010C94A6072C
:100F70001F93CF93DF93182F262FEA0150E040E014
:100F8000682F80E00E948D001F3F11F4C3E4D1E080
:100F9000BE010E941E06DF91CF911F910C94A607FF
:100FA0002F923F924F925F926F927F928F929F9279
:100FB000AF92BF92CF92DF92EF92FF920F931F9367
:100FC000CF93DF9300D000D000D0CDB7DEB78091B3
:100FD0001F018F3F41F181E00E945A0B882319F1D4
:100FE00086E0282E312C97E1E92EF12C22E0422ECA
:100FF000512C30E3632E712C43E2C42ED12C55E2E8
:10100000A52EB12C6EE1862E912C80911F0185308A
:1010100008F0FFC0823009F492C0F0F4813009F486
:1010200062C00E941D0126960FB6F894DEBF0FBE67
:10103000CDBFDF91CF911F910F91FF90EF90DF9087
:10104000CF90BF90AF909F908F907F906F905F9068
:101050004F903F902F900895833009F47EC08430E4
:1010600001F78091390282FFCEC0DA82C98212EF85
:101070001B834BE851E0BE016F5F7F4FCE010396AB
:101080000E94B60B882369F2BA82A9821B83BE0133
:101090006F5F7F4FCE0103960E94860B882309F273
:1010A0009A8289821DEF1B8344E951E0BE016F5F84
:1010B0007F4FCE0103960E94B60B882309F4B1CF6F
:1010C00086E290E09A8389831B83BE016F5F7F4F26
:1010D000CE01039695C0882341F080911F018F5F58
:1010E00080931F0192CF09EE13E064E670E080E088
:1010F00090E00E94320B2BE043E050E06FEF80E085
:101100000E948D006FE471E00E941E060E94A607F7
:101110008E832CE043E050E06FEF80E00E948D0072
:1011200061E671E00E941E060E94A6079E81892347
:101130000150110981F6882309F473CFCECF3A828A
:1011400029828BEF8B8345E651E0BE016F5F7F4FB5
:10115000CE0103960E94B60BEECF86EF8D8385EF0E
:101160008C838AEF8B8380E190E09A8389834EE6BB
:1011700051E0BE016F5F7F4FCE0103960E94B60B18
:10118000882309F44ECFFA82E982BE016F5F7F4F58
:10119000CE0103960E94860B882309F442CF83E098
:1011A00090E09A8389834FE751E0BE016F5F7F4FE4
:1011B000CE0105960E94B60B882309F432CF5A82DD
:1011C0004982BE016F5F7F4FCE0105960E94860B5C
:1011D000882309F426CFFA82E98249E751E0BE016B
:1011E0006F5F7F4FCE0104960E94B60B882309F4EF
:1011F00018CF7A826982BE016F5F7F4FCE0104965D
:101200000E94860B98CF81E00E945A0B81112DCF4E
:1012100008CF8FEF80931F0104CF2FE043E050E011
:101220006FEF80E00E948D006CEA71E00E941E0664
:10123000E3E6F2E0838187708061838384818F712C
:10124000806C848381E087831086CF010E94A6078B
:101250008FE00E94FC0A4CEA51E061E170E08FEF00
:101260000E94B80726E043E050E06FEF80E00E9464
:101270008D0060913D020E9447020E94A60786E011
:101280000E94FC0A0C94D0072F923F924F925F92DB
:101290006F927F929F92BF92CF92DF92EF92FF92D6
:1012A0000F931F93CF93DF9386E0B82E90E0292E03
:1012B00090E0392EC12CD12C24E0E22E22E0F22E37
:1012C00000E01FEF87E10E94ED0680FD7EC1BA9429
:1012D000BB2009F47AC121E041E070E060E080E6E3
:1012E0000E946806C82F813220F082EE0E94F30629
:1012F000C0E021E04C2F64E872E081E60E946806BD
:1013000060E487E20E94A70680918702982F93707D
:101310009230C1F6E82FE695E695E695EA3108F0B9
:10132000E9E182FF52C089E1895FC813CBCF809188
:101330008802D82FD770C0918902909085022091A1
:1013400084029091860230913A02306830933A02DA
:1013500030913C02931310C1F0E0EC57FD4F17821F
:1013600083FF15C021E2E4E8F2E0A3E6B2E00190D9
:101370000D922A95E1F7877E8061809367029093B2
:1013800064029092650283E692E00E94A607909123
:10139000880294FDE9C0D33009F0E6C0809189024B
:1013A00021EF280F233008F48DCFC43009F48ACF01
:1013B000C83169F429E143E050E06FEF892D0E94C4
:1013C0008D0061E00E94470234C08E2FADCFC9313D
:1013D000C1F48091390283FF75CF877F80933902F2
:1013E00092959695977080918B02913039F080E0BC
:1013F000911104C08BE892E00E94551480933B0247
:1014000061CFCE3109F45ECFCD31B1F42FE143E0AD
:1014100050E06FEF80E00E948D00FC0183818770B7
:101420008061838384818F718064848310870783C4
:10143000CF010E946E0746CF20918502211199C0ED
:101440008D3059F488E198E00FB6F894A895809310
:1014500060000FBE90936000FFCF8B3109F432CF54
:10146000863099F490918B0281E0992319F09D3494
:1014700009F080E08093B30141E050E063E071E067
:1014800083EB91E00E9487151DCF833119F40E94F0
:101490000D0918CF823151F50E94D20140903102DE
:1014A0005090320260903302709034029B01AC0184
:1014B000241935094609570929013A0126E143E073
:1014C00050E06FEF80E00E948D00FC018381877007
:1014D0008062838384818F71806A8483478250868F
:1014E00061867286CF010E94A607ECCE8230A9F4F5
:1014F00022E043E050E06FEF80E00E948D00FC01AD
:10150000838187708062838384818F71806A848302
:10151000C782D086E186F286E5CF8130F9F42114C6
:10152000310409F4CFCE929596959770953059F481
:1015300060918B0270918C0280918D0290918E024D
:101540000E940000BFCE911105C08BE892E00E947E
:101550007314F6CF60E070E0CB01F2CF8A3009F46B
:10156000B1CE8C3109F4AECE84E892E00E94E7045B
:10157000A9CE8A31C9F7A6CE9F3F09F0A3CED330BA
:10158000F9F48091390282FF03C0C73009F49ACE82
:10159000C43109F097CE80913D02281393CE0E946A
:1015A000D2017370882799270E949F0125E143E0AB
:1015B00050E06FEF892D0E948D0060913D0202CFB7
:1015C00080913D0228137ECECFCFDF91CF911F9126
:1015D0000F91FF90EF90DF90CF90BF909F907F9002
:1015E0006F905F904F903F902F90089580913902B7
:1015F00084FD0C9444090895CF92DF92EF92FF92FC
:10160000CF93DF93D82F0E94D2016B017C01809190
:101610008802876080938802C0E00E94D2016C1922
:101620007D098E099F09603D77408105910590F401
:10163000C11110C0A8950E9453020E94F60A809121
:1016400088028770833049F7C1E0809189028D1349
:10165000E3CFE3CF8C2FDF91CF91FF90EF90DF901E
:10166000CF9008958F929F92AF92BF92CF92DF92C8
:10167000EF92FF924B015C010E94D2016B017C0151
:101680000E94D2016C197D098E099F0968157905A0
:101690008A059B0530F4A8950E9453020E94F60A21
:1016A000EFCFFF90EF90DF90CF90BF90AF909F90E3
:1016B0008F900895CF93C82F809147020E94C60053
:1016C000892B91F461E0809147020E94EF00CC23C6
:1016D00059F08091390282FD07C064EF71E080E02B
:1016E00090E00E94320BF3CF8091420281110AC038
:1016F0008091390282FB882780F9C11101C081E005
:101700008093420280914202CF910895CF92DF925E
:10171000EF92FF920F931F93CF93DF937C016B01A6
:10172000C9EED3E0F6010081F701108164E670E0B4
:1017300080E090E00E94320B202F42E050E0612FC9
:1017400080E00E948D006CEA71E00E941E060E94FB
:10175000A607219711F0882329F3DF91CF911F91DC
:101760000F91FF90EF90DF90CF9008958F929F920E
:10177000AF92BF92CF92DF92EF92FF921F93CF93DF
:10178000DF936C015B017A01C9EED3E0F501808043
:101790009180F601108164E670E080E090E00E94A4
:1017A000320BA701B401812F0E94B807219711F0D5
:1017B000882361F3DF91CF911F91FF90EF90DF902D
:1017C000CF90BF90AF909F908F900895CF92DF926F
:1017D000EF92FF920F931F93CF93DF93CDB7DEB7B6
:1017E000A7970FB6F894DEBF0FBECDBF80911F0143
:1017F0008F3F09F48AC00E94D00780911F018F3F5C
:10180000E1F08091390282FF44C00E94C20670E478
:10181000C72E7EE7D72E75E0E72EF12CC701B60163
:101820000E94550380911A018F3F11F080911A0197
:101830008FEF80931A010E94B8068091390282FDD1
:1018400022C30E94D2016B017C0180E090E0DC01A8
:101850002091390222FDCDC28038EEEE9E07E6E3EC
:10186000AE07B10508F000C38031F7E29F07A1057C
:10187000B10508F0C5C2A8950E9453020E94F60A5D
:101880000E94D201DC01CB018C199D09AE09BF0970
:10189000DFCF0E94D2016B017C0180E090E0DC018F
:1018A0002091390222FD1BC080342EE7920725E0EB
:1018B000A207B10530F68031E7E29E07A105B10528
:1018C000B0F4A8950E9453020E94F60A0E94D20129
:1018D000DC01CB018C199D09AE09BF09E1CF803431
:1018E000FEE79F07F5E0AF07B10508F0CCC260E462
:1018F000C62E6EE7D62E65E0E62EF12CC81AD90A60
:10190000EA0AFB0A0E94C20689CF10924002809127
:10191000390282FFE8C08EE480937C0062E070E0D0
:1019200080E090E00E949F0180917A008064809323
:101930007A0080917A0086FDFCCF8091780020911A
:10194000790030E0322F2227032E000C440B550B78
:10195000282B64EB7BE281E190E00E94A915CA018B
:10196000B9010E94E31420E030E04AE754E40E9409
:10197000A8166B017C01CE0101960E9453068DEFE3
:101980008F8386E28E838C81877088628C838D81C1
:10199000806E8D83C886D986EA86FB8682E08C8736
:1019A000CE0101960E94AD0764E670E080E090E011
:1019B0000E94320B20E043E050E06FEF80E00E9495
:1019C0008D008C01C701B6010E941A179B01AC0162
:1019D0002150310941095109A4E6B0E00E94C8151F
:1019E00022E030E040E050E00E94A915622FC801DB
:1019F0000E9447020E94A60781E08093280110E020
:101A0000F12CE12C00E060E0809146020E94EF00A2
:101A100061E0809145020E94EF0061E070E080E0AB
:101A200090E00E94320B60E0809145020E94EF003E
:101A300061E0809146020E94EF00809148020E947E
:101A40005F01053018F0E80EF91E1F5F61E070E0DD
:101A500080E090E00E94320B0F5F0A30A1F660E058
:101A6000809145020E94EF0060E0809146020E9452
:101A7000EF00612F70E0C7010E9450178B01809129
:101A80004302909144028617970791F170934402A4
:101A90006093430281E080934102CE0101960E944F
:101AA000530682EF8F8385E28E838C8187708061FD
:101AB0008C838D818F7180668D8320E034E0201BC4
:101AC000310BA4E6B0E00E942C164AE0959587956C
:101AD000779567954A95D1F779876887CE01019602
:101AE0000E94AD0705C081E00E945A0B811113CFFF
:101AF00080914102882309F440C11092410281E0A3
:101B000080931D0188EC80937C0080917A0080682E
:101B100080937A0064E170E080E090E00E949F0191
:101B200080917A00806480937A0080917A0086FDAB
:101B3000FCCF609178007091790090E080E00E9485
:101B4000E1142EEA37E242EA53E40E943B1626EF04
:101B500038E24CE95FE30E94A8160E941A17613828
:101B600001F180911E018617E1F060931E01CE0104
:101B700001960E9453068BEF8F831E8220911E01D7
:101B8000022E000C330B8C81877080618C838D81D9
:101B90008F7180648D8339872887CE0101960E94DA
:101BA000AD0780911D01811110921D0181E080938C
:101BB0004B028EE00E945F0120914F023091500253
:101BC0002817390714F4821B930B20914D02309192
:101BD0004E022817390791F097FD10C090934E02DE
:101BE00080934D02209157023091580228173907EF
:101BF00008F4C6C010925202109251028091510214
:101C000090915202209153023091540228173907C3
:101C100021F420914B02222399F190935402809356
:101C20005302A0914D02B0914E0224E630E00E9492
:101C3000641724E833E040E050E00E94A9153BA37C
:101C40002AA3CE0101960E9453068AEF8F8387E173
:101C50008E832AA13BA18C81877080618C838D81CA
:101C60008F7180648D8339872887CE0101960E9409
:101C7000AD07E0915502F0915602CE01829609958A
:101C800080914B02811110924B0280914C0288236B
:101C900009F45CC010924C021BA21AA21DA21CA245
:101CA0001FA21EA249E050E061EA71E0CE018296D7
:101CB0000E94210437E5C32E32E0D32EF12CE12C13
:101CC0008E010F5F1F4F4AE0B801F601819191919B
:101CD0006F010E94B714F80101900020E9F73197D5
:101CE000AF01401B510BB801CE0182960E94FA034E
:101CF000F5E0EF16F10441F041E050E06BEA71E0ED
:101D0000CE0182960E94FA032FEFE21AF20A86E0D1
:101D1000E816F104C1F642E050E06DEA71E0CE0150
:101D200082960E94FA03EAA0FBA0C8010E94530613
:101D300085EF8F8380E38E83B701C8010E941E0662
:101D40000E94AD07CE0182960E94CA0380914A028A
:101D5000882399F010924A0210914902CE0101960F
:101D60000E94530686EF8F8382E08E83612FCE011F
:101D700001960E9447020E94AD070E941D015DCDA1
:101D80002091590230915A022817390738F081E022
:101D900090E0909352028093510230CF20915B02E9
:101DA00030915C022817390718F082E090E0F1CFFB
:101DB00020915D0230915E022817390718F083E008
:101DC00090E0E7CF20915F02309160022817390739
:101DD00018F084E090E0DDCF209161023091620242
:101DE0002817390718F085E090E0D3CF86E090E01F
:101DF000D0CF80382EEE920726E3A207B105A0F5DA
:101E000020E8C22E2EEED22E26E3E22EF12CC81AA6
:101E1000D90AEA0AFB0A0E94C206F89481E080937C
:101E20001C018FEF80931B0182E08CBB81EB93E060
:101E30009093270180932601809169008C608093A4
:101E40006900E99AC701B6010E94550381E00E942A
:101E5000DE0180911A018F3F11F080911A018FEFFE
:101E600080931A010E94B806A7960FB6F894DEBFB9
:101E70000FBECDBFDF91CF911F910F91FF90EF90DB
:101E8000DF90CF90089580E8C82E8EEED82E86E39E
:101E9000E82EF12CC0CF0F931F93CF93DF9361E017
:101EA0008DE00E942E0183E080932801C0E4D2E0FF
:101EB00061E08D810E942E0160E08D810E94EF0023
:101EC000219622E0C334D20799F762E083E00E94B2
:101ED0002E0180E00E945A0B81110FC061E08DE05D
:101EE0000E94EF0068EE73E080E090E00E94320B09
:101EF00060E08DE00E94EF00F1CF8EE00E945F0174
:101F000010E000E0D0E0C0E00E94D20168387341E8
:101F10008105910598F464E670E080E090E00E940D
:101F2000320B8EE00E945F01C817D9072CF0801792
:101F300091070CF48C01CE01EC01E6CFC01BD10B54
:101F4000D0935002C0934F026F9724F0109250022A
:101F500010924F0283E992E00E947F1591E0811177
:101F600001C090E090934902DF91CF911F910F91B2
:101F700008958091B40181FD08C00E940D098091EF
:101F8000B401816082608093B401089580913C0225
:101F90008F3F69F423E043E050E06FEF80E00E9460
:101FA0008D006CEA71E00E941E060C946E07089585
:101FB000CF93219A229A29982A9ACFB7F8948091A0
:101FC000B001811127C0E0E9F0E08491E4EAF0E09B
:101FD0009491E82FF0E0EE0FFF1FE859FF4FA59115
:101FE000B491EC91E92321F461E08AE00E94EF00D2
:101FF00061E08AE00E942E018CB580618CBD8CB5B9
:1020000080648CBD61E08DE00E942E0161E08BE078
:102010000E942E018091B0018F5F8093B001CFBFED
:102020000E94B80663E083E20E94A7066FE584E29F
:102030000E94A7066CE485E20E94A70665E286E29C
:102040000E94A70664E08DE30E94A7068DE10E942E
:10205000ED06843041F063E780E50E94A70664E066
:102060008DE30E94A70686E00E94ED06853209F006
:102070004DC085E00E94ED068C3409F047C062E057
:1020800082E20E94A70660E081E20E94A70663E068
:102090008CE30E94A7068FEF8093000120E045E0CB
:1020A00060E071E08BE20E94680620E045E060E0BD
:1020B00071E08AE20E94680620E045E060E071E09D
:1020C00080E30E94680682EE0E94F30681EE0E9481
:1020D000F30660E787E20E94A706809139028061DB
:1020E0008093390280913F02816080933F0287E1B3
:1020F00080933C0267E190E080E00E949715C091D8
:102100003C02CF3F41F486E091E002C08AE091E0DA
:10211000CF910C945E028FEF8C0F8E3FB8F7C09377
:10212000050163E082E20E94A70661E081E20E946D
:10213000A7060E94E0066C2F90E080E00E949715B1
:10214000E2CF1F920F920FB60F9211242F933F935D
:102150008F939F93AF93BF93809127029091280212
:10216000A0912902B0912A023091260226E0230F85
:102170002D3758F50296A11DB11D2093260280939C
:10218000270290932802A0932902B0932A028091FB
:102190002B0290912C02A0912D02B0912E0201965B
:1021A000A11DB11D80932B0290932C02A0932D02B0
:1021B000B0932E02BF91AF919F918F913F912F913C
:1021C0000F900FBE0F901F90189529E8230F0396CC
:1021D000A11DB11DD2CF1F920F920FB60F921124E5
:1021E0002F933F934F935F936F937F938F939F931F
:1021F000AF93BF93EF93FF93E0912601F0912701F6
:102200000995FF91EF91BF91AF919F918F917F9130
:102210006F915F914F913F912F910F900FBE0F9053
:102220001F9018951F920F920FB60F9211242F93A3
:102230003F934F935F936F937F938F939F93AF934E
:10224000BF93EF93FF93E0912401F091250109954D
:10225000FF91EF91BF91AF919F918F917F916F917E
:102260005F914F913F912F910F900FBE0F901F9054
:1022700018951F920F920FB60F9211242F933F9330
:102280004F935F936F937F938F939F93AF93BF937E
:10229000EF93FF938091B900887F803609F44AC09C
:1022A000F0F5883209F4A5C018F5803109F499C019
:1022B000B8F4882309F4F5C0883009F492C0FF917E
:1022C000EF91BF91AF919F918F917F916F915F91AE
:1022D0004F913F912F910F900FBE0F901F90189527
:1022E000883109F486C0803251F78093FF0114C011
:1022F000803409F49BC040F48033B9F38833F9F695
:102300008093FF0185ECAEC0803509F483C0883529
:1023100009F494C0883499F60E944C04D0CF8839CF
:1023200009F48AC038F5883729F050F4883611F05E
:10233000803729F683E0809300021092FE0155C099
:10234000883809F479C0803919F0803809F0B7CF9E
:102350008091FE01803208F06FC0E091FE0181E0C3
:102360008E0F8093FE018091BB00F0E0E252FE4FA1
:1023700080833BC0803B39F0D0F4803A09F477C0C9
:10238000883A09F09CCF84E0809300021092DD012E
:102390001092DC01F0E0E0E009958091DC01811110
:1023A0000FC081E08093DC011092BC0109C0803C29
:1023B00009F4A8CF883C09F4A5CF883B09F07FCF6A
:1023C000E091DD0181E08E0F8093DD01F0E0E454C7
:1023D000FE4F80818093BB009091DD018091DC01F4
:1023E00029C0809125028093BB0085EC8093BC00BE
:1023F00066CF9091240280912302981758F5E091BE
:10240000240281E08E0F80932402F0E0ED5FFD4F07
:102410008081E9CFE091240281E08E0F8093240235
:102420008091BB00F0E0ED5FFD4F8083909124022E
:10243000809123029817C8F285E8D8CFE091240252
:1024400081E08E0F809324028091BB00F0E0ED5F6D
:10245000FD4F80838091020281115ECF81E08093E5
:10246000010284EA8093BC001092000228CF85EC20
:102470008093BC00109200028091FE01803230F403
:10248000E091FE01F0E0E252FE4F10826091FE0109
:1024900070E08EED91E0F0E0E0E009951092FE0131
:1024A0000ECF1092FF0138CF1F920F920FB60F92EE
:1024B00011240F900FBE0F901F90189584E892E0A2
:1024C0000E94530683E692E00E945306EDE4F2E098
:1024D00088E0DF011D928A95E9F7E9E4F2E0809156
:1024E0002F0190913001A0913101B0913201808390
:1024F0009183A283B3838CE890E0958784878CE0F6
:10250000E3E3F1E0A7E5B2E001900D928A95E1F7EF
:10251000E0E4F2E081E0808311821282148213826F
:1025200080913F0190914001A0914101B091420101
:1025300085839683A783B0870895789484B5826055
:1025400084BD84B5816084BD85B5826085BD85B557
:10255000816085BD80916E00816080936E001092D5
:102560008100809181008260809381008091810050
:1025700081608093810080918000816080938000E1
:102580008091B10084608093B1008091B00081603F
:102590008093B00080917A00846080937A0080916B
:1025A0007A00826080937A0080917A008E7F809397
:1025B0007A0080917A00806880937A001092C1003E
:1025C000A89580E090E0892B11F00E940000809196
:1025D000B4018D7F8093B4010E944B0F41E050E025
:1025E00063E071E083EB91E00E946F1560E081E0B1
:1025F00090E00E94971580913A028F7880933A027A
:102600001092300210922F0280E291E00E945E024E
:1026100089EB9FE09093B2018093B1010E94D201B7
:102620000E94D2010E9453020E94F60A8091390250
:1026300082FB882780F9A895882391F3A895C0E0AC
:10264000D0E0A8950E9453028091390284FD0E9437
:1026500044090E94E60B2097A1F30E940000F1CFED
:102660000F931F93CF93DF938230910510F482E094
:1026700090E0E091A702F091A80230E020E0B0E005
:10268000A0E0309799F42115310509F44AC0281BC0
:10269000390B24303105D8F58A819B81611571058C
:1026A00089F1FB0193838283FE0111C04081518136
:1026B0000281138148175907E0F04817590799F428
:1026C000109761F012960C93129713961C93329602
:1026D000CF01DF91CF911F910F9108950093A70231
:1026E0001093A802F4CF2115310551F0421753077A
:1026F00038F0A901DB019A01BD01DF01F801C1CF6A
:10270000EF01F9CF9093A8028093A702CDCFFE01ED
:10271000E20FF31F8193919322503109398328836B
:10272000D7CF2091A5023091A602232B41F420910E
:102730002B0130912C013093A6022093A502209109
:10274000290130912A012115310541F42DB73EB7F9
:1027500040912D0150912E01241B350BE091A502D3
:10276000F091A602E217F307A0F42E1B3F0B2817E7
:10277000390778F0AC014E5F5F4F2417350748F0FA
:102780004E0F5F1F5093A6024093A5028193919331
:102790009FCFF0E0E0E09CCFCF93DF930097E9F08C
:1027A000FC01329713821282A091A702B091A80275
:1027B000ED0130E020E01097A1F420813181820FFB
:1027C000931F2091A5023091A6022817390709F01E
:1027D00061C0F093A602E093A502DF91CF91089526
:1027E000EA01CE17DF07E8F54A815B819E014115BA
:1027F0005105B1F7E901FB83EA8349915991C40F6F
:10280000D51FEC17FD0761F4808191810296840F3A
:10281000951FE90199838883828193819B838A83B1
:10282000F0E0E0E012968D919C9113970097B9F536
:102830002D913C911197CD010296820F931F20910B
:10284000A5023091A6022817390739F6309751F5BD
:102850001092A8021092A702B093A602A093A5021C
:10286000BCCFD383C28340815181840F951FC81789
:10287000D90761F44E5F5F4F88819981480F591FD6
:10288000518340838A819B81938382832115310503
:1028900009F0B0CFF093A802E093A7029ECFFD010C
:1028A000DC01C0CF13821282D7CFFC018827992781
:1028B000E89421912032E9F3293010F02E30C8F34A
:1028C0002B3241F02D3239F4689404C00E94AF14C9
:1028D000820F911D219120532A30C0F31EF4909550
:1028E00081959F4F08951F93FC0199278827BC016C
:1028F000E89411911032E9F3193010F01E30C8F34A
:102900001B3251F01D3249F4689406C00E949A149B
:10291000610F711D811D911D119110531A30B0F37B
:102920003EF490958095709561957F4F8F4F9F4FA6
:102930001F910895592F482F372F262F660F771F85
:10294000881F991F660F771F881F991F620F731FBB
:10295000841F951F660F771F881F991F08957AE0BF
:10296000979F902D879F802D910D11240895BB274F
:10297000FB015527AA27880F991FAA1FA41710F03B
:10298000A41B83955051B9F7A05DAA3308F0A95D47
:10299000A193009779F7B111B1931192CB010C94E7
:1029A000D114DC01FC01672F71917723E1F7329795
:1029B00004C07C916D9370836291AE17BF07C8F31A
:1029C0000895E89409C097FB3EF490958095709522
:1029D00061957F4F8F4F9F4F9923A9F0F92F96E96B
:1029E000BB279395F695879577956795B795F111E0
:1029F000F8CFFAF4BB0F11F460FF1BC06F5F7F4F7D
:102A00008F4F9F4F16C0882311F096E911C077238E
:102A100021F09EE8872F762F05C0662371F096E897
:102A2000862F70E060E02AF09A95660F771F881F66
:102A3000DAF7880F9695879597F9089597F99F6724
:102A400080E870E060E008959FEF80EC0895002436
:102A50000A941616170618060906089500240A9403
:102A600012161306140605060895092E0394000C89
:102A700011F4882352F0BB0F40F4BF2B11F460FF18
:102A800004C06F5F7F4F8F4F9F4F089557FD905841
:102A9000440F551F59F05F3F71F04795880F97FB22
:102AA000991F61F09F3F79F08795089512161306DC
:102AB0001406551FF2CF4695F1DF08C0161617060B
:102AC0001806991FF1CF8695710561050894089540
:102AD000E894BB2766277727CB0197F90895DC0197
:102AE000CB01FC01F999FECF06C0F2BDE1BDF89A19
:102AF000319600B40D9241505040B8F70895F999BD
:102B0000FECF92BD81BDF89A992780B50895DC016A
:102B1000A40FB51F4150504048F0CB01840F951FC2
:102B20002E910E94981541505040D0F70895262FBD
:102B3000F999FECF92BD81BDF89A019700B40216B3
:102B400039F01FBA20BD0FB6F894FA9AF99A0FBE61
:102B50000895052E97FB1EF400940E94C01557FDA2
:102B600007D00E940A1607FC03D04EF40C94C0153F
:102B700050954095309521953F4F4F4F5F4F0895A9
:102B800090958095709561957F4F8F4F9F4F0895D9
:102B90000E942C16A59F900DB49F900DA49F800DB0
:102BA000911D112408952F923F924F925F926F9240
:102BB0007F928F929F92AF92BF92CF92DF92EF92CD
:102BC000FF920F931F93CF93DF93CDB7DEB7CA1B4E
:102BD000DB0B0FB6F894DEBF0FBECDBF09942A8879
:102BE000398848885F846E847D848C849B84AA8421
:102BF000B984C884DF80EE80FD800C811B81AA81AE
:102C0000B981CE0FD11D0FB6F894DEBF0FBECDBF78
:102C1000ED010895A1E21A2EAA1BBB1BFD010DC0F8
:102C2000AA1FBB1FEE1FFF1FA217B307E407F5077C
:102C300020F0A21BB30BE40BF50B661F771F881F58
:102C4000991F1A9469F760957095809590959B01EE
:102C5000AC01BD01CF010895A29FB001B39FC00197
:102C6000A39F700D811D1124911DB29F700D811DB8
:102C70001124911D08955058BB27AA270E9453166E
:102C80000C9435150E94271538F00E942E1520F05F
:102C900039F49F3F19F426F40C9424150EF4E095B2
:102CA000E7FB0C941E15E92F0E94461558F3BA173E
:102CB000620773078407950720F079F4A6F50C9452
:102CC00068150EF4E0950B2EBA2FA02D0B01B9015B
:102CD00090010C01CA01A0011124FF27591B99F092
:102CE000593F50F4503E68F11A16F040A22F232F9E
:102CF000342F4427585FF3CF469537952795A795EE
:102D0000F0405395C9F77EF41F16BA0B620B730B94
:102D1000840BBAF09150A1F0FF0FBB1F661F771F05
:102D2000881FC2F70EC0BA0F621F731F841F48F4BA
:102D3000879577956795B795F7959E3F08F0B0CF43
:102D40009395880F08F09927EE0F9795879508952A
:102D50000E94BC160C9435150E942E1558F00E9446
:102D6000271540F029F45F3F29F00C941E155111EE
:102D70000C9469150C9424150E94461568F3992348
:102D8000B1F3552391F3951B550BBB27AA27621767
:102D90007307840738F09F5F5F4F220F331F441F74
:102DA000AA1FA9F335D00E2E3AF0E0E832D09150A8
:102DB0005040E695001CCAF72BD0FE2F29D0660F95
:102DC000771F881FBB1F261737074807AB07B0E8D8
:102DD00009F0BB0B802DBF01FF2793585F4F3AF0DE
:102DE0009E3F510578F00C941E150C9469155F3FB9
:102DF000E4F3983ED4F3869577956795B795F79564
:102E00009F5FC9F7880F911D9695879597F908954B
:102E1000E1E0660F771F881FBB1F621773078407E7
:102E2000BA0720F0621B730B840BBA0BEE1F88F7F6
:102E3000E09508950E9421176894B1110C946915CA
:102E400008950E944E1588F09F5798F0B92F992742
:102E5000B751B0F0E1F0660F771F881F991F1AF085
:102E6000BA95C9F714C0B13091F00E946815B1E06D
:102E700008950C946815672F782F8827B85F39F06C
:102E8000B93FCCF3869577956795B395D9F73EF41E
:102E900090958095709561957F4F8F4F9F4F0895C6
:102EA000AA1BBB1B51E107C0AA1FBB1FA617B70770
:102EB00010F0A61BB70B881F991F5A95A9F780958C
:102EC0009095BC01CD0108950E942C16B7FF08957E
:102ED000821B930B0895EE0FFF1F0590F491E02DD8
:102EE0000994B0E0A0E0E7E7F7E10C94D5158C0178
:102EF000009751F4CB010E9430138C01C801CDB76B
:102F0000DEB7E0E10C94F115FC01E60FF71F9C0120
:102F100022503109E217F30708F49DC0D901CD9181
:102F2000DC911197C617D70798F0C530D10530F35B
:102F3000CE0104978617970708F3C61BD70B229775
:102F4000C193D1936D937C93CF010E94CC13D6CFC4
:102F50005B01AC1ABD0A4C018C0E9D1EA091A7020C
:102F6000B091A802512C412CF12CE12C109731F595
:102F70008091A5029091A6028815990509F05CC080
:102F80004616570608F058C08091290190912A01F1
:102F9000009741F48DB79EB740912D0150912E01BD
:102FA000841B950BE817F90708F055C0F093A602AB
:102FB000E093A502F90171836083A0CF8D919C916C
:102FC000119712966C90129713967C901397A815F0
:102FD000B90559F56C0142E0C40ED11CCA14DB04DA
:102FE00020F1AC014A195B09DA011296159780F0BD
:102FF0006282738251834083D9016D937C93E11483
:10300000F10471F0D7011396FC93EE93129776CFEB
:1030100022968C0F9D1FF90191838083F301EFCFDE
:10302000F093A802E093A70269CF4816590608F466
:103030002C017D01D3019ACFCB010E9430137C017A
:10304000009749F0AE01B8010E942E18C8010E94F5
:10305000CC13870153CF10E000E050CFFB01DC011F
:1030600002C001900D9241505040D8F70895FB01E5
:10307000DC0101900D920020E1F70895FB01DC01D5
:103080004150504048F001900D920020C9F701C016
:0E3090001D9241505040E0F70895F894FFCF94
:10309E0000FCE1A8A8FFC1040303C7068A02C60FFD
:1030AE00D702D602D202C002B602FFFFFF01000114
:1030BE00D104D80FF101F101010000A90280000135
:1030CE00010100020005000A000F00190023000F85
:1030DE00100811322E342E302D616C70686100553F
:1030EE006E69742D4D6F6973747572654E6F64657C
:1030FE0000312E3400496E742E54656D7000496E89
:10310E00742E4C69676874730053657475702E4124
:10311E0075746F2E4C696768747300496E742E5304
:10312E006F696C00496E742E4261742E566F6C740A
:10313E00007B2264617461223A5B002C005D7D008D
:00000001FF
