:100000000C9462000C94D00D0C94A90D0C948A00F1
:100010000C948A000C948A000C94120F0C948A00A1
:100020000C948A000C948A000C948A000C948A0028
:100030000C948A000C948A000C948A000C948A0018
:100040000C945F0D0C948A000C948A000C948A0026
:100050000C948A000C948A000C948A000C948A00F8
:100060000C94F70D0C948A00000000002400270077
:100070002A0000000000250028002B0000000000DE
:1000800023002600290004040404040404040202DA
:100090000202020203030303030301020408102007
:1000A0004080010204081020010204081020000012
:1000B0000008000201000003040700000000000027
:1000C00000001C0F11241FBECFEFD8E0DEBFCDBF54
:1000D00011E0A0E0B1E0E2E1F5E202C005900D928E
:1000E000AE36B107D9F722E0AEE6B1E001C01D920D
:1000F000A934B207E1F710E0C2E6D0E004C02197CE
:10010000FE010E947212C136D107C9F70E94390F51
:100110000C9487120C940000942FE7E0F2E03091E9
:10012000FA0131838283668325834481487F492B8A
:10013000477E4483CF010895833081F028F48130D5
:1001400099F08230A9F008958730A9F08830C9F07D
:100150008430B1F4809180008F7D03C08091800055
:100160008F7780938000089584B58F7784BD08953C
:1001700084B58F7DFBCF8091B0008F778093B000E6
:1001800008958091B0008F7DF9CFCF93DF93282F12
:1001900030E0F901E255FF4F8491F901E656FF4F37
:1001A000D491F901EA57FF4FC491CC23A1F08111FA
:1001B0000E949C00EC2FF0E0EE0FFF1FE458FF4F71
:1001C000A591B491EC91ED2381E090E009F480E0F9
:1001D000DF91CF91089580E090E0FACF1F93CF9305
:1001E000DF93282F30E0F901E255FF4F8491F901A8
:1001F000E656FF4FD491F901EA57FF4FC491CC2343
:10020000A9F0162F81110E949C00EC2FF0E0EE0F58
:10021000FF1FEE58FF4FA591B4918FB7F894EC9162
:10022000111108C0D095DE23DC938FBFDF91CF91F1
:100230001F910895DE2BF8CF809105020E94C50022
:10024000019729F460E0809105020E94EE00809100
:1002500000028111109200020895CF93DF9390E085
:10026000FC01E656FF4F24918A579F4FFC01849171
:100270008823D1F090E0880F991FFC01E859FF4FC7
:10028000A591B491FC01EE58FF4FC591D491623015
:1002900071F49FB7F8943C91822F809583238C93BF
:1002A000E8812E2B28839FBFDF91CF9108958FB7D0
:1002B000F894EC912E2B2C938FBFF6CF3FB7F89488
:1002C0008091E9019091EA01A091EB01B091EC01DC
:1002D00026B5A89B05C02F3F19F00196A11DB11DA1
:1002E0003FBFBA2FA92F982F8827BC01CD01620FDD
:1002F000711D811D911D43E0660F771F881F991F97
:100300004A95D1F708958F929F92AF92BF92CF9264
:10031000DF92EF92FF926B017C010E945E014B0124
:100320005C01C114D104E104F104B9F00E945E0142
:10033000681979098A099B09683E7340810591050E
:1003400080F321E0C21AD108E108F10888EE880E96
:1003500083E0981EA11CB11CE4CFFF90EF90DF90CA
:10036000CF90BF90AF909F908F9008952FB7F89443
:100370006091E5017091E6018091E7019091E801BB
:100380002FBF0895E82FF0E0882359F0813059F00D
:10039000EE0FFF1FEB5DFE4F85ED91E091838083B3
:1003A0000895E898F5CFE998F3CF089520919A0140
:1003B000260F3327331F21323105ECF42091BE0183
:1003C000FC0190E080E0243069F082E00895A09183
:1003D0009A012191AC0146585E4FA40FB52FB11D73
:1003E0002C930196861798F380919A01680F609379
:1003F0009A0180E0089581E0089508958FEF9FEFBE
:1004000008958FEF9FEF08958091730190E091958B
:10041000819591090895CF93DF93CB01EA01642F71
:100420000E94D601CE01DF91CF910895CF93DF9343
:100430001F92CDB7DEB7698361E0CE0101960E94BD
:10044000D60181E090E00F90DF91CF91089590E088
:1004500080E008950895FC0183818770886083831C
:1004600084818F71806284836783CF010895FC014A
:10047000848184FD19C08581811107C086818B3FED
:1004800099F481E080931E010895853219F0863237
:1004900041F008958681823F39F481E08093FE0126
:1004A00003C086818D3FC9F30895E091ED01F0917D
:1004B000EE01309721F00280F381E02D0994089538
:1004C0009C018091ED019091EE0182179307F1F06C
:1004D0009091F7019F719093F7013093EE01209373
:1004E000ED01E091ED01F091EE01309721F00190E6
:1004F000F081E02D09950E94B6016093EF017093A1
:10050000F0018093F1019093F20108958091F70139
:10051000805E8093F701E5CF0F931F930E94B60191
:100520000091EF011091F0012091F1013091F20161
:10053000601B710B820B930B2091F8012077203701
:1005400079F000E117E220E030E0061717072807EE
:10055000390758F481E291E01F910F910C946002E9
:1005600000E61AEE20E030E0F0CF1F910F910895E1
:100570008091F801982F9F70963018F0807F8093BB
:10058000F80108958091F70184608093F7018091CC
:10059000F80180788093F801E0916F01F09170018B
:1005A000309709F00994089586E191E00C94600277
:1005B00008950F931F938091FA018F3F31F082E1EC
:1005C00091E01F910F910C9460020E94B60100917E
:1005D000EF011091F0012091F1013091F201601BC7
:1005E000710B820B930B613D77408105910550F0B3
:1005F0008091F701803618F48EE091E0E2CF8AE036
:1006000091E0DFCF1F910F9108958EE091E00C945F
:10061000600290917A009F7790937A0090916000A9
:100620008F3F09F438C044E0849F90011124207268
:1006300087708860822B28E10FB6F894A8952093E4
:1006400060000FBE809360008091600080658093A1
:10065000600083B7817F846083BFF89483B7816033
:1006600083BF85B7806685BF8F7D85BF7894889569
:1006700083B78E7F83BFF894A895809160008861CE
:100680008093600090936000789480917A008068F5
:1006900080937A0008950FB6F894A8958091600031
:1006A000886180936000109260000FBED2CF8F925D
:1006B0009F92AF92BF92CF92DF92EF92FF92CF9331
:1006C000DF936B017C012FE0C20ED11CE11CF11CF9
:1006D000C1E0D0E080911B018F3F31F480E1C8166A
:1006E000D104E104F104A0F480911B018F3F19F4BF
:1006F000C12CD12C7601C701B601DF91CF91FF90BB
:10070000EF90DF90CF90BF90AF909F908F90089523
:1007100089E094E0980F4E0102C0880C991C9A95CC
:10072000E2F7B12CA12CC814D904EA04FB0438F078
:100730000E940903C818D908EA08FB08CBCF8150EA
:10074000E8CF83B78E7F83BF80911C01823010F485
:100750000E94C20180911B018F3F21F480911C01F6
:1007600080931B01089583B78E7F83BF80911D0105
:10077000823010F40E94C20180911B018F3F21F44E
:1007800080911D0180931B0108958EBD00000DB462
:1007900007FEFDCF8EB508951F93CF93DF9385EDB0
:1007A0008093BC008091760190917701A0917801AF
:1007B000B09179010796A11DB11D23E0B695A795CB
:1007C000979587952A95D1F72091BC0024FD03C009
:1007D0001092BE0152C04091760150917701609114
:1007E000780170917901452B462B472B69F30097CF
:1007F000A105B10541F02AE12A95F1F700C0019762
:10080000A109B109E1CF80917501C1E0C0937401E4
:10081000882399F1D091B8001091BA008091BC0062
:100820008A7B8093BC0060E082E10E94EE0060E081
:1008300083E10E94EE001092BE01C093C0011092AD
:10084000BF0161E082E10E94EE0061E083E10E946D
:10085000EE008091B9008E7F8093B9008091B9003D
:100860008D7F8093B90080E28093B80085E4809307
:10087000BC001093BA00D093B800DF91CF911F91C4
:100880000895E7EFF1E08081897F8E7F8083EAEF32
:10089000F1E081E08283118260E081E090E00C94DD
:1008A000DC10E7EFF1E08081877F8F7E80831092FC
:1008B000F3011092F4011092F5011092F60144E058
:1008C00050E070E060E08AEF91E00C94BC100F9370
:1008D0001F93CF93DF938C0180E06115710551F078
:1008E000EB0109900020E9F721978C2F861B8A31B4
:1008F00008F089E1F801C381C770F8E08F9FC0015B
:100900001124C82BF801C38384818F718483C69519
:10091000C695C695CA3108F0C9E1D0E0AE01C8015C
:1009200007960E947812C00FD11F1F82C801DF9165
:10093000CF911F910F910895CF93DF93FC01108207
:1009400011821282148215821682DC0117968AE1C6
:10095000ED0119928A95E9F782E08383DF91CF91C7
:100960000895BF92CF92DF92EF92FF920F931F9361
:10097000CF93DF937B01042FB22E90E59CBD1DBC6D
:100980002A98E0E1F0E03197F1F70E94C503182FB3
:10099000E7010150A8F0BB2051F08FEF0E94C50382
:1009A000182FE114F104A9F388832196F2CF6E0188
:1009B0008FEFC81AD80A88810E94C503E601E9CFE3
:1009C0002A9A80E190E00197F1F7812FDF91CF9192
:1009D0001F910F91FF90EF90DF90CF90BF900895FF
:1009E000CF93DF931F92CDB7DEB7698320E041E05C
:1009F000BE016F5F7F4F0E94B1040F90DF91CF91D6
:100A0000089529986EE080E20E94F00484E293E267
:100A10000197F1F7089529986CE080E20C94F004B6
:100A20008091F801982F9077903759F0982F9295F0
:100A30009F709F5F97709295907F8F78892B80939E
:100A4000F8018091F7018B7F8F7E8093F7010C94E2
:100A50000B056FE080E20E94F004609105016F3F9A
:100A600019F08AE20E94F004299A089521E041E0F9
:100A700070E060E00C94B10420E040E070E060E0E1
:100A80000C94B104FF920F931F93CF93DF93909137
:100A9000FA01FB0190834381C0E242FD08C0469504
:100AA000469546954A3108F049E1C7E0C40F909158
:100AB000FD01D1E090FD03C08F3F09F0D0E061154A
:100AC000710509F44CC08B01F82E299880E091E063
:100AD0000197F1F76EE080E20E94F00484EC90E070
:100AE0000197F1F76F2D8AE20E94F0046F2D80E3E9
:100AF0000E94F00481EE0E943C05DD2321F060E5B8
:100B000084E20E94F00420E04C2FB80180EA0E94A9
:100B1000B104299A10E000E08FEF0E943C05807339
:100B200039F40F3F100721F0A8950F5F1F4FF4CF46
:100B3000299860E787E20E94F004C82F84FF03C071
:100B400081EE0E943C05DD2321F06FE584E20E94E6
:100B5000F0040E942905C5FF03C0D1E001C0D0E028
:100B60008D2FDF91CF911F910F91FF9008950F93DB
:100B70001F93CF938C01FC0182819091F70190FF2C
:100B800004C08F3F51F5CFEF04C0811116C0C09152
:100B9000FB01B8018C2F0E9442059091FB019C1330
:100BA00013C09091F801811113C021E0290F2F701B
:100BB000907F922B9093F80107C08F3F21F3B801EB
:100BC0000E944205882319F3CF911F910F91089538
:100BD000907F9093F80181E0F7CF80E0F5CF2091EE
:100BE000F70122FD0C94B70580E00895FC01809187
:100BF000FA0181839481907F99609483CF010C9452
:100C0000EF051F93CF93DF93182F262FEA0150E0B3
:100C100040E0682F80E00E948C001F3F11F4CDE27D
:100C2000D1E0BE010E946704DF91CF911F910C9427
:100C3000EF052F923F924F925F926F927F928F9229
:100C40009F92AF92BF92CF92DF92EF92FF920F935B
:100C50001F93CF93DF9300D01F92CDB7DEB7809163
:100C600020018F3F09F4A6C081E00E94410988233A
:100C700009F4A0C086E0682E712C9BEF392E23E288
:100C8000E22EF12C32EF532E45E2C42ED12C5EE140
:100C9000A52EB12C6DEF462E76E2872E912C8091F9
:100CA0002001843008F09CC08230C9F1833009F4FF
:100CB00043C0813009F07CC009EE13E064E670E0C7
:100CC00080E090E00E9419092BE043E050E06FEFD4
:100CD00080E00E948C0069E371E00E9467040E943A
:100CE000EF05282E2CE043E050E06FEF80E00E94FB
:100CF0008C006BE471E00E9467040E94EF05822182
:100D00000150110921F4882309F452C002C088233C
:100D1000A9F2809120018F5F80932001C0CF7A8259
:100D200069823B824FE451E0BE016F5F7F4FCE018D
:100D300003960E949D09E7CF8091F70182FF33C09F
:100D4000FA82E9825B8248E551E0BE016F5F7F4F26
:100D5000CE0103960E949D09882351F1DA82C9824F
:100D60005B82BE016F5F7F4FCE0103960E946D09CB
:100D70008823F1F0BA82A9824B8241E651E0BE019C
:100D80006F5F7F4FCE0103960E949D09882381F0FB
:100D90009A8289824B82BE016F5F7F4FCE0103969C
:100DA0000E946D09B0CF81E00E9441098111C8CF36
:100DB0000E941C010F900F900F90DF91CF911F9117
:100DC0000F91FF90EF90DF90CF90BF90AF909F90EA
:100DD0008F907F906F905F904F903F902F900895ED
:100DE0008FEF80932001E4CF2FE043E050E06FEFDE
:100DF00080E00E948C006EE471E00E946704E7E0EE
:100E0000F2E0838187708061838384818F71806C3D
:100E1000848381E087831086CF010E94EF058FE0F5
:100E20000E94E3084EE451E061E170E08FEF0E9420
:100E3000010626E043E050E06FEF80E00E948C0066
:100E40006091FB010E942B020E94EF0586E00E9448
:100E5000E3080C9419062F923F924F925F926F9283
:100E60007F929F92BF92CF92DF92EF92FF920F9369
:100E70001F93CF93DF9386E0B82E90E0292E90E069
:100E8000392EC12CD12C24E0E22E22E0F22E00E0FB
:100E90001FEF87E10E94360580FD7EC1BA94BB201A
:100EA00009F47AC121E041E070E060E080E60E9450
:100EB000B104C82F813220F082EE0E943C05C0E0D0
:100EC00021E04C2F68E272E081E60E94B10460E408
:100ED00087E20E94F00480912B02982F9370923049
:100EE000C1F6E82FE695E695E695EA3108F0E9E1E6
:100EF00082FF52C089E1895FC813CBCF80912C0259
:100F0000D82FD770C0912D029090290220912802ED
:100F100090912A023091F80130683093F8013091B5
:100F2000FA01931310C1F0E0E85DFD4F178283FFD3
:100F300015C021E2E8E2F2E0A7E0B2E001900D92F4
:100F40002A95E1F7877E806180930B0290930802D7
:100F50009092090287E092E00E94EF0590912C02A6
:100F600094FDE9C0D33009F0E6C080912D0221EF55
:100F7000280F233008F48DCFC43009F48ACFC8314C
:100F800069F429E143E050E06FEF892D0E948C0065
:100F900061E00E942B0234C08E2FADCFC931C1F465
:100FA0008091F70183FF75CF877F8093F70192953A
:100FB0009695977080912F02913039F080E09111D1
:100FC00004C08FE292E00E94CC0F8093F90161CFC0
:100FD000CE3109F45ECFCD31B1F42FE143E050E0E2
:100FE0006FEF80E00E948C00FC018381877080613C
:100FF000838384818F718064848310870783CF010A
:101000000E94B70546CF20912902211199C08D3049
:1010100059F488E198E00FB6F894A89580936000A1
:101020000FBE90936000FFCF8B3109F432CF863032
:1010300099F490912F0281E0992319F09D3409F0E1
:1010400080E08093710141E050E063E071E081E76E
:1010500091E00E94CC101DCF833119F40E94F40658
:1010600018CF823151F50E94B6014090EF015090A7
:10107000F0016090F1017090F2019B01AC01241924
:1010800035094609570929013A0126E143E050E0B4
:101090006FEF80E00E948C00FC018381877080628A
:1010A000838384818F71806A8483478250866186BE
:1010B0007286CF010E94EF05ECCE8230A9F422E0C7
:1010C00043E050E06FEF80E00E948C00FC018381E0
:1010D00087708062838384818F71806A8483C782F2
:1010E000D086E186F286E5CF8130F9F4211431040F
:1010F00009F4CFCE929596959770953059F46091FA
:101100002F027091300280913102909132020E9440
:101110000000BFCE911105C08FE292E00E94EA0F5D
:10112000F6CF60E070E0CB01F2CF8A3009F4B1CEA7
:101130008C3109F4AECE88E292E00E943702A9CE4B
:101140008A31C9F7A6CE9F3F09F0A3CED330F9F478
:101150008091F70182FF03C0C73009F49ACEC431F1
:1011600009F097CE8091FB01281393CE0E94B6011F
:101170007370882799270E94830125E143E050E09E
:101180006FEF892D0E948C006091FB0102CF80914E
:10119000FB0128137ECECFCFDF91CF911F910F910E
:1011A000FF90EF90DF90CF90BF909F907F906F90D7
:1011B0005F904F903F902F9008958091F70184FDAC
:1011C0000C942B070895CF92DF92EF92FF92CF936A
:1011D000DF93D82F0E94B6016B017C0180912C0215
:1011E000876080932C02C0E00E94B6016C197D09D3
:1011F0008E099F09603D77408105910590F4C111EA
:1012000010C0A8950E9455020E94DD0880912C0212
:101210008770833049F7C1E080912D028D13E3CFB1
:10122000E3CF8C2FDF91CF91FF90EF90DF90CF90A5
:1012300008958F929F92AF92BF92CF92DF92EF92DA
:10124000FF924B015C010E94B6016B017C010E9480
:10125000B6016C197D098E099F09681579058A0503
:101260009B0530F4A8950E9455020E94DD08EFCF3F
:10127000FF90EF90DF90CF90BF90AF909F908F90B6
:101280000895CF93C82F809105020E94C500892B35
:1012900091F461E0809105020E94EE00CC2359F0A8
:1012A0008091F70182FD07C064EF71E080E090E07B
:1012B0000E941909F3CF8091000281110AC0809128
:1012C000F70182FB882780F9C11101C081E080937A
:1012D000000280910002CF910895CF92DF92EF92A9
:1012E000FF920F931F93CF93DF937C016B01C9EEA5
:1012F000D3E0F6010081F701108164E670E080E040
:1013000090E00E941909202F42E050E0612F80E018
:101310000E948C006EE471E00E9467040E94EF0559
:10132000219711F0882329F3DF91CF911F910F911D
:10133000FF90EF90DF90CF9008958F929F92AF92A1
:10134000BF92CF92DF92EF92FF921F93CF93DF93E2
:101350006C015B017A01C9EED3E0F50180809180D8
:10136000F601108164E670E080E090E00E941909C7
:10137000A701B401812F0E940106219711F0882353
:1013800061F3DF91CF911F91FF90EF90DF90CF90AD
:10139000BF90AF909F908F9008958F929F92AF9241
:1013A000BF92CF92DF92EF92FF921F93CF93DF9382
:1013B000CDB7DEB7A1970FB6F894DEBF0FBECDBF95
:1013C000809120018F3F09F48AC00E941906809104
:1013D00020018F3FE1F08091F70182FF44C00E941D
:1013E0000B0560E4C62E6EE7D62E65E0E62EF12CE6
:1013F000C701B6010E94570380911B018F3F11F076
:1014000080911B018FEF80931B010E940105809149
:10141000F70182FD31C20E94B6016B017C0180E0C0
:1014200090E0DC012091F70122FDD9C180382EEE39
:10143000920726E3A207B10508F00CC2803127E22B
:101440009207A105B10508F0D1C1A8950E945502E7
:101450000E94DD080E94B601DC01CB018C199D09B8
:10146000AE09BF09DFCF0E94B6016B017C0180E0AD
:1014700090E0DC012091F70122FD1BC080342EE7B3
:10148000920725E0A207B10530F6803127E29207E6
:10149000A105B105B0F4A8950E9455020E94DD088F
:1014A0000E94B601DC01CB018C199D09AE09BF0970
:1014B000E1CF80342EE7920725E0A207B10508F0BE
:1014C000DBC150E4C52E5EE7D52E55E0E52EF12CAC
:1014D000C81AD90AEA0AFB0A0E940B0589CF1092A2
:1014E000FE018091F70182FF14C180917A0080682B
:1014F00080937A0062E070E080E090E00E948301D7
:101500008EE480937C0062E070E080E090E00E94D6
:10151000830180917A00806480937A0080917A00C0
:1015200086FDFCCF809178002091790030E0322F49
:101530002227032E000C440B550B282B64EB7BE277
:1015400081E190E00E94EE10CA01B9010E943010C2
:1015500020E030E04AE754E40E94B6114B015C0100
:10156000CE0101960E949C048DEF8F8386E28E83CC
:101570008C81877088628C838D81806E8D83888654
:101580009986AA86BB8682E08C87CE0101960E944E
:10159000F60564E670E080E090E00E94190920E022
:1015A00043E050E06FEF80E00E948C007C01C501B9
:1015B000B4010E9428129B01AC012150310941095C
:1015C0005109A4E6B0E00E940D1122E030E040E0B5
:1015D00050E00E94EE10622FC7010E942B020E9471
:1015E000EF0581E080931A01F12CD12CC12C10E081
:1015F00060E0809104020E94EE0061E080910302AD
:101600000E94EE0061E070E080E090E00E94190925
:1016100060E0809103020E94EE0061E0809104028C
:101620000E94EE00809106028E3008F08E502091CC
:101630001A0190E4299F900111248770822B8093D6
:101640007C0080917A00806480937A0080917A0097
:1016500086FDFCCF9091780080917900153030F0B4
:10166000892798278927C80ED91EF39461E070E076
:1016700080E090E00E9419091F5F1A3009F0B8CF8E
:1016800060E0809103020E94EE0060E0809104021D
:101690000E94EE006F2D70E0C6010E945E127B0179
:1016A000809101029091020286179707B9F1709319
:1016B00002026093010281E08093FF01CE01019656
:1016C0000E949C0482EF8F8385E28E838C818770D9
:1016D00080618C838D818F7180668D8320E034E002
:1016E0002E193F09A4E6B0E00E943A113AE0959520
:1016F0008795779567953A95D1F779876887CE0171
:1017000001960E94F60580917A008F7780937A0087
:1017100005C081E00E9441098111E7CE8091FF015F
:10172000882309F459C01092FF0181E080931E01C3
:1017300088EC80937C0080917A00806880937A00A6
:1017400064E170E080E090E00E94830180917A0083
:10175000806480937A0080917A0086FDFCCF60914E
:1017600078007091790090E080E00E942E102EEABF
:1017700037E242EA53E40E94491126EF38E24CE98D
:101780005FE30E94B6110E942812613801F1809136
:101790001F018617E1F060931F01CE0101960E94A0
:1017A0009C048BEF8F831E8220911F01022E000C60
:1017B000330B8C81877080618C838D818F71806405
:1017C0008D8339872887CE0101960E94F605809186
:1017D0001E01811110921E010E941C0118CE80383A
:1017E0002EEE920726E3A207B105A0F520E8C22E4F
:1017F0002EEED22E26E3E22EF12CC81AD90AEA0ADE
:10180000FB0A0E940B05F89481E080931D018FEF85
:1018100080931C0182E08CBB83EB93E090932801C2
:1018200080932701809169008C6080936900E99A18
:10183000C701B6010E94570381E00E94C201809156
:101840001B018F3F11F080911B018FEF80931B01D3
:101850000E940105A1960FB6F894DEBF0FBECDBF62
:10186000DF91CF911F91FF90EF90DF90CF90BF90CD
:10187000AF909F908F90089580E8C82E8EEED82E5E
:1018800086E3E82EF12CBDCFCF93DF9361E08DE0AE
:101890000E942D0183E080931A01CEEFD1E061E038
:1018A0008D810E942D0160E08D810E94EE002196C5
:1018B00082E0C130D80799F762E083E00E942D01F1
:1018C00080E00E94410981110FC061E08DE00E941B
:1018D000EE0068EE73E080E090E00E94190960E09D
:1018E0008DE00E94EE00F1CFDF91CF9108958091BD
:1018F000720181FD08C00E94F4068091720181602E
:1019000082608093720108958091FA018F3F69F49B
:1019100023E043E050E06FEF80E00E948C006EE433
:1019200071E00E9467040C94B7050895CF93219A43
:10193000229A29982A9ACFB7F89480916E01811142
:1019400027C0E0E9F0E08491E4EAF0E09491E82F28
:10195000F0E0EE0FFF1FE859FF4FA591B491EC9115
:10196000E92321F461E08AE00E94EE0061E08AE070
:101970000E942D018CB580618CBD8CB580648CBDBE
:1019800061E08DE00E942D0161E08BE00E942D015D
:1019900080916E018F5F80936E01CFBF0E94010521
:1019A00063E083E20E94F0046FE584E20E94F004A9
:1019B0006CE485E20E94F00465E286E20E94F00495
:1019C00064E08DE30E94F0048DE10E9436058430CE
:1019D00041F063E780E50E94F00464E08DE30E943B
:1019E000F00486E00E943605853209F04DC085E09E
:1019F0000E9436058C3409F047C062E082E20E9402
:101A0000F00460E081E20E94F00463E08CE30E9455
:101A1000F0048FEF8093000120E045E060E071E08A
:101A20008BE20E94B10420E045E060E071E08AE2D0
:101A30000E94B10420E045E060E071E080E30E9494
:101A4000B10482EE0E943C0581EE0E943C0560E7F5
:101A500087E20E94F0048091F70180618093F70192
:101A60008091FD0181608093FD0187E18093FA01FF
:101A700067E190E080E00E94DC10C091FA01CF3F66
:101A800041F486E091E002C08AE091E0CF910C94AD
:101A900060028FEF8C0F8E3FB8F7C093050163E0B3
:101AA00082E20E94F00461E081E20E94F0040E9460
:101AB00029056C2F90E080E00E94DC10E2CF1F929D
:101AC0000F920FB60F9211242F933F938F939F93F2
:101AD000AF93BF938091E5019091E601A091E7015A
:101AE000B091E8013091E40126E0230F2D3758F53D
:101AF0000296A11DB11D2093E4018093E50190930E
:101B0000E601A093E701B093E8018091E90190918B
:101B1000EA01A091EB01B091EC010196A11DB11D6C
:101B20008093E9019093EA01A093EB01B093EC015B
:101B3000BF91AF919F918F913F912F910F900FBEC9
:101B40000F901F90189529E8230F0396A11DB11D32
:101B5000D2CF1F920F920FB60F9211242F933F9363
:101B60004F935F936F937F938F939F93AF93BF93A5
:101B7000EF93FF93E0912701F09128010995FF91E0
:101B8000EF91BF91AF919F918F917F916F915F91F5
:101B90004F913F912F910F900FBE0F901F9018956E
:101BA0001F920F920FB60F9211242F933F934F93D2
:101BB0005F936F937F938F939F93AF93BF93EF93B5
:101BC000FF93E0912501F09126010995FF91EF9196
:101BD000BF91AF919F918F917F916F915F914F9145
:101BE0003F912F910F900FBE0F901F9018951F924D
:101BF0000F920FB60F9211242F933F934F935F9341
:101C00006F937F938F939F93AF93BF93EF93FF93C4
:101C10008091B900887F803609F44AC0F0F5883297
:101C200009F4A5C018F5803109F499C0B8F48823E7
:101C300009F4F5C0883009F492C0FF91EF91BF918B
:101C4000AF919F918F917F916F915F914F913F9154
:101C50002F910F900FBE0F901F901895883109F4A7
:101C600086C0803251F78093BD0114C0803409F4DE
:101C70009BC040F48033B9F38833F9F68093BD01FB
:101C800085ECAEC0803509F483C0883509F494C072
:101C9000883499F60E94CC03D0CF883909F48AC0E1
:101CA00038F5883729F050F4883611F0803729F656
:101CB00083E08093BE011092BC0155C0883809F4BE
:101CC00079C0803919F0803809F0B7CF8091BC0114
:101CD000803208F06FC0E091BC0181E08E0F8093EC
:101CE000BC018091BB00F0E0E456FE4F80833BC016
:101CF000803B39F0D0F4803A09F477C0883A09F093
:101D00009CCF84E08093BE0110929B0110929A01B7
:101D1000F0E0E0E0099580919A0181110FC081E027
:101D200080939A0110927A0109C0803C09F4A8CFEF
:101D3000883C09F4A5CF883B09F07FCFE0919B0157
:101D400081E08E0F80939B01F0E0E658FE4F80818A
:101D50008093BB0090919B0180919A0129C0809152
:101D6000E3018093BB0085EC8093BC0066CF90912B
:101D7000E2018091E101981758F5E091E20181E0DC
:101D80008E0F8093E201F0E0EF53FE4F8081E9CFA8
:101D9000E091E20181E08E0F8093E2018091BB002F
:101DA000F0E0EF53FE4F80839091E2018091E101DA
:101DB0009817C8F285E8D8CFE091E20181E08E0F54
:101DC0008093E2018091BB00F0E0EF53FE4F8083EF
:101DD0008091C00181115ECF81E08093BF0184EAD0
:101DE0008093BC001092BE0128CF85EC8093BC008C
:101DF0001092BE018091BC01803230F4E091BC01B0
:101E0000F0E0E456FE4F10826091BC0170E08CE976
:101E100091E0F0E0E0E009951092BC010ECF109245
:101E2000BD0138CF1F920F920FB60F9211240F9061
:101E30000FBE0F901F90189588E292E00E949C04BC
:101E400087E092E00E949C04EEEFF1E081E0808365
:101E500011821282148213828091290190912A01A9
:101E6000A0912B01B0912C0185839683A783B08725
:101E70000895789484B5826084BD84B5816084BD02
:101E800085B5826085BD85B5816085BD80916E0018
:101E9000816080936E001092810080918100826049
:101EA0008093810080918100816080938100809186
:101EB00080008160809380008091B1008460809375
:101EC000B1008091B00081608093B00080917A0071
:101ED000846080937A0080917A00826080937A0097
:101EE00080917A008E7F80937A0080917A0080685A
:101EF00080937A001092C100A89580E090E0892B31
:101F000011F00E940000809172018D7F8093720118
:101F10000E94440C41E050E063E071E081E791E011
:101F20000E94BC1060E081E090E00E94DC10809193
:101F3000F8018F788093F8011092EE011092ED0174
:101F400081E291E00E94600287E79CE0909370013B
:101F500080936F010E94B6010E94B6010E94550253
:101F60000E94DD088091F70182FB882780F9A895FF
:101F7000882391F3A895C0E0D0E0A8950E9455026F
:101F80008091F70184FD0E942B070E94CD092097C4
:101F9000A1F30E940000F1CFFC0188279927E89463
:101FA00021912032E9F3293010F02E30C8F32B3282
:101FB00041F02D3239F4689404C00E942610820F3B
:101FC000911D219120532A30C0F31EF490958195E4
:101FD0009F4F08951F93FC0199278827BC01E8941F
:101FE00011911032E9F3193010F01E30C8F31B3292
:101FF00051F01D3249F4689406C00E941110610F1F
:10200000711D811D911D119110531A30B0F33EF4D2
:1020100090958095709561957F4F8F4F9F4F1F9141
:102020000895592F482F372F262F660F771F881FA7
:10203000991F660F771F881F991F620F731F841FD8
:10204000951F660F771F881F991F08957AE0979F45
:10205000902D879F802D910D11240895E89409C03B
:1020600097FB3EF490958095709561957F4F8F4FCB
:102070009F4F9923A9F0F92F96E9BB279395F695E1
:10208000879577956795B795F111F8CFFAF4BB0F5F
:1020900011F460FF1BC06F5F7F4F8F4F9F4F16C0C3
:1020A000882311F096E911C0772321F09EE8872F4D
:1020B000762F05C0662371F096E8862F70E060E009
:1020C0002AF09A95660F771F881FDAF7880F969582
:1020D000879597F9089597F99F6780E870E060E029
:1020E00008959FEF80EC089500240A9416161706B1
:1020F00018060906089500240A94121613061406F9
:1021000005060895092E0394000C11F4882352F05B
:10211000BB0F40F4BF2B11F460FF04C06F5F7F4F13
:102120008F4F9F4F089557FD9058440F551F59F0FA
:102130005F3F71F04795880F97FB991F61F09F3FB4
:1021400079F087950895121613061406551FF2CFDD
:102150004695F1DF08C0161617061806991FF1CF2D
:1021600086957105610508940895E894BB27662754
:102170007727CB0197F90895DC01CB01FC01F99990
:10218000FECF06C0F2BDE1BDF89A319600B40D92C3
:1021900041505040B8F70895DC01A40FB51F4150DD
:1021A000504048F0CB01840F951F2E910E94DD1006
:1021B00041505040D0F70895262FF999FECF92BD97
:1021C00081BDF89A019700B4021639F01FBA20BDFC
:1021D0000FB6F894FA9AF99A0FBE0895052E97FB58
:1021E0001EF400940E94051157FD07D00E9418119B
:1021F00007FC03D04EF40C94051150954095309592
:1022000021953F4F4F4F5F4F089590958095709562
:1022100061957F4F8F4F9F4F08950E943A11A59F60
:10222000900DB49F900DA49F800D911D11240895D1
:10223000A1E21A2EAA1BBB1BFD010DC0AA1FBB1FCA
:10224000EE1FFF1FA217B307E407F50720F0A21B3C
:10225000B30BE40BF50B661F771F881F991F1A94A9
:1022600069F760957095809590959B01AC01BD01D3
:10227000CF010895A29FB001B39FC001A39F700D2D
:10228000811D1124911DB29F700D811D1124911D7E
:1022900008955058BB27AA270E9461110C94821000
:1022A0000E94741038F00E947B1020F039F49F3F98
:1022B00019F426F40C9471100EF4E095E7FB0C94DD
:1022C0006B10E92F0E94931058F3BA176207730737
:1022D0008407950720F079F4A6F50C94B5100EF458
:1022E000E0950B2EBA2FA02D0B01B90190010C0126
:1022F000CA01A0011124FF27591B99F0593F50F43E
:10230000503E68F11A16F040A22F232F342F442795
:10231000585FF3CF469537952795A795F04053958D
:10232000C9F77EF41F16BA0B620B730B840BBAF05D
:102330009150A1F0FF0FBB1F661F771F881FC2F7C8
:102340000EC0BA0F621F731F841F48F487957795DC
:102350006795B795F7959E3F08F0B0CF9395880F96
:1023600008F09927EE0F9795879508950E94CA1156
:102370000C9482100E947B1058F00E94741040F060
:1023800029F45F3F29F00C946B1051110C94B61096
:102390000C9471100E94931068F39923B1F35523A4
:1023A00091F3951B550BBB27AA2762177307840768
:1023B00038F09F5F5F4F220F331F441FAA1FA9F3FE
:1023C00035D00E2E3AF0E0E832D091505040E695EC
:1023D000001CCAF72BD0FE2F29D0660F771F881F4D
:1023E000BB1F261737074807AB07B0E809F0BB0B40
:1023F000802DBF01FF2793585F4F3AF09E3F510554
:1024000078F00C946B100C94B6105F3FE4F3983E98
:10241000D4F3869577956795B795F7959F5FC9F73C
:10242000880F911D9695879597F90895E1E0660FBD
:10243000771F881FBB1F621773078407BA0720F036
:10244000621B730B840BBA0BEE1F88F7E09508959F
:102450000E942F126894B1110C94B61008950E9436
:102460009B1088F09F5798F0B92F9927B751B0F07B
:10247000E1F0660F771F881F991F1AF0BA95C9F708
:1024800014C0B13091F00E94B510B1E008950C94E1
:10249000B510672F782F8827B85F39F0B93FCCF394
:1024A000869577956795B395D9F73EF49095809585
:1024B000709561957F4F8F4F9F4F0895AA1BBB1B4F
:1024C00051E107C0AA1FBB1FA617B70710F0A61B34
:1024D000B70B881F991F5A95A9F780959095BC0155
:1024E000CD010895EE0FFF1F0590F491E02D0994A2
:1024F000FB01DC014150504048F001900D9200205A
:10250000C9F701C01D9241505040E0F70895F8947A
:02251000FFCFFB
:1025120000FCE1A8A8FF4104050310058C02840C0D
:10252200D902D802D402C202B80201FFFFFF0100A1
:10253200015104960CD501D5011110080F322E3429
:102542002E302D616C70686100556E69742D4D6F6F
:102552006973747572654E6F646500312E3500497A
:102562006E742E54656D7000496E742E536F696CD3
:0E25720000496E742E4261742E566F6C740018
:00000001FF
