:100000000C9462000C94370E0C94100E0C948A0021
:100010000C948A000C948A000C94790F0C948A003A
:100020000C948A000C948A000C948A000C948A0028
:100030000C948A000C948A000C948A000C948A0018
:100040000C94C60D0C948A000C948A000C948A00BF
:100050000C948A000C948A000C948A000C948A00F8
:100060000C945E0E0C948A0000000000240027000F
:100070002A0000000000250028002B0000000000DE
:1000800023002600290004040404040404040202DA
:100090000202020203030303030301020408102007
:1000A0004080010204081020010204081020000012
:1000B0000008000201000003040700000000000027
:1000C0000000830F11241FBECFEFD8E0DEBFCDBFED
:1000D00011E0A0E0B1E0EAEDF6E202C005900D9279
:1000E000A837B107D9F722E0A8E7B1E001C01D9217
:1000F000A335B207E1F710E0C2E6D0E004C02197D3
:10010000FE010E945613C136D107C9F70E94A00F05
:100110000C946B130C940000942FE1E1F2E0309109
:10012000040231838283668325834481487F492B7F
:10013000477E4483CF010895833081F028F48130D5
:1001400099F08230A9F008958730A9F08830C9F07D
:100150008430B1F4809180008F7D03C08091800055
:100160008F7780938000089584B58F7784BD08953C
:1001700084B58F7DFBCF8091B0008F778093B000E6
:1001800008958091B0008F7DF9CFCF93DF93282F12
:1001900030E0F901E255FF4F8491F901E656FF4F37
:1001A000D491F901EA57FF4FC491CC23A1F08111FA
:1001B0000E949C00EC2FF0E0EE0FFF1FE458FF4F71
:1001C000A591B491EC91ED2381E090E009F480E0F9
:1001D000DF91CF91089580E090E0FACF1F93CF9305
:1001E000DF93282F30E0F901E255FF4F8491F901A8
:1001F000E656FF4FD491F901EA57FF4FC491CC2343
:10020000A9F0162F81110E949C00EC2FF0E0EE0F58
:10021000FF1FEE58FF4FA591B4918FB7F894EC9162
:10022000111108C0D095DE23DC938FBFDF91CF91F1
:100230001F910895DE2BF8CF80910F020E94C50018
:10024000019729F460E080910F020E94EE008091F6
:100250000A02811110920A020895CF93DF9390E071
:10026000FC01E656FF4F24918A579F4FFC01849171
:100270008823D1F090E0880F991FFC01E859FF4FC7
:10028000A591B491FC01EE58FF4FC591D491623015
:1002900071F49FB7F8943C91822F809583238C93BF
:1002A000E8812E2B28839FBFDF91CF9108958FB7D0
:1002B000F894EC912E2B2C938FBFF6CF3FB7F89488
:1002C0008091F3019091F401A091F501B091F601B4
:1002D00026B5A89B05C02F3F19F00196A11DB11DA1
:1002E0003FBFBA2FA92F982F8827BC01CD01620FDD
:1002F000711D811D911D43E0660F771F881F991F97
:100300004A95D1F708958F929F92AF92BF92CF9264
:10031000DF92EF92FF926B017C010E945E014B0124
:100320005C01C114D104E104F104B9F00E945E0142
:10033000681979098A099B09683E7340810591050E
:1003400080F321E0C21AD108E108F10888EE880E96
:1003500083E0981EA11CB11CE4CFFF90EF90DF90CA
:10036000CF90BF90AF909F908F9008952FB7F89443
:100370006091EF017091F0018091F1019091F20193
:100380002FBF0895E82FF0E0882359F0813059F00D
:10039000EE0FFF1FEB5DFE4F85ED91E091838083B3
:1003A0000895E898F5CFE998F3CF08952091A40136
:1003B000260F3327331F21323105ECF42091C80179
:1003C000FC0190E080E0243069F082E00895A09183
:1003D000A4012191AC014C575E4FA40FB52FB11D64
:1003E0002C930196861798F38091A401680F60936F
:1003F000A40180E0089581E0089508958FEF9FEFB4
:1004000008958FEF9FEF089580917D0190E0919581
:10041000819591090895CF93DF93CB01EA01642F71
:100420000E94D601CE01DF91CF910895CF93DF9343
:100430001F92CDB7DEB7698361E0CE0101960E94BD
:10044000D60181E090E00F90DF91CF91089590E088
:1004500080E008950895FC0183818770886083831C
:1004600084818F71806284836783CF010895FC014A
:10047000848184FD19C08581811107C086818B3FED
:1004800099F481E080931E010895853219F0863237
:1004900041F008958681823F39F481E0809308021B
:1004A00003C086818D3FC9F30895E091F701F09173
:1004B000F801309721F00280F381E02D099408952E
:1004C0009C018091F7019091F80182179307F1F058
:1004D000909101029F71909301023093F801209353
:1004E000F701E091F701F091F801309721F00190C8
:1004F000F081E02D09950E94B6016093F901709397
:10050000FA018093FB019093FC0108958091010210
:10051000805E80930102E5CF0F931F930E94B60186
:100520000091F9011091FA012091FB013091FC0139
:10053000601B710B820B930B2091020220772037F6
:1005400079F000E117E220E030E0061717072807EE
:10055000390758F481E291E01F910F910C946002E9
:1005600000E61AEE20E030E0F0CF1F910F910895E1
:1005700080910202982F9F70963018F0807F8093B0
:1005800002020895809101028460809301028091AB
:100590000202807880930202E0917901F0917A0161
:1005A000309709F00994089586E191E00C94600277
:1005B00008950F931F93809104028F3F31F082E1E1
:1005C00091E01F910F910C9460020E94B60100917E
:1005D000F9011091FA012091FB013091FC01601B9F
:1005E000710B820B930B613D77408105910550F0B3
:1005F00080910102803618F48EE091E0E2CF8AE02B
:1006000091E0DFCF1F910F9108958EE091E00C945F
:10061000600290917A009F7790937A0090916000A9
:100620008F3F09F438C044E0849F90011124207268
:1006300087708860822B28E10FB6F894A8952093E4
:1006400060000FBE809360008091600080658093A1
:10065000600083B7817F846083BFF89483B7816033
:1006600083BF85B7806685BF8F7D85BF7894889569
:1006700083B78E7F83BFF894A895809160008861CE
:100680008093600090936000789480917A008068F5
:1006900080937A0008950FB6F894A8958091600031
:1006A000886180936000109260000FBED2CF8F925D
:1006B0009F92AF92BF92CF92DF92EF92FF92CF9331
:1006C000DF936B017C012FE0C20ED11CE11CF11CF9
:1006D000C1E0D0E080911B018F3F31F480E1C8166A
:1006E000D104E104F104A0F480911B018F3F19F4BF
:1006F000C12CD12C7601C701B601DF91CF91FF90BB
:10070000EF90DF90CF90BF90AF909F908F90089523
:1007100089E094E0980F4E0102C0880C991C9A95CC
:10072000E2F7B12CA12CC814D904EA04FB0438F078
:100730000E940903C818D908EA08FB08CBCF8150EA
:10074000E8CF83B78E7F83BF80911C01823010F485
:100750000E94C20180911B018F3F21F480911C01F6
:1007600080931B01089583B78E7F83BF80911D0105
:10077000823010F40E94C20180911B018F3F21F44E
:1007800080911D0180931B0108958EBD00000DB462
:1007900007FEFDCF8EB508951F93CF93DF9385EDB0
:1007A0008093BC008091800190918101A091820191
:1007B000B09183010796A11DB11D23E0B695A795C1
:1007C000979587952A95D1F72091BC0024FD03C009
:1007D0001092C80152C040918001509181016091F6
:1007E000820170918301452B462B472B69F30097BB
:1007F000A105B10541F02AE12A95F1F700C0019762
:10080000A109B109E1CF80917F01C1E0C0937E01D0
:10081000882399F1D091B8001091BA008091BC0062
:100820008A7B8093BC0060E082E10E94EE0060E081
:1008300083E10E94EE001092C801C093CA01109299
:10084000C90161E082E10E94EE0061E083E10E9463
:10085000EE008091B9008E7F8093B9008091B9003D
:100860008D7F8093B90080E28093B80085E4809307
:10087000BC001093BA00D093B800DF91CF911F91C4
:100880000895E1E0F2E08081897F8E7F8083E4E05B
:10089000F2E081E08283118260E081E090E00C94DC
:1008A000B011E1E0F2E08081877F8F7E808310923B
:1008B000FD011092FE011092FF011092000244E02F
:1008C00050E070E060E084E092E00C9490110F93AF
:1008D0001F93CF93DF938C0180E06115710551F078
:1008E000EB0109900020E9F721978C2F861B8A31B4
:1008F00008F089E1F801C381C770F8E08F9FC0015B
:100900001124C82BF801C38384818F718483C69519
:10091000C695C695CA3108F0C9E1D0E0AE01C8015C
:1009200007960E945C13C00FD11F1F82C801DF9180
:10093000CF911F910F910895CF93DF93FC01108207
:1009400011821282148215821682DC0117968AE1C6
:10095000ED0119928A95E9F782E08383DF91CF91C7
:100960000895BF92CF92DF92EF92FF920F931F9361
:10097000CF93DF937B01042FB22E90E59CBD1DBC6D
:100980002A98E0E1F0E03197F1F70E94C503182FB3
:10099000E7010150A8F0BB2051F08FEF0E94C50382
:1009A000182FE114F104A9F388832196F2CF6E0188
:1009B0008FEFC81AD80A88810E94C503E601E9CFE3
:1009C0002A9A80E190E00197F1F7812FDF91CF9192
:1009D0001F910F91FF90EF90DF90CF90BF900895FF
:1009E000CF93DF931F92CDB7DEB7698320E041E05C
:1009F000BE016F5F7F4F0E94B1040F90DF91CF91D6
:100A0000089529986EE080E20E94F00484E293E267
:100A10000197F1F7089529986CE080E20C94F004B6
:100A200080910202982F9077903759F0982F9295E5
:100A30009F709F5F97709295907F8F78892B80939E
:100A40000202809101028B7F8F7E809301020C94C1
:100A50000B056FE080E20E94F004609105016F3F9A
:100A600019F08AE20E94F004299A089521E041E0F9
:100A700070E060E00C94B10420E040E070E060E0E1
:100A80000C94B104FF920F931F93CF93DF93909137
:100A90000402FB0190834381C0E242FD08C04695F9
:100AA000469546954A3108F049E1C7E0C40F909158
:100AB0000702D1E090FD03C08F3F09F0D0E061153F
:100AC000710509F44CC08B01F82E299880E091E063
:100AD0000197F1F76EE080E20E94F00484EC90E070
:100AE0000197F1F76F2D8AE20E94F0046F2D80E3E9
:100AF0000E94F00481EE0E943C05DD2321F060E5B8
:100B000084E20E94F00420E04C2FB80180EA0E94A9
:100B1000B104299A10E000E08FEF0E943C05807339
:100B200039F40F3F100721F0A8950F5F1F4FF4CF46
:100B3000299860E787E20E94F004C82F84FF03C071
:100B400081EE0E943C05DD2321F06FE584E20E94E6
:100B5000F0040E942905C5FF03C0D1E001C0D0E028
:100B60008D2FDF91CF911F910F91FF9008950F93DB
:100B70001F93CF938C01FC0182819091010290FF21
:100B800004C08F3F51F5CFEF04C0811116C0C09152
:100B90000502B8018C2F0E944205909105029C131A
:100BA00013C090910202811113C021E0290F2F7010
:100BB000907F922B9093020207C08F3F21F3B801E0
:100BC0000E944205882319F3CF911F910F91089538
:100BD000907F9093020281E0F7CF80E0F5CF2091E3
:100BE000010222FD0C94B70580E00895FC0180917C
:100BF000040281839481907F99609483CF010C9447
:100C0000EF051F93CF93DF93182F262FEA0150E0B3
:100C100040E0682F80E00E948C001F3F11F4CDE27D
:100C2000D1E0BE010E946704DF91CF911F910C9427
:100C3000EF052F923F924F925F926F927F928F9229
:100C40009F92AF92BF92CF92DF92EF92FF920F935B
:100C50001F93CF93DF9300D01F92CDB7DEB7809163
:100C600020018F3F09F4C7C081E00E9462098823F8
:100C700009F4C1C083E2482E512C95E2692E712CF3
:100C800024E2E22EF12C3FE2C32ED12C4EE1A42E21
:100C9000B12C5DEF252E66E2862E912C80912001ED
:100CA000843008F0BEC08230C9F1833009F446C0F8
:100CB000813009F09EC009EE13E064E670E080E048
:100CC00090E00E943A092BE043E050E06FEF80E0B3
:100CD0000E948C0069E371E00E9467040E94EF05A6
:100CE000382E2CE043E050E06FEF80E00E948C0053
:100CF0006BE471E00E9467040E94EF0583210150BC
:100D0000110921F4882309F474C002C08823A9F2D0
:100D1000809120018F5F80932001C0CF86E090E01A
:100D20009A8389839BEF9B834FE451E0BE016F5F01
:100D30007F4FCE0103960E94BE09E4CF809101024D
:100D400082FF52C05A82498282EF8B8348E551E08C
:100D5000BE016F5F7F4FCE0103960E94BE098823BC
:100D600009F447C07A82698292EF9B83BE016F5F6C
:100D70007F4FCE0103960E948E098823D1F1FA821B
:100D8000E98281EF8B8341E651E0BE016F5F7F4FC7
:100D9000CE0103960E94BE09882359F1DA82C982E6
:100DA00091EF9B83BE016F5F7F4FCE0103960E9440
:100DB0008E098823F1F0BA82A9822B824BE651E09A
:100DC000BE016F5F7F4FCE0103960E94BE0988234C
:100DD00081F09A8289822B82BE016F5F7F4FCE01A4
:100DE00003960E948E098ECF81E00E9462098111D4
:100DF000A9CF0E941C010F900F900F90DF91CF910F
:100E00001F910F91FF90EF90DF90CF90BF90AF9028
:100E10009F908F907F906F905F904F903F902F901A
:100E200008958FEF80932001E4CF2FE043E050E05E
:100E30006FEF80E00E948C006EE471E00E94670416
:100E4000E1E1F2E0838187708061838384818F7127
:100E5000806C848381E087831086CF010E94EF0538
:100E60008FE00E9404094EE451E061E170E08FEFF1
:100E70000E94010626E043E050E06FEF80E00E9410
:100E80008C00609105020E942B020E94EF0586E013
:100E90000E9404090C9419062F923F924F925F9280
:100EA0006F927F929F92BF92CF92DF92EF92FF92CA
:100EB0000F931F93CF93DF9386E0B82E90E0292EF7
:100EC00090E0392EC12CD12C24E0E22E22E0F22E2B
:100ED00000E01FEF87E10E94360580FD7EC1BA94D5
:100EE000BB2009F47AC121E041E070E060E080E6D7
:100EF0000E94B104C82F813220F082EE0E943C058E
:100F0000C0E021E04C2F62E372E081E60E94B10470
:100F100060E487E20E94F00480913502982F93707C
:100F20009230C1F6E82FE695E695E695EA3108F0AD
:100F3000E9E182FF52C089E1895FC813CBCF80917C
:100F40003602D82FD770C09137029090330220918B
:100F500032029091340230910202306830930202E2
:100F600030910402931310C1F0E0EE5CFD4F178244
:100F700083FF15C021E2E2E3F2E0A1E1B2E00190DB
:100F80000D922A95E1F7877E8061809315029093F8
:100F900012029092130281E192E00E94EF0590917B
:100FA000360294FDE9C0D33009F0E6C080913702E3
:100FB00021EF280F233008F48DCFC43009F48ACFF5
:100FC000C83169F429E143E050E06FEF892D0E94B8
:100FD0008C0061E00E942B0234C08E2FADCFC9314E
:100FE000C1F48091010283FF75CF877F8093010256
:100FF00092959695977080913902913039F080E002
:10100000911104C089E392E00E943310809303029F
:1010100061CFCE3109F45ECFCD31B1F42FE143E0A1
:1010200050E06FEF80E00E948C00FC0183818770AC
:101030008061838384818F718064848310870783B8
:10104000CF010E94B70546CF20913302211199C0EC
:101050008D3059F488E198E00FB6F894A895809304
:1010600060000FBE90936000FFCF8B3109F432CF48
:10107000863099F49091390281E0992319F09D34DA
:1010800009F080E080937B0141E050E063E071E093
:101090008BE791E00E94A0111DCF833119F40E94CB
:1010A000150718CF823151F50E94B6014090F90121
:1010B0005090FA016090FB017090FC019B01AC0123
:1010C000241935094609570929013A0126E143E067
:1010D00050E06FEF80E00E948C00FC0183818770FC
:1010E0008062838384818F71806A84834782508683
:1010F00061867286CF010E94EF05ECCE8230A9F4A2
:1011000022E043E050E06FEF80E00E948C00FC01A1
:10111000838187708062838384818F71806A8483F6
:10112000C782D086E186F286E5CF8130F9F42114BA
:10113000310409F4CFCE929596959770953059F475
:101140006091390270913A0280913B0290913C0289
:101150000E940000BFCE911105C089E392E00E9479
:101160005110F6CF60E070E0CB01F2CF8A3009F485
:10117000B1CE8C3109F4AECE82E392E00E94370208
:10118000A9CE8A31C9F7A6CE9F3F09F0A3CED330AE
:10119000F9F48091010282FF03C0C73009F49ACEAE
:1011A000C43109F097CE80910502281393CE0E9496
:1011B000B6017370882799270E94830125E143E0D7
:1011C00050E06FEF892D0E948C006091050202CFE4
:1011D0008091050228137ECECFCFDF91CF911F9152
:1011E0000F91FF90EF90DF90CF90BF909F907F90F6
:1011F0006F905F904F903F902F90089580910102E3
:1012000084FD0C944C070895CF92DF92EF92FF92E9
:10121000CF93DF93D82F0E94B6016B017C018091A0
:101220003602876080933602C0E00E94B6016C19D6
:101230007D098E099F09603D77408105910590F4F5
:10124000C11110C0A8950E9455020E94FE0880910D
:1012500036028770833049F7C1E0809137028D13E1
:10126000E3CFE3CF8C2FDF91CF91FF90EF90DF9012
:10127000CF9008958F929F92AF92BF92CF92DF92BC
:10128000EF92FF924B015C010E94B6016B017C0161
:101290000E94B6016C197D098E099F0968157905B0
:1012A0008A059B0530F4A8950E9455020E94FE080D
:1012B000EFCFFF90EF90DF90CF90BF90AF909F90D7
:1012C0008F900895CF93C82F80910F020E94C50080
:1012D000892B91F461E080910F020E94EE00CC23F3
:1012E00059F08091010282FD07C064EF71E080E057
:1012F00090E00E943A09F3CF80910A0281110AC05E
:101300008091010282FB882780F9C11101C081E030
:1013100080930A0280910A02CF910895CF92DF92C2
:10132000EF92FF920F931F93CF93DF937C016B019A
:10133000C9EED3E0F6010081F701108164E670E0A8
:1013400080E090E00E943A09202F42E050E0612FB7
:1013500080E00E948C006EE471E00E9467040E94AD
:10136000EF05219711F0882329F3DF91CF911F9189
:101370000F91FF90EF90DF90CF9008958F929F9202
:10138000AF92BF92CF92DF92EF92FF921F93CF93D3
:10139000DF936C015B017A01C9EED3E0F501808037
:1013A0009180F601108164E670E080E090E00E9498
:1013B0003A09A701B401812F0E940106219711F07B
:1013C000882361F3DF91CF911F91FF90EF90DF9021
:1013D000CF90BF90AF909F908F9008958F929F92E3
:1013E000AF92BF92CF92DF92EF92FF921F93CF9373
:1013F000DF93CDB7DEB7A1970FB6F894DEBF0FBE6F
:10140000CDBF809120018F3F09F48AC00E94190648
:10141000809120018F3FE1F08091010282FF44C062
:101420000E940B0560E4C62E6EE7D62E65E0E62E20
:10143000F12CC701B6010E94570380911B018F3F19
:1014400011F080911B018FEF80931B010E94010519
:101450008091010282FD77C20E94B6016B017C017E
:1014600080E090E0DC012091010222FD1FC2803863
:101470002EEE920726E3A207B10508F052C2803192
:1014800027E29207A105B10508F017C2A8950E94AE
:1014900055020E94FE080E94B601DC01CB018C19A6
:1014A0009D09AE09BF09DFCF0E94B6016B017C0127
:1014B00080E090E0DC012091010222FD1BC080341D
:1014C0002EE7920725E0A207B10530F6803127E22A
:1014D0009207A105B105B0F4A8950E9455020E949B
:1014E000FE080E94B601DC01CB018C199D09AE09F2
:1014F000BF09E1CF80342EE7920725E0A207B105AE
:1015000008F021C250E4C52E5EE7D52E55E0E52E49
:10151000F12CC81AD90AEA0AFB0A0E940B0589CFE6
:10152000109208028091010282FF5AC18EE48093DA
:101530007C0062E070E080E090E00E948301809196
:101540007A00806480937A0080917A0086FDFCCFD7
:10155000809178002091790030E0322F2227032EED
:10156000000C440B550B282B64EB7BE281E190E0EF
:101570000E94C211CA01B9010E94971020E030E018
:101580004AE754E40E948A124B015C01CE010196A5
:101590000E949C048DEF8F8386E28E838C818770FE
:1015A00088628C838D81806E8D8388869986AA86D9
:1015B000BB8682E08C87CE0101960E94F60564E628
:1015C00070E080E090E00E943A0920E043E050E0C3
:1015D0006FEF80E00E948C007C01C501B4010E9485
:1015E000FC129B01AC012150310941095109A4E6CB
:1015F000B0E00E94E11122E030E040E050E00E94C3
:10160000C211622FC7010E942B020E94EF0581E0E8
:1016100080931A01F12CD12CC12C10E060E0809154
:101620000E020E94EE0061E080910D020E94EE0029
:1016300061E070E080E090E00E943A0960E0809113
:101640000D020E94EE0061E080910E020E94EE0009
:10165000809110028E3008F08E5020911A0190E493
:10166000299F900111248770822B80937C008091A8
:101670007A00806480937A0080917A0086FDFCCFA6
:101680009091780080917900153030F08927982763
:101690008927C80ED91EF39461E070E080E090E0E5
:1016A0000E943A091F5F1A3009F0B8CF60E08091BC
:1016B0000D020E94EE0060E080910E020E94EE009A
:1016C0006F2D70E0C6010E94421390E080E04091CF
:1016D0000B0250910C026A01F12CE12C6C157D0576
:1016E0008E059F0509F481C070930C0260930B0274
:1016F0000E9497106B017C012DEB37E346E855E320
:101700000E94D210A70196010E94D210A701960153
:101710000E94D21090580E94FC126B017C01AC0117
:101720009B010E9432130E94971022E433E248ED9D
:101730005AE30E94D2104B015C01C701B6010E941E
:1017400097109B01AC01C501B4010E941E120E94BA
:10175000FC120E9497106B017C0181E080930902CA
:10176000CE0101960E949C0482EF8F8385E28E83D6
:101770008C81877080628C838D818F7180688D836E
:101780002AEC3DED4FE25FEBC701B6010E94D2109B
:101790002AE43EE143EF52E40E941E12A7019601A3
:1017A0000E941E120E94FC12C12C34E0D32EE12CA8
:1017B000F12CA7019601261B370B480B590BA4E609
:1017C000B0E00E94E111A70196010E94C211288792
:1017D00039874A875B87CE0101960E94F60505C0CE
:1017E00081E00E9462098111A1CE809109028823C3
:1017F00009F459C01092090281E080931E0188EC1F
:1018000080937C0080917A00806880937A0064E104
:1018100070E080E090E00E94830180917A00806413
:1018200080937A0080917A0086FDFCCF60917800E9
:101830007091790090E080E00E9495102EEA37E2E6
:1018400042EA53E40E941D1226EF38E24CE95FE3BE
:101850000E948A120E94FC12613801F180911F01DE
:101860008617E1F060931F01CE0101960E949C044F
:101870008BEF8F831E8220911F01022E000C330BF1
:101880008C81877080618C838D818F7180648D8362
:1018900039872887CE0101960E94F60580911E01A6
:1018A000811110921E010E941C01D2CD80382EEEB3
:1018B000920726E3A207B105A0F520E8C22E2EEE7E
:1018C000D22E26E3E22EF12CC81AD90AEA0AFB0A24
:1018D0000E940B05F89481E080931D018FEF8093A7
:1018E0001C0182E08CBB83EB93E0909328018093F2
:1018F0002701809169008C6080936900E99AC70193
:10190000B6010E94570381E00E94C20180911B0131
:101910008F3F11F080911B018FEF80931B010E947C
:101920000105A1960FB6F894DEBF0FBECDBFDF91C3
:10193000CF911F91FF90EF90DF90CF90BF90AF902D
:101940009F908F90089580E8C82E8EEED82E86E363
:10195000E82EF12CBDCFCF93DF9361E08DE00E94A4
:101960002D0183E080931A01C8E0D2E061E08D810F
:101970000E942D0160E08D810E94EE00219682E0A0
:10198000CB30D80799F762E083E00E942D0180E018
:101990000E94620981110FC061E08DE00E94EE009B
:1019A00068EE73E080E090E00E943A0960E08DE02C
:1019B0000E94EE00F1CFDF91CF91089580917C01DC
:1019C00081FD08C00E94150780917C0181608260C2
:1019D00080937C010895809104028F3F69F423E095
:1019E00043E050E06FEF80E00E948C006EE471E015
:1019F0000E9467040C94B7050895CF93219A229A08
:101A000029982A9ACFB7F89480917801811127C03C
:101A1000E0E9F0E08491E4EAF0E09491E82FF0E06E
:101A2000EE0FFF1FE859FF4FA591B491EC91E92308
:101A300021F461E08AE00E94EE0061E08AE00E9409
:101A40002D018CB580618CBD8CB580648CBD61E04E
:101A50008DE00E942D0161E08BE00E942D018091BC
:101A600078018F5F80937801CFBF0E94010563E00A
:101A700083E20E94F0046FE584E20E94F0046CE4CB
:101A800085E20E94F00465E286E20E94F00464E0D0
:101A90008DE30E94F0048DE10E943605843041F010
:101AA00063E780E50E94F00464E08DE30E94F004A7
:101AB00086E00E943605853209F04DC085E00E941F
:101AC00036058C3409F047C062E082E20E94F004DF
:101AD00060E081E20E94F00463E08CE30E94F00485
:101AE0008FEF8093000120E045E060E071E08BE241
:101AF0000E94B10420E045E060E071E08AE20E94CB
:101B0000B10420E045E060E071E080E30E94B104B0
:101B100082EE0E943C0581EE0E943C0560E787E270
:101B20000E94F00480910102806180930102809103
:101B3000070281608093070287E18093040267E1D6
:101B400090E080E00E94B011C0910402CF3F41F4C8
:101B500086E091E002C08AE091E0CF910C946002AF
:101B60008FEF8C0F8E3FB8F7C093050163E082E2E0
:101B70000E94F00461E081E20E94F0040E942905C5
:101B80006C2F90E080E00E94B011E2CF1F920F9284
:101B90000FB60F9211242F933F938F939F93AF9380
:101BA000BF938091EF019091F001A091F101B0916C
:101BB000F2013091EE0126E0230F2D3758F5029601
:101BC000A11DB11D2093EE018093EF019093F001D0
:101BD000A093F101B093F2018091F3019091F4018F
:101BE000A091F501B091F6010196A11DB11D809360
:101BF000F3019093F401A093F501B093F601BF9126
:101C0000AF919F918F913F912F910F900FBE0F90A9
:101C10001F90189529E8230F0396A11DB11DD2CF5F
:101C20001F920F920FB60F9211242F933F934F9351
:101C30005F936F937F938F939F93AF93BF93EF9334
:101C4000FF93E0912701F09128010995FF91EF9111
:101C5000BF91AF919F918F917F916F915F914F91C4
:101C60003F912F910F900FBE0F901F9018951F92CC
:101C70000F920FB60F9211242F933F934F935F93C0
:101C80006F937F938F939F93AF93BF93EF93FF9344
:101C9000E0912501F09126010995FF91EF91BF9107
:101CA000AF919F918F917F916F915F914F913F91F4
:101CB0002F910F900FBE0F901F9018951F920F92AB
:101CC0000FB60F9211242F933F934F935F936F930F
:101CD0007F938F939F93AF93BF93EF93FF938091E5
:101CE000B900887F803609F44AC0F0F5883209F4DB
:101CF000A5C018F5803109F499C0B8F4882309F417
:101D0000F5C0883009F492C0FF91EF91BF91AF9177
:101D10009F918F917F916F915F914F913F912F9103
:101D20000F900FBE0F901F901895883109F486C050
:101D3000803251F78093C70114C0803409F49BC0EE
:101D400040F48033B9F38833F9F68093C70185EC0A
:101D5000AEC0803509F483C0883509F494C0883456
:101D600099F60E94CC03D0CF883909F48AC038F59F
:101D7000883729F050F4883611F0803729F683E04F
:101D80008093C8011092C60155C0883809F479C003
:101D9000803919F0803809F0B7CF8091C6018032C0
:101DA00008F06FC0E091C60181E08E0F8093C601FC
:101DB0008091BB00F0E0EA55FE4F80833BC0803B42
:101DC00039F0D0F4803A09F477C0883A09F09CCF12
:101DD00084E08093C8011092A5011092A401F0E064
:101DE000E0E009958091A40181110FC081E080930A
:101DF000A4011092840109C0803C09F4A8CF883C5A
:101E000009F4A5CF883B09F07FCFE091A50181E0DF
:101E10008E0F8093A501F0E0EC57FE4F80818093F8
:101E2000BB009091A5018091A40129C08091ED0192
:101E30008093BB0085EC8093BC0066CF9091EC0151
:101E40008091EB01981758F5E091EC0181E08E0F3D
:101E50008093EC01F0E0E553FE4F8081E9CFE09103
:101E6000EC0181E08E0F8093EC018091BB00F0E0EB
:101E7000E553FE4F80839091EC018091EB01981720
:101E8000C8F285E8D8CFE091EC0181E08E0F809315
:101E9000EC018091BB00F0E0E553FE4F8083809120
:101EA000CA0181115ECF81E08093C90184EA8093E9
:101EB000BC001092C80128CF85EC8093BC00109222
:101EC000C8018091C601803230F4E091C601F0E093
:101ED000EA55FE4F10826091C60170E086EA91E0FB
:101EE000F0E0E0E009951092C6010ECF1092C70114
:101EF00038CF1F920F920FB60F9211240F900FBE82
:101F00000F901F90189582E392E00E949C0481E15B
:101F100092E00E949C04E8E0F2E081E0808311827C
:101F20001282148213828091290190912A01A0913A
:101F30002B01B0912C0185839683A783B0870895E8
:101F4000789484B5826084BD84B5816084BD85B594
:101F5000826085BD85B5816085BD80916E008160A0
:101F600080936E0010928100809181008260809346
:101F70008100809181008160809381008091800048
:101F80008160809380008091B10084608093B10073
:101F90008091B00081608093B00080917A0084606D
:101FA00080937A0080917A00826080937A00809199
:101FB0007A008E7F80937A0080917A008068809387
:101FC0007A001092C100A89580E090E0892B11F072
:101FD0000E94000080917C018D7F80937C010E9493
:101FE000AB0C41E050E063E071E08BE791E00E94D0
:101FF000901160E081E090E00E94B01180910202B7
:102000008F78809302021092F8011092F70181E21A
:1020100091E00E9460028EED9CE090937A018093A3
:1020200079010E94B6010E94B6010E9455020E94E9
:10203000FE088091010282FB882780F9A8958823F9
:1020400091F3A895C0E0D0E0A8950E945502809138
:10205000010284FD0E944C070E94EE092097A1F323
:102060000E940000F1CFFC0188279927E894219174
:102070002032E9F3293010F02E30C8F32B3241F032
:102080002D3239F4689404C00E948D10820F911D86
:10209000219120532A30C0F31EF4909581959F4FD3
:1020A00008951F93FC0199278827BC01E89411919A
:1020B0001032E9F3193010F01E30C8F31B3251F022
:1020C0001D3249F4689406C00E947810610F711D9A
:1020D000811D911D119110531A30B0F33EF490956B
:1020E0008095709561957F4F8F4F9F4F1F910895F9
:1020F000592F482F372F262F660F771F881F991FBC
:10210000660F771F881F991F620F731F841F951F0B
:10211000660F771F881F991F08957AE0979F902D6B
:10212000879F802D910D11240895E89409C097FB95
:102130003EF490958095709561957F4F8F4F9F4F9E
:102140009923A9F0F92F96E9BB279395F6958795E2
:1021500077956795B795F111F8CFFAF4BB0F11F4A5
:1021600060FF1BC06F5F7F4F8F4F9F4F16C088234C
:1021700011F096E911C0772321F09EE8872F762F82
:1021800005C0662371F096E8862F70E060E02AF0C3
:102190009A95660F771F881FDAF7880F96958795AF
:1021A00097F908950E94E5100C9456110E94481169
:1021B00038F00E944F1120F0952311F00C943F113C
:1021C0000C94451111240C948A110E94671170F32C
:1021D000959FC1F3950F50E0551F629FF001729FCC
:1021E000BB27F00DB11D639FAA27F00DB11DAA1FDB
:1021F000649F6627B00DA11D661F829F2227B00D28
:10220000A11D621F739FB00DA11D621F839FA00DB2
:10221000611D221F749F3327A00D611D231F849F02
:10222000600D211D822F762F6A2F11249F57504059
:102230009AF0F1F088234AF0EE0FFF1FBB1F661FD4
:10224000771F881F91505040A9F79E3F510580F09D
:102250000C943F110C948A115F3FE4F3983ED4F341
:10226000869577956795B795F795E7959F5FC1F741
:10227000FE2B880F911D9695879597F9089597F9EC
:102280009F6780E870E060E008959FEF80EC08951C
:1022900000240A9416161706180609060895002445
:1022A0000A9412161306140605060895092E0394BF
:1022B000000C11F4882352F0BB0F40F4BF2B11F433
:1022C00060FF04C06F5F7F4F8F4F9F4F089557FD92
:1022D0009058440F551F59F05F3F71F04795880F94
:1022E00097FB991F61F09F3F79F08795089512162B
:1022F00013061406551FF2CF4695F1DF08C01616D7
:1023000017061806991FF1CF869571056105089487
:102310000895E894BB2766277727CB0197F908959E
:10232000DC01CB01FC01F999FECF06C0F2BDE1BD95
:10233000F89A319600B40D9241505040B8F7089584
:10234000DC01A40FB51F4150504048F0CB01840F71
:10235000951F2E910E94B11141505040D0F7089521
:10236000262FF999FECF92BD81BDF89A019700B44E
:10237000021639F01FBA20BD0FB6F894FA9AF99AEE
:102380000FBE0895052E97FB1EF400940E94D911EC
:1023900057FD07D00E94EC1107FC03D04EF40C94BB
:1023A000D91150954095309521953F4F4F4F5F4F34
:1023B000089590958095709561957F4F8F4F9F4FB1
:1023C00008950E940E12A59F900DB49F900DA49F9A
:1023D000800D911D11240895A1E21A2EAA1BBB1B8A
:1023E000FD010DC0AA1FBB1FEE1FFF1FA217B307E1
:1023F000E407F50720F0A21BB30BE40BF50B661FF7
:10240000771F881F991F1A9469F7609570958095BA
:1024100090959B01AC01BD01CF010895A29FB00131
:10242000B39FC001A39F700D811D1124911DB29F08
:10243000700D811D1124911D08955058BB27AA27A6
:102440000E9435120C9456110E94481138F00E94D7
:102450004F1120F039F49F3F19F426F40C944511E4
:102460000EF4E095E7FB0C943F11E92F0E946711F1
:1024700058F3BA17620773078407950720F079F4B9
:10248000A6F50C9489110EF4E0950B2EBA2FA02D11
:102490000B01B90190010C01CA01A0011124FF2711
:1024A000591B99F0593F50F4503E68F11A16F0400C
:1024B000A22F232F342F4427585FF3CF469537950B
:1024C0002795A795F0405395C9F77EF41F16BA0BD0
:1024D000620B730B840BBAF09150A1F0FF0FBB1F7E
:1024E000661F771F881FC2F70EC0BA0F621F731FC7
:1024F000841F48F4879577956795B795F7959E3F24
:1025000008F0B0CF9395880F08F09927EE0F9795B4
:10251000879508950E949E120C9456110E944F11A7
:1025200058F00E94481140F029F45F3F29F00C94C4
:102530003F1151110C948A110C9445110E9467119E
:1025400068F39923B1F3552391F3951B550BBB27E2
:10255000AA2762177307840738F09F5F5F4F220F27
:10256000331F441FAA1FA9F335D00E2E3AF0E0E81E
:1025700032D091505040E695001CCAF72BD0FE2F68
:1025800029D0660F771F881FBB1F261737074807FC
:10259000AB07B0E809F0BB0B802DBF01FF279358B4
:1025A0005F4F3AF09E3F510578F00C943F110C9428
:1025B0008A115F3FE4F3983ED4F38695779567954B
:1025C000B795F7959F5FC9F7880F911D96958795E9
:1025D00097F90895E1E0660F771F881FBB1F621708
:1025E00073078407BA0720F0621B730B840BBA0BC6
:1025F000EE1F88F7E09508950E9403136894B111C7
:102600000C948A1108950E946F1188F09F5798F0DA
:10261000B92F9927B751B0F0E1F0660F771F881FE7
:10262000991F1AF0BA95C9F714C0B13091F00E9401
:102630008911B1E008950C948911672F782F8827AC
:10264000B85F39F0B93FCCF3869577956795B39528
:10265000D9F73EF490958095709561957F4F8F4F97
:102660009F4F0895DB018F939F930E94E111BF91CB
:10267000AF91A29F800D911DA39F900DB29F900DD1
:1026800011240895AA1BBB1B51E107C0AA1FBB1F41
:10269000A617B70710F0A61BB70B881F991F5A95EE
:1026A000A9F780959095BC01CD010895EE0FFF1F0D
:1026B0000590F491E02D0994FB01DC01415050405C
:1026C00048F001900D920020C9F701C01D924150C1
:0A26D0005040E0F70895F894FFCFA2
:1026DA0000FCE1A8A8FF4104050310058C02EB0CDD
:1026EA00D902D802D402C202B80201FFFFFF0100D8
:1026FA00015104FD0CD501D5010F100811322E34F9
:10270A002E302D616C70686100556E69742D4D6FA5
:10271A006973747572654E6F646500312E340049B1
:10272A006E742E54656D7000496E742E536F696C09
:10273A0000496E666F2E536F696C00496E742E42A3
:08274A0061742E566F6C7400DF
:00000001FF
