:020000040000FA
:100000000C945E000C947A110C9453110C9486009D
:100010000C9486000C9486000C94BC120C94860000
:100020000C9486000C9486000C9486000C94860038
:100030000C9486000C9486000C9486000C94860028
:100040000C9409110C9486000C9486000C94860084
:100050000C9486000C9486000C9486000C94860008
:100060000C94A1110C94860000000008000201000D
:100070000003040700000000000000000000000072
:10008000250028002B0000000000240027002A0083
:10009000040404040404040402020202020203032E
:1000A0000303030301020408102040800102040836
:1000B0001020010204081020C612C81311241FBE0C
:1000C000CFEFD8E0DEBFCDBF11E0A0E0B1E0E0E9C6
:1000D000F6E302C005900D92AC3AB107D9F722E0E1
:1000E000ACEAB1E001C01D92AE38B207E1F710E012
:1000F000CDE5D0E004C02197FE010E947118CC35F7
:10010000D107C9F70E9435130C943B1B0C940000D7
:1001100090E0FC01EC55FF4F249180579F4FFC016C
:100120008491882399F090E0880F991FFC01EA5789
:10013000FF4FA591B491FC01E458FF4F8591949134
:100140008FB7F894EC91E22BEC938FBF0895942F26
:10015000E8E4F2E030913A023183828366832583BA
:100160004481487F492B477E4483CF01089590E026
:10017000FC01E859FF4F2491FC01EC55FF4F3491ED
:10018000FC01E057FF4FE491EE23C9F0222339F040
:10019000233001F1A8F4213019F1223029F1F0E0E7
:1001A000EE0FFF1FE458FF4FA591B4918FB7F8945D
:1001B000EC91611126C030953E233C938FBF08958A
:1001C0002730A9F02830C9F0243049F78091800009
:1001D0008F7D03C0809180008F7780938000DFCF78
:1001E00084B58F7784BDDBCF84B58F7DFBCF8091C5
:1001F000B0008F778093B000D2CF8091B0008F7D18
:10020000F9CF3E2BDACF2091310190E4299F900164
:1002100011248E50822B80937C0080917A00806420
:1002200080937A0080917A0086FDFCCF80917800DF
:100230009091790008953FB7F8948091340290919D
:100240003502A0913602B091370226B5A89B05C0B1
:100250002F3F19F00196A11DB11D3FBFBA2FA92F45
:10026000982F8827BC01CD01620F711D811D911D42
:1002700043E0660F771F881F991F4A95D1F70895AD
:100280008F929F92AF92BF92CF92DF92EF92FF92A6
:100290006B017C010E941B014B015C01C114D10464
:1002A000E104F104B9F00E941B01681979098A0977
:1002B0009B09683E73408105910580F321E0C21AD5
:1002C000D108E108F10888EE880E83E0981EA11C91
:1002D000B11CE4CFFF90EF90DF90CF90BF90AF9034
:1002E0009F908F9008952FB7F8946091300270918D
:1002F000310280913202909133022FBF0895089508
:100300002091E501260F3327331F21323105ECF40C
:1003100020910902FC0190E080E0243069F082E045
:100320000895A091E5012191AC014B535E4FA40FBC
:10033000B52FB11D2C930196861798F38091E50196
:10034000680F6093E50180E0089581E008950895C5
:100350008FEF9FEF08958FEF9FEF08958091BE017B
:1003600090E09195819591090895CF93DF93CB010A
:10037000EA01642F0E948001CE01DF91CF910895A0
:10038000CF93DF931F92CDB7DEB7698361E0CE01D3
:1003900001960E94800181E090E00F90DF91CF9163
:1003A000089590E080E008950895FC0183818770AE
:1003B0008860838384818F71806284836783CF01A7
:1003C0000895E091B101F091B201309721F00280DF
:1003D000F381E02D099408950F931F930E947301F8
:1003E0000091B3011091B4012091B5013091B60193
:1003F000601B710B820B930B1F910F9108959C0151
:100400008091B1019091B20182179307F1F0909120
:10041000BB019F719093BB013093B2012093B10156
:10042000E091B101F091B201309721F00190F0819B
:10043000E02D09950E9473016093B3017093B4019C
:100440008093B5019093B60108958091BB01805EC1
:100450008093BB01E5CF0F931F930E94EC01209185
:10046000BC012077203779F000E117E220E030E08E
:10047000061717072807390758F489E291E01F91FA
:100480000F910C94FF0100E61AEE20E030E0F0CF6F
:100490001F910F9108958091BC01982F9F70963005
:1004A00018F0807F8093BC0108958091BB01846027
:1004B0008093BB018091BC0180788093BC01E09166
:1004C000AF01F091B001309709F009940895CF93EE
:1004D000C091BD01CF3FA1F00E9473016093B701AD
:1004E0007093B8018093B9019093BA0180913C0256
:1004F000C813C0933C0284E291E0CF910C94FF01B9
:100500000E94EC01613D77408105910568F0809182
:10051000BB01803618F480E291E0EFCF877F8093B3
:10052000BB018CE191E0E9CFCF91089580913A022F
:100530008F3F21F080E291E00C94FF010E94EC01DA
:10054000613D77408105910550F08091BB01803677
:1005500018F488E191E0F0CF84E191E0EDCF0895C7
:1005600088E191E00C94FF018EBD00000DB407FE00
:10057000FDCF8EB508951F93CF93DF9385ED8093C4
:10058000BC008091C1019091C201A091C301B091C2
:10059000C4010796A11DB11D23E0B695A7959795B7
:1005A00087952A95D1F72091BC0024FD03C01092B5
:1005B000090252C04091C1015091C2016091C30132
:1005C0007091C401452B462B472B69F30097A10579
:1005D000B10541F02AE12A95F1F700C00197A10980
:1005E000B109E1CF8091C001C1E0C093BF01882370
:1005F00099F1D091B8001091BA008091BC008A7B2B
:100600008093BC0060E082E10E94B70060E083E17B
:100610000E94B70010920902C0930B0210920A02C6
:1006200061E082E10E94B70061E083E10E94B700CF
:100630008091B9008E7F8093B9008091B9008D7F41
:100640008093B90080E28093B80085E48093BC0079
:100650001093BA00D093B800DF91CF911F91089505
:10066000EBEBF1E08081897F8E7F8083EAE3F2E02B
:1006700081E08283118260E081E090E00C9490162A
:10068000EBEBF1E08081877F8F7E80831092B70152
:100690001092B8011092B9011092BA0144E050E0F2
:1006A00070E060E08AE392E00C9468160F931F9369
:1006B000CF93DF938C0180E06115710551F0EB0160
:1006C00009900020E9F721978C2F861B8A3108F0CA
:1006D00089E1F801C381C770F8E08F9FC001112440
:1006E000C82BF801C38384818F718483C695C69516
:1006F000C695CA3108F0C9E1D0E0AE01C80107963D
:100700000E947E18C00FD11F1F82C801DF91CF91B8
:100710001F910F910895FC01248122952695277041
:10072000213011F487810895211104C007960E9499
:100730000B15089580E00895DF92EF92FF920F93DA
:100740001F93CF93DF93FC01248124FD25C0EC018E
:1007500086818A3F31F08D81823031F18330E1F43E
:1007600032C085818230B9F710910301CF010E9418
:100770008B0361E0811101C060E0161769F060939E
:10078000030181E08093040187E992E00E949016C2
:10079000809104018823F9F2DF91CF911F910F918D
:1007A000FF90EF90DF900895E0904602F0904702AE
:1007B0009E81F7012381291709F446C0278101E0B2
:1007C000921709F442C000914402109145029E81A3
:1007D000F8012381921709F44EC024852913DCCF38
:1007E00091E0E92EF12C833009F44AC0CE010E9439
:1007F0008B0399E09E9DF0019F9DF00D1124E00F69
:10080000F11F85839781891739F28823B1F180859B
:1008100091851816190614F084E690E029E02E9DC3
:10082000F0012F9DF00D1124E00FF11F91878087BB
:1008300089E08E9DF0018F9DF00D1124E00FF11FD6
:1008400081E08683F80115C000E010E0000F111F61
:10085000000F111F0E0D1F1DF801D580CE010E9443
:100860008B03D81609F498CFF801858381E086833D
:10087000F701808391CF90E0B4CF90E080E0CECFBD
:10088000DFB6F8948C818295869587708230C1F4AA
:100890008F81988585369105ECF497FF02C090E032
:1008A00080E029E02E9DF0012F9DF00D1124E00F36
:1008B000F11F208531852817390779F4DFBE6CCF09
:1008C000811105C0CE0107960E940B15E3CF90E081
:1008D00080E0E3CF84E690E0E4CF21E0181619062B
:1008E0000CF020E0258329E02E9DF0012F9DF00DD6
:1008F0001124E00FF11F91878087DFBE99CFCF933E
:10090000DF93FC01108211821282148215821682FA
:10091000DC0117968AE1ED0119928A95E9F782E0E8
:100920008383DF91CF910895BF92CF92DF92EF92B0
:10093000FF920F931F93CF93DF937B01042FB22E6F
:1009400090E59CBD1DBC2A98E0E1F0E03197F1F7FD
:100950000E94B402182FE7010150A8F0BB2051F00B
:100960008FEF0E94B402182FE114F104A9F38883D9
:100970002196F2CF6E018FEFC81AD80A88810E94A3
:10098000B402E601E9CF2A9A80E190E00197F1F7FD
:10099000812FDF91CF911F910F91FF90EF90DF900A
:1009A000CF90BF900895CF93DF931F92CDB7DEB75E
:1009B000698320E041E0BE016F5F7F4F0E94940495
:1009C0000F90DF91CF9108958091BC01982F90777F
:1009D000903759F0982F92959F709F5F97709295DE
:1009E000907F8F78892B8093BC018091BB018B7F96
:1009F0008F7E8093BB0129986CE080E20C94D30435
:100A00006FE080E20E94D304609113016F3F19F000
:100A10008AE20E94D304299A089521E041E070E01F
:100A200060E00C94940420E040E070E060E00C94FE
:100A30009404FF920F931F93CF93DF9390913A0208
:100A4000FB0190834381C0E242FD08C04695469574
:100A500046954A3108F049E1C7E0C40F90913D0244
:100A6000D1E090FD03C08F3F09F0D0E06115710522
:100A700009F44CC08B01F82E299880E091E0019791
:100A8000F1F76EE080E20E94D30484EC90E00197DD
:100A9000F1F76F2D8AE20E94D3046F2D80E30E944C
:100AA000D30481EE0E941305DD2321F060E584E28A
:100AB0000E94D30420E04C2FB80180EA0E949404E5
:100AC000299A10E000E08FEF0E941305807339F43B
:100AD0000F3F100721F0A8950F5F1F4FF4CF299803
:100AE00060E787E20E94D304C82F84FF03C081EE31
:100AF0000E941305DD2321F06FE584E20E94D304F8
:100B00000E940005C5FF03C0D1E001C0D0E08D2FD9
:100B1000DF91CF911F910F91FF9008950F931F9335
:100B2000CF938C01FC0182819091BB0190FF04C0A6
:100B30008F3F51F5CFEF04C0811116C0C0913B0229
:100B4000B8018C2F0E94190590913B029C1313C091
:100B50009091BC01811113C021E0290F2F70907F6B
:100B6000922B9093BC0107C08F3F21F3B8010E94E4
:100B70001905882319F3CF911F910F910895907F44
:100B80009093BC0181E0F7CF80E0F5CF2091BB01CD
:100B900022FD0C948E0580E00895FC0180913A02BC
:100BA00081839481907F996094838091390280FF42
:100BB00003C0CF010C94C60580E00895FF920F9307
:100BC0001F93CF93DF93CDB7DEB7A1970FB6F894FD
:100BD000DEBF0FBECDBFF82E8B01CE0101960E9465
:100BE0007F04FF8282E08E83F8016081CE0101964E
:100BF0000E94D5010E94CD05A1960FB6F894DEBFE4
:100C00000FBECDBFDF91CF911F910F91FF9008953F
:100C1000EF92FF920F931F93CF93DF931F92CDB765
:100C2000DEB78C017B01DB018C91E82FF0E0DF0166
:100C3000AA0FBB1FAA0FBB1FA00FB11F3196EE0F4B
:100C4000FF1FEE0FFF1FE00FF11F15966C918081C3
:100C50000E94B700D701EC91B4E0EB9FF0011124A2
:100C6000E00FF11F838190E0658183569E4F0E94C3
:100C70009016F7018081F4E08F9FC0011124F801E4
:100C8000E80FF91F21E03581311101C020E02983EF
:100C9000080F191FBE016F5F7F4FD80113968C910B
:100CA0000E94DE050F90DF91CF911F910F91FF9071
:100CB000EF900895FF920F931F93CF93DF93CDB7DB
:100CC000DEB7A1970FB6F894DEBF0FBECDBFF82EEA
:100CD0008B01CE0101960E947F04FF8283E08E8308
:100CE000F801208131818C81877080618C838D81B6
:100CF0008F7180648D8339872887CE0101960E9489
:100D0000CD05A1960FB6F894DEBF0FBECDBFDF9123
:100D1000CF911F910F91FF9008951F93CF93DF9371
:100D2000182F262FEA0150E040E0682F80E00E9453
:100D3000A7001F3F11F4C2E5D1E0BE010E94560397
:100D4000DF91CF911F910C94C6052F923F924F9245
:100D50005F926F927F928F929F92AF92BF92CF924B
:100D6000DF92EF92FF920F931F93CF93DF9300D008
:100D700000D0CDB7DEB7809128018F3F09F458C06D
:100D800080E1282E312C97E1492E512C23E0E22ED0
:100D9000F12C32E0C32ED12C44E0642E712C56E0AD
:100DA000A52EB12CE0912801E83008F005C1E150F2
:100DB000E73008F03DC0F0E0E052F94F0C947118B4
:100DC000EF062F073D077407A807E906E906882301
:100DD00041F0809128018F5F80932801E3CF09EED5
:100DE00013E064E670E080E090E00E940C0A2BE0E3
:100DF00043E050E06FEF80E00E94A70068E571E0FB
:100E00000E9456030E94C605982E2CE043E050E055
:100E10006FEF80E00E94A70060E771E00E94560338
:100E20000E94C60589210150110989F68111D1CF8F
:100E30000F900F900F900F90DF91CF911F910F9116
:100E4000FF90EF90DF90CF90BF90AF909F908F90EA
:100E50007F906F905F904F903F902F900895BA824F
:100E6000A9828DEF8B8344E751E0BE016F5F7F4F16
:100E7000CE0103960E94640AD9CF009146021091D8
:100E80004702FA82E982480183E0880E911C4DE70F
:100E900051E0BE016F5F7F4FC4010E94640A882346
:100EA00039F2DA82C982BE016F5F7F4FC4010E94AE
:100EB000340A882309F4BCCFFA82E982095F1F4F04
:100EC0004DE751E0BE016F5F7F4FC8010E94640A89
:100ED000882309F4ADCFDA82C982BE016F5F7F4FEC
:100EE000C8010E94340AA2CF80904402909045022B
:100EF00084010D5F1F4F85E1880E911C7A82698203
:100F00004AE851E0BE016F5F7F4FC8010E94640A4A
:100F1000882309F48DCFDA82C982BE016F5F7F4FCB
:100F2000C8010E94340A882309F482CFFA82E98238
:100F3000BE016F5F7F4FC8010E94340A882309F405
:100F400077CF075F1F4F8016910609F442CFD6CFA7
:100F50008AEF8C838BEF8B833A82298250E040E0CA
:100F6000BE016F5F7F4FCE0103960E94640A882303
:100F700009F45ECF5A824982BE016F5F7F4FCE0176
:100F800003960E94340A882309F452CFFA82E98238
:100F900048E951E0BE016F5F7F4FCE0104960E9489
:100FA000640A882309F444CFDA82C982BE016F5FE4
:100FB0007F4FCE01049695CF8FEF8093280138CFD5
:100FC0002FE043E050E06FEF80E00E94A7006FE663
:100FD00071E00E945603E8E4F2E08381877080614B
:100FE000838384818F71806C848381E08783108602
:100FF000CF010E94C6058FE00E94D6094FE651E05E
:1010000061E170E08FEF0E948D0626E043E050E042
:101010006FEF80E00E94A70060913B020E94D50123
:101020000E94C60586E00E94D6090C94A5064F9240
:101030005F926F927F928F929F92AF92BF92DF9258
:10104000EF92FF920F931F93CF93DF9300D01F92E5
:10105000CDB7DEB726E02B8300E010E088248A9429
:1010600082E0982E83E0A82EB92CE12CFF24FA947C
:1010700087E10E940D0580FD80C18B8181508B83AB
:10108000882309F47AC121E041E070E060E080E665
:101090000E9494048983813220F082EE0E9413051D
:1010A000198221E0498169E672E081E60E94940498
:1010B00060E487E20E94D30480916C02982F9370C1
:1010C0009230B1F6E82FE695E695E695EA3108F01C
:1010D000E9E182FF57C089E1895F99819813C8CF00
:1010E00080916D02282F2770298390916E029A8338
:1010F000D0906A022091690290916B023091BC01FC
:1011000030683093BC0130913A0293130AC1F0E089
:10111000E759FD4F178283FF15C021E2E9E6F2E0AF
:10112000A8E4B2E001900D922A95E1F7877E8061F4
:1011300080934C0290934902D0924A0288E492E054
:101140000E94C60590916D0294FDE3C02981233071
:1011500009F0DFC080916E0221EF280F233008F4E0
:1011600087CF2A81243009F483CF283169F429E11B
:1011700043E050E06FEF8D2D0E94A70061E00E94D8
:10118000D5012CC08E2FA8CF2A81293171F48091EE
:10119000BB0183FF6DCF877F8093BB0189E692E01F
:1011A0000E948B038093BD0163CF2A812E3109F405
:1011B0005FCF2D31B1F42FE143E050E06FEF80E0DD
:1011C0000E94A700FC0183818770806183838481F2
:1011D0008F7180648483F086E782CF010E948E0540
:1011E00047CF20916A02211199C08D3059F488E1CE
:1011F00098E00FB6F894A895809360000FBE909386
:101200006000FFCF8B3179F489E692E00E948B0376
:1012100091E0811101C090E08091390290FB80F94A
:101220008093390225CF863099F49091700281E045
:10123000992319F09D3409F080E08093380241E051
:1012400050E063E071E088E392E00E94801610CFE6
:10125000833119F40E94E0070BCF8231E1F40E9440
:10126000EC012B013C0126E143E050E06FEF80E010
:101270000E94A700FC018381877080628383848140
:101280008F71806A84834782508661867286CF011F
:101290000E94C605EDCE8230A9F422E043E050E082
:1012A0006FEF80E00E94A700FC018381877080625D
:1012B000838384818F71806A848387829086A186EC
:1012C000B286E5CF8130F9F40115110509F4D0CECD
:1012D000929596959770953059F46091700270913F
:1012E000710280917202909173020E940000C0CE40
:1012F000911105C080E792E00E942915F6CF60E0C9
:1013000070E0CB01F2CF8A3009F4B2CE8C3109F40F
:10131000AFCE89E692E00E949C03AACE8A31C9F73B
:10132000A7CE9F3F09F0A4CE8981833009F5809133
:10133000BB0182FF04C09A81973009F499CE8A815B
:10134000843109F095CE80913B02281391CE0E9402
:1013500073017370882799270E94400125E143E0BB
:1013600050E06FEF8D2D0E94A70060913B0207CFE8
:1013700080913B0228137CCECCCF0F900F900F9022
:10138000DF91CF911F910F91FF90EF90DF90BF9071
:10139000AF909F908F907F906F905F904F90089547
:1013A0008091BB0184FD0C9417080895CF92DF92C1
:1013B000EF92FF92CF93DF93D82F0E9473016B01BE
:1013C0007C0180916D02876080936D02C0E00E9475
:1013D00073016C197D098E099F09603D7740810575
:1013E000910590F4C11110C0A8950E94E1010E94DE
:1013F000D00980916D028770833049F7C1E08091F8
:101400006E028D13E3CFE3CF8C2FDF91CF91FF904E
:10141000EF90DF90CF9008958F929F92AF92BF92FE
:10142000CF92DF92EF92FF924B015C010E94730119
:101430006B017C010E9473016C197D098E099F0963
:10144000681579058A059B0530F4A8950E94E1018D
:101450000E94D009EFCFFF90EF90DF90CF90BF9028
:10146000AF909F908F900895CF92DF92EF92FF926E
:101470000F931F93CF93DF937C016B01C9EED3E0F1
:10148000F6010081F701108164E670E080E090E0F1
:101490000E940C0A202F42E050E0612F80E00E9461
:1014A000A7006FE671E00E9456030E94C6052197CF
:1014B00011F0882329F3DF91CF911F910F91FF90B5
:1014C000EF90DF90CF9008958F929F92AF92BF924E
:1014D000CF92DF92FF920F931F93CF93DF936C0114
:1014E0005B018A01C9EED3E0F50180809180F601AD
:1014F000F08064E670E080E090E00E940C0AA801B1
:101500000115110511F44FE651E0B4018F2D0E9431
:101510008D06219711F0882339F3DF91CF911F9128
:101520000F91FF90DF90CF90BF90AF909F908F90E2
:1015300008957F928F929F92AF92BF92CF92DF9247
:10154000EF92FF920F931F93CF93DF938C017B0158
:10155000FB018081F80199E0899FE00DF11D1124C4
:101560008085918522853385821B930B97FD47C02B
:1015700081E099E0A92EC82E880FDD08F70180814F
:10158000F801A89EE00DF11D112482859385208528
:1015900031858217930709F476C08C0D9D1D9387C2
:1015A0008287F70180814801A89E800C911C11243C
:1015B000F40162857385072E000C880B990B0E943D
:1015C0006F1520E030E048EC52E40E94A11720E0C3
:1015D00030E04FE753E40E94AA150E941318B62E7C
:1015E000772EC62FD72FF4019480892D0E94880072
:1015F000209739F460E0892D0E94B70030C08FEF4A
:10160000B8CFCF3FD10511F461E0F5CFE92DF0E07F
:10161000E859FF4FE491E33009F448C040F4E13069
:10162000D1F0E230F1F1C038D10574F7E3CFE73003
:1016300009F448C0E83009F44DC0E430A1F78091C6
:1016400080008062809380008B2D972D90938B007B
:1016500080938A0004C084B5806884BDB7BC6AE00A
:1016600070E080E090E00E940C0AF7018081F801B0
:10167000A89EE00DF11D1124828593850197833684
:10168000910508F47BCFDF91CF911F910F91FF90CF
:10169000EF90DF90CF90BF90AF909F908F907F9012
:1016A000089584B5806284BDB8BCD9CF8091800094
:1016B0008068809380008B2D972D90938900809374
:1016C0008800CDCF8091B00080688093B000B09248
:1016D000B300C5CF8091B00080628093B000B0921B
:1016E000B400BDCFDF92EF92FF920F931F93CF9381
:1016F000DF931F92CDB7DEB78C017B010E94990A60
:10170000F701808199E0D92EF801D89EE00DF11DF6
:101710001124838190E0658183569E4F0E9490162C
:10172000F7018081282F30E0F801D89EE00DF11DEF
:10173000112481E09581911101C080E0898389E0C5
:10174000D82ED29EF001D39EF00D1124E00FF11F90
:10175000BE016F5F7F4F83810E94DE05F7018081AC
:101760008D9DC0011124BC01685F7F4F600F711F08
:10177000080F191FF80183810E945A060F90DF910C
:10178000CF911F910F91FF90EF90DF9008952F92CE
:101790003F924F925F926F927F928F929F92AF9201
:1017A000BF92CF92DF92FF920F931F93CF93DF935D
:1017B000CDB7DEB7A1970FB6F894DEBF0FBECDBF91
:1017C000809128018F3FA1F00E94A50680912801F9
:1017D0008F3F09F43BC30CE310E00150110909F4F9
:1017E00035C364EF71E080E090E00E940C0AF5CF11
:1017F0008091BB0182FF4DC38091AD019091AE01FC
:101800006CE370E00E944918892B29F08091050152
:10181000882309F45AC08FE00E9403012091080137
:10182000309109012817390714F4821B930B20917A
:101830000601309107012817390771F097FD0CC098
:101840009093070180930601863091050CF091C0BA
:1018500010920B0110920A0180910A0190910B01E4
:1018600020910C0130910D012817390749F190930F
:101870000D0180930C01A0910601B091070124E6AF
:1018800030E00E94771824E833E040E050E00E9406
:10189000A2164901CE0101960E947F048BEF8F832F
:1018A00087E18E838C81877080618C838D818F71BD
:1018B00080668D8399868886CE0101960E94CD052B
:1018C0008091050181111092050180910401882306
:1018D00039F01092040163E071E08AEF0E94DE05A6
:1018E00000914402109145028091AD019091AE01AA
:1018F00061E470E00E944918892B09F0CAC019827E
:1019000099E0F92E24E6222E312C412C512C39E17C
:10191000A32EB12C44E6842E912C55E5652E712C16
:101920008981823008F0B5C0C82ED12CF801F89E0C
:10193000E00DF11D112485818823B9F0D80111969D
:101940002D913C91D9018C91882379F017968D9136
:101950009C918330910509F47BC090F5813091050D
:1019600009F48EC0029709F480C089818F5F898352
:10197000D7CF833391053CF481E090E090930B0145
:1019800080930A0169CF873991051CF482E090E0C9
:10199000F5CF8D3221E092071CF483E090E0EECF8A
:1019A000853FA1E09A071CF484E090E0E7CF8D3BEF
:1019B00092401CF485E090E0E1CF86E090E0DECF3D
:1019C0008530910599F0B8F1069779F6A085B18533
:1019D000AA31B105F4F4B186A086FC9CF001FD9C0F
:1019E000F00D1124E00FF11F858103C011861086D0
:1019F00080E0FC9CF001FD9CF00D1124E00FF11F34
:101A000085838783BE016F5F7F4FC8010E94720B81
:101A1000ACCF29E130E00E947718A20191010E9429
:101A2000A216FC9CF001FD9CF00D1124E00FF11FAB
:101A300031872087D2CFA085B185AE32B1052CF495
:101A40008DE290E091878087C8CF2DE230E0E3CF30
:101A5000A085B185A234B1052CF4A1E4B0E0B18732
:101A6000A087BBCF21E430E0D6CFA085B185A635D5
:101A7000B1051CF471866086B0CF25E530E0CBCF90
:101A8000808591858436910509F46FCF9186808693
:101A9000A4CFF8018081882309F458C010821982EC
:101AA00089E0F82EDD24D3948981823008F04EC07D
:101AB000F801F89EE00DF11D112486818823C1F004
:101AC000858197818917C1F08783BE016F5F7F4F42
:101AD000C8010E94720B8981F801F89EE00DF11D8A
:101AE0001124168262E370E080E090E00E940C0A0C
:101AF00089818F5F8983D8CF811108C080859185C6
:101B00001816190664F4D582D782DFCF813039F4F4
:101B100080859185892B19F415821782D6CFBE0155
:101B20006F5F7F4FC8010E94990A89818F9DC00114
:101B30001124BC01685F7F4F600F711F800F911FE0
:101B4000DC0113968C910E945A06C5CF0091460283
:101B5000109147028091AD019091AE0166E470E072
:101B60000E944918892B41F51982E981E23020F55C
:101B7000B4E0EB9FF00111249F01200F311FF90108
:101B800085818823A9F0F801A181B2818C918823F5
:101B900079F017968D919C910497039748F4D90199
:101BA00015961C92BE016F5F7F4FC8010E94080608
:101BB00089818F5F8983D9CFF80180818823C9F01B
:101BC00010821982E981E230A0F424E0E29FF00162
:101BD0001124E00FF11F8681882339F01682BE019F
:101BE0006F5F7F4FC8010E94080689818F5F8983DC
:101BF000E9CF00914202109143028091AD01909192
:101C0000AE0167EB70E00E944918892B29F0D801DA
:101C10008C91882309F453C088EC80937C008091D8
:101C20007A00806880937A0064E170E080E090E060
:101C30000E94400180917A00806480937A008091B4
:101C40007A0086FDFCCF609178007091790090E079
:101C500080E00E946D152EEA37E242EA53E40E94CA
:101C6000341726EF38E24CE95FE30E94A1170E9487
:101C70001318613801F1F80181818617E1F0618361
:101C8000CE0101960E947F048DEF8F831E82D801C2
:101C900011962C91022E000C330B8C818770806181
:101CA0008C838D818F7180648D8339872887CE01E5
:101CB00001960E94CD05F801808181111082C090AB
:101CC0004002D09041028091AD019091AE0165EB50
:101CD00070E00E944918892B21F0D6018C9188234D
:101CE00039F18EE00E9403016AE070E00E945D1805
:101CF0008B016536710514F004E610E017FF02C091
:101D000010E000E0F60181818017110669F001837F
:101D100020E043E050E06FEF80E00E94A700602FDA
:101D20000E94D5010E94C605D6018C9181111C929A
:101D300000913E0210913F028091AD019091AE0161
:101D400066EB70E00E944918892B29F0F801808128
:101D5000882309F46EC088E00E940D058F7023EE81
:101D60003FEFF8E08F9F201931091124032E000C5A
:101D7000440B550B2B5A3F4F4F4F5F4FA4E6B0E03B
:101D80000E94C1162DE230E040E050E00E94A21611
:101D90002536310514F024E630E037FF02C030E08C
:101DA00020E0D80111968D919C9112972817390740
:101DB000E1F112963C932E931197FFB6F89482E1CD
:101DC00090E00E94E6136C014296F60111928E1784
:101DD0009F07E1F7F80182818F9381818F9384EAD5
:101DE00091E09F938F931F9281E18F93DF92CF9227
:101DF0000E948D18CE0101960E947F048EEF8F8382
:101E00008CE18E83B601CE0101960E9456030E949A
:101E1000CD050FB6F894DEBF0FBECDBFC114D104FF
:101E200019F0C6010E948214FFBED8018C91811165
:101E30001C928091AD019091AE0101968036BAEE70
:101E40009B0710F59093AE018093AD0168EE73E0AF
:101E500080E090E00E940C0AA1960FB6F894DEBFD5
:101E60000FBECDBFDF91CF911F910F91FF90DF90FB
:101E7000CF90BF90AF909F908F907F906F905F902A
:101E80004F903F902F9008951092AE011092AD01A7
:101E9000DDCF60E177E280E090E00E940C0AD6CFCF
:101EA000FF920F931F93CF93DF9390914402809101
:101EB0004502FFB6F894C92FD82F8E010E5E1F4F32
:101EC0008B8190E083569E4F0E9478168D831F82EF
:101ED00091E0811101C090E09E8381115FC090E08C
:101EE00080E0998788871B861A868C810E948800EB
:101EF0008C818550823020F485B5887F826085BDD5
:101F000029960C171D07E1F6FFBEC0914602D0913D
:101F100047021FB7F8948B8190E083569E4F0E9432
:101F200078168D8391E0811101C090E09E838C81B1
:101F30000E9488008F8190E083569E4F0E94781601
:101F4000898791E0811101C090E09A8788850E947D
:101F500088001FBF83E0809331018FE00E9403015E
:101F600010E000E0D0E0C0E00E94730168387341E7
:101F700081059105B0F464E670E080E090E00E9495
:101F80000C0A8FE00E940301C817D9072CF08017B4
:101F900091070CF48C01CE01EC01E6CF84E690E0D1
:101FA000A0CFC01BD10BCF31D105A4F4D093090130
:101FB000C093080187E992E00E94781691E08111B0
:101FC00001C090E090930301DF91CF911F910F9199
:101FD000FF9008951092090110920801EBCFCF9362
:101FE0008091390281FD20C00E94E0078091390272
:101FF000816080933902C4E02AE143E050E06FEF52
:1020000080E00E94A70062E00E94D5010E94C60500
:102010008BE10E94D609811102C0C15069F78091FD
:102020003902826080933902CF9108958FEF8093B7
:10203000BD01EBEBF1E080818860808328E143E023
:1020400050E06FEF80E00E94A70061E00E94D501A0
:102050000C948E0580913A028F3F69F423E043E0AF
:1020600050E06FEF80E00E94A7006FE671E00E94F1
:1020700056030C948E050895CF93219A229A29989D
:102080002A9ACFB7F8948091AC01811124C0EAE973
:10209000F0E08491EEEAF0E09491E82FF0E0EE0FAA
:1020A000FF1FEA57FF4FA591B491EC91E92321F46A
:1020B00061E08AE00E94B7008AE00E9488008CB547
:1020C00080618CBD8CB580648CBD8DE00E948800E1
:1020D0008BE00E9488008091AC018F5F8093AC01FF
:1020E000CFBF29986EE080E20E94D30484E293E29D
:1020F0000197F1F763E083E20E94D3046FE584E285
:102100000E94D3046CE485E20E94D30465E286E277
:102110000E94D30464E08DE30E94D3048DE10E9409
:102120000D05843041F063E780E50E94D30464E04C
:102130008DE30E94D30486E00E940D05853209F0EC
:102140004DC085E00E940D058C3409F047C062E067
:1021500082E20E94D30460E081E20E94D30463E043
:102160008CE30E94D3048FEF80930E0120E045E0C2
:102170006EE071E08BE20E94940420E045E06EE0A6
:1021800071E08AE20E94940420E045E06EE071E094
:1021900080E30E94940482EE0E94130581EE0E9467
:1021A000130560E787E20E94D3048091BB01806140
:1021B0008093BB0180913D028E7F80933D0286E13A
:1021C00080933A0266E190E080E00E949016C09110
:1021D0003A02CF3F41F48CE191E002C084E191E00A
:1021E000CF910C94FF018FEF8C0F8E3FB8F7C09307
:1021F000130163E082E20E94D30461E081E20E9465
:10220000D3040E9400056C2F90E080E00E9490169D
:10221000E2CF1F920F920FB60F9211242F933F938C
:102220008F939F93AF93BF9380913002909131022F
:10223000A0913202B091330230912F0226E0230F99
:102240002D3758F50296A11DB11D20932F028093C2
:10225000300290933102A0933202B0933302809106
:10226000340290913502A0913602B0913702019666
:10227000A11DB11D8093340290933502A0933602C4
:10228000B0933702BF91AF919F918F913F912F9162
:102290000F900FBE0F901F90189529E8230F0396FB
:1022A000A11DB11DD2CF1F920F920FB60F92112414
:1022B0002F933F934F935F936F937F938F939F934E
:1022C000AF93BF93EF93FF93E0912F01F091300113
:1022D0000995FF91EF91BF91AF919F918F917F9160
:1022E0006F915F914F913F912F910F900FBE0F9083
:1022F0001F9018951F920F920FB60F9211242F93D3
:102300003F934F935F936F937F938F939F93AF937D
:10231000BF93EF93FF93E0912D01F0912E0109956A
:10232000FF91EF91BF91AF919F918F917F916F91AD
:102330005F914F913F912F910F900FBE0F901F9083
:1023400018951F920F920FB60F9211242F933F935F
:102350004F935F936F937F938F939F93AF93BF93AD
:10236000EF93FF938091B900887F803609F44AC0CB
:10237000F0F5883209F4A5C018F5803109F499C048
:10238000B8F4882309F4F5C0883009F492C0FF91AD
:10239000EF91BF91AF919F918F917F916F915F91DD
:1023A0004F913F912F910F900FBE0F901F90189556
:1023B000883109F486C0803251F78093080214C036
:1023C000803409F49BC040F48033B9F38833F9F6C4
:1023D0008093080285ECAEC0803509F483C088354F
:1023E00009F494C0883499F60E94BB02D0CF883992
:1023F00009F48AC038F5883729F050F4883611F08E
:10240000803729F683E0809309021092070255C0B5
:10241000883809F479C0803919F0803809F0B7CFCD
:1024200080910702803208F06FC0E091070281E0DE
:102430008E0F809307028091BB00F0E0E951FE4FC0
:1024400080833BC0803B39F0D0F4803A09F477C0F8
:10245000883A09F09CCF84E0809309021092E6014B
:102460001092E501F0E0E0E009958091E50181112D
:102470000FC081E08093E5011092C50109C0803C46
:1024800009F4A8CF883C09F4A5CF883B09F07FCF99
:10249000E091E60181E08E0F8093E601F0E0EB53DE
:1024A000FE4F80818093BB009091E6018091E50111
:1024B00029C080912E028093BB0085EC8093BC00E4
:1024C00066CF90912D0280912C02981758F5E091DB
:1024D0002D0281E08E0F80932D02F0E0E45FFD4F2E
:1024E0008081E9CFE0912D0281E08E0F80932D0253
:1024F0008091BB00F0E0E45FFD4F808390912D025E
:1025000080912C029817C8F285E8D8CFE0912D026F
:1025100081E08E0F80932D028091BB00F0E0E45F9C
:10252000FD4F808380910B0281115ECF81E080930B
:102530000A0284EA8093BC001092090228CF85EC3D
:102540008093BC001092090280910702803230F41F
:10255000E0910702F0E0E951FE4F1082609107021E
:1025600070E087EE91E0F0E0E0E00995109207025C
:102570000ECF1092080238CF1F920F920FB60F9213
:1025800011240F900FBE0F901F9018950F931F935B
:10259000CF9389E692E00E947F0488E492E00E9453
:1025A0007F048BE090E00E94E613C1E0FC01C08351
:1025B00028E0E8E3F1E0DC01139601900D922A9502
:1025C000E1F703E011E0FC01128301832FB7F894D7
:1025D00090934702809346022FBF85E190E00E94CE
:1025E000E613FC01C08322E1E0E4F1E0DC01139694
:1025F00001900D922A95E1F7FC01128301832FB718
:10260000F89490934502809344022FBF82E090E0BB
:102610000E94E613FC011182C0832FB7F8949093B7
:102620004302809342022FBF82E090E00E94E613B3
:10263000FC011182C0832FB7F894909341028093DC
:1026400040022FBF83E090E00E94E613FC0112825B
:102650001182C0832FB7F89490933F0280933E027B
:102660002FBFCF911F910F910895789484B5826008
:1026700084BD84B5816084BD85B5826085BD85B526
:10268000816085BD80916E00816080936E001092A4
:10269000810080918100826080938100809181001F
:1026A00081608093810080918000816080938000B0
:1026B0008091B10084608093B1008091B00081600E
:1026C0008093B00080917A00846080937A0080913A
:1026D0007A00826080937A0080917A008E7F809366
:1026E0007A0080917A00806880937A001092C1000D
:1026F000A89580E090E0892B11F00E940000809165
:1027000039028D7F809339020E94500F41E050E0E2
:1027100063E071E088E392E00E94681660E081E087
:1027200090E00E9490168091BC018F788093BC014C
:102730001092B2011092B10189E291E00E94FF0172
:102740008FEE9FE09093B0018093AF010E947301E0
:102750000E9473010E94E1010E94D0098091BB0197
:1027600082FB882780F9A895882391F3A895C0E07B
:10277000D0E0A8950E94E1018091BB0184FD0E94F8
:1027800017080E94C70B2097A1F30E940000F1CF09
:1027900080913E0290913F020E94821480914002FB
:1027A000909141020E9482148091420290914302D2
:1027B0000E94821480914402909145020E948214EA
:1027C00080914602909147020C9482140F931F93BC
:1027D000CF93DF938230910510F482E090E0E09196
:1027E0008C02F0918D0230E020E0B0E0A0E0309764
:1027F00099F42115310509F44AC0281B390B2430FE
:102800003105D8F58A819B816115710589F1FB013C
:1028100093838283FE0111C0408151810281138123
:1028200048175907E0F04817590799F4109761F0D5
:1028300012960C93129713961C933296CF01DF9148
:10284000CF911F910F91089500938C0210938D02E8
:10285000F4CF2115310551F04217530738F0A90183
:10286000DB019A01BD01DF01F801C1CFEF01F9CF12
:1028700090938D0280938C02CDCFFE01E20FF31F67
:10288000819391932250310939832883D7CF2091A6
:102890008A0230918B02232B41F420913401309134
:1028A000350130938B0220938A02209132013091BE
:1028B00033012115310541F42DB73EB74091360162
:1028C00050913701241B350BE0918A02F0918B0265
:1028D000E217F307A0F42E1B3F0B2817390778F0F7
:1028E000AC014E5F5F4F2417350748F04E0F5F1F56
:1028F00050938B0240938A02819391939FCFF0E093
:10290000E0E09CCFCF93DF930097E9F0FC01329792
:1029100013821282A0918C02B0918D02ED0130E001
:1029200020E01097A1F420813181820F931F209124
:102930008A0230918B022817390709F061C0F093A1
:102940008B02E0938A02DF91CF910895EA01CE17BE
:10295000DF07E8F54A815B819E0141155105B1F71A
:10296000E901FB83EA8349915991C40FD51FEC1704
:10297000FD0761F4808191810296840F951FE90122
:1029800099838883828193819B838A83F0E0E0E04E
:1029900012968D919C9113970097B9F52D913C91CA
:1029A0001197CD010296820F931F20918A023091D8
:1029B0008B022817390739F6309751F510928D029E
:1029C00010928C02B0938B02A0938A02BCCFD38367
:1029D000C28340815181840F951FC817D90761F4C4
:1029E0004E5F5F4F88819981480F591F5183408303
:1029F0008A819B81938382832115310509F0B0CFB1
:102A0000F0938D02E0938C029ECFFD01DC01C0CFDC
:102A100013821282D7CFFC0188279927E89421914D
:102A20002032E9F3293010F02E30C8F32B3241F078
:102A30002D3239F4689404C00E946515820F911DEF
:102A4000219120532A30C0F31EF4909581959F4F19
:102A500008951F93FC0199278827BC01E8941191E0
:102A60001032E9F3193010F01E30C8F31B3251F068
:102A70001D3249F4689406C00E945015610F711D03
:102A8000811D911D119110531A30B0F33EF49095B1
:102A90008095709561957F4F8F4F9F4F1F9108953F
:102AA000592F482F372F262F660F771F881F991F02
:102AB000660F771F881F991F620F731F841F951F52
:102AC000660F771F881F991F08957AE0979F902DB2
:102AD000879F802D910D11240895E89409C097FBDC
:102AE0003EF490958095709561957F4F8F4F9F4FE5
:102AF0009923A9F0F92F96E9BB279395F695879529
:102B000077956795B795F111F8CFFAF4BB0F11F4EB
:102B100060FF1BC06F5F7F4F8F4F9F4F16C0882392
:102B200011F096E911C0772321F09EE8872F762FC8
:102B300005C0662371F096E8862F70E060E02AF009
:102B40009A95660F771F881FDAF7880F96958795F5
:102B500097F908950E94BD150C942E160E94201618
:102B600038F00E94271620F0952311F00C941716C8
:102B70000C941D1611240C9462160E943F1670F3DB
:102B8000959FC1F3950F50E0551F629FF001729F12
:102B9000BB27F00DB11D639FAA27F00DB11DAA1F21
:102BA000649F6627B00DA11D661F829F2227B00D6E
:102BB000A11D621F739FB00DA11D621F839FA00DF9
:102BC000611D221F749F3327A00D611D231F849F49
:102BD000600D211D822F762F6A2F11249F575040A0
:102BE0009AF0F1F088234AF0EE0FFF1FBB1F661F1B
:102BF000771F881F91505040A9F79E3F510580F0E4
:102C00000C9417160C9462165F3FE4F3983ED4F3CD
:102C1000869577956795B795F795E7959F5FC1F787
:102C2000FE2B880F911D9695879597F9089597F932
:102C30009F6780E870E060E008959FEF80EC089562
:102C400000240A941616170618060906089500248B
:102C50000A9412161306140605060895092E039405
:102C6000000C11F4882352F0BB0F40F4BF2B11F479
:102C700060FF04C06F5F7F4F8F4F9F4F089557FDD8
:102C80009058440F551F59F05F3F71F04795880FDA
:102C900097FB991F61F09F3F79F087950895121671
:102CA00013061406551FF2CF4695F1DF08C016161D
:102CB00017061806991FF1CF8695710561050894CE
:102CC0000895E894BB2766277727CB0197F90895E5
:102CD000DC01CB01FC01F999FECF06C0F2BDE1BDDC
:102CE000F89A319600B40D9241505040B8F70895CB
:102CF000F999FECF92BD81BDF89A992780B50895C4
:102D0000DC01A40FB51F4150504048F0CB01840FA7
:102D1000951F2E910E94911641505040D0F7089572
:102D2000262FF999FECF92BD81BDF89A019700B484
:102D3000021639F01FBA20BD0FB6F894FA9AF99A24
:102D40000FBE0895052E97FB1EF400940E94B9163D
:102D500057FD07D00E94031707FC03D04EF40C94D4
:102D6000B91650954095309521953F4F4F4F5F4F85
:102D7000089590958095709561957F4F8F4F9F4FE7
:102D800008950E942517A59F900DB49F900DA49FB4
:102D9000800D911D112408952F923F924F925F92C2
:102DA0006F927F928F929F92AF92BF92CF92DF925B
:102DB000EF92FF920F931F93CF93DF93CDB7DEB7C0
:102DC000CA1BDB0B0FB6F894DEBF0FBECDBF099454
:102DD0002A88398848885F846E847D848C849B84AB
:102DE000AA84B984C884DF80EE80FD800C811B81B9
:102DF000AA81B981CE0FD11D0FB6F894DEBF0FBEE8
:102E0000CDBFED010895A1E21A2EAA1BBB1BFD0147
:102E10000DC0AA1FBB1FEE1FFF1FA217B307E407B9
:102E2000F50720F0A21BB30BE40BF50B661F771F11
:102E3000881F991F1A9469F76095709580959095F1
:102E40009B01AC01BD01CF010895A29FB001B39FCA
:102E5000C001A39F700D811D1124911DB29F700DA3
:102E6000811D1124911D08955058BB27AA270E9447
:102E70004C170C942E160E94201638F00E9427162C
:102E800020F039F49F3F19F426F40C941D160EF42B
:102E9000E095E7FB0C941716E92F0E943F1658F3B4
:102EA000BA17620773078407950720F079F4A6F52F
:102EB0000C9461160EF4E0950B2EBA2FA02D0B0189
:102EC000B90190010C01CA01A0011124FF27591B6F
:102ED00099F0593F50F4503E68F11A16F040A22F75
:102EE000232F342F4427585FF3CF469537952795E6
:102EF000A795F0405395C9F77EF41F16BA0B620BE5
:102F0000730B840BBAF09150A1F0FF0FBB1F661F2B
:102F1000771F881FC2F70EC0BA0F621F731F841F6E
:102F200048F4879577956795B795F7959E3F08F094
:102F3000B0CF9395880F08F09927EE0F9795879556
:102F400008950E94B5170C942E160E94271658F06B
:102F50000E94201640F029F45F3F29F00C941716C8
:102F600051110C9462160C941D160E943F1668F3C2
:102F70009923B1F3552391F3951B550BBB27AA2732
:102F800062177307840738F09F5F5F4F220F331F6C
:102F9000441FAA1FA9F335D00E2E3AF0E0E832D034
:102FA00091505040E695001CCAF72BD0FE2F29D037
:102FB000660F771F881FBB1F261737074807AB0709
:102FC000B0E809F0BB0B802DBF01FF2793585F4F7E
:102FD0003AF09E3F510578F00C9417160C94621647
:102FE0005F3FE4F3983ED4F3869577956795B79560
:102FF000F7959F5FC9F7880F911D9695879597F96B
:103000000895E1E0660F771F881FBB1F62177307E3
:103010008407BA0720F0621B730B840BBA0BEE1FF8
:1030200088F7E09508950E941A186894B1110C94DD
:10303000621608950E94471688F09F5798F0B92F9E
:103040009927B751B0F0E1F0660F771F881F991FDD
:103050001AF0BA95C9F714C0B13091F00E94611608
:10306000B1E008950C946116672F782F8827B85F18
:1030700039F0B93FCCF3869577956795B395D9F735
:103080003EF490958095709561957F4F8F4F9F4F3F
:103090000895AA1BBB1B51E107C0AA1FBB1FA6179F
:1030A000B70710F0A61BB70B881F991F5A95A9F7F1
:1030B00080959095BC01CD01089597FB072E16F4DD
:1030C000009407D077FD09D00E94491807FC05D06D
:1030D0003EF4909581959F4F0895709561957F4F2F
:1030E0000895EE0FFF1F0590F491E02D09940E94C2
:1030F0002517B7FF0895821B930B0895FB01DC0190
:103100004150504048F001900D920020C9F701C095
:103110001D9241505040E0F70895AEE0B0E0E3E981
:10312000F8E10C94DA160D891E898F89988D26E0B6
:103130002C831A83098397FF02C080E090E80197EF
:103140009E838D83AE01455E5F4F698D7A8DCE0182
:1031500001960E94BD184D815E8157FD0AC02F81E6
:103160003885421753070CF49A01020F131FF80118
:1031700010822E96E4E00C94F616ABE0B0E0E3EC9F
:10318000F8E10C94CC167C013B018A01FC0117820A
:103190001682838181FFC8C1CE0101965C01F701CF
:1031A0009381F30193FD859193FF81913F018823E2
:1031B00009F453C1853239F493FD859193FF8191D0
:1031C0003F01853229F4B70190E00E94AD1AE7CFA4
:1031D000912C212C312CFFE1F31538F08B3211F1B9
:1031E00090F4803209F1833229F137FC3CC020EDA4
:1031F000280F2A3050F536FE20C08AE0989E200D18
:103200001124922E06C08D3291F0803371F76894AC
:1032100030F8F30193FD859193FF81913F01811176
:10322000DACF21C0689431F8689432F8F2CF68940C
:1032300033F8EFCF689434F8ECCFEAE02E9E200DFF
:103240001124222E689435F8E4CF8E3229F436FC0E
:1032500004C1689436F8DDCF8C3619F4689437F8D9
:10326000D8CF8836B1F2982F9F7D95549330E0F0F7
:103270008336A1F18337C1F1833509F063C028019A
:10328000F2E04F0E511CF801C080D180692D70E032
:1032900036FC02C06FEF7FEFC6010E94971A4C0107
:1032A000689437F882010AC00C5F1F4FFFE3F9836F
:1032B00088248394912C6501E89437F833FE2DC05F
:1032C000522C8114910471F5552009F468CFB7018F
:1032D00080E290E00E94AD1A5A94F6CFF801808106
:1032E00089830E5F1F4FE4CF2801F2E04F0E511C7F
:1032F000F801C080D180692D70E036FC02C06FEF0C
:103300007FEFC6010E94A21A4C018201D5CFB701FE
:1033100080E290E00E94AD1A2A942814190409F062
:10332000B0F7CECFF60137FC859137FE81916F0162
:10333000B70190E00E94AD1A51105A94F1E08F1A33
:103340009108BFCF843619F0893609F077C0F801AB
:1033500037FE6BC060817181828193810C5F1F4F4A
:10336000F32DFF763F2E97FF09C0909580957095BD
:1033700061957F4F8F4F9F4F689437F82AE030E078
:10338000A5010E94DD1AC82ECA188C2C432C36FECB
:103390000CC0E89440F8C91440F434FE05C032FC77
:1033A00003C0F32DFE7E4F2E892C44FE95C0FE01F6
:1033B000EC0DF11D8081803309F087C0242D297E1A
:1033C000422E842D8870582E43FC95C040FE8FC03D
:1033D0009C2C821418F42C0C922C981844FE91C04A
:1033E000B70180E390E00E94AD1A42FE09C088E771
:1033F00090E041FE02C088E590E0B7010E94AD1A5E
:10340000C91408F48AC0CA94D12C9FEFC91AD90AEA
:10341000CA0CDB1CF60182916F01B70190E00E949B
:10342000AD1AAC14BD04B1F74FCF60817181072E86
:10343000000C880B990B0E5F1F4F92CFD32CE89492
:10344000D4F82AE030E0853739F1232D297FD22EB8
:103450008F3601F148F48835A9F0F701868197810C
:103460002B96E2E10C94E816803749F08837A9F7EB
:10347000D4FE02C06894D2F820E130E00DC0689418
:10348000D4F8F6CF34FE03C0822F8660D82E20E118
:1034900032E002C028E030E0F801D7FE0FC06081C2
:1034A0007181828193810C5F1F4FA5010E94DD1AFB
:1034B000C82ECA183D2CE89437F867CF6081718117
:1034C00090E080E00E5F1F4FF0CF42FC02C083947B
:1034D00078CF8394839475CF842D867809F471CF47
:1034E000F6CFB70180E290E00E94AD1A8394821477
:1034F000C0F3512C73CF522C5818821408F46ECF9D
:10350000F8CF842D867809F47BCF8BE241FE80E2F0
:1035100047FC8DE2B70190E071CFB70180E390E006
:103520000E94AD1A9A946CCF8FEF9FEF99CFFC0158
:103530000590615070400110D8F7809590958E0FDE
:103540009F1F0895FC016150704001900110D8F751
:10355000809590958E0F9F1F08950F931F93CF9383
:10356000DF93182F092FEB018B8181FD09C01FEF1D
:103570000FEF812F902FDF91CF911F910F91089521
:1035800082FF14C02E813F818C819D8128173907CD
:103590003CF4E881F981CF010196998388831083F7
:1035A0008E819F8101969F838E83E3CFE885F98585
:1035B000812F0995892BA1F3DACFFA01AA272830A8
:1035C00051F1203181F1E8946F936E7F6E5F7F4FF0
:1035D0008F4F9F4FAF4FB1E03ED0B4E03CD0670F6C
:1035E000781F891F9A1FA11D680F791F8A1F911DBF
:1035F000A11D6A0F711D811D911DA11D20D009F40F
:1036000068943F912AE0269F11243019305D319350
:10361000DEF6CF010895462F4770405D4193B3E039
:103620000FD0C9F7F6CF462F4F70405D4A3318F0E0
:10363000495D31FD4052419302D0A9F7EACFB4E091
:10364000A6959795879577956795BA95C9F7009749
:103650006105710508959B01AC010A2E06945795EA
:10366000479537952795BA95C9F7620F731F841F41
:10367000951FA01D089510E0CDE5D0E004C0FE0127
:103680000E9471182196CE35D107C9F7F894FFCF63
:10369000FFFFFF010101000000000000000000FC2E
:1036A000E1A8A8FFE4042B022A1096023003B0021E
:1036B0001610670255024B020140033C107F017F48
:1036C000010100008E0280000008000001070000D8
:1036D00003050000000000000004060000000000D8
:1036E0000000322E332E320073656E736F722D44DC
:1036F000696D6D65722D322D52656C65792D3200C4
:10370000312E3200496E742E54656D700052656C16
:1037100061792E4C69676874730044696D6D6572D8
:103720002E4C6967687473004175746F2E4C69671D
:0C37300068747300727373693A256400BA
:1078000011E0A0E0B1E0E4EFFFE702C005900D92C7
:10781000A630B107D9F721E0A6E0B1E001C01D9282
:10782000AD34B207E1F7CDB7DEB72897DEBFCDBFE5
:10783000112484B78093270114BE88E180936000EF
:1078400089E280936000259A86E020E295B1922734
:1078500095B93FE748E351E0315040405040E1F7EF
:1078600000C00000815091F78091270181FD18C070
:107870008EE284B981E58CBD81E08DBD412C512C17
:10788000222423941CE3612E11E0712E33243394BF
:10789000CC24CA94DC2CAA24A39483E0B82E45C13E
:1078A00082E08093C00088E18093C10086E08093ED
:1078B000C20087E68093C40000E010E0C12CD12C08
:1078C000AA24AA94BA2CEE24E394A895EED181348C
:1078D00069F4EBD1F82E36D382E8F81629F091E856
:1078E000F91202C085E651C083E04FC0823411F422
:1078F00084E103C0853419F485E030D362C0853556
:1079000041F4D3D1082FD1D110E0182B000F111F53
:1079100057C0863521F484E021D380E036C0843618
:10792000E9F4C3D1C2D1882EC0D1C80CD11C912C8E
:10793000981488F4BAD1F82EB8D1F801E90DF11DE8
:107940002F2D30E0A901582B0A01E7BEE89511243C
:1079500093949394EDCFC801B4D132C0843769F4C5
:10796000A4D1A3D1F82EA1D1EDD2F80185918F0138
:10797000E2D2FA94F110F9CF25C0853741F4E2D272
:107980008EE1D9D285E9D7D28FE0D5D21AC0813520
:10799000B9F4BA82A982BC82AB82C601F4E09695A2
:1079A0008795FA95E1F79E838D83C6019CD19887D0
:1079B0008F83CE010196D9D2C5D2FF24F39402C0A1
:1079C000C1D2F12C80E1B7D2FF2009F47ECF50CF95
:1079D00043E050E060E070E089E291E0E9D248E005
:1079E00050E06BE171E0CE010196E2D229982A9A2B
:1079F00063E083E2D2D16CE485E2CFD167E286E234
:107A0000CCD163E780E5C9D164E08DE3C6D161E004
:107A100082E2C3D161E081E2C0D161E08CE3BDD1FB
:107A200021E041E060E070E086E08AD1873209F031
:107A300026C180912A01809328018FEF80932A012B
:107A400080932B018093080163E584E2A6D143E291
:107A50006AE087E069D161E08EEFBED11092080143
:107A60006FE584E29AD180912A018F3F09F407C122
:107A70008091290181508E3F08F05AC030920D014B
:107A800010920E0143EC62E18FE04ED160E08FE096
:107A9000A3D18D819E81E4E0880F991FEA95E1F7DB
:107AA00022D198878F8388E0FE013196ADE0B1E066
:107AB00001900D928A95E1F7B0921601A0921501FE
:107AC00044EC62E580E030D163E081E085D1882339
:107AD00009F4D5C048E050E063E371E0CE010196BF
:107AE0005AD2892B09F4CBC080913701909138018B
:107AF000009709F045C08091390190913A018A3789
:107B00009A4D09F041C08091330190913401813048
:107B1000910571F500E010E06FEFC80159D20F5FD9
:107B20001F4F011584E01807B9F7F999FECF50CF20
:107B300043E262E083E0F8D063E084E04DD1882343
:107B400009F496CF80912F01869586958695E3E37B
:107B5000F1E060E0815048F02191660F962F990F77
:107B6000990F690F6053620FF5CF80E090E006C077
:107B7000029782309105C8F66091350129D2D5CFA0
:107B80008038974008F07BC088E0E3E3F1E0DE0155
:107B9000119601900D928A95E1F7EF80F884D886CE
:107BA000CF82CE010196E1D18D809E8089819A811C
:107BB00090930E0180930D018B819C819093100115
:107BC00080930F0184010150110910931201009359
:107BD000110144EC62E382E0A7D063E083E0FCD0D3
:107BE000882309F44BCF46E050E063E371E08DE079
:107BF00091E0D1D1892BD1F6C4018150904F682FEB
:107C000062956077ACE2B1E0462F50E04C525140B3
:107C1000FA01EA0FFB1F1E962C911E9730E0322FBF
:107C200022271D967C911D97272B090127BEE895D9
:107C3000112412966A167B0659F7611106C044E0BA
:107C4000880F991F4A95E1F73CD00115110511F0F5
:107C50004801ACCFF886EF828D819E8134E0880F99
:107C6000991F3A95E1F73FD0E816F90621F01E82F8
:107C70001D8218861F82CE01019677D156CF8D8145
:107C80009E8124E0880F991F2A95E1F72CD02F813F
:107C900038858217930709F048CF1CBCA8958091BE
:107CA0002701282EF201099540CF8091C00087FF5F
:107CB000FCCF8091C00084FD01C0A8958091C600D2
:107CC000089523E0FC0127BFE89507B600FCFDCF2F
:107CD00025E0FC0127BFE89507B600FCFDCF81E158
:107CE00087BFE8950895BC01E0E0F0E08FEF9FEFDB
:107CF000E617F707C0F4E11528E7F207A0F425918D
:107D0000822748E0DC01B695A7959C0121703327B6
:107D10003195219531092170307ACD018227932741
:107D2000415081F7E5CF089590912901E6E0F1E017
:107D3000918390839FEF9683858344836383089523
:107D40002A989AE19A95F1F700C08EBD0DB407FE0E
:107D5000FDCF8EB59FEF4150D0F0222369F09EBD3C
:107D60000DB407FEFDCF8EB561157105A1F3DB01E2
:107D70008C936F5F7F4FEFCFFB013196DB018C91CE
:107D80008EBD0DB407FEFDCF8EB5BF01E4CF2A9A9C
:107D9000BAE1BA95F1F700C00895CF93DF931F922F
:107DA000CDB7DEB7698320E041E0BE016F5F7F4F52
:107DB000C7DF0F90DF91CF91089520E040E060E0B1
:107DC00070E082EEBDDF20E040E060E070E081EE38
:107DD000B7DF60E787E2E1CFFF920F931F93CF9366
:107DE000DF93082FF62EC0910901C695C695C6955A
:107DF000C95FD0912A0129986EE080E2CEDFD0934E
:107E0000000120E045E060E071E08AE299DF20E0D7
:107E100045E060E071E080E393DF20E04C2F66E016
:107E200071E080EA8DDF299A8AE08A95F1F700C037
:107E300020E040E060E070E08FEF82DF8073C1F30C
:107E40002998BBDF6FE080E2A8DF609129018AE218
:107E5000A4DF299ACFEFDFEFA89521E041E060E0B1
:107E600070E087E16DDF80FF02C09FEF4BC021E033
:107E700041E060E070E080E663DF182F813208F0B7
:107E800010E021E0412F6CE271E081E659DF95DFDF
:107E9000812F90E020912F0126952695269530E0A0
:107EA000295F3F4F8217930701F790912E01809130
:107EB00029019813DACF90913101809130018770B8
:107EC000833001F59830F1F420912A018091280146
:107ED000281302C08F3FB1F420912D01821304C0FA
:107EE00080932A019EEF0EC03091330181E0830F11
:107EF0008093330140912B01341720F480932B01A0
:107F000020932A0188E08A95F1F7219719F4F1105E
:107F100008C002C00913A0CF81E0091731F080E04A
:107F200004C0FA9409135FCFF7CFDF91CF911F916F
:107F30000F91FF9008959091C00095FFFCCF809322
:107F4000C6000895B2DE803239F088E18093600087
:107F500088E080936000FFCF84E1EDCFCF93C82FFE
:107F6000A4DEC150E9F7CF91EDCF0F931F93CF93CC
:107F7000DF938C01CBE1D1E0F80161918F01CE015B
:107F800027D02196C332F1E0DF07B1F7DF91CF911F
:107F90001F910F910895FB01DC0104C08D910190A8
:107FA000801921F441505040C8F7881B990B08955F
:107FB000DC01CB01FC01F999FECF06C0F2BDE1BDA9
:107FC000F89A319600B40D9241505040B8F7089598
:107FD000262FF999FECF92BD81BDF89A019700B482
:107FE000021639F01FBA20BD0FB6F894FA9AF99A22
:0A7FF0000FBE089500FCE1A8A800F0
:00000001FF
